:400000000080002011000000F9230000F923000008B5044B1A6803F53F5302331A6002F0EDF900BFFA46004010B5054C237833B9044B13B10448AFF300800123237010BD57
:400040005083FF1F00000000103A0000084B10B51BB108480849AFF300800848036803B910BD074B002BFBD0BDE81040184700BF00000000103A00005483FF1F0881FF1F19
:400080000000000008B503F027F802F031FF02F083FC02F079FD02F0A3FB02F02BFC03F0C7F808BD10B5154C2078002103F018F8134B1878012103F013F8124B1878022156
:4000C00003F00EF8104B1878032103F009F80F4B1878042103F004F80D4B1878052102F0FFFF0C4B1878062102F0FAFF20780130C0B2072102F0F4FF10BD00BF568AFF1F3D
:400100004C92FF1FE58CFF1F578AFF1F4A92FF1F6092FF1F0A8DFF1F10B59CB0994A19AB07CA03C31A80984B16AC93E8070003C42280964A13AC07CA03C4228010AC03F174
:400140000C0207CA03C4227000228DF849200DAC03F1180103C984E80300ADF83C200AAC03F1240207CA03C4228007AC03F1300207CA03C4228004AC03F13C0207CA03C49E
:40018000228001AC483393E8070003C42280804B1B78022B7AD10120014601F04DFB012019A9002201F002FC4FF4967002F0DEFD784B1B785BB90133DBB2774A82F8023170
:4001C00082F80532012016A9002201F0EFFB714B1B78012B0BD10133DBB26F4A82F8023182F80532012013A9002201F0DFFB694B1B78022B0BD10133DBB2674A82F8023109
:4002000082F80532012010A9002201F0CFFB614B1B78032B0BD10133DBB25F4A82F8023182F8053201200DA9002201F0BFFB5B4B1B783BB901200AA9162201F0B7FB05229E
:40024000574B1A70554B1B78012B07D1012007A9162201F0ABFB0622514B1A704F4B1B78022B07D1012004A9162201F09FFB07224B4B1A70494B1B78032B07D1012001A929
:40028000162201F093FB0822454B1A70404B1B78042B6DD101202E2101F0CEFA012019A9002201F083FB4FF4967002F05FFD394B1B787BB90133DBB2374A82F8023182F8D0
:4002C000053282F8083382F80B34012016A9002201F06CFB2F4B1B78012B0FD10133DBB22D4A82F8023182F8053282F8083382F80B34012013A9002201F058FB254B1B789C
:40030000022B0FD10133DBB2234A82F8023182F8053282F8083382F80B34012010A9002201F044FB1B4B1B78032B0FD10133DBB2194A82F8023182F8053282F8083382F8D2
:400340000B3401200DA9002201F030FB134B1B78012B04D1012007A9162201F027FB0F4B1B78022B04D1012004A9162201F01EFB074B1B78012B03D80120002101F05CFAA7
:400380001CB010BD7C3A0000143A0000883A00006892FF1F568AFF1FC083FF1F6092FF1F0A8DFF1F08B5104B1B78022B06D10220012101F041FA00220C4B1A600A4B1B78A8
:4003C000042B03D102202E2101F036FA064B1B78012B03D80220002101F02EFA02200449002201F0E3FA08BD6892FF1FA48FFF1F0C81FF1F08B500F0B7FD2D4B1870002860
:4004000055D02C4B187800F097FD01F021F850B90120002101F010FA0220002101F00CFA0022234B1A70234B93F8030100F084FD01F00EF850B90120002101F0FDF90220AF
:40044000002101F0F9F90022194B1A70194B187800F072FD00F0FCFF48B3164B93F8030100F06AFD00F0F4FF08B300F07DFD104B1870104B187800F05FFD06280DD10D4B62
:4004800093F8030100F058FD062806D1094B187801F0D6F8FFF706FE08BD0120092101F0CBF90220092101F0C7F9FFF7A3FF08BD6892FF1FC083FF1F70B584B0B14B1B6856
:4004C000092B00F27483DFE813F00A001000410092004A01840101024702B102F102FFF71BFE0122A74B1A6061E302F063FA082840F05D83A44B1B78DBB2AA2B20D1A24B33
:400500009B79DBB2C32B1BD19F4BDB79DBB23C2B16D19D4BDB78DBB23A2B02D07E2B08D00EE00222974B1A600120042101F084F906E00120014601F07FF90022914B1A6056
:400540000A2002F013FC02F063FA30E302F032FA082840F02C838C4B1B78DBB2AA2B40D1894B9B79DBB2C32B3BD1874BDB79DBB23C2B36D1844BDB78DBB2452B1AD004D86F
:400580000D2B07D00E2B0DD02BE07E2B22D0942B18D026E003227B4B1A600120052101F04BF91EE00422774B1A600120852101F043F916E00522734B1A600120832101F083
:4005C0003BF90EE000226F4B1A600120014601F033F906E000226B4B1A600120014601F02BF90A2002F0C2FB02F012FADFE202F0E1F9082840F0DB82634B1B78DBB2AA2B85
:4006000040F0A780604B9B79DBB2C32B40F0A1805D4BDB79DBB23C2B40F09B805A4BDB78DBB23B2B00F0868004D80F2B0BD0102B27D08EE07E2B00F08580942B72D0432B1E
:4006400040F087803BE004224E4B1A604F4B002483F80C41022583F86350442283F864204B4B1C700120062101F0E6F80120009001944E230293242103222B4601F0BEF9A7
:4006800067E004223F4B1A60404B002583F80C51012483F86340562683F864603C4B1D7020460D2101F0C8F8009401954E230293204631460322022301F0A0F949E0334B62
:4006C000022283F86320462283F86420012306E02E4A1A44392182F865100133DBB219462C4A1278501E8342F2DB284B5C18302084F8650084F8660083F86520002307E024
:400700002249194491F8650081F86F000133DBB29342F5D905221B4B1A600120862101F08BF816E00022174B1A600120014601F083F80EE00022134B1A600120014601F06B
:400740007BF806E000220F4B1A600120014601F073F80A2002F00AFB02F05AF927E201200C4B1978002201F0ADF910B101281ED01DE20022034B1A600120014601F05CF8C7
:4007800015E200BF208DFF1F6C94FF1FD087FF1F0B8DFF1F0A8DFF1F8B4A1A4492F84B1082F8651082F86F100133DBB200E00023854A92F84B209A42EED20022824B83F82C
:4007C0000C210522814B1A600120862101F034F8EDE102F0EFF8082840F0E9817C4B1B78DBB2AA2B6CD17A4B9B79DBB2C32B67D1774BDB79DBB23C2B62D1754BDB787E3B7B
:400800003A2B5DD8DFE803F055351E295C5C5C5C5C5C5C5C5C5C5C5C5C5C5C5C5C5C4D5C5C5C5C5C5C5C5C5C5C5C5C5C5C5C5C5C5C5C5C5C5C5C5C5C5C5C5C5C5C5C5C5CF2
:400840005C5C41000622614B1A600120614B83F801010B2100F0F0FF32E006225B4B1A6002225C4B83F8012101200B2100F0E4FF26E00622554B1A600322564B83F801214F
:4008800001200B2100F0D8FF1AE006224F4B1A600422504B83F8012101200B2100F0CCFF0EE00022494B1A600120014600F0C4FF06E00120014600F0BFFF0022434B1A6029
:4008C0000A2002F053FA02F0A3F870E102F072F8082840F06C813E4B1B78DBB2AA2B35D13B4B9B79DBB2C32B30D1394BDB79DBB23C2B2BD1364BDB78DBB2392B04D07E2B64
:400900001DD0382B22D10FE00922304B1A600022314B1A702C4B012083F80C0183F87C020A2100F089FF11E00022274B83F80C210721264B1960012000F07EFF06E00120AD
:40094000014600F079FF0022204B1A600A2002F00DFA02F05DF82AE1012000F003FF01461C4B83F8000193F80131984236D1164A92F8633017480078653203F0030300F09D
:4009800085FD012812D1134C207800F0D5FA207840F0100002F042FB322002F0E7F908210A4B1960012000F047FF1AE00021074B1960012000F040FFC82002F0D7F9012079
:4009C000014600F039FF0CE0D087FF1F208DFF1F6C94FF1FC083FF1F0B8DFF1F0722754B1A6001F0E7FF08281DD1734B1B78DBB2AA2B15D1704B9B79DBB2C32B10D16E4B52
:400A0000DB79DBB23C2B0BD16B4BDB78DBB27E2B06D10120014600F00FFF0022654B1A600A2002F0A3F901F0F3FFC0E0634B187800F082FA0A2805D00B2819D0062840F064
:400A4000B6802BE05D4B187800F01EFB0022594B1A605B4B93F87C32012B04D10120574B197801F095FB0120014600F0E5FE9EE0524B187800F008FB00224E4B1A60504B56
:400A800093F87C32012B04D101204C4B197801F07FFB0120014600F0CFFE88E00022454B1A600120014600F0C7FE80E001200A21002201F007F810B1012837D077E0404BE1
:400AC00093F80C31022B1FD0032B29D0012B2AD107E03B4A1A44002182F8EB100133DBB200E000230A2BF4D90022324B1A600120014600F0A1FE16E0314A1A44002182F824
:400B0000F6100133DBB200E000230A2BF4D90AE02B4A1A44002182F801110133DBB200E000230A2BF4D901F073FF40E0244B93F80C31022B23D0032B31D0012B35D108E096
:400B40001F4A1A4492F84B1082F8EB100133DBB200E000231A4A92F84B209A42F0D20721144B1960012000F067FE1EE0144A1A4492F84B1082F8F6100133DBB200E0002340
:400B80000F4A92F84B209A42F0D20EE00C4A1A4492F84B1082F801110133DBB200E00023074A92F84B209A42F0D201F031FF04B070BD00BF208DFF1F6C94FF1FC083FF1F83
:400BC000D087FF1F08B5A94B1B68062B00F28B81DFE813F007000D0041009200ED001D015001FFF7DFFB0122A04B1A6008BD0220232100F0ADFE01F0D5FF082840F07381D9
:400C00009B4B1B78DBB2AA2B1FD1994B9B79DBB2C32B1AD1964BDB79DBB23C2B15D1944BDB78DBB23A2B02D07E2B07D00DE002208E4B1860042100F0FFFD06E0022001216B
:400C400000F0FAFD0022894B1A600A2002F08EF801F0D6FF08BD01F0A5FF082840F04381834B1B78DBB2AA2B40D1814B9B79DBB2C32B3BD17E4BDB79DBB23C2B36D17C4B1D
:400C8000DB78DBB2452B1AD004D80D2B07D00E2B0DD02BE07E2B22D0942B18D026E00322724B1A600220052100F0C6FD1EE004226E4B1A600220852100F0BEFD16E0052268
:400CC0006A4B1A600220832100F0B6FD0EE00022664B1A600220012100F0AEFD06E00022624B1A600220012100F0A6FD0A2002F03DF801F085FF08BD01F054FF082840F00D
:400D0000F2805B4B1B78DBB2AA2B4AD1584B9B79DBB2C32B45D1564BDB79DBB23C2B40D1534BDB78DBB23B2B2CD004D80F2B09D0102B0FD035E07E2B2CD0942B1AD0432B8F
:400D40002FD10FE00422494B1A600220062100F073FD26E00522454B1A6002200D2100F06BFD1EE00622414B1A6002200B2100F063FD16E000223D4B1A600220012100F0B0
:400D80005BFD0EE00022394B1A600220012100F053FD06E00022354B1A600220012100F04BFD0A2001F0E2FF01F02AFF08BD01F0F9FE082840F097802D4B1B78DBB2AA2B24
:400DC0001FD12B4B9B79DBB2C32B1AD1284BDB79DBB23C2B15D1264BDB78DBB27E2B09D0942B0ED10022214B1A600220012100F023FD06E000221D4B1A600220012100F087
:400E00001BFD0A2001F0B2FF01F0FAFE08BD01F0C9FE082867D1164B1B78DBB2AA2B1FD1134B9B79DBB2C32B1AD1114BDB79DBB23C2B15D10E4BDB78DBB27E2B09D0942BDE
:400E40000ED10022094B1A600220012100F0F4FC06E00022054B1A600220012100F0ECFC0A2001F083FF01F0CBFE08BDA48FFF1F8C94FF1F01F096FE082834D11A4B1B7834
:400E8000DBB2AA2B2AD1184B9B79DBB2C32B25D1154BDB79DBB23C2B20D1134BDB78DBB2392B04D07E2B12D0382B17D107E002200A2100F0C1FC07220C4B1A600EE002201D
:400EC000862100F0B9FC0822084B1A6006E00220012100F0B1FC0022044B1A600A2001F045FF01F08DFE08BD8C94FF1FA48FFF1F08B562B6002304E000210D4AD154013321
:400F0000DBB2032BF8D9FFF7BDF8FFF773FA0122084B1A700320002101F048FF01F066FFFFF7CAFA01F062FFFFF74CFEF6E700BF048DFF1F018DFF1F10B5044602F04CF8BD
:400F4000204602F06BF83C2001F010FF02F010F838B101F0DBFFC0F3071402F03DF8204610BD002010BD00BF10B5464BFF221A7083F8032183F8062283F80923012454E095
:400F8000204602F04BF8642001F0F0FE01F0F0FF38B13C4B1B78FF2B03D13A4B1C7002F01BF801F0E5FF68B1364B1B78A34209D0344B93F80331FF2B04D1324B83F8034103
:400FC00002F00AF801F0D4FF90B12E4B1B78A3420ED02C4B93F80331A34209D0294B93F80632FF2B04D1274B83F8064201F0F4FF01F0BEFFB8B1234B1B78A34213D0214B9A
:4010000093F80331A3420ED01E4B93F80632A34209D01C4B93F80933FF2B04D1194B83F8094301F0D9FF0134E4B2102CA8D9154B1B78FF2B0ED0134A92F80321FF2A09D093
:40104000104A92F80622FF2A04D00E4A92F80923FF2A0FD1FF2B04D00A4A92F80321FF2A0AD1FF2B0AD1074B93F80331FF2B07D0012010BD042010BD022010BD012010BD79
:40108000002010BDC083FF1F10B5044601F0A4FF44F0400001F0C2FF4FF4967001F066FE01F0A4FEB64B1B78072B00F0F28001F05FFF212840F0ED80B24B1B78DBB2FF2B44
:4010C00040F0AE81AF4B9B78DBB2F82B40F0AA81AC4B93F82030DBB2F02B40F0A581AA4B1B78A3426AD1A74B5B7A03F00F033133A54A82F8FF3001230CE003F10B02A1493E
:401100008A5CA249C91A02F00F02303281F8F1200133DBB2042BF0D904229B4B83F8F1209B4B1B78DBB2012B06D1974B052283F8F120302283F8F62001230CE003F1100224
:4011400090498A5C9349C91A02F00F02303281F8E3200133DBB2062BF0D906228A4B83F8E32001230CE003F1170286498A5C8949C91A02F00F02303281F8D5200133DBB2BF
:40118000062BF0D97E4B1B78052B11D109E05A1E7D49881890F8D5000B4483F8D500D3B200E00623012BF2D83022774B83F8D6200622754B83F8D520012010BD714B5B7A24
:4011C00003F00F033133704A82F8023201230CE003F10B026B498A5C6C49C91A02F00F02303281F8F4210133DBB2042BF0D90422654B83F8F421664B1B78DBB2012B06D1F5
:40120000614B052283F8F421302283F8F92101230CE003F110025B498A5C5E49C91A02F00F02303281F8E6210133DBB2062BF0D90622554B83F8E62101230CE003F1170233
:4012400050498A5C5349C91A02F00F02303281F8D8210133DBB2062BF0D9494B1B78052B11D109E05A1E4849881890F8D8010B4483F8D801D3B200E00623012BF2D8302239
:40128000414B83F8D92106223F4B83F8D821012010BD3B4B1B78072B40F0C88001F068FE272840F0C580374B1B78DBB2FF2B40F0C180344B9B78DBB2F82B40F0BD80314BD3
:4012C00093F82630DBB2F02B40F0B8802E4B1B78A3424BD12B4B5B7A03F00F0331332A4A82F8FF3001230CE003F10B0225498A5C2849C91A02F00F02303281F8F120013343
:40130000DBB2062BF0D906221F4B83F8F12001230CE003F112021B498A5C1F49C91A02F00F02303281F8E3200133DBB2082BF0D90822154B83F8E32001230CE003F11C0293
:4013400010498A5C1449C91A02F00F02303281F8D5200133DBB2072BF0D90B4B302283F8D620082283F8D520012010BD054B5B7A03F00F033133044A82F8023201231AE016
:401380000A8DFF1FAC94FF1FC083FF1FC583FF1FA18FFF1FC783FF1FC983FF1F03F10B0227498A5C2749C91A02F00F02303281F8F4210133DBB2062BF0D90622224B83F8CB
:4013C000F42101230CE003F112021D498A5C1F49C91A02F00F02303281F8E6210133DBB2082BF0D90822184B83F8E62101230CE003F11C0212498A5C1449C91A02F00F02D2
:40140000303281F8D8210133DBB2072BF0D90E4B302283F8D921082283F8D821012010BD002010BD002010BD002010BD002010BD002010BD002010BD002010BD002010BD08
:40144000AC94FF1FC783FF1FC083FF1FC983FF1F30B1002802DB831F062B01D90020704701207047002104E003F00F030B44D9B201300378FB2BF7D103F00F0288184042F5
:4014800000F00F0040F0E000704700BFF0B587B005460E46144600230193029303930493ADF81430FFF748FD0638C0B201280AD845F0200001F0B2FD322001F057FC01F0FE
:4014C00025FD074600E0002701F086FD01F084FD45F0D003BB4240F0AA80FF238DF80430E1238DF80530012D40F0A380524A92F8633063F00F038DF80630F6238DF8073069
:40150000013E06F00F0666F01F068DF80860F8238DF8093092F86450462D09D006231AE006AA1A44E92102F8141C0133DBB200E00623424A127806329342F1DB1A4608E030
:4015400006A91144E02001F8140C0133DBB20132D2B20D2AF4D9442D20D120781A460CE0215C06AE164401F00F0161F01F0106F8141C0138C0B20132D2B2217819448A423D
:40158000EEDB134608E006A91144E02001F8140C0133DBB20132D2B20D2AF4D9562D20D120781A460CE0215C06AD154401F00F0161F01F0105F8141C0138C0B20132D2B2A6
:4015C000217819448A42EEDB134608E006A91144E02001F8140C0133DBB20132D2B20D2AF4D906AA1A44FB2102F8141C5D1CEDB201A8FFF737FF06AB2B4403F8140C0135D4
:40160000EDB206AB2B44F02203F8142C002407E006AB234413F8140C01F000FD0134E4B2AC42F5D9322001F0A1FB012002E0002000E0002007B0F0BDD087FF1F0A8DFF1F4B
:40164000F0B585B000AF0446FFF776FC06280AD144F0200001F0E2FC322001F087FB01F055FC054600E0002501F0B6FC44F0D004AC4222D1FF233B71E9237B71FE23BB710D
:40168000EE23FB71E0233B727B72FB23BB72381DFFF7E8FEF872F0233B73002408E007F11003234413F80C0C01F0B8FC0134E4B2082CF4D9C82001F059FB01F059FCC6B26C
:4016C000F31D23F00703ADEB030D6D46002404E001F01CFC28550134E4B2B442F8D901F07BFCAB7A03F00F03184A13702B7B03F00F03174A1370AB7B03F00F03013B154A76
:4017000013702B7C03F00F03012B01D0042B02D10321114A1170032B00D013B902210E4A1170022B02D101220B4B1A70AB7C03F00F03013B094A13702B7D03F00F03084A75
:40174000137000201437BD46F0BD00BF568AFF1F4C92FF1FE58CFF1F578AFF1F4A92FF1F6092FF1FF0B585B000AF0446FFF7E4FB0638C0B201280AD844F0200001F04EFC88
:40178000322001F0F3FA01F0C1FB054600E0002501F022FC44F0D004AC422AD1FF233B71E9237B71FE23BB71E023FB71E1223A727B72FB23BB72381DFFF754FEF872F02379
:4017C0003B73002408E007F11003234413F80C0C01F024FC0134E4B2082CF4D9154B1B7823B14FF42F7001F0C1FA02E0C82001F0BDFA01F0BDFBC5B2EB1D23F00703ADEB19
:40180000030D6E46002404E001F080FB30550134E4B2AC42F8D901F0DFFB337B03F00F03012B03D1B07B00F00F0000E000201437BD46F0BD568AFF1F30B583B005460A460D
:4018400010496B460868496803C3130A8DF802308DF80320002410E0012D06D102AB234413F8080C01F0F6F805E002AB234413F8080C01F0E7F90134E4B2072CECD903B071
:4018800030BD00BF943A00002DE9F04387B005468C4616461C469DF83870BDF83CE00DF10408DFF8A89059F8080FD9F80410D9F80820D9F80C30A8E80F00B9F81030A8F8A9
:4018C00000307A1C02FB04F303EB43039B001B128DF8063004FB02F404EB4404A3008DF80730C6EBC6035B001B128DF80830C6EBC60673008DF8093020378DF80A709DF894
:401900004030592B02D185238DF80B304FEA1E238DF80D308DF80EE08DF811C0002410E0012D06D106AB234413F8140C01F092F805E006AB234413F8140C01F083F90134D2
:40194000E4B2112CECD907B0BDE8F083943A000070B584B005460E466B46134C54F81C0F6168A26807C3A2891A808DF807608DF80960002410E0012D06D104AB234413F83D
:40198000100C01F067F805E004AB234413F8100C01F058F90134E4B20D2CECD9642001F0E5F904B070BD00BF943A0000F0B585B007460E46154600240DE0315D01230093A1
:4019C000002301934E23029338461F222B19FFF75BFF0134E4B2092CEFD905B0F0BD00BF054B04E0824201D15878704702331A78002AF7D1002070471881FF1F2DE9F0430D
:401A000087B005468C4616461C469DF83870BDF83CE00DF10408DFF8A89059F82C0FD9F80410D9F80820D9F80C30A8E80F00B9F81030A8F800307A1C02FB04F303EB4303D8
:401A40009B001B128DF8063004FB02F404EB4404A3008DF80730C6EBC6035B001B128DF80830C6EBC60673008DF8093023378DF80A709DF84030592B02D185238DF80B30CE
:401A80004FEA1E238DF80D308DF80EE08DF811C0002410E0012D06D106AB234413F8140C00F0D8FF05E006AB234413F8140C01F0C9F80134E4B2112CECD907B0BDE8F08388
:401AC000943A000030B585B00D461446012840F0108100F06FFF082840F02F82A84B1B78DBB2AA2B40F0FE80A54B9B79DBB2C32B40F0F880A24BDB79DBB23C2B40F0F28064
:401B0000A04B1B78DBB2013DAB4200F39F809C4BD878FFF765FF0546A0F12003DBB20B2B2AD8984A13780133DBB213701378964A134483F84B008CB9924B1A781B789249AD
:401B40000A4492F84B1001200090002201924E22029203220233FFF751FF78E0894B1B7801200090002201924E220292214602221344FFF743FF6AE0A0F12D03DBB2512BD1
:401B80002AD8804A13780133DBB2137013787E4A134483F84B008CB97A4B1A781B787A490A4492F84B1001200090002201924E22029203220233FFF721FF48E0714B1B78A4
:401BC00001200090002201924E220292214602221344FFF713FF3AE02C2838D1694B1B7813F0FF0F33D0694B1B7813F0FF0F2ED1644A13780133DBB213700121634B197092
:401C00001378614A134483F84B008CB95D4B1A781B785D490A4492F84B1001200090002201924E22029203220233FFF7E7FE0EE0544B1B7801200090002201924E2202923D
:401C4000214602221344FFF7D9FE00E000254C4BDB78DBB20B2B26D14A4B1B7803F0FF042BB9142001F082F800F0D2FE68E1454C237801200090002201924E22029220218B
:401C800003220233FFF7BAFE23783F4A134493F84B302C2B02D100223C4B1A70394A1378013BDBB213700A2D10D1364B1B7813F0FF0F0BD0334B1A78334B83F84B20142024
:401CC00001F054F800F0A4FE012439E12C4BDB78DBB2942B06D1142001F048F800F098FE00242DE1142001F041F800F091FE022426E100F057FF082840F02181244B1B7878
:401D0000DBB2AA2B40F01281214B9B79DBB2C32B40F00C811E4BDB79DBB23C2B40F006811C4B1B78DBB2013DAB4200F3B580184BD878FFF755FE0546A0F12003DBB20B2BC6
:401D40003BD8144A13780133DBB213701378124A134483F84B000CBB0E4B1A781B780E490A4492F84B1001220092002201924E220292022003220344FFF740FE8DE000BFF4
:401D80006C94FF1F0B8DFF1FD087FF1FAB8FFF1F8C94FF1F4B92FF1F688AFF1F6A4B1B7801220092002201924E2202920220214602460344FFF722FE6FE0A0F12D03DBB2B8
:401DC000512B2CD8604A13780133DBB2137013785E4A134483F84B0094B95B4B1A781B785A490A4492F84B1001220092002201924E220292022003220344FFF7FFFD4CE092
:401E0000514B1B7801220092002201924E2202920220214602460344FFF7F0FD3DE02C283BD1494B1B7813F0FF0F36D0484B1B7813F0FF0F31D1444A13780133DBB21370B9
:401E40000121434B19701378424AD2783F490B4483F84B208CB93C4B1A781B780A4492F84B1001220092002201924E220292022003220344FFF7C2FD0FE0334B1B78012213
:401E80000092002201924E2202920220214602460344FFF7B3FD00E000250B2D27D12A4B1B7803F0FF042BB9142000F05FFF00F0A7FE45E0244C2378012200920022019251
:401EC0004E2202920220202102460344FFF796FD23781E4A134493F84B302C2B02D100221B4B1A70184A1378013BDBB213700A2D10D1154B1B7813F0FF0F0BD0124B1A78A8
:401F0000124B83F84B20142000F030FF00F078FE012415E00F4BDB78DBB2942B06D1142000F024FF00F06CFE002409E0142000F01DFF00F065FE022402E0022400E0022446
:401F4000204605B030BD00BF4B92FF1F688AFF1FCC87FF1F8C94FF1F10B582B08DF804008DF8051001F068FB0720002101F0DCFA58B1002011E002AB234413F8040C01F029
:401F80002FFB48B90134E4B200E00024012CF2D901F00AFB012000E0002002B010BD00BF38B504460E2900F2DA80DFE801F01221303F4ED85D6C7B8998A7B6C5D400704B8A
:401FC0002B44204693F88014FFF7C6FF0135ADB200E00025B5F56C7FF1D3C0E0684B2B44204693F83018FFF7B7FF0135ADB200E00025B5F56C7FF1D3B1E0614B2B44204693
:4020000093F8E01BFFF7A8FF0135ADB200E00025B5F56C7FF1D3A2E0594B2B44204693F8901FFFF799FF0135ADB200E00025B5F56C7FF1D393E0534B2B44204693F8481209
:40204000FFF78AFF0135ADB200E00025B5F56C7FF1D384E04B4B2B44204693F8F815FFF77BFF0135ADB200E00025B5F56C7FF1D375E0444B2B44204693F8A819FFF76CFFBE
:402080000135ADB200E00025B5F56C7FF1D366E03C4B2B44204693F8581DFFF75DFF0135ADB200E00025B5F56C7FF1D357E0364B2B442046197CFFF74FFF0135ADB200E06B
:4020C0000025B5F56C7FF2D349E02F4B2B44204693F8C013FFF740FF0135ADB200E00025B5F56C7FF1D33AE0274B2B44204693F87017FFF731FF0135ADB200E00025B5F586
:402100006C7FF1D32BE0204B2B44204693F8201BFFF722FF0135ADB200E00025B5F56C7FF1D31CE0184B2B44204693F8D01EFFF713FF0135ADB200E00025B5F56C7FF1D32D
:402140000DE0124B2B44204693F88811FFF704FF0135ADB200E00025B5F56C7FF1D320461B21FFF7F9FE20464021FFF7F5FE20460A21FFF7F1FE20460A21FFF7EDFE38BD14
:40218000B47E0000AC8F0000A4A000009CB1000070B505460E46934B1B78012B03D101200021FFF7FDFE28460A21FFF7D5FE28460A21FFF7D1FE28460A21FFF7CDFE284631
:4021C0000A21FFF7C9FE002406E02846864B195DFFF7C2FE0134E4B21D2CF6D928460A21FFF7BAFE28460A21FFF7B6FE002408E07D4B2344284693F82010FFF7ADFE0134DB
:40220000E4B2072CF4D928460A21FFF7A5FE002408E0754B2344284693F83010FFF79CFE0134E4B2052CF4D928460A21FFF794FE002408E06C4B2344284693F84010FFF787
:402240008BFE0134E4B2092CF4D9684CA4FB0634E408284604F13001FFF77EFE04EB84046400341B04F130012846C9B2FFF774FE28460A21FFF770FE5D4B1B78B34240F08B
:40228000908009E0584B2344284693F85010FFF763FE0134E4B200E00024092CF2D9012408E0544B2344284693F8EB10FFF754FE0134E4B24F4B93F8EB30A342F1D228462C
:4022C0000A21FFF749FE4B4B93F86130022B68D128460A21FFF740FE28460A21FFF73CFE002408E0404B2344284693F86010FFF733FE0134E4B20C2CF4D9012407E03D4BD6
:40230000234428465978FFF727FE0134E4B2394B5B78A342F3D228460A21FFF71DFE002408E0314B2344284693F85010FFF714FE0134E4B20C2CF4D9012408E02D4B23445A
:40234000284693F80111FFF707FE0134E4B2294B93F80131A342F1D228460A21FFF7FCFD002408E0204B2344284693F87010FFF7F3FD0134E4B20A2CF4D9012408E01D4BAB
:402380002344284693F8F610FFF7E6FD0134E4B2184B93F8F630A342F1D228460A21FFF7DBFD28460A21FFF7D7FD28460A21FFF7D3FD28460A21FFF7CFFD28460A21FFF744
:4023C000CBFD28460A21FFF7C7FD28461D21FFF7C3FD28465621FFF7BFFD28463121FFF7BBFD70BD018DFF1F6C81FF1FCDCCCCCCC083FF1FD087FF1FFEE700BF08B5104EB1
:40240000104D16E029686B68AC68002204E051F8040B43F8040B0432A242F8D1E868002203E0002143F8041B04328242F9D11035013E002EE6D101F0B1FAFEF759FDFEE77D
:4024400001000000C0BE000008B5124A124B1A60124A136843F40073136000230AE0032B03D80F4A52F8231000E00E490E4A42F8231001332F2BF2D90C4B1A780C4B1A70EE
:40248000094A0C4B1A6000F0C9F800220A4B1A6008BD00BF0004FA050CED00E014ED00E000000000F92300000080FF1FBC7600400481FF1F08ED00E00081FF1FFEE700BF2E
:4024C000F0B40022174611E050F82760F3B226F0FF0608E001EB420511F812406D78A5550132013BDBB2002BF4D10137272FEBD9F0BC7047064B1B78DBB203F00701054A88
:4025000011701B09013213704422034B1A707047CF0100496E5800407658004008B50A46002101F06CFA08BD38B533222D4B1A8018232D490B7002310A802C4A13704FF45B
:402540009C7204310A8002310B7002310A80284A13704FF4027102321180023213700222244B1A7008224FF040231A70032103F500731970204B1B78DBB220490B70204B97
:402580001A8041F25122023B1A80002419250CE01C4B1B7803F0010343EA440404F003044FF4F07000F0D0FB013D0DB1032CEFD115B90320FFF782FF134B4FF480721A8077
:4025C00007221A70002211490A704820023108701A700222033B1A700D4A137843F01F03137038BD8040004082400040864000408E4000400043004008010049A1460040E8
:4026000022420040254200400440004006400040A243004008B501F0E7F908BD70B572B63A4A137843F00403137000240CE0384963001A1952000A4423445B00C8589188F2
:40264000FFF76CFF0134E4B20A2CF0D9002410E02F49A3001A1952000A4452F8440F23445B000B445168B3F84C20FFF7D3FF0134E4B2022CECD94FF090402649FFF720FF96
:40268000254A137843F0020313701032137843F002031370214C237843F040032370A2F58632513A137843F0100313701C481D490A22FFF7AFFF1C481C490A22FFF7AAFF70
:4026C0001B481C490A22FFF7A5FF1B481B490A22FFF7A0FF1A481B490A22FFF79BFF1A4A137843F008031370184E01253570FFF71BFF81233370164B1D70FFF7FBFE1548D0
:4027000021460E22FFF786FF70BD00BFE846004038BE0000A000004803500140A0430040C0510040D00F004810510040DC0F004820510040E80F004850510040F40F004830
:402740006051004000100048224300400048004004000840B043004008B503200C4900F04BFB0320072100F05BFB0023094A13707221094A11702021013A117006216C3A3E
:4027800011704721103211705232137008BD00BFFD2700006C83FF1F8E64004010B500F0DBFA04460B4A137843F020031370013A137843F0100313700822074B1A60074A1C
:4027C000137843F01003137000F092FA204600F0C7FA10BD9E64004000E100E09364004008B5054B5B7823B9FFF7B6FF0122024B5A70FFF7D3FF08BD6C83FF1F1E4B1B78B4
:40280000DBB213F01E0F05D01C4803F01E0201780A43027003F0200303F0FF02002B27D0174B1978C9B2174B1B889BB21648C154164B1B7813F0FF0F02D00121144B197017
:4028400010490B8801339BB20B800B889BB2B3F5007F02D300210B4B19800A4B198889B20C4B1B889BB2994202D10121074B1970002AC3D1704700BF6D6400406C83FF1FFF
:402880004E6400407083FF1F6C92FF1F7283FF1F7383FF1F6E83FF1F7222074B1A70202202331A700622693B1A70472210331A7000224F331A7070478A64004010B500F0FE
:4028C0004BFA04460A4A137843F0200313700232137843F0100313700A3A137843F01003137000F0B5FA204600F03AFA10BD00BF9A64004008B5054B1B7823B9FFF7CCFF41
:402900000122024B1A70FFF7D9FF08BD7683FF1F08B500200C4900F06FFA0020072100F07FFA0023094A13707221094A11702021013A117006219D321170472110321170B8
:40294000B03A137008BD00BF6D2A00007883FF1F8864004010B500F0FFF904460B4A137843F020031370013A137843F0100313700122074B1A60074A137843F010031370B7
:4029800000F0C4F9204600F0EBF910BD9864004000E100E09464004008B5054B5B7823B9FFF7B6FF0122024B5A70FFF7D3FF08BD7883FF1F0122134B1A60134A9378D2783A
:4029C000DBB2934206D1104B1B7913F0FF0F14D0202013E00C4A9378D278DBB2934205D2094AD3789078181AC0B207E0064AD3789078181A2030C0B200E000200122034B6A
:402A00001A60704780E100E07883FF1F00E100E008B500F0A1F90B4B1A7842F001021A701A7802F0FE021A7000F09AF90121064B1960064B00229A70DA701A715A71044B73
:402A4000196008BD9865004080E100E07883FF1F00E100E0034B1B7813F0040FFAD1024B1870704764640040476400401C4B1B78DBB213F01E0F05D01A4803F01E02017805
:402A80000A43027003F0200303F0FF022BB3164B1978C9B2154B1B78DBB21548C154154B1B7813F0FF0F02D00121134B19700F490B780133DBB20B700B78DBB21F2B02D9E5
:402AC00000210A4B1970094B1B780C490978DBB28B4202D10121074B1970002AC6D17047676400407883FF1F486500407B83FF1F6C94FF1F7C83FF1F7D83FF1F7A83FF1FD7
:402B000008B501200C4900F077F90120072100F087F90023094A13707221094A11702021FE3A11700621663A11704721103211705132137008BD00BF5D2C00007F83FF1F49
:402B40008965004010B500F007F904460B4A137843F020031370FE3A137843F0100313700222074B1A60074A137843F01003137000F0DAF8204600F0F3F810BD9965004040
:402B800000E100E09664004008B5054B5B7823B9FFF7B6FF0122024B5A70FFF7D3FF08BD7F83FF1F0222134B1A60134A9378D278DBB2934206D1104B1B7913F0FF0F14D001
:402BC000202013E00C4A9378D278DBB2934205D2094AD3789078181AC0B207E0064AD3789078181A2030C0B200E000200222034B1A60704780E100E07F83FF1F00E100E031
:402C000008B500F0A9F80B4B1A7842F001021A701A7802F0FE021A7000F0A2F80221064B1960064B00229A70DA701A715A71044B196008BD9A65004080E100E07F83FF1FD0
:402C400000E100E0034B1B7813F0040FFAD1024B1870704766640040466400401C4B1B78DBB213F01E0F05D01A4803F01E0201780A43027003F0200303F0FF022BB3164BCF
:402C80001978C9B2154B1B78DBB21548C154154B1B7813F0FF0F02D00121134B19700F490B780133DBB20B700B78DBB21F2B02D900210A4B1970094B1B780C490978DBB2A2
:402CC0008B4202D10121074B1970002AC6D170476B6400407F83FF1F4A6500408283FF1F8C94FF1F8383FF1F8483FF1F8183FF1F054A137843F0080313701032137843F03A
:402D000008031370704700BFA2430040054A137843F0020313701032137843F002031370704700BFA2430040054A137843F0010313701032137843F001031370704700BF21
:402D4000A2430040000000000230800803D000BF01380046FCD17047EFF3108072B6704780F31088704700BF01BE704710B5044605E0084B1868FFF7E7FFA4F50044B4F56E
:402D8000004FF6D8034B586800FB04F0FFF7DCFF10BD00BF3C83FF1F08B5034B1B7A03FB00F0FFF7D1FF08BD3C83FF1F0E4B1A7802F0FC0200F00300104318701A7842F05C
:402DC00080021A701A7802F07F021A7049011A7801F0600102F09F02114319701A7842F010021A70704700BF834300400122014B1A7070478443004070B504460E46074BF2
:402E00001D681F2802D90020FFF7AEFF04F01F04103455F8240045F8246070BD08ED00E038B504460D46072902D90020FFF79CFF1F2C02D90020FFF797FF04F01F0000F17D
:402E4000604000F564406D01EDB2057038BD00BF054A137843F0040313701032137843F004031370704700BFA243004008B502200D49FFF7C1FF02200721FFF7D1FF002309
:402E80000A4A137072210A4A11702021FB3211700621A2F5B072117047211032117002F25112137008BD00BF353000008683FF1F8964004008B5FFF74FFF0A4A137843F02E
:402EC00020031370FB32137843F0100313700422054B1A60054A137843F010031370FFF73FFF08BD9964004000E100E09565004008B5054B5B7823B9FFF7B8FF0122024B0E
:402F00005A70FFF7D7FF08BD8683FF1F0422134B1A60134A53889BB2918889B2927912F0FF0F01D18B4211D00E4AD05CC0B201339BB2FF2B00D90023094A5380937913F0CB
:402F4000FF0F06D00022064B9A7102E0064B1878C0B20422054B1A60704700BF80E100E08683FF1FAC94FF1F4B65004000E100E00422164B1A60164B5A8892B29B889BB2E5
:402F80009A4207D1124B9B7913F0FF0F19D04FF4807017E00E4B5A8892B29B889BB29A4205D20B4A93885088181A80B20AE0084A908883B2508880B2181A00F5807080B29E
:402FC00000E000200422034B1A60704780E100E08683FF1F00E100E008B5FFF7BDFE0B4B1A7842F001021A701A7802F0FE021A70FFF7B6FE0421064B1960064B00225A80FA
:403000009A809A71DA71044B196008BD9B65004080E100E08683FF1F00E100E0034B1B7813F0040FFAD1024B1870704765650040456500401D4B1B78DBB213F01E0F05D05B
:403040001B4803F01E0201780A43027003F0200303F0FF0233B3174B1978C9B2164B1B889BB21648C154164B1B7813F0FF0F02D00121144B197010490B8801339BB20B80A7
:403080000B889BB2FF2B02D900210B4B19800A4B198889B20C4B1B889BB2994202D10121074B1970002AC5D1704700BF646500408683FF1F4B6500408A83FF1FAC94FF1F19
:4030C0008C83FF1F8D83FF1F8883FF1F08B500F02FFB00F037FB08BD08B5FFF7F7FF08BD30B583B00C468DF8070000F055FBB4F5006F54D22509C5EB053319010C44A4B2D6
:4031000000F0F6FB00284CD1402021460DF10702012300F06DFB044607282FD1234B1B7813F0020FFAD0214B1B7813F0020F06D01E4B1B789B0805D04FF0FF3403E04FF0D6
:40314000FF3400E00024E4B9194B402029461A785B7800F089FB072816D1144B1B7813F0020FFAD0114B1B7813F0020F0FD00F4B1B789B0810D04FF0FF340DE0012809D1D5
:403180000AE04FF0FF3407E04FF0FF3404E04FF0FF3401E04FF0FF3400F0D0FB02E0012400E00424204603B030BD00BF22470040C495FF1F10B50222104B1A7081220E3B48
:4031C0001A700F2413331C70002201331A704FF400420B4B1A6020460721FFF721FE20460849FFF709FE1022074B1A7000F02CFA00F038FA00F020FA10BD00BFD649004079
:4032000080E100E059320000AC95FF1F08B5FFF7A3FD064A137843F0040313701032137843F004031370FFF79BFD08BDA543004008B5074B1B7823B9FFF7BCFF0122044BD2
:403240001A70FFF7E3FF4FF40042024B1A6008BD9083FF1F00E100E038B5A54B1C78E4B2A44B1B7813F0400F00F0398114F0010F00F01D819F4B1B78453B052B00F214810E
:40328000DFE813F006008200120112010600E00004F0DF0504F00A04082C42D1954B1B78DBB2452B35D1944B1B7813F0FF0F10D0924B1B681B78DBB2914A137004228C4BDB
:4032C0001A7001228F4B1A7046228A4B1A702C46EDE08D4B1B7813F0020F0DD08B4A137843F00A0313706022824B1A704FF40042874B1A602C46DAE0864A137843F01003C1
:4033000013701022844B1A700422023B1A702C46CDE00022764B1A704A22764B1A702C46C5E00A2C2BD1794A137843F0A0031370754B1B7813F0020F14D06E4B1B7813F0C5
:40334000080F01D0092300E00A23704A11780B4313706022674B1A704FF400426C4B1A602C46A4E06B4A137843F0100313701022694B1A700422023B1A702C4697E000203F
:40338000FFF7F2FC2C4692E014F0020F37D15D4B1B78594A1278DBB2934210D2594A1378DBB256490968CB5CDBB255490B7004214F4B197013780133DBB2137077E0524BD9
:4033C0001B7813F0020F0CD0504A137843F00A0313706022474B1A704FF400424C4B1A6065E000F04DF94B4A137843F0100313701022494B1A700422023B1A7057E0424BC9
:403400001B7813F0020F0CD0404A137843F09A0313706022374B1A704FF400423C4B1A6045E03C4A137843F01003137010223A4B1A700422023B1A70344A137843F0900391
:40344000137034E0354A1378DBB2354908682C490978C9B2C15413780133DBB213701378304A1278DBB2934203D21022204B1A701DE0254B1B7813F0020F0CD0234A137806
:4034800043F00903137060221A4B1A704FF400421F4B1A600BE01F4A137843F0100313700022134B1A7002E00020FFF75DFC14F0200F1CD00F4B1B7813F0080F01D0012352
:4034C00000E00223114A11780B431370114A137803F0EF0313701022064B1A7038BD054B1B7813F0100F02D11022024B1A7038BDD7490040AC95FF1FB095FF1FBC95FF1F5B
:40350000D8490040B995FF1FB195FF1FB895FF1F80E100E0D6490040D9490040C095FF1FB495FF1FB295FF1F1A4B1B78DBB2102B29D1194B1B7813F0080F26D14FF4004267
:40354000164B1A604000C0B229B140F001004922104B1A7002E045220E4B1A70104B1870012201331A700F4B1B7813F0010FFAD00C4B1B7803F00A030A2B08D11022054B2F
:403580001A700320704702207047012070470020704700BFAC95FF1FD949004080E100E0D8490040D74900400A4B1B7813F0040F0ED01023074A13700421023A1170064A88
:4035C0001370064B1B7813F0210FFAD00020704702207047D9490040AC95FF1FD7490040114B1B7813F0040F1BD0104B18700422013B1A7046220E4B1A700E4B1B7813F09D
:40360000010FFAD00B4B1B7813F0020F04D16022074B1A70002070476022054B1A70032070470220704700BFD9490040D8490040AC95FF1FD7490040024B187800221A70D0
:40364000704700BFB895FF1F0022044B1A70044A137803F0FE031370704700BFC095FF1FB895FF1F0022044B1A70044A137803F0FD031370704700BFB995FF1FB895FF1F33
:40368000704700BF10B500F087F800F031F9D0B900F070F90446072812D102E00120FFF77BFB0A4B1B7813F0020FF7D0074B1B7813F0020F04D0054B1B789B0800D100248E
:4036C00000F03CF900E00424204610BD2247004010B500F061F800F00BF910BB012000F0E9F8072818D11048022100F067F802280AD102E00120FFF74FFB0C4B1B7813F0EB
:40370000020FF7D0002409E0084B1B7813F0020FE9D04FF0FF3401E04FF0FF3400F00EF900E00424204610BDC495FF1F2247004008B5FFF7A7FF034610B9FFF7C9FF034668
:40374000184608BD08B5FFF707FB0F4A137843F0080313701032137843F008031370C8220A4B1A700A4A137843F0100313701032137843F010031370064B1B7813F0200F21
:40378000FAD0FFF7EDFA08BDA043004001470040AC4300400047004008B5FFF7DDFA064A137843F0080313701032137843F008031370FFF7D5FA08BDA043004070B506466A
:4037C0000D4600240CE00120FFF7E6FA064B1B7813F0010FF7D0054B1B7833550134E4B2AC42F3D3204670BD224700402047004030B43E2801D81F2B03D93F2827D90F2BFA
:4038000027D8174C247814F0020F24D0154CB6252570D4252570012525700234247814F0020F1AD10F4C2070C1F300202070C9B22170591EC9B22170002104E0545C0948B1
:4038400004700131C9B29942F8D3072006E0012004E0012002E0042000E0092030BC7047224700402047004030B4104C247814F0020F15D00E4CB6252570D82525700525F0
:4038800025700234247814F0020F0BD1084C2070080A2070C9B2217022702370072002E0042000E0092030BC704700BF22470040204700400C4B1B7813F0020F0FD00B4BDE
:4038C000B6221A70E1221A700E221A7002331B7813F0020F05D1054B187007207047042070470920704700BF224700402047004010B5FFF731FA0F4B1B78A3B901220D4B43
:403900001A700D4B1B6813F0010F0ED00A4A136823F00103136000BF00BF00BF0122054B5A60002402E0042400E00024FFF718FA204610BD9483FF1F0400084008B5FFF7CD
:403940000BFA0A4B00221A705B68012B0AD1084A136843F00103136000BF00BF00BF0022024B5A60FFF7FCF908BD00BF9483FF1F04000840074B1B7813F0020F08D0064B88
:40398000B6221A70E0221A700D221A70072070470420704722470040204700400E4B70B51E460E4C0025E41AA410A54204D056F8253098470135F8E708F070FA084B094CE8
:4039C0001E46E41AA4100025A54204D056F8253098470135F8E770BDA8BE0000A8BE0000A8BE0000B0BE000010B5431E0A44914204D011F8014B03F8014FF8E710BD0346BD
:403A00000244934202D003F8011BFAE77047000000000000532F442F4475706C612000005365787475706C61000000004F637475706C610000000000352D352D3420202059
:403A400020200000362D362D3420202020200000372D372D3520202020200000382D372D35202020202000005465737420646520496D70726573696F6E000000496E69634F
:403A800069616E646F000000517561647275706C61000000AA700000CC33C33CAA980000013922C5030000FFFF00CC33C33C0000AA5C0020002000300030CC33C33C00002E
:403AC000AA980000013923C5020000FFFF00CC33C33C00001D4C33001B2A00AA000000000000000000000000000000000000000000000000000000000000000000000000D9
:403B000000000000000000000000000000000000000000000000000000000000000103070F1F1F1E3E3C3C3C3C3C3C3C3C3C3C3C3C3C3C3C3C3C3C3F3F3F3F3F000000005E
:403B40000000000000000000000000000000000000000000000000000000000000000000000000000000000000000000000000000000000000000000000000000000000045
:403B800000000000000000000000000000000000011D4C33001B2A00AA00000000000000000000000000000000000000000000000000000000000000000000000000000079
:403BC00000001F1F1F1F1F1F1F1F1F1F1F1F1F1F0F0701000000000000FFFFFFFFFF80000000000000000000000000000000000000000000FFFFFFFFFC0000000000000089
:403C00000000000000000000000000000000000000000000000000000000000000000000000000000000000000000000000000000000000000000000000000000000000084
:403C400000000000000000000000000000011D4C33001B2A00AA00000000000000000000000000000000000000000000000000000000000000000000000000000000C0E018
:403C8000F0F0F8F8F8F8F8F8F8F8F8F8F8F8F0000000000000FEFEFEFEFE0E0E0E0E0E0E0E0E0E0E0E0E0E0E0E0E0E0E1E3E7CFCF8F0E08000000000000000000000000086
:403CC00000000000000000000000000000000000000000000000000000000000000000000000000000000000000000000000000000000000000000000000000000000000C4
:403D000000000000000000000000011D4C33001B2A00AA000000000000000000000000000000000000000000000000000000000000000000000000000000000000000103F3
:403D400007070707070707070707070707070707070707000000000000003F3F3F38383838383838383838383838381C1E1F0F030000000000000000000000000000000086
:403D80000000000000000000000000000000000000000000000000000000000000000000000000000000000000000000000000000000000000000000000000000000000003
:403DC00000000000000000011D4C33001B2A00AA000000000000000000000000000000000000000000000000000000000000000000000000000000007FFFFFFFFFFFFFFFBF
:403E0000FFFFFFFFFFFFFFFFFFFFFFFFFFFFFC00000000000000F0FCFE1F0F0703030303030303030303030303FFFFFFFF0000000000000000000000000000000000000052
:403E40000000000000000000000000000000000000000000000000000000000000000000000000000000000000000000000000000000000000000000000000000000000042
:403E800000000000011D4C33001B2A00AA0000000000000000000000000000000000000000000000000000000000000000000000000000000000E0E0E0E0E0E0E0E0E0E0B6
:403EC000E0E0E0E0E0E0E0E0E0C0800000000000000000000000000000008080808080808080808080808080808000000000000000000000000000000000000000000000A2
:403F00000000000000000000000000000000000000000000000000000000000000000000000000000000000000000000000000000000000000000000000000000000000081
:403F400000011D4C33001B2A00AA0000000000000000000000000000000000000000000F0F0F0C0C0C0C0C0C0C0C0F0F0F06000F0F0F00000103070E0E0C0C0C0C0C0C0C4D
:403F80000F0F0F000001070F0F0E0C0C0E0F0F0E0C0C0C0F0F0F00000103070E0C0C0C0C0C0C0C0C0F0F0F000008080C0E07030101010101070F0E0C0800000000000000E6
:403FC0000000000000000000000000000000000000000000000000000000000000000000000000000000000000000000000000000000000000000000000000000000011DA3
:404000004C33001B2A00AA000000000000000000000000000000000000000000FCFCFC1C1CDCDCDCDCDCCCFCFCFC3800FCFCFC0000FCFCFC1C1C1C1C1C1C1C1C38F8F0E0DA
:404040000C1CFCF8E00000000000FCFC00000000FCFCFC0000FCFCFC606060606060606060FCFCFC00000C1C3C78F0E0C0C0C0E0F0F8BC1C0C040000000000000000000074
:404080000000000000000000000000000000000000000000000000000000000000000000000000000000000000000000000000000000000000000000000000011D4C330063
:4040C0001B2A00AA000000000000000000000000000000000000000000000000000000000000000000000000000000000000000000000000000000000000000000000001D0
:4041000001010303060606040C080800000000000000000000010101010101010101010000000000000000000000000000000000000000000000000000000000000000003B
:404140000000000000000000000000000000000000000000000000000000000000000000000000000000000000000000000000000000000000000000011D4C33001B2A005D
:40418000AA000000000000000000000000000000000000000000013F3F1F1F1F1F1F3F3F7F7F3F3F3F1F1F1F1F1F0F0F07070707070F0F1F1F3E3D7B73E3E7C7C78E8E8E5F
:4041C0001C1818393931716363636767C7C7C7C68686868E8E8E8C8C8C8C8C8C8C0C04040606060606060603030303010101010100000000000000000000000000000000EE
:404200000000000000000000000000000000000000000000000000000000000000000000000000000000000000000000000000000000000000011D4C33001B2A00AA0000F2
:4042400000000000000000000000000000030F1F3F7FFFFFFFFFFFFFFEFEFEFFFFFFFFFFFFFFFFFFFFFFFFFFFFFFFFFFFFFFFFFFFFFFFFFFFFCFDF9FBE3E7E7C78F8F8F0DA
:40428000E0E0E0C0C080808080000000000000000000000000000000000000000000000000000000000000008080808080804000000000000000000000000000000000009E
:4042C0000000000000000000000000000000000000000000000000000000000000000000000000000000000000000000000000000000011D4C33001B2A00AA000000000032
:40430000000000000000000000E0E0E0E0E0C08080808000000000F0F8FFFFFFFFFFFFFFFFFFFFFFFFFFFFFFFFFEFCF8F8F0F0E0C08080800000000000000000000000009B
:40434000000000000000000000000000000000000000000000000000000000000000000000000000000000000000000000000000000000000000000000000000000000003D
:404380000000000000000000000000000000000000000000000000000000000000000000000000000000000000000000000000011D4C33001B2A00AA000000000000000071
:4043C000000000000000000000000000000000000000000000009CFEFFFFFFFFFEFCF8F0E0E0C080000F1F1F18181818181818181C1C1C1E1F1F1F1F1F1C1818181818187F
:4044000018181C1C1E1E1F1F1F1F1F1C1818181C1F1F1F1F1F1F1E1E1C1C1818181818181C1E1E1F1F1F1F0F0000000000000000000000000000000000000000000000001C
:404440000000000000000000000000000000000000000000000000000000000000000000000000000000000000000000011D4C33001B2A00AA0000000000000000000000B0
:4044800000000000000000000000000000000000000000000080C08000000000000000000000FFFFFF0000000070787878200000060EFFFFFFFF0E000000007C7C7C3C0079
:4044C000000101CFFFFFFFFF0000000000FFFFFFF0800000001F3F7F7F7F7F7F3F1F0F000080E0FFFF000000000000000000000000000000000000000000000000000000DE
:404500000000000000000000000000000000000000000000000000000000000000000000000000000000000000011D4C33001B2A00AA0000000000000000000000000000EF
:4045400000000000000000000000000000000000000000000000000000000000000000FFFFFF00000000F0F8F8F0F16101010387FFFFFF01000000017F3F070301C0F0F820
:40458000FCFFFFFFFF0000000001FFFFFF7F0F070301C1E0F0F0F8F0F0F0E18103070F1FFFFF0000000000000000000000000000000000000000000000000000000000008B
:4045C0000000000000000000000000000000000000000000000000000000000000000000000000000000011D4C33001B2A00AA00000000000000000000000000000000002F
:40460000000000000000000000000000000000000000000000000000000000008080808080808080808080808080808080808080808080808080808080808080808080807A
:4046400080808080808080808080808080808080808080808080808080808080808080000000000000000000000000000000000000000000000000000000000000000000BA
:404680000000000000000000000000000000000000000000000000000000000000000000000000011D4C33001B2A00AA00000000000000000000000000000000000000006E
:4046C00000000000000000000000000000000000000000000000000000000000000000000000000000000000000000010101010101010101010101010000000000000000AD
:404700000000000000000000000000000000000000000000000000000000000000000000000000000000000000000000000000000000000000000000000000000000000079
:404740000000000000000000000000000000000000000000000000000000000000000000011D4C33001B2A00AA0000000000000000000000000000000000000000000000AD
:4047800000000000000000000000000000000000000000000000000000000103070F1F1F3E3E7C7878F8F0F0E0E0E0E0E0E0E0E0E0E0E0E0E0F0F0F8787C3C3F3F1F1F1F9E
:4047C0001F1F0F0F0300000000000000000000000000000000000000000000000000000000000000000000000000000000000000000000000000000000000000000000005A
:404800000000000000000000000000000000000000000000000000000000000000011D4C33001B2A00AA0000000000000000000000000000000000000000000000000000EC
:40484000000000000000000000000000000000000000030F3F7FFEFCF0E0C0800000000000000000000000000000000000000000000000000000000080E0F0F8F8F8F8FE30
:40488000FFFF1F03010000000000000000000000000000000000000000000001030300000000000000000000000000000000000000000000000000000000000000000000D0
:4048C0000000000000000000000000000000000000000000000000000000011D4C33001B2A00AA00000000000000000000000000000000000107070F0F1E1E1E0F0F0F0771
:404900000003070F0F0F0E0F0F0F0F070001078F8F8F9E1E1E0F0F0707010003070F0F0F0E0E0F0F0F070003070F0F0F0E0E0E0F0F070701070F0F0F1E1E1E1E1E1E9E8E0A
:40494000800D0F1F0F0000000000000F1F1F0F03070F0F0F0E1E1E1EFFFFFF0000000000000000000000000000000000000000000000000000000000000000000000000075
:404980000000000000000000000000000000000000000000000000011D4C33001B2A00AA0000000000000000000000000000000000F0FCFEFF0F0F070F0F1F1E0EF0FCFE0A
:4049C000FFBF7FFFF7EFDF9F1E0CFFFFFFC00000000000C0FFFFFFF0FCFEFF9F0F070F0F1F9F1E00F8FEFF9F0F0F070F1FFFFEFCF0C0E7E7F7F7F7F7F7F7FFFF7F3EE0FC1C
:404A0000FEFF1F0F0F070F1FFFFEFCF0F8FEFEFF0F0F070F1FFFFEFC00000000000000000000000000000000000000000000000000000000000000000000000000000000DF
:404A40000000000000000000000000000000000000000000011D4C33001B2A00AA0000000000000000000000000000000000000000000000000000000000000000000000AA
:404A80000000000000000000809E1F1F1F0701000080800000000000000000000000000000000000000080808000000000000000808080808081071F1F1F1C000000000072
:404AC00000808000000000000000000000000000000000000000000000000000000000000000000000000000000000000000000000000000000000000000000000000000B6
:404B00000000000000000000000000000000000000011D4C33001B2A00AA0000000000000000000000000000000000000000000000000000000000000000000000000000E9
:404B40000000000000000080C0E0F8FCFE7E3F1F0F070303010101000000000000000000000000000000000101030303070F1F3F7EFCF8F0E0C08000000000000000000027
:404B800000000000000000000000000000000000000000000000000000000000000000000000000000000000000000000000000000000000000000000000000000000000F5
:404BC0000000000000000000000000000000011D4C33001B2A00AA000000000000000000000000000000000000000000000000000000000000000000000000000000000029
:404C00000000000000000000000000008080C0C0E0E0F0F0F0F8787878787C7C7C7C787878F8F8F0F0F0E0E0C0C08080000000000000000000000000000000000000000034
:404C40000000000000000000000000000000000000000000000000000000000000000000000000000000000000000000000000000000000000000000000000000000000034
:404C80000000000000000000000000011D4C33001B2A00AA000000000000000000000000000000000000000000000000000000000000000000000000000000000000000068
:404CC00000000000000000000000000000000000000103070F1F1F3F3F3F3F3F3F1F1F0F070301010000000000000000000000000000000000000000000000000000000089
:404D00000000000000000000000000000000000000000000000000000000000000000000000000000000000000000000000000000000000000000000000000000000000073
:404D40000000000000000000011D4C33001B2A00AA0000000000000000000000000000000000000000000000000000000000000000000000000000000000000000000000A7
:404D800000000000010307070F1F1F3F7FFFFFFFFFFFFFFFFFFFFFFFFFFFFFFFFFFFFFFFFFFF7F3F1F0F0703010000000000000000000000000000000000000000000000F4
:404DC00000000000000000000000000000000000000000000000000000000000000000000000000000000000000000000000000000000000000000000000000000000000B3
:404E00000000000000011D4C33001B2A00AA00000000000000000000000000000000000000000000000000000000000000000000000000000000000000000103070F3F7F0E
:404E4000FFFFFFFFFFFFFCF0E0808080C0C0E0E0F0F0F8F8FCFCFEFEFEFFFFFFFFFFFFFFFFFFFFFFFFFFFF3F1F0F0300000000000000000000000000000000000000000088
:404E800000000000000000000000000000000000000000000000000000000000000000000000000000000000000000000000000000000000000000000000000000000000F2
:404EC0000000011D4C33001B2A00AA0000000000000000000000000000000000000000000000000000000000000000000000000000000001071F3FFFFFFFFFFFFFFFFFFFC9
:404F0000FCE00000000001070F1F1F1F3F3F3F3F3F3F3F1F1F1F1F9F8FCCE0F0F0F8FCFEFFFFFFFFFFFFFFFFFF7F0F030000000000000000000000000000000000000000B8
:404F40000000000000000000000000000000000000000000000000000000000000000000000000000000000000000000000000000000000000000000000000000000000130
:404F80001D4C33001B2A00AA00000000000000000000000000000000000000000000000000000000000000000000000000031F7FFFFFFFFFFFFFFFFFFFFFFFFFFF000000D2
:404FC000071F7FFFFFFFFFFFFFFFFFDF9F8F8F8F8F8F8F8F0000000000000000000080C0E0F0FCFFFFFFFFFFFFFF0F00000000000000000000000000000000000000000099
:40500000000000000000000000000000000000000000000000000000000000000000000000000000000000000000000000000000000000000000000000000000011D4C33D3
:40504000001B2A00AA0000000000000000000000000000000000000000000000000000000000000000000000003FFFFFFFFFFFFFFFFFFFFFFFFFFFFFFFFF000000F0FCFE28
:40508000FFFFFFFFFFFFDF8F8F8F8F8F8F8787830000000000010103070F0F1F3F7F7FFFFFFFFFFFFFFFFFFF3F070000000000000000000000000000000000000000000069
:4050C000000000000000000000000000000000000000000000000000000000000000000000000000000000000000000000000000000000000000000000011D4C33001B2ACE
:4051000000AA000000000000000000000000000000000000000000000000000000000000000000000000FCFEFEFEFFFFFFFFFFFFFFFFFFFFFFFFFF0F0303030303038383B5
:405140008387C7C7C7C7CFCFCFDFDF9F3F3F7F7FFFFFFFFFFFFFFFFFFFFFFFFFFFFFFFFFFFFFFFFFFFFEFC00000000000000000000000000000000000000000000000000DE
:40518000000000000000000000000000000000000000000000000000000000000000000000000000000000000000000000000000000000000000011D4C33001B2A00AA0063
:4051C00000000000000000000000000000000000000000000000000000000000000000000000000000000000008080C0C0E0E0F0F0F0F8F8F8FCFCFCFCFCFCFEFEFEFEFED9
:40520000FEFEFEFEFEFEFEFEFEFEFCFCFCFCFCFCFCFCF8F8F8F8F0F0F0E0E0E0C0C0C080800000000000000000000000000000000000000000000000000000000000000012
:40524000000000000000000000000000000000000000000000000000000000000000000000000000000000000000000000000000000000011D4C33001B2A00AA00000000A2
:405280000000000000000000000000000000000000000000000000000000000000000000000000000103030707070F0F1F1F1F1F1F3F3F3F7F7F7F7F7F7F7F7F7F7F7F7F68
:4052C0007F7F7F7F7F7F7F7F7F7F7F7F3F3F3F1F1F1F1F0F0F0F0707030301010000000000000000000000000000000000000000000000000000000000000000000000003E
:40530000000000000000000000000000000000000000000000000000000000000000000000000000000000000000000000000000011D4C33001B2A00AA00000000000000E1
:40534000000000000000000000000000000000000000000000000103070F0F1F3F7F7FFFFFFFFEFEFCFCF8F8F0F0E0E0E0C0C0C08080808080808080808080808080808007
:40538000808080808080808080C0C0C0E0E0E0E0F0F8F8F8FCFEFEFFFFFFFF7F7F3F1F0F07030100000000000000000000000000000000000000000000000000000000006B
:4053C000000000000000000000000000000000000000000000000000000000000000000000000000000000000000000000011D4C33001B2A00AA0000000000000000000021
:405400000000000000000000000000000000010F1F3F7FFFFFFFFFFEFCF8F0E0C0870F1F1F3F7F7F7F7E7E7E3E3F1F00000000000101010101010000000000000000010153
:405440000101010101010000000000000000010101010101010080C0E0F0F8FCFFFFFFFFFF7F3F0F0300000000000000000000000000000000000000000000000000000050
:40548000000000000000000000000000000000000000000000000000000000000000000000000000000000000000011D4C33001B2A00AA0000000000000000000000000060
:4054C000000000000000000000003FFFFFFFFFFFFFFFE0C0000000000000F0F9FFFFFFFFFF1F1F0F0F0F0F00001F7FFFFFFFFFFBF3F9F9F9F8F800003F7FFFFFFFFFFBF36B
:40550000F9F9F9F800000F3F7FFFFFFFF8F0F0F8FFFFFFFF3F1F00000000C0F8FFFFFFFFFFFFFF3F00000000000000000000000000000000000000000000000000000000A4
:40554000000000000000000000000000000000000000000000000000000000000000000000000000000000011D4C33001B2A00AA000000000000000000000000000000009F
:4055800000000000000000FEFFFFFFFFFFFFFF0701000000000078FFFFFFFFFFFFCF87878787878707000F8FC7C7E7E7E7FFFFFFFFFF7F1C000F87C7E7E7E7F7FFFFFFFFFE
:4055C000FF7E00F8FEFFFFFFFF07070707FFFFFFFFFFFC00000000031FFFFFFFFFFFFFFFFC0000000000000000000000000000000000000000000000000000000000000012
:40560000000000000000000000000000000000000000000000000000000000000000000000000000011D4C33001B2A00AA00000000000000000000000000000000000000DE
:40564000000000000080F0F8FEFFFFFFFFFF7F3F0F0703010180C0C0C0E0E0E0E0E0E0C0C0C00080C0C0E0E0E0E0E0E0C0C080000000C0C0C0E0E0E0E0E0E0C08080000030
:4056800000008080C0E0E0E0E0E0E0C0C08103070F1F3F7FFFFFFFFFFEFCF8E0800000000000000000000000000000000000000000000000000000000000000000000000A5
:4056C000000000000000000000000000000000000000000000000000000000000000000000011D4C33001B2A00AA000000000000000000000000000000000000000000001E
:405700000000000000000080C0E0F0F8F8FCFEFFFFFFFF7F3F3F1F1F0F0F0707070703030101010101010000000000000000000000000000000001010101010303030707D6
:40574000070F0F0F1F1F3F7F7FFFFFFFFFFEFCF8F0F0E08000000000000000000000000000000000000000000000000000000000000000000000000000000000000000004C
:40578000000000000000000000000000000000000000000000000000000000000000011D4C33001B2A00AA000000000000000000000000000000000000000000000000005D
:4057C00000000000000000000000000000808080C0E0E0E0F0F0F8F8F8F8FCFCFCFEFEFEFEFEFEFEFEFEFFFFFFFFFFFFFFFFFFFFFEFEFEFEFEFEFEFEFEFCFCFCF8F8F8F077
:40580000F0F0E0E0C0C08080000000000000000000000000000000000000000000000000000000000000000000000000000000000000000000000000000000000000000048
:40584000000000000000000000000000000000000000000000000000000000011D4C33001B2A00AA000000000000000000000000000000000000000000000000000000009C
:40588000000000000000000000000000000000000000000000000000000F1F3F3F3F3F3F3F3E3F3F3C383F3F38303F3E3C383F3F3F3F3F3F3F3F3F1F0F00000000000000D4
:4058C00000000000000000000000000000000000000000000000000000000000000000000000000000000000000000000000000000000000000000000000000000000000A8
:40590000000000000000000000000000000000000000000000000000011D4C33001B2A00AA00000000000000000000000000000000000000000000000000000000000000DB
:4059400000000000000000000000000000000000000000000000FFFFFFFEFEC6E2F01304C8101020606060201010C884933062E6E6EEFFFFFFFF00000000000000000000F0
:4059800000000000000000000000000000000000000000000000000000000000000000000000000000000000000000000000000000000000000000000000000000000000E7
:4059C000000000000000000000000000000000000000000000011D4C33001B2A00AA000000000000000000000000000000000000000000000000000000000000000000001B
:405A000000000000000000000000000000000000000000FFFFFFEF676604E0F804020101000000000001010204F8E1094CCEEEEFFFFFFF00000000000000000000000000EB
:405A40000000000000000000000000000000000000000000000000000000000000000000000000000000000000000000000000000000000000000000000000000000000026
:405A8000000000000000000000000000000000000000011D4C33001B2A00AA000000000000000000000000000000000000000000000000000000000000000000000000005A
:405AC00000000000000000000000000000000000FFFFFFFF7F7F7FEF0F1F3F03078FDFC3C19F0F037F3F1FCFFFFFFFFFFFFFFFFF0000000000000000000000000000000080
:405B00000000000000000000000000000000000000000000000000000000000000000000000000000000000000000000000000000000000000000000000000000000000065
:405B4000000000000000000000000000000000011D4C33001B2A00AA0000000000000000000000000000000000000000000000000000000000000000000000000000000099
:405B8000000000000000000000000000000080C0C0C0C0C0C0C0C0C0C0C0C0C0C0C0C0C0C0C0C0C0C0C0C0C0C0C0C0800000000000000000000000000000000000000000E5
:405BC00000000000000000000000000000000000000000000000000000000000000000000000000000000000000000000000000000000000000000000000000000000000A5
:405C0000000000000000000000000000011D4C33001B2A00AA00000000000000000000000000000000000000000000000000000000000000000000013FFFFFFC7F1F1FFFE2
:405C4000FFF8C103071434373F3F1C003137FFFC703003DFDFD8070F1F38313F3F1F001F3F3F18393F3F1C0103071434373F3F1C000FFFFFE00000000000000000000000D9
:405C800000000000000000000000000000000000000000000000000000000000000000000000000000000000000000000000000000000000000000000000000000000000E4
:405CC000000000000000000000011D4C33001B2A00AA00000000000000000000000000000000000000000000000000000000000000000000C0C0C0000080C0C0C180008017
:405D0000C0C0C08080C0C1000080C0C0C000C0C0C0000080C0C0C0C0C0810040C0C00000C0C0C00080C0C0C08080C0C000C0C0C00000000000000000000000000000000061
:405D40000000000100000000000000000000000000000000000000000000000000000000000000000000000000000000000000000000000000000000000000000000000022
:405D8000000000000000011D4C33001B2A00AA000000000000000000000000000000000000000000000000000000000000000000000000000000000000F808007868000077
:405DC0007E7000F80070781800B800685800B800782040000038F800786800007818600078780070187800685800006858007868007820400078186000B80078204000000D
:405E0000E80000000000000000000000000000000000000000000000000000000000000000000000000000000000000000000000000000000000000000000000000000007A
:405E4000000000011D4C33001B2A00AA0000000000000000000000000000000000000000000000000000000000000000000000000000000000000000000000000000000096
:405E800000000000000000000000000000000001010103030303030303030301010100000000000000000000000000000000000000000000000000000000000000000000C1
:405EC00000000000000000000000000000000000000000000000000000000000000000000000000000000000000000000000000000000000000000000000000000000000A2
:405F0000011D4C33001B2A00AA00000000000000000000000000000000000000000000000000000000000000000000000000000000000000000000000000000000000000D5
:405F4000000103070F1F3F7F7FFFFFFFDBFBFBFFBFBDBFDFDFDFCFEFE7F3F9FCFE7F3F1F070300000000000000000000000000000000000000000000000000000000000094
:405F800000000000000000000000000000000000000000000000000000000000000000000000000000000000000000000000000000000000000000000000000000011D4C77
:405FC00033001B2A00AA0000000000000000000000000000000000000000000000000000000000000000000000000000000000000000010303070707000000001E7CFCF8D5
:40600000F0E0C0C08080808000808080C0C0E0F0F8FCFCCEE0F8FCFC7C00C0F8FCFCFC00000000000000000000000000000000000001010307070700070F0F0F1F1F0000FE
:4060400000000000000000000000000000000000000000000000000000000000000000000000000000000000000000000000000000000000000000000000011D4C33001B68
:406080002A00AA00000000000000000000000000000000011F7F7F7F7F7F7E7CFCFFFFFFFFFF7F3F7C7CFFFFFFFFFF7F1F073FFFFFFFFFFF0FFFFFFFFF7F7F7C7CFCFFFFF5
:4060C000FFFF7F3F0F1F1F7F7FFFFFF7E7E7F7FF7F3F0F7FFFFFFFFF7F7C7CF8FFFF1F3F7F7FFEFCF8F8FDFF7F7F3F1F033FFFFFFFFFFFF17FFFFFFFFFFFF80000000000ED
:4061000000000000000000000000000000000000000000000000000000000000000000000000000000000000000000000000000000000000000000011D4C33001B2A00AAD3
:4061400000000000000000000000000000000000F8FCFCFCFCF8F000003CFCFCFCFCFCF800000CFCFCF8F8F8F0FCFCFCF8F8F0E0F8F8FCFCFCF8F00000007CFCFCF8F8F07F
:40618000E0E0F0F8F8FCFCFCFCFC7C78786038F8F8F8F8F8F800000000E0F0F8F8FCFCFC7C7CFCFCF8F0F0E09CFCFCF8F8F8E088F8F8F8F8F8F0C0000000000000000000B7
:4061C00000000000000000000000000000000000000000000000000000000000000000000000000000000000000000000000000000000000010000001D4C33001B2A00AA13
:40620000000000000000000000000000000000000003030303030303030303030000000000000000000003030303030303030303000000000000000000000000000000001F
:4062400000000000000000000000000003030303030303000000000000000000000000000000000000000303030303030300000003030303030303000000000000000000DF
:4062800000000000000000000000000000000000000000000000000000000000000000000000000000000000000000000000000000000000011D4C33001B2A00AA00000052
:4062C0000000000000000000000000000000FFFFFFFFFFFFFFFFFFFFFFFF070000000000000FFFFFFFFFFFFFFFFFFFFFFF0000000000000000010101030303030303010188
:40630000010000000000000000FFFFFFFFFFFFFF00010101030303030101010000000000000000FBFBFBFBFBFBFB000000FFFFFFFFFFFFFF0000000000000000000000007B
:4063400000000000000000000000000000000000000000000000000000000000000000000000000000000000000000000000000000011D4C33001B2A00AA00000000000091
:406380000000000000000000000000FFFFFFFFFFFFFFE0FFFFFFFFFFFF0F03031FFFFFFFFFFFFCFFFFFFFFFFFFFF0000000F1F3F7FFFFFFFFEFCF8F8F8F8FCFCFFFFFF7FAF
:4063C0007F1F0F030000FFFFFFFFFFFFFFFFFFFEFCF8F8F8FCFCFEFFFFFF7F3F1F070000FFFFFFFFFFFFFF000000FFFFFFFFFFFFFF0000000000000000000000000000004B
:4064000000000000000000000000000000000000000000000000000000000000000000000000000000000000000000000000011D4C33001B2A00AA000000000000000000D0
:406440000000000000000000FFFFFFFFFFFFFF0000C0FCFFFFFFFFFFFFFFFFFFFEF00000FFFFFFFFFFFFFF000000FFFFFFFFFFFF9F070301010101030307FFFFFFFFFFFFDB
:40648000FC0000FFFFFFFFFFFFFFFF0F0301010101010307FFFFFFFFFFFFFEF000FFFFFFFFFFFFFF000000FFFFFFFFFFFFFF000000000000000000000000000000000000ED
:4064C00000000000000000000000000000000000000000000000000000000000000000000000000000000000000000011D4C33001B2A00AA00000000000000000000000010
:406500000000000000F8F8F8F8F8F8F80000000080F8F8F8F8F8F8F8E000000000F8F8F8F8F8F8F80000000080C0E0F0F8F8F8FCFCFCFCFCFCF8F8F8F0E0E0C0000000006B
:40654000F8F8F8F8F8F8F8F8F8F8FCFCFCFCFCFCFCF8F8F0F0E080000000F8F8F8F8F8F8F8000000F8F8F8F8F8F8F8000000000000000000000000000000000000000000C7
:4065800000000000000000000000000000000000000000000000000000000000000000000000000000000000010000001D4C33001B2A00AA0000000000000000000000004F
:4065C00000000000000000000000000000000000000000000000000000000000000000000000007F7F7F7F7F7F7F7F7F7F7F7F7F7F7F7F7F7F7F7F7F7F7F7F7F7F7F7F7F38
:406600007F7F7F7F7F7F7F7F7F7F7F7F7F000000000000000000000000000000000000000000000000000000000000000000000000000000000000000000000000000000E7
:4066400000000000000000000000000000000000000000000000000000000000000000000000000000000000011D4C33001B2A00AA0000000000000000000000000000008E
:406680000000000000000000000000000000000000000000000000000000000000000000F0F0F0F0F0F0F0F0F0F0F0F0F0F0F0F0F0F0F0F0F0F0F0F0F0F0F0F0F0F0F0F0DA
:4066C000F0F0F0F0F0F0F0F0F0F00000000000000000000000000000000000000000000000000000000000000000000000000000000000000000000000000000000000003A
:4067000000000000000000000000000000000000000000000000000000000000000000000000000000011D4C33001B2A00AA000000000000000000000000000000000000CD
:406740000000000000000000000000000000000000000000000000000000000000FFFFFFFFFFFFFEF80000000E1E1E1E1E1C8081C3FFFFFFFFF8C000000E1E1E1E1E0C80FD
:4067800080C3FFFFFFFFFF0000000000000000000000000000000000000000000000000000000000000000000000000000000000000000000000000000000000000000009B
:4067C00000000000000000000000000000000000000000000000000000000000000000000000011D4C33001B2A00AA0000000000000000000000000000000000000000000D
:406800000000000000000000000000000000000000000000000000000000FFFFFFFFFFF101010119797979797921010187FFFFFFE10101033F7F7F7F3F3F0101C1FFFFFF6C
:40684000FFFFFFFF0000000000000000000000000000000000000000000000000000000000000000000000000000000000000000000000000000000000000000000000001C
:4068800000000000000000000000000000000000000000000000000000000000000000011D4C33001B2A00AA0000000000000000000000000000000000000000000000004C
:4068C0000000000000000000000000000000000000000000000000FFFFFFFFFFFFFFFFFFFFFFFFFFFFFFFFFFFFFFFFFFFFFFFFFFFFFFFFFFFFFFFFFFFFFFFFFFFFFFFFFFC1
:40690000FF00000000000000000000000000000000000000000000000000000000000000000000000000000000000000000000000000000000000000000000000000000058
:4069400000000000000000000000000000000000000000000000000000000000011D4C33001B2A00AA0000000000000000000000000000000000000000000000000000008B
:406980000000000000000000000000000000000000000000E0E0E0E0E0E0E0E0E0E0E0E0E0E0E0E0E0E0E0E0E0E0E0E0E0E0E0E0E0E0E0E0E0E0E0E0E0E0E0E0E0E0000017
:4069C0000000000000000000000000000000000000000000000000000000000000000000000000000000000000000000000000000000000000000000000000000000000097
:406A000000000000000000000000000000000000000000000000000000011D4C33001B2A00AA00000000000000000000000000000000000001070707070707070707000189
:406A400007070707070707070600070707070707070707070401070707070707070707000000030707070F0F0F070701000003070707070707070703000007070707070792
:406A80000707070300000000030707070700000000010707070E0E0F0F07000000000000000000000000000000000000000000000000000000000000000000000000000048
:406AC00000000000000000000000000000000000000000000000011D4C33001B2A00AA00000000000000000000000000000000067EFEFEFCF87070F0E0E0821EFEFEFEFE6E
:406B0000EE6E6E6E000000000E7EFEFEF0C00000021EFEFEFCF0707EFEFEDE86007CFEFEFFCF070E3EFCFCF0C0067EFEFEFEEE6EFEFEFCF8000EFEFEFEF0F07EFEFEFED84C
:406B4000020E1E7EFCFCFCFEFEFEFE00000ECEEFEFE7FEFE7E7C380000000000000000000000000000000000000000000000000000000000000000000000000000000000AE
:406B800000000000000000000000000000000000000000011D4C33001B2A00AA00000000000000000000000000000000000000000101010101010101010000000000000040
:406BC00000077F7F7F7F3F00000001010100000000000000000000000000010000000000000001010101010101010101010101010100000000000000000000000000000040
:406C0000007F7F7F7F3F1F0F0000000000000000000000000000000000000000000000000000000000000000000000000000000000000000000000000000000000000000EB
:406C400000000000000000000000000000000000011D4C33001B2A00AA0000000000000000000000000000000000007FFFFFFFFFF8F0F0F0F0F8FCFE7F7F3F0F0300FFFF16
:406C8000FFFFFFFF00007FFFFFFFFF3F00000000000000007FFFFFFFFF00003F7FFFFFFFFFFFFBFBFBFBFBFBFBFBFBF1F0E000000000000103070707070707070707FFFF15
:406CC000FFFFFFFFFF070707070707070707070707000000000000000000000000000000000000000000000000000000000000000000000000000000000000000000000045
:406D000000000000000000000000000000011D4C33001B2A00AA000000000000000000000000000000000000FFFFFFFFFF1F0F0707070F1F7FFFFFFEF8E000C0FEFFFFFF4D
:406D4000FF0000C0F8FEFFFFFF3F1F0F0F0F0F1F7FFFFFFEFCF000000187C7EFEFEFEFEFEFEFEFEFFFFFFFFFFFFF7E00000000F0F0F0F0F0F0F0F0F0F0F0F0FFFFFFFFFFD8
:406D8000FFFFF0F0F0F0F0F0F0F0F0E0C080000000000000000000000000000000000000000000000000000000000000000000000000000000000000000000000000000045
:406DC00000000000000000000000011D4C33001B2A00AA000000000000000000000000000000000000FFFFFFFFFEF8C0C0C0C0C080800000000000000000008080800000D5
:406E000000000000008080C0C0C0C0C0C08080000000000000C0C0C0C0C0C0C0C0C0C0C0C0C0C0C08080000000000000000000000000000000000000F8FCFEFFFFFFFF00A4
:406E40000000000000000000000000000000000000000000000000000000000000000000000000000000000000000000000000000000000000000000000000000000000012
:406E800000000000000000011D4C33001B2A00AA00000000000000000000000000000000000000000000000000000000000000000000000000000000000000000000000046
:406EC000000000000000000000000000010103030707070707070707070703010101000000000000000000000000000000000000000000000000000000000000000000003E
:406F00000000000000000000000000000000000000000000000000000000000000000000000000000000000000000000000000000000000000000000000000000000000051
:406F400000000000011D4C33001B2A00AA00000000000000000000000000000000000000000000000000000000000000000000000000000000000000000000000000000085
:406F80000001070F3F7F7FFFFFFFFFFFFFFFFFFFFFFFFFFFF9F9F9F8F8F8FCFE7F3F1F0F0300000000000000000000000000000000000000000000000000000000000000CE
:406FC0000000000000000000000000000000000000000000000000000000000000000000000000000000000000000000000000000000000000000000000000000000000091
:4070000000011D4C33001B2A00AA0000000000000000000000000000000000000000000000000000000000000000000000000000000000000000000000000000003FFFFF87
:40704000FFFFFFFFFFFFFFFFFFFFFFF0C08080C0C0E0E0F8FF7F3F0700E0FF1F83FCFF3F0F00000000000000000000000000000000000000000000000000000000000000A5
:407080000000000000000000000000000000000000000000000000000000000000000000000000000000000000000000000000000000000000000000000000000000011DB2
:4070C0004C33001B2A00AA000000000000000000000000000000000000000000000000000000000000000000000000000000000000000000000000000000F0FEFFFFFFFF38
:40710000FFFFFFFFFFFFFFFF3F0F0F070F0F1E1E7CF8F8E1030FFFFCF3877FFFF8C0000000000000000000000000000000000000000000000000000000000000000000008F
:407140000000000000000000000000000000000000000000000000000000000000000000000000000000000000000000000000000000000000000000000000011D4C330072
:407180001B2A00AA00000000000000000000000000000000000000000000000000000000000000000000000000000000000000000000000000000000000080E0F0F8F8FCA4
:4071C000FEFEFFFFFFFFFFFFFFFFFF7F3F3F7FFEFEFEFCFCF8F0E08000000000000000000000000000000000000000000000000000000000000000000000000000000000E6
:407200000000000000000000000000000000000000000000000000000000000000000000000000000000000000000000000000000000000000000000011D4C33001B2A006C
