:4000000000800020110000003D1700003D17000008B5044B1A6803F53F5302331A6001F08FFB00BFFA46004010B5054C237833B9044B13B10448AFF300800123237010BD44
:400040008081FF1F000000006C280000084B10B51BB108480849AFF300800848036803B910BD074B002BFBD0BDE81040184700BF000000006C2800008481FF1F0881FF1F29
:400080000000000008B502F0BDF902F0C7F801F01BFE01F011FF01F037FD01F0BFFD08BD08B50F4B1878002102F0B0F90D4B1878012102F0ABF90C4B1878022102F0A6F9EA
:4000C0000A4B1878032102F0A1F9094B1878042102F09CF9074B1878052102F097F908BD9288FF1FBD94FF1F3D8BFF1F9388FF1FBB94FF1FD094FF1F10B59CB0754A19AB43
:4001000007CA03C31A80744B16AC93E8070003C42280724A13AC07CA03C4228010AC03F10C0207CA03C4227000228DF849200DAC03F1180103C984E80300ADF83C200AACBD
:4001400003F1240207CA03C4228007AC03F1300207CA03C4228004AC03F13C0207CA03C4228001AC483393E8070003C422805C4B1B78022B5ED10120014600F04FFF01208C
:4001800019A9002201F004F84FF4967001F086FF544B1B7823B9012016A9002200F0F8FF504B1B78012B04D1012013A9002200F0EFFF4C4B1B78022B04D1012010A9002284
:4001C00000F0E6FF474B1B78032B04D101200DA9002200F0DDFF444B1B783BB901200AA9162200F0D5FF0522404B1A703E4B1B78012B07D1012007A9162200F0C9FF062212
:400200003A4B1A70384B1B78022B07D1012004A9162200F0BDFF0722344B1A70324B1B78032B07D1012001A9162200F0B1FF08222E4B1A702A4B1B78042B41D101202E2111
:4002400000F0ECFE012019A9002200F0A1FF4FF4967001F023FF234B1B7823B9012016A9002200F095FF1F4B1B78012B04D1012013A9002200F08CFF1A4B1B78022B04D1DE
:40028000012010A9002200F083FF164B1B78032B04D101200DA9002200F07AFF124B1B78012B04D1012007A9162200F071FF0E4B1B78022B04D1012004A9162200F068FFD2
:4002C000074B1B78012B03D80120002100F0A6FE1CB010BDC428000070280000D0280000D894FF1F9288FF1FD094FF1F3E8FFF1F08B5104B1B78022B06D10220012100F015
:400300008DFE00220C4B1A600A4B1B78042B03D102202E2100F082FE064B1B78012B03D80220002100F07AFE02200449002200F02FFF08BDD894FF1FFC91FF1F0C81FF1F89
:4003400008B500F0DDFC214B187000283DD0204B187800F0BDFC00F063FD50B90120002100F05CFE0220002100F058FE0022174B1A70174B93F8020100F0AAFC00F050FDEB
:4003800050B90120002100F049FE0220002100F045FE00220D4B1A700D4B187800F098FC00F03EFD88B10A4B93F8020100F090FC00F036FD48B100F0A3FC044B1870044B41
:4003C000187800F04BFDFFF76BFE08BDD894FF1FE881FF1F38B5364B187800F079FC00F01FFD90B1324B93F8020100F071FC00F017FD38B909E02F4AD15C2F4AD154013392
:40040000DBB200E00023032BF5D92C4B1B78022B0AD1274D287800F05BFC264C207095F8020100F055FC6070244B1B78042B14D11F4D287800F04CFC1E4C207095F802013C
:4004400000F046FC607095F8040200F041FCA07095F8060300F03CFCE070184B1B780BB9FFF76EFF124B187800F032FC00F0D8FC50B90120002100F0D1FD0220002100F074
:40048000CDFD00220D4B1A70094B93F8020100F01FFC00F0C5FC50B90120002100F0BEFD0220002100F0BAFD0022044B1A7038BDE881FF1F388FFF1F8C88FF1FD894FF1FD8
:4004C00070B584B0A44B1B68072B00F24082DFE813F008000E003F00900013014F01CC010602FFF709FE01229B4B1A602FE201F0F9FB082840F02B82984B1B78DBB2AA2B08
:4005000020D1964B9B79DBB2C32B1BD1934BDB79DBB23C2B16D1914BDB78DBB23A2B02D07E2B08D00EE002228B4B1A600120042100F074FD06E00120014600F06FFD002218
:40054000854B1A600A2001F0A9FD01F0F9FBFEE101F0C8FB082840F0FA81804B1B78DBB2AA2B40D17D4B9B79DBB2C32B3BD17B4BDB79DBB23C2B36D1784BDB78DBB2452BC1
:400580001AD004D80D2B07D00E2B0DD02BE07E2B22D0942B18D026E003226F4B1A600120052100F03BFD1EE004226B4B1A600120852100F033FD16E00522674B1A60012090
:4005C000832100F02BFD0EE00022634B1A600120014600F023FD06E000225F4B1A600120014600F01BFD0A2001F058FD01F0A8FBADE101F077FB082840F0A981574B1B783F
:40060000DBB2AA2B72D1554B9B79DBB2C32B6DD1524BDB79DBB23C2B68D1504BDB78DBB23B2B54D004D80F2B09D0102B23D05DE07E2B54D0942B42D0432B57D137E00422BA
:40064000454B1A60464B022483F87C40442283F87D200025434B1D700120062100F0DEFC0120009001954E23029324210322234600F0B6FD3AE00422374B1A60384B01240B
:4006800083F87C40562583F87D500026354B1E7020460D2100F0C2FC009401964E230293204629460322022300F09AFD1EE00622294B1A6001200B2100F0B0FC16E00022DE
:4006C000254B1A600120014600F0A8FC0EE00022214B1A600120014600F0A0FC06E000221D4B1A600120014600F098FC0A2001F0D5FC01F025FB2AE11B4B19780120002212
:4007000000F0D2FD10B1012813D020E10022124B1A600120014600F081FC18E1104A1A4492F8641082F87E1082F888100133DBB200E000230A4A92F864209A42EED20B4B7D
:400740000120187030225A700522034B1A60862100F064FCFBE000BF608FFF1FFC96FF1FF485FF1F3F8FFF1F3E8FFF1F9C94FF1F01F0B8FA082840F0EA80764B1B78DBB26D
:40078000AA2B6CD1734B9B79DBB2C32B67D1714BDB79DBB23C2B62D16E4BDB787E3B3A2B5DD8DFE803F055351E295C5C5C5C5C5C5C5C5C5C5C5C5C5C5C5C5C5C4D5C5C5CA8
:4007C0005C5C5C5C5C5C5C5C5C5C5C5C5C5C5C5C5C5C5C5C5C5C5C5C5C5C5C5C5C5C5C5C410006225C4B1A6001205C4B83F801010B2100F013FC32E00622574B1A60022205
:40080000564B83F8012101200B2100F007FC26E00622514B1A600322504B83F8012101200B2100F0FBFB1AE006224B4B1A6004224A4B83F8012101200B2100F0EFFB0EE0C7
:400840000022454B1A600120014600F0E7FB06E00120014600F0E2FB00223F4B1A600A2001F01CFC01F06CFA71E001F03BFA08286DD1384B1B78DBB2AA2B2AD1354B9B795B
:40088000DBB2C32B25D1334BDB79DBB23C2B20D1304BDB78DBB2392B04D07E2B12D0382B17D107E001200A2100F0B8FB04222A4B1A600EE00120072100F0B0FB0722264B50
:4008C0001A6006E00120014600F0A8FB0022224B1A600A2001F0E2FB01F032FA37E0012000F03CFB1D4B83F8000193F80131984206D10821184B1960012000F08FFB02E04C
:400900000722154B1A6001F0EDF908281DD1114B1B78DBB2AA2B15D10E4B9B79DBB2C32B10D10C4BDB79DBB23C2B0BD1094BDB78DBB27E2B06D10120014600F06FFB0022AC
:40094000054B1A600A2001F0A9FB01F0F9F904B070BD00BFFC96FF1F608FFF1FE881FF1F08B5A94B1B68062B00F28B81DFE813F007000D0041009200ED001D015001FFF7C1
:40098000B7FC0122A04B1A6008BD0220232100F0D1FB01F09FFA082840F073819B4B1B78DBB2AA2B1FD1994B9B79DBB2C32B1AD1964BDB79DBB23C2B15D1944BDB78DBB240
:4009C0003A2B02D07E2B07D00DE002208E4B1860042100F023FB06E00220012100F01EFB0022894B1A600A2001F058FB01F0A0FA08BD01F06FFA082840F04381834B1B786D
:400A0000DBB2AA2B40D1814B9B79DBB2C32B3BD17E4BDB79DBB23C2B36D17C4BDB78DBB2452B1AD004D80D2B07D00E2B0DD02BE07E2B22D0942B18D026E00322724B1A6013
:400A40000220052100F0EAFA1EE004226E4B1A600220852100F0E2FA16E005226A4B1A600220832100F0DAFA0EE00022664B1A600220012100F0D2FA06E00022624B1A602F
:400A80000220012100F0CAFA0A2001F007FB01F04FFA08BD01F01EFA082840F0F2805B4B1B78DBB2AA2B4AD1584B9B79DBB2C32B45D1564BDB79DBB23C2B40D1534BDB785E
:400AC000DBB23B2B2CD004D80F2B09D0102B0FD035E07E2B2CD0942B1AD0432B2FD10FE00422494B1A600220062100F097FA26E00522454B1A6002200D2100F08FFA1EE042
:400B00000622414B1A6002200B2100F087FA16E000223D4B1A600220012100F07FFA0EE00022394B1A600220012100F077FA06E00022354B1A600220012100F06FFA0A2085
:400B400001F0ACFA01F0F4F908BD01F0C3F9082840F097802D4B1B78DBB2AA2B1FD12B4B9B79DBB2C32B1AD1284BDB79DBB23C2B15D1264BDB78DBB27E2B09D0942B0ED1B8
:400B80000022214B1A600220012100F047FA06E000221D4B1A600220012100F03FFA0A2001F07CFA01F0C4F908BD01F093F9082867D1164B1B78DBB2AA2B1FD1134B9B79C0
:400BC000DBB2C32B1AD1114BDB79DBB23C2B15D10E4BDB78DBB27E2B09D0942B0ED10022094B1A600220012100F018FA06E00022054B1A600220012100F010FA0A2001F04B
:400C00004DFA01F095F908BDFC91FF1F1C97FF1F01F060F9082834D11A4B1B78DBB2AA2B2AD1184B9B79DBB2C32B25D1154BDB79DBB23C2B20D1134BDB78DBB2392B04D0E2
:400C40007E2B12D0382B17D107E002200A2100F0E5F907220C4B1A600EE00220862100F0DDF90822084B1A6006E00220012100F0D5F90022044B1A600A2001F00FFA01F046
:400C800057F908BD1C97FF1FFC91FF1F08B562B6002304E000210D4AD1540133DBB2032BF8D9FFF7EFF9FFF74BFB0320002101F015FA01F033FAFFF78DFB01F02FFAFFF760
:400CC000FFFB01F02BFAFFF74BFEF2E7388FFF1F10B5044601F016FB204601F035FB3C2001F0DCF901F0DAFA38B101F0A5FAC0F3071401F007FB204610BD002010BD00BF4F
:400D000010B5464BFF221A7083F8022183F8042283F80623012454E0204601F015FB642001F0BCF901F0BAFA38B13C4B1B78FF2B03D13A4B1C7001F0E5FA01F0AFFA68B1AB
:400D4000364B1B78A34209D0344B93F80231FF2B04D1324B83F8024101F0D4FA01F09EFA90B12E4B1B78A3420ED02C4B93F80231A34209D0294B93F80432FF2B04D1274B39
:400D800083F8044201F0BEFA01F088FAB8B1234B1B78A34213D0214B93F80231A3420ED01E4B93F80432A34209D01C4B93F80633FF2B04D1194B83F8064301F0A3FA01343A
:400DC000E4B2102CA8D9154B1B78FF2B0ED0134A92F80221FF2A09D0104A92F80422FF2A04D00E4A92F80623FF2A0FD1FF2B04D00A4A92F80221FF2A0AD1FF2B0AD1074B24
:400E000093F80231FF2B07D0012010BD042010BD022010BD012010BD002010BDE881FF1F30B1002802DB831F062B01D90020704701207047002104E003F00F030B44D9B29D
:400E400001300378FB2BF7D103F00F028818404200F00F0040F0E000704700BFF0B585B000AF0446FFF734FF06280AD144F0200001F06AFA322001F011F901F0DDF9054620
:400E800000E0002501F03EFA44F0D004AC4222D1FF233B71E9237B71FE23BB71EE23FB71E0233B727B72FB23BB72381DFFF7C2FFF872F0233B73002408E007F110032344EE
:400EC00013F80C0C01F040FA0134E4B2082CF4D9C82001F0E3F801F0E1F9C6B2F31D23F00703ADEB030D6D46002404E001F0A4F928550134E4B2B442F8D901F003FAAB7AA1
:400F000003F00F030F4A13702B7B03F00F030E4A1370AB7B03F00F030C4A13702B7C03F00F030B4A1370AB7C03F00F03094A13702B7D03F00F03084A137000201437BD46D0
:400F4000F0BD00BF9288FF1FBD94FF1F3D8BFF1F9388FF1FBB94FF1FD094FF1FF0B585B000AF0446FFF7B4FE0638C0B201280AD844F0200001F0E8F9322001F08FF801F039
:400F80005BF9054600E0002501F0BCF944F0D004AC4222D1FF233B71E9237B71FE23BB71E023FB71E1223A727B72FB23BB72381DFFF740FFF872F0233B73002408E007F1DC
:400FC0001003234413F80C0C01F0BEF90134E4B2082CF4D9C82001F061F801F05FF9C5B2EB1D23F00703ADEB030D6E46002404E001F022F930550134E4B2AC42F8D901F059
:4010000081F9337B03F00F03012B03D1B07B00F00F0000E000201437BD46F0BD30B583B005460A4610496B460868496803C3130A8DF802308DF80320002410E0012D06D125
:4010400002AB234413F8080C00F09CFE05E002AB234413F8080C00F08DFF0134E4B2072CECD903B030BD00BFDC2800002DE9F04387B005468C4616461C469DF83870BDF8AC
:401080003CE00DF10408DFF8A89059F8080FD9F80410D9F80820D9F80C30A8E80F00B9F81030A8F800307A1C02FB04F303EB43039B001B128DF8063004FB02F404EB4404DB
:4010C000A3008DF80730C6EBC6035B001B128DF80830C6EBC60673008DF8093020378DF80A709DF84030592B02D185238DF80B304FEA1E238DF80D308DF80EE08DF811C005
:40110000002410E0012D06D106AB234413F8140C00F038FE05E006AB234413F8140C00F029FF0134E4B2112CECD907B0BDE8F083DC28000070B584B005460E466B46134C45
:4011400054F81C0F6168A26807C3A2891A808DF807608DF80960002410E0012D06D104AB234413F8100C00F00DFE05E004AB234413F8100C00F0FEFE0134E4B20D2CECD994
:40118000642000F08BFF04B070BD00BFDC280000F0B585B007460E46154600240DE0315D01230093002301934E23029338461F222B19FFF75BFF0134E4B2092CEFD905B0D4
:4011C000F0BD00BF054B04E0824201D15878704702331A78002AF7D1002070471881FF1F2DE9F04387B005468C4616461C469DF83870BDF83CE00DF10408DFF8A89059F818
:401200002C0FD9F80410D9F80820D9F80C30A8E80F00B9F81030A8F800307A1C02FB04F303EB43039B001B128DF8063004FB02F404EB4404A3008DF80730C6EBC6035B0087
:401240001B128DF80830C6EBC60673008DF8093023378DF80A709DF84030592B02D185238DF80B304FEA1E238DF80D308DF80EE08DF811C0002410E0012D06D106AB234483
:4012800013F8140C00F07EFD05E006AB234413F8140C00F06FFE0134E4B2112CECD907B0BDE8F083DC28000030B585B00D461446012840F0108100F015FD082840F02F82AF
:4012C000A84B1B78DBB2AA2B40F0FE80A54B9B79DBB2C32B40F0F880A24BDB79DBB23C2B40F0F280A04B1B78DBB2013DAB4200F39F809C4BD878FFF765FF0546A0F1200382
:40130000DBB20B2B2AD8984A13780133DBB213701378964A134483F864008CB9924B1A781B7892490A4492F8641001200090002201924E22029203220233FFF751FF78E0C6
:40134000894B1B7801200090002201924E220292214602221344FFF743FF6AE0A0F12D03DBB2512B2AD8804A13780133DBB2137013787E4A134483F864008CB97A4B1A78AE
:401380001B787A490A4492F8641001200090002201924E22029203220233FFF721FF48E0714B1B7801200090002201924E220292214602221344FFF713FF3AE02C2838D16F
:4013C000694B1B7813F0FF0F33D0694B1B7813F0FF0F2ED1644A13780133DBB213700121634B19701378614A134483F864008CB95D4B1A781B785D490A4492F864100120D4
:401400000090002201924E22029203220233FFF7E7FE0EE0544B1B7801200090002201924E220292214602221344FFF7D9FE00E000254C4BDB78DBB20B2B26D14A4B1B7824
:4014400003F0FF042BB9142000F028FE00F078FC68E1454C237801200090002201924E220292202103220233FFF7BAFE23783F4A134493F864302C2B02D100223C4B1A70C5
:40148000394A1378013BDBB213700A2D10D1364B1B7813F0FF0F0BD0334B1A78334B83F86420142000F0FAFD00F04AFC012439E12C4BDB78DBB2942B06D1142000F0EEFDA1
:4014C00000F03EFC00242DE1142000F0E7FD00F037FC022426E100F0FDFC082840F02181244B1B78DBB2AA2B40F01281214B9B79DBB2C32B40F00C811E4BDB79DBB23C2BBD
:4015000040F006811C4B1B78DBB2013DAB4200F3B580184BD878FFF755FE0546A0F12003DBB20B2B3BD8144A13780133DBB213701378124A134483F864000CBB0E4B1A784D
:401540001B780E490A4492F8641001220092002201924E220292022003220344FFF740FE8DE000BFFC96FF1F3F8FFF1FF485FF1F0392FF1F1C97FF1FBC94FF1FA888FF1F66
:401580006A4B1B7801220092002201924E2202920220214602460344FFF722FE6FE0A0F12D03DBB2512B2CD8604A13780133DBB2137013785E4A134483F8640094B95B4B55
:4015C0001A781B785A490A4492F8641001220092002201924E220292022003220344FFF7FFFD4CE0514B1B7801220092002201924E2202920220214602460344FFF7F0FD25
:401600003DE02C283BD1494B1B7813F0FF0F36D0484B1B7813F0FF0F31D1444A13780133DBB213700121434B19701378424AD2783F490B4483F864208CB93C4B1A781B78F8
:401640000A4492F8641001220092002201924E220292022003220344FFF7C2FD0FE0334B1B7801220092002201924E2202920220214602460344FFF7B3FD00E000250B2D04
:4016800027D12A4B1B7803F0FF042BB9142000F005FD00F04DFC45E0244C237801220092002201924E2202920220202102460344FFF796FD23781E4A134493F864302C2B08
:4016C00002D100221B4B1A70184A1378013BDBB213700A2D10D1154B1B7813F0FF0F0BD0124B1A78124B83F86420142000F0D6FC00F01EFC012415E00F4BDB78DBB2942B77
:4017000006D1142000F0CAFC00F012FC002409E0142000F0C3FC00F00BFC022402E0022400E00224204605B030BD00BFBC94FF1FA888FF1FF085FF1F1C97FF1FFEE700BF44
:4017400008B5104E104D16E029686B68AC68002204E051F8040B43F8040B0432A242F8D1E868002203E0002143F8041B04328242F9D11035013E002EE6D101F03DF8FFF7DF
:4017800085FAFEE7010000008429000008B5124A124B1A60124A136843F40073136000230AE0032B03D80F4A52F8231000E00E490E4A42F8231001332F2BF2D90C4B1A7809
:4017C0000C4B1A70094A0C4B1A6000F0C9F800220A4B1A6008BD00BF0004FA050CED00E014ED00E0000000003D1700000080FF1FBC7600400481FF1F08ED00E00081FF1F86
:40180000FEE700BFF0B40022174611E050F82760F3B226F0FF0608E001EB420511F812406D78A5550132013BDBB2002BF4D10137272FEBD9F0BC7047064B1B78DBB203F007
:401840000701054A11701B09013213704422034B1A707047CF0100496E5800407658004008B50A46002100F0F8FF08BD38B533222D4B1A8018232D490B7002310A802C4A07
:4018800013704FF49C7204310A8002310B7002310A80284A13704FF4027102321180023213700222244B1A7008224FF040231A70032103F500731970204B1B78DBB2204984
:4018C0000B70204B1A8041F25122023B1A80002419250CE01C4B1B7803F0010343EA440404F003044FF4F07000F0C6FB013D0DB1032CEFD115B90320FFF782FF134B4FF4F4
:4019000080721A8007221A70002211490A704820023108701A700222033B1A700D4A137843F01F03137038BD8040004082400040864000408E40004000430040080100494F
:40194000A146004022420040254200400440004006400040A243004008B500F073FF08BD70B572B6354A137843F00403137000240CE0334963001A1952000A4423445B004A
:40198000C8589188FFF76CFF0134E4B2082CF0D900240BE02A49A3001A1952000A44906BD16B8022FFF7D8FF0134E4B2002CF1D04FF090402349FFF725FF234A137843F0AF
:4019C000020313701032137843F0020313701F4C237843F040032370A2F58632513A137843F0100313701A481A490A22FFF7B4FF19481A490A22FFF7AFFF194819490A227D
:401A0000FFF7AAFF184819490A22FFF7A5FF184A137843F008031370164E01253570FFF725FF81233370144B1D70FFF705FF134821460E22FFF790FF70BD00BFE84600408A
:401A40001C290000A000004803500140A0430040105100409C0E004820510040A80E004850510040B40E004860510040C00E0048224300400048004004000840B0430040A2
:401A800008B503200C4900F04FFB0320072100F05FFB0023094A13707221094A11702021033211700621613A11704721103211705032137008BD00BF251B00009C81FF1F59
:401AC0008064004010B500F0DFFA04460B4A137843F0200313700332137843F0100313700822074B1A60074A137843F01003137000F096FA204600F0CBFA10BD9064004071
:401B000000E100E09264004008B5054B5B7823B9FFF7B6FF0122024B5A70FFF7D3FF08BD9C81FF1F1E4B1B78DBB213F01E0F05D01C4803F01E0201780A43027003F02003F2
:401B400003F0FF02002B27D0174B1978C9B2174B1B889BB21648C154164B1B7813F0FF0F02D00121144B197010490B8801339BB20B800B889BB2B3F5007F02D300210B4BF0
:401B800019800A4B198889B20C4B1B889BB2994202D10121074B1970002AC3D1704700BF636400409C81FF1F40640040A081FF1FFC94FF1FA281FF1FA381FF1F9E81FF1F62
:401BC0007222074B1A702022043B1A700622673B1A70472210331A70002258331A7070478E64004010B500F04FFA04460A4A137843F020031370043A137843F0100313702E
:401C00000132137843F01003137000F0B9FA204600F03EFA10BD00BF9E64004008B5054B1B7823B9FFF7CCFF0122024B1A70FFF7D9FF08BDA681FF1F08B500200D4900F0EC
:401C400073FA0020072100F083FA00230A4A137072210A4A1170202102F5807211700621A2F5B17211704721103211705132137008BD00BF9D1D0000A881FF1F88640040F1
:401C800010B500F001FA04460C4A137843F02003137002F58072137843F0100313700122074B1A60074A137843F01003137000F0C5F9204600F0ECF910BD00BF98640040EE
:401CC00000E100E09764004008B5054B5B7823B9FFF7B2FF0122024B5A70FFF7D1FF08BDA881FF1F0122134B1A60134A9378D278DBB2934206D1104B1B7913F0FF0F14D0AF
:401D0000202013E00C4A9378D278DBB2934205D2094AD3789078181AC0B207E0064AD3789078181A2030C0B200E000200122034B1A60704780E100E0A881FF1F00E100E0D9
:401D400008B500F0A1F90B4B1A7842F001021A701A7802F0FE021A7000F09AF90121064B1960064B00229A70DA701A715A71044B196008BD9865004080E100E0A881FF1F89
:401D800000E100E0034B1B7813F0040FFAD1024B1870704767640040476400401C4B1B78DBB213F01E0F05D01A4803F01E0201780A43027003F0200303F0FF022BB3164B9C
:401DC0001978C9B2154B1B78DBB21548C154154B1B7813F0FF0F02D00121134B19700F490B780133DBB20B700B78DBB21F2B02D900210A4B1970094B1B780C490978DBB271
:401E00008B4202D10121074B1970002AC6D1704768650040A881FF1F48650040AB81FF1FFC96FF1FAC81FF1FAD81FF1FAA81FF1F08B501200C4900F077F90120072100F0A6
:401E400087F90023094A13707221094A11702021013211700621603A1170472110321170B73A137008BD00BF8D1F0000AF81FF1F8A65004010B500F007F904460B4A137820
:401E800043F0200313700132137843F0100313700222074B1A60074A137843F01003137000F0DAF8204600F0F3F810BD9A65004000E100E09464004008B5054B5B7823B969
:401EC000FFF7B6FF0122024B5A70FFF7D3FF08BDAF81FF1F0222134B1A60134A9378D278DBB2934206D1104B1B7913F0FF0F14D0202013E00C4A9378D278DBB2934205D240
:401F0000094AD3789078181AC0B207E0064AD3789078181A2030C0B200E000200222034B1A60704780E100E0AF81FF1F00E100E008B500F0A9F80B4B1A7842F001021A70F1
:401F40001A7802F0FE021A7000F0A2F80221064B1960064B00229A70DA701A715A71044B196008BD9965004080E100E0AF81FF1F00E100E0034B1B7813F0040FFAD1024B95
:401F80001870704764640040476500401C4B1B78DBB213F01E0F05D01A4803F01E0201780A43027003F0200303F0FF022BB3164B1978C9B2154B1B78DBB21548C154154B0E
:401FC0001B7813F0FF0F02D00121134B19700F490B780133DBB20B700B78DBB21F2B02D900210A4B1970094B1B780C490978DBB28B4202D10121074B1970002AC6D17047B8
:402000006B650040AF81FF1F49650040B281FF1F1C97FF1FB381FF1FB481FF1FB181FF1F054A137843F0080313701032137843F008031370704700BFA2430040054A13789F
:4020400043F0020313701032137843F002031370704700BFA2430040054A137843F0010313701032137843F001031370704700BFA2430040000000000230800803D000BF80
:4020800001380046FCD17047EFF3108072B6704780F31088704700BF01BE704710B5044605E0084B1868FFF7E7FFA4F50044B4F5004FF6D8034B586800FB04F0FFF7DCFFC1
:4020C00010BD00BF6C81FF1F08B5034B1B7A03FB00F0FFF7D1FF08BD6C81FF1F0E4B1A7802F0FC0200F00300104318701A7842F080021A701A7802F07F021A7049011A7841
:4021000001F0600102F09F02114319701A7842F010021A70704700BF834300400122014B1A7070478443004070B504460E46074B1D681F2802D90020FFF7AEFF04F01F04B4
:40214000103455F8240045F8246070BD08ED00E038B504460D46072902D90020FFF79CFF1F2C02D90020FFF797FF04F01F0000F1604000F564406D01EDB2057038BD00BF5C
:40218000054A137843F0040313701032137843F004031370704700BFA243004008B502200C49FFF7C1FF02200721FFF7D1FF0023094A13707221094A11702021033A11700A
:4021C0000621683A11704721103211705532137008BD00BF61230000B681FF1F8C64004008B5FFF751FF0A4A137843F020031370033A137843F0100313700422054B1A6097
:40220000054A137843F010031370FFF741FF08BD9C64004000E100E09664004008B5054B5B7823B9FFF7BAFF0122024B5A70FFF7D7FF08BDB681FF1F0422134B1A60134ADF
:4022400053889BB2918889B2927912F0FF0F01D18B4211D00E4AD05CC0B201339BB2FF2B00D90023094A5380937913F0FF0F06D00022064B9A7102E0064B1878C0B20422B8
:40228000054B1A60704700BF80E100E0B681FF1F3C97FF1F4C64004000E100E00422164B1A60164B5A8892B29B889BB29A4207D1124B9B7913F0FF0F19D04FF4807017E065
:4022C0000E4B5A8892B29B889BB29A4205D20B4A93885088181A80B20AE0084A908883B2508880B2181A00F5807080B200E000200422034B1A60704780E100E0B681FF1F79
:4023000000E100E008B5FFF7BFFE0B4B1A7842F001021A701A7802F0FE021A70FFF7B8FE0421064B1960064B00225A809A809A71DA71044B196008BD9C64004080E100E051
:40234000B681FF1F00E100E0034B1B7813F0040FFAD1024B1870704766640040466500401D4B1B78DBB213F01E0F05D01B4803F01E0201780A43027003F0200303F0FF02BF
:4023800033B3174B1978C9B2164B1B889BB21648C154164B1B7813F0FF0F02D00121144B197010490B8801339BB20B800B889BB2FF2B02D900210B4B19800A4B198889B206
:4023C0000C4B1B889BB2994202D10121074B1970002AC5D1704700BF69640040B681FF1F4C640040BA81FF1F3C97FF1FBC81FF1FBD81FF1FB881FF1F08B500F0C7F800F0AF
:40240000CFF808BD08B5FFF7F7FF08BD30B583B00C468DF8070000F0EDF8B4F5006F54D22509C5EB053319010C44A4B200F08EF900284CD1402021460DF10702012300F025
:4024400005F9044607282FD1234B1B7813F0020FFAD0214B1B7813F0020F06D01E4B1B789B0805D04FF0FF3403E04FF0FF3400E00024E4B9194B402029461A785B7800F0B9
:4024800021F9072816D1144B1B7813F0020FFAD0114B1B7813F0020F0FD00F4B1B789B0810D04FF0FF340DE0012809D10AE04FF0FF3407E04FF0FF3404E04FF0FF3401E07C
:4024C0004FF0FF3400F068F902E0012400E00424204603B030BD00BF224700403C98FF1F10B500F087F800F031F9D0B900F070F90446072812D102E00120FFF7E5FD0A4BEE
:402500001B7813F0020FF7D0074B1B7813F0020F04D0054B1B789B0800D1002400F03CF900E00424204610BD2247004010B500F061F800F00BF910BB012000F0E9F80728EE
:4025400018D11048022100F067F802280AD102E00120FFF7B9FD0C4B1B7813F0020FF7D0002409E0084B1B7813F0020FE9D04FF0FF3401E04FF0FF3400F00EF900E00424AB
:40258000204610BD3C98FF1F2247004008B5FFF7A7FF034610B9FFF7C9FF0346184608BD08B5FFF771FD0F4A137843F0080313701032137843F008031370C8220A4B1A709B
:4025C0000A4A137843F0100313701032137843F010031370064B1B7813F0200FFAD0FFF757FD08BDA043004001470040AC4300400047004008B5FFF747FD064A137843F048
:40260000080313701032137843F008031370FFF73FFD08BDA043004070B506460D4600240CE00120FFF750FD064B1B7813F0010FF7D0054B1B7833550134E4B2AC42F3D384
:40264000204670BD224700402047004030B43E2801D81F2B03D93F2827D90F2B27D8174C247814F0020F24D0154CB6252570D4252570012525700234247814F0020F1AD19A
:402680000F4C2070C1F300202070C9B22170591EC9B22170002104E0545C094804700131C9B29942F8D3072006E0012004E0012002E0042000E0092030BC704722470040E1
:4026C0002047004030B4104C247814F0020F15D00E4CB6252570D8252570052525700234247814F0020F0BD1084C2070080A2070C9B2217022702370072002E0042000E0BB
:40270000092030BC704700BF22470040204700400C4B1B7813F0020F0FD00B4BB6221A70E1221A700E221A7002331B7813F0020F05D1054B18700720704704207047092076
:40274000704700BF224700402047004010B5FFF79BFC0F4B1B78A3B901220D4B1A700D4B1B6813F0010F0ED00A4A136823F00103136000BF00BF00BF0122054B5A60002440
:4027800002E0042400E00024FFF782FC204610BDC081FF1F0400084008B5FFF775FC0A4B00221A705B68012B0AD1084A136843F00103136000BF00BF00BF0022024B5A60ED
:4027C000FFF766FC08BD00BFC081FF1F04000840074B1B7813F0020F08D0064BB6221A70E0221A700D221A70072070470420704722470040204700400E4B70B51E460E4C44
:402800000025E41AA410A54204D056F8253098470135F8E700F0A4F8084B094C1E46E41AA4100025A54204D056F8253098470135F8E770BD6C2900006C2900006C290000C2
:402840007429000010B5431E0A44914204D011F8014B03F8014FF8E710BD03460244934202D003F8011BFAE77047000000000000532F442F4475706C6120000053657874C0
:4028800075706C61000000004F637475706C610000000000352D352D3420202020200000362D362D3420202020200000372D372D3520202020200000382D372D3520202061
:4028C00020200000496E696369616E646F000000517561647275706C61000000AA700000CC33C33CAA980000013922C5030000FFFF00CC33C33C0000AA5C0020002000306B
:402900000030CC33C33C0000AA980000013923C5020000FFFF00CC33C33C0000005100401000305100402000C05100401000F0510040100080000140800F001401400008E6
:4029400000400140000A004C014000020050014020000000000001401C0E004880000000F8B500BFF8BC08BC9E4670474D0000008D170000F8B500BFF8BC08BC9E4670476A
:4029800029000000982900000881FF1F78000000C016000000000000000000004D555820562E20312E3000000131023203330434053506360737083809390A300C0A1B5125
:4029C0001C571D451E521F54205921552249234F2450254126532744284629472A482B4A2C4B2D4C2F5A3058314332564242344E354D6A2D6820512C000000000000E02EA1
:402A0000C05D00001800000000366E0100000000000000000000000000000000000000000000000000000000000000000000000000000000000000000000000000000000BC
:402A40000000000000000000000000000000000000000000000000000000000000000000000000000000000000000000000000000000000000000000000000000000000056
:402A80000000000000000000000000000000000000000000000000000000000000000000000000000000000000000000000000000000000000000000000000000000000016
:402AC00000000000000000000000000000000000000000000000000000000000000000000000000000000000000000000000000000000000000000000000000000000000D6
:402B00000000000000000000000000000000000000000000000000000000000000000000000000000000000000000000000000000000000000000000000000000000000095
:020000040003F7
:0200000480007A
:40000000055200400C640040036500401800014038010140660201404D0301405D0401403F0501406B060140410701403F0801403A090140560A0140420B0140530C014087
:40004000420D0140440E01402B0F0140091501406A160140451701406418014044190140541A01404C1B014004400140054101400242014004430140094401400A4501403C
:4000800003460140034701400448014003490140084C01400A4D014008500140015101400C4014042C10308134428072820F8338840F860F870F8872893C8A388B0F8C72DC
:4000C0008E7288388A728B389801A801AC01B201BA20C002C540C9FFCA07CBFFCC40CD20CEF0CF05D008D804DA04DC03DD04DF01E040E1A8E240E32000040240030A0840B5
:400100000A010B840D10108013181580172019011A011B101C041F28200221042289230428802B283050320A38283A424005430844104504460448014A084D0151085310F2
:400140005608590169A06B207094720273188602870489108F20C00FC24BC4CECA07CC0FCE0FD02ED20CD6010473060C0720082A09700A440B0D0C030E44137015051758FD
:400180001E0820732204265529022B0C2D052F3830403103320F3430353C3768382039023A083BA03E114002450449FF4A074BFF4C404D204EF04F05500854015804590433
:4001C0005A045B045C335D335F01604061A86240632084018B808D4F8F309720990C9B509E02A355A604A780A94FAA02AB10AD2AAF50B13CB201B303B580B606B740B908E6
:40020000BB02BE44BF54C003C640C9FFCA07CBFFCC40CD20CEF0CF05D008D418D604D804D904DA04DB04DC20DD32DF01E040E1A8E240E320000805040602071808800E0298
:400240001004110816A01701180119081D241E4020502180230425112601270929112B112EA0302033083504360138403B203D244010452049014D04521056205A025C2072
:400280005D085E405F02600261026304810286018D018E08910192029320940198849A089E04A10CA280A310A702A904AC80AD04AF40B004B240C0E4C281C436CA3FCCC6EC
:4002C000CE6CD022D6F1D80DE008EA04EE02051409100A1C0C1C0E230F0310211140121617201821190C1A0E1B111F202110230C2608284029092A032B102C802D1C2F0215
:40030000300F311F32603340341A3520368038083A223E403F144046410245EB46C0480B49FF4AFF4BFF4EF04F44500C5401580459045A045B045C225D025F0166C06A4031
:400340006B028109831085108C01910C9311951C970299109B0C9F03A514B11FB401BE10C023C104C6B0C7CEC838C9FFCAFFCBFFCEF0CF44D00CD804D904DA04DC30DD030A
:40038000DF01E6C0EA40EB02030A04800A441218134019101A051B0B1E0822242340274028802B092F203119328037593A103B443D0640C042444620471148404A084B0470
:4003C000502054045602572059215A88800282209040910596019A389B199C029D109E06A189A288A424A709AB02B004B302B420B602C083C20AC407CA4DCCFFCECED0E5F9
:40040000D204D60FEA0401A20202031504380508064307510C560E211322143815D41645172119D41B231E292A4630633131321833C034073503370C380839883A223B2258
:400440003E043F044003460449FF4A074BFF4C404D204EF04F0550085401580459045A045B045C415D415F01604061A8624063208413854C860487118C0A8D1C8E148F4234
:4004800094139514960C99209B039D80A215A403A550A614A70CA909AA08AB10AD10B010B20FB3C0B51FB720B908BA08BE01BF40C031C102C5ECC70BC813C9FFCAFFCBFFED
:4004C000CEF0CF44D00CD401D804D904DA04DB04DC11DD11DF01E6C0EA40EB020044046406440A100E110F0210B41208172019041A501C441D0821402218232024202501E3
:400500002745280429042A4030883210371538443D023E08400442114508482049024A804C804F0250085640581059025A485EA85F018D409101948096809A089D219E0483
:40054000A204AC40B020B180B740C0B5C2A4C44ECA0ECCEECECAD04ED6FFE602E80200020110044F0508063009180C010D4010031160145C15FF1623187F191C1BE21C7358
:400580001DE71E0C1F18223323632404251C27E1280C29242C082F04301C31603240342C351F360F378039803AA03B283E0456025711580459045B045C115D105F018602D1
:4005C0008E019E02B001B402BB80BE10D41CD604D804D904DB04DC21DD40DF010008030104040680074109400C400D020E2915011601172819201A401C141D011E011F10A8
:4006000022802540261D2C082D012E402F1034403616380239013EAA5B065C10615063406D406E14762B77288740970899509B06A680AD48B240B320B480C0B5C2F1C4F0D5
:40064000CAF0CCF0CEF0D623D80DE410E830EC20020206020A010B01120117021F012B0234013501360237023E503F50402541044203440146E0470C481849FF4AFF4BFFD3
:400680004C624DA04EF04F41500C5418580459045A045B045D225F016640670269106A306B106D106E106F1280048212837F8504860487229161931E9408953F974099330F
:4006C0009B449D069E039F09A004A211A417A817A97FAC04AD46AF39B007B107B210B360B408B508B710B808BA02BB0ABE10D401D804D904DB04DC44DD20DF01002002107C
:4007000003400504068009010D080E031405170919501C201E041F022305250427862B0C2E802F0630083240361037893B203D083E0141814328440245404B4050085310B1
:4007400059025C025E845F20630579027A80928093409708980599069A109B499C80A181A211A324A680A702A810B001C03EC2A8C4F0CA34CCFACEC4D00FD208D6F1D80C6E
:4007800001040502081409060A0A0C020E050F191009112712521318153917061901243F283F293F2C202D362F093007311032403307341835203620370E3B883F10406510
:4007C00041024204440346C047E0482849FF4AFF4BFF4C624DA04EF04F41500C56025712580459045A045B045C445D445F016640670269106A306B106D106E106F12810971
:400800008332859F899F8D809514972A99029B459E01B180B201B318B507B760BF40D804D904DC23DF01044005100A010C011540171418201C401D141E4221A0221423409D
:4008400024042502260C27412C042F063120320436143709399A3E2A3F804404450A4A034E0A4F80550156105C046D406F14762A919A92819668974099029C819D10A10807
:40088000A210A324A680AB12AC10AD80B121B201B601B708C0C0C211C4E0CA30CCE6CEFFD0E0D230D640E008EE8000FF011004F30518060C084109080C1C0EE30F0312F3AA
:4008C00014C317041882193C1B421C0F1D7F1EF02008240425672718280C29042B802D3C2F4130C03120321C3380340F351F362C374039803AA03B203F01560257105804EA
:4009000059045B045C225D205F018A209240941F981F9C099E12A080A414A60AA802AA05AE20B007B260B480B618BE14D804DC03DF0101200281032005100A2A0B400E51C4
:400940000F0410A81491171019821A021B341D881E241F0221202248238829A02B103120328838283A023B405B80699870BC720286048B048E10C04FC2FFC4FECA0ECC0EDF
:40098000CE0FD608E002E4308B408C0297409C02AE12B102B201B510E60200710103020803240443063007250C240E4113D8145015A3174C180219631A011B941C811DDAB9
:4009C0001E0E1F242040214022032430264727802F083280331F35C0367F37203B283E043F404062410345E046B047C0482A49FF4AFF4BFF4EF04F44500C580459045A0441
:400A00005C445D045F0166C06A406B02841C85338603870C89038B148C018E0E92039308990A9B349D809E1CA133A304A401A616AD40AE08AF15B01AB160B380B40FB50FFF
:400A4000B710B902BA22BB20BF44C021C104C5E0C6CBC80EC9FFCAFFCBFFCEF0CF44D00CD804D904DA04DF01E6C0EA40EB02004404200520075108020A020DA00E040F2063
:400A800012201340150116801704184419121D801E011F04211022652304252026482710280229022E8531103281375538203B043E0A404241104608470449014C404E08BC
:400AC0004F01509056025710848086208B0491019480968897019A089B459D219F10A280A650C0B5C2E9C435CAD9CCFDCEC6D06DD220E008E402E6080201053F093F0D20AB
:400B00001108139419121A011B4929052B4A3001311C33C0350337203A083E013F044035410642044402450C470E481149FF4AFF4BFF4C624DA04EF04F41500C5418560437
:400B4000580459045A045B045C145D115F016640670269106A306B106D106E106F1287018C228E5190449231930298019A0E9B02A301A4E7A8E7AC80B060B280B407B502EB
:400B8000B618B701BB02BE40BF50C063C104C205C401C50EC70CC811C9FFCAFFCBFFCC62CDA0CEF0CF41D00CD804D904DA04DF01E640E702E910EA30EB10ED10EE10EF12C2
:400BC0000080050106800A480F081002111419041A481B881F052040230524022502262227202B402C0830203201362238083D403E144040438846A04720482049104B4032
:400C00004C014E084F08500454045E0263C06520660267028501860287088E208F40914092159402970899219F41A209A40CA502A602C011C24AC407CA21CCA5CE72D0EB2B
:400C4000D23CD680D8B0E08002F304F30518060C09080C410D7F108211041380140F153C16F0174118C31B041C1C1D3C1EE31F422008211024042703280C29672B182CFF4D
:400C800030C03140322C3320340F3580361C371F39023A283B803F0456025711580459045B045F01860188A08C80908392609463968898049A18A4E2A610A848AA80B20480
:400CC000B4F8B603B880BE44C001C704C9FFCA07CBFFCC40CD20CEF0CF05D008D418D604D804DA04DB04DF01E040E1A8E240E320008403400620070A08400A680D010E24FE
:400D000010A01140131014201608180419121A201B481D801E041F042261232029142A023040326033093868394045805404562057105B205D0267456802691470B47202F2
:400D4000731081048340874088448B078F10904091029248930595149602982099049A089B089D10A210A442A740B008B239B301B420C0EDC27FC46FCA07CC0FCE0ED01054
:400D8000D684D8B0E230E8E0338836203704CCF083049F04A620A788E280A620A7888708A620A788E6400640081056105E018610C004C202D402D60100805304860196016C
:400DC000B010B240C002D404EA04EE019708B040EE048C019708E4088780A620A780E6108620A620E640094060018B0490019708C202D602E0010801630288018B01B1405B
:400E0000C208D602E001E604EE04001F081C0A1F0C160E1C10131A111C1300FF040800007F0C00000004030000410400670F18F000F3000C3CC341003C1C42E31082000070
:400E400008FF0000180000F30000000020C0000F402C1F1C2000802800000100630205000100E00C18FFFFFF62A0F0410C00000000000213040404043333000100000000CA
:400E80000000400200103010001010120000000000000000000000000000000080004080800080000000000002000402020002000000000020001020200020000000000092
:400EC00081004281810081000000000000000000000000000000000000000000000000000000000000000000000000000000000000000000000000000000000000000000AC
:400F000000000000000000000000000000000000000000000000000000000000000000000000000000000000000000000000000000000000000000000000000000000000B1
:400F40000000000000000000000000000000000000000000000000000000000000000000000000000000000000000000000000000000000000000000000000000000000071
:400F80000000000000000000000000000000000000000000000000000000000000000000000000000000000000000000000000000000000000000000000000000000000031
:400FC00000000000000000000000000000000000000000000000000000000000000000000000000000000000000000000000000000000000000000000000000000000000F1
:0200000490006A
:0400000000004005B7
:0200000490105A
:04000000BC90ACAF55
:0200000490303A
:02000000099164
:0200000490402A
:4000000000000000000000000000000000000000000000000000000000000000000000000000000000000000000000000000000000000000000000000000000000000000C0
:400040000000000000000000000000000000000000000000000000000000000000000000000000000000000000000000000000000000000000000000000000000000000080
:400080000000000000000000000000000000000000000000000000000000000000000000000000000000000000000000000000000000000000000000000000000000000040
:4000C0000000000000000000000000000000000000000000000000000000000000000000000000000000000000000000000000000000000000000000000000000000000000
:0200000490501A
:0C00000000012E12306900012E2639FA92
:00000001FF