:400000000080002011000000AD3A0000AD3A000008B5044B1A6803F53F5302331A6003F047FD00BFFA46004010B5054C237833B9044B13B10448AFF300800123237010BD62
:40004000D083FF1F0000000068540000084B10B51BB108480849AFF300800848036803B910BD074B002BFBD0BDE81040184700BF0000000068540000D483FF1F0881FF1F35
:400080000000000008B504F01DFE024A13780133137008BD9693FF1F08B504F0CFFA04F0D9F903F03BFF04F031F803F0E3FE04F085FB04F0FDFE08BD08B5124B1878002189
:4000C00004F0C0FA104B1878012104F0BBFA0F4B1878022104F0B6FA0D4B1878032104F0B1FA0C4B1878042104F0ACFA0A4B1878052104F0A7FA094B1878062104F0A2FA5F
:4001000008BD00BFEA8AFF1FD89EFF1F6093FF1FEB8AFF1FD69EFF1FF09EFF1F9493FF1F10B5072004F0F8FA0A4B1870082004F0F3FA094B1870092004F0EEFA074B18707B
:400140000A2004F0E9FA064C20700B2004F0E4FA607010BD7C93FF1FF19EFF1F9593FF1F9093FF1F10B59CB0994A19AB07CA03C31A80984B16AC93E8070003C42280964A48
:4001800013AC07CA03C4228010AC03F10C0207CA03C4227000228DF849200DAC03F1180103C984E80300ADF83C200AAC03F1240207CA03C4228007AC03F1300207CA03C4D1
:4001C000228004AC03F13C0207CA03C4228001AC483393E8070003C42280804B1B78022B7AD10120014602F053FA012019A9002202F008FB4FF4967004F06CF8784B1B78C0
:400200005BB90133DBB2774A82F8023182F80532012016A9002202F0F5FA714B1B78012B0BD10133DBB26F4A82F8023182F80532012013A9002202F0E5FA694B1B78022B74
:400240000BD10133DBB2674A82F8023182F80532012010A9002202F0D5FA614B1B78032B0BD10133DBB25F4A82F8023182F8053201200DA9002202F0C5FA5B4B1B783BB92D
:4002800001200AA9162202F0BDFA0522574B1A70554B1B78012B07D1012007A9162202F0B1FA0622514B1A704F4B1B78022B07D1012004A9162202F0A5FA07224B4B1A70F9
:4002C000494B1B78032B07D1012001A9162202F099FA0822454B1A70404B1B78042B6DD101202E2102F0D4F9012019A9002202F089FA4FF4967003F0EDFF394B1B787BB95E
:400300000133DBB2374A82F8023182F8053282F8083382F80B34012016A9002202F072FA2F4B1B78012B0FD10133DBB22D4A82F8023182F8053282F8083382F80B34012011
:4003400013A9002202F05EFA254B1B78022B0FD10133DBB2234A82F8023182F8053282F8083382F80B34012010A9002202F04AFA1B4B1B78032B0FD10133DBB2194A82F874
:40038000023182F8053282F8083382F80B3401200DA9002202F036FA134B1B78012B04D1012007A9162202F02DFA0F4B1B78022B04D1012004A9162202F024FA074B1B78D2
:4003C000012B03D80120002102F062F91CB010BDD45400006C540000E0540000FC9EFF1FEA8AFF1F4084FF1FF09EFF1F9493FF1F08B5104B1B78022B06D10220012102F0B0
:4004000047F900220C4B1A600A4B1B78042B03D102202E2102F03CF9064B1B78012B03D80220002102F034F902200449002202F0E9F908BDFC9EFF1F3896FF1F0C81FF1F40
:4004400008B501F09FFC2D4B1870002855D02C4B187801F07FFC01F009FF50B90120002102F016F90220002102F012F90022234B1A70234B93F8030101F06CFC01F0F6FE99
:4004800050B90120002102F003F90220002102F0FFF80022194B1A70194B187801F05AFC01F0E4FE48B3164B93F8030101F052FC01F0DCFE08B301F065FC104B1870104B79
:4004C000187801F047FC06280DD10D4B93F8030101F040FC062806D1094B187801F0BEFFFFF7EAFD08BD0120092102F0D1F80220092102F0CDF8FFF7A3FF08BDFC9EFF1FC1
:400500004084FF1F30B587B001AC284D0FCD0FC42B682370002408E006AB2344012013F8141C02F041FC0134E4B2102CF4D901200A2102F039FC01200A2102F035FC012040
:400540000A2102F031FC01200A2102F02DFC01200A2102F029FC01200A2102F025FC002408E006AB2344022013F8141C02F01CFC0134E4B2102CF4D902200A2102F014FC5A
:4005800002200A2102F010FC02200A2102F00CFC02200A2102F008FC02200A2102F004FC02200A2102F000FC07B030BDC054000038B53A4B187801F0CDFB01F057FE90B1F2
:4005C000364B93F8030101F0C5FB01F04FFE38B909E0334AD15C334AD1540133DBB200E00023032BF5D9304B1B78022B0AD12B4D287801F0AFFB2A4C207095F8030101F0C5
:40060000A9FB6070284B1B78042B14D1234D287801F0A0FB224C207095F8030101F09AFB607095F8060201F095FBA07095F8090301F090FBE0701C4B1B780BB9FFF700FF6D
:40064000164B187801F086FB01F010FE70B90120002102F01DF80220002102F019F80023114A1370114A1360114A13600B4B93F8030101F06FFB01F0F9FD70B90120002131
:4006800002F006F80220002102F002F80023064A1370064A1360064A136038BD4084FF1F8893FF1FD88AFF1FFC9EFF1FA893FF1F3896FF1FF0B585B0AF4B1B68122B01F28B
:4006C0005F81DFE813F0130026004800A40065019301110289020A037D0356049D0413059D05F2051507A70712088B08FFF73AFD0122A14B1A6004F067FB04F0C9FA0023FD
:400700009E4A13709E4A82F8613082F8033101F037B903F011FC082841F03281994B1B78DBB2AA2B10D1974B9B79DBB2C32B0BD1944BDB79DBB23C2B06D102228E4B1A603C
:400740000120042101F0A4FF0A2003F0C3FD03F021FC01F015B903F0EFFB082841F01081884B1B78DBB2AA2B4AD1864B9B79DBB2C32B45D1834BDB79DBB23C2B40D1814BD8
:40078000DB78DBB2452B24D004D80D2B07D00E2B10D035E07E2B2CD0942B22D030E00322754B1A600120764B83F86100052101F06FFF25E00A22704B1A600222704B83F814
:4007C000612000226D4B1A700120852101F060FF16E00C22684B1A600120832101F058FF0EE00022644B1A600120014601F050FF06E00022604B1A600120014601F048FFF1
:400800000A2003F067FD03F0C5FB01F0B9B803F093FB082841F0B4805A4B1B78DBB2AA2B40F0A380574B9B79DBB2C32B40F09D80544BDB79DBB23C2B40F09780514BDB7884
:40084000DBB23B2B00F0828004D80F2B0BD0102B25D08AE07E2B00F08180942B6ED0432B40F0838037E00422434B1A60444B022483F86340442283F864200025424B1D7014
:400880000120062101F004FF0120009001954E23029324210322234601F0DCFF65E00422354B1A60364B012483F86340562583F864500026344B1E7020460D2101F0E8FE9F
:4008C000009401964E230293204629460322022301F0C0FF49E02A4B022283F86320462283F86420012306E0254A1A44392182F865100133DBB21A4624490978481E834277
:40090000F2DB1F4B9C18302084F8650084F8660083F86510002307E0194A1A4492F8650082F86F000133DBB28B42F5D90522124B1A600120862101F0ABFE16E000220E4BF9
:400940001A600120014601F0A3FE0EE000220A4B1A600120014601F09BFE06E00022064B1A600120014601F093FE0A2003F0B2FC03F010FB01F004B8A893FF1F9693FF1F5F
:400980005088FF1F009FFF1F9793FF1F9493FF1F0120894B1978002201F0C0FF18B1012815D000F0EDBF0022844B1A600120014601F06EFE00F0E4BF814A1A4492F84B105B
:4009C00082F8651082F86F100133DBB200E000237B4A92F84B209A42EED20522774B1A600120862101F054FE00F0CABF03F0A4FA082840F0C587734B1B78DBB2AA2B6CD1E1
:400A0000704B9B79DBB2C32B67D16E4BDB79DBB23C2B62D16B4BDB787E3B3A2B5DD8DFE803F055351E295C5C5C5C5C5C5C5C5C5C5C5C5C5C5C5C5C5C4D5C5C5C5C5C5C5CD0
:400A40005C5C5C5C5C5C5C5C5C5C5C5C5C5C5C5C5C5C5C5C5C5C5C5C5C5C5C5C41000622564B1A600120584B83F801010B2101F00FFE32E00622514B1A600222524B83F8EB
:400A8000012101200B2101F003FE26E006224B4B1A6003224C4B83F8012101200B2101F0F7FD1AE00622454B1A600422464B83F8012101200B2101F0EBFD0EE000223F4BCC
:400AC0001A600120014601F0E3FD06E00120014601F0DEFD0022394B1A600A2003F0FAFB03F058FA00F04CBF384804F05FF904F02FF903F021FA08284DD1324B1B78DBB2D6
:400B0000AA2B43D12F4B9B79DBB2C32B3ED12D4BDB79DBB23C2B39D12A4BDB78DBB2392B04D07E2B2BD0382B30D10FE00922234B1A600022264B1A70214B012083F800012D
:400B400083F870020A2101F0A3FD1FE01C4B93F803313BB10022194B1A600120014601F097FD13E00721154B19600023144A82F87032184A1370012001F08AFD06E00022B7
:400B80000E4B1A600120014601F082FD0A2003F0A1FB03F0FFF90F4B1B781D2B40F2F0860023064A13600B4A13700120014601F06FFD00F0E5BE00BF9493FF1FA893FF1F96
:400BC0005088FF1F009FFF1F4084FF1F850000009793FF1F9693FF1FAA4804F0E7F804F0B7F8A94C207801F0E9FC014684F8000194F8013198423AD1A44A92F86330207877
:400C0000653203F0030301F04FFB012821D1207801F0A0F8322003F05DFB207840F0100003F0AEFC322003F055FB0824984B1C6004F0CAF804F02CF80022964B1A700120FF
:400C4000214601F025FD01209349122201F0DAFD1DE000218E4B1960012001F019FDC82003F038FB0120014601F012FD0FE00722874B1A60874B1B783B2B08D90023844AF2
:400C80001360844A13700120014601F001FD03F053F908281DD1814B1B78DBB2AA2B15D17E4B9B79DBB2C32B10D17C4BDB79DBB23C2B0BD1794BDB78DBB27E2B06D10120AC
:400CC000014601F0E5FC0022714B1A600A2003F001FB03F05FF900F053BE6B4B187801F039F80638052800F24B86DFE810F006004906490612001B0042000023644A13606A
:400D0000624A82F871320120014601F0C1FC00F037BE5E4B012283F87122002283F8032100F02EBE584B187801F0BCF8574B93F87032012B0DD15A4B1878534B197802F071
:400D4000ABF90022524B1A600120014601F0A0FC09E006224E4B1A6001204C4B83F803010B2101F095FC0022484B83F8712200F007BE454B187801F095F8444B93F87032C6
:400D8000012B0DD1464B18783F4B197802F084F900223F4B1A600120014601F079FC09E006223B4B1A600120384B83F803010B2101F06EFC0022354B83F8712200F0E0BD92
:400DC00001200A21002201F0A9FD18B1012845D000F0D6BD2D4B93F80031013B032B39D8DFE803F00A1D2935284A1A44002182F8DF100133DBB200E000230A2BF4D9002234
:400E0000234B1A600120014601F042FC22E01F4A1A44002182F8EA100133DBB200E000230A2BF4D916E0194A1A44002182F8F5100133DBB200E000230A2BF4D90AE0134AAB
:400E40001A44002182F872120133DBB200E000230A2BF4D903F09EF800F092BD0B4B93F80031013B032B00F28080DFE803F01B43595F064A1A4492F84B1082F8DF100133F9
:400E8000DBB210E0850000004084FF1F5088FF1FA893FF1F9693FF1FB588FF1F009FFF1FF19EFF1F0023AD4A92F84B209A42E0D2AA4B93F803316BB1A94B1878A94B19787D
:400EC00002F0EAF80022A84B1A600120014601F0DFFB4AE00721A44B1960012001F0D8FB43E09E4A1A4492F84B1082F8EA100133DBB200E00023994A92F84B209A42F0D2C1
:400F00000721994B1960012001F0C2FB2DE0934A1A4492F84B1082F8F5100133DBB200E000238E4A92F84B209A42F0D2002307E08A4A1A4492F84B1082F872120133DBB2A2
:400F40000A2BF5D90E22884B1A600022874B1A700523874A13702A21864A11707F4A82F800310120252101F093FB03F013F800F007BD02F0E1FF082840F002857E4B1B783A
:400F8000DBB2AA2B35D17C4B9B79DBB2C32B30D1794BDB79DBB23C2B2BD1774BDB78DBB2B62B04D0B72B10D07E2B22D11AE00B226D4B1A6000226D4B1A700120674B83F8AA
:400FC0007002122101F064FB13E00023634A82F800310721644A1160684A1370012001F057FB06E00120014601F052FB00225E4B1A600A2003F06EF902F0CCFF00F0C0BC30
:401000005F4803F0D3FE03F0A3FE012002F056FC01285BD1332102F093FC40B956E0012002F0F8FC574B18550134E4B200E00124082CF4D90020012405E0524B195D02F0DD
:4010400025FD0134E4B2072CF7D94E4B1B7A83423CD11023414A5370012120E0494A525C02F00F00092804DD3C4C1C443730607003E03A4C1C4430306070013BDBB212098D
:40108000092A04DD354818443732427003E03348184430324270013BDBB20131C9B20829DCD90120132101F0F3FA02F073FF4FF42F7003F00FF90222284B83F8002109222C
:4010C000294B1A6001200E2101F0E2FA2B4B1B783B2B40F255840023234A1360274A13700120014601F0D4FA00F04ABC02F024FF082840F04584204B1B78DBB2AA2B79D16F
:401100001D4B9B79DBB2C32B74D11B4BDB79DBB23C2B6FD1184BDB78DBB2552B36D004D83B2B50D0462B07D064E0942B53D0B52B41D07E2B5ED156E00D220B4B1A60124B91
:401140001B78012B04D101202A2101F0A1FA51E00120232101F09CFA4CE000BF5088FF1FF19EFF1F4084FF1FA893FF1F9793FF1F4E88FF1F7D93FF1F009FFF1F9693FF1F8F
:4011800085000000B89EFF1F7C93FF1F0E22A94B1A600622A84B83F800210022A74B1A700522A74B1A702A22A64B1A700120252101F06EFA1EE00C229E4B1A600120832198
:4011C00001F066FA16E000229A4B1A600120014601F05EFA0EE00022964B1A600120014601F056FA06E00022924B1A600120014601F04EFA0A2003F06DF802F0CBFEBFE383
:4012000002F09AFE082840F0BB838F4B1B78DBB2AA2B44D18C4B9B79DBB2C32B3FD18A4BDB79DBB23C2B3AD1874BDB78DBB2482B17D002D8472B05D031E07E2B20D0942B6E
:4012400026D02CE009227B4B1A6000227B4B1A700422794B83F800210120242101F018FA1DE00922734B1A600022744B1A700422714B83F800210120242101F009FA0EE00F
:401280000120014601F004FA00226A4B1A6006E00120014601F0FCF90022664B1A600A2003F018F802F076FE6AE30120644B1978644B1A7801F032FB10B1012859D05FE310
:4012C0005D4B93F80031013B052B4FD8DFE803F0091A4E4E2F4200215C4AD1540133DBB200E00023042BF6D90022524B1A600120014601F0CDF939E00021554AD1540133D5
:40130000DBB200E000234E4A12789342F4D30022484B1A600120014601F0BAF926E0464A1A44002182F87D120133DBB200E00023434A12789342F2D300223E4B1A6001204B
:40134000014601F0A5F911E00021424AD1540133DBB200E001233F4A12789A42F4D20022344B1A600120014601F092F902F012FE06E3314B93F80031013B052B00F2B580A5
:40138000DFE803F00C35B3B34B77591C2A4A0A4492F84B002D4AD054CBB200E00023042BF3D92A480023037103F08CFF80B22A4B1880C3B2294C2370000A607020780A2108
:4013C00003F040F960780B2103F03CF90F22194B1A6001205A2101F05BF986E0164A1A4492F84B101A4AD1540133DBB200E00023134A12789342F1D30F220E4B1A600120AA
:401400005A2101F045F970E00B4A1A4492F84B1082F87D120133DBB200E00023084A12789342F1D30F22034B1A6001205A2101F02FF95AE0A893FF1F5088FF1F9793FF1F59
:401440004E88FF1F7D93FF1F009FFF1FB09EFF1FE48AFF1FDC8AFF1F249CFF1F9093FF1F904A1A4492F84B108F4AD1540133DBB200E001238C4A12789A42F1D28A4B5A786C
:401480008A4B5B7B9A4221D1874B9A78874B9B7B9A421BD1844BDA78844BDB7B9A4215D1814B1A79814B1B7C9A420FD10120262101F0EEF84FF42F7002F00CFF0F227C4B83
:4014C0001A6001205A2101F0E3F80EE00120272101F0DEF84FF42F7002F0FCFE0022744B1A600120014601F0D3F802F053FD47E202F022FD082840F043826E4B1B78DBB225
:40150000AA2B40F081806B4B9B79DBB2C32B7BD1684BDB79DBB23C2B76D1664BDB78583B3C2B71D8DFE803F052703C707070707070707070703270707070707070707070E1
:401540007070707070707070707070707070617070701F707070707070707070707070707070707069000E22514B1A600023524A1370524A13700522514B1A700120494BF9
:4015800083F80001062101F083F83DE01022484B1A60FEF7B7FF01206B2101F079F833E00E22434B1A600023434A1370434A13700322434B1A700223424A1370394A82F80A
:4015C00000310120062101F063F81DE01222384B1A600022384B1A700422324B83F8002101203E2101F054F80EE00120014601F04FF800222E4B1A6006E00120014601F0EB
:4016000047F800222A4B1A600A2002F063FE02F0C1FCB5E102F090FC082840F0B181254B1B78DBB2AA2B5AD1224B9B79DBB2C32B55D1204BDB79DBB23C2B50D11D4BDB7847
:40164000DBB2392B10D002D8382B05D047E07E2B20D0942B3CD042E01122154B1A600120672101F015F83AE00F22114B1A600124154B1C70154D02232B702046082102F051
:40168000E1FF2878092102F0DDFF20465A2100F0FFFF24E00120014600F0FAFF0022044B1A601CE05088FF1FDC8AFF1F0C81FF1FA893FF1F009FFF1F9793FF1F7D93FF1FF6
:4016C0004E88FF1FE48AFF1FF19EFF1F9593FF1F0120014600F0DCFF0022AA4B1A600A2002F0F8FD02F056FC4AE102F025FC082840F04681A44B1B78DBB2AA2B68D1A24BEF
:401700009B79DBB2C32B63D19F4BDB79DBB23C2B5ED19D4BDB787E3B162B59D8DFE803F049585858585858585858585858580C2035585858585851000F22924B1A60022090
:40174000924B1870924C2070082102F07BFF2078092102F077FF01205A2100F099FF37E00F22884B1A600124884B1C70884D2C702046082102F066FF2878092102F062FF26
:4017800020465A2100F084FF22E00F227D4B1A6000207E4B18707E4C2070082102F052FF2078092102F04EFF01205A2100F070FF0EE00120014600F06BFF0022714B1A6025
:4017C00006E00120014600F063FF00226D4B1A600A2002F07FFD02F0DDFBD1E001F036FB01283CD16B4F7978C1F30011303101240094002601964E2502952046C9B20D2229
:40180000082301F027F8797801F00F01009401960295204630310D22092301F01BF800940196029520463A210D220A2301F012F839780909009401960295204630310D223E
:401840000B2301F007F8397801F00F01009401960295204630310D220C2300F0FBFF01F0C7FA01285DD14C4F3978C1F3011101240094002601964E2502952046303115222E
:40188000082300F0E7FF397801F00F01009401960295204630311522092300F0DBFF00940196029520462F2115220A2300F0D2FF7978C1F3001130310094019602952046E3
:4018C000C9B215220B2300F0C5FF797801F00F010094019602952046303115220C2300F0B9FF00940196029520462F2115220D2300F0B0FFB97809090094019602952046E2
:40190000303115220E2300F0A5FFB97801F00F010094019602952046303115220F2300F099FF02F009FB08282AD1174B1B78DBB2AA2B20D1144B9B79DBB2C32B1BD1124BFE
:40194000DB79DBB23C2B16D10F4BDB78DBB27E2B02D0942B08D00EE000220A4B1A600120014600F095FE06E00022064B1A600120014600F08DFE0A2002F0ACFC02F00AFBB1
:4019800005B0F0BDA893FF1F009FFF1FF19EFF1F9593FF1FF49EFF1F8093FF1F08B5A94B1B68062B00F28B81DFE813F007000D0041009200ED001D015001FEF719FD01223D
:4019C000A04B1A6008BD0220232100F0EDFE02F0ABFB082840F073819B4B1B78DBB2AA2B1FD1994B9B79DBB2C32B1AD1964BDB79DBB23C2B15D1944BDB78DBB23A2B02D062
:401A00007E2B07D00DE002208E4B1860042100F03FFE06E00220012100F03AFE0022894B1A600A2002F056FC02F0ACFB08BD02F07BFB082840F04381834B1B78DBB2AA2B97
:401A400040D1814B9B79DBB2C32B3BD17E4BDB79DBB23C2B36D17C4BDB78DBB2452B1AD004D80D2B07D00E2B0DD02BE07E2B22D0942B18D026E00322724B1A6002200521DD
:401A800000F006FE1EE004226E4B1A600220852100F0FEFD16E005226A4B1A600220832100F0F6FD0EE00022664B1A600220012100F0EEFD06E00022624B1A600220012166
:401AC00000F0E6FD0A2002F005FC02F05BFB08BD02F02AFB082840F0F2805B4B1B78DBB2AA2B4AD1584B9B79DBB2C32B45D1564BDB79DBB23C2B40D1534BDB78DBB23B2B24
:401B00002CD004D80F2B09D0102B0FD035E07E2B2CD0942B1AD0432B2FD10FE00422494B1A600220062100F0B3FD26E00522454B1A6002200D2100F0ABFD1EE00622414BF2
:401B40001A6002200B2100F0A3FD16E000223D4B1A600220012100F09BFD0EE00022394B1A600220012100F093FD06E00022354B1A600220012100F08BFD0A2002F0AAFBD6
:401B800002F000FB08BD02F0CFFA082840F097802D4B1B78DBB2AA2B1FD12B4B9B79DBB2C32B1AD1284BDB79DBB23C2B15D1264BDB78DBB27E2B09D0942B0ED10022214B54
:401BC0001A600220012100F063FD06E000221D4B1A600220012100F05BFD0A2002F07AFB02F0D0FA08BD02F09FFA082867D1164B1B78DBB2AA2B1FD1134B9B79DBB2C32B29
:401C00001AD1114BDB79DBB23C2B15D10E4BDB78DBB27E2B09D0942B0ED10022094B1A600220012100F034FD06E00022054B1A600220012100F02CFD0A2002F04BFB02F0FE
:401C4000A1FA08BD3896FF1F209FFF1F02F06CFA082834D11A4B1B78DBB2AA2B2AD1184B9B79DBB2C32B25D1154BDB79DBB23C2B20D1134BDB78DBB2392B04D07E2B12D0D7
:401C8000382B17D107E002200A2100F001FD07220C4B1A600EE00220862100F0F9FC0822084B1A6006E00220012100F0F1FC0022044B1A600A2002F00DFB02F063FA08BD00
:401CC000209FFF1F3896FF1F38B562B6FEF7E4F9002304E00021194AD1540133DBB2032BF8D90423164A1373164A1370164D00242C702046072102F0A5FC2C70FEF710FA05
:401D0000FEF79EFB0122114B1A700320214602F001FB02F01FFB0E4B1B681BB9FEF748FC02F018FBFEF7C6FC02F014FBFFF736FE02F010FB02F00EFBEBE700BF8893FF1FF6
:401D40000C81FF1FDC8AFF1F7C93FF1F8393FF1FA893FF1F10B5044602F0F0FB204602F00FFC3C2002F0B6FA02F0B4FB38B102F07FFBC0F3071402F0E1FB204610BD002048
:401D800010BD00BF10B5464BFF221A7083F8032183F8062283F80923012454E0204602F0EFFB642002F096FA02F094FB38B13C4B1B78FF2B03D13A4B1C7002F0BFFB02F0DB
:401DC00089FB68B1364B1B78A34209D0344B93F80331FF2B04D1324B83F8034102F0AEFB02F078FB90B12E4B1B78A3420ED02C4B93F80331A34209D0294B93F80632FF2B96
:401E000004D1274B83F8064202F098FB02F062FBB8B1234B1B78A34213D0214B93F80331A3420ED01E4B93F80632A34209D01C4B93F80933FF2B04D1194B83F8094302F070
:401E40007DFB0134E4B2102CA8D9154B1B78FF2B0ED0134A92F80321FF2A09D0104A92F80622FF2A04D00E4A92F80923FF2A0FD1FF2B04D00A4A92F80321FF2A0AD1FF2B0C
:401E80000AD1074B93F80331FF2B07D0012010BD042010BD022010BD012010BD002010BD4084FF1F10B5044602F048FB44F0400002F066FB4FF4967002F00CFA02F04AFA28
:401EC000B64B1B78072B00F0F28002F003FB212840F0ED80B24B1B78DBB2FF2B40F0AE81AF4B9B78DBB2F82B40F0AA81AC4B93F82030DBB2F02B40F0A581AA4B1B78A342E9
:401F00006AD1A74B5B7A03F00F033133A54A82F8FF3001230CE003F10B02A1498A5CA249C91A02F00F02303281F8F1200133DBB2042BF0D904229B4B83F8F1209B4B1B7836
:401F4000DBB2012B06D1974B052283F8F120302283F8F62001230CE003F1100290498A5C9349C91A02F00F02303281F8E3200133DBB2062BF0D906228A4B83F8E32001238A
:401F80000CE003F1170286498A5C8949C91A02F00F02303281F8D5200133DBB2062BF0D97E4B1B78052B11D109E05A1E7D49881890F8D5000B4483F8D500D3B200E0062371
:401FC000012BF2D83022774B83F8D6200622754B83F8D520012010BD714B5B7A03F00F033133704A82F8023201230CE003F10B026B498A5C6C49C91A02F00F02303281F89D
:40200000F4210133DBB2042BF0D90422654B83F8F421664B1B78DBB2012B06D1614B052283F8F421302283F8F92101230CE003F110025B498A5C5E49C91A02F00F023032BF
:4020400081F8E6210133DBB2062BF0D90622554B83F8E62101230CE003F1170250498A5C5349C91A02F00F02303281F8D8210133DBB2062BF0D9494B1B78052B11D109E00C
:402080005A1E4849881890F8D8010B4483F8D801D3B200E00623012BF2D83022414B83F8D92106223F4B83F8D821012010BD3B4B1B78072B40F0C88002F00CFA272840F04E
:4020C000C580374B1B78DBB2FF2B40F0C180344B9B78DBB2F82B40F0BD80314B93F82630DBB2F02B40F0B8802E4B1B78A3424BD12B4B5B7A03F00F0331332A4A82F8FF3064
:4021000001230CE003F10B0225498A5C2849C91A02F00F02303281F8F1200133DBB2062BF0D906221F4B83F8F12001230CE003F112021B498A5C1F49C91A02F00F0230320C
:4021400081F8E3200133DBB2082BF0D90822154B83F8E32001230CE003F11C0210498A5C1449C91A02F00F02303281F8D5200133DBB2072BF0D90B4B302283F8D6200822AB
:4021800083F8D520012010BD054B5B7A03F00F033133044A82F8023201231AE09493FF1F409FFF1F4084FF1F4584FF1F3496FF1F4784FF1F4984FF1F03F10B0227498A5CFB
:4021C0002749C91A02F00F02303281F8F4210133DBB2062BF0D90622224B83F8F42101230CE003F112021D498A5C1F49C91A02F00F02303281F8E6210133DBB2082BF0D968
:402200000822184B83F8E62101230CE003F11C0212498A5C1449C91A02F00F02303281F8D8210133DBB2072BF0D90E4B302283F8D921082283F8D821012010BD002010BDC0
:40224000002010BD002010BD002010BD002010BD002010BD002010BD002010BD409FFF1F4784FF1F4084FF1F4984FF1F30B1002802DB831F062B01D90020704701207047EE
:40228000002104E003F00F030B44D9B201300378FB2BF7D103F00F028818404200F00F0040F0E000704700BFF0B587B005460E46144600230193029303930493ADF81430BE
:4022C000FFF748FD0638C0B201280AD845F0200002F056F9322001F0FDFF02F0C9F8074600E0002702F02AF902F028F945F0D003BB4240F0AA80FF238DF80430E1238DF821
:402300000530012D40F0A380524A92F8633063F00F038DF80630F6238DF80730013E06F00F0666F01F068DF80860F8238DF8093092F86450462D09D006231AE006AA1A44F3
:40234000E92102F8141C0133DBB200E00623424A127806329342F1DB1A4608E006A91144E02001F8140C0133DBB20132D2B20D2AF4D9442D20D120781A460CE0215C06AE18
:40238000164401F00F0161F01F0106F8141C0138C0B20132D2B2217819448A42EEDB134608E006A91144E02001F8140C0133DBB20132D2B20D2AF4D9562D20D120781A46F0
:4023C0000CE0215C06AD154401F00F0161F01F0105F8141C0138C0B20132D2B2217819448A42EEDB134608E006A91144E02001F8140C0133DBB20132D2B20D2AF4D906AA52
:402400001A44FB2102F8141C5D1CEDB201A8FFF737FF06AB2B4403F8140C0135EDB206AB2B44F02203F8142C002407E006AB234413F8140C02F0A4F80134E4B2AC42F5D92B
:40244000322001F047FF012002E0002000E0002007B0F0BD5088FF1F9493FF1FF0B585B000AF0446FFF776FC06280AD144F0200002F086F8322001F02DFF01F0F9FF054666
:4024800000E0002502F05AF844F0D004AC4222D1FF233B71E9237B71FE23BB71EE23FB71E0233B727B72FB23BB72381DFFF7E8FEF872F0233B73002408E007F11003234498
:4024C00013F80C0C02F05CF80134E4B2082CF4D9C82001F0FFFE01F0FDFFC6B2F31D23F00703ADEB030D6D46002404E001F0C0FF28550134E4B2B442F8D902F01FF8AB7AEF
:4025000003F00F03264A13702B7B03F00F03254A1370012B0AD1244A47211170612151706C2191702021D17011715171022B0CD11D4B55221A706B225A7020229A70472292
:40254000DA7061221A716C225A71AB7B03F00F03013B164A13702B7C03F00F03012B01D0042B02D10321124A1170032B00D013B902210F4A1170022B02D101220C4B1A70E9
:40258000AB7C03F00F03013B0A4A13702B7D03F00F03094A137000201437BD46F0BD00BFEA8AFF1FD89EFF1F4096FF1F6093FF1FEB8AFF1FD69EFF1FF09EFF1FF0B585B0A9
:4025C00000AF0446FFF7C6FB0638C0B201280AD844F0200001F0D4FF322001F07BFE01F047FF054600E0002501F0A8FF44F0D004AC422AD1FF233B71E9237B71FE23BB7179
:40260000E023FB71E1223A727B72FB23BB72381DFFF736FEF872F0233B73002408E007F11003234413F80C0C01F0AAFF0134E4B2082CF4D9154B1B7823B14FF42F7001F0F9
:4026400049FE02E0C82001F045FE01F043FFC5B2EB1D23F00703ADEB030D6E46002404E001F006FF30550134E4B2AC42F8D901F065FF337B03F00F03012B03D1B07B00F0BA
:402680000F0000E000201437BD46F0BDEA8AFF1F30B583B005460A4610496B460868496803C3130A8DF802308DF80320002410E0012D06D102AB234413F8080C01F08CFC99
:4026C00005E002AB234413F8080C01F07DFD0134E4B2072CECD903B030BD00BFEC5400002DE9F04387B005468C4616461C469DF83870BDF83CE00DF10408DFF8A89059F822
:40270000080FD9F80410D9F80820D9F80C30A8E80F00B9F81030A8F800307A1C02FB04F303EB43039B001B128DF8063004FB02F404EB4404A3008DF80730C6EBC6035B0096
:402740001B128DF80830C6EBC60673008DF8093020378DF80A709DF84030592B02D185238DF80B304FEA1E238DF80D308DF80EE08DF811C0002410E0012D06D106AB234471
:4027800013F8140C01F028FC05E006AB234413F8140C01F019FD0134E4B2112CECD907B0BDE8F083EC54000070B584B005460E466B46134C54F81C0F6168A26807C3A28987
:4027C0001A808DF807608DF80960002410E0012D06D104AB234413F8100C01F0FDFB05E004AB234413F8100C01F0EEFC0134E4B20D2CECD9642001F06DFD04B070BD00BFE1
:40280000EC540000F0B585B007460E46154600240DE0315D01230093002301934E23029338461F222B19FFF75BFF0134E4B2092CEFD905B0F0BD00BF054B04E0824201D169
:402840005878704702331A78002AF7D1002070472081FF1F2DE9F04387B005468C4616461C469DF83870BDF83CE00DF10408DFF8A89059F82C0FD9F80410D9F80820D9F8C5
:402880000C30A8E80F00B9F81030A8F800307A1C02FB04F303EB43039B001B128DF8063004FB02F404EB4404A3008DF80730C6EBC6035B001B128DF80830C6EBC606730001
:4028C0008DF8093023378DF80A709DF84030592B02D185238DF80B304FEA1E238DF80D308DF80EE08DF811C0002410E0012D06D106AB234413F8140C01F06EFB05E006ABAC
:40290000234413F8140C01F05FFC0134E4B2112CECD907B0BDE8F083EC54000070B584B00D461446012840F00E8101F005FB082840F02B82A74B1B78DBB2AA2B40F0FC805E
:40294000A44B9B79DBB2C32B40F0F680A14BDB79DBB23C2B40F0F0809F4B1B78DBB2013DAB4200F39E809B4BD878FFF765FF0646A0F12003DBB20B2B2AD8974A1378013324
:40298000DBB213701378954A134483F84B008CB9914B1A781B7891490A4492F84B1001200090002201924E22029203220233FFF751FF76E0884B1B78012000900022019201
:4029C0004E220292214603220233FFF743FF68E0A0F12D03DBB2512B2AD87F4A13780133DBB2137013787D4A134483F84B008CB9794B1A781B7879490A4492F84B1001207B
:402A00000090002201924E22029203220233FFF721FF46E0704B1B7801200090002201924E220292214603220233FFF713FF38E02C2836D1684B1B7813F0FF0F31D0684BB8
:402A40001B7813F0FF0F2CD1634A13780133DBB213700121624B19701378604A134483F84B008CB95C4B1A781B785C490A4492F84B1001200090002201924E220292032217
:402A80000233FFF7E7FE0CE0534B1B7801200090002201924E220292214603220233FFF7D9FE4C4BDB78DBB20B2B26D14A4B1B7803F0FF042BB9142001F00CFC01F06AFAC9
:402AC00066E1454C237801200090002201924E220292202103220233FFF7BCFE23783F4A134493F84B302C2B02D100223C4B1A70394A1378013BDBB213700A2E10D1364BDC
:402B00001B7813F0FF0F0BD0334B1A78334B83F84B20142001F0DEFB01F03CFA012437E12C4BDB78DBB2942B06D1142001F0D2FB01F030FA00242BE1142001F0CBFB01F03A
:402B400029FA022424E101F0EFFA082840F01F81244B1B78DBB2AA2B40F01081214B9B79DBB2C32B40F00A811E4BDB79DBB23C2B40F004811C4B1B78DBB2013DAB4200F347
:402B8000B480184BD878FFF757FE0646A0F12003DBB20B2B3BD8144A13780133DBB213701378124A134483F84B000CBB0E4B1A781B780E490A4492F84B1001220092002236
:402BC00001924E220292022003220344FFF742FE8BE000BF009FFF1F9793FF1F5088FF1F3F96FF1F209FFF1FD79EFF1FD890FF1F694B1B7801220092002201924E220292B7
:402C00000220214602460344FFF724FE6DE0A0F12D03DBB2512B2CD85F4A13780133DBB2137013785D4A134483F84B0094B95A4B1A781B7859490A4492F84B1001220092E1
:402C4000002201924E220292022003220344FFF701FE4AE0504B1B7801220092002201924E2202920220214602460344FFF7F2FD3BE02C2839D1484B1B7813F0FF0F34D0A1
:402C8000474B1B7813F0FF0F2FD1434A13780133DBB213700121424B19701378414AD2783E490B4483F84B208CB93B4B1A781B780A4492F84B1001220092002201924E2231
:402CC0000292022003220344FFF7C4FD0DE0324B1B7801220092002201924E2202920220214602460344FFF7B5FD0B2E27D12A4B1B7803F0FF042BB9142001F0EBFA01F0C2
:402D000041FA45E0244C237801220092002201924E2202920220202102460344FFF79AFD23781E4A134493F84B302C2B02D100221B4B1A70184A1378013BDBB213700A2E2E
:402D400010D1154B1B7813F0FF0F0BD0124B1A78124B83F84B20142001F0BCFA01F012FA012415E00F4BDB78DBB2942B06D1142001F0B0FA01F006FA002409E0142001F0AD
:402D8000A9FA01F0FFF9022402E0022400E00224204604B070BD00BFD79EFF1FD890FF1F4C88FF1F209FFF1F10B582B08DF804008DF8051001F032FF0720002101F07AFE78
:402DC00058B1002011E002AB234413F8040C01F0CDFE48B90134E4B200E00024012CF2D901F0A8FE012000E0002002B010BD00BF38B504241DE001F011FF6820002101F063
:402E000059FED0B9204601F0B1FEC0B901F092FE0A2001F05FFA6820012101F04BFE80B9251F01F0CFFE084B585501F083FE0134E4B2062CDFD9012038BD002038BD0020AD
:402E400038BD002038BD00BF8093FF1F38B501241DE001F0E3FE6820002101F02BFED0B9204601F083FEC0B901F064FE0A2001F031FA6820012101F01DFE80B9651E01F0DE
:402E8000A1FE084B585501F055FE0134E4B2022CDFD9012038BD002038BD002038BD002038BD00BFF49EFF1F38B504460E2900F2DA80DFE801F01221303F4ED85D6C7B89B3
:402EC00098A7B6C5D400704B2B44204693F88014FFF76AFF0135ADB200E00025B5F56C7FF1D3C0E0684B2B44204693F83018FFF75BFF0135ADB200E00025B5F56C7FF1D305
:402F0000B1E0614B2B44204693F8E01BFFF74CFF0135ADB200E00025B5F56C7FF1D3A2E0594B2B44204693F8901FFFF73DFF0135ADB200E00025B5F56C7FF1D393E0534B5A
:402F40002B44204693F84812FFF72EFF0135ADB200E00025B5F56C7FF1D384E04B4B2B44204693F8F815FFF71FFF0135ADB200E00025B5F56C7FF1D375E0444B2B4420465A
:402F800093F8A819FFF710FF0135ADB200E00025B5F56C7FF1D366E03C4B2B44204693F8581DFFF701FF0135ADB200E00025B5F56C7FF1D357E0364B2B442046197CFFF72A
:402FC000F3FE0135ADB200E00025B5F56C7FF2D349E02F4B2B44204693F8C013FFF7E4FE0135ADB200E00025B5F56C7FF1D33AE0274B2B44204693F87017FFF7D5FE0135D9
:40300000ADB200E00025B5F56C7FF1D32BE0204B2B44204693F8201BFFF7C6FE0135ADB200E00025B5F56C7FF1D31CE0184B2B44204693F8D01EFFF7B7FE0135ADB200E048
:403040000025B5F56C7FF1D30DE0124B2B44204693F88811FFF7A8FE0135ADB200E00025B5F56C7FF1D320461B21FFF79DFE20464021FFF799FE20460A21FFF795FE2046F9
:403080000A21FFF791FE38BD0C99000004AA0000FCBA0000F4CB000070B504460E46BF4B1B78012B04D1BE4B18780021FFF7FCFE20460A21FFF778FE002506E02046B94B26
:4030C000595DFFF771FE0135EDB21D2DF6D920460A21FFF769FE002508E0B24B2B44204693F82010FFF760FE0135EDB20C2DF4D9FFF77EFE012832D1AB4D2978C1F3011113
:4031000020463031FFF750FE297801F00F0120463031FFF749FE20462F21FFF745FE6978C1F3001130312046C9B2FFF73DFE697801F00F0120463031FFF736FE20462F214D
:40314000FFF732FEA978090920463031FFF72CFEA97801F00F0120463031FFF725FE20460A21FFF721FE002508E08E4B2B44204693F83010FFF718FE0135EDB20C2DF4D9FA
:40318000FFF764FE012820D1884D6978C1F3001130312046C9B2FFF707FE697801F00F0120463031FFF700FE20463A21FFF7FCFD2978090920463031FFF7F6FD297801F0A3
:4031C0000F0120463031FFF7EFFD20460A21FFF7EBFD002506E02046724B595DFFF7E4FD0135EDB21D2DF6D920460A21FFF7DCFD002508E06B4B2B44204693F84010FFF735
:40320000D3FD0135EDB20C2DF4D9694DA5FB0635ED08204605F13001FFF7C6FD05EB85056D00751B05F130012046C9B2FFF7BCFD20460A21FFF7B8FD002508E0594B2B448D
:40324000204693F85010FFF7AFFD0135EDB20C2DF4D920460A21FFF7A7FD564B1B78B34240F0068309E04F4B2B44204693F86010FFF79AFD0135EDB200E000250C2DF2D9B5
:4032800020460A21FFF790FD002508E0454B2B44204693F87010FFF787FD0135EDB20C2DF4D9012508E0434B2B44204693F8F110FFF77AFD0135EDB23E4B93F8F130AB42C7
:4032C000F1D220462021FFF76FFD2046354B93F88010FFF769FD20462F21FFF765FD002506E02046344B595DFFF75EFD0135EDB2042DF6D920460A21FFF756FD002508E0E4
:40330000284B2B44204693F88410FFF74DFD0135EDB20C2DF4D9274B93F8E430302B03D10022244B83F8E420224B93F8E43043B9204B93F8E530302B03D100221D4B83F874
:40334000E520012510E01B4B2B44204693F8E310FFF72AFD194B1B789D4203D120462E21FFF722FD0135EDB2124B93F8E330AB42E9D220462021FFF717FD002506E020464E
:403380000D4B595DFFF710FD0135EDB2042DF6D920460A21FFF708FD00251AE08393FF1FF19EFF1F7481FF1F8093FF1FF49EFF1FCDCCCCCC4084FF1F4096FF1FEB8AFF1F0D
:4033C000BE4B2B44204693F89410FFF7EDFC0135EDB20C2DF4D9BA4B93F8D630302B03D10022B74B83F8D620B54B93F8D63043B9B34B93F8D730302B03D10022B04B83F8C8
:40340000D720012510E0AE4B2B44204693F8D510FFF7CAFCAB4B1B789D4203D120462E21FFF7C2FC0135EDB2A54B93F8D530AB42E9D220462021FFF7B7FC20469F4B93F8B8
:403440008010FFF7B1FC20460A21FFF7ADFC9E4B93F86130012B42D109E0984B2B44204693F8A410FFF7A0FC0135EDB200E000250C2DF2D9012508E0934B2B44204693F809
:40348000DF10FFF791FC0135EDB28F4B93F8DF30AB42F1D220460A21FFF786FC002508E0864B2B44204693F8B410FFF77DFC0135EDB20C2DF4D9012508E0834B2B4420469B
:4034C00093F86510FFF770FC0135EDB27E4B93F86530AB42F1D220460A21FFF765FC002506E02046754B595DFFF75EFC0135EDB21D2DF6D920460A21FFF756FC724B93F8CE
:403500006130022B40F0B48109E06C4B2B44204693F8C410FFF748FC0135EDB200E000250C2DF2D9012508E0674B2B44204693F8EA10FFF739FC0135EDB2634B93F8EA300F
:40354000AB42F1D220460A21FFF72EFC002508E05A4B2B44204693F8D410FFF725FC0135EDB20C2DF4D9012507E0574B2B4420465978FFF719FC0135EDB2534B5B78AB426F
:40358000F3D220460A21FFF70FFC002508E04B4B2B44204693F8A410FFF706FC0135EDB20C2DF4D9012508E0474B2B44204693F8F510FFF7F9FB0135EDB2434B93F8F53028
:4035C000AB42F1D220460A21FFF7EEFB002508E03A4B2B44204693F8E410FFF7E5FB0135EDB20C2DF4D9012301E00133DBB2364A92F8F5209A42F8D220460A21FFF7D4FB33
:40360000002508E02D4B2B44204693F8F410FFF7CBFB0135EDB20C2DF4D9012301E00133DBB2294A92F8F5209A42F8D220460A21FFF7BAFB002508E0204B2B44204693F878
:403640000411FFF7B1FB0135EDB20C2DF4D9012301E00133DBB21C4A92F8F5209A42F8D220460A21FFF7A0FB002508E0134B2B44204693F81411FFF797FB0135EDB20C2D9F
:40368000F4D9012301E00133DBB20F4A92F8F5209A42F8D220460A21FFF786FB002508E0064B2B44204693F82411FFF77DFB0135EDB20C2DF4D901230AE000BF7481FF1FB5
:4036C0004084FF1F6093FF1F5088FF1F0133DBB2784A92F8F5209A42F8D220460A21FFF763FB002508E0744B2B44204693F83411FFF75AFB0135EDB20C2DF4D9012301E098
:403700000133DBB26B4A92F8F5209A42F8D220460A21FFF749FB002508E0674B2B44204693F84411FFF740FB0135EDB20C2DF4D9012301E00133DBB25E4A92F8F5209A429A
:40374000F8D220460A21FFF72FFB002508E05A4B2B44204693F85411FFF726FB0135EDB20C2DF4D9012301E00133DBB2514A92F8F5209A42F8D220460A21FFF715FB002503
:4037800008E04D4B2B44204693F86411FFF70CFB0135EDB20C2DF4D9012301E00133DBB2444A92F8F5209A42F8D220460A21FFF7FBFA002508E0404B2B44204693F874114A
:4037C000FFF7F2FA0135EDB20C2DF4D9012301E00133DBB2374A92F8F5209A42F8D220460A21FFF7E1FA20460A21FFF7DDFA002508E0314B2B44204693F88411FFF7D4FA7E
:403800000135EDB20C2DF4D920460A21FFF7CCFA20460A21FFF7C8FA20460A21FFF7C4FA002508E0244B2B44204693F89411FFF7BBFA0135EDB20C2DF4D920460A21FFF744
:40384000B3FA20460A21FFF7AFFA20460A21FFF7ABFA002506E02046174B595DFFF7A4FA0135EDB21D2DF6D920460A21FFF79CFA20460A21FFF798FA20460A21FFF794FAE9
:4038800020460A21FFF790FA20460A21FFF78CFA20460A21FFF788FA20461D21FFF784FA20465621FFF780FA20463121FFF77CFA70BD00BF5088FF1F7481FF1F10B5012875
:4038C0001CD1002001F08AFA4FF4FA7000F018FD012001F083FA052000F012FD01F08AFA034658B3412000F00BFD01F083FA0446F02000F005FDF4B901231FE0002001F024
:4039000081FA4FF4FA7000F0FBFC012001F07AFA052000F0F5FC01F081FA034670B1412000F0EEFC01F07AFA0446F02000F0E8FC1CB9012302E0002300E00023184610BD1C
:4039400038B50D4601282DD000245AE0002001F045FA0A2000F0D4FC45FA04F313F0010F0AD0012001F03AFA0A2000F0C9FC01F041FA034650B94BE0002001F02FFA0A20F4
:4039800000F0BEFC01F036FA00283ED1322000F0B7FC012001F022FA322000F0B1FC0134E4B200E00024072CD0D9012330E0002001F028FA0A2000F0A3FC45FA04F313F0EF
:4039C000010F0AD0012001F01DFA0A2000F098FC01F024FA034648B91AE0002001F012FA0A2000F08DFC01F019FA80B9322000F087FC012001F006FA322000F081FC0134EB
:403A0000E4B2072CD3D9012302E0002300E00023184638BD38B5012819D000252C4631E0002001F0DBF90E2000F06AFC012001F0D5F9072000F064FC01F0DCF9A04005433D
:403A4000EDB2642000F05CFC0134E4B201E000252C46072CE4D917E0002001F0D3F90E2000F04EFC012001F0CDF9072000F048FC01F0D4F9A0400543EDB2642000F040FC04
:403A80000134E4B2072CE7D9284638BD4840002308E010F0010F03D0400880F08C0000E040080133072BF4D9704700BFFEE700BF08B5104E104D16E029686B68AC680022AE
:403AC00004E051F8040B43F8040B0432A242F8D1E868002203E0002143F8041B04328242F9D11035013E002EE6D101F0EFFBFEF7EBF8FEE70100000030DA000008B5124AA4
:403B0000124B1A60124A136843F40073136000230AE0032B03D80F4A52F8231000E00E490E4A42F8231001332F2BF2D90C4B1A780C4B1A70094A0C4B1A6000F0CFF80022B2
:403B40000A4B1A6008BD00BF0004FA050CED00E014ED00E000000000AD3A00000080FF1FBC7600400481FF1F08ED00E00081FF1FFEE700BFF0B40022174611E050F82760A0
:403B8000F3B226F0FF0608E001EB420511F812406D78A5550132013BDBB2002BF4D10137282FEBD9F0BC7047064B1B78DBB203F00701054A11701B09013213704422034B84
:403BC0001A707047CF0100496E5800407658004008B50A46002101F0AAFB08BD38B53322304B1A80182330490B7002310A802F4A13704FF49C7204310A8002310B7002319E
:403C00000A802B4A13704FF40271023211800232137045F6BF5102321180023213700222244B1A7008224FF040231A70032103F500731970204B1B78DBB220490B70204BA4
:403C40001A8041F25122023B1A80002419250CE01C4B1B7803F0010343EA440404F003044FF4F07000F024FB013D0DB1032CEFD115B90320FFF77CFF134B4FF480721A8052
:403C800007221A70002211490A704820023108701A700222033B1A700D4A137843F03F03137038BD8040004082400040864000408E4000400043004008010049A1460040F1
:403CC00022420040254200400440004006400040A243004008B501F01FFB08BD70B572B63A4A137843F00403137000240CE0384963001A1952000A4423445B00C8589188E2
:403D0000FFF766FF0134E4B20C2CF0D9002410E02F49A3001A1952000A4452F8500F23445B000B445168B3F85820FFF7D3FF0134E4B2032CECD94FF090402649FFF71AFFB0
:403D4000254A137843F0020313701032137843F002031370214C237843F040032370A2F58632513A137843F0100313701C481D490A22FFF7AFFF1C481C490A22FFF7AAFF99
:403D80001B481C490A22FFF7A5FF1B481B490A22FFF7A0FF1A481B490A22FFF79BFF1A4A137843F008031370184E01253570FFF715FF81233370164B1D70FFF7F5FE154805
:403DC00021460E22FFF786FF70BD00BFE846004090D80000A400004803500140A0430040C05100402810004810510040341000482051004040100048505100404C10004880
:403E00006051004058100048224300400048004004000840B04300407222074B1A7020220D3B1A7006225C3B1A70472210331A7000224F331A7070478F64004010B500F065
:403E40003FFA04460A4A137843F0200313700D3A137843F0100313700332137843F01003137000F0A9FA204600F02EFA10BD00BF9F64004008B5054B1B7823B9FFF7CCFFC6
:403E80000122024B1A70FFF7D9FF08BDEC83FF1F08B500200C4900F063FA0020072100F073FA0023094A13707221094A11702021A2F58072117006219A32117047211032FB
:403EC00011705332137008BDF13F0000EE83FF1F8A65004010B500F0F3F904460C4A137843F020031370A2F58072137843F0100313700122074B1A60074A137843F01003F3
:403F0000137000F0B7F9204600F0DEF910BD00BF9A65004000E100E09765004008B5054B5B7823B9FFF7B4FF0122024B5A70FFF7D1FF08BDEE83FF1F0122134B1A60134A58
:403F40009378D278DBB2934206D1104B1B7913F0FF0F14D0202013E00C4A9378D278DBB2934205D2094AD3789078181AC0B207E0064AD3789078181A2030C0B200E00020F0
:403F80000122034B1A60704780E100E0EE83FF1F00E100E008B500F093F90B4B1A7842F001021A701A7802F0FE021A7000F08CF90121064B1960064B00229A70DA701A712D
:403FC0005A71044B196008BD9A65004080E100E0EE83FF1F00E100E0034B1B7813F0040FFAD1024B1870704767650040476500401C4B1B78DBB213F01E0F05D01A4803F072
:404000001E0201780A43027003F0200303F0FF022BB3164B1978C9B2154B1B78DBB21548C154154B1B7813F0FF0F02D00121134B19700F490B780133DBB20B700B78DBB2DB
:404040001F2B02D900210A4B1970094B1B780C490978DBB28B4202D10121074B1970002AC6D170476A640040EE83FF1F4A650040F183FF1F009FFF1FF283FF1FF383FF1FBB
:40408000F083FF1F08B501200C4900F069F90120072100F079F90023094A13707221094A11702021013A11700621623A11704721103211704F32137008BD00BFE1410000C9
:4040C000F583FF1F8965004010B500F0F9F804460B4A137843F020031370013A137843F0100313700222074B1A60074A137843F01003137000F0CCF8204600F0E5F810BD7B
:404100009965004000E100E09565004008B5054B5B7823B9FFF7B6FF0122024B5A70FFF7D3FF08BDF583FF1F0222134B1A60134A9378D278DBB2934206D1104B1B7913F0A9
:40414000FF0F14D0202013E00C4A9378D278DBB2934205D2094AD3789078181AC0B207E0064AD3789078181A2030C0B200E000200222034B1A60704780E100E0F583FF1FF4
:4041800000E100E008B500F09BF80B4B1A7842F001021A701A7802F0FE021A7000F094F80221064B1960064B00229A70DA701A715A71044B196008BD9965004080E100E0B7
:4041C000F583FF1F00E100E0034B1B7813F0040FFAD1024B1870704765650040456500401C4B1B78DBB213F01E0F05D01A4803F01E0201780A43027003F0200303F0FF02E3
:404200002BB3164B1978C9B2154B1B78DBB21548C154154B1B7813F0FF0F02D00121134B19700F490B780133DBB20B700B78DBB21F2B02D900210A4B1970094B1B780C49DB
:404240000978DBB28B4202D10121074B1970002AC6D1704768650040F583FF1F49650040F883FF1F209FFF1FF983FF1FFA83FF1FF783FF1F054A137843F002031370103270
:40428000137843F002031370704700BFA2430040054A137843F0010313701032137843F001031370704700BFA2430040000000000230800803D000BF01380046FCD1704718
:4042C000EFF3108072B6704780F31088704700BF01BE704710B5044605E0084B1868FFF7E7FFA4F50044B4F5004FF6D8034B586800FB04F0FFF7DCFF10BD00BF5883FF1FDD
:4043000008B5034B1B7A03FB00F0FFF7D1FF08BD5883FF1F0E4B1A7802F0FC0200F00300104318701A7842F080021A701A7802F07F021A7049011A7801F0600102F09F02A2
:40434000114319701A7842F010021A70704700BF834300400122014B1A7070478443004070B504460E46074B1D681F2802D90020FFF7AEFF04F01F04103455F8240045F845
:40438000246070BD08ED00E038B504460D46072902D90020FFF79CFF1F2C02D90020FFF797FF04F01F0000F1604000F564406D01EDB2057038BD00BF054A137843F00403D8
:4043C00013701032137843F004031370704700BFA243004008B502200C49FFF7C1FF02200721FFF7D1FF0023094A13707221094A11702021093A11700621603A117047210C
:40440000103211705232137008BD00BF99450000FC83FF1F8D64004008B5FFF751FF0A4A137843F020031370093A137843F0100313700422054B1A60054A137843F0100320
:404440001370FFF741FF08BD9D64004000E100E09664004008B5054B5B7823B9FFF7BAFF0122024B5A70FFF7D7FF08BDFC83FF1F0422134B1A60134A53889BB2918889B2D8
:40448000927912F0FF0F01D18B4211D00E4AD05CC0B201339BB2FF2B00D90023094A5380937913F0FF0F06D00022064B9A7102E0064B1878C0B20422054B1A60704700BF92
:4044C00080E100E0FC83FF1F409FFF1F4964004000E100E00422164B1A60164B5A8892B29B889BB29A4207D1124B9B7913F0FF0F19D04FF4807017E00E4B5A8892B29B8850
:404500009BB29A4205D20B4A93885088181A80B20AE0084A908883B2508880B2181A00F5807080B200E000200422034B1A60704780E100E0FC83FF1F00E100E008B5FFF7FC
:40454000BFFE0B4B1A7842F001021A701A7802F0FE021A70FFF7B8FE0421064B1960064B00225A809A809A71DA71044B196008BD9964004080E100E0FC83FF1F00E100E008
:40458000034B1B7813F0040FFAD1024B1870704766640040426400401D4B1B78DBB213F01E0F05D01B4803F01E0201780A43027003F0200303F0FF0233B3174B1978C9B224
:4045C000164B1B889BB21648C154164B1B7813F0FF0F02D00121144B197010490B8801339BB20B800B889BB2FF2B02D900210B4B19800A4B198889B20C4B1B889BB29942D6
:4046000002D10121074B1970002AC5D1704700BF64640040FC83FF1F496400400084FF1F409FFF1F0284FF1F0384FF1FFE83FF1F08B500F0FBFC00F003FD08BD08B5FFF74F
:40464000F7FF08BD30B583B00C468DF8070000F037FDB4F5006F54D22509C5EB053319010C44A4B200F0D8FD00284CD1402021460DF10702012300F04FFD044607282FD1A0
:40468000234B1B7813F0020FFAD0214B1B7813F0020F06D01E4B1B789B0805D04FF0FF3403E04FF0FF3400E00024E4B9194B402029461A785B7800F06BFD072816D1144BF1
:4046C0001B7813F0020FFAD0114B1B7813F0020F0FD00F4B1B789B0810D04FF0FF340DE0012809D10AE04FF0FF3407E04FF0FF3404E04FF0FF3401E04FF0FF3400F0B2FD98
:4047000002E0012400E00424204603B030BD00BF2247004058A1FF1F38B50446FFF7D0FD054600F0B7FC04F1804000F500400478E4B200F0BDFC2846FFF7C6FD204638BDD6
:4047400010B50222104B1A7081220E3B1A700F2413331C70002201331A704FF400420B4B1A6020460721FFF70FFE20460849FFF7F7FD1022074B1A7000F058FA00F064FAEB
:4047800000F04CFA10BD00BFD649004080E100E0E547000040A0FF1F08B5FFF791FD064A137843F0040313701032137843F004031370FFF789FD08BDA543004008B5074B92
:4047C0001B7823B9FFF7BCFF0122044B1A70FFF7E3FF4FF40042024B1A6008BD0684FF1F00E100E038B5A54B1C78E4B2A44B1B7813F0400F00F0398114F0010F00F01D8124
:404800009F4B1B78453B052B00F21481DFE813F006008200120112010600E00004F0DF0504F00A04082C42D1954B1B78DBB2452B35D1944B1B7813F0FF0F10D0924B1B680C
:404840001B78DBB2914A137004228C4B1A7001228F4B1A7046228A4B1A702C46EDE08D4B1B7813F0020F0DD08B4A137843F00A0313706022824B1A704FF40042874B1A607D
:404880002C46DAE0864A137843F0100313701022844B1A700422023B1A702C46CDE00022764B1A704A22764B1A702C46C5E00A2C2BD1794A137843F0A0031370754B1B78AA
:4048C00013F0020F14D06E4B1B7813F0080F01D0092300E00A23704A11780B4313706022674B1A704FF400426C4B1A602C46A4E06B4A137843F0100313701022694B1A7059
:404900000422023B1A702C4697E00020FFF7E0FC2C4692E014F0020F37D15D4B1B78594A1278DBB2934210D2594A1378DBB256490968CB5CDBB255490B7004214F4B197022
:4049400013780133DBB2137077E0524B1B7813F0020F0CD0504A137843F00A0313706022474B1A704FF400424C4B1A6065E000F079F94B4A137843F0100313701022494B7F
:404980001A700422023B1A7057E0424B1B7813F0020F0CD0404A137843F09A0313706022374B1A704FF400423C4B1A6045E03C4A137843F01003137010223A4B1A70042257
:4049C000023B1A70344A137843F09003137034E0354A1378DBB2354908682C490978C9B2C15413780133DBB213701378304A1278DBB2934203D21022204B1A701DE0254B56
:404A00001B7813F0020F0CD0234A137843F00903137060221A4B1A704FF400421F4B1A600BE01F4A137843F0100313700022134B1A7002E00020FFF74BFC14F0200F1CD04F
:404A40000F4B1B7813F0080F01D0012300E00223114A11780B431370114A137803F0EF0313701022064B1A7038BD054B1B7813F0100F02D11022024B1A7038BDD7490040FA
:404A800040A0FF1F44A0FF1F50A0FF1FD84900404DA0FF1F45A0FF1F4CA0FF1F80E100E0D6490040D949004054A0FF1F48A0FF1F46A0FF1F1A4B1B78DBB2102B29D1194B33
:404AC0001B7813F0080F26D14FF40042164B1A604000C0B229B140F001004922104B1A7002E045220E4B1A70104B1870012201331A700F4B1B7813F0010FFAD00C4B1B7801
:404B000003F00A030A2B08D11022054B1A700320704702207047012070470020704700BF40A0FF1FD949004080E100E0D8490040D74900400A4B1B7813F0040F0ED01023C9
:404B4000074A13700421023A1170064A1370064B1B7813F0210FFAD00020704702207047D949004040A0FF1FD7490040114B1B7813F0040F1BD0104B18700422013B1A709C
:404B800046220E4B1A700E4B1B7813F0010FFAD00B4B1B7813F0020F04D16022074B1A70002070476022054B1A70032070470220704700BFD9490040D849004040A0FF1F4B
:404BC000D7490040114B1B7813F0040F1BD0104B1B78DBB2492B05D14A220D4B1A7000220C4B1A700B4B1B7813F0010FFAD00A4B1B78DBB218B11021064A117004E06021E4
:404C0000034A117000E0002318467047D949004040A0FF1FD7490040D8490040024B187800221A70704700BF4CA0FF1F0022044B1A70044A137803F0FE031370704700BFA3
:404C400054A0FF1F4CA0FF1F0022044B1A70044A137803F0FD031370704700BF4DA0FF1F4CA0FF1F704700BF084A137843F0020313701032137843F00203137002F659322A
:404C8000137843F001031370704700BFA3430040084A137803F0FE031370A2F66932137803F0FD0313701032137803F0FD031370704700BF0C4F0040014B1870704700BFED
:404CC0000F4F0040014B1878704700BF0F4F0040014B1880704700BF104F0040014B1880704700BF124F004008B5164A137803F0010313700232137803F0FC031370124B7F
:404D00001A7802F0CF021A701A7842F030021A701A7802F0F0021A701A7842F00F021A700A4A137843F00103137040F21F30FFF7CFFF40F21F30FFF7D1FF0820FFF7BCFFB7
:404D400008BD00BF0C4F0040174F00400D4F004008B5054B1B7823B9FFF7C6FF0122024B1A70FFF781FF08BD0784FF1F024B1B68C3F88800704700BF08ED00E04001C0B2AC
:404D8000014B1870704700BF12E400E04FF48022014B1A60704700BF00E100E04FF48022014B1A60704700BF80E100E010B50446FFF7F4FF2046FFF7D9FF0720FFF7DEFF69
:404DC000FFF7E4FF10BD00BF08B5FFF7E7FF0248FFF7CCFF08BD00BFAD3A0000044A137803F0BF03800100F0400018431070704750510040024B1878C0F38010704700BFF7
:404E000051510040044A137803F07F03C001C0B203431370704700BF50510040014B1878C00970475151004008B503200C49FFF797FA03200721FFF7A7FA0023094A13701A
:404E40007221094A11702021083A117006215B3A11704721103211704F32137008BD00BFCD4E00000884FF1F8B64004010B5FFF727FA04460B4A137843F020031370083AC2
:404E8000137843F0100313700822074B1A60074A137843F01003137000F064F82046FFF713FA10BD9B64004000E100E09764004008B5054B5B7823B9FFF7B6FF0122024B6F
:404EC0005A70FFF7D3FF08BD0884FF1F1D4B1B78DBB213F01E0F05D01B4803F01E0201780A43027003F0200303F0FF0233B3174B1978C9B2164B1B889BB21648C154164BF3
:404F00001B7813F0FF0F02D00121144B197010490B8801339BB20B800B889BB2FF2B02D900210B4B19800A4B198889B20C4B1B889BB2994202D10121074B1970002AC5D121
:404F4000704700BF636400400884FF1F4C6400400C84FF1F58A0FF1F0E84FF1F0F84FF1F0A84FF1F054A137843F0080313701032137843F008031370704700BFA243004085
:404F800010B500F09DF800F047F9D0B900F086F90446072812D102E00120FFF7B1F90A4B1B7813F0020FF7D0074B1B7813F0020F04D0054B1B789B0800D1002400F052F93A
:404FC00000E00424204610BD2247004010B500F077F800F021F910BB012000F0FFF8072818D11048022100F07DF802280AD102E00120FFF785F90C4B1B7813F0020FF7D093
:40500000002409E0084B1B7813F0020FE9D04FF0FF3401E04FF0FF3400F024F900E00424204610BD58A1FF1F2247004008B5FFF7A7FF034610B9FFF7C9FF0346184608BD4E
:4050400008B5FFF73DF90F4A137843F0080313701032137843F008031370C8220A4B1A700A4A137843F0100313701032137843F010031370064B1B7813F0200FFAD0FFF737
:4050800023F908BDA043004001470040AC43004000470040054A137843F001031370034B1B7813F0020FFAD0704700BF02470040024A137803F0FE031370704702470040CE
:4050C00008B5FFF7FDF8064A137843F0080313701032137843F008031370FFF7F5F808BDA043004070B506460D4600240CE00120FFF706F9064B1B7813F0010FF7D0054B1B
:405100001B7833550134E4B2AC42F3D3204670BD224700402047004030B43E2801D81F2B03D93F2827D90F2B27D8174C247814F0020F24D0154CB6252570D425257001257C
:4051400025700234247814F0020F1AD10F4C2070C1F300202070C9B22170591EC9B22170002104E0545C094804700131C9B29942F8D3072006E0012004E0012002E00420E4
:4051800000E0092030BC7047224700402047004030B4104C247814F0020F15D00E4CB6252570D8252570052525700234247814F0020F0BD1084C2070080A2070C9B22170AD
:4051C00022702370072002E0042000E0092030BC704700BF22470040204700400C4B1B7813F0020F0FD00B4BB6221A70E1221A700E221A7002331B7813F0020F05D1054BC4
:40520000187007207047042070470920704700BF224700402047004010B5FFF751F80F4B1B78A3B901220D4B1A700D4B1B6813F0010F0ED00A4A136823F00103136000BF08
:4052400000BF00BF0122054B5A60002402E0042400E00024FFF738F8204610BD1484FF1F0400084008B5FFF72BF80A4B00221A705B68012B0AD1084A136843F001031360DE
:4052800000BF00BF00BF0022024B5A60FFF71CF808BD00BF1484FF1F04000840074B1B7813F0020F08D0064BB6221A70E0221A700D221A70072070470420704722470040CD
:4052C0002047004000210A2200F0C0B80E4B70B51E460E4C0025E41AA410A54204D056F8253098470135F8E708F090FB084B094C1E46E41AA4100025A54204D056F8253029
:4053000098470135F8E770BD18DA000018DA000018DA000020DA000010B5431E0A44914204D011F8014B03F8014FF8E710BD03460244934202D003F8011BFAE77047000030
:405340002DE9F0470F46404CD4F800903D4615F801EB09EB0E04667806F0080404F0FF060CB12F46F2E774462D2C03D1BD1C7C78012603E02B2C04BF7C78BD1C13B1102B99
:405380000AD15AE0302C56D12C7804F0DF04582C4CD16C7810230235002E14BF4FF000486FF00048B8FBF3FA0027BE4603FB1A8809EB040C9CF801C01CF0040F01D0303C9C
:4053C0000BE01CF0030C1BD0BCF1010F0CBF4FF0370C4FF0570CCCEB04049C4210DAB7F1FF3F0AD0D64506D801D1444503DC03FB0E4E012701E04FF0FF3715F8014BD7E7A7
:405400007C1C73460AD1002E4FF0220114BF4FF000436FF0004301602AB911E00EB1CEF100036AB107B1691E116009E03024002BB2D10823B0E70A23AEE7302CACD1A3E766
:405440001846BDE8F08700BFCC83FF1F30B505460C461346034A294610682246BDE83040FFF76EBFC883FF1F00000000532F442F4475706C612000005365787475706C610D
:40548000000000004F637475706C610000000000352D352D3420202020200000362D362D3420202020200000372D372D3520202020200000382D372D3520202020200000A7
:4054C0005465737420646520496D70726573696F6E000000496E696369616E646F000000517561647275706C61000000AA700000CC33C33CAA980000013922C5030000FF93
:40550000FF00CC33C33C0000AA5C0020002000300030CC33C33C0000AA980000013923C5020000FFFF00CC33C33C00001D4C33001B2A00AA000000000000000000000000DD
:4055400000000000000000000000000000000000000000000000000000000000000000000000000000000000000000000000000000000000000103070F1F1F1E3E3C3C3CC3
:405580003C3C3C3C3C3C3C3C3C3C3C3C3C3C3C3F3F3F3F3F00000000000000000000000000000000000000000000000000000000000000000000000000000000000000002C
:4055C00000000000000000000000000000000000000000000000000000000000000000000000000000000000011D4C33001B2A00AA0000000000000000000000000000001F
:4056000000000000000000000000000000000000000000000000000000001F1F1F1F1F1F1F1F1F1F1F1F1F1F0F0701000000000000FFFFFFFFFF8000000000000000000026
:40564000000000000000000000000000FFFFFFFFFC000000000000000000000000000000000000000000000000000000000000000000000000000000000000000000000032
:4056800000000000000000000000000000000000000000000000000000000000000000000000000000011D4C33001B2A00AA0000000000000000000000000000000000005E
:4056C00000000000000000000000000000000000000000000000C0E0F0F0F8F8F8F8F8F8F8F8F8F8F8F8F0000000000000FEFEFEFEFE0E0E0E0E0E0E0E0E0E0E0E0E0E0EE0
:405700000E0E0E0E1E3E7CFCF8F0E0800000000000000000000000000000000000000000000000000000000000000000000000000000000000000000000000000000000015
:4057400000000000000000000000000000000000000000000000000000000000000000000000011D4C33001B2A00AA0000000000000000000000000000000000000000009D
:4057800000000000000000000000000000000000000000000000010307070707070707070707070707070707070707000000000000003F3F3F38383838383838383838383B
:4057C0003838381C1E1F0F03000000000000000000000000000000000000000000000000000000000000000000000000000000000000000000000000000000000000000096
:4058000000000000000000000000000000000000000000000000000000000000000000011D4C33001B2A00AA000000000000000000000000000000000000000000000000DC
:40584000000000000000000000000000000000007FFFFFFFFFFFFFFFFFFFFFFFFFFFFFFFFFFFFFFFFFFFFC00000000000000F0FCFE1F0F070303030303030303030303037F
:4058800003FFFFFFFF0000000000000000000000000000000000000000000000000000000000000000000000000000000000000000000000000000000000000000000000E9
:4058C00000000000000000000000000000000000000000000000000000000000011D4C33001B2A00AA0000000000000000000000000000000000000000000000000000001C
:405900000000000000000000000000000000E0E0E0E0E0E0E0E0E0E0E0E0E0E0E0E0E0E0E0C080000000000000000000000000000000808080808080808080808080808087
:405940008080000000000000000000000000000000000000000000000000000000000000000000000000000000000000000000000000000000000000000000000000000027
:4059800000000000000000000000000000000000000000000000000000011D4C33001B2A00AA0000000000000000000000000000000000000000000F0F0F0C0C0C0C0C0CE6
:4059C0000C0C0F0F0F06000F0F0F00000103070E0E0C0C0C0C0C0C0C0F0F0F000001070F0F0E0C0C0E0F0F0E0C0C0C0F0F0F00000103070E0C0C0C0C0C0C0C0C0F0F0F000A
:405A00000008080C0E07030101010101070F0E0C080000000000000000000000000000000000000000000000000000000000000000000000000000000000000000000000F5
:405A400000000000000000000000000000000000000000000000011D4C33001B2A00AA000000000000000000000000000000000000000000FCFCFC1C1CDCDCDCDCDCCCFC5A
:405A8000FCFC3800FCFCFC0000FCFCFC1C1C1C1C1C1C1C1C38F8F0E00C1CFCF8E00000000000FCFC00000000FCFCFC0000FCFCFC606060606060606060FCFCFC00000C1C96
:405AC0003C78F0E0C0C0C0E0F0F8BC1C0C04000000000000000000000000000000000000000000000000000000000000000000000000000000000000000000000000000032
:405B000000000000000000000000000000000000000000011D4C33001B2A00AA000000000000000000000000000000000000000000000000000000000000000000000000D9
:405B400000000000000000000000000000000000000000000000000101010303060606040C08080000000000000000000001010101010101010101000000000000000000E0
:405B800000000000000000000000000000000000000000000000000000000000000000000000000000000000000000000000000000000000000000000000000000000000E5
:405BC00000000000000000000000000000000000011D4C33001B2A00AA000000000000000000000000000000000000000000013F3F1F1F1F1F1F3F3F7F7F3F3F3F1F1F1F69
:405C00001F1F0F0F07070707070F0F1F1F3E3D7B73E3E7C7C78E8E8E1C1818393931716363636767C7C7C7C68686868E8E8E8C8C8C8C8C8C8C0C040406060606060606035B
:405C40000303030101010101000000000000000000000000000000000000000000000000000000000000000000000000000000000000000000000000000000000000000016
:405C800000000000000000000000000000011D4C33001B2A00AA000000000000000000000000000000030F1F3F7FFFFFFFFFFFFFFEFEFEFFFFFFFFFFFFFFFFFFFFFFFFFF82
:405CC000FFFFFFFFFFFFFFFFFFFFFFFFFFCFDF9FBE3E7E7C78F8F8F0E0E0E0C0C08080808000000000000000000000000000000000000000000000000000000000000000F6
:405D00008080808080804000000000000000000000000000000000000000000000000000000000000000000000000000000000000000000000000000000000000000000023
:405D400000000000000000000000011D4C33001B2A00AA0000000000000000000000000000E0E0E0E0E0C08080808000000000F0F8FFFFFFFFFFFFFFFFFFFFFFFFFFFFFF9E
:405D8000FFFEFCF8F8F0F0E0C080808000000000000000000000000000000000000000000000000000000000000000000000000000000000000000000000000000000000FA
:405DC00000000000000000000000000000000000000000000000000000000000000000000000000000000000000000000000000000000000000000000000000000000000A3
:405E000000000000000000011D4C33001B2A00AA0000000000000000000000000000000000000000000000000000000000009CFEFFFFFFFFFEFCF8F0E0E0C080000F1F1F11
:405E400018181818181818181C1C1C1E1F1F1F1F1F1C18181818181818181C1C1E1E1F1F1F1F1F1C1818181C1F1F1F1F1F1F1E1E1C1C1818181818181C1E1E1F1F1F1F0F49
:405E800000000000000000000000000000000000000000000000000000000000000000000000000000000000000000000000000000000000000000000000000000000000E2
:405EC00000000000011D4C33001B2A00AA000000000000000000000000000000000000000000000000000000000000000080C08000000000000000000000FFFFFF00000059
:405F00000070787878200000060EFFFFFFFF0E000000007C7C7C3C00000101CFFFFFFFFF0000000000FFFFFFF0800000001F3F7F7F7F7F7F3F1F0F000080E0FFFF000000BD
:405F40000000000000000000000000000000000000000000000000000000000000000000000000000000000000000000000000000000000000000000000000000000000021
:405F800000011D4C33001B2A00AA000000000000000000000000000000000000000000000000000000000000000000000000000000000000000000FFFFFF00000000F0F870
:405FC000F8F0F16101010387FFFFFF01000000017F3F070301C0F0F8FCFFFFFFFF0000000001FFFFFF7F0F070301C1E0F0F0F8F0F0F0E18103070F1FFFFF000000000000FB
:406000000000000000000000000000000000000000000000000000000000000000000000000000000000000000000000000000000000000000000000000000000000011D42
:406040004C33001B2A00AA000000000000000000000000000000000000000000000000000000000000000000000000000000000000000000808080808080808080808080B2
:406080008080808080808080808080808080808080808080808080808080808080808080808080808080808080808080808080808080808080808000000000000000000060
:4060C0000000000000000000000000000000000000000000000000000000000000000000000000000000000000000000000000000000000000000000000000011D4C330003
:406100001B2A00AA00000000000000000000000000000000000000000000000000000000000000000000000000000000000000000000000000000000000000000000000070
:406140000000000101010101010101010101010100000000000000000000000000000000000000000000000000000000000000000000000000000000000000000000000012
:406180000000000000000000000000000000000000000000000000000000000000000000000000000000000000000000000000000000000000000000011D4C33001B2A00FD
:4061C000AA000000000000000000000000000000000000000000000000000000000000000000000000000000000000000000000000000103070F1F1F3E3E7C7878F8F0F0DD
:40620000E0E0E0E0E0E0E0E0E0E0E0E0E0F0F0F8787C3C3F3F1F1F1F1F1F0F0F030000000000000000000000000000000000000000000000000000000000000000000000BC
:406240000000000000000000000000000000000000000000000000000000000000000000000000000000000000000000000000000000000000011D4C33001B2A00AA000092
:40628000000000000000000000000000000000000000000000000000000000000000000000000000000000000000030F3F7FFEFCF0E0C08000000000000000000000000004
:4062C0000000000000000000000000000000000080E0F0F8F8F8F8FEFFFF1F0301000000000000000000000000000000000000000000000103030000000000000000000048
:406300000000000000000000000000000000000000000000000000000000000000000000000000000000000000000000000000000000011D4C33001B2A00AA0000000000D1
:406340000000000000000000000000000107070F0F1E1E1E0F0F0F070003070F0F0F0E0F0F0F0F070001078F8F8F9E1E1E0F0F0707010003070F0F0F0E0E0F0F0F07000394
:40638000070F0F0F0E0E0E0F0F070701070F0F0F1E1E1E1E1E1E9E8E800D0F1F0F0000000000000F1F1F0F03070F0F0F0E1E1E1EFFFFFF000000000000000000000000007C
:4063C0000000000000000000000000000000000000000000000000000000000000000000000000000000000000000000000000011D4C33001B2A00AA000000000000000011
:40640000000000000000000000F0FCFEFF0F0F070F0F1F1E0EF0FCFEFFBF7FFFF7EFDF9F1E0CFFFFFFC00000000000C0FFFFFFF0FCFEFF9F0F070F0F1F9F1E00F8FEFF9F8B
:406440000F0F070F1FFFFEFCF0C0E7E7F7F7F7F7F7F7FFFF7F3EE0FCFEFF1F0F0F070F1FFFFEFCF0F8FEFEFF0F0F070F1FFFFEFC000000000000000000000000000000005A
:406480000000000000000000000000000000000000000000000000000000000000000000000000000000000000000000011D4C33001B2A00AA000000000000000000000050
:4064C0000000000000000000000000000000000000000000000000000000000000000000809E1F1F1F07010000808000000000000000000000000000000000000000808019
:406500008000000000000000808080808081071F1F1F1C0000000000008080000000000000000000000000000000000000000000000000000000000000000000000000005A
:406540000000000000000000000000000000000000000000000000000000000000000000000000000000000000011D4C33001B2A00AA00000000000000000000000000008F
:406580000000000000000000000000000000000000000000000000000000000000000080C0E0F8FCFE7E3F1F0F0703030101010000000000000000000000000000000001CD
:4065C00001030303070F1F3F7EFCF8F0E0C080000000000000000000000000000000000000000000000000000000000000000000000000000000000000000000000000009B
:406600000000000000000000000000000000000000000000000000000000000000000000000000000000011D4C33001B2A00AA0000000000000000000000000000000000CE
:406640000000000000000000000000000000000000000000000000000000000000000000000000008080C0C0E0E0F0F0F0F8787878787C7C7C7C787878F8F8F0F0F0E0E05A
:40668000C0C080800000000000000000000000000000000000000000000000000000000000000000000000000000000000000000000000000000000000000000000000005A
:4066C0000000000000000000000000000000000000000000000000000000000000000000000000011D4C33001B2A00AA00000000000000000000000000000000000000000E
:4067000000000000000000000000000000000000000000000000000000000000000000000000000000000000000103070F1F1F3F3F3F3F3F3F1F1F0F07030101000000002E
:406740000000000000000000000000000000000000000000000000000000000000000000000000000000000000000000000000000000000000000000000000000000000019
:406780000000000000000000000000000000000000000000000000000000000000000000011D4C33001B2A00AA00000000000000000000000000000000000000000000004D
:4067C00000000000000000000000000000000000000000000000000000000000010307070F1F1F3F7FFFFFFFFFFFFFFFFFFFFFFFFFFFFFFFFFFFFFFFFFFF7F3F1F0F07039B
:406800000100000000000000000000000000000000000000000000000000000000000000000000000000000000000000000000000000000000000000000000000000000057
:406840000000000000000000000000000000000000000000000000000000000000011D4C33001B2A00AA00000000000000000000000000000000000000000000000000008C
:406880000000000000000000000000000000000000000103070F3F7FFFFFFFFFFFFFFCF0E0808080C0C0E0E0F0F0F8F8FCFCFEFEFEFFFFFFFFFFFFFFFFFFFFFFFFFFFF3F87
:4068C0001F0F030000000000000000000000000000000000000000000000000000000000000000000000000000000000000000000000000000000000000000000000000067
:406900000000000000000000000000000000000000000000000000000000011D4C33001B2A00AA0000000000000000000000000000000000000000000000000000000000CB
:40694000000000000000000000000001071F3FFFFFFFFFFFFFFFFFFFFCE00000000001070F1F1F1F3F3F3F3F3F3F3F1F1F1F1F9F8FCCE0F0F0F8FCFEFFFFFFFFFFFFFFFF91
:40698000FF7F0F0300000000000000000000000000000000000000000000000000000000000000000000000000000000000000000000000000000000000000000000000047
:4069C0000000000000000000000000000000000000000000000000011D4C33001B2A00AA00000000000000000000000000000000000000000000000000000000000000000B
:406A00000000000000031F7FFFFFFFFFFFFFFFFFFFFFFFFFFF000000071F7FFFFFFFFFFFFFFFFFDF9F8F8F8F8F8F8F8F0000000000000000000080C0E0F0FCFFFFFFFFFFB7
:406A4000FFFF0F0000000000000000000000000000000000000000000000000000000000000000000000000000000000000000000000000000000000000000000000000009
:406A80000000000000000000000000000000000000000000011D4C33001B2A00AA00000000000000000000000000000000000000000000000000000000000000000000004A
:406AC000003FFFFFFFFFFFFFFFFFFFFFFFFFFFFFFFFF000000F0FCFEFFFFFFFFFFFFDF8F8F8F8F8F8F8787830000000000010103070F0F1F3F7F7FFFFFFFFFFFFFFFFFFF3C
:406B00003F0700000000000000000000000000000000000000000000000000000000000000000000000000000000000000000000000000000000000000000000000000000F
:406B40000000000000000000000000000000000000011D4C33001B2A00AA000000000000000000000000000000000000000000000000000000000000000000000000FCFE8F
:406B8000FEFEFFFFFFFFFFFFFFFFFFFFFFFFFF0F03030303030383838387C7C7C7C7CFCFCFDFDF9F3F3F7F7FFFFFFFFFFFFFFFFFFFFFFFFFFFFFFFFFFFFFFFFFFFFEFC006E
:406BC0000000000000000000000000000000000000000000000000000000000000000000000000000000000000000000000000000000000000000000000000000000000095
:406C00000000000000000000000000000000011D4C33001B2A00AA0000000000000000000000000000000000000000000000000000000000000000000000000000000000C8
:406C4000008080C0C0E0E0F0F0F0F8F8F8FCFCFCFCFCFCFEFEFEFEFEFEFEFEFEFEFEFEFEFEFEFCFCFCFCFCFCFCFCF8F8F8F8F0F0F0E0E0E0C0C0C0808000000000000000E2
:406C800000000000000000000000000000000000000000000000000000000000000000000000000000000000000000000000000000000000000000000000000000000000D4
:406CC0000000000000000000000000011D4C33001B2A00AA0000000000000000000000000000000000000000000000000000000000000000000000000000000001030307FA
:406D000007070F0F1F1F1F1F1F3F3F3F7F7F7F7F7F7F7F7F7F7F7F7F7F7F7F7F7F7F7F7F7F7F7F7F3F3F3F1F1F1F1F0F0F0F0707030301010000000000000000000000006B
:406D40000000000000000000000000000000000000000000000000000000000000000000000000000000000000000000000000000000000000000000000000000000000013
:406D80000000000000000000011D4C33001B2A00AA00000000000000000000000000000000000000000000000000000000000103070F0F1F3F7F7FFFFFFFFEFEFCFCF8F8E1
:406DC000F0F0E0E0E0C0C0C080808080808080808080808080808080808080808080808080C0C0C0E0E0E0E0F0F8F8F8FCFEFEFFFFFFFF7F7F3F1F0F070301000000000051
:406E00000000000000000000000000000000000000000000000000000000000000000000000000000000000000000000000000000000000000000000000000000000000052
:406E40000000000000011D4C33001B2A00AA000000000000000000000000000000000000000000000000010F1F3F7FFFFFFFFFFEFCF8F0E0C0870F1F1F3F7F7F7F7E7E7E11
:406E80003E3F1F0000000000010101010101000000000000000001010101010101010000000000000000010101010101010080C0E0F0F8FCFFFFFFFFFF7F3F0F0300000052
:406EC0000000000000000000000000000000000000000000000000000000000000000000000000000000000000000000000000000000000000000000000000000000000092
:406F00000000011D4C33001B2A00AA00000000000000000000000000000000000000000000003FFFFFFFFFFFFFFFE0C0000000000000F0F9FFFFFFFFFF1F1F0F0F0F0F008F
:406F4000001F7FFFFFFFFFFBF3F9F9F9F8F800003F7FFFFFFFFFFBF3F9F9F9F800000F3F7FFFFFFFF8F0F0F8FFFFFFFF3F1F00000000C0F8FFFFFFFFFFFFFF3F000000003F
:406F800000000000000000000000000000000000000000000000000000000000000000000000000000000000000000000000000000000000000000000000000000000001D0
:406FC0001D4C33001B2A00AA0000000000000000000000000000000000000000000000FEFFFFFFFFFFFFFF0701000000000078FFFFFFFFFFFFCF87878787878707000F8FF7
:40700000C7C7E7E7E7FFFFFFFFFF7F1C000F87C7E7E7E7F7FFFFFFFFFF7E00F8FEFFFFFFFF07070707FFFFFFFFFFFC00000000031FFFFFFFFFFFFFFFFC00000000000000D9
:40704000000000000000000000000000000000000000000000000000000000000000000000000000000000000000000000000000000000000000000000000000011D4C3373
:40708000001B2A00AA00000000000000000000000000000000000000000000000080F0F8FEFFFFFFFFFF7F3F0F0703010180C0C0C0E0E0E0E0E0E0C0C0C00080C0C0E0E0A7
:4070C000E0E0E0E0C0C080000000C0C0C0E0E0E0E0E0E0C08080000000008080C0E0E0E0E0E0E0C0C08103070F1F3F7FFFFFFFFFFEFCF8E08000000000000000000000008B
:40710000000000000000000000000000000000000000000000000000000000000000000000000000000000000000000000000000000000000000000000011D4C33001B2A6D
:4071400000AA000000000000000000000000000000000000000000000000000000000080C0E0F0F8F8FCFEFFFFFFFF7F3F3F1F1F0F0F0707070703030101010101010000EE
:40718000000000000000000000000000000001010101010303030707070F0F0F1F1F3F7F7FFFFFFFFFFEFCF8F0F0E0800000000000000000000000000000000000000000D6
:4071C000000000000000000000000000000000000000000000000000000000000000000000000000000000000000000000000000000000000000011D4C33001B2A00AA0003
:4072000000000000000000000000000000000000000000000000000000000000000000000000000000808080C0E0E0E0F0F0F8F8F8F8FCFCFCFEFEFEFEFEFEFEFEFEFFFFCE
