:400000000080002011000000357100003571000008B5044B1A6803F53F5302331A6007F08BF800BFFA46004010B5054C237833B9044B13B10448AFF300800123237010BDA1
:40004000D083FF1F00000000448F0000084B10B51BB108480849AFF300800848036803B910BD074B002BFBD0BDE81040184700BF00000000448F0000D483FF1F0881FF1F07
:400080000000000008B508F05DF9024A13780133137008BD4992FF1F08B508F0F3F9024A13780133137008BDF98BFF1F08B508F027FC0449D1E90023013243F10003C1E93D
:4000C000002308BDF08BFF1F08B508F0ADFB08BD08B507F0F3FD07F0FDFC07F061FA07F057FB07F00BFA07F0A9FE08F085FA084808F078FC074808F0A3FC074808F096F9A5
:40010000064808F0E5F908F03FFC08F0D1FB08BDAD000000C9000000850000009900000010B51C4B1878002107F0CCFD1A4B1878012107F0C7FD194B1878022107F0C2FD0F
:40014000174B1878032107F0BDFD164B1878042107F0B8FD144B1878052107F0B3FD134B1878062107F0AEFD114C20780C2107F0A9FD94F812010D2107F0A4FD94F82402AD
:400180000E2107F09FFD94F836030F2107F09AFD10BD00BF8F8DFF1F9897FF1FF491FF1F908DFF1F9697FF1FB097FF1F4792FF1F9C84FF1F10B5022007F0EEFD234B187065
:4001C000032007F0E9FD224B1870042007F0E4FD204B1870052007F0DFFD1F4B1870062007F0DAFD1D4B1870072007F0D5FD1C4B1870082007F0D0FD1A4B1870092007F075
:40020000CBFD194B18700A2007F0C6FD174C20700B2007F0C1FD60700423154A1370154A13700C2007F0B8FD134C20700D2007F0B3FD84F812010E2007F0AEFD84F82402FC
:400240000F2007F0A9FD84F8360310BDF491FF1F908DFF1F9697FF1FB097FF1F4792FF1F3092FF1FB197FF1F4892FF1F4492FF1F0C81FF1F508DFF1F9C84FF1F10B59CB084
:40028000994A19AB07CA03C31A80984B16AC93E8070003C42280964A13AC07CA03C4228010AC03F10C0207CA03C4227000228DF849200DAC03F1180103C984E80300ADF85F
:4002C0003C200AAC03F1240207CA03C4228007AC03F1300207CA03C4228004AC03F13C0207CA03C4228001AC483393E8070003C42280804B1B78022B7AD10120014603F025
:4003000099FF012019A9002204F04EF84FF4967007F020FB784B1B785BB90133DBB2774A82F8023182F81432012016A9002204F03BF8714B1B78012B0BD10133DBB26F4A38
:4003400082F8023182F81432012013A9002204F02BF8694B1B78022B0BD10133DBB2674A82F8023182F81432012010A9002204F01BF8614B1B78032B0BD10133DBB25F4A15
:4003800082F8023182F8143201200DA9002204F00BF85B4B1B783BB901200AA9162204F003F80522574B1A70554B1B78012B07D1012007A9162203F0F7FF0622514B1A70EE
:4003C0004F4B1B78022B07D1012004A9162203F0EBFF07224B4B1A70494B1B78032B07D1012001A9162203F0DFFF0822454B1A70404B1B78042B6DD101202E2103F01AFF53
:40040000012019A9002203F0CFFF4FF4967007F0A1FA394B1B787BB90133DBB2374A82F8023182F8143282F8263382F83834012016A9002203F0B8FF2F4B1B78012B0FD1A3
:400440000133DBB22D4A82F8023182F8143282F8263382F83834012013A9002203F0A4FF254B1B78022B0FD10133DBB2234A82F8023182F8143282F8263382F83834012004
:4004800010A9002203F090FF1B4B1B78032B0FD10133DBB2194A82F8023182F8143282F8263382F8383401200DA9002203F07CFF134B1B78012B04D1012007A9162203F039
:4004C00073FF0F4B1B78022B04D1012004A9162203F06AFF074B1B78012B03D80120002103F0A8FE1CB010BDD48F0000488F0000E08F0000FA97FF1F8F8DFF1F9C84FF1F09
:40050000B097FF1F4792FF1F08B5104B1B78022B06D10220012103F08DFE00220C4B1A600A4B1B78042B03D102202E2103F082FE064B1B78012B03D80220002103F07AFE93
:4005400002200449002203F02FFF08BDFA97FF1FF093FF1F1481FF1F08B502F039FD2D4B1870002855D02C4B187802F019FD03F0EBFA50B90120002103F05CFE022000210D
:4005800003F058FE0022234B1A70234B93F8120102F006FD03F0D8FA50B90120002103F049FE0220002103F045FE0022194B1A70194B187802F0F4FC03F0C6FA48B3164B1F
:4005C00093F8120102F0ECFC03F0BEFA08B302F0FFFC104B1870104B187802F0E1FC06280DD10D4B93F8120102F0DAFC062806D1094B187803F00EFDFFF792FD08BD012077
:40060000092103F017FE0220092103F013FEFFF7A3FF08BDFA97FF1F9C84FF1F70B58EB02E4C07AD04F154060FCE0FC596E8070003C52A806D4670340FCC0FC594E80700DD
:4006400003C52A80002408E00EAB2344012013F81C1C04F07FF90134E4B2192CF4D901200A2104F077F901200A2104F073F901200A2104F06FF901200A2104F06BF9012066
:400680000A2104F067F901200A2104F063F9002408E00EAB2344022013F8381C04F05AF90134E4B2192CF4D902200A2104F052F902200A2104F04EF902200A2104F04AF9B6
:4006C00002200A2104F046F902200A2104F042F902200A2104F03EF90EB070BD488F0000F0B585B0A54B1B68132B01F2FA81DFE813F014002A006900C500A301D1014F02CE
:40070000C4023403B5038804DB047905F1054606980745089A081F09F209FFF7AFFD0122964B1A6007F090FE07F0F2FD0023944A1370944A82F8613082F80331924A82F82C
:40074000073101F0CEB9914BD3E900234FF42F700021994208BF90420ED28A4B93F834312BB18B4B1878884B197804F0C5FA00200021864BC3E900010822834B83F8032143
:4007800006F01CFF082841F0AC81824B1B78DBB2AA2B10D17F4B9B79DBB2C32B0BD17D4BDB79DBB23C2B06D10222744B1A600120042103F03FFD0A2007F0CCF806F02CFF03
:4007C00001F08FB906F0FAFE082841F08A81714B1B78DBB2AA2B4AD16E4B9B79DBB2C32B45D16C4BDB79DBB23C2B40D1694BDB78DBB2452B24D004D80D2B07D00E2B10D030
:4008000035E07E2B2CD0942B22D030E003225B4B1A6001205B4B83F86100052103F00AFD25E00A22554B1A600222564B83F861200022534B1A700120852103F0FBFC16E038
:400840000C224E4B1A600120832103F0F3FC0EE000224A4B1A600120014603F0EBFC06E00022464B1A600120014603F0E3FC0A2007F070F806F0D0FE01F033B906F09EFE26
:40088000082841F02E81434B1B78DBB2AA2B40F0CC80404B9B79DBB2C32B40F0C6803D4BDB79DBB23C2B40F0C0803A4BDB78DBB23B2B00F0AB8004D80F2B0CD0102B2FD047
:4008C000B3E07E2B00F0AA80942B00F09780432B40F0AB8049E00422284B1A60294B022483F86340442283F8642000252A4B1D700120062103F09EFC0120009001954E2306
:40090000029324210322234603F076FD234B1B7813B1234B1D7088E00122214B1A7084E00422164B1A60174B012483F86340562583F864500026184B1E7020460D2103F056
:4009400079FC009401964E230293204629460322022303F051FD134B1B7813B1104B1E7063E001220E4B1A705FE0064B022283F86320462283F8642001231CE06092FF1F41
:400980004992FF1FFC8BFF1F9C84FF1FF08BFF1FB197FF1F0098FF1F4A92FF1FF491FF1FF793FF1F908DFF1F984A1A44392182F865100133DBB21A4695490978481E8342F2
:4009C000F2DB924B9C18302084F8650084F8660083F86510002307E08C4A1A4492F8650082F86F000133DBB28B42F5D90522894B1A600120862103F01DFC16E00022854BF3
:400A00001A600120014603F015FC0EE00022814B1A600120014603F00DFC06E000227D4B1A600120014603F005FC0A2006F092FF06F0F2FD01F055B80120754B1978002248
:400A400003F03EFD18B1012815D001F04AB80022704B1A600120014603F0ECFB01F041B86A4A1A4492F84B1082F8651082F86F100133DBB200E00023644A92F84B209A42D9
:400A8000EED20522634B1A600120862103F0D2FB01F027B806F092FD082841F022805E4B1B78DBB2AA2B6CD15B4B9B79DBB2C32B67D1594BDB79DBB23C2B62D1564BDB78EC
:400AC0007E3B3A2B5DD8DFE803F055351E295C5C5C5C5C5C5C5C5C5C5C5C5C5C5C5C5C5C4D5C5C5C5C5C5C5C5C5C5C5C5C5C5C5C5C5C5C5C5C5C5C5C5C5C5C5C5C5C5C5C2F
:400B00005C5C5C5C41000622424B1A600120434B83F801010B2103F08DFB32E006223D4B1A6002223D4B83F8012101200B2103F081FB26E00622374B1A600322374B83F875
:400B4000012101200B2103F075FB1AE00622314B1A600422314B83F8012101200B2103F069FB0EE000222B4B1A600120014603F061FB06E00120014603F05CFB0022254BC7
:400B80001A600A2006F0E6FE06F046FD00F0A9BF234807F04BFC07F01BFC06F00FFD08285BD11D4B1B78DBB2AA2B51D11A4B9B79DBB2C32B4CD1184BDB79DBB23C2B47D1BE
:400BC000154BDB78DBB2392B04D07E2B39D0382B3ED10FE009220F4B1A600022114B1A700A4B012083F8000183F834010A2103F021FB2DE0054B93F80331ABB10022054B9D
:400C00001A600120014603F015FB21E0FC8BFF1F4792FF1F6092FF1F0098FF1F9C84FF1F850000004A92FF1F0721B34B19600023B24A82F83431B24A1370012003F0FAFA8B
:400C400006E00022AC4B1A600120014603F0F2FA0A2006F07FFE06F0DFFCA94B1B781D2B40F23F870023A44A1360A54A13700120014603F0DFFA00F034BFA24C207803F0F9
:400C800079FA014684F8000194F8013198423BD19A4A92F863302078653203F0030302F071FF012822D107F0CFFB07F031FB2546207802F075F9207840F0100006F0A0FFFE
:400CC000012485F8074108218B4B196000228C4B1A708A4D85F83541204603F0ABFA204605F16F01122203F05FFB10E00021824B1960012003F09EFAC82006F02BFE0120CF
:400D0000014603F097FA02E007227B4B1A6006F055FC08281DD17C4B1B78DBB2AA2B15D1794B9B79DBB2C32B10D1774BDB79DBB23C2B0BD1744BDB78DBB27E2B06D101203C
:400D4000014603F077FA00226B4B1A600A2006F001FE06F061FC00F0C4BE6A4C207802F01FF984F804010638052800F2BA86DFE810F00600B806B80616001F004A00002331
:400D80005D4A13600C215F4A82F803115B4A82F835310120014603F04DFA00F0A2BE574B012283F83521002283F8032100F099BE544B187802F0E4FC002800F092864F4BD5
:400DC00093F83431012B0AD101214C4B83F803110022494B1A60084603F02CFA09E00622454B1A600120454B83F803010B2103F021FA0022414B83F835210122414B83F8EF
:400E0000072100F06EBE3F4B187802F0B9FC002800F06786394B93F83431012B0AD10121364B83F803110022334B1A60084603F001FA09E00622304B1A6001202F4B83F889
:400E400003010B2103F0F6F900222C4B83F8352101222C4B83F8072100F043BE01200A21002203F02DFB18B101284FD000F039BE224B93F80031013B032B39D8DFE803F0E9
:400E80000A1D29351D4A1A44002182F8DF100133DBB200E000230A2BF4D90022164B1A600120014603F0C6F922E0144A1A44002182F8EA100133DBB200E000230A2BF4D968
:400EC00016E00E4A1A44002182F8F5100133DBB200E000230A2BF4D90AE0084A1A44002182F836110133DBB200E000230A2BF4D906F092FB00F0F5BD6092FF1FFC8BFF1FC4
:400F00004992FF1F9C84FF1F0098FF1FAA4B93F80031013B032B70D8DFE803F00B33494FA54A1A4492F84B1082F8DF100133DBB200E00023A04A92F84B209A42F0D29E4B0C
:400F400093F803316BB19D4B18789D4B197803F0D3FE00229B4B1A600120014603F06AF94BE00721974B1960012003F063F944E0914A1A4492F84B1082F8EA100133DBB20C
:400F800000E000238C4A92F84B209A42F0D207218C4B1960012003F04DF92EE0864A1A4492F84B1082F8F5100133DBB200E00023814A92F84B209A42F0D2002307E07E4A5F
:400FC0001A4492F84B1082F836110133DBB20A2BF5D90E227B4B1A6000227B4B1A700A227A4B1A702A227A4B1A700322724B83F800210120252103F01DF906F00DFB00F055
:4010000070BD06F0DBFA082840F06B85714B1B78DBB2AA2B41D16F4B9B79DBB2C32B3CD16C4BDB79DBB23C2B37D16A4BDB78DBB2942B23D002D87E2B28D02EE0B62B02D0C5
:40104000B72B0ED029E00B225E4B1A6000225E4B1A700120584B83F83401122103F0EAF81BE00023544A82F800310721554A1160594A1370012003F0DDF80EE00022514B2C
:401080001A600120014603F0D5F806E00120014603F0D0F800224B4B1A600A2006F05AFC06F0BAFA00F01DBD4C4807F0BFF907F08FF9012004F0EAFD01286CD1332104F0FD
:4010C00027FE40B967E0012004F08CFE444B18550134E4B200E00124082CF4D90020012405E03F4B195D04F0B9FE0134E4B2072CF7D93B4B1B7ADBB283424CD110232E4A47
:401100005370012230E010463549895C01F00F01092908DD3249895C274C1C4401F00F013731617007E02E49895C234C1C4401F00F0130316170013BDBB22949095C9F29CE
:4011400007D92749095C1C48184409093731417006E02349095C18481844090930314170013BDBB20132D2B2082ACCD90120132103F060F806F050FA4FF42F7006F0EAFB44
:4011800002220D4B83F8002109220E4B1A6001200E2103F04FF8104B1B783B2B40F2A1840023084A13600C4A13700120014603F041F800F096BC00BFFC8BFF1FB197FF1F83
:4011C0009C84FF1F6092FF1F4A92FF1FFA8BFF1F3192FF1F0098FF1F4992FF1F850000005897FF1F06F0EAF9082840F07A84A84B1B78DBB2AA2B66D1A54B9B79DBB2C32B0D
:4012000061D1A34BDB79DBB23C2B5CD1A04BDB78DBB2552B1DD004D83B2B3DD0462B07D051E0942B40D0B52B28D07E2B4BD143E00D22984B1A60984B1B78012B04D1012066
:401240002A2102F0F7FF3EE00120232102F0F2FF39E00E228F4B1A600622904B83F8002100228F4B1A7005228E4B1A702A228E4B1A700120252102F0DDFF24E00022854BAF
:401280001A608A4B012183F807110B2283F80321084602F0CFFF16E000227E4B1A600120014602F0C7FF0EE000227A4B1A600120014602F0BFFF06E00022764B1A6001200A
:4012C000014602F0B7FF0A2006F044FB06F0A4F900F007BC06F072F9082840F002846C4B1B78DBB2AA2B44D1694B9B79DBB2C32B3FD1674BDB79DBB23C2B3AD1644BDB78F8
:40130000DBB2482B17D002D8472B05D031E07E2B20D0942B26D02CE009225E4B1A6000225F4B1A7004225D4B83F800210120242102F080FF1DE00922564B1A600022584B4D
:401340001A700422554B83F800210120242102F071FF0EE00120014602F06CFF00224D4B1A6006E00120014602F064FF0022494B1A600A2006F0EEFA06F04EF9B1E3012005
:40138000484B1978484B1A7803F09AF810B101286ED0A6E3414B93F80031013B052B64D8DFE803F0091A2F6344570021404AD1540133DBB200E00023042BF6D90022354B80
:4013C0001A600120014602F035FF4EE00021394AD1540133DBB200E00023324A12789342F4D300222B4B1A600120014602F022FF3BE02A4A1A44002182F841110133DBB260
:4014000000E00023274A12789342F2D30022214B1A600120014602F00DFF26E01F4A1A44002182F841110133DBB200E000231D4A12789342F2D30022164B1A600120014638
:4014400002F0F8FE11E000211B4AD1540133DBB200E00123184A12789A42F4D200220D4B1A600120014602F0E5FE06F0D5F838E30A4B93F80031013B052B00F2CF80DFE801
:4014800013F026004F006500CD007B00910000BF0098FF1F6092FF1F3092FF1FFC8BFF1F4A92FF1FFA8BFF1F3192FF1F9C84FF1F5097FF1F588DFF1F508DFF1F591C914A5D
:4014C0000A4492F84B00904AD054CBB200E00023042BF3D98C480023037107F061FC80B28A4B1880C3B28A4C2370000A607020780A2106F0E7FB60780B2106F0E3FB0F2296
:40150000844B1A6001205A2102F094FE86E07D4A1A4492F84B10804AD1540133DBB200E000237E4A12789342F1D30F22794B1A6001205A2102F07EFE70E0724A1A4492F8C7
:401540004B1082F841110133DBB200E00023734A12789342F1D313226E4B1A600120392102F068FE5AE0674A1A4492F84B1082F841110133DBB200E00023684A1278934296
:40158000F1D30F22634B1A6001205A2102F052FE44E05C4A1A4492F84B10614AD1540133DBB200E001235E4A12789A42F1D25C4B5A785C4B5B789A4221D1594B9A78594BA2
:4015C0009B789A421BD1564BDA78564BDB789A4215D1534B1A79534B1B799A420FD10120262102F027FE4FF42F7006F0B3F90F22484B1A6001205A2102F01CFE0EE0012050
:40160000272102F017FE4FF42F7006F0A3F90022404B1A600120014602F00CFE05F0FCFF5FE205F0CBFF082840F05B823E4B1B78DBB2AA2B40F09C803B4B9B79DBB2C32B50
:4016400040F09680384BDB79DBB23C2B40F09080354BDB78583B3C2B00F28A80DFE803F06A883C888888888888888888883288888888888888888888888888888888888856
:40168000888888888888798888881F888888888888888888888888888888888881000E221C4B1A600023214A1370214A137005221A4B1A700120134B83F80001062102F007
:4016C000B9FD55E01022134B1A60FEF7A7FF01206B2102F0AFFD4BE00E220E4B1A600023124A1370124A137003220C4B1A700223094A1370034A82F800310120062102F0CD
:4017000099FD35E0FC8BFF1F5097FF1F0096FF1F4492FF1F6092FF1F588DFF1FFA8BFF1F508DFF1F0C81FF1F0098FF1F4A92FF1F3192FF1F1222784B1A600022774B1A70E0
:401740000422774B83F8002101203E2102F072FD0EE00120014602F06DFD00226E4B1A6006E00120014602F065FD00226A4B1A600A2006F0EFF805F04FFFB2E105F01EFF1B
:40178000082840F0AE81674B1B78DBB2AA2B44D1644B9B79DBB2C32B3FD1624BDB79DBB23C2B3AD15F4BDB78DBB2392B10D002D8382B05D031E07E2B20D0942B26D02CE045
:4017C0001122554B1A600120672102F033FD24E00F22514B1A600124534B1C70534D02232B702046082106F06DFA2878092106F069FA20465A2102F01DFD0EE00120014685
:4018000002F018FD0022444B1A6006E00120014602F010FD0022404B1A600A2006F09AF805F0FAFE5DE105F0C9FE082840F059813C4B1B78DBB2AA2B68D13A4B9B79DBB254
:40184000C32B63D1374BDB79DBB23C2B5ED1354BDB787E3B162B59D8DFE803F049585858585858585858585858580C2035585858585851000F22284B1A6002202A4B18702D
:401880002A4C2070082106F01DFA2078092106F019FA01205A2102F0CDFC37E00F221E4B1A600124204B1C70204D2C702046082106F008FA2878092106F004FA20465A2154
:4018C00002F0B8FC22E00F22134B1A600020164B1870164C2070082106F0F4F92078092106F0F0F901205A2102F0A4FC0EE00120014602F09FFC0022074B1A6006E0012089
:40190000014602F097FC0022034B1A600A2006F021F805F081FEE4E06092FF1F4A92FF1FFC8BFF1F0098FF1FB197FF1F4892FF1F03F090F801283CD16B4F7978C1F300119C
:40194000303101240094002601964E2502952046C9B20D22082302F04FFD797801F00F01009401960295204630310D22092302F043FD00940196029520463A210D220A2326
:4019800002F03AFD39780909009401960295204630310D220B2302F02FFD397801F00F01009401960295204630310D220C2302F023FD02F0F3FF01285DD14C4F3978C1F351
:4019C000011101240094002601964E250295204630311522082302F00FFD397801F00F01009401960295204630311522092302F003FD00940196029520462F2115220A23C2
:401A000002F0FAFC7978C1F3001130310094019602952046C9B215220B2302F0EDFC797801F00F010094019602952046303115220C2302F0E1FC00940196029520462F219C
:401A400015220D2302F0D8FCB97809090094019602952046303115220E2302F0CDFCB97801F00F010094019602952046303115220F2302F0C1FC05F0A1FD082831D11C4B4B
:401A80001B78DBB2AA2B20D1194B9B79DBB2C32B1BD1174BDB79DBB23C2B16D1144BDB78DBB27E2B02D0942B08D00EE00022114B1A600120014602F0BDFB06E000220D4B27
:401AC0001A600120014602F0B5FB0A2005F042FF05F0A2FD05E00123074A82F80731074A137005B0F0BD00BFB497FF1F3492FF1F0098FF1F6092FF1F9C84FF1FF88BFF1F7B
:401B0000F0B585B0AC4B1B68132B01F2F281DFE813F014002D007000CC009701C5014302BB022E03B4038C04E0046605F30548069D07410895081709EA09FEF7E5FC012263
:401B40009D4B1A609D4C082384F8153206F0CEFC06F084FC00239A4A13709A4A82F8613082F8033184F8193201F0C3B90220232102F0ECFB944BD3E900234FF42F7000219B
:401B8000994208BF90420FD28E4B93F8343133B18E4B1878894B93F8121103F0ADF800200021894BC3E900010822844B83F8152205F0FCFD082841F09C81854B1B78DBB2D7
:401BC000AA2B0FD1824B9B79DBB2C32B0AD1804BDB79DBB23C2B05D10220774B1860042102F028FB0A2005F0B5FE05F00DFE01F080B905F0DBFD082841F07B81744B1B7802
:401C0000DBB2AA2B4AD1724B9B79DBB2C32B45D16F4BDB79DBB23C2B40D16D4BDB78DBB2452B24D004D80D2B07D00E2B11D035E07E2B2CD0942B22D030E003225E4B1A60EE
:401C40000122604B83F861200220052102F0F2FA24E00A22584B1A6002205A4B83F8610000225C4B1A70852102F0E4FA16E00C22514B1A600220832102F0DCFA0EE00022E3
:401C80004D4B1A600220012102F0D4FA06E00022494B1A600220012102F0CCFA0A2005F059FE05F0B1FD01F024B905F07FFD082841F01F81464B1B78DBB2AA2B40F0B980B4
:401CC000434B9B79DBB2C32B40F0B380404BDB79DBB23C2B40F0AD803D4BDB78DBB23B2B00F0988004D80F2B0CD0102B27D0A0E07E2B00F09780942B00F08480432B40F0B9
:401D0000988038E004222C4B1A602E4B022483F86340442283F8642000252F4B1D702046062102F087FA0123009301954E230293204624210322234602F05EFB79E00422B8
:401D40001D4B1A601F4B012683F86360562483F864400025204B1D7002200D2102F06AFA009601954E230293022021460322034602F042FB5DE0134B022283F863204622D9
:401D800083F86420012306E00E4A1A44392182F865100133DBB21A4610490978481E8342F2DB084B9C18302084F8650084F8660083F8651000231BE0F093FF1F9C84FF1F21
:401DC000F98BFF1FA890FF1FF08BFF1F4892FF1F2098FF1F4992FF1F4A92FF1F4792FF1F934A1A4492F8650082F86F000133DBB28B42F5D905228F4B1A600220862102F0F5
:401E000019FA16E000228B4B1A600220012102F011FA0EE00022874B1A600220012102F009FA06E00022834B1A600220012102F001FA0A2005F08EFD05F0E6FC01F059B84D
:401E400002207D4B1978002202F03AFB18B1012815D001F04EB80022764B1A600220012102F0E8F901F045B8714A1A4492F84B1082F8651082F86F100133DBB200E00023C4
:401E80006B4A92F84B209A42EED20522694B1A600220862102F0CEF901F02BB805F086FC082841F02680654B1B78DBB2AA2B6CD1624B9B79DBB2C32B67D1604BDB79DBB2D1
:401EC0003C2B62D15D4BDB787E3B3A2B5DD8DFE803F055351E2A5C5C5C5C5C5C5C5C5C5C5C5C5C5C5C5C5C5C4D5C5C5C5C5C5C5C5C5C5C5C5C5C5C5C5C5C5C5C5C5C5C5C65
:401F00005C5C5C5C5C5C5C5C5C5C5C5C41000622484B1A6001224A4B83F8132202200B2102F088F931E00622424B1A600220444B83F813020B2102F07DF926E006223D4BE7
:401F40001A6003223E4B83F8132202200B2102F071F91AE00622374B1A600422384B83F8132202200B2102F065F90EE00022314B1A600220012102F05DF906E0022001210E
:401F800002F058F900222B4B1A600A2005F0E2FC05F03AFC00F0ADBF2A4806F047FA06F017FA05F003FC08285ED1244B1B78DBB2AA2B54D1214B9B79DBB2C32B4FD11F4B37
:401FC000DB79DBB23C2B4AD11C4BDB78DBB2392B04D07E2B3CD0382B41D110E00922154B1A600022184B1A70114B012283F8002183F8342102200A2102F01CF92FE00C4B2C
:4020000093F803313BB100220A4B1A600220012102F010F923E00721064B19600023044A82F83431094A1370022002F003F916E0A890FF1FF093FF1F4792FF1F2098FF1FE0
:402040009C84FF1F850000004A92FF1F4992FF1F0022BA4B1A600220012102F0EBF80A2005F078FC05F0D0FBB54B1B781D2B40F240870023B14A1360B14A13700220012176
:4020800002F0D8F800F035BFAE4C94F8120102F071F8014684F8120294F8133298423DD1A94A92F8633094F81201653203F0030301F068FD012823D106F018FA06F0CEF97F
:4020C00094F8120100F06CFF94F8120140F0100005F096FD012384F819320821974A116000209A4A1070984C84F83531022002F0A1F8022004F16501122202F055F910E041
:4021000000218E4B1960022002F094F8C82005F021FC0220012102F08DF802E00722874B1A6005F043FB08281DD1894B1B78DBB2AA2B15D1864B9B79DBB2C32B10D1844B70
:40214000DB79DBB23C2B0BD1814BDB78DBB27E2B06D10220012102F06DF80022774B1A600A2005F0F7FB05F04FFB00F0C2BE754C94F8120100F014FF84F8160206380528F4
:4021800000F2B786DFE810F00600B506B50616001F004C000023694A13600C21694A82F81512694A82F835310220012102F042F800F09FBE644B012283F83521002283F8D2
:4021C000032100F096BE5F4B93F8120101F0D8FA002800F08E865C4B93F83431012B0AD10121594B83F803110022544B1A60022002F020F80AE00622504B1A600122524BFF
:4022000083F8032102200B2102F014F800224E4B83F8352101224B4B83F8192200F069BE484B93F8120101F0ABFA002800F06186454B93F83431012B0AD10121454B83F827
:40224000031100223D4B1A60022001F0F3FF0AE006223A4B1A6001223B4B83F8032102200B2101F0E7FF0022374B83F835210122344B83F8192200F03CBE02200A2100227D
:4022800002F01EF918B1012845D000F032BE2E4B93F80031013B032B39D8DFE803F00A1D2935294A1A44002182F8DF100133DBB200E000230A2BF4D90022204B1A600220F5
:4022C000012101F0B7FF22E01F4A1A44002182F8EA100133DBB200E000230A2BF4D916E0194A1A44002182F8F5100133DBB200E000230A2BF4D90AE0134A1A44002182F894
:4023000036110133DBB200E000230A2BF4D905F07BFA00F0EEBD0C4B93F80031013B032B7FD8DFE803F01942585E074A1A4492F84B1082F8DF100133DBB20EE0F093FF1F9F
:402340004992FF1F9C84FF1FA890FF1FF98BFF1F2098FF1FFC8BFF1F0023B04A92F84B209A42E2D2AD4B93F8033173B1AC4B1878AC4B93F8121102F0BFFC0022AA4B1A60CC
:402380000220012101F056FF4BE00721A64B1960022001F04FFF44E0A04A1A4492F84B1082F8EA100133DBB200E000239B4A92F84B209A42F0D207219B4B1960022001F0DA
:4023C00039FF2EE0954A1A4492F84B1082F8F5100133DBB200E00023904A92F84B209A42F0D2002307E08D4A1A4492F84B1082F836110133DBB20A2BF5D90E228A4B1A609D
:4024000000228A4B1A700A22894B1A702A22894B1A700322814B83F800210220252101F009FF05F0F1F900F064BD05F0BFF9082840F05F85804B1B78DBB2AA2B42D17E4B7C
:402440009B79DBB2C32B3DD17B4BDB79DBB23C2B38D1794BDB78DBB2942B24D002D87E2B29D02FE0B62B02D0B72B0FD02AE00B226D4B1A6000226D4B1A700122674B83F835
:4024800034210220122101F0D5FE1BE00023634A82F800310721644A1160684A1370022001F0C8FE0EE000225F4B1A600220012101F0C0FE06E00220012101F0BBFE0022C6
:4024C000594B1A600A2005F045FA05F09DF900F010BD5B4805F0AAFF05F07AFF022003F0D5FB01286BD1332103F012FC40B966E0022003F077FC534B18550134E4B200E04D
:402500000124082CF4D90020012405E04D4B195D03F0A4FC0134E4B2072CF7D9494B1B7ADBB283424BD110233C4A5370012230E010464449895C01F00F01092908DD41492C
:40254000895C364C1C4401F00F013731617007E03C49895C314C1C4401F00F0130316170013BDBB23749095C9F2907D93549095C2A48184409093731417006E03149095C02
:4025800026481844090930314170013BDBB20132D2B2082ACCD90220132101F04BFE05F033F94FF42F7005F0D5F902201B4B83F8000109221C4B1A600E2101F03BFE1F4BAD
:4025C0001B783B2B40F295840023174A13601B4A13700220012101F02DFE00F08ABC05F0E5F8082840F08584134B1B78DBB2AA2B7CD1114B9B79DBB2C32B77D10E4BDB7967
:40260000DBB23C2B72D10C4BDB78DBB2552B33D01AD83B2B53D0462B1DD067E0A890FF1F4892FF1F9C84FF1FF093FF1F4A92FF1FFA8BFF1F3192FF1F2098FF1F4992FF1F0F
:40264000850000005897FF1F942B40D0B52B28D07E2B4BD143E00D22AA4B1A60AA4B1B78012B04D102202A2101F0E4FD3EE00220232101F0DFFD39E00E22A24B1A600622AA
:40268000A24B83F800210022A14B1A700522A14B1A702A22A04B1A700220252101F0CAFD24E00022974B1A609C4B012183F819120B2283F81522022001F0BCFD16E0002287
:4026C000904B1A600220012101F0B4FD0EE000228C4B1A600220012101F0ACFD06E00022884B1A600220012101F0A4FD0A2005F031F905F089F8FCE305F058F8082840F0F2
:40270000F883874B1B78DBB2AA2B44D1844B9B79DBB2C32B3FD1824BDB79DBB23C2B3AD17F4BDB78DBB2482B17D002D8472B05D031E07E2B20D0942B26D02CE00922714B3D
:402740001A600022724B1A700422704B83F800210220242101F06EFD1DE00922694B1A6000226B4B1A700422684B83F800210220242101F05FFD0EE00220012101F05AFDDB
:402780000022604B1A6006E00220012101F052FD00225C4B1A600A2005F0DCF805F034F8A7E302205B4B19785B4B1A7801F088FE10B101286ED09CE3544B93F80031013B41
:4027C000052B64D8DFE803F0091A2F6344570021544AD1540133DBB200E00023042BF6D90022484B1A600220012101F023FD4EE000214D4AD1540133DBB200E00023454ADB
:4028000012789342F4D300223E4B1A600220012101F010FD3BE03D4A1A44002182F841110133DBB200E000233A4A12789342F2D30022344B1A600220012101F0FBFC26E065
:40284000324A1A44002182F841110133DBB200E00023304A12789342F2D30022294B1A600220012101F0E6FC11E000212F4AD1540133DBB200E001232C4A12789A42F4D2F1
:402880000022204B1A600220012101F0D3FC04F0BBFF2EE31D4B93F80031013B052B00F2D280DFE813F00F0052006800D0007E009400591C154A0A4492F84B00194AD05487
:4028C000CBB200E00023042BF3D916480023037106F066FA80B2164B1880C3B2154C2370000A607020780A2105F0ECF960780B2105F0E8F90F22034B1A6002205A2101F0A6
:4029000099FCA0E0F093FF1F3092FF1FA890FF1F4A92FF1FFA8BFF1F3192FF1F9C84FF1F2098FF1F5097FF1F588DFF1F508DFF1F0096FF1F4492FF1F8D4A1A4492F84B1054
:402940008C4AD1540133DBB200E000238A4A12789342F1D30F22894B1A6002205A2101F069FC70E0824A1A4492F84B1082F841110133DBB200E000237F4A12789342F1D354
:4029800013227E4B1A600220392101F053FC5AE0774A1A4492F84B1082F841110133DBB200E00023744A12789342F1D30F22734B1A6002205A2101F03DFC44E06C4A1A44CC
:4029C00092F84B106E4AD1540133DBB200E001236B4A12789A42F1D2694B5A78694B5B789A4221D1664B9A78664B9B789A421BD1634BDA78634BDB789A4215D1604B1A7947
:402A0000604B1B799A420FD10220262101F012FC4FF42F7004F09EFF0F22584B1A6002205A2101F007FC0EE00220272101F002FC4FF42F7004F08EFF0022504B1A600220DE
:402A4000012101F0F7FB04F0DFFE52E204F0AEFE082840F04E824C4B1B78DBB2AA2B40F08180494B9B79DBB2C32B7BD1464BDB79DBB23C2B76D1444BDB78583B3C2B71D80B
:402A8000DFE803F052703D7070707070707070707033707070707070707070707070707070707070707070707070617070701F70707070707070707070707070707070700A
:402AC00069000E222D4B1A600023304A1370304A13700522284B1A700122254B83F800210220062101F0A6FB3CE01022234B1A60FDF794FD02206B2101F09CFB32E00E22CD
:402B00001E4B1A600023214A1370214A13700322194B1A700220174B1870154B83F80001062101F087FB1DE01222144B1A600022164B1A7004220E4B83F8002102203E216B
:402B400001F078FB0EE00220012101F073FB00220A4B1A6006E00220012101F06BFB0022064B1A600A2004F0F5FE04F04DFEC0E1A890FF1F588DFF1FFA8BFF1FF093FF1F73
:402B8000508DFF1F0C81FF1F2098FF1F4A92FF1F3192FF1F04F00AFE082840F0AA81644B1B78DBB2AA2B43D1614B9B79DBB2C32B3ED15F4BDB79DBB23C2B39D15C4BDB783F
:402BC000DBB2392B10D002D8382B05D030E07E2B1FD0942B25D02BE01122564B1A600220672101F027FB23E00F22524B1A600120514B1870514D02242C70082105F062F818
:402C00002878092105F05EF820465A2101F012FB0EE00220012101F00DFB0022454B1A6006E00220012101F005FB0022414B1A600A2004F08FFE04F0E7FD5AE104F0B6FDA1
:402C4000082840F056813A4B1B78DBB2AA2B68D1374B9B79DBB2C32B63D1354BDB79DBB23C2B5ED1324BDB787E3B162B59D8DFE803F04958585858585858585858585858B8
:402C80000C2135585858585851000F22294B1A600224294B1C70294D2C702046082105F011F82878092105F00DF820465A2101F0C1FA36E00F221F4B1A6001201E4B187037
:402CC0001E4C2070082104F0FDFF2078092104F0F9FF02205A2101F0ADFA22E00F22154B1A600020144B1870144C2070082104F0E9FF2078092104F0E5FF02205A2101F0AD
:402D000099FA0EE00220012101F094FA0022094B1A6006E00220012101F08CFA0022054B1A600A2004F016FE04F06EFDE1E000BF2098FF1FF093FF1FB197FF1F4892FF1FEC
:402D400001F088FE01283CD16B4F7978C1F30011303101260096002501954E2402940220C9B20D22082301F047FB797801F00F01009601950294022030310D22092301F0A8
:402D80003BFB00960195029402203A210D220A2301F032FB39780909009601950294022030310D220B2301F027FB397801F00F01009601950294022030310D220C2301F066
:402DC0001BFB01F0EBFD01285DD14C4F3978C1F3011101260096002501954E240294022030311522082301F007FB397801F00F01009601950294022030311522092301F0D8
:402E0000FBFA00960195029402202F2115220A2301F0F2FA7978C1F3001130310096019502940220C9B215220B2301F0E5FA797801F00F010096019502940220303115220F
:402E40000C2301F0D9FA00960195029402202F2115220D2301F0D0FAB97809090096019502940220303115220E2301F0C5FAB97801F00F01009601950294022030311522BB
:402E80000F2301F0B9FA04F091FC082831D11C4B1B78DBB2AA2B20D1194B9B79DBB2C32B1BD1174BDB79DBB23C2B16D1144BDB78DBB27E2B02D0942B08D00EE00022114B0F
:402EC0001A600220012101F0B5F906E000220D4B1A600220012101F0ADF90A2004F03AFD04F092FC05E00123074A82F81932074A137005B0F0BD00BFB497FF1F3492FF1F88
:402F00002098FF1FF093FF1F9C84FF1FF88BFF1F08B562B6FDF7DCF8FDF71EFBFDF74AF90320002104F036FDFDF7DAFB04F052FDFEF7E6FD04F04EFD03F0A2FC04F04AFD00
:402F4000154B1B78DBB2012B0DD1144B187800F0CFF830B1114B012283F80721002283F8192204F037FD0C4B1B78DBB2022B0ED10A4B93F8120100F0BBF830B1074B0122AF
:402F800083F81922002283F8072104F023FD04F021FD02F08DFFC7E7488DFF1F9C84FF1F10B5044604F00AFE204604F029FE3C2004F0D0FC04F0CEFD38B104F099FDC0F386
:402FC000071404F0FBFD204610BD002010BD00BF10B5464BFF221A7083F8122183F8242283F83623012454E0204604F009FE642004F0B0FC04F0AEFD38B13C4B1B78FF2BFD
:4030000003D13A4B1C7004F0D9FD04F0A3FD68B1364B1B78A34209D0344B93F81231FF2B04D1324B83F8124104F0C8FD04F092FD90B12E4B1B78A3420ED02C4B93F812313A
:40304000A34209D0294B93F82432FF2B04D1274B83F8244204F0B2FD04F07CFDB8B1234B1B78A34213D0214B93F81231A3420ED01E4B93F82432A34209D01C4B93F8363349
:40308000FF2B04D1194B83F8364304F097FD0134E4B2102CA8D9154B1B78FF2B0ED0134A92F81221FF2A09D0104A92F82422FF2A04D00E4A92F83623FF2A0FD1FF2B04D029
:4030C0000A4A92F81221FF2A0AD1FF2B0AD1074B93F81231FF2B07D0012010BD042010BD022010BD012010BD002010BD9C84FF1FF8B5054604F062FD45F0500004F080FD6D
:4031000004F068FC4FF4617004F024FC04F062FC04F020FDC0B2222806D0402804D05E2802D07C2840F02281B44B1B78DBB2FF2B40F01881B14B5B78DBB2F62B40F01281BD
:40314000AE4BDB78DBB2F92B40F00C81AC4CA4FB0030C0F30214AB4B1B78AB421DD0002699E0C5EB051006EB4603C3EB031203461344A44A13440B4400225A700131C9B274
:4031800000E000210D29ECD90135EDB200E00025022DF6D90136F6B200E00026032EF6D900252F4655E02B1D944AD05CC6EB061E07EB4703C3EB031273461344914A13441F
:4031C0005B1A00F00F0230329A720135EDB2022E01D1042905D00131C9B200E001210829E1D90135EDB20136F6B200E00026022EF4D90735EDB204220CE007EB4703C3EBEA
:40320000031380490B44D11891F823101344D977013AD2B2002AF0D107EB4703C3EB0313784A134408225A701A740422DA77764B1B78DBB2012B0AD107EB4703C3EB031370
:40324000704A13440522DA77302283F824200137FFB2A742CAD304F0B1FC2046F8BDC5EB051006EB4603C3EB031203461344654A13440B44002283F813210131C9B200E074
:4032800000210D29EBD90135EDB200E00025022DF6D90136F6B2032EF8D900252F465BE02B1D564AD05CC6EB061E07EB4703C3EB031273461344534A13445B1A00F00F0203
:4032C000303283F81C210135EDB2022E01D1042905D00131C9B200E001210829E0D90135EDB20136F6B200E00026022EF4D90735EDB204220DE007EB4703C3EB0313414913
:403300000B44D11891F83511134483F83111013AD2B2002AEFD107EB4703C3EB0313394A1344082283F8132183F82221042283F83121354B1B78DBB2012B0BD107EB470381
:40334000C3EB03132F4A1344052283F83121302283F836210137FFB2A742C5D304F02EFC2046F8BD04F02AFC0020F8BD2E2806D0582804D0822802D0AC2840F00B811F4B19
:403380001B78DBB2FF2B40F001811C4B5B78DBB2F62B40F0FB80194BDB78DBB2F92B40F0F5801A4CA4FB00304409164B1B78AB421DD0002694E0C5EB051006EB4603C3EBDA
:4033C0000312034613440F4A13440B4400225A700131C9B200E000210D29ECD90135EDB200E00025022DF6D90136F6B200E00026032EF6D900252F4650E000BF4098FF1F48
:40340000898888889C84FF1FB093FF1FCDCCCCCC2B1D624AD05CC6EB061E07EB4703C3EB0312734613445E4A13445B1A00F00F0230329A730135EDB2022E01D1062905D0D8
:403440000131C9B200E001210C29E1D90135EDB20136F6B200E00026022EF4D90935EDB206220CE007EB4703C3EB03134C490B44D11891F825101344D977013AD2B2002AEB
:40348000F0D107EB4703C3EB0313454A13440C225A701A740622DA770137FFB2A742DAD304F08CFB2046F8BDC5EB051006EB4603C3EB031203461344394A13440B440022A4
:4034C00083F813210131C9B200E000210D29EBD90135EDB200E00025022DF6D90136F6B2032EF8D900252F464AE02B1D2B4AD05CC6EB061E07EB4703C3EB0312734613442B
:40350000274A13445B1A00F00F02303283F820210135EDB2022E01D1062905D00131C9B200E001210C29E0D90135EDB20136F6B200E00026022EF4D90935EDB206220DE00E
:4035400007EB4703C3EB031315490B44D11891F83711134483F83111013AD2B2002AEFD107EB4703C3EB03130D4A13440C2283F8132183F82221062283F831210137FFB200
:40358000A742D6D304F01AFB2046F8BD04F016FB0020F8BD04F012FB0020F8BD4098FF1F9C84FF1FF0B585B004460E461546714F6B4638687968BA6807C3B989BA7B1980B0
:4035C0009A70012310E0EA5C2C2A0BD105E0EA1812F8012CEA54013BDBB2012BF7D830236B7003E00133DBB2062BECD9624B1B78072B4CD0E5238DF8013006F00F0363F0A6
:403600001F038DF804305D4B1B7813F0FF0F0DD000231AE0EA5C04A9194402F00F0262F01F0201F80A2C0133DBB200E00023032BF0D90CE0EA5C04A9194402F00F0262F028
:403640001F0201F80A2C0133DBB2022BF2D9FB238DF80A3000230CE004AA1A4412F8102C02F00F029DF80B100A448DF80B200133DBB20A2BF0D99DF80B305B4203F00F0321
:4036800063F01F038DF80B30F0238DF80C303A4B1B78072B39D1E3238DF8013006F00F0666F01F068DF8046000230AE0EA5C04A9194402F00F0262F01F0201F80A2C01334C
:4036C000DBB2052BF2D9FB238DF80C3000230CE004AA1A4412F8102C02F00F029DF80D100A448DF80D200133DBB20C2BF0D99DF80D305B4203F00F0363F01F038DF80D30E1
:40370000F0238DF80E300E2600E00C2604F056FA44F0200004F074FA642004F01BF904F019FAF0B104F0E4F944F0D00398421AD104F044FA002507E004AB2B4413F8100C1F
:4037400004F05EFA0135EDB2B542F5D904F036FA322004F0FFF82046FFF722FC034620B904E0002302E0002300E00123184605B0F0BD00BFEC8F00004792FF1FB093FF1F04
:4037800010B5044604F01AFA44F0400004F038FAFA2004F0DFF804F01DF9B74B1B78072B00F0F28004F0D6F9212840F0ED80B34B1B78DBB2FF2B40F0AF81B04B9B78DBB254
:4037C000F82B40F0AB81AD4B93F82030DBB2F02B40F0A681AA4B1B78A3426AD1A74B5B7A03F00F033133A64A82F8FF3001230CE003F10B02A1498A5CA249C91A02F00F0255
:40380000303281F8F1200133DBB2042BF0D904229B4B83F8F1209C4B1B78DBB2012B06D1974B052283F8F120302283F8F62001230CE003F1100291498A5C9449C91A02F041
:403840000F02303281F8E3200133DBB2062BF0D906228B4B83F8E32001230CE003F1170286498A5C8949C91A02F00F02303281F8D5200133DBB2062BF0D97F4B1B78052B80
:4038800011D109E05A1E7E49881890F8D5000B4483F8D500D3B200E00623012BF2D83022774B83F8D6200622754B83F8D520012010BD724B5B7A03F00F033133704A82F8E4
:4038C000113201230CE003F10B026C498A5C6D49C91A02F00F02303281F803220133DBB2042BF0D90422664B83F80322664B1B78DBB2012B06D1624B052283F80322302273
:4039000083F8082201230CE003F110025B498A5C5E49C91A02F00F02303281F8F5210133DBB2062BF0D90622554B83F8F52101230CE003F1170251498A5C5449C91A02F0A1
:403940000F02303281F8E7210133DBB2062BF0D9494B1B78052B11D109E05A1E4849881890F8E7010B4483F8E701D3B200E00623012BF2D83022424B83F8E8210622404B11
:4039800083F8E721012010BD3B4B1B78072B40F0C98004F0DFF8272840F0C680374B1B78DBB2FF2B40F0C280344B9B78DBB2F82B40F0BE80314B93F82630DBB2F02B40F01F
:4039C000B9802F4B1B78A3424BD12C4B5B7A03F00F0331332A4A82F8FF3001230CE003F10B0226498A5C2949C91A02F00F02303281F8F1200133DBB2062BF0D90622204BB6
:403A000083F8F12001230CE003F112021B498A5C1F49C91A02F00F02303281F8E3200133DBB2082BF0D90822154B83F8E32001230CE003F11C0211498A5C1549C91A02F012
:403A40000F02303281F8D5200133DBB2072BF0D90B4B302283F8D620082283F8D520012010BD064B5B7A03F00F033133044A82F8113201231BE000BF4792FF1F4098FF1FA3
:403A80009C84FF1FA184FF1FB093FF1FA384FF1FA584FF1F03F10B0227498A5C2749C91A02F00F02303281F803220133DBB2062BF0D90622224B83F8032201230CE003F1F7
:403AC00012021D498A5C1F49C91A02F00F02303281F8F5210133DBB2082BF0D90822184B83F8F52101230CE003F11C0212498A5C1449C91A02F00F02303281F8E72101338F
:403B0000DBB2072BF0D90E4B302283F8E821082283F8E721012010BD002010BD002010BD002010BD002010BD002010BD002010BD002010BD002010BD4098FF1FA384FF1F90
:403B40009C84FF1FA584FF1F30B1002802DB831F062B01D90020704701207047002104E003F00F030B44D9B201300378FB2BF7D103F00F028818404200F00F0040F0E000CB
:403B8000704700BF2DE9F04186B000230193029303930493ADF81430012314E0D55C2C2D0FD1E41AE4B2032C06D924E2D51815F8015CD554013BDBB2012BF7D8302353702C
:403BC00005E00133DBB214789C42E7D200241578B14B1B789D4209D11AE0AF4D2D78ED1AF61A965D56550133DBB200E0002316789E42F2D8A84B1D78AB1BDBB203E03025A4
:403C0000D554013BDBB2002BF9D1A34B1B78137015460F460646FFF7C3F90638C0B201280AD846F0200003F0EBFF322003F092FE03F05EFF804601E04FF0000803F0BEFF3A
:403C400003F0BCFF46F0D003434540F0D681FF238DF80430E1238DF80530904B1B78B34240F022818E4A92F8633063F00F038DF80630F6238DF807307B1E03F00F0363F0D4
:403C80001F038DF80830F8238DF8093092F86460462E09D006231AE006AA1A44E92102F8141C0133DBB200E006237B4A127806329342F1DB1A4608E006A91144E02001F815
:403CC000140C0133DBB20132D2B20D2AF4D9442E20D128781A460CE0295C06AF174401F00F0161F01F0107F8141C0138C0B20132D2B2297819448A42EEDB134608E006A9BE
:403D00001144E02001F8140C0133DBB20132D2B20D2AF4D9562E40F099805F4A1278072A32D0604A1278511E8C420CDD2A7805E0A91811F8011CA954013AD2B2012AF7D8E8
:403D400030226A7061E08C425FDA111B0139C9B2012215E0164688182C5CAC542C78A0420CD105E0B118302068540132D2B200E001222978891B8A42F4DD46E00132D2B2BC
:403D800028789042E6D240E0012C1FD9454A1078001BC0B2012215E0144681186E5CAE542E78B1420CD105E0A118302068540132D2B200E001222978091B8A42F4DD24E0D9
:403DC0000132D2B229789142E6D21EE0354A1178091BC9B2012215E010468C182E5DAE542E78B4420CD105E0811830246C540132D2B200E001222978091A8A42F4DD04E092
:403E00000132D2B228789042E6D228781A460CE0295C06AC144401F00F0161F01F0104F8141C0138C0B20132D2B2297819448A42EEDB134608E006A91144E02001F8140C35
:403E40000133DBB20132D2B20D2AF4D906AA1A44FB2102F8141C0133DCB201A8FFF77EFE06AB234403F8140C0134E5B206AB2B44F02203F8142C002407E006AB234413F8FB
:403E8000140C03F0BDFE0134E4B2AC42F5D9322003F060FD0120B3E04792FF1F9C84FF1FFC8BFF1F908DFF1F574B93F81231B34240F0A580554A92F8633063F00F038DF8E2
:403EC0000630F6238DF807307B1E03F00F0363F01F038DF80830F8238DF8093092F86440462C09D006231AE006AA1A44E92102F8141C0133DBB200E00623454A1278063215
:403F00009342F1DB1A4608E006A91144E02001F8140C0133DBB20132D2B20D2AF4D9442C20D128781A460CE0295C06AE164401F00F0161F01F0106F8141C0138C0B20132A1
:403F4000D2B2297819448A42EEDB134608E006A91144E02001F8140C0133DBB20132D2B20D2AF4D9562C20D128781A460CE0295C06AC144401F00F0161F01F0104F8141CC4
:403F80000138C0B20132D2B2297819448A42EEDB134608E006A91144E02001F8140C0133DBB20132D2B20D2AF4D906AA1A44FB2102F8141C0133DCB201A8FFF7CFFD06AB00
:403FC000234403F8140C0134E5B206AB2B44F02203F8142C002407E006AB234413F8140C03F00EFE0134E4B2AC42F5D9322003F0B1FC012004E0002002E0002000E0002019
:4040000006B0BDE8F08100BF9C84FF1FA890FF1F4792FF1FF0B585B000AF0446FEF7C0FF06280AD144F0200003F0EAFD322003F091FC03F05DFD054600E0002503F0BEFD8F
:4040400044F0D004AC4222D1FF233B71E9237B71FE23BB71EE23FB71E0233B727B72FB23BB72381DFFF77AFDF872F0233B73002408E007F11003234413F80C0C03F0C0FDA1
:404080000134E4B2082CF4D9C82003F063FC03F061FDC6B2F31D23F00703ADEB030D6D46002404E003F024FD28550134E4B2B442F8D903F083FDAB7A03F00F03264A1370EE
:4040C0002B7B03F00F03254A1370012B0AD1244A47211170612151706C2191702021D17011715171022B0CD11D4B55221A706B225A7020229A704722DA7061221A716C22C9
:404100005A71AB7B03F00F03013B164A13702B7C03F00F03012B01D0042B02D10321124A1170032B00D013B902210F4A1170022B02D101220C4B1A70AB7C03F00F03013B8B
:404140000A4A13702B7D03F00F03094A137000201437BD46F0BD00BF8F8DFF1F9897FF1FF893FF1FF491FF1F908DFF1F9697FF1FB097FF1FF0B585B000AF0446FEF710FF76
:404180000638C0B201280AD844F0200003F038FD322003F0DFFB03F0ABFC054600E0002503F00CFD44F0D004AC4222D1FF233B71E9237B71FE23BB71E023FB71E1223A72A9
:4041C0007B72FB23BB72381DFFF7C8FCF872F0233B73002408E007F11003234413F80C0C03F00EFD0134E4B2082CF4D9962003F0B1FB03F0AFFCC5B2EB1D23F00703ADEBBB
:40420000030D6E46002404E003F072FC30550134E4B2AC42F8D903F0D1FC337B03F00F03012B03D1B07B00F00F0000E000201437BD46F0BD30B583B005460A4610496B46ED
:404240000868496803C3130A8DF802308DF80320002410E0012D06D102AB234413F8080C03F0FCF905E002AB234413F8080C03F0EDFA0134E4B2072CECD903B030BD00BF93
:40428000FC8F00002DE9F04387B005468C4616461C469DF83870BDF83CE00DF10408DFF8A89059F8080FD9F80410D9F80820D9F80C30A8E80F00B9F81030A8F800307A1CA8
:4042C00002FB04F303EB43039B001B128DF8063004FB02F404EB4404A3008DF80730C6EBC6035B001B128DF80830C6EBC60673008DF8093020378DF80A709DF84030592B3C
:4043000002D185238DF80B304FEA1E238DF80D308DF80EE08DF811C0002410E0012D06D106AB234413F8140C03F098F905E006AB234413F8140C03F089FA0134E4B2112CB7
:40434000ECD907B0BDE8F083FC8F000070B584B005460E466B46134C54F81C0F6168A26807C3A2891A808DF807608DF80960002410E0012D06D104AB234413F8100C03F01A
:404380006DF905E004AB234413F8100C03F05EFA0134E4B20D2CECD9642003F0DBFA04B070BD00BFFC8F0000F0B585B007460E46154600240DE0315D012300930023019307
:4043C0004E23029338461F222B19FFF75BFF0134E4B2092CEFD905B0F0BD00BF054B04E0824201D15878704702331A78002AF7D1002070472081FF1F2DE9F04387B0054610
:404400008C4616461C469DF83870BDF83CE00DF10408DFF8A89059F82C0FD9F80410D9F80820D9F80C30A8E80F00B9F81030A8F800307A1C02FB04F303EB43039B001B1268
:404440008DF8063004FB02F404EB4404A3008DF80730C6EBC6035B001B128DF80830C6EBC60673008DF8093023378DF80A709DF84030592B02D185238DF80B304FEA1E23F2
:404480008DF80D308DF80EE08DF811C0002410E0012D06D106AB234413F8140C03F0DEF805E006AB234413F8140C03F0CFF90134E4B2112CECD907B0BDE8F083FC8F000042
:4044C00030B585B00D461446012840F0108103F075F8082840F02F82A84B1B78DBB2AA2B40F0FE80A54B9B79DBB2C32B40F0F880A24BDB79DBB23C2B40F0F280A04B1B7888
:40450000DBB2013DAB4200F39F809C4BD878FFF765FF0546A0F12003DBB20B2B2AD8984A13780133DBB213701378964A134483F84B008CB9924B1A781B7892490A4492F829
:404540004B1001200090002201924E22029203220233FFF751FF78E0894B1B7801200090002201924E220292214603220233FFF743FF6AE0A0F12D03DBB2512B2AD8804AD4
:4045800013780133DBB2137013787E4A134483F84B008CB97A4B1A781B787A490A4492F84B1001200090002201924E22029203220233FFF721FF48E0714B1B780120009095
:4045C000002201924E220292214603220233FFF713FF3AE02C2838D1694B1B7813F0FF0F33D0694B1B7813F0FF0F2ED1644A13780133DBB213700121634B19701378614A04
:40460000134483F84B008CB95D4B1A781B785D490A4492F84B1001200090002201924E22029203220233FFF7E7FE0EE0544B1B7801200090002201924E22029221460322BD
:404640000233FFF7D9FE00E000254C4BDB78DBB20B2B26D14A4B1B7803F0FF042BB9142003F078F902F0D8FF68E1454C237801200090002201924E220292202103220233B2
:40468000FFF7BAFE23783F4A134493F84B302C2B02D100223C4B1A70394A1378013BDBB213700A2D10D1364B1B7813F0FF0F0BD0334B1A78334B83F84B20142003F04AF91E
:4046C00002F0AAFF012439E12C4BDB78DBB2942B06D1142003F03EF902F09EFF00242DE1142003F037F902F097FF022426E103F05DF8082840F02181244B1B78DBB2AA2B1A
:4047000040F01281214B9B79DBB2C32B40F00C811E4BDB79DBB23C2B40F006811C4B1B78DBB2013DAB4200F3B580184BD878FFF755FE0546A0F12003DBB20B2B3BD8144A8D
:4047400013780133DBB213701378124A134483F84B000CBB0E4B1A781B780E490A4492F84B1001220092002201924E220292022003220344FFF740FE8DE000BF0098FF1F85
:404780004A92FF1FFC8BFF1FF793FF1F2098FF1F9797FF1FA890FF1F6A4B1B7801220092002201924E2202920220214602460344FFF722FE6FE0A0F12D03DBB2512B2CD839
:4047C000604A13780133DBB2137013785E4A134483F84B0094B95B4B1A781B785A490A4492F84B1001220092002201924E220292022003220344FFF7FFFD4CE0514B1B78B9
:4048000001220092002201924E2202920220214602460344FFF7F0FD3DE02C283BD1494B1B7813F0FF0F36D0484B1B7813F0FF0F31D1444A13780133DBB213700121434B0E
:4048400019701378424AD2783F490B4483F84B208CB93C4B1A781B780A4492F84B1001220092002201924E220292022003220344FFF7C2FD0FE0334B1B78012200920022E5
:4048800001924E2202920220214602460344FFF7B3FD00E000250B2D27D12A4B1B7803F0FF042BB9142003F055F802F0ADFF45E0244C237801220092002201924E220292DC
:4048C0000220202102460344FFF796FD23781E4A134493F84B302C2B02D100221B4B1A70184A1378013BDBB213700A2D10D1154B1B7813F0FF0F0BD0124B1A78124B83F8AA
:404900004B20142003F026F802F07EFF012415E00F4BDB78DBB2942B06D1142003F01AF802F072FF002409E0142003F013F802F06BFF022402E0022400E00224204605B0E8
:4049400030BD00BF9797FF1FA890FF1FE488FF1F2098FF1F10B582B08DF804008DF8051003F09CFC0720002103F0E4FB58B1002011E002AB234413F8040C03F037FC48B95A
:404980000134E4B200E00024012CF2D903F012FC012000E0002002B010BD00BF38B504241DE003F07BFC6820002103F0C3FBD0B9204603F01BFCC0B903F0FCFB0A2002F082
:4049C000C9FF6820012103F0B5FB80B9251F03F039FC084B585503F0EDFB0134E4B2062CDFD9012038BD002038BD002038BD002038BD00BF3492FF1F10B582B004238DF8D2
:404A00000430134B1A788DF805205A788DF806209B788DF8073003F041FC6820002103F089FB58B1002011E002AB234413F8040C03F0DCFB48B90134E4B200E00024032CFA
:404A4000F2D903F0B7FB012000E0002002B010BDA097FF1F38B501241DE003F01FFC6820002103F067FBD0B9204603F0BFFBC0B903F0A0FB0A2002F06DFF6820012103F0EE
:404A800059FB80B9651E03F0DDFB084B585503F091FB0134E4B2022CDFD9012038BD002038BD002038BD002038BD00BFB497FF1F10B582B001238DF80430124B1A788DF826
:404AC00005205B788DF8063003F0E8FB6820002103F030FB58B1002011E002AB234413F8040C03F083FB48B90134E4B200E00024022CF2D903F05EFB012000E0002002B0C4
:404B000010BD00BFF493FF1F38B504460E2900F2DA80DFE801F01221303F4ED85D6C7B8998A7B6C5D400704B2B44204693F88014FFF710FF0135ADB200E00025B5F56C7FCC
:404B4000F1D3C0E0684B2B44204693F83018FFF701FF0135ADB200E00025B5F56C7FF1D3B1E0614B2B44204693F8E01BFFF7F2FE0135ADB200E00025B5F56C7FF1D3A2E09A
:404B8000594B2B44204693F8901FFFF7E3FE0135ADB200E00025B5F56C7FF1D393E0534B2B44204693F84812FFF7D4FE0135ADB200E00025B5F56C7FF1D384E04B4B2B4489
:404BC000204693F8F815FFF7C5FE0135ADB200E00025B5F56C7FF1D375E0444B2B44204693F8A819FFF7B6FE0135ADB200E00025B5F56C7FF1D366E03C4B2B44204693F83C
:404C0000581DFFF7A7FE0135ADB200E00025B5F56C7FF1D357E0364B2B442046197CFFF799FE0135ADB200E00025B5F56C7FF2D349E02F4B2B44204693F8C013FFF78AFE7A
:404C40000135ADB200E00025B5F56C7FF1D33AE0274B2B44204693F87017FFF77BFE0135ADB200E00025B5F56C7FF1D32BE0204B2B44204693F8201BFFF76CFE0135ADB266
:404C800000E00025B5F56C7FF1D31CE0184B2B44204693F8D01EFFF75DFE0135ADB200E00025B5F56C7FF1D30DE0124B2B44204693F88811FFF74EFE0135ADB200E0002586
:404CC000B5F56C7FF1D320461B21FFF743FE20464021FFF73FFE20460A21FFF73BFE20460A21FFF737FE38BD1CD4000014E500000CF6000004070100F8B504460E46C04BCA
:404D00001B78012B04D1BF4B18780021FFF7FCFE20460A21FFF71EFE002506E02046BA4B595DFFF717FE0135EDB21D2DF6D920460A21FFF70FFE002506E02046B34B595DB3
:404D4000FFF708FE0135EDB21D2DF6D920460A21FFF700FE002506E02046AD4B595DFFF7F9FD0135EDB21D2DF6D920460A21FFF7F1FD002506E02046A64B595DFFF7EAFD61
:404D80000135EDB21D2DF6D920460A21FFF7E2FD002506E02046A04B595DFFF7DBFD0135EDB21D2DF6D920460A21FFF7D3FD002508E0994B2B44204693F82010FFF7CAFD3C
:404DC0000135EDB20C2DF4D9FFF7E8FD012832D1924D2978C1F3011120463031FFF7BAFD297801F00F0120463031FFF7B3FD20462F21FFF7AFFD6978C1F300113031204643
:404E0000C9B2FFF7A7FD697801F00F0120463031FFF7A0FD20462F21FFF79CFDA978090920463031FFF796FDA97801F00F0120463031FFF78FFD20460A21FFF78BFD0025BA
:404E400008E0754B2B44204693F83010FFF782FD0135EDB20C2DF4D9FFF7FCFD012820D16F4D6978C1F3001130312046C9B2FFF771FD697801F00F0120463031FFF76AFD83
:404E800020463A21FFF766FD2978090920463031FFF760FD297801F00F0120463031FFF759FD20460A21FFF755FD002506E02046594B595DFFF74EFD0135EDB21D2DF6D983
:404EC00020460A21FFF746FD002508E0524B2B44204693F84010FFF73DFD0135EDB20C2DF4D9504DA5FB0635ED08204605F13001FFF730FD05EB85056D00751B05F13001C8
:404F00002046C9B2FFF726FD20460A21FFF722FD002508E0404B2B44204693F85010FFF719FD0135EDB20C2DF4D93F4B1B78B3420DD109E03C4B2B44204693F80811FFF7C3
:404F400009FD0135EDB200E00025092DF2D9364B93F81231B3420DD109E0334B2B44204693F81A12FFF7F6FC0135EDB200E00025092DF2D92C4B93F82432B3420DD109E064
:404F8000294B2B44204693F82C13FFF7E3FC0135EDB200E00025092DF2D9234B93F83633B3420DD109E0204B2B44204693F83E14FFF7D0FC0135EDB200E00025092DF2D956
:404FC00020460A21FFF7C6FC174B1B78B34240F034830025154B83F8345108E00E4B2B44204693F86010FFF7B5FC0135EDB20C2DF4D920460A21FFF7ADFC002521E000BF6A
:405000003792FF1FB197FF1FF891FF1F7897FF1F708DFF1F7C84FF1F7481FF1F3492FF1FB497FF1FCDCCCCCC9C84FF1FFC8BFF1FBE4B2B44204693F87010FFF78BFC013506
:40504000EDB20C2DF4D9BA4B1B78062B23D9B94B93F8F330302B03D10022B64B83F8F320022508E0B34B2B44204693F8F110FFF771FC0135EDB2AF4B93F8F130AB42F1D238
:405080000FE0AC4B2B44204693F8F110FFF762FC0135EDB200E00125A64B93F8F130AB42EFD220462021FFF755FC20469F4B93F88010FFF74FFC20462F21FFF74BFC00257D
:4050C00006E020469C4B595DFFF744FC0135EDB2042DF6D920460A21FFF73CFC002508E0924B2B44204693F88410FFF733FC0135EDB20C2DF4D98F4B93F8E430302B03D177
:4051000000228C4B83F8E4208A4B93F8E43043B9884B93F8E530302B03D10022854B83F8E520844B93F8E37013E0824A92F8E330DB1B1344204693F8E310FFF70BFC7F4B72
:405140001B789F4203D120462E21FFF703FC013FFFB2002FE9D120462021FFF7FBFB3D4606E02046744B595DFFF7F4FB0135EDB2042DF6D920460A21FFF7ECFB3D4608E0F9
:405180006A4B2B44204693F89410FFF7E3FB0135EDB20C2DF4D9674B93F8D630302B03D10022644B83F8D620624B93F8D63043B9604B93F8D730302B03D100225D4B83F8E8
:4051C000D720012510E05B4B2B44204693F8D510FFF7C0FB5A4B1B789D4203D120462E21FFF7B8FB0135EDB2524B93F8D530AB42E9D220462021FFF7ADFB20464B4B93F847
:405200008010FFF7A7FB20460A21FFF7A3FB4D4B93F86130012B42D109E0444B2B44204693F8A410FFF796FB0135EDB200E03D460C2DF2D9012508E0424B2B44204693F8E4
:40524000DF10FFF787FB0135EDB23E4B93F8DF30AB42F1D220460A21FFF77CFB3D4608E0324B2B44204693F8B410FFF773FB0135EDB20C2DF4D9012508E0324B2B44204676
:4052800093F86510FFF766FB0135EDB22D4B93F86530AB42F1D220460A21FFF75BFB3D4606E02046214B595DFFF754FB0135EDB21D2DF6D920460A21FFF74CFB214B93F8B4
:4052C0006130022B40F0B98109E0184B2B44204693F8C410FFF73EFB0135EDB200E03D460C2DF2D9012508E0164B2B44204693F8EA10FFF72FFB0135EDB2124B93F8EA30DB
:40530000AB42F1D220460A21FFF724FB3D4608E0064B2B44204693F8D410FFF71BFB0135EDB20C2DF4D9012516E000BF7481FF1F4792FF1F9C84FF1FF893FF1F908DFF1F29
:40534000F491FF1FFC8BFF1FC44B2B4420465978FFF700FB0135EDB2C04B5B78AB42F3D220460A21FFF7F6FA3D4608E0BC4B2B44204693F8A410FFF7EDFA0135EDB20C2DF2
:40538000F4D9012508E0B54B2B44204693F8F510FFF7E0FA0135EDB2B04B93F8F530AB42F1D220460A21FFF7D5FA3D4608E0AC4B2B44204693F8E410FFF7CCFA0135EDB210
:4053C0000C2DF4D9012301E00133DBB2A34A92F8F5209A42F8D220460A21FFF7BBFA3D4608E09F4B2B44204693F8F410FFF7B2FA0135EDB20C2DF4D9012301E00133DBB277
:40540000964A92F8F5209A42F8D220460A21FFF7A1FA3D4608E0924B2B44204693F80411FFF798FA0135EDB20C2DF4D9012301E00133DBB2894A92F8F5209A42F8D22046C1
:405440000A21FFF787FA3D4608E0854B2B44204693F81411FFF77EFA0135EDB20C2DF4D9012301E00133DBB27C4A92F8F5209A42F8D220460A21FFF76DFA3D4608E0784B94
:405480002B44204693F82411FFF764FA0135EDB20C2DF4D9012301E00133DBB26F4A92F8F5209A42F8D220460A21FFF753FA3D4608E06B4B2B44204693F83411FFF74AFA90
:4054C0000135EDB20C2DF4D9012301E00133DBB2624A92F8F5209A42F8D220460A21FFF739FA3D4608E05E4B2B44204693F84411FFF730FA0135EDB20C2DF4D9012301E097
:405500000133DBB2554A92F8F5209A42F8D220460A21FFF71FFA3D4608E0514B2B44204693F85411FFF716FA0135EDB20C2DF4D9012301E00133DBB2484A92F8F5209A42A6
:40554000F8D220460A21FFF705FA3D4608E0444B2B44204693F86411FFF7FCF90135EDB20C2DF4D9012301E00133DBB23B4A92F8F5209A42F8D220460A21FFF7EBF93D46C8
:4055800008E0374B2B44204693F87411FFF7E2F90135EDB20C2DF4D9012301E00133DBB22E4A92F8F5209A42F8D220460A21FFF7D1F920460A21FFF7CDF93D4608E0284BF1
:4055C0002B44204693F88411FFF7C4F90135EDB20C2DF4D920460A21FFF7BCF920460A21FFF7B8F920460A21FFF7B4F93D4608E01B4B2B44204693F89411FFF7ABF90135DA
:40560000EDB20C2DF4D920460A21FFF7A3F920460A21FFF79FF920460A21FFF79BF906E020460F4BD95DFFF795F90137FFB21D2FF6D920460A21FFF78DF90A4B93F81231D4
:40564000B34240F0FE820FE0054B2B44204693F86010FFF77FF90135EDB206E0FC8BFF1F7481FF1F9C84FF1F00250C2DECD920460A21FFF76FF9002508E0BE4B2B4420465A
:4056800093F87010FFF766F90135EDB20C2DF4D9012508E0B84B2B44204693F80312FFF759F90135EDB2B44B93F80332AB42F1D220462021FFF74EF92046AE4B93F880103F
:4056C000FFF748F920462F21FFF744F9002506E02046AA4B595DFFF73DF90135EDB2042DF6D920460A21FFF735F9002508E0A14B2B44204693F88410FFF72CF90135EDB2DB
:405700000C2DF4D99C4B93F8F631302B03D10022994B83F8F621984B93F8F63143B9964B93F8F731302B03D10022934B83F8F721012510E0904B2B44204693F8F511FFF7CF
:4057400009F98F4B1B789D4203D120462E21FFF701F90135EDB2884B93F8F531AB42E9D220462021FFF7F6F8002506E02046834B595DFFF7EFF80135EDB2042DF6D92046C9
:405780000A21FFF7E7F8002508E07A4B2B44204693F89410FFF7DEF80135EDB20C2DF4D9754B93F8E831302B03D10022724B83F8E821714B93F8E83143B96F4B93F8E931BB
:4057C000302B03D100226C4B83F8E921012510E0694B2B44204693F8E711FFF7BBF8694B1B789D4203D120462E21FFF7B3F80135EDB2614B93F8E731AB42E9D2204620218E
:40580000FFF7A8F820465B4B93F88010FFF7A2F820460A21FFF79EF85B4B93F86130012B42D109E0534B2B44204693F8A410FFF791F80135EDB200E000250C2DF2D90125DF
:4058400008E0514B2B44204693F8DF10FFF782F80135EDB24C4B93F8DF30AB42F1D220460A21FFF777F8002508E0424B2B44204693F8B410FFF76EF80135EDB20C2DF4D944
:40588000012508E0404B2B44204693F86510FFF761F80135EDB23C4B93F86530AB42F1D220460A21FFF756F8002506E02046314B595DFFF74FF80135EDB21D2DF6D92046F6
:4058C0000A21FFF747F8304B93F86130022B40F0B88109E0274B2B44204693F8C410FFF739F80135EDB200E000250C2DF2D9012508E0254B2B44204693F8EA10FFF72AF897
:405900000135EDB2204B93F8EA30AB42F1D220460A21FFF71FF8002508E0164B2B44204693F8D410FFF716F80135EDB20C2DF4D9012507E0144B2B4420465978FFF70AF899
:405940000135EDB2104B5B78AB42F3D220460A21FFF700F8002508E0064B2B44204693F8A410FEF7F7FF0135EDB20C2DF4D9012515E000BF7481FF1F9C84FF1FF893FF1FE7
:40598000908DFF1FF491FF1FA890FF1FBD4B2B44204693F8F510FEF7DDFF0135EDB2B94B93F8F530AB42F1D220460A21FEF7D2FF002508E0B44B2B44204693F8E410FEF790
:4059C000C9FF0135EDB20C2DF4D9012301E00133DBB2AC4A92F8F5209A42F8D220460A21FEF7B8FF002508E0A74B2B44204693F8F410FEF7AFFF0135EDB20C2DF4D90123C1
:405A000001E00133DBB29F4A92F8F5209A42F8D220460A21FEF79EFF002508E09A4B2B44204693F80411FEF795FF0135EDB20C2DF4D9012301E00133DBB2924A92F8F52067
:405A40009A42F8D220460A21FEF784FF002508E08D4B2B44204693F81411FEF77BFF0135EDB20C2DF4D9012301E00133DBB2854A92F8F5209A42F8D220460A21FEF76AFFFA
:405A8000002508E0804B2B44204693F82411FEF761FF0135EDB20C2DF4D9012301E00133DBB2784A92F8F5209A42F8D220460A21FEF750FF002508E0734B2B44204693F87C
:405AC0003411FEF747FF0135EDB20C2DF4D9012301E00133DBB26B4A92F8F5209A42F8D220460A21FEF736FF002508E0664B2B44204693F84411FEF72DFF0135EDB20C2D2E
:405B0000F4D9012301E00133DBB25E4A92F8F5209A42F8D220460A21FEF71CFF002508E0594B2B44204693F85411FEF713FF0135EDB20C2DF4D9012301E00133DBB2514A8B
:405B400092F8F5209A42F8D220460A21FEF702FF002508E04C4B2B44204693F86411FEF7F9FE0135EDB20C2DF4D9012301E00133DBB2444A92F8F5209A42F8D220460A21EF
:405B8000FEF7E8FE002508E03F4B2B44204693F87411FEF7DFFE0135EDB20C2DF4D9012301E00133DBB2374A92F8F5209A42F8D220460A21FEF7CEFE20460A21FEF7CAFEB5
:405BC000002508E0304B2B44204693F88411FEF7C1FE0135EDB20C2DF4D920460A21FEF7B9FE20460A21FEF7B5FE20460A21FEF7B1FE002508E0244B2B44204693F894116D
:405C0000FEF7A8FE0135EDB20C2DF4D920460A21FEF7A0FE20460A21FEF79CFE20460A21FEF798FE002506E02046174B595DFEF791FE0135EDB21D2DF6D920460A21FEF70D
:405C400089FE20460A21FEF785FE20460A21FEF781FE20460A21FEF77DFE20460A21FEF779FE20460A21FEF775FE20461D21FEF771FE20465621FEF76DFE20463121FEF7A6
:405C800069FEF8BDA890FF1F7481FF1F10B501281CD1002002F034FC4FF4FA7001F070FE012002F02DFC052001F06AFE02F034FC034658B3412001F063FE02F02DFC0446EE
:405CC000F02001F05DFEF4B901231FE0002002F02BFC4FF4FA7001F053FE012002F024FC052001F04DFE02F02BFC034670B1412001F046FE02F024FC0446F02001F040FE08
:405D00001CB9012302E0002300E00023184610BD38B50D4601282DD000245AE0002002F0EFFB0A2001F02CFE45FA04F313F0010F0AD0012002F0E4FB0A2001F021FE02F0F1
:405D4000EBFB034650B94BE0002002F0D9FB0A2001F016FE02F0E0FB00283ED1322001F00FFE012002F0CCFB322001F009FE0134E4B200E00024072CD0D9012330E0002034
:405D800002F0D2FB0A2001F0FBFD45FA04F313F0010F0AD0012002F0C7FB0A2001F0F0FD02F0CEFB034648B91AE0002002F0BCFB0A2001F0E5FD02F0C3FB80B9322001F020
:405DC000DFFD012002F0B0FB322001F0D9FD0134E4B2072CD3D9012302E0002300E00023184638BD38B5012819D000252C4631E0002002F085FB0E2001F0C2FD012002F09D
:405E00007FFB072001F0BCFD02F086FBA0400543EDB2642001F0B4FD0134E4B201E000252C46072CE4D917E0002002F07DFB0E2001F0A6FD012002F077FB072001F0A0FD07
:405E400002F07EFBA0400543EDB2642001F098FD0134E4B2072CE7D9284638BD4840002308E010F0010F03D0400880F08C0000E040080133072BF4D9704700BF30B5C1B0E4
:405E800005460C46684609494FF4807202F0B2FF0023184605E0EA5C50401DF8000001339BB2621E9342F6DB41B030BDA01301008F4BD3E90023002B08BF102AC0F080824C
:405EC00070B58C4B93F80431092B7FD1894B93F80731012B7AD1884B28221A70BC225A70CB229A70C822DA70844A1178197152785A71804A11789971AA21D9710121197245
:405F000092F800215A727E4991F8632002F003029A7291F86540A3B208E0E11A784A1A4492F86500774A5054013B9BB2002BF4D10B220CE0A2F10B017248415CC9B26E4881
:405F4000815411B930206C498854013292B2122AF0D90021684AD174694A92F8342152B119E003F114022020634988540021654AD15401339BB2072BF3D90EE003F1140043
:405F8000591C5F4A0A4492F8DF405B4A145400205C4AD0548BB2072BF0D91C2304E03021554AD15401339BB2262BF8D9524C20462821FFF763FF84F827004E4A012382F844
:405FC0000331002182F807114F4A1370494B93F804310A3BDBB2012B00F2CE80454B93F80731012B40F0C880434B20221A70BC225A70CB229A70C822DA70404A117819714B
:4060000052785A713B4A11789971A421D9710221197292F800110139597292F8F140A3B208E0E11A334A1A4492F8F100374A5054013B9BB2002BF4D10A230CE0A3F10A02B6
:4060400032498A5CD2B22C49CA5412B930212A4AD15401339BB20E2BF0D92D4B1B78053BDBB2012B0CD901231BE003F10E01294AD21A92F8E300204A505401339BB200E02A
:4060800001231C4A92F8E3209A42EED20EE003F10E01214AD21A92F8E300174A505401339BB2144A92F8E3209A42F0D2124B5B7D1BB9114B30225A759A75154B1B78053BA1
:4060C000DBB2012B0CD9012332E003F11601114AD21A92F8D500084A505401339BB200E00123044A92F8D5209A42EED225E000BF688DFF1F9C84FF1FF08AFF1F4492FF1F96
:40610000FC8BFF1FA090FF1FFC97FF1FE88AFF1F4792FF1FA384FF1FA584FF1F03F11601A84AD21A92F8D500A74A505401339BB2A64A92F8D5209A42F0D2A34B5B7F1BB9A1
:40614000A14B30225A779A779F4C20462021FFF795FEE0779D4B062283F80421082283F8032100229A4981F8352183F807210123984A1370984A1370984B1B78DBB2012B80
:4061800051D1924B93F80731012B4CD1944BBC221A70CB225A70C8229A70924A1178D97052781A71894A12785A71E3229A710522DA71874B93F8364108E0E21D844B234444
:4061C00093F83611864B9954013CA4B2002CF4D101220BE002F1120101339B1A7C48034493F841017E4B5854013292B2784B93F8413199B29142EDD2794D28462121FFF7C1
:406200003DFE85F8200005E0754B185D02F08AFA0134A4B2202CF7D96C4B082283F80321002283F80721694B93F805316BB1674B93F8061103EBC1021878B532FDF7B2F95E
:4062400018B10022614B83F80521604B93F80731012B40F0AF805F4B1B78DBB2012B40F0A98000225B4B1A705F4BBC221A70CB225A70C8229A705B4A1178D97052781A71C3
:40628000524A11785971E821997192F80321DA710121092470E0544B19550134A4B2534B1B78053BDBB2012B12D90C224CE04B1E03EB4303C3EB03131344444803445B78DF
:4062C000303B494803550134A4B2013A92B200E00822002AEBD106E03020434B18550134A4B2013292B2032AF6D908220FE04B1E03EB4303C3EB03133448034413441B7CF6
:40630000303B394803550134A4B2013A92B2002AEDD106E03020344B18550134A4B2013292B2032AF6D925E04B1E03EB4303C3EB03131344254803445B78303B2A4803558E
:406340000134A4B2013A92B2002AEDD10C220FE04B1E03EB4303C3EB03131C48034413441B7C303B204803550134A4B2013A92B2002AEDD1013189B2144B93F802318B42A0
:4063800089D2194EA4F109033372651CADB230462946FFF773FD3055002405E0124B185D02F0C0F90134A4B2AC42F7D30022074B83F80721002000210D4BC3E9000170BDD2
:4063C000704700BFA584FF1FF08AFF1F9C84FF1FFC8BFF1F488DFF1FFC97FF1FF88BFF1FB493FF1F4492FF1FE888FF1F4792FF1F688DFF1F70B59D4B93F81632092B40F0EB
:406400008A809A4B93F81932012B40F08480984BBC221A70CB225A70C8229A70954A1178D97052781A71914A92F812115971AA2199710121D97192F812221A728E4991F8FE
:40644000632002F003025A7291F8650084B208E0021B894B234493F86510884B9954013CA4B2002CF4D10A230CE0A3F10A0283498A5CD2B27E49CA5412B930217C4AD15453
:4064800001339BB2112BF0D90022794B9A747A4B93F8343163B123461BE003F113022020734988540021754AD15401339BB200E02346072BF1D90EE003F11300591C6E4A67
:4064C0000A4492F8DF506A4A155400206B4AD0548BB2072BF0D91B2304E03021644AD15401339BB2252BF8D9614D28462721FFF7C5FC85F8260005E05D4B185D02F012F9A2
:406500000134A4B2272CF7D9584B012283F81522002283F81922584B93F80331012B40F0D180524B93F81932012B40F0CB80544BBC221A70CB225A70C8229A704D4A117862
:40654000D97052781A71494A92F812115971A42199710221D97192F81212197292F8030284B208E0021B414B234493F80312454B9954013CA4B2002CF4D109230CE0A3F1F4
:40658000090240498A5CD2B23D49CA5412B930213B4AD15401339BB20D2BF0D93A4B1B78053BDBB2012B0CD901231BE003F10D01364AD21A92F8F501314A505401339BB24E
:4065C00000E00123294A92F8F5219A42EED20EE003F10D012E4AD21A92F8F501284A505401339BB2214A92F8F5219A42F0D2244B1B7D1BB9224B30221A755A75224B1B78DC
:40660000053BDBB2012B0CD901231BE003F115011E4AD21A92F8E701194A505401339BB200E00123114A92F8E7219A42EED20EE003F11501164AD21A92F8E701104A5054C4
:4066400001339BB2094A92F8E7219A42F0D20C4B1B7F1BB90A4B30221A775A77084D28461F21FFF70BFCA8771AE000BF9C84FF1F2084FF1F4492FF1FA890FF1FA090FF1FD8
:40668000B897FF1FE88AFF1F4792FF1FA384FF1FA584FF1F734B185D02F044F80134A4B21E2CF7D9704B062283F80421082283F8152200226D4981F8352183F81922022274
:4066C0006B4B1A70684B93F817327BB1664B93F8181203EBC10293F8120102F2C712FCF761FF18B10022604B83F817225E4B93F81932012B40F0B4805D4B1B78DBB2022B84
:4067000040F0AE8000225A4B1A705A4BBC221A70CB225A70C8229A70574A1178D97052781A71514A92F812115971E821997192F81522DA710121092474E04E4B195501341A
:40674000A4B24E4B1B78053BDBB2012B13D90C224FE04B1E03EB4303C3EB031342480344134493F81331303B424803550134A4B2013A92B200E00822002AEAD106E0302081
:406780003C4B18550134A4B2013292B2032AF6D9082210E04B1E03EB4303C3EB031332480344134493F82231303B324803550134A4B2013A92B2002AECD106E030202D4B9A
:4067C00018550134A4B2013292B2032AF6D927E04B1E03EB4303C3EB031323480344134493F81331303B234803550134A4B2013A92B2002AECD10C2210E04B1E03EB430314
:40680000C3EB031318480344134493F82231303B184803550134A4B2013A92B2002AECD1013189B2104B93F814328B4285D2114EA4F109033372651CADB230462946FFF787
:406840001DFB3055002405E00A4B185D01F06AFF0134A4B2AC42F7D30022034B83F8192270BD00BFB897FF1F9C84FF1FA890FF1F488DFF1FE888FF1F4492FF1F4792FF1F8C
:4068800070B5322001F066F801F0F6FE002800F0488401229C4B1A7000249C4B1C7005E001F0B8FE9A4B18550134A4B201F0E4FE0028F5D1974BBC221A70CB225A70C82209
:4068C0009A70954A1178D97052781A71904B1B78BC2B40F024848E4B5B78BB2B40F01F848B4B9B78B82B40F01A848B4B1B78884AD2789A4240F01384874B5B78844A127936
:406900009A4240F00C84824B9B79A13B432B00F20684DFE813F0440004040404040409015701140204046702040404040404040404040404040404040404040404040404A5
:406940000404040404040404040404040404040404040404040404040404040404040404040404040404040404040404040404040404040404040404040404040404040417
:4069800004040404040404040404040404040404040404040404ED0289030404B6035C4B5A795E4B1B789A422ED15D4A127812F0FF0F1FD1574C6371A123A371574B93F805
:4069C0000331E37120460921FFF758FA2072002405E0504B185D01F0A5FE0134A4B2082CF7D9092411E04F4B185D01F09BFE0134A4B200E001244B4B1B78A342F3D8002227
:406A0000474B1A70052400E00524414B5A79434B93F812319A4226D1404A92F8192202BB3C4D6B71631C9BB2A122EA5401339BB23A4A92F81522EA545C1CA4B2991C284647
:406A400089B2FFF71BFA28550134A4B2002505E0304B585D01F066FE0135ADB2A542F7D301E0FFF7C7FC2A4B5A792C4B93F824329A421FD1274D6B71631C9BB2A122EA54D0
:406A800001339BB2254A92F82723EA545C1CA4B2991C284689B2FFF7F1F928550134A4B2002505E01B4B585D01F03CFE0135ADB2A542F7D3164B5A79184B93F836339A42C3
:406AC00040F02D83134D6B71631C9BB2A122EA5401339BB2114A92F83924EA545C1CA4B2991C284689B2FFF7C9F928550134A4B2002505E0074B585D01F014FE0135ADB217
:406B0000A542F7D30BE300BF8E8DFF1FF997FF1F0094FF1FA08DFF1F4492FF1F9C84FF1FFC97FF1FF08AFF1FB24B5A79B24B1B789A421BD10121B14A1170B14C6371A1233D
:406B4000A371AD4B93F80331E37120460921FFF795F92072002405E0A94B185D01F0E2FD0134A4B2082CF7D9092300E00523A14A5179A14A92F81221914240F0D082022077
:406B80009E4908709E4D6A710133A122EA5401339BB2994A92F81522EA545C1CA4B21918284689B2FFF76AF928550134A4B2002505E0934B585D01F0B5FD0135ADB2A54253
:406BC000F7D3ACE28B4B5A798B4B187882420DD005241DE0874C257AE45C874901EBC501194481F8AC4001339BB200E009230D2BF0D9814B012183F805117E49097A83F89F
:406C000006117F4B5871A62199710321D9710824794B93F81201824223D10BE0754D2E7AED5C754901EBC601194481F8BE5101339BB200E009230D2BF0D96F4B012183F84C
:406C400017126C49097A83F818126D494871631C9BB2A620C85401339BB20320C85401339CB2654B93F82402824223D10BE0614D2E7AED5C604901EBC601194481F8D052B8
:406C800001339BB200E009230D2BF0D95A4B012183F829135749097A83F82A1358494871631C9BB2A620C85401339BB20320C85401339CB2504B93F836138A4223D10BE089
:406CC0004C48057AC05C4C4A02EBC5021A4482F8E20301339BB200E009230D2BF0D9464B012283F83B24434A127A83F83C24444A5171631C9BB2A621D15401339BB20321A1
:406D0000D15401339CB2651CADB23D4E30462946FFF7B4F83055002405E0394B185D01F001FD0134A4B2AC42F7D3F8E1354B1878304B195DFDF70EFE0134A4B200E009248F
:406D40002C4B1B7AA342F1D22A4B5B792A4A11788B4209D12A4A5171A7219171264991F80311D17103211172234A92F812118B4209D1234A5171A72191711F4991F81512AB
:406D8000D171032111721C4A92F824128B4209D11B4A5171A7219171174991F82713D17103211172144A92F83623934209D1144B5A71A7229A71104A92F83924DA71032281
:406DC0001A720F4C20460921FFF758F82072002405E00B4B185D01F0A5FC0134A4B2082CF7D99CE1034B5B79034A11788B4221D115E000BF0094FF1F9C84FF1F488DFF1F84
:406E0000A08DFF1FB197FF1F03F10802A648805CA64A1A4482F8080101339BB200E00023092BF1D9A24B93F834311BB1A14B1878FDF762FF9C4B5B799C4A92F812118B42F1
:406E400016D10AE003F108029748805C974A1A4482F81A0201339BB200E00023092BF1D9954B93F834311BB1944B1878FDF744FF8D4B5B798D4A92F824128B4216D10AE00E
:406E800003F108028848805C884A1A4482F82C0301339BB200E00023092BF1D9884B93F834311BB1834B1878FDF726FF7E4B5B797E4A92F836138B4240F031810AE003F102
:406EC00008027948805C794A1A4482F83E0401339BB200E00023092BF1D97A4B93F83431002B00F01C81754B1878FDF705FF16E16D4B197A744A5170597A744A1170997AF1
:406F00005170D97A9170197B714A51705B7B1370112307E0A3F111026349C85C6D49885401339BB22E2BF5D92F2307E0A3F12F025D49C85C6849885401339BB24C2BF5D9EC
:406F40004D2307E0A3F14D025749C85C6349885401339BB26A2BF5D96B2307E0A3F14D025149C85C5E49885401339BB2882BF5D94D4B1A7C5B4B1A70FDF79AFDFDF73CFDF6
:406F8000002408E004F11001524B185D89B200F099FE0134A4B21D2CF4D91E240AE0A4F11E0304F110014C4AD05C89B200F08AFE0134A4B23B2CF2D93C240AE0A4F11E0330
:406FC00004F11001454AD05C89B200F07BFE0134A4B2592CF2D95A240AE0A4F11E0304F110013F4AD05C89B200F06CFE0134A4B2772CF2D90C2000F0CFFE2C4C20700D20CC
:4070000000F0CAFE84F812010E2000F0C5FE84F824020F2000F0C0FE84F83603254B18782178FDF769FE7AE01F4B5B792E4C6371E223A3710823E3710323237220460A2136
:40704000FEF71CFF6072002405E0274B185D01F069FB0134A4B2092CF7D9082307E0A3F108021149C85C2149885401339BB20B2BF5D90D4B187B1E4B1870072100F022FE4C
:407080004DE0094BDA79022A38D10021194B1960194B1970054B082283F8032183F807110120FDF7C7F83AE00094FF1F9C84FF1FFC8BFF1FB197FF1FA890FF1F4892FF1FF9
:4070C0000496FF1F6492FF1F4092FF1FA097FF1FF493FF1FF891FF1F7897FF1F708DFF1F7C84FF1F558DFF1FA08DFF1F608DFF1F3092FF1F6092FF1FF88BFF1F0023094971
:407100000B7009490A70094A1360094A82F80731C82000F01FFC01201321FDF78BF801F0DFFA70BDF88BFF1F3092FF1F6092FF1F9C84FF1FFEE700BF08B5104E104D16E0A6
:4071400029686B68AC68002204E051F8040B43F8040B0432A242F8D1E868002203E0002143F8041B04328242F9D11035013E002EE6D101F019FEFBF7CBFEFEE70100000066
:407180005016010008B5124A124B1A60124A136843F40073136000230AE0032B03D80F4A52F8231000E00E490E4A42F8231001332F2BF2D90C4B1A780C4B1A70094A0C4BCF
:4071C0001A6000F0CFF800220A4B1A6008BD00BF0004FA050CED00E014ED00E000000000357100000080FF1FBC7600400481FF1F08ED00E00081FF1FFEE700BFF0B40022F5
:40720000174611E050F82760F3B226F0FF0608E001EB420511F812406D78A5550132013BDBB2002BF4D10137292FEBD9F0BC7047064B1B78DBB203F00701054A11701B0919
