:4000000000800020110000009D4C00009D4C000008B5044B1A6803F53F5302331A6004F03FFE00BFFA46004010B5054C237833B9044B13B10448AFF300800123237010BD64
:40004000D083FF1F00000000086A0000084B10B51BB108480849AFF300800848036803B910BD074B002BFBD0BDE81040184700BF00000000086A0000D483FF1F0881FF1FC9
:400080000000000008B505F011FF024A13780133137008BDE58DFF1F08B506F093F90849D1E90023013243F10003C1E900230549D1E90023013243F10003C1E9002308BDD0
:4000C0008888FF1F008AFF1F08B506F00FF90849D1E90023013243F10003C1E900230549D1E90023013243F10003C1E9002308BD0095FF1FE88DFF1F08B505F093FB05F068
:400100009DFA05F001F805F0F7F804F0ABFF05F049FC05F0D3FF054806F0C6F906F096F9034806F0EFF906F025F908BD99000000C900000010B51C4B1878002105F076FB89
:400140001A4B1878012105F071FB194B1878022105F06CFB174B1878032105F067FB164B1878042105F062FB144B1878052105F05DFB134B1878062105F058FB114C20780B
:400180000C2105F053FB94F806010D2105F04EFB94F80C020E2105F049FB94F812030F2105F044FB10BD00BF278AFF1FF494FF1F908DFF1F288AFF1FF294FF1F0895FF1F5E
:4001C000E38DFF1F6084FF1F10B5022005F098FB234B1870032005F093FB224B1870042005F08EFB204B1870052005F089FB1F4B1870062005F084FB1D4B1870072005F0A4
:400200007FFB1C4B1870082005F07AFB1A4B1870092005F075FB194B18700A2005F070FB174C20700B2005F06BFB60700423154A1370154A13700C2005F062FB134C207031
:400240000D2005F05DFB84F806010E2005F058FB84F80C020F2005F053FB84F8120310BD908DFF1F288AFF1FF294FF1F0895FF1FE38DFF1FCC8DFF1F0995FF1FE48DFF1FF7
:40028000E08DFF1F0C81FF1FE489FF1F6084FF1F10B59CB0994A19AB07CA03C31A80984B16AC93E8070003C42280964A13AC07CA03C4228010AC03F10C0207CA03C4227041
:4002C00000228DF849200DAC03F1180103C984E80300ADF83C200AAC03F1240207CA03C4228007AC03F1300207CA03C4228004AC03F13C0207CA03C4228001AC483393E810
:40030000070003C42280804B1B78022B7AD10120014602F027FC012019A9002202F0DCFC4FF4967005F0CAF8784B1B785BB90133DBB2774A82F8023182F80832012016A9FE
:40034000002202F0C9FC714B1B78012B0BD10133DBB26F4A82F8023182F80832012013A9002202F0B9FC694B1B78022B0BD10133DBB2674A82F8023182F80832012010A9CF
:40038000002202F0A9FC614B1B78032B0BD10133DBB25F4A82F8023182F8083201200DA9002202F099FC5B4B1B783BB901200AA9162202F091FC0522574B1A70554B1B78B2
:4003C000012B07D1012007A9162202F085FC0622514B1A704F4B1B78022B07D1012004A9162202F079FC07224B4B1A70494B1B78032B07D1012001A9162202F06DFC082292
:40040000454B1A70404B1B78042B6DD101202E2102F0A8FB012019A9002202F05DFC4FF4967005F04BF8394B1B787BB90133DBB2374A82F8023182F8083282F80E3382F81E
:400440001434012016A9002202F046FC2F4B1B78012B0FD10133DBB22D4A82F8023182F8083282F80E3382F81434012013A9002202F032FC254B1B78022B0FD10133DBB2DF
:40048000234A82F8023182F8083282F80E3382F81434012010A9002202F01EFC1B4B1B78032B0FD10133DBB2194A82F8023182F8083282F80E3382F8143401200DA90022E7
:4004C00002F00AFC134B1B78012B04D1012007A9162202F001FC0F4B1B78022B04D1012004A9162202F0F8FB074B1B78012B03D80120002102F036FB1CB010BD986A000054
:400500000C6A0000A46A00001595FF1F278AFF1F6084FF1F0895FF1FE38DFF1F08B5104B1B78022B06D10220012102F01BFB00220C4B1A600A4B1B78042B03D102202E210B
:4005400002F010FB064B1B78012B03D80220002102F008FB02200449002202F0BDFB08BD1595FF1F4C91FF1F1481FF1F08B501F029FB2D4B1870002855D02C4B187801F0CE
:4005800009FB02F0DDF850B90120002102F0EAFA0220002102F0E6FA0022234B1A70234B93F8060101F0F6FA02F0CAF850B90120002102F0D7FA0220002102F0D3FA002259
:4005C000194B1A70194B187801F0E4FA02F0B8F848B3164B93F8060101F0DCFA02F0B0F808B301F0EFFA104B1870104B187801F0D1FA06280DD10D4B93F8060101F0CAFA8F
:40060000062806D1094B187802F092F9FFF792FD08BD0120092102F0A5FA0220092102F0A1FAFFF7A3FF08BD1595FF1F6084FF1F70B58EB02E4C07AD04F154060FCE0FC59D
:4006400096E8070003C52A806D4670340FCC0FC594E8070003C52A80002408E00EAB2344012013F81C1C02F00DFE0134E4B2192CF4D901200A2102F005FE01200A2102F09F
:4006800001FE01200A2102F0FDFD01200A2102F0F9FD01200A2102F0F5FD01200A2102F0F1FD002408E00EAB2344022013F8381C02F0E8FD0134E4B2192CF4D902200A21C5
:4006C00002F0E0FD02200A2102F0DCFD02200A2102F0D8FD02200A2102F0D4FD02200A2102F0D0FD02200A2102F0CCFD0EB070BD0C6A0000F0B585B0B24B1B68132B01F2EF
:40070000C381DFE813F0140027004D00A9006D019B0119029102FC0281035B04AE043505C30518066F0713086808E908BC09FFF7AFFD0122A34B1A6005F03AFC05F09CFB74
:400740000023A14A1370A14A82F8613082F8033101F09AB908229E4B83F8032104F0E2FC082841F091819B4B1B78DBB2AA2B10D1984B9B79DBB2C32B0BD1964BDB79DBB23D
:400780003C2B06D102228F4B1A600120042102F0E9F90A2004F092FE04F0F2FC01F074B904F0C0FC082841F06F818A4B1B78DBB2AA2B4AD1874B9B79DBB2C32B45D1854B8E
:4007C000DB79DBB23C2B40D1824BDB78DBB2452B24D004D80D2B07D00E2B10D035E07E2B2CD0942B22D030E00322764B1A600120764B83F86100052102F0B4F925E00A22FC
:40080000704B1A600222714B83F8612000226E4B1A700120852102F0A5F916E00C22694B1A600120832102F09DF90EE00022654B1A600120014602F095F906E00022614B76
:400840001A600120014602F08DF90A2004F036FE04F096FC01F018B904F064FC082841F013815C4B1B78DBB2AA2B40F0A380594B9B79DBB2C32B40F09D80564BDB79DBB24A
:400880003C2B40F09780534BDB78DBB23B2B00F0828004D80F2B0BD0102B25D08AE07E2B00F08180942B6ED0432B40F0838037E00422444B1A60454B022483F86340442271
:4008C00083F864200025444B1D700120062102F049F90120009001954E23029324210322234602F021FA65E00422364B1A60374B012483F86340562583F864500026364B93
:400900001E7020460D2102F02DF9009401964E230293204629460322022302F005FA49E02A4B022283F86320462283F86420012306E0264A1A44392182F865100133DBB233
:400940001A4626490978481E8342F2DB1F4B9C18302084F8650084F8660083F86510002307E01A4A1A4492F8650082F86F000133DBB28B42F5D90522124B1A600120862148
:4009800002F0F0F816E000220E4B1A600120014602F0E8F80EE000220A4B1A600120014602F0E0F806E00022064B1A600120014602F0D8F80A2004F081FD04F0E1FB01F0CD
:4009C00063B800BFF88DFF1FE58DFF1F9488FF1F6084FF1F1C95FF1FE68DFF1FE38DFF1F0120894B1978002202F002FA18B1012815D001F049B80022844B1A60012001468E
:400A000002F0B0F801F040B8814A1A4492F84B1082F8651082F86F100133DBB200E000237B4A92F84B209A42EED20522774B1A600120862102F096F801F026B804F072FB48
:400A4000082841F02180734B1B78DBB2AA2B6CD1704B9B79DBB2C32B67D16E4BDB79DBB23C2B62D16B4BDB787E3B3A2B5DD8DFE803F055351E295C5C5C5C5C5C5C5C5C5C4F
:400A80005C5C5C5C5C5C5C5C4D5C5C5C5C5C5C5C5C5C5C5C5C5C5C5C5C5C5C5C5C5C5C5C5C5C5C5C5C5C5C5C5C5C5C5C41000622564B1A600120584B83F801010B2102F092
:400AC00051F832E00622514B1A600222524B83F8012101200B2102F045F826E006224B4B1A6003224C4B83F8012101200B2102F039F81AE00622454B1A600422464B83F81E
:400B0000012101200B2102F02DF80EE000223F4B1A600120014602F025F806E00120014602F020F80022394B1A600A2004F0C6FC04F026FB00F0A8BF384805F02BFA05F051
:400B4000FBF904F0EFFA08284DD1324B1B78DBB2AA2B43D12F4B9B79DBB2C32B3ED12D4BDB79DBB23C2B39D12A4BDB78DBB2392B04D07E2B2BD0382B30D10FE00922234BD1
:400B80001A600022264B1A70214B012083F8000183F834010A2101F0E5FF1FE01C4B93F803313BB10022194B1A600120014601F0D9FF13E00721154B19600023144A82F8B4
:400BC0003431184A1370012001F0CCFF06E000220E4B1A600120014601F0C4FF0A2004F06DFC04F0CDFA0F4B1B781D2B40F24C870023064A13600B4A13700120014601F044
:400C0000B1FF00F041BF00BFE38DFF1FF88DFF1F9488FF1F1C95FF1F6084FF1F85000000E68DFF1FE58DFF1FA84C207801F030FF014684F8000194F80131984236D1A44A76
:400C400092F863302078653203F0030301F096FD01281DD105F0ACF905F00EF9207800F099FF207840F0100004F07EFD0124994B1C700821984B19600022984B1A70204688
:400C800001F070FF20469649122202F025F810E00021914B1960012001F064FFC82004F00DFC0120014601F05DFF02E007228A4B1A6004F037FA08281DD18A4B1B78DBB245
:400CC000AA2B15D1874B9B79DBB2C32B10D1854BDB79DBB23C2B0BD1824BDB78DBB27E2B06D10120014601F03DFF00227A4B1A600A2004F0E3FB04F043FA00F0C5BE734C81
:400D0000207800F047FF84F804010638052800F2BB86DFE810F00600B906B90616001F004C0000236C4A13600C21684A82F80311674A82F835310120014601F013FF00F055
:400D4000A3BE634B012283F83521002283F8032100F09ABE5D4B187801F00EFB002800F093865B4B93F83431012B0DD15E4B1878564B197802F058FC0022574B1A60012054
:400D8000014601F0EFFE09E00622534B1A6001204F4B83F803010B2101F0E4FE00224C4B83F8352101224B4B1A7000F06DBE474B187801F0E1FA002800F06686444B93F8B8
:400DC0003431012B0DD1484B1878404B197802F02BFC0022404B1A600120014601F0C2FE09E006223C4B1A600120394B83F803010B2101F0B7FE0022354B83F8352101224E
:400E0000344B1A7000F040BE01200A21002201F0EFFF18B1012845D000F036BE2C4B93F80031013B032B39D8DFE803F00A1D2935274A1A44002182F8DF100133DBB200E09C
:400E400000230A2BF4D90022234B1A600120014601F088FE22E01E4A1A44002182F8EA100133DBB200E000230A2BF4D916E0184A1A44002182F8F5100133DBB200E0002327
:400E80000A2BF4D90AE0124A1A44002182F836110133DBB200E000230A2BF4D904F070F900F0F2BD0A4B93F80031013B032B00F28180DFE803F01B43595F054A1A4492F873
:400EC0004B1082F8DF100133DBB210E06084FF1F9488FF1F918DFF1FF88DFF1FE58DFF1FF988FF1F1C95FF1F0995FF1F0023B04A92F84B209A42E0D2AD4B93F803316BB135
:400F0000AC4B1878AC4B197802F08EFB0022AB4B1A600120014601F025FE4BE00721A74B1960012001F01EFE44E0A14A1A4492F84B1082F8EA100133DBB200E000239C4ABD
:400F400092F84B209A42F0D207219C4B1960012001F008FE2EE0964A1A4492F84B1082F8F5100133DBB200E00023914A92F84B209A42F0D2002307E08D4A1A4492F84B1038
:400F800082F836110133DBB20A2BF5D90E228B4B1A6000228A4B1A700A228A4B1A702A22894B1A700322824B83F800210120252101F0D8FD04F0E4F800F066BD04F0B2F83A
:400FC000082840F06185814B1B78DBB2AA2B41D17E4B9B79DBB2C32B3CD17C4BDB79DBB23C2B37D1794BDB78DBB2942B23D002D87E2B28D02EE0B62B02D0B72B0ED029E001
:401000000B226E4B1A6000226D4B1A700120684B83F83401122101F0A5FD1BE00023644A82F800310721654A1160694A1370012001F098FD0EE00022604B1A600120014669
:4010400001F090FD06E00120014601F08BFD00225A4B1A600A2004F031FA04F091F800F013BD5C4804F096FF04F066FF012002F033FF01286CD1332102F070FF40B967E03E
:40108000012002F0D5FF544B18550134E4B200E00124082CF4D90020012405E04E4B195D03F002F80134E4B2072CF7D94A4B1B7ADBB283424CD110233D4A5370012230E02F
:4010C00010464549895C01F00F01092908DD4249895C374C1C4401F00F013731617007E03D49895C324C1C4401F00F0130316170013BDBB23849095C9F2907D93649095CE4
:401100002B48184409093731417006E03249095C27481844090930314170013BDBB20132D2B2082ACCD90120132101F01BFD04F027F84FF42F7004F0C1F902221C4B83F8A2
:40114000002109221D4B1A6001200E2101F00AFD1F4B1B783B2B40F297840023174A13601B4A13700120014601F0FCFC00F08CBC03F0D8FF082840F08784144B1B78DBB22D
:40118000AA2B7DD1114B9B79DBB2C32B78D10F4BDB79DBB23C2B73D10C4BDB78DBB2552B34D01BD83B2B54D0462B1ED068E000BF9488FF1F0995FF1F6084FF1FF88DFF1FB9
:4011C000E68DFF1F9288FF1FCD8DFF1F1C95FF1FE58DFF1F85000000B494FF1F942B40D0B52B28D07E2B4BD143E00D22AA4B1A60AA4B1B78012B04D101202A2101F0B2FCA3
:401200003EE00120232101F0ADFC39E00E22A24B1A600622A24B83F800210022A14B1A700522A14B1A702A22A04B1A700120252101F098FC24E00022974B1A6001219C4BC3
:4012400019700B229B4B83F80321084601F08AFC16E00022904B1A600120014601F082FC0EE000228C4B1A600120014601F07AFC06E00022884B1A600120014601F072FCDE
:401280000A2004F01BF903F07BFFFDE303F04AFF082840F0F983884B1B78DBB2AA2B44D1854B9B79DBB2C32B3FD1834BDB79DBB23C2B3AD1804BDB78DBB2482B17D002D84B
:4012C000472B05D031E07E2B20D0942B26D02CE00922714B1A600022724B1A700422704B83F800210120242101F03CFC1DE00922694B1A6000226B4B1A700422684B83F85A
:4013000000210120242101F02DFC0EE00120014601F028FC0022604B1A6006E00120014601F020FC00225C4B1A600A2004F0C6F803F026FFA8E301205B4B19785B4B1A78AD
:4013400001F056FD10B101286ED09DE3544B93F80031013B052B64D8DFE803F0091A2F6344570021554AD1540133DBB200E00023042BF6D90022484B1A600120014601F045
:40138000F1FB4EE000214E4AD1540133DBB200E00023454A12789342F4D300223E4B1A600120014601F0DEFB3BE03D4A1A44002182F841110133DBB200E000233A4A1278A6
:4013C0009342F2D30022344B1A600120014601F0C9FB26E0324A1A44002182F841110133DBB200E00023304A12789342F2D30022294B1A600120014601F0B4FB11E00021C2
:40140000304AD1540133DBB200E001232D4A12789A42F4D20022204B1A600120014601F0A1FB03F0ADFE2FE31D4B93F80031013B052B00F2D480DFE813F00F0054006A008C
:40144000D20080009600591C154A0A4492F84B001A4AD054CBB200E00023042BF3D917480023037105F0FEF980B2174B1880C3B2164C2370000A607020780A2104F0D6F9B2
:4014800060780B2104F0D2F90F22034B1A6001205A2101F067FBA2E0F88DFF1FCC8DFF1F9488FF1FE68DFF1F9288FF1FCD8DFF1F918DFF1F6084FF1F1C95FF1FAC94FF1FFF
:4014C000EC89FF1FE489FF1F5C93FF1FE08DFF1F8D4A1A4492F84B108C4AD1540133DBB200E000238A4A12789342F1D30F22894B1A6001205A2101F035FB70E0824A1A44B0
:4015000092F84B1082F841110133DBB200E000237F4A12789342F1D313227E4B1A600120392101F01FFB5AE0774A1A4492F84B1082F841110133DBB200E00023744A127836
:401540009342F1D30F22734B1A6001205A2101F009FB44E06C4A1A4492F84B106E4AD1540133DBB200E001236B4A12789A42F1D2694B5A78694B5B789A4221D1664B9A789D
:40158000664B9B789A421BD1634BDA78634BDB789A4215D1604B1A79604B1B799A420FD10120262101F0DEFA4FF42F7003F086FF0F22584B1A6001205A2101F0D3FA0EE082
:4015C0000120272101F0CEFA4FF42F7003F076FF0022504B1A600120014601F0C3FA03F0CFFD51E203F09EFD082840F04D824C4B1B78DBB2AA2B40F08180494B9B79DBB291
:40160000C32B7BD1464BDB79DBB23C2B76D1444BDB78583B3C2B71D8DFE803F052703C70707070707070707070327070707070707070707070707070707070707070707041
:401640007070617070701F707070707070707070707070707070707069000E222D4B1A600023304A1370304A13700522284B1A700120254B83F80001062101F073FA3DE0CF
:401680001022244B1A60FEF7D3FF01206B2101F069FA33E00E221F4B1A600023214A1370214A137003221A4B1A700223174A1370154A82F800310120062101F053FA1DE077
:4016C0001222144B1A600022164B1A7004220E4B83F8002101203E2101F044FA0EE00120014601F03FFA00220A4B1A6006E00120014601F037FA0022064B1A600A2003F01B
:40170000DDFE03F03DFDBFE19488FF1FEC89FF1F9288FF1FF88DFF1FE489FF1F0C81FF1F1C95FF1FE68DFF1FCD8DFF1F03F0FAFC082840F0A981644B1B78DBB2AA2B44D11F
:40174000614B9B79DBB2C32B3FD15F4BDB79DBB23C2B3AD15C4BDB78DBB2392B10D002D8382B05D031E07E2B20D0942B26D02CE01122564B1A600120672101F0F3F924E001
:401780000F22524B1A600124514B1C70514D02232B702046082104F049F82878092104F045F820465A2101F0DDF90EE00120014601F0D8F90022454B1A6006E0012001463D
:4017C00001F0D0F90022414B1A600A2003F076FE03F0D6FC58E103F0A5FC082840F05481394B1B78DBB2AA2B68D1374B9B79DBB2C32B63D1344BDB79DBB23C2B5ED1324B45
:40180000DB787E3B162B59D8DFE803F049585858585858585858585858580C2035585858585851000F22294B1A600220284B1870284C2070082103F0F9FF2078092103F03C
:40184000F5FF01205A2101F08DF937E00F221F4B1A6001241E4B1C701E4D2C702046082103F0E4FF2878092103F0E0FF20465A2101F078F922E00F22144B1A600020144B45
:401880001870144C2070082103F0D0FF2078092103F0CCFF01205A2101F064F90EE00120014601F05FF90022084B1A6006E00120014601F057F90022044B1A600A2003F036
:4018C000FDFD03F05DFCDFE01C95FF1FF88DFF1F0995FF1FE48DFF1F01F054FD01283CD16A4F7978C1F30011303101240094002601964E2502952046C9B20D22082301F032
:4019000013FA797801F00F01009401960295204630310D22092301F007FA00940196029520463A210D220A2301F0FEF939780909009401960295204630310D220B2301F071
:40194000F3F9397801F00F01009401960295204630310D220C2301F0E7F901F0B7FC01285DD14B4F3978C1F3011101240094002601964E250295204630311522082301F06B
:40198000D3F9397801F00F01009401960295204630311522092301F0C7F900940196029520462F2115220A2301F0BEF97978C1F3001130310094019602952046C9B2152297
:4019C0000B2301F0B1F9797801F00F010094019602952046303115220C2301F0A5F900940196029520462F2115220D2301F09CF9B978090900940196029520463031152246
:401A00000E2301F091F9B97801F00F010094019602952046303115220F2301F085F903F081FB082830D11B4B1B78DBB2AA2B20D1184B9B79DBB2C32B1BD1164BDB79DBB25B
:401A40003C2B16D1134BDB78DBB27E2B02D0942B08D00EE00022104B1A600120014601F081F806E000220C4B1A600120014601F079F80A2003F022FD03F082FB04E00123BA
:401A8000064A1370064A137005B0F0BD0C95FF1FD08DFF1F1C95FF1FF88DFF1F918DFF1F9088FF1F08B5214B1B6813B1012B0AD008BDFEF733FD01221C4B1A6008221C4B0B
:401AC00083F8092208BD0220232101F0D7F803F021FC082829D1174B1B78DBB2AA2B1FD1144B9B79DBB2C32B1AD1124BDB79DBB23C2B15D10F4BDB78DBB23A2B02D07E2B56
:401B000007D00DE00220094B1860042101F02AF806E00220012101F025F80022034B1A600A2003F0CBFC03F023FC08BD4C91FF1F6084FF1F3C95FF1F08B562B6FEF7DCFA52
:401B4000FEF714FDFEF740FB0320002103F0D6FC03F0F4FC02F0D2FAFEF7CCFD03F0EEFCFFF7A0FF03F0EAFC02F054FE03F0E6FC064A13780133DBB213701378DBB20A2BF7
:401B8000E6D90022024B1A70E2E700BF1495FF1F268AFF1F10B5044603F0C4FD204603F0E3FD3C2003F08AFC03F088FD38B103F053FDC0F3071403F0B5FD204610BD002015
:401BC00010BD00BF10B5464BFF221A7083F8062183F80C2283F81223012454E0204603F0C3FD642003F06AFC03F068FD38B13C4B1B78FF2B03D13A4B1C7003F093FD03F02E
:401C00005DFD68B1364B1B78A34209D0344B93F80631FF2B04D1324B83F8064103F082FD03F04CFD90B12E4B1B78A3420ED02C4B93F80631A34209D0294B93F80C32FF2BC4
:401C400004D1274B83F80C4203F06CFD03F036FDB8B1234B1B78A34213D0214B93F80631A3420ED01E4B93F80C32A34209D01C4B93F81233FF2B04D1194B83F8124303F062
:401C800051FD0134E4B2102CA8D9154B1B78FF2B0ED0134A92F80621FF2A09D0104A92F80C22FF2A04D00E4A92F81223FF2A0FD1FF2B04D00A4A92F80621FF2A0AD1FF2BE3
:401CC0000AD1074B93F80631FF2B07D0012010BD042010BD022010BD012010BD002010BD6084FF1FF8B5054603F01CFD45F0500003F03AFD03F022FC4FF4617003F0DEFBA5
:401D000003F01CFC03F0DAFCC0B2222806D0402804D05E2802D07C2840F02281B44B1B78DBB2FF2B40F01881B14B5B78DBB2F62B40F01281AE4BDB78DBB2F92B40F00C8126
:401D4000AC4CA4FB0030C0F30214AB4B1B78AB421DD0002699E0C5EB051006EB4603C3EB031203461344A44A13440B4400225A700131C9B200E000210D29ECD90135EDB271
:401D800000E00025022DF6D90136F6B200E00026032EF6D900252F4655E02B1D944AD05CC6EB061E07EB4703C3EB031273461344914A13445B1A00F00F0230329A720135EA
:401DC000EDB2022E01D1042905D00131C9B200E001210829E1D90135EDB20136F6B200E00026022EF4D90735EDB204220CE007EB4703C3EB031380490B44D11891F8231045
:401E00001344D977013AD2B2002AF0D107EB4703C3EB0313784A134408225A701A740422DA77764B1B78DBB2012B0AD107EB4703C3EB0313704A13440522DA77302283F801
:401E400024200137FFB2A742CAD303F06BFC2046F8BDC5EB051006EB4603C3EB031203461344654A13440B44002283F807210131C9B200E000210D29EBD90135EDB200E061
:401E80000025022DF6D90136F6B2032EF8D900252F465BE02B1D564AD05CC6EB061E07EB4703C3EB031273461344534A13445B1A00F00F02303283F810210135EDB2022ED4
:401EC00001D1042905D00131C9B200E001210829E0D90135EDB20136F6B200E00026022EF4D90735EDB204220DE007EB4703C3EB031341490B44D11891F82911134483F879
:401F00002511013AD2B2002AEFD107EB4703C3EB0313394A1344082283F8072183F81621042283F82521354B1B78DBB2012B0BD107EB4703C3EB03132F4A1344052283F868
:401F40002521302283F82A210137FFB2A742C5D303F0E8FB2046F8BD03F0E4FB0020F8BD2E2806D0582804D0822802D0AC2840F00B811F4B1B78DBB2FF2B40F001811C4BA8
:401F80005B78DBB2F62B40F0FB80194BDB78DBB2F92B40F0F5801A4CA4FB00304409164B1B78AB421DD0002694E0C5EB051006EB4603C3EB0312034613440F4A13440B449D
:401FC00000225A700131C9B200E000210D29ECD90135EDB200E00025022DF6D90136F6B200E00026032EF6D900252F4650E000BF5C95FF1F898888886084FF1F488FFF1FDF
:40200000CDCCCCCC2B1D624AD05CC6EB061E07EB4703C3EB0312734613445E4A13445B1A00F00F0230329A730135EDB2022E01D1062905D00131C9B200E001210C29E1D90E
:402040000135EDB20136F6B200E00026022EF4D90935EDB206220CE007EB4703C3EB03134C490B44D11891F825101344D977013AD2B2002AF0D107EB4703C3EB0313454A4D
:4020800013440C225A701A740622DA770137FFB2A742DAD303F046FB2046F8BDC5EB051006EB4603C3EB031203461344394A13440B44002283F807210131C9B200E00021FE
:4020C0000D29EBD90135EDB200E00025022DF6D90136F6B2032EF8D900252F464AE02B1D2B4AD05CC6EB061E07EB4703C3EB031273461344274A13445B1A00F00F023032FC
:4021000083F814210135EDB2022E01D1062905D00131C9B200E001210C29E0D90135EDB20136F6B200E00026022EF4D90935EDB206220DE007EB4703C3EB031315490B4421
:40214000D11891F82B11134483F82511013AD2B2002AEFD107EB4703C3EB03130D4A13440C2283F8072183F81621062283F825210137FFB2A742D6D303F0D4FA2046F8BD8F
:4021800003F0D0FA0020F8BD03F0CCFA0020F8BD5C95FF1F6084FF1FF0B585B004460E461546724F6B4638687968BA6807C3B989BA7B19809A70012310E0EA5C2C2A0BD196
:4021C00005E0EA1812F8012CEA54013BDBB2012BF7D830236B7003E00133DBB2062BECD9634B1B78072B4CD0E5238DF8013006F00F0363F01F038DF804305E4B1B7813F035
:40220000FF0F0DD000231AE0EA5C04A9194402F00F0262F01F0201F80A2C0133DBB200E00023032BF0D90CE0EA5C04A9194402F00F0262F01F0201F80A2C0133DBB2022B17
:40224000F2D9FB238DF80A3000230CE004AA1A4412F8102C02F00F029DF80B100A448DF80B200133DBB20A2BF0D99DF80B305B4203F00F0363F01F038DF80B30F0238DF8A6
:402280000C303B4B1B78072B3CD1E3238DF8013006F00F03013B63F01F038DF8043000230CE0C3F10602AA5C04A9194402F00F0262F01F0201F80A2C0133DBB2052BF0D922
:4022C000FB238DF80C3000230CE004AA1A4412F8102C02F00F029DF80D100A448DF80D200133DBB20C2BF0D99DF80D305B4203F00F0363F01F038DF80D30F0238DF80E30A7
:402300000E2600E00C2603F00DFA44F0200003F02BFA642003F0D2F803F0D0F9F0B103F09BF944F0D00398421AD103F0FBF9002507E004AB2B4413F8100C03F015FA013590
:40234000EDB2B542F5D903F0EDF9322003F0B6F82046FFF71FFC034620B904E0002302E0002300E00123184605B0F0BDB06A0000E38DFF1F488FFF1F10B5044603F0D2F95A
:4023800044F0400003F0F0F9FA2003F097F803F0D5F8B74B1B78072B00F0F28003F08EF9212840F0ED80B34B1B78DBB2FF2B40F0AF81B04B9B78DBB2F82B40F0AB81AD4B2E
:4023C00093F82030DBB2F02B40F0A681AA4B1B78A3426AD1A74B5B7A03F00F033133A64A82F8FF3001230CE003F10B02A1498A5CA249C91A02F00F02303281F8F1200133C0
:40240000DBB2042BF0D904229B4B83F8F1209C4B1B78DBB2012B06D1974B052283F8F120302283F8F62001230CE003F1100291498A5C9449C91A02F00F02303281F8E32086
:402440000133DBB2062BF0D906228B4B83F8E32001230CE003F1170286498A5C8949C91A02F00F02303281F8D5200133DBB2062BF0D97F4B1B78052B11D109E05A1E7E4979
:40248000881890F8D5000B4483F8D500D3B200E00623012BF2D83022774B83F8D6200622754B83F8D520012010BD724B5B7A03F00F033133704A82F8053201230CE003F1C7
:4024C0000B026C498A5C6D49C91A02F00F02303281F8F7210133DBB2042BF0D90422664B83F8F721664B1B78DBB2012B06D1624B052283F8F721302283F8FC2101230CE04D
:4025000003F110025B498A5C5E49C91A02F00F02303281F8E9210133DBB2062BF0D90622554B83F8E92101230CE003F1170251498A5C5449C91A02F00F02303281F8DB219A
:402540000133DBB2062BF0D9494B1B78052B11D109E05A1E4849881890F8DB010B4483F8DB01D3B200E00623012BF2D83022424B83F8DC210622404B83F8DB21012010BDD8
:402580003B4B1B78072B40F0C98003F097F8272840F0C680374B1B78DBB2FF2B40F0C280344B9B78DBB2F82B40F0BE80314B93F82630DBB2F02B40F0B9802F4B1B78A342C2
:4025C0004BD12C4B5B7A03F00F0331332A4A82F8FF3001230CE003F10B0226498A5C2949C91A02F00F02303281F8F1200133DBB2062BF0D90622204B83F8F12001230CE059
:4026000003F112021B498A5C1F49C91A02F00F02303281F8E3200133DBB2082BF0D90822154B83F8E32001230CE003F11C0211498A5C1549C91A02F00F02303281F8D520E1
:402640000133DBB2072BF0D90B4B302283F8D620082283F8D520012010BD064B5B7A03F00F033133044A82F8053201231BE000BFE38DFF1F5C95FF1F6084FF1F6584FF1FEB
:40268000488FFF1F6784FF1F6984FF1F03F10B0227498A5C2749C91A02F00F02303281F8F7210133DBB2062BF0D90622224B83F8F72101230CE003F112021D498A5C1F49C2
:4026C000C91A02F00F02303281F8E9210133DBB2082BF0D90822184B83F8E92101230CE003F11C0212498A5C1449C91A02F00F02303281F8DB210133DBB2072BF0D90E4BAE
:40270000302283F8DC21082283F8DB21012010BD002010BD002010BD002010BD002010BD002010BD002010BD002010BD002010BD5C95FF1F6784FF1F6084FF1F6984FF1FB3
:4027400030B1002802DB831F062B01D90020704701207047002104E003F00F030B44D9B201300378FB2BF7D103F00F028818404200F00F0040F0E000704700BFF0B587B012
:4027800005460E46144600230193029303930493ADF81430FFF7FEF90638C0B201280AD845F0200002F0E0FF322002F087FE02F053FF074600E0002702F0B4FF02F0B2FF47
:4027C00045F0D003BB4240F0AA80FF238DF80430E1238DF80530012D40F0A380524A92F8633063F00F038DF80630F6238DF80730013E06F00F0666F01F068DF80860F823E5
:402800008DF8093092F86450462D09D006231AE006AA1A44E92102F8141C0133DBB200E00623424A127806329342F1DB1A4608E006A91144E02001F8140C0133DBB20132D9
:40284000D2B20D2AF4D9442D20D120781A460CE0215C06AE164401F00F0161F01F0106F8141C0138C0B20132D2B2217819448A42EEDB134608E006A91144E02001F8140C14
:402880000133DBB20132D2B20D2AF4D9562D20D120781A460CE0215C06AD154401F00F0161F01F0105F8141C0138C0B20132D2B2217819448A42EEDB134608E006A91144EA
:4028C000E02001F8140C0133DBB20132D2B20D2AF4D906AA1A44FB2102F8141C5D1CEDB201A8FFF737FF06AB2B4403F8140C0135EDB206AB2B44F02203F8142C002407E07A
:4029000006AB234413F8140C02F02EFF0134E4B2AC42F5D9322002F0D1FD012002E0002000E0002007B0F0BD9488FF1FE38DFF1FF0B585B000AF0446FFF72CF906280AD156
:4029400044F0200002F010FF322002F0B7FD02F083FE054600E0002502F0E4FE44F0D004AC4222D1FF233B71E9237B71FE23BB71EE23FB71E0233B727B72FB23BB72381DBD
:40298000FFF7E8FEF872F0233B73002408E007F11003234413F80C0C02F0E6FE0134E4B2082CF4D9C82002F089FD02F087FEC6B2F31D23F00703ADEB030D6D46002404E0EE
:4029C00002F04AFE28550134E4B2B442F8D902F0A9FEAB7A03F00F03264A13702B7B03F00F03254A1370012B0AD1244A47211170612151706C2191702021D1701171517146
:402A0000022B0CD11D4B55221A706B225A7020229A704722DA7061221A716C225A71AB7B03F00F03013B164A13702B7C03F00F03012B01D0042B02D10321124A1170032B42
:402A400000D013B902210F4A1170022B02D101220C4B1A70AB7C03F00F03013B0A4A13702B7D03F00F03094A137000201437BD46F0BD00BF278AFF1FF494FF1F5491FF1FA5
:402A8000908DFF1F288AFF1FF294FF1F0895FF1FF0B585B000AF0446FFF77CF80638C0B201280AD844F0200002F05EFE322002F005FD02F0D1FD054600E0002502F032FE9A
:402AC00044F0D004AC422AD1FF233B71E9237B71FE23BB71E023FB71E1223A727B72FB23BB72381DFFF736FEF872F0233B73002408E007F11003234413F80C0C02F034FE0D
:402B00000134E4B2082CF4D9154B1B7823B14FF4FA7002F0D3FC02E0962002F0CFFC02F0CDFDC5B2EB1D23F00703ADEB030D6E46002404E002F090FD30550134E4B2AC42C6
:402B4000F8D902F0EFFD337B03F00F03012B03D1B07B00F00F0000E000201437BD46F0BD278AFF1F30B583B005460A4610496B460868496803C3130A8DF802308DF80320DF
:402B8000002410E0012D06D102AB234413F8080C02F018FB05E002AB234413F8080C02F009FC0134E4B2072CECD903B030BD00BFC06A00002DE9F04387B005468C46164670
:402BC0001C469DF83870BDF83CE00DF10408DFF8A89059F8080FD9F80410D9F80820D9F80C30A8E80F00B9F81030A8F800307A1C02FB04F303EB43039B001B128DF8063058
:402C000004FB02F404EB4404A3008DF80730C6EBC6035B001B128DF80830C6EBC60673008DF8093020378DF80A709DF84030592B02D185238DF80B304FEA1E238DF80D3046
:402C40008DF80EE08DF811C0002410E0012D06D106AB234413F8140C02F0B4FA05E006AB234413F8140C02F0A5FB0134E4B2112CECD907B0BDE8F083C06A000070B584B0B6
:402C800005460E466B46134C54F81C0F6168A26807C3A2891A808DF807608DF80960002410E0012D06D104AB234413F8100C02F089FA05E004AB234413F8100C02F07AFB5E
:402CC0000134E4B20D2CECD9642002F0F7FB04B070BD00BFC06A0000F0B585B007460E46154600240DE0315D01230093002301934E23029338461F222B19FFF75BFF013468
:402D0000E4B2092CEFD905B0F0BD00BF054B04E0824201D15878704702331A78002AF7D1002070472081FF1F2DE9F04387B005468C4616461C469DF83870BDF83CE00DF1D8
:402D40000408DFF8A89059F82C0FD9F80410D9F80820D9F80C30A8E80F00B9F81030A8F800307A1C02FB04F303EB43039B001B128DF8063004FB02F404EB4404A3008DF8CC
:402D80000730C6EBC6035B001B128DF80830C6EBC60673008DF8093023378DF80A709DF84030592B02D185238DF80B304FEA1E238DF80D308DF80EE08DF811C0002410E039
:402DC000012D06D106AB234413F8140C02F0FAF905E006AB234413F8140C02F0EBFA0134E4B2112CECD907B0BDE8F083C06A000030B585B00D461446012840F0108102F03E
:402E000091F9082840F02F82A84B1B78DBB2AA2B40F0FE80A54B9B79DBB2C32B40F0F880A24BDB79DBB23C2B40F0F280A04B1B78DBB2013DAB4200F39F809C4BD878FFF7EE
:402E400065FF0546A0F12003DBB20B2B2AD8984A13780133DBB213701378964A134483F84B008CB9924B1A781B7892490A4492F84B1001200090002201924E22029203220D
:402E80000233FFF751FF78E0894B1B7801200090002201924E220292214603220233FFF743FF6AE0A0F12D03DBB2512B2AD8804A13780133DBB2137013787E4A134483F8A1
:402EC0004B008CB97A4B1A781B787A490A4492F84B1001200090002201924E22029203220233FFF721FF48E0714B1B7801200090002201924E220292214603220233FFF7F0
:402F000013FF3AE02C2838D1694B1B7813F0FF0F33D0694B1B7813F0FF0F2ED1644A13780133DBB213700121634B19701378614A134483F84B008CB95D4B1A781B785D4975
:402F40000A4492F84B1001200090002201924E22029203220233FFF7E7FE0EE0544B1B7801200090002201924E220292214603220233FFF7D9FE00E000254C4BDB78DBB2EB
:402F80000B2B26D14A4B1B7803F0FF042BB9142002F094FA02F0F4F868E1454C237801200090002201924E220292202103220233FFF7BAFE23783F4A134493F84B302C2B50
:402FC00002D100223C4B1A70394A1378013BDBB213700A2D10D1364B1B7813F0FF0F0BD0334B1A78334B83F84B20142002F066FA02F0C6F8012439E12C4BDB78DBB2942B5A
:4030000006D1142002F05AFA02F0BAF800242DE1142002F053FA02F0B3F8022426E102F079F9082840F02181244B1B78DBB2AA2B40F01281214B9B79DBB2C32B40F00C81E7
:403040001E4BDB79DBB23C2B40F006811C4B1B78DBB2013DAB4200F3B580184BD878FFF755FE0546A0F12003DBB20B2B3BD8144A13780133DBB213701378124A134483F857
:403080004B000CBB0E4B1A781B780E490A4492F84B1001220092002201924E220292022003220344FFF740FE8DE000BF1C95FF1FE68DFF1F9488FF1F5391FF1F3C95FF1F0F
:4030C000F394FF1F448CFF1F6A4B1B7801220092002201924E2202920220214602460344FFF722FE6FE0A0F12D03DBB2512B2CD8604A13780133DBB2137013785E4A134439
:4031000083F84B0094B95B4B1A781B785A490A4492F84B1001220092002201924E220292022003220344FFF7FFFD4CE0514B1B7801220092002201924E220292022021469B
:4031400002460344FFF7F0FD3DE02C283BD1494B1B7813F0FF0F36D0484B1B7813F0FF0F31D1444A13780133DBB213700121434B19701378424AD2783F490B4483F84B2035
:403180008CB93C4B1A781B780A4492F84B1001220092002201924E220292022003220344FFF7C2FD0FE0334B1B7801220092002201924E2202920220214602460344FFF7BE
:4031C000B3FD00E000250B2D27D12A4B1B7803F0FF042BB9142002F071F902F0C9F845E0244C237801220092002201924E2202920220202102460344FFF796FD23781E4AA9
:40320000134493F84B302C2B02D100221B4B1A70184A1378013BDBB213700A2D10D1154B1B7813F0FF0F0BD0124B1A78124B83F84B20142002F042F902F09AF8012415E094
:403240000F4BDB78DBB2942B06D1142002F036F902F08EF8002409E0142002F02FF902F087F8022402E0022400E00224204605B030BD00BFF394FF1F448CFF1F7888FF1F39
:403280003C95FF1F10B582B08DF804008DF8051002F0B8FD0720002102F000FD58B1002011E002AB234413F8040C02F053FD48B90134E4B200E00024012CF2D902F02EFDB7
:4032C000012000E0002002B010BD00BF38B504241DE002F097FD6820002102F0DFFCD0B9204602F037FDC0B902F018FD0A2002F0E5F86820012102F0D1FC80B9251F02F0FB
:4033000055FD084B585502F009FD0134E4B2062CDFD9012038BD002038BD002038BD002038BD00BFD08DFF1F10B582B004238DF80430134B1A788DF805205A788DF8062011
:403340009B788DF8073002F05DFD6820002102F0A5FC58B1002011E002AB234413F8040C02F0F8FC48B90134E4B200E00024032CF2D902F0D3FC012000E0002002B010BD9C
:40338000FC94FF1F38B501241DE002F03BFD6820002102F083FCD0B9204602F0DBFCC0B902F0BCFC0A2002F089F86820012102F075FC80B9651E02F0F9FC084B585502F0F2
:4033C000ADFC0134E4B2022CDFD9012038BD002038BD002038BD002038BD00BF0C95FF1F10B582B001238DF80430124B1A788DF805205B788DF8063002F004FD6820002109
:4034000002F04CFC58B1002011E002AB234413F8040C02F09FFC48B90134E4B200E00024022CF2D902F07AFC012000E0002002B010BD00BF5091FF1F38B504460E2900F28D
:40344000DA80DFE801F01221303F4ED85D6C7B8998A7B6C5D400704B2B44204693F88014FFF710FF0135ADB200E00025B5F56C7FF1D3C0E0684B2B44204693F83018FFF77F
:4034800001FF0135ADB200E00025B5F56C7FF1D3B1E0614B2B44204693F8E01BFFF7F2FE0135ADB200E00025B5F56C7FF1D3A2E0594B2B44204693F8901FFFF7E3FE013566
:4034C000ADB200E00025B5F56C7FF1D393E0534B2B44204693F84812FFF7D4FE0135ADB200E00025B5F56C7FF1D384E04B4B2B44204693F8F815FFF7C5FE0135ADB200E0F4
:403500000025B5F56C7FF1D375E0444B2B44204693F8A819FFF7B6FE0135ADB200E00025B5F56C7FF1D366E03C4B2B44204693F8581DFFF7A7FE0135ADB200E00025B5F5EA
:403540006C7FF1D357E0364B2B442046197CFFF799FE0135ADB200E00025B5F56C7FF2D349E02F4B2B44204693F8C013FFF78AFE0135ADB200E00025B5F56C7FF1D33AE098
:40358000274B2B44204693F87017FFF77BFE0135ADB200E00025B5F56C7FF1D32BE0204B2B44204693F8201BFFF76CFE0135ADB200E00025B5F56C7FF1D31CE0184B2B441E
:4035C000204693F8D01EFFF75DFE0135ADB200E00025B5F56C7FF1D30DE0124B2B44204693F88811FFF74EFE0135ADB200E00025B5F56C7FF1D320461B21FFF743FE2046F1
:403600004021FFF73FFE20460A21FFF73BFE20460A21FFF737FE38BDE0AE0000D8BF0000D0D00000C8E1000070B504460E46C84B1B78012B04D1C74B18780021FFF7FCFEFA
:4036400020460A21FFF71EFE002506E02046C24B595DFFF717FE0135EDB21D2DF6D920460A21FFF70FFE002506E02046BB4B595DFFF708FE0135EDB21D2DF6D920460A213E
:40368000FFF700FE002506E02046B54B595DFFF7F9FD0135EDB21D2DF6D920460A21FFF7F1FD002506E02046AE4B595DFFF7EAFD0135EDB21D2DF6D920460A21FFF7E2FD4F
:4036C000002506E02046A84B595DFFF7DBFD0135EDB21D2DF6D920460A21FFF7D3FD002508E0A14B2B44204693F82010FFF7CAFD0135EDB20C2DF4D9FFF7E8FD012832D175
:403700009A4D2978C1F3011120463031FFF7BAFD297801F00F0120463031FFF7B3FD20462F21FFF7AFFD6978C1F3001130312046C9B2FFF7A7FD697801F00F012046303135
:40374000FFF7A0FD20462F21FFF79CFDA978090920463031FFF796FDA97801F00F0120463031FFF78FFD20460A21FFF78BFD002508E07D4B2B44204693F83010FFF782FD8A
:403780000135EDB20C2DF4D9FFF7FCFD012820D1774D6978C1F3001130312046C9B2FFF771FD697801F00F0120463031FFF76AFD20463A21FFF766FD29780909204630317B
:4037C000FFF760FD297801F00F0120463031FFF759FD20460A21FFF755FD002506E02046614B595DFFF74EFD0135EDB21D2DF6D920460A21FFF746FD002508E05A4B2B44FB
:40380000204693F84010FFF73DFD0135EDB20C2DF4D9584DA5FB0635ED08204605F13001FFF730FD05EB85056D00751B05F130012046C9B2FFF726FD20460A21FFF722FDD9
:40384000002508E0484B2B44204693F85010FFF719FD0135EDB20C2DF4D920460A21FFF711FD454B1B78B34240F0118309E03E4B2B44204693F86010FFF704FD0135EDB282
:4038800000E000250C2DF2D920460A21FFF7FAFC002508E0344B2B44204693F87010FFF7F1FC0135EDB20C2DF4D9012508E0324B2B44204693F8F110FFF7E4FC0135EDB2C1
:4038C0002D4B93F8F130AB42F1D220462021FFF7D9FC2046244B93F88010FFF7D3FC20462F21FFF7CFFC002506E02046234B595DFFF7C8FC0135EDB2042DF6D920460A21A1
:40390000FFF7C0FC002508E0174B2B44204693F88410FFF7B7FC0135EDB20C2DF4D9164B93F8E430302B03D10022134B83F8E420114B93F8E43043B90F4B93F8E530302B74
:4039400003D100220C4B83F8E520012529E000BFD38DFF1F0995FF1F948DFF1FD494FF1F088AFF1F4084FF1F7481FF1FD08DFF1F0C95FF1FCDCCCCCC6084FF1F5491FF1F78
:40398000C04B2B44204693F8E310FFF77BFCBE4B1B789D4203D120462E21FFF773FC0135EDB2B84B93F8E330AB42E9D220462021FFF768FC002506E02046B44B595DFFF798
:4039C00061FC0135EDB2042DF6D920460A21FFF759FC002508E0AE4B2B44204693F89410FFF750FC0135EDB20C2DF4D9A54B93F8D630302B03D10022A24B83F8D620A14B76
:403A000093F8D63043B99F4B93F8D730302B03D100229C4B83F8D720012510E0994B2B44204693F8D510FFF72DFC9A4B1B789D4203D120462E21FFF725FC0135EDB2914BCD
:403A400093F8D530AB42E9D220462021FFF71AFC20468F4B93F88010FFF714FC20460A21FFF710FC8C4B93F86130012B42D109E0874B2B44204693F8A410FFF703FC01353B
:403A8000EDB200E000250C2DF2D9012508E0824B2B44204693F8DF10FFF7F4FB0135EDB27D4B93F8DF30AB42F1D220460A21FFF7E9FB002508E0764B2B44204693F8B4100B
:403AC000FFF7E0FB0135EDB20C2DF4D9012508E0714B2B44204693F86510FFF7D3FB0135EDB26D4B93F86530AB42F1D220460A21FFF7C8FB002506E02046654B595DFFF743
:403B0000C1FB0135EDB21D2DF6D920460A21FFF7B9FB614B93F86130022B40F0B88109E05B4B2B44204693F8C410FFF7ABFB0135EDB200E000250C2DF2D9012508E0564B56
:403B40002B44204693F8EA10FFF79CFB0135EDB2514B93F8EA30AB42F1D220460A21FFF791FB002508E04A4B2B44204693F8D410FFF788FB0135EDB20C2DF4D9012507E03E
:403B8000454B2B4420465978FFF77CFB0135EDB2414B5B78AB42F3D220460A21FFF772FB002508E03A4B2B44204693F8A410FFF769FB0135EDB20C2DF4D9012508E0364B1E
:403BC0002B44204693F8F510FFF75CFB0135EDB2314B93F8F530AB42F1D220460A21FFF751FB002508E02A4B2B44204693F8E410FFF748FB0135EDB20C2DF4D9012301E0A0
:403C00000133DBB2244A92F8F5209A42F8D220460A21FFF737FB002508E01D4B2B44204693F8F410FFF72EFB0135EDB20C2DF4D9012301E00133DBB2174A92F8F5209A42E2
:403C4000F8D220460A21FFF71DFB002508E0104B2B44204693F80411FFF714FB0135EDB20C2DF4D9012301E00133DBB20A4A92F8F5209A42F8D220460A21FFF703FB002515
:403C800015E000BF6084FF1F288AFF1F5491FF1F7481FF1F908DFF1F9488FF1F8C4B2B44204693F81411FFF7EDFA0135EDB20C2DF4D9012301E00133DBB2864A92F8F520AA
:403CC0009A42F8D220460A21FFF7DCFA002508E07F4B2B44204693F82411FFF7D3FA0135EDB20C2DF4D9012301E00133DBB2794A92F8F5209A42F8D220460A21FFF7C2FAA6
:403D0000002508E0724B2B44204693F83411FFF7B9FA0135EDB20C2DF4D9012301E00133DBB26C4A92F8F5209A42F8D220460A21FFF7A8FA002508E0654B2B44204693F889
:403D40004411FFF79FFA0135EDB20C2DF4D9012301E00133DBB25F4A92F8F5209A42F8D220460A21FFF78EFA002508E0584B2B44204693F85411FFF785FA0135EDB20C2DC9
:403D8000F4D9012301E00133DBB2524A92F8F5209A42F8D220460A21FFF774FA002508E04B4B2B44204693F86411FFF76BFA0135EDB20C2DF4D9012301E00133DBB2454A97
:403DC00092F8F5209A42F8D220460A21FFF75AFA002508E03E4B2B44204693F87411FFF751FA0135EDB20C2DF4D9012301E00133DBB2384A92F8F5209A42F8D220460A21EE
:403E0000FFF740FA20460A21FFF73CFA002508E02F4B2B44204693F88411FFF733FA0135EDB20C2DF4D920460A21FFF72BFA20460A21FFF727FA20460A21FFF723FA0025FE
:403E400008E0234B2B44204693F89411FFF71AFA0135EDB20C2DF4D920460A21FFF712FA20460A21FFF70EFA20460A21FFF70AFA002506E02046164B595DFFF703FA0135A4
:403E8000EDB21D2DF6D920460A21FFF7FBF920460A21FFF7F7F920460A21FFF7F3F920460A21FFF7EFF920460A21FFF7EBF920460A21FFF7E7F920461D21FFF7E3F92046C8
:403EC0005621FFF7DFF920463121FFF7DBF970BD7481FF1F9488FF1F10B501281CD1002002F070F84FF4FA7001F0FEFA012002F069F8052001F0F8FA02F070F8034658B36C
:403F0000412001F0F1FA02F069F80446F02001F0EBFAF4B901231FE0002002F067F84FF4FA7001F0E1FA012002F060F8052001F0DBFA02F067F8034670B1412001F0D4FAD6
:403F400002F060F80446F02001F0CEFA1CB9012302E0002300E00023184610BD38B50D4601282DD000245AE0002002F02BF80A2001F0BAFA45FA04F313F0010F0AD00120AC
:403F800002F020F80A2001F0AFFA02F027F8034650B94BE0002002F015F80A2001F0A4FA02F01CF800283ED1322001F09DFA012002F008F8322001F097FA0134E4B200E024
:403FC0000024072CD0D9012330E0002002F00EF80A2001F089FA45FA04F313F0010F0AD0012002F003F80A2001F07EFA02F00AF8034648B91AE0002001F0F8FF0A2001F0B8
:4040000073FA01F0FFFF80B9322001F06DFA012001F0ECFF322001F067FA0134E4B2072CD3D9012302E0002300E00023184638BD38B5012819D000252C4631E0002001F0BF
:40404000C1FF0E2001F050FA012001F0BBFF072001F04AFA01F0C2FFA0400543EDB2642001F042FA0134E4B201E000252C46072CE4D917E0002001F0B9FF0E2001F034FA85
:40408000012001F0B3FF072001F02EFA01F0BAFFA0400543EDB2642001F026FA0134E4B2072CE7D9284638BD4840002308E010F0010F03D0400880F08C0000E040080133BF
:4040C000072BF4D9704700BF30B5C1B005460C46684609494FF4807202F0EEFB0023184605E0EA5C50401DF8000001339BB2621E9342F6DB41B030BD64EE0000AC4BBC224B
:404100001A70CB225A70C8229A70AA4A1178D97052781A71A84BD3E90023002B08BF032AC0F05E8370B50A2001F0C8F902F006F8002800F04F830122A04B1A700024A04B2B
:404140001C7005E001F0C8FF9E4B18550134A4B201F0F4FF0028F5D19B4BBC221A70CB225A70C8229A70934A1178D97052781A71944B1B78BC2B40F02B83924B5B78BB2B99
:4041800040F026838F4B9B78B82B40F02183894B1B788C4AD2789A4240F01A83854B5B78884A12799A4240F01383864B9B79A62B00F03C8104D8A12B0CD0A52B67D007E3D8
:4041C000E12B00F02982E22B00F0D682A72B40F0FF82DBE17B4B5A797C4B19788A4209D1794B5971A1219971784991F80311D971082400E00524754B93F806319A420DD17A
:4042000071494B71631C9BB2A120C85401339BB26E4890F80902C85401339CB26B4B93F80C329A420DD168494B71631C9BB2A120C85401339BB2654890F80F03C854013390
:404240009CB2624B93F812339A420DD15E4A5371631C9BB2A121D15401339BB25B4991F81514D15401339CB2651CADB2564E30462946FFF729FF3055002405E0524B185DF5
:4042800001F0B2FF0134A4B2AC42F7D3A0E24D4B5B794E4A1078834246D1FDF723FD4B4A1178494B5971E821997192F80321DA7100221A7201225A72454B1B78053BDBB206
:4042C00093420BD90A2430E0404A1A4451783E4A11550134A4B2013B9BB201E00A240823002BF1D106E03021374A11550134A4B201339BB2032BF6D9082308E0334A1A44D8
:40430000117C314A11550134A4B2013B9BB2002BF4D106E030212C4A11550134A4B201339BB2032BF6D900E00524264B5B79274A92F80601834263D1FDF7D4FC234991F8ED
:404340000631214A5371631C9BB2E820D05401339BB291F80912D15401339BB20021D15401339BB20121D1540B449CB2184B1B78053BDBB28B4243D80AE0144A1A4492F88E
:404380000711114A11550134A4B2013B9BB200E00823002BF1D106E030210B4A11550134A4B201339BB2032BF6D908231CE000BF4C8FFF1FE08DFF1F8888FF1F268AFF1FB7
:4043C0001495FF1F5C91FF1F388AFF1F6084FF1FE38DFF1FAB4A1A4492F81611AA4A11550134A4B2013B9BB2002BF3D106E03021A54A11550134A4B201339BB2032BF6D985
:40440000651CADB2A04E30462946FFF75DFE3055A5F109033372002405E09B4B185D01F0E3FE0134A4B2AC42F7D3D1E1974B5A79944B187882420DD005241DE0934C257A18
:40444000E45C904901EBC501194481F8AC4001339BB200E009230D2BF0D90121894B83F805118A4B197A8A4B1970874B5871A62199710321D9710824824B93F806018242AB
:4044800023D10BE0814D2E7AED5C7E4901EBC601194481F8B25101339BB200E009230D2BF0D90121774B83F80B12784B197A784B197075494871631C9BB2A620C854013306
:4044C0009BB20320C85401339CB26E4B93F80C02824223D10BE06D4D2E7AED5C694901EBC601194481F8B85201339BB200E009230D2BF0D90121634B83F81113634B197A8B
:40450000634B197060494871631C9BB2A620C85401339BB20320C85401339CB2594B93F812138A421FD10BE05848057AC05C554A02EBC5021A4482F8BE0301339BB200E06F
:4045400009230D2BF0D901224E4B83F817244E4A5171631C9BB2A621D15401339BB20321D15401339CB2651CADB2474E30462946FFF7AAFD3055002405E0434B185D01F0C5
:4045800033FE0134A4B2AC42F7D321E13F4B5B793C4A11788B4207D13B4A5171A7219171384991F80311D171364A92F806118B4207D1354A5171A7219171324991F8091212
:4045C000D171304A92F80C128B4207D12E4A5171A72191712B4991F80F13D171294A92F81223934207D1284B5A71A7229A71254A92F81524DA71244C20460921FFF764FD88
:404600002072002405E0204B185D01F0EDFD0134A4B2082CF7D9DBE01C4B197A1D4A5170597A1D4A1170997A5170D97A9170197B1A4A51705B7B1370112307E0A3F1110201
:404640001249C85C1649885401339BB22E2BF5D92F2307E0A3F12F020C49C85C1149885401339BB24C2BF5D94D2307E0A3F14D020649C85C0C49885401339BB26A2BF5D9A3
:404680006B231BE06084FF1F388AFF1F5C91FF1FE28DFF1FDC8DFF1FFC94FF1F5091FF1F948DFF1FD494FF1F088AFF1FA3F14D024C49C85C4C49885401339BB2882BF5D93F
:4046C000484B1A7C494B1A70FEF78AFEFEF72CFE002408E004F11001454B185D89B201F0A5F80134A4B21D2CF4D91E240AE0A4F11E0304F110013F4AD05C89B201F096F8FF
:404700000134A4B23B2CF2D93C240AE0A4F11E0304F11001384AD05C89B201F087F80134A4B2592CF2D95A240AE0A4F11E0304F110012D4AD05C89B201F078F80134A4B294
:40474000772CF2D90C2001F0DBF82C4C20700D2001F0D6F884F806010E2001F0D1F884F80C020F2001F0CCF884F81203244B18782178FEF759FF2BE01A4B5B79214C637113
:40478000E223A3710823E3710323237220460A21FFF79AFC6072002405E01A4B185D01F023FD0134A4B2092CF7D9082307E0A3F108020C49C85C1449885401339BB20B2B1A
:4047C000F5D9084B187B114B1870072101F02EF801F0E8FC002000210D4BC3E9000170BD704700BF5C91FF1F4084FF1FE989FF1F948DFF1FD494FF1F088AFF1F6084FF1F30
:404800000995FF1F388AFF1FF489FF1FCC8DFF1F8888FF1F38B5AE4BD3E90023002B08BF1F2AC0F02982AB4B93F803310B2B1AD1A94B1B78012B16D1A64B1B78A74C637186
:40484000E623A3710B23E37120460921FFF73CFC2072002405E0A14B185D01F0C5FC0134A4B2082CF7D99B4B93F809320B2B1BD1994B1B78012B17D1964B93F80631974CBF
:404880006371E623A3710B23E37120460921FFF71BFC2072002405E0904B185D01F0A4FC0134A4B2082CF7D98A4B93F80F330B2B1BD1894B1B78012B17D1864B93F80C3204
:4048C000864C6371E623A3710B23E37120460921FFF7FAFB2072002405E0804B185D01F083FC0134A4B2082CF7D97A4B93F815340B2B1BD1784B1B78012B17D1754B93F8AE
:404900001233764C6371E623A3710B23E37120460921FFF7D9FB2072002405E06F4B185D01F062FC0134A4B2082CF7D9694B93F80431092B7BD1684B1B78012B77D1654A9E
:404940001178664B5971AA2199710121D97192F800211A72624991F8632002F003025A7291F8650084B208E0021B5D4B234493F865105C4B9954013CA4B2002CF4D10A23C4
:404980000CE0A3F10A0257498A5CD2B25349CA5412B93021514AD15401339BB2112BF0D900224E4B9A744E4B93F8343163B123461BE003F113022020484988540021494A11
:4049C000D15401339BB200E02346072BF1D90EE003F11300591C424A0A4492F8DF503F4A155400203F4AD0548BB2072BF0D91B2304E03021394AD15401339BB2252BF8D91B
:404A0000364D28462721FFF75FFB85F8260005E0324B185D01F0E8FB0134A4B2272CF7D901222C4B83F8032100222B4B1A70294B93F804310A2B40F08A80274B1B78012BC2
:404A400040F08580234A1178244B5971A42199710221D97192F80011197292F8F10084B208E0021B1B4B234493F8F1101E4B9954013CA4B2002CF4D109230CE0A3F10902D0
:404A800019498A5CD2B21549CA5412B93021134AD15401339BB20D2BF0D9012309E003F10D01124AD21A92F8E3000C4A505401339BB2084A92F8E3209A42F0D2074B1B7DE8
:404AC0001BB9064B30221A755A7501231AE000BF008AFF1F6084FF1F918DFF1F4C8FFF1F9488FF1F3C8CFF1F7C88FF1F6784FF1F03F11501614AD21A92F8D500604A50548C
:404B000001339BB25F4A92F8D5209A42F0D25C4B1B7F1BB95A4B30221A775A77584D28461F21FFF7D1FAA87705E0554B185D01F05BFB0134A4B21E2CF7D90822514B83F866
:404B400003210023504A82F83531504A1370504B1B78DBB2012B62D14C4B1B78012B5ED1484B1A78464B5A71E3229A710522DA7101220AE0D11D01339B1A4348034493F874
:404B800036013F4B5854013292B23F4B93F8363199B29142EED2082307E0394AD25C12B93021374AD15401339BB2122BF5D901220BE002F1120101339B1A3348034493F85C
:404BC00041012F4B5854013292B22F4B93F8413199B29142EDD2132307E0294AD25C12B93021274AD15401339BB21E2BF5D9244C20462121FFF768FA84F82000002405E065
:404C00001F4B185D01F0F0FA0134A4B2202CF7D905221C4B83F8032100221C4B1A70194B93F8053173B11B4B19781A78154B03EBC2021878B532FDF7AFFA18B10022114B94
:404C400083F805210F4B93F80B3283B1114B19781A780C4B03EBC20293F8060102F2BB12FDF79AFA18B10022064B83F80B2200200021094BC3E9000138BD00BF6784FF1FF7
:404C80004C8FFF1F6084FF1F9488FF1F918DFF1F9088FF1FE28DFF1F008AFF1FFEE700BF08B5104E104D16E029686B68AC68002204E051F8040B43F8040B0432A242F8D103
:404CC000E868002203E0002143F8041B04328242F9D11035013E002EE6D101F0C7FDFCF72BFFFEE70100000010F1000008B5124A124B1A60124A136843F4007313600023F7
:404D00000AE0032B03D80F4A52F8231000E00E490E4A42F8231001332F2BF2D90C4B1A780C4B1A70094A0C4B1A6000F0CFF800220A4B1A6008BD00BF0004FA050CED00E05F
:404D400014ED00E0000000009D4C00000080FF1FBC7600400481FF1F08ED00E00081FF1FFEE700BFF0B40022174611E050F82760F3B226F0FF0608E001EB420511F8124085
:404D80006D78A5550132013BDBB2002BF4D10137292FEBD9F0BC7047064B1B78DBB203F00701054A11701B09013213704422034B1A707047CF0100496E5800407658004039
:404DC00008B50A46002101F082FD08BD38B53322304B1A80182330490B7002310A802F4A13704FF49C7204310A8002310B7002310A802B4A13704FF40271023211800232EF
:404E0000137045F6BF5102321180023213700222244B1A7008224FF040231A70032103F500731970204B1B78DBB220490B70204B1A8041F25122023B1A80002419250CE05E
:404E40001C4B1B7803F0010343EA440404F003044FF4F07000F020FB013D0DB1032CEFD115B90320FFF77CFF134B4FF480721A8007221A70002211490A70482002310870ED
:404E80001A700222033B1A700D4A137843F03F03137038BD8040004082400040864000408E4000400043004008010049A14600402242004025420040044000400640004046
:404EC000A243004008B501F0F7FC08BD70B572B63A4A137843F00403137000240CE0384963001A1952000A4423445B00C8589188FFF766FF0134E4B20C2CF0D9002410E011
:404F00002F49A3001A1952000A4452F8500F23445B000B445168B3F85820FFF7D3FF0134E4B2042CECD94FF090402649FFF71AFF254A137843F0020313701032137843F023
:404F400002031370214C237843F040032370A2F58632513A137843F0100313701C481D490A22FFF7AFFF1C481C490A22FFF7AAFF1B481C490A22FFF7A5FF1B481B490A22BB
:404F8000FFF7A0FF1A481B490A22FFF79BFF1A4A137843F008031370184E01253570FFF715FF81233370164B1D70FFF7F5FE154821460E22FFF786FF70BD00BFE846004008
:404FC00064EF0000A800004803500140A0430040C0510040DC10004810510040E810004820510040F41000485051004000110048605100400C110048224300400048004097
:4050000004000840B04300407222074B1A70202201331A700622683B1A70472210331A70002250331A7070478964004010B500F03BFA04460A4A137843F0200313700132C4
:40504000137843F010031370083A137843F01003137000F0A5FA204600F02AFA10BD00BF9964004008B5054B1B7823B9FFF7CCFF0122024B1A70FFF7D9FF08BDEC83FF1F1D
:4050800008B500200C4900F05FFA0020072100F06FFA0023094A13707221094A11702021013211700621623A1170472110321170B03A137008BD00BFDD510000EE83FF1F62
:4050C0008765004010B500F0EFF904460B4A137843F0200313700132137843F0100313700122074B1A60074A137843F01003137000F0B6F9204600F0DBF910BD97650040F7
:4051000000E100E09664004008B5054B5B7823B9FFF7B6FF0122024B5A70FFF7D3FF08BDEE83FF1F0122134B1A60134A9378D278DBB2934206D1104B1B7913F0FF0F14D0ED
:40514000202013E00C4A9378D278DBB2934205D2094AD3789078181AC0B207E0064AD3789078181A2030C0B200E000200122034B1A60704780E100E0EE83FF1F00E100E01D
:4051800008B500F091F90B4B1A7842F001021A701A7802F0FE021A7000F08AF90121064B1960064B00229A70DA701A715A71044B196008BD9865004080E100E0EE83FF1FED
:4051C00000E100E0034B1B7813F0040FFAD1024B1870704766640040466400401C4B1B78DBB213F01E0F05D01A4803F01E0201780A43027003F0200303F0FF022BB3164B2A
:405200001978C9B2154B1B78DBB21548C154154B1B7813F0FF0F02D00121134B19700F490B780133DBB20B700B78DBB21F2B02D900210A4B1970094B1B780C490978DBB2FC
:405240008B4202D10121074B1970002AC6D1704768650040EE83FF1F48650040F183FF1F1C95FF1FF283FF1FF383FF1FF083FF1F08B501200C4900F067F90120072100F0BB
:4052800077F90023094A13707221094A11702021013211700621A2F5B47211704721103211705432137008BDCD530000F583FF1F8A65004010B500F0F7F804460B4A137818
:4052C00043F0200313700132137843F0100313700222074B1A60074A137843F01003137000F0CCF8204600F0E3F810BD9A65004000E100E09764004008B5054B5B7823B910
:40530000FFF7B6FF0122024B5A70FFF7D3FF08BDF583FF1F0222134B1A60134A9378D278DBB2934206D1104B1B7913F0FF0F14D0202013E00C4A9378D278DBB2934205D283
:40534000094AD3789078181AC0B207E0064AD3789078181A2030C0B200E000200222034B1A60704780E100E0F583FF1F00E100E008B500F099F80B4B1A7842F001021A7045
:405380001A7802F0FE021A7000F092F80221064B1960064B00229A70DA701A715A71044B196008BD9A65004080E100E0F583FF1F00E100E0034B1B7813F0040FFAD1024BE8
:4053C0001870704767640040476400401C4B1B78DBB213F01E0F05D01A4803F01E0201780A43027003F0200303F0FF022BB3164B1978C9B2154B1B78DBB21548C154154B98
:405400001B7813F0FF0F02D00121134B19700F490B780133DBB20B700B78DBB21F2B02D900210A4B1970094B1B780C490978DBB28B4202D10121074B1970002AC6D1704743
:405440006B650040F583FF1F4A650040F883FF1F3C95FF1FF983FF1FFA83FF1FF783FF1F054A137843F0020313701032137843F002031370704700BFA2430040054A1378B0
:4054800043F0010313701032137843F001031370704700BFA24300400230800803D000BF01380046FCD17047EFF3108072B6704780F31088704700BF01BE704710B504466A
:4054C00005E0084B1868FFF7E7FFA4F50044B4F5004FF6D8034B586800FB04F0FFF7DCFF10BD00BF5883FF1F08B5034B1B7A03FB00F0FFF7D1FF08BD5883FF1F0E4B1A7825
:4055000002F0FC0200F00300104318701A7842F080021A701A7802F07F021A7049011A7801F0600102F09F02114319701A7842F010021A70704700BF834300400122014B65
:405540001A7070478443004070B504460E46074B1D681F2802D90020FFF7AEFF04F01F04103455F8240045F8246070BD08ED00E038B504460D46072902D90020FFF79CFF8F
:405580001F2C02D90020FFF797FF04F01F0000F1604000F564406D01EDB2057038BD00BF054A137843F0040313701032137843F004031370704700BFA243004008B502200B
:4055C0000C49FFF7C1FF02200721FFF7D1FF0023094A13707221094A11702021043A11700621633A11704721103211704F32137008BD00BF81570000FC83FF1F8C64004093
:4056000008B5FFF751FF0A4A137843F020031370043A137843F0100313700422054B1A60054A137843F010031370FFF741FF08BD9C64004000E100E09464004008B5054B49
:405640005B7823B9FFF7BAFF0122024B5A70FFF7D7FF08BDFC83FF1F0422134B1A60134A53889BB2918889B2927912F0FF0F01D18B4211D00E4AD05CC0B201339BB2FF2B51
:4056800000D90023094A5380937913F0FF0F06D00022064B9A7102E0064B1878C0B20422054B1A60704700BF80E100E0FC83FF1F5C95FF1F4B64004000E100E00422164B98
:4056C0001A60164B5A8892B29B889BB29A4207D1124B9B7913F0FF0F19D04FF4807017E00E4B5A8892B29B889BB29A4205D20B4A93885088181A80B20AE0084A908883B219
:40570000508880B2181A00F5807080B200E000200422034B1A60704780E100E0FC83FF1F00E100E008B5FFF7BFFE0B4B1A7842F001021A701A7802F0FE021A70FFF7B8FE01
:405740000421064B1960064B00225A809A809A71DA71044B196008BD9B64004080E100E0FC83FF1F00E100E0034B1B7813F0040FFAD1024B187070476464004044640040D4
:405780001D4B1B78DBB213F01E0F05D01B4803F01E0201780A43027003F0200303F0FF0233B3174B1978C9B2164B1B889BB21648C154164B1B7813F0FF0F02D00121144B34
:4057C000197010490B8801339BB20B800B889BB2FF2B02D900210B4B19800A4B198889B20C4B1B889BB2994202D10121074B1970002AC5D1704700BF68640040FC83FF1F31
:405800004B6400400084FF1F5C95FF1F0284FF1F0384FF1FFE83FF1F08B500F0D7FE00F0DFFE08BD08B5FFF7F7FF08BD30B583B00C468DF8070000F013FFB4F5006F54D228
:405840002509C5EB053319010C44A4B200F0B4FF00284CD1402021460DF10702012300F02BFF044607282FD1234B1B7813F0020FFAD0214B1B7813F0020F06D01E4B1B7821
:405880009B0805D04FF0FF3403E04FF0FF3400E00024E4B9194B402029461A785B7800F047FF072816D1144B1B7813F0020FFAD0114B1B7813F0020F0FD00F4B1B789B08E2
:4058C00010D04FF0FF340DE0012809D10AE04FF0FF3407E04FF0FF3404E04FF0FF3401E04FF0FF3400F08EFF02E0012400E00424204603B030BD00BF224700407498FF1FE4
:4059000038B50446FFF7D0FD054600F093FE04F1804000F500400478E4B200F099FE2846FFF7C6FD204638BD10B50222104B1A7081220E3B1A700F2413331C7000220133FD
:405940001A704FF400420B4B1A6020460721FFF70FFE20460849FFF7F7FD1022074B1A7000F058FA00F064FA00F04CFA10BD00BFD649004080E100E0CD5900005C96FF1FE0
:4059800008B5FFF791FD064A137843F0040313701032137843F004031370FFF789FD08BDA543004008B5074B1B7823B9FFF7BCFF0122044B1A70FFF7E3FF4FF40042024B46
:4059C0001A6008BD0684FF1F00E100E038B5A54B1C78E4B2A44B1B7813F0400F00F0398114F0010F00F01D819F4B1B78453B052B00F21481DFE813F00600820012011201AC
:405A00000600E00004F0DF0504F00A04082C42D1954B1B78DBB2452B35D1944B1B7813F0FF0F10D0924B1B681B78DBB2914A137004228C4B1A7001228F4B1A7046228A4B5D
:405A40001A702C46EDE08D4B1B7813F0020F0DD08B4A137843F00A0313706022824B1A704FF40042874B1A602C46DAE0864A137843F0100313701022844B1A700422023BF6
:405A80001A702C46CDE00022764B1A704A22764B1A702C46C5E00A2C2BD1794A137843F0A0031370754B1B7813F0020F14D06E4B1B7813F0080F01D0092300E00A23704AB4
:405AC00011780B4313706022674B1A704FF400426C4B1A602C46A4E06B4A137843F0100313701022694B1A700422023B1A702C4697E00020FFF7E0FC2C4692E014F0020FA8
:405B000037D15D4B1B78594A1278DBB2934210D2594A1378DBB256490968CB5CDBB255490B7004214F4B197013780133DBB2137077E0524B1B7813F0020F0CD0504A137866
:405B400043F00A0313706022474B1A704FF400424C4B1A6065E000F079F94B4A137843F0100313701022494B1A700422023B1A7057E0424B1B7813F0020F0CD0404A137805
:405B800043F09A0313706022374B1A704FF400423C4B1A6045E03C4A137843F01003137010223A4B1A700422023B1A70344A137843F09003137034E0354A1378DBB23549D6
:405BC00008682C490978C9B2C15413780133DBB213701378304A1278DBB2934203D21022204B1A701DE0254B1B7813F0020F0CD0234A137843F00903137060221A4B1A70D8
:405C00004FF400421F4B1A600BE01F4A137843F0100313700022134B1A7002E00020FFF74BFC14F0200F1CD00F4B1B7813F0080F01D0012300E00223114A11780B43137035
:405C4000114A137803F0EF0313701022064B1A7038BD054B1B7813F0100F02D11022024B1A7038BDD74900405C96FF1F6096FF1F6C96FF1FD84900406996FF1F6196FF1FC7
:405C80006896FF1F80E100E0D6490040D94900407096FF1F6496FF1F6296FF1F1A4B1B78DBB2102B29D1194B1B7813F0080F26D14FF40042164B1A604000C0B229B140F096
:405CC00001004922104B1A7002E045220E4B1A70104B1870012201331A700F4B1B7813F0010FFAD00C4B1B7803F00A030A2B08D11022054B1A7003207047022070470120C1
:405D000070470020704700BF5C96FF1FD949004080E100E0D8490040D74900400A4B1B7813F0040F0ED01023074A13700421023A1170064A1370064B1B7813F0210FFAD029
:405D40000020704702207047D94900405C96FF1FD7490040114B1B7813F0040F1BD0104B18700422013B1A7046220E4B1A700E4B1B7813F0010FFAD00B4B1B7813F0020FD1
:405D800004D16022074B1A70002070476022054B1A70032070470220704700BFD9490040D84900405C96FF1FD7490040114B1B7813F0040F1BD0104B1B78DBB2492B05D123
:405DC0004A220D4B1A7000220C4B1A700B4B1B7813F0010FFAD00A4B1B78DBB218B11021064A117004E06021034A117000E0002318467047D94900405C96FF1FD74900402F
:405E0000D8490040024B187800221A70704700BF6896FF1F0022044B1A70044A137803F0FE031370704700BF7096FF1F6896FF1F0022044B1A70044A137803F0FD0313709B
:405E4000704700BF6996FF1F6896FF1F704700BF084A137843F0020313701032137843F00203137002F65932137843F001031370704700BFA3430040084A137803F0FE03A8
:405E80001370A2F66932137803F0FD0313701032137803F0FD031370704700BF0C4F0040014B1870704700BF0F4F0040014B1878704700BF0F4F0040014B1880704700BFA5
:405EC000104F0040014B1880704700BF124F004008B5164A137803F0010313700232137803F0FC031370124B1A7802F0CF021A701A7842F030021A701A7802F0F0021A70F6
:405F00001A7842F00F021A700A4A137843F00103137040F21F30FFF7CFFF40F21F30FFF7D1FF0820FFF7BCFF08BD00BF0C4F0040174F00400D4F004008B5054B1B7823B927
:405F4000FFF7C6FF0122024B1A70FFF781FF08BD0784FF1F024B1B68C3F88800704700BF08ED00E04001C0B2014B1870704700BF12E400E04FF48022014B1A60704700BF36
:405F800000E100E04FF48022014B1A60704700BF80E100E010B50446FFF7F4FF2046FFF7D9FF0720FFF7DEFFFFF7E4FF10BD00BF08B5FFF7E7FF0248FFF7CCFF08BD00BF0B
:405FC0009D4C0000044A137803F0BF03800100F0400018431070704750510040024B1878C0F38010704700BF51510040044A137803F07F03C001C0B203431370704700BFCE
:4060000050510040014B1878C00970475151004010B5FFF749FA04460B4A137843F020031370013A137843F0100313700822074B1A60074A137843F01003137000F02EF9FF
:406040002046FFF735FA10BD9E64004000E100E093640040014B1878704700BF70640040014B1870704700BF7064004008B503200F49FFF769FA03200721FFF779FA002362
:406080000C4A137072210C4A11702021013A117006215E3A117047211032117044321370FFF7D8FF00F0E700FFF7DAFF08BD00BF016200000884FF1F8E64004008B5054BF9
:4060C0005B7823B9FFF7D2FF0122024B5A70FFF79FFF08BD0884FF1F0822134B1A60134A53889BB2918889B2927912F0FF0F01D18B4212D00E4AD05CC0B201339BB2B3F557
:40610000007F00D30023094A5380937913F0FF0F06D00022054B9A7102E0064B1878C0B20822054B1A60704780E100E00884FF1F7496FF1F4864004000E100E00822164B29
:406140001A60164B5A8892B29B889BB29A4207D1124B9B7913F0FF0F19D04FF4007017E00E4B5A8892B29B889BB29A4205D20B4A93885088181A80B20AE0084A908883B20E
:40618000508880B2181A00F5007080B200E000200822034B1A60704780E100E00884FF1F00E100E008B5FFF77FF90B4B1A7842F001021A701A7802F0FE021A70FFF778F970
:4061C0000821064B1960064B00225A809A809A71DA71044B196008BD9864004080E100E00884FF1F00E100E0034B1B7813F0040FFAD1024B18707047636400404064004041
:406200001E4B1B78DBB213F01E0F05D01C4803F01E0201780A43027003F0200303F0FF02002B27D0174B1978C9B2174B1B889BB21648C154164B1B7813F0FF0F02D00121C9
:40624000144B197010490B8801339BB20B800B889BB2B3F5007F02D300210B4B19800A4B198889B20C4B1B889BB2994202D10121074B1970002AC3D1704700BF6D640040EA
:406280000884FF1F486400400C84FF1F7496FF1F0E84FF1F0F84FF1F0A84FF1F054A137843F0080313701032137843F008031370704700BFA2430040084A137843F0080386
:4062C00013701032137843F00803137002F67132137843F001031370704700BFA3430040014B1870704700BF274F0040014B1878704700BF274F0040014B1880704700BFAF
:40630000284F0040014B1880704700BF2A4F004008B5154A137803F0010313700232137803F0FC031370114B1A7802F0CF021A701A7842F030021A701A7802F0F0021A7083
:406340001A7842F00F021A70094A137843F001031370F920FFF7D0FFF920FFF7D3FF0820FFF7BEFF08BD00BF244F00402F4F0040254F004008B5054B1B7823B9FFF7C8FFAA
:406380000122024B1A70FFF797FF08BD1284FF1F084A137843F0040313701032137843F00403137002F66532137843F001031370704700BFA3430040014B1870704700BF00
:4063C0001B4F0040014B1878704700BF1B4F0040014B1880704700BF1C4F0040014B1880704700BF1E4F004008B5154A137803F0010313700232137803F0FC031370114B3A
:406400001A7802F0CF021A701A7842F030021A701A7802F0F0021A701A7842F00F021A70094A137843F0010313701320FFF7D0FF1320FFF7D3FF0820FFF7BEFF08BD00BFB4
:40644000184F0040234F0040194F004008B5054B1B7823B9FFF7C8FF0122024B1A70FFF797FF08BD1384FF1F024B1B68C3F88C00704700BF08ED00E04001C0B2014B1870F9
:40648000704700BF13E400E04FF40022014B1A60704700BF00E100E04FF40022014B1A60704700BF80E100E010B50446FFF7F4FF2046FFF7D9FF0720FFF7DEFFFFF7E4FF4C
:4064C00010BD00BF024B1B68C3F89000704700BF08ED00E04001C0B2014B1870704700BF14E400E04FF48012014B1A60704700BF00E100E04FF48012014B1A60704700BFF2
:4065000080E100E010B50446FFF7F4FF2046FFF7D9FF0720FFF7DEFFFFF7E4FF10BD00BF10B500F09DF800F047F9D0B900F086F90446072812D102E00120FEF7D5FF0A4BA0
:406540001B7813F0020FF7D0074B1B7813F0020F04D0054B1B789B0800D1002400F052F900E00424204610BD2247004010B500F077F800F021F910BB012000F0FFF8072816
:4065800018D11048022100F07DF802280AD102E00120FEF7A9FF0C4B1B7813F0020FF7D0002409E0084B1B7813F0020FE9D04FF0FF3401E04FF0FF3400F024F900E004240E
:4065C000204610BD7498FF1F2247004008B5FFF7A7FF034610B9FFF7C9FF0346184608BD08B5FEF761FF0F4A137843F0080313701032137843F008031370C8220A4B1A70F2
:406600000A4A137843F0100313701032137843F010031370064B1B7813F0200FFAD0FEF747FF08BDA043004001470040AC43004000470040054A137843F001031370034BF9
:406640001B7813F0020FFAD0704700BF02470040024A137803F0FE03137070470247004008B5FEF721FF064A137843F0080313701032137843F008031370FEF719FF08BD4E
:40668000A043004070B506460D4600240CE00120FEF72AFF064B1B7813F0010FF7D0054B1B7833550134E4B2AC42F3D3204670BD224700402047004030B43E2801D81F2BAC
:4066C00003D93F2827D90F2B27D8174C247814F0020F24D0154CB6252570D4252570012525700234247814F0020F1AD10F4C2070C1F300202070C9B22170591EC9B221704C
:40670000002104E0545C094804700131C9B29942F8D3072006E0012004E0012002E0042000E0092030BC7047224700402047004030B4104C247814F0020F15D00E4CB6254C
:406740002570D8252570052525700234247814F0020F0BD1084C2070080A2070C9B2217022702370072002E0042000E0092030BC704700BF22470040204700400C4B1B78E7
:4067800013F0020F0FD00B4BB6221A70E1221A700E221A7002331B7813F0020F05D1054B187007207047042070470920704700BF224700402047004010B5FEF775FE0F4B2E
:4067C0001B78A3B901220D4B1A700D4B1B6813F0010F0ED00A4A136823F00103136000BF00BF00BF0122054B5A60002402E0042400E00024FEF75CFE204610BD1484FF1FAC
:406800000400084008B5FEF74FFE0A4B00221A705B68012B0AD1084A136843F00103136000BF00BF00BF0022024B5A60FEF740FE08BD00BF1484FF1F04000840074B1B78C7
:4068400013F0020F08D0064BB6221A70E0221A700D221A700720704704207047224700402047004000210A2200F0C0B80E4B70B51E460E4C0025E41AA410A54204D056F85A
:40688000253098470135F8E708F030FC084B094C1E46E41AA4100025A54204D056F8253098470135F8E770BDF8F00000F8F00000F8F0000000F1000010B5431E0A44914219
:4068C00004D011F8014B03F8014FF8E710BD03460244934202D003F8011BFAE7704700002DE9F0470F46404CD4F800903D4615F801EB09EB0E04667806F0080404F0FF06AE
:406900000CB12F46F2E774462D2C03D1BD1C7C78012603E02B2C04BF7C78BD1C13B1102B0AD15AE0302C56D12C7804F0DF04582C4CD16C7810230235002E14BF4FF000481E
:406940006FF00048B8FBF3FA0027BE4603FB1A8809EB040C9CF801C01CF0040F01D0303C0BE01CF0030C1BD0BCF1010F0CBF4FF0370C4FF0570CCCEB04049C4210DAB7F184
:40698000FF3F0AD0D64506D801D1444503DC03FB0E4E012701E04FF0FF3715F8014BD7E77C1C73460AD1002E4FF0220114BF4FF000436FF0004301602AB911E00EB1CEF137
:4069C00000036AB107B1691E116009E03024002BB2D10823B0E70A23AEE7302CACD1A3E71846BDE8F08700BFCC83FF1F30B505460C461346034A294610682246BDE83040C5
:406A0000FFF76EBFC883FF1F00000000532F442F4475706C612000005365787475706C61000000004F637475706C610000000000352D352D3420202020200000362D362D33
:406A40003420202020200000372D372D3520202020200000382D372D35202020202000005465737420646520496D70726573696F6E2050756572746F203100005465737418
:406A800020646520496D70726573696F6E2050756572746F20320000496E696369616E646F000000517561647275706C61000000FF00F4F600F70000000000000000000009
:406AC000AA700000CC33C33CAA980000013922C5030000FFFF00CC33C33C0000AA5C0020002000300030CC33C33C0000AA980000013923C5020000FFFF00CC33C33C000016
:406B00001D4C33001B2A00AA0000000000000000000000000000000000000000000000000000000000000000000000000000000000000000000000000000000000000000CA
:406B40000000000000000000000103070F1F1F1E3E3C3C3C3C3C3C3C3C3C3C3C3C3C3C3C3C3C3C3F3F3F3F3F000000000000000000000000000000000000000000000000EE
:406B8000000000000000000000000000000000000000000000000000000000000000000000000000000000000000000000000000000000000000000000000000011D4C3338
:406BC000001B2A00AA00000000000000000000000000000000000000000000000000000000000000000000000000000000001F1F1F1F1F1F1F1F1F1F1F1F1F1F0F070100DD
:406C00000000000000FFFFFFFFFF80000000000000000000000000000000000000000000FFFFFFFFFC000000000000000000000000000000000000000000000000000000E1
:406C4000000000000000000000000000000000000000000000000000000000000000000000000000000000000000000000000000000000000000000000011D4C33001B2A32
:406C800000AA00000000000000000000000000000000000000000000000000000000000000000000000000000000C0E0F0F0F8F8F8F8F8F8F8F8F8F8F8F8F000000000001A
:406CC00000FEFEFEFEFE0E0E0E0E0E0E0E0E0E0E0E0E0E0E0E0E0E0E1E3E7CFCF8F0E080000000000000000000000000000000000000000000000000000000000000000086
:406D0000000000000000000000000000000000000000000000000000000000000000000000000000000000000000000000000000000000000000011D4C33001B2A00AA00C7
:406D4000000000000000000000000000000000000000000000000000000000000000000000000000000000000000010307070707070707070707070707070707070707008A
:406D80000000000000003F3F3F38383838383838383838383838381C1E1F0F030000000000000000000000000000000000000000000000000000000000000000000000009B
:406DC000000000000000000000000000000000000000000000000000000000000000000000000000000000000000000000000000000000011D4C33001B2A00AA0000000007
:406E00000000000000000000000000000000000000000000000000000000000000000000000000007FFFFFFFFFFFFFFFFFFFFFFFFFFFFFFFFFFFFFFFFFFFFC0000000000EC
:406E40000000F0FCFE1F0F0703030303030303030303030303FFFFFFFF000000000000000000000000000000000000000000000000000000000000000000000000000000D0
:406E8000000000000000000000000000000000000000000000000000000000000000000000000000000000000000000000000000011D4C33001B2A00AA0000000000000046
:406EC00000000000000000000000000000000000000000000000000000000000000000000000E0E0E0E0E0E0E0E0E0E0E0E0E0E0E0E0E0E0E0C080000000000000000000B2
:406F00000000000000008080808080808080808080808080808000000000000000000000000000000000000000000000000000000000000000000000000000000000000051
:406F4000000000000000000000000000000000000000000000000000000000000000000000000000000000000000000000011D4C33001B2A00AA0000000000000000000085
:406F800000000000000000000000000F0F0F0C0C0C0C0C0C0C0C0F0F0F06000F0F0F00000103070E0E0C0C0C0C0C0C0C0F0F0F000001070F0F0E0C0C0E0F0F0E0C0C0C0F83
:406FC0000F0F00000103070E0C0C0C0C0C0C0C0C0F0F0F000008080C0E07030101010101070F0E0C080000000000000000000000000000000000000000000000000000005C
:40700000000000000000000000000000000000000000000000000000000000000000000000000000000000000000011D4C33001B2A00AA00000000000000000000000000C4
:407040000000000000000000FCFCFC1C1CDCDCDCDCDCCCFCFCFC3800FCFCFC0000FCFCFC1C1C1C1C1C1C1C1C38F8F0E00C1CFCF8E00000000000FCFC00000000FCFCFC00F0
:4070800000FCFCFC606060606060606060FCFCFC00000C1C3C78F0E0C0C0C0E0F0F8BC1C0C04000000000000000000000000000000000000000000000000000000000000EC
:4070C000000000000000000000000000000000000000000000000000000000000000000000000000000000011D4C33001B2A00AA0000000000000000000000000000000004
:40710000000000000000000000000000000000000000000000000000000000000000000000000000000000000000000101010303060606040C080800000000000000000014
:407140000001010101010101010101000000000000000000000000000000000000000000000000000000000000000000000000000000000000000000000000000000000005
:40718000000000000000000000000000000000000000000000000000000000000000000000000000011D4C33001B2A00AA0000000000000000000000000000000000000043
:4071C0000000013F3F1F1F1F1F1F3F3F7F7F3F3F3F1F1F1F1F1F0F0F07070707070F0F1F1F3E3D7B73E3E7C7C78E8E8E1C1818393931716363636767C7C7C7C68686868E07
:407200008E8E8C8C8C8C8C8C8C0C0404060606060606060303030301010101010000000000000000000000000000000000000000000000000000000000000000000000000F
