:400000000080002011000000B93E0000B93E000008B5044B1A6803F53F5302331A6003F04DFF00BFFA46004010B5054C237833B9044B13B10448AFF300800123237010BD3A
:40004000D083FF1F0000000088590000084B10B51BB108480849AFF300800848036803B910BD074B002BFBD0BDE81040184700BF0000000088590000D483FF1F0881FF1FEB
:400080000000000008B505F005F8024A13780133137008BD4891FF1F08B504F0B7FC04F0C1FB04F043F904F03BFA04F0EBF804F06DFD05F0F7F808BD08B5124B1878002131
:4000C00004F0A8FC104B1878012104F0A3FC0F4B1878022104F09EFC0D4B1878032104F099FC0C4B1878042104F094FC0A4B1878052104F08FFC094B1878062104F08AFCF9
:4001000008BD00BFB989FF1FF49FFF1FF490FF1FBA89FF1FF29FFF1F08A0FF1F4691FF1F10B5072004F0E0FC0A4B1870082004F0DBFC094B1870092004F0D6FC074B18708C
:400140000A2004F0D1FC064C20700B2004F0CCFC607010BD3091FF1F09A0FF1F4791FF1F4491FF1F10B59CB0994A19AB07CA03C31A80984B16AC93E8070003C42280964A46
:4001800013AC07CA03C4228010AC03F10C0207CA03C4227000228DF849200DAC03F1180103C984E80300ADF83C200AAC03F1240207CA03C4228007AC03F1300207CA03C4D1
:4001C000228004AC03F13C0207CA03C4228001AC483393E8070003C42280804B1B78022B7AD10120014602F0D9F9012019A9002202F08EFA4FF4967004F074FA784B1B78AC
:400200005BB90133DBB2774A82F8023182F80632012016A9002202F07BFA714B1B78012B0BD10133DBB26F4A82F8023182F80632012013A9002202F06BFA694B1B78022B66
:400240000BD10133DBB2674A82F8023182F80632012010A9002202F05BFA614B1B78032B0BD10133DBB25F4A82F8023182F8063201200DA9002202F04BFA5B4B1B783BB91F
:4002800001200AA9162202F043FA0522574B1A70554B1B78012B07D1012007A9162202F037FA0622514B1A704F4B1B78022B07D1012004A9162202F02BFA07224B4B1A7067
:4002C000494B1B78032B07D1012001A9162202F01FFA0822454B1A70404B1B78042B6DD101202E2102F05AF9012019A9002202F00FFA4FF4967004F0F5F9394B1B787BB9C9
:400300000133DBB2374A82F8023182F8063282F80A3382F80E34012016A9002202F0F8F92F4B1B78012B0FD10133DBB22D4A82F8023182F8063282F80A3382F80E34012080
:4003400013A9002202F0E4F9254B1B78022B0FD10133DBB2234A82F8023182F8063282F80A3382F80E34012010A9002202F0D0F91B4B1B78032B0FD10133DBB2194A82F864
:40038000023182F8063282F80A3382F80E3401200DA9002202F0BCF9134B1B78012B04D1012007A9162202F0B3F90F4B1B78022B04D1012004A9162202F0AAF9074B1B783D
:4003C000012B03D80120002102F0E8F81CB010BDF45900008C590000005A000014A0FF1FB989FF1F4084FF1F08A0FF1F4691FF1F08B5104B1B78022B06D10220012102F009
:40040000CDF800220C4B1A600A4B1B78042B03D102202E2102F0C2F8064B1B78012B03D80220002102F0BAF802200449002202F06FF908BD14A0FF1F9098FF1F0C81FF1FB7
:4004400008B501F025FC2D4B1870002855D02C4B187801F005FC01F08FFE50B90120002102F09CF80220002102F098F80022234B1A70234B93F8040101F0F2FB01F07CFEF2
:4004800050B90120002102F089F80220002102F085F80022194B1A70194B187801F0E0FB01F06AFE48B3164B93F8040101F0D8FB01F062FE08B301F0EBFB104B1870104BD2
:4004C000187801F0CDFB06280DD10D4B93F8040101F0C6FB062806D1094B187801F044FFFFF7EAFD08BD0120092102F057F80220092102F053F8FFF7A3FF08BD14A0FF1F0A
:400500004084FF1F30B587B001AC284D0FCD0FC42B682370002408E006AB2344012013F8141C02F0CBFB0134E4B2102CF4D901200A2102F0C3FB01200A2102F0BFFB0120A5
:400540000A2102F0BBFB01200A2102F0B7FB01200A2102F0B3FB01200A2102F0AFFB002408E006AB2344022013F8141C02F0A6FB0134E4B2102CF4D902200A2102F09EFB24
:4005800002200A2102F09AFB02200A2102F096FB02200A2102F092FB02200A2102F08EFB02200A2102F08AFB07B030BDE0590000F0B585B0B14B1B68122B01F26B81DFE826
:4005C00013F0130026004C00A8006B01990117028F02100383035C04A3041905A705FC052107B3071E089708FFF7BCFD0122A34B1A6004F0D1FD04F033FD0023A04A137059
:40060000A04A82F8613082F8033101F043B908229D4B83F8032103F097FE082841F03A819A4B1B78DBB2AA2B10D1984B9B79DBB2C32B0BD1954BDB79DBB23C2B06D10222A9
:400640008E4B1A600120042101F0A8FF0A2004F049F803F0A7FE01F01DB903F075FE082841F01881894B1B78DBB2AA2B4AD1874B9B79DBB2C32B45D1844BDB79DBB23C2BB9
:4006800040D1824BDB78DBB2452B24D004D80D2B07D00E2B10D035E07E2B2CD0942B22D030E00322754B1A600120764B83F86100052101F073FF25E00A22704B1A60022269
:4006C000704B83F8612000226D4B1A700120852101F064FF16E00C22684B1A600120832101F05CFF0EE00022644B1A600120014601F054FF06E00022604B1A6001200146E8
:4007000001F04CFF0A2003F0EDFF03F04BFE01F0C1B803F019FE082841F0BC805B4B1B78DBB2AA2B40F0A380584B9B79DBB2C32B40F09D80554BDB79DBB23C2B40F097808B
:40074000524BDB78DBB23B2B00F0828004D80F2B0BD0102B25D08AE07E2B00F08180942B6ED0432B40F0838037E00422434B1A60444B022483F86340442283F8642000253F
:40078000434B1D700120062101F008FF0120009001954E23029324210322234601F0E0FF65E00422354B1A60364B012483F86340562583F864500026354B1E7020460D2153
:4007C00001F0ECFE009401964E230293204629460322022301F0C4FF49E02A4B022283F86320462283F86420012306E0254A1A44392182F865100133DBB21A4625490978C3
:40080000481E8342F2DB1F4B9C18302084F8650084F8660083F86510002307E0194A1A4492F8650082F86F000133DBB28B42F5D90522124B1A600120862101F0AFFE16E046
:4008400000220E4B1A600120014601F0A7FE0EE000220A4B1A600120014601F09FFE06E00022064B1A600120014601F097FE0A2003F038FF03F096FD01F00CB86091FF1F51
:400880004891FF1F5488FF1F4084FF1F18A0FF1F4991FF1F4691FF1F0120894B1978002201F0C2FF18B1012815D000F0F3BF0022844B1A600120014601F070FE00F0EABF04
:4008C000814A1A4492F84B1082F8651082F86F100133DBB200E000237B4A92F84B209A42EED20522774B1A600120862101F056FE00F0D0BF03F028FD082840F0CB87734B71
:400900001B78DBB2AA2B6CD1704B9B79DBB2C32B67D16E4BDB79DBB23C2B62D16B4BDB787E3B3A2B5DD8DFE803F055351E295C5C5C5C5C5C5C5C5C5C5C5C5C5C5C5C5C5C70
:400940004D5C5C5C5C5C5C5C5C5C5C5C5C5C5C5C5C5C5C5C5C5C5C5C5C5C5C5C5C5C5C5C5C5C5C5C41000622564B1A600120584B83F801010B2101F011FE32E00622514BCF
:400980001A600222524B83F8012101200B2101F005FE26E006224B4B1A6003224C4B83F8012101200B2101F0F9FD1AE00622454B1A600422464B83F8012101200B2101F095
:4009C000EDFD0EE000223F4B1A600120014601F0E5FD06E00120014601F0E0FD0022394B1A600A2003F07EFE03F0DCFC00F052BF384804F0C3FB04F093FB03F0A5FC0828A5
:400A00004DD1324B1B78DBB2AA2B43D12F4B9B79DBB2C32B3ED12D4BDB79DBB23C2B39D12A4BDB78DBB2392B04D07E2B2BD0382B30D10FE00922234B1A600022264B1A707C
:400A4000214B012083F8000183F834010A2101F0A5FD1FE01C4B93F803313BB10022194B1A600120014601F099FD13E00721154B19600023144A82F83431184A13700120A5
:400A800001F08CFD06E000220E4B1A600120014601F084FD0A2003F025FE03F083FC0F4B1B781D2B40F2F6860023064A13600B4A13700120014601F071FD00F0EBBE00BF95
:400AC0004691FF1F6091FF1F5488FF1F18A0FF1F4084FF1F850000004991FF1F4891FF1FAA4804F04BFB04F01BFBA94C207801F0EBFC014684F8000194F8013198423AD1CA
:400B0000A44A92F863302078653203F0030301F051FB012821D1207801F0A2F8322003F0E1FD207840F0100003F012FF322003F0D9FD0824984B1C6004F02EFB04F090FAC7
:400B40000022964B1A700120214601F027FD01209349122201F0DCFD1DE000218E4B1960012001F01BFDC82003F0BCFD0120014601F014FD0FE00722874B1A60874B1B78EF
:400B80003B2B08D90023844A1360844A13700120014601F003FD03F0D7FB08281DD1814B1B78DBB2AA2B15D17E4B9B79DBB2C32B10D17C4BDB79DBB23C2B0BD1794BDB781B
:400BC000DBB27E2B06D10120014601F0E7FC0022714B1A600A2003F085FD03F0E3FB00F059BE6B4B187801F03BF80638052800F25186DFE810F006004F064F0612001B009B
:400C000042000023644A1360624A82F835310120014601F0C3FC00F03DBE5E4B012283F83521002283F8032100F034BE584B187801F0BEF8574B93F83431012B0DD15A4B44
:400C40001878534B197802F00BFA0022524B1A600120014601F0A2FC09E006224E4B1A6001204C4B83F803010B2101F097FC0022484B83F8352100F00DBE454B187801F031
:400C800097F8444B93F83431012B0DD1464B18783F4B197802F0E4F900223F4B1A600120014601F07BFC09E006223B4B1A600120384B83F803010B2101F070FC0022354BBC
:400CC00083F8352100F0E6BD01200A21002201F0ABFD18B1012845D000F0DCBD2D4B93F80031013B032B39D8DFE803F00A1D2935284A1A44002182F8DF100133DBB200E010
:400D000000230A2BF4D90022234B1A600120014601F044FC22E01F4A1A44002182F8EA100133DBB200E000230A2BF4D916E0194A1A44002182F8F5100133DBB200E00023AC
:400D40000A2BF4D90AE0134A1A44002182F836110133DBB200E000230A2BF4D903F022FB00F098BD0B4B93F80031013B032B00F28080DFE803F01B43595F064A1A4492F859
:400D80004B1082F8DF100133DBB210E0850000004084FF1F5488FF1F6091FF1F4891FF1FB988FF1F18A0FF1F09A0FF1F0023AD4A92F84B209A42E0D2AA4B93F803316BB1EE
:400DC000A94B1878A94B197802F04AF90022A84B1A600120014601F0E1FB4AE00721A44B1960012001F0DAFB43E09E4A1A4492F84B1082F8EA100133DBB200E00023994AE7
:400E000092F84B209A42F0D20721994B1960012001F0C4FB2DE0934A1A4492F84B1082F8F5100133DBB200E000238E4A92F84B209A42F0D2002307E08A4A1A4492F84B10CD
:400E400082F836110133DBB20A2BF5D90E22884B1A600022874B1A700523874A13702A21864A11707F4A82F800310120252101F095FB03F097FA00F00DBD03F065FA0828BE
:400E800040F008857E4B1B78DBB2AA2B35D17C4B9B79DBB2C32B30D1794BDB79DBB23C2B2BD1774BDB78DBB2B62B04D0B72B10D07E2B22D11AE00B226D4B1A6000226D4B6A
:400EC0001A700120674B83F83401122101F066FB13E00023634A82F800310721644A1160684A1370012001F059FB06E00120014601F054FB00225E4B1A600A2003F0F2FB33
:400F000003F050FA00F0C6BC5F4804F037F904F007F9012002F0B6FC01285BD1332102F0F3FC40B956E0012002F058FD574B18550134E4B200E00124082CF4D90020012438
:400F400005E0524B195D02F085FD0134E4B2072CF7D94E4B1B7A83423CD11023414A5370012120E0494A525C02F00F00092804DD3C4C1C443730607003E03A4C1C443030F8
:400F80006070013BDBB21209092A04DD354818443732427003E03348184430324270013BDBB20131C9B20829DCD90120132101F0F5FA03F0F7F94FF42F7003F093FB0222AC
:400FC000284B83F800210922294B1A6001200E2101F0E4FA2B4B1B783B2B40F25B840023234A1360274A13700120014601F0D6FA00F050BC03F0A8F9082840F04B84204BE0
:401000001B78DBB2AA2B7DD11D4B9B79DBB2C32B78D11B4BDB79DBB23C2B73D1184BDB78DBB2552B36D004D83B2B54D0462B07D068E0942B57D0B52B41D07E2B62D15AE08F
:401040000D220B4B1A60124B1B78012B04D101202A2101F0A3FA55E00120232101F09EFA50E000BF5488FF1F09A0FF1F4084FF1F6091FF1F4991FF1F5288FF1F3191FF1FF2
:4010800018A0FF1F4891FF1F85000000D49FFF1F3091FF1F0E22AB4B1A600622AA4B83F800210022A94B1A700522A94B1A702A22A84B1A700120252101F070FA22E0002221
:4010C000A04B1A600B22A44B83F803210120014601F064FA16E000229A4B1A600120014601F05CFA0EE00022964B1A600120014601F054FA06E00022924B1A60012001461A
:4011000001F04CFA0A2003F0EDFA03F04BF9C1E303F01AF9082840F0BD83904B1B78DBB2AA2B44D18D4B9B79DBB2C32B3FD18B4BDB79DBB23C2B3AD1884BDB78DBB2482B48
:4011400017D002D8472B05D031E07E2B20D0942B26D02CE009227B4B1A6000227B4B1A700422794B83F800210120242101F016FA1DE00922734B1A600022744B1A70042241
:40118000714B83F800210120242101F007FA0EE00120014601F002FA00226A4B1A6006E00120014601F0FAF90022664B1A600A2003F098FA03F0F6F86CE30120644B19782C
:4011C000644B1A7801F030FB10B1012859D061E35D4B93F80031013B052B4FD8DFE803F0091A4E4E2F4200215D4AD1540133DBB200E00023042BF6D90022524B1A60012051
:40120000014601F0CBF939E00021564AD1540133DBB200E000234E4A12789342F4D30022484B1A600120014601F0B8F926E0464A1A44002182F841110133DBB200E0002353
:40124000434A12789342F2D300223E4B1A600120014601F0A3F911E00021434AD1540133DBB200E00123404A12789A42F4D20022344B1A600120014601F090F903F092F8EA
:4012800008E3314B93F80031013B052B00F2B780DFE803F00C35B5B54B79591C2A4A0A4492F84B002E4AD054CBB200E00023042BF3D92B480023037104F094FA80B22B4BF6
:4012C0001880C3B22A4C2370000A607020780A2103F0A0FB60780B2103F09CFB0F22194B1A6001205A2101F059F988E0164A1A4492F84B101B4AD1540133DBB200E00023D8
:40130000134A12789342F1D30F220E4B1A6001205A2101F043F972E00B4A1A4492F84B1082F841110133DBB200E00023084A12789342F1D30F22034B1A6001205A2101F0EB
:401340002DF95CE06091FF1F5488FF1F4991FF1F5288FF1F3191FF1F4084FF1F18A0FF1FCC9FFF1FAC89FF1FA489FF1F7C9EFF1F4491FF1F904A1A4492F84B108F4AD1540D
:401380000133DBB200E001238C4A12789A42F1D28A4B5A788A4B5B7B9A4221D1874B9A78874B9B7B9A421BD1844BDA78844BDB7B9A4215D1814B1A79814B1B7C9A420FD12F
:4013C0000120262101F0EAF84FF42F7003F08AF90F227C4B1A6001205A2101F0DFF80EE00120272101F0DAF84FF42F7003F07AF90022744B1A600120014601F0CFF802F0B5
:40140000D1FF47E202F0A0FF082840F043826E4B1B78DBB2AA2B40F081806B4B9B79DBB2C32B7BD1684BDB79DBB23C2B76D1664BDB78583B3C2B71D8DFE803F052703C70DC
:4014400070707070707070707032707070707070707070707070707070707070707070707070617070701F707070707070707070707070707070707069000E22514B1A60DB
:401480000023524A1370524A13700522514B1A700120494B83F80001062101F07FF83DE01022484B1A60FFF72DF801206B2101F075F833E00E22434B1A600023434A1370BE
:4014C000434A13700322434B1A700223424A1370394A82F800310120062101F05FF81DE01222384B1A600022384B1A700422324B83F8002101203E2101F050F80EE0012049
:40150000014601F04BF800222E4B1A6006E00120014601F043F800222A4B1A600A2003F0E1F802F03FFFB5E102F00EFF082840F0B181254B1B78DBB2AA2B5AD1224B9B7932
:40154000DBB2C32B55D1204BDB79DBB23C2B50D11D4BDB78DBB2392B10D002D8382B05D047E07E2B20D0942B3CD042E01122154B1A600120672101F011F83AE00F22114B54
:401580001A600124154B1C70154D02232B702046082103F03FFA2878092103F03BFA20465A2100F0FBFF24E00120014600F0F6FF0022044B1A601CE05488FF1FA489FF1F89
:4015C0000C81FF1F6091FF1F18A0FF1F4991FF1F3191FF1F5288FF1FAC89FF1F09A0FF1F4791FF1F0120014600F0D8FF0022AA4B1A600A2003F076F802F0D4FE4AE102F04F
:40160000A3FE082840F04681A44B1B78DBB2AA2B68D1A24B9B79DBB2C32B63D19F4BDB79DBB23C2B5ED19D4BDB787E3B162B59D8DFE803F049585858585858585858585883
:4016400058580C2035585858585851000F22924B1A600220924B1870924C2070082103F0D9F92078092103F0D5F901205A2100F095FF37E00F22884B1A600124884B1C7029
:40168000884D2C702046082103F0C4F92878092103F0C0F920465A2100F080FF22E00F227D4B1A6000207E4B18707E4C2070082103F0B0F92078092103F0ACF901205A21B9
:4016C00000F06CFF0EE00120014600F067FF0022714B1A6006E00120014600F05FFF00226D4B1A600A2002F0FDFF02F05BFED1E001F064FB01283CD16B4F7978C1F3001191
:40170000303101240094002601964E2502952046C9B20D22082301F023F8797801F00F01009401960295204630310D22092301F017F800940196029520463A210D220A23CC
:4017400001F00EF839780909009401960295204630310D220B2301F003F8397801F00F01009401960295204630310D220C2300F0F7FF01F0C7FA01285DD14C4F3978C1F355
:40178000011101240094002601964E250295204630311522082300F0E3FF397801F00F01009401960295204630311522092300F0D7FF00940196029520462F2115220A235C
:4017C00000F0CEFF7978C1F3001130310094019602952046C9B215220B2300F0C1FF797801F00F010094019602952046303115220C2300F0B5FF00940196029520462F2160
:4018000015220D2300F0ACFFB97809090094019602952046303115220E2300F0A1FFB97801F00F010094019602952046303115220F2300F095FF02F087FD08282AD1174B37
:401840001B78DBB2AA2B20D1144B9B79DBB2C32B1BD1124BDB79DBB23C2B16D10F4BDB78DBB27E2B02D0942B08D00EE000220A4B1A600120014600F091FE06E00022064BB1
:401880001A600120014600F089FE0A2002F02AFF02F088FD05B0F0BD6091FF1F18A0FF1F09A0FF1F4791FF1F0CA0FF1F3491FF1F08B5A54B1B68062B00F29281DFE813F032
:4018C0000700110045009600F10021015701FEF78FFD01229C4B1A6008229C4B83F8072208BD0220232100F0E5FE02F027FE082840F07681964B1B78DBB2AA2B1FD1944BBF
:401900009B79DBB2C32B1AD1914BDB79DBB23C2B15D18F4BDB78DBB23A2B02D07E2B07D00DE00220884B1860042100F037FE06E00220012100F032FE0022834B1A600A2030
:4019400002F0D0FE02F028FE08BD02F0F7FD082840F046817E4B1B78DBB2AA2B40D17C4B9B79DBB2C32B3BD1794BDB79DBB23C2B36D1774BDB78DBB2452B1AD004D80D2B69
:4019800007D00E2B0DD02BE07E2B22D0942B18D026E003226C4B1A600220052100F0FEFD1EE00422684B1A600220852100F0F6FD16E00522644B1A600220832100F0EEFD7B
:4019C0000EE00022604B1A600220012100F0E6FD06E000225C4B1A600220012100F0DEFD0A2002F07FFE02F0D7FD08BD02F0A6FD082840F0F580564B1B78DBB2AA2B4AD124
:401A0000534B9B79DBB2C32B45D1514BDB79DBB23C2B40D14E4BDB78DBB23B2B2CD004D80F2B09D0102B0FD035E07E2B2CD0942B1AD0432B2FD10FE00422434B1A6002207A
:401A4000062100F0ABFD26E005223F4B1A6002200D2100F0A3FD1EE006223B4B1A6002200B2100F09BFD16E00022374B1A600220012100F093FD0EE00022334B1A60022098
:401A8000012100F08BFD06E000222F4B1A600220012100F083FD0A2002F024FE02F07CFD08BD02F04BFD082840F09A80284B1B78DBB2AA2B1FD1264B9B79DBB2C32B1AD177
:401AC000234BDB79DBB23C2B15D1214BDB78DBB27E2B09D0942B0ED100221B4B1A600220012100F05BFD06E00022174B1A600220012100F053FD0A2002F0F4FD02F04CFDA0
:401B000008BD02F01BFD08286AD1114B1B78DBB2AA2B26D10E4B9B79DBB2C32B21D10C4BDB79DBB23C2B1CD1094BDB78DBB27E2B10D0942B15D10022034B1A60022001212D
:401B400000F02CFD0DE000BF9098FF1F4084FF1F38A0FF1F0022234B1A600220012100F01DFD0A2002F0BEFD02F016FD08BD02F0E5FC082834D11C4B1B78DBB2AA2B2AD12A
:401B8000194B9B79DBB2C32B25D1174BDB79DBB23C2B20D1144BDB78DBB2392B04D07E2B12D0382B17D107E002200A2100F0F6FC07220C4B1A600EE00220862100F0EEFCB3
:401BC0000822084B1A6006E00220012100F0E6FC0022044B1A600A2002F084FD02F0DCFC08BD00BF9098FF1F38A0FF1F38B562B6FEF752FA002304E00021144AD1540133BB
:401C0000DBB2032BF8D90423114A1373114A1370114D00242C702046072102F0FBFE2C70FEF77EFAFEF70CFC01220C4B1A7002F079FDFEF7BDFC02F075FDFFF739FE02F0F8
:401C400071FD01F031FF02F06DFDF0E73C91FF1F0C81FF1FA489FF1F3091FF1F3791FF1F10B5044602F052FE204602F071FE3C2002F038FD02F016FE38B102F0E1FDC0F3EF
:401C8000071402F043FE204610BD002010BD00BF10B5464BFF221A7083F8042183F8082283F80C23012454E0204602F051FE642002F018FD02F0F6FD38B13C4B1B78FF2B6A
:401CC00003D13A4B1C7002F021FE02F0EBFD68B1364B1B78A34209D0344B93F80431FF2B04D1324B83F8044102F010FE02F0DAFD90B12E4B1B78A3420ED02C4B93F804319E
:401D0000A34209D0294B93F80832FF2B04D1274B83F8084202F0FAFD02F0C4FDB8B1234B1B78A34213D0214B93F80431A3420ED01E4B93F80832A34209D01C4B93F80C339C
:401D4000FF2B04D1194B83F80C4302F0DFFD0134E4B2102CA8D9154B1B78FF2B0ED0134A92F80421FF2A09D0104A92F80822FF2A04D00E4A92F80C23FF2A0FD1FF2B04D0B4
:401D80000A4A92F80421FF2A0AD1FF2B0AD1074B93F80431FF2B07D0012010BD042010BD022010BD012010BD002010BD4084FF1F10B5044602F0AAFD44F0400002F0C8FDA6
:401DC000C82002F08FFC02F0ADFCB74B1B78072B00F0F28002F066FD212840F0ED80B34B1B78DBB2FF2B40F0AF81B04B9B78DBB2F82B40F0AB81AD4B93F82030DBB2F02B42
:401E000040F0A681AA4B1B78A3426AD1A74B5B7A03F00F033133A64A82F8FF3001230CE003F10B02A1498A5CA249C91A02F00F02303281F8F1200133DBB2042BF0D904225D
:401E40009B4B83F8F1209C4B1B78DBB2012B06D1974B052283F8F120302283F8F62001230CE003F1100291498A5C9449C91A02F00F02303281F8E3200133DBB2062BF0D93C
:401E800006228B4B83F8E32001230CE003F1170286498A5C8949C91A02F00F02303281F8D5200133DBB2062BF0D97F4B1B78052B11D109E05A1E7E49881890F8D5000B44AE
:401EC00083F8D500D3B200E00623012BF2D83022774B83F8D6200622754B83F8D520012010BD724B5B7A03F00F033133704A82F8033201230CE003F10B026C498A5C6D497D
:401F0000C91A02F00F02303281F8F5210133DBB2042BF0D90422664B83F8F521664B1B78DBB2012B06D1624B052283F8F521302283F8FA2101230CE003F110025B498A5CE8
:401F40005E49C91A02F00F02303281F8E7210133DBB2062BF0D90622554B83F8E72101230CE003F1170251498A5C5449C91A02F00F02303281F8D9210133DBB2062BF0D93B
:401F8000494B1B78052B11D109E05A1E4849881890F8D9010B4483F8D901D3B200E00623012BF2D83022424B83F8DA210622404B83F8D921012010BD3B4B1B78072B40F0E6
:401FC000C98002F06FFC272840F0C680374B1B78DBB2FF2B40F0C280344B9B78DBB2F82B40F0BE80314B93F82630DBB2F02B40F0B9802F4B1B78A3424BD12C4B5B7A03F0CD
:402000000F0331332A4A82F8FF3001230CE003F10B0226498A5C2949C91A02F00F02303281F8F1200133DBB2062BF0D90622204B83F8F12001230CE003F112021B498A5C27
:402040001F49C91A02F00F02303281F8E3200133DBB2082BF0D90822154B83F8E32001230CE003F11C0211498A5C1549C91A02F00F02303281F8D5200133DBB2072BF0D93D
:402080000B4B302283F8D620082283F8D520012010BD064B5B7A03F00F033133044A82F8033201231BE000BF4691FF1F58A0FF1F4084FF1F4584FF1FB092FF1F4784FF1FF8
:4020C0004984FF1F03F10B0227498A5C2749C91A02F00F02303281F8F5210133DBB2062BF0D90622224B83F8F52101230CE003F112021D498A5C1F49C91A02F00F02303262
:4021000081F8E7210133DBB2082BF0D90822184B83F8E72101230CE003F11C0212498A5C1449C91A02F00F02303281F8D9210133DBB2072BF0D90E4B302283F8DA210822CF
:4021400083F8D921012010BD002010BD002010BD002010BD002010BD002010BD002010BD002010BD002010BD58A0FF1F4784FF1F4084FF1F4984FF1F30B1002802DB831F40
:40218000062B01D90020704701207047002104E003F00F030B44D9B201300378FB2BF7D103F00F028818404200F00F0040F0E000704700BFF0B587B005460E461446002344
:4021C0000193029303930493ADF81430FFF748FD0638C0B201280AD845F0200002F0B8FB322002F07FFA02F02BFB074600E0002702F08CFB02F08AFB45F0D003BB4240F062
:40220000AA80FF238DF80430E1238DF80530012D40F0A380524A92F8633063F00F038DF80630F6238DF80730013E06F00F0666F01F068DF80860F8238DF8093092F86450E3
:40224000462D09D006231AE006AA1A44E92102F8141C0133DBB200E00623424A127806329342F1DB1A4608E006A91144E02001F8140C0133DBB20132D2B20D2AF4D9442DA2
:4022800020D120781A460CE0215C06AE164401F00F0161F01F0106F8141C0138C0B20132D2B2217819448A42EEDB134608E006A91144E02001F8140C0133DBB20132D2B25B
:4022C0000D2AF4D9562D20D120781A460CE0215C06AD154401F00F0161F01F0105F8141C0138C0B20132D2B2217819448A42EEDB134608E006A91144E02001F8140C0133DB
:40230000DBB20132D2B20D2AF4D906AA1A44FB2102F8141C5D1CEDB201A8FFF737FF06AB2B4403F8140C0135EDB206AB2B44F02203F8142C002407E006AB234413F8140C49
:4023400002F006FB0134E4B2AC42F5D9322002F0C9F9012002E0002000E0002007B0F0BD5488FF1F4691FF1FF0B585B000AF0446FFF776FC06280AD144F0200002F0E8FAFB
:40238000322002F0AFF902F05BFA054600E0002502F0BCFA44F0D004AC4222D1FF233B71E9237B71FE23BB71EE23FB71E0233B727B72FB23BB72381DFFF7E8FEF872F023E3
:4023C0003B73002408E007F11003234413F80C0C02F0BEFA0134E4B2082CF4D9C82002F081F902F05FFAC6B2F31D23F00703ADEB030D6D46002404E002F022FA28550134B1
:40240000E4B2B442F8D902F081FAAB7A03F00F03264A13702B7B03F00F03254A1370012B0AD1244A47211170612151706C2191702021D17011715171022B0CD11D4B55223A
:402440001A706B225A7020229A704722DA7061221A716C225A71AB7B03F00F03013B164A13702B7C03F00F03012B01D0042B02D10321124A1170032B00D013B902210F4AD9
:402480001170022B02D101220C4B1A70AB7C03F00F03013B0A4A13702B7D03F00F03094A137000201437BD46F0BD00BFB989FF1FF49FFF1F9898FF1FF490FF1FBA89FF1F99
:4024C000F29FFF1F08A0FF1FF0B585B000AF0446FFF7C6FB0638C0B201280AD844F0200002F036FA322002F0FDF802F0A9F9054600E0002502F00AFA44F0D004AC422AD1A8
:40250000FF233B71E9237B71FE23BB71E023FB71E1223A727B72FB23BB72381DFFF736FEF872F0233B73002408E007F11003234413F80C0C02F00CFA0134E4B2082CF4D923
:40254000154B1B7823B14FF42F7002F0CBF802E0C82002F0C7F802F0A5F9C5B2EB1D23F00703ADEB030D6E46002404E002F068F930550134E4B2AC42F8D902F0C7F9337B30
:4025800003F00F03012B03D1B07B00F00F0000E000201437BD46F0BDB989FF1F30B583B005460A4610496B460868496803C3130A8DF802308DF80320002410E0012D06D158
:4025C00002AB234413F8080C01F00EFF05E002AB234413F8080C02F001F80134E4B2072CECD903B030BD00BF0C5A00002DE9F04387B005468C4616461C469DF83870BDF8D2
:402600003CE00DF10408DFF8A89059F8080FD9F80410D9F80820D9F80C30A8E80F00B9F81030A8F800307A1C02FB04F303EB43039B001B128DF8063004FB02F404EB440445
:40264000A3008DF80730C6EBC6035B001B128DF80830C6EBC60673008DF8093020378DF80A709DF84030592B02D185238DF80B304FEA1E238DF80D308DF80EE08DF811C06F
:40268000002410E0012D06D106AB234413F8140C01F0AAFE05E006AB234413F8140C01F09DFF0134E4B2112CECD907B0BDE8F0830C5A000070B584B005460E466B46134C66
:4026C00054F81C0F6168A26807C3A2891A808DF807608DF80960002410E0012D06D104AB234413F8100C01F07FFE05E004AB234413F8100C01F072FF0134E4B20D2CECD916
:40270000642001F0EFFF04B070BD00BF0C5A0000F0B585B007460E46154600240DE0315D01230093002301934E23029338461F222B19FFF75BFF0134E4B2092CEFD905B077
:40274000F0BD00BF054B04E0824201D15878704702331A78002AF7D1002070472081FF1F2DE9F04387B005468C4616461C469DF83870BDF83CE00DF10408DFF8A89059F87A
:402780002C0FD9F80410D9F80820D9F80C30A8E80F00B9F81030A8F800307A1C02FB04F303EB43039B001B128DF8063004FB02F404EB4404A3008DF80730C6EBC6035B00F2
:4027C0001B128DF80830C6EBC60673008DF8093023378DF80A709DF84030592B02D185238DF80B304FEA1E238DF80D308DF80EE08DF811C0002410E0012D06D106AB2344EE
:4028000013F8140C01F0F0FD05E006AB234413F8140C01F0E3FE0134E4B2112CECD907B0BDE8F0830C5A000030B585B00D461446012840F0108101F087FD082840F02F825C
:40284000A84B1B78DBB2AA2B40F0FE80A54B9B79DBB2C32B40F0F880A24BDB79DBB23C2B40F0F280A04B1B78DBB2013DAB4200F39F809C4BD878FFF765FF0546A0F12003EC
:40288000DBB20B2B2AD8984A13780133DBB213701378964A134483F84B008CB9924B1A781B7892490A4492F84B1001200090002201924E22029203220233FFF751FF78E063
:4028C000894B1B7801200090002201924E220292214603220233FFF743FF6AE0A0F12D03DBB2512B2AD8804A13780133DBB2137013787E4A134483F84B008CB97A4B1A7853
:402900001B787A490A4492F84B1001200090002201924E22029203220233FFF721FF48E0714B1B7801200090002201924E220292214603220233FFF713FF3AE02C2838D113
:40294000694B1B7813F0FF0F33D0694B1B7813F0FF0F2ED1644A13780133DBB213700121634B19701378614A134483F84B008CB95D4B1A781B785D490A4492F84B10012070
:402980000090002201924E22029203220233FFF7E7FE0EE0544B1B7801200090002201924E220292214603220233FFF7D9FE00E000254C4BDB78DBB20B2B26D14A4B1B78B0
:4029C00003F0FF042BB9142001F08CFE01F0EAFC68E1454C237801200090002201924E220292202103220233FFF7BAFE23783F4A134493F84B302C2B02D100223C4B1A7071
:402A0000394A1378013BDBB213700A2D10D1364B1B7813F0FF0F0BD0334B1A78334B83F84B20142001F05EFE01F0BCFC012439E12C4BDB78DBB2942B06D1142001F052FEE5
:402A400001F0B0FC00242DE1142001F04BFE01F0A9FC022426E101F071FD082840F02181244B1B78DBB2AA2B40F01281214B9B79DBB2C32B40F00C811E4BDB79DBB23C2B65
:402A800040F006811C4B1B78DBB2013DAB4200F3B580184BD878FFF755FE0546A0F12003DBB20B2B3BD8144A13780133DBB213701378124A134483F84B000CBB0E4B1A78D1
:402AC0001B780E490A4492F84B1001220092002201924E220292022003220344FFF740FE8DE000BF18A0FF1F4991FF1F5488FF1F9798FF1F38A0FF1FF39FFF1FA88FFF1F4D
:402B00006A4B1B7801220092002201924E2202920220214602460344FFF722FE6FE0A0F12D03DBB2512B2CD8604A13780133DBB2137013785E4A134483F84B0094B95B4BD8
:402B40001A781B785A490A4492F84B1001220092002201924E220292022003220344FFF7FFFD4CE0514B1B7801220092002201924E2202920220214602460344FFF7F0FDA8
:402B80003DE02C283BD1494B1B7813F0FF0F36D0484B1B7813F0FF0F31D1444A13780133DBB213700121434B19701378424AD2783F490B4483F84B208CB93C4B1A781B787C
:402BC0000A4492F84B1001220092002201924E220292022003220344FFF7C2FD0FE0334B1B7801220092002201924E2202920220214602460344FFF7B3FD00E000250B2D88
:402C000027D12A4B1B7803F0FF042BB9142001F069FD01F0C1FC45E0244C237801220092002201924E2202920220202102460344FFF796FD23781E4A134493F84B302C2BB1
:402C400002D100221B4B1A70184A1378013BDBB213700A2D10D1154B1B7813F0FF0F0BD0124B1A78124B83F84B20142001F03AFD01F092FC012415E00F4BDB78DBB2942B1F
:402C800006D1142001F02EFD01F086FC002409E0142001F027FD01F07FFC022402E0022400E00224204605B030BD00BFF39FFF1FA88FFF1F5088FF1F38A0FF1F10B582B0D5
:402CC0008DF804008DF8051002F090F90720002102F0D8F858B1002011E002AB234413F8040C02F02BF948B90134E4B200E00024012CF2D902F006F9012000E0002002B041
:402D000010BD00BF38B504241DE002F06FF96820002102F0B7F8D0B9204602F00FF9C0B902F0F0F80A2001F0DDFC6820012102F0A9F880B9251F02F02DF9084B585502F05D
:402D4000E1F80134E4B2062CDFD9012038BD002038BD002038BD002038BD00BF3491FF1F10B582B004238DF80430134B1A788DF805205A788DF806209B788DF8073002F01F
:402D800035F96820002102F07DF858B1002011E002AB234413F8040C02F0D0F848B90134E4B200E00024032CF2D902F0ABF8012000E0002002B010BDFC9FFF1F38B5012408
:402DC0001DE002F013F96820002102F05BF8D0B9204602F0B3F8C0B902F094F80A2001F081FC6820012102F04DF880B9651E02F0D1F8084B585502F085F80134E4B2022C0F
:402E0000DFD9012038BD002038BD002038BD002038BD00BF0CA0FF1F10B582B001238DF80430124B1A788DF805205B788DF8063002F0DCF86820002102F024F858B100205B
:402E400011E002AB234413F8040C02F077F848B90134E4B200E00024022CF2D902F052F8012000E0002002B010BD00BF9498FF1F38B504460E2900F2DA80DFE801F012217E
:402E8000303F4ED85D6C7B8998A7B6C5D400704B2B44204693F88014FFF710FF0135ADB200E00025B5F56C7FF1D3C0E0684B2B44204693F83018FFF701FF0135ADB200E015
:402EC0000025B5F56C7FF1D3B1E0614B2B44204693F8E01BFFF7F2FE0135ADB200E00025B5F56C7FF1D3A2E0594B2B44204693F8901FFFF7E3FE0135ADB200E00025B5F593
:402F00006C7FF1D393E0534B2B44204693F84812FFF7D4FE0135ADB200E00025B5F56C7FF1D384E04B4B2B44204693F8F815FFF7C5FE0135ADB200E00025B5F56C7FF1D349
:402F400075E0444B2B44204693F8A819FFF7B6FE0135ADB200E00025B5F56C7FF1D366E03C4B2B44204693F8581DFFF7A7FE0135ADB200E00025B5F56C7FF1D357E0364BC7
:402F80002B442046197CFFF799FE0135ADB200E00025B5F56C7FF2D349E02F4B2B44204693F8C013FFF78AFE0135ADB200E00025B5F56C7FF1D33AE0274B2B44204693F8F3
:402FC0007017FFF77BFE0135ADB200E00025B5F56C7FF1D32BE0204B2B44204693F8201BFFF76CFE0135ADB200E00025B5F56C7FF1D31CE0184B2B44204693F8D01EFFF7E1
:403000005DFE0135ADB200E00025B5F56C7FF1D30DE0124B2B44204693F88811FFF74EFE0135ADB200E00025B5F56C7FF1D320461B21FFF743FE20464021FFF73FFE204691
:403040000A21FFF73BFE20460A21FFF737FE38BD2C9E000024AF00001CC0000014D1000070B504460E46BF4B1B78012B04D1BE4B18780021FFF7FCFE20460A21FFF71EFE39
:40308000002506E02046B94B595DFFF717FE0135EDB21D2DF6D920460A21FFF70FFE002508E0B24B2B44204693F82010FFF706FE0135EDB20C2DF4D9FFF724FE012832D1A5
:4030C000AB4D2978C1F3011120463031FFF7F6FD297801F00F0120463031FFF7EFFD20462F21FFF7EBFD6978C1F3001130312046C9B2FFF7E3FD697801F00F01204630317B
:40310000FFF7DCFD20462F21FFF7D8FDA978090920463031FFF7D2FDA97801F00F0120463031FFF7CBFD20460A21FFF7C7FD002508E08E4B2B44204693F83010FFF7BEFD57
:403140000135EDB20C2DF4D9FFF738FE012820D1884D6978C1F3001130312046C9B2FFF7ADFD697801F00F0120463031FFF7A6FD20463A21FFF7A2FD2978090920463031BF
:40318000FFF79CFD297801F00F0120463031FFF795FD20460A21FFF791FD002506E02046724B595DFFF78AFD0135EDB21D2DF6D920460A21FFF782FD002508E06B4B2B44F3
:4031C000204693F84010FFF779FD0135EDB20C2DF4D9694DA5FB0635ED08204605F13001FFF76CFD05EB85056D00751B05F130012046C9B2FFF762FD20460A21FFF75EFD1F
:40320000002508E0594B2B44204693F85010FFF755FD0135EDB20C2DF4D920460A21FFF74DFD564B1B78B34240F0068309E04F4B2B44204693F86010FFF740FD0135EDB2EC
:4032400000E000250C2DF2D920460A21FFF736FD002508E0454B2B44204693F87010FFF72DFD0135EDB20C2DF4D9012508E0434B2B44204693F8F110FFF720FD0135EDB22E
:403280003E4B93F8F130AB42F1D220462021FFF715FD2046354B93F88010FFF70FFD20462F21FFF70BFD002506E02046344B595DFFF704FD0135EDB2042DF6D920460A21C0
:4032C000FFF7FCFC002508E0284B2B44204693F88410FFF7F3FC0135EDB20C2DF4D9274B93F8E430302B03D10022244B83F8E420224B93F8E43043B9204B93F8E530302BEE
:4033000003D100221D4B83F8E520012510E01B4B2B44204693F8E310FFF7D0FC194B1B789D4203D120462E21FFF7C8FC0135EDB2124B93F8E330AB42E9D220462021FFF7F0
:40334000BDFC002506E020460D4B595DFFF7B6FC0135EDB2042DF6D920460A21FFF7AEFC00251AE03791FF1F09A0FF1F7481FF1F3491FF1F0CA0FF1FCDCCCCCC4084FF1FC8
:403380009898FF1FBA89FF1FBE4B2B44204693F89410FFF793FC0135EDB20C2DF4D9BA4B93F8D630302B03D10022B74B83F8D620B54B93F8D63043B9B34B93F8D730302B1F
:4033C00003D10022B04B83F8D720012510E0AE4B2B44204693F8D510FFF770FCAB4B1B789D4203D120462E21FFF768FC0135EDB2A54B93F8D530AB42E9D220462021FFF7CF
:403400005DFC20469F4B93F88010FFF757FC20460A21FFF753FC9E4B93F86130012B42D109E0984B2B44204693F8A410FFF746FC0135EDB200E000250C2DF2D9012508E061
:40344000934B2B44204693F8DF10FFF737FC0135EDB28F4B93F8DF30AB42F1D220460A21FFF72CFC002508E0864B2B44204693F8B410FFF723FC0135EDB20C2DF4D9012536
:4034800008E0834B2B44204693F86510FFF716FC0135EDB27E4B93F86530AB42F1D220460A21FFF70BFC002506E02046754B595DFFF704FC0135EDB21D2DF6D920460A2121
:4034C000FFF7FCFB724B93F86130022B40F0B48109E06C4B2B44204693F8C410FFF7EEFB0135EDB200E000250C2DF2D9012508E0674B2B44204693F8EA10FFF7DFFB0135C3
:40350000EDB2634B93F8EA30AB42F1D220460A21FFF7D4FB002508E05A4B2B44204693F8D410FFF7CBFB0135EDB20C2DF4D9012507E0574B2B4420465978FFF7BFFB0135CB
:40354000EDB2534B5B78AB42F3D220460A21FFF7B5FB002508E04B4B2B44204693F8A410FFF7ACFB0135EDB20C2DF4D9012508E0474B2B44204693F8F510FFF79FFB013558
:40358000EDB2434B93F8F530AB42F1D220460A21FFF794FB002508E03A4B2B44204693F8E410FFF78BFB0135EDB20C2DF4D9012301E00133DBB2364A92F8F5209A42F8D2A0
:4035C00020460A21FFF77AFB002508E02D4B2B44204693F8F410FFF771FB0135EDB20C2DF4D9012301E00133DBB2294A92F8F5209A42F8D220460A21FFF760FB002508E03C
:40360000204B2B44204693F80411FFF757FB0135EDB20C2DF4D9012301E00133DBB21C4A92F8F5209A42F8D220460A21FFF746FB002508E0134B2B44204693F81411FFF768
:403640003DFB0135EDB20C2DF4D9012301E00133DBB20F4A92F8F5209A42F8D220460A21FFF72CFB002508E0064B2B44204693F82411FFF723FB0135EDB20C2DF4D901231F
:403680000AE000BF7481FF1F4084FF1FF490FF1F5488FF1F0133DBB2784A92F8F5209A42F8D220460A21FFF709FB002508E0744B2B44204693F83411FFF700FB0135EDB246
:4036C0000C2DF4D9012301E00133DBB26B4A92F8F5209A42F8D220460A21FFF7EFFA002508E0674B2B44204693F84411FFF7E6FA0135EDB20C2DF4D9012301E00133DBB2A9
:403700005E4A92F8F5209A42F8D220460A21FFF7D5FA002508E05A4B2B44204693F85411FFF7CCFA0135EDB20C2DF4D9012301E00133DBB2514A92F8F5209A42F8D220462C
:403740000A21FFF7BBFA002508E04D4B2B44204693F86411FFF7B2FA0135EDB20C2DF4D9012301E00133DBB2444A92F8F5209A42F8D220460A21FFF7A1FA002508E0404B29
:403780002B44204693F87411FFF798FA0135EDB20C2DF4D9012301E00133DBB2374A92F8F5209A42F8D220460A21FFF787FA20460A21FFF783FA002508E0314B2B442046CB
:4037C00093F88411FFF77AFA0135EDB20C2DF4D920460A21FFF772FA20460A21FFF76EFA20460A21FFF76AFA002508E0244B2B44204693F89411FFF761FA0135EDB20C2DB7
:40380000F4D920460A21FFF759FA20460A21FFF755FA20460A21FFF751FA002506E02046174B595DFFF74AFA0135EDB21D2DF6D920460A21FFF742FA20460A21FFF73EFA06
:4038400020460A21FFF73AFA20460A21FFF736FA20460A21FFF732FA20460A21FFF72EFA20461D21FFF72AFA20465621FFF726FA20463121FFF722FA70BD00BF5488FF1F13
:403880007481FF1F10B501281CD1002001F08EFC4FF4FA7000F03CFF012001F087FC052000F036FF01F08EFC034658B3412000F02FFF01F087FC0446F02000F029FFF4B9E7
:4038C00001231FE0002001F085FC4FF4FA7000F01FFF012001F07EFC052000F019FF01F085FC034670B1412000F012FF01F07EFC0446F02000F00CFF1CB9012302E00023A3
:4039000000E00023184610BD38B50D4601282DD000245AE0002001F049FC0A2000F0F8FE45FA04F313F0010F0AD0012001F03EFC0A2000F0EDFE01F045FC034650B94BE00C
:40394000002001F033FC0A2000F0E2FE01F03AFC00283ED1322000F0DBFE012001F026FC322000F0D5FE0134E4B200E00024072CD0D9012330E0002001F02CFC0A2000F019
:40398000C7FE45FA04F313F0010F0AD0012001F021FC0A2000F0BCFE01F028FC034648B91AE0002001F016FC0A2000F0B1FE01F01DFC80B9322000F0ABFE012001F00AFC91
:4039C000322000F0A5FE0134E4B2072CD3D9012302E0002300E00023184638BD38B5012819D000252C4631E0002001F0DFFB0E2000F08EFE012001F0D9FB072000F088FEFA
:403A000001F0E0FBA0400543EDB2642000F080FE0134E4B201E000252C46072CE4D917E0002001F0D7FB0E2000F072FE012001F0D1FB072000F06CFE01F0D8FBA04005431B
:403A4000EDB2642000F064FE0134E4B2072CE7D9284638BD4840002308E010F0010F03D0400880F08C0000E040080133072BF4D9704700BF30B5C1B005460C466846094932
:403A80004FF4807201F0D8FE0023184605E0EA5C50401DF8000001339BB2621E9342F6DB41B030BDB0DD000038B59F4B93F803310B2B21D19D4CBC232370CB236370C823E2
:403AC000A3709B4B1A78E2705B782371964B1B786371E623A3710B23E37120460921FFF7C9FF2072002405E0904B185D01F070FC0134A4B2082CF7D9002405E001F0E0FBA1
:403B00008C4B18550134A4B201F00CFC0028F5D1884B1B78BC2B40F0B881864B5B78BB2B40F0B381834B9B78B82B40F0AE81804B1B78804AD2789A4240F0A7817C4B5B78C8
:403B40007C4A12799A4240F0A0817A4B9B79A72B00F0F48004D8A12B09D0A62B59D094E1E12B00F03D81E22B00F05F818DE1724BBC221A70CB225A70C8229A706C4A1178B4
:403B8000D97052781A716B4B5B79674A11788B4207D1694A5171A1219171634991F80311D171614A92F804118B4207D1624A5171A12191715C4991F80712D1715A4A92F862
:403BC00008128B4207D15C4A5171A1219171564991F80B13D171544A92F80C23934207D1554B5A71A1229A714F4A92F80F24DA71514C20460921FFF73DFF2072002405E07A
:403C00004D4B185D01F0E4FB0134A4B2082CF7D93BE1494BBC221A70CB225A70C8229A70434A1178D97052781A71424B59793E4B1878814215D10BE03E4C257AE45C3A4AA8
:403C400002EBC502D21A82F8C240013B9BB200E00D23072BF0D8384B5871A6229A710322DA71314B93F80401814215D10BE0314C257AE45C2C4A02EBC502D21A82F8C64173
:403C8000013B9BB200E00D23072BF0D82A4B5871A6229A710322DA71234B93F80802814215D10BE0234C257AE45C1F4A02EBC502D21A82F8CA42013B9BB200E00D23072BB1
:403CC000F0D81D4B5871A6229A710322DA71164B93F80C03814215D10BE016490C7AC95C114A02EBC402D21A82F8CE13013B9BB200E00D23072BF0D80F4B5871A6229A7111
:403D00000322DA710C4C20460921FFF7B3FE2072002405E0084B185D01F05AFB0134A4B2082CF7D9B1E000BF4084FF1FB492FF1F4491FF1FA098FF1FC889FF1F544BBC2281
:403D40001A70CB225A70C8229A70524A1178D97052781A71504B5B79504A11788B4207D14B4A5171A72191714C4991F80311D1714A4A92F804118B4207D1454A5171A7218E
:403D80009171464991F80712D171444A92F808128B4207D13E4A5171A72191713F4991F80B13D1713D4A92F80C23934207D1384B5A71A7229A71394A92F80F24DA71344C18
:403DC00020460921FFF756FE2072002405E0304B185D01F0FDFA0134A4B2082CF7D954E02D4B197A2E4A5170597A2E4A1170997A5170D97A9170197B2B4A51705B7B137058
:403E0000112307E0A3F111022349C85C2749885401339BB22C2BF5D91F4B1A7C244B1A70FEF7FAFFFEF79CFF2FE0194CBC232370CB236370C823A370164B1A78E2705B780A
:403E40002371154B5B796371E223A3710823E3710323237220460A21FFF70CFE6072002405E00B4B185D01F0B3FA0134A4B2092CF7D9082307E0C3F108020749C85C0D4954
:403E8000885401339BB20D2BF5D901F07FFA38BDC889FF1F4491FF1FA098FF1F4084FF1F4091FF1FFC9FFF1F9498FF1FF890FF1FA989FF1FB489FF1FFEE700BF08B5104EA4
:403EC000104D16E029686B68AC68002204E051F8040B43F8040B0432A242F8D1E868002203E0002143F8041B04328242F9D11035013E002EE6D101F079FCFDF777FEFEE7BB
:403F00000100000040E0000008B5124A124B1A60124A136843F40073136000230AE0032B03D80F4A52F8231000E00E490E4A42F8231001332F2BF2D90C4B1A780C4B1A7071
:403F4000094A0C4B1A6000F0CFF800220A4B1A6008BD00BF0004FA050CED00E014ED00E000000000B93E00000080FF1FBC7600400481FF1F08ED00E00081FF1FFEE700BF72
:403F8000F0B40022174611E050F82760F3B226F0FF0608E001EB420511F812406D78A5550132013BDBB2002BF4D10137292FEBD9F0BC7047064B1B78DBB203F00701054AAB
:403FC00011701B09013213704422034B1A707047CF0100496E5800407658004008B50A46002101F034FC08BD38B53322314B1A80182331490B7002310A80304A13709B2132
:4040000002321180023213704FF49C7102321180023213704FF40271023211800232137045F6BF5102321180023213700222244B1A7008224FF040231A70032103F500733D
:404040001970204B1B78DBB21F490B701F4B1A8041F25122023B1A80002419250CE01C4B1B7803F0010343EA440404F003044FF4F07000F025FB013D0DB1032CEFD115B9AD
:404080000320FFF77BFF134B4FF480721A8007221A70002210490A704820023108701A700222033B1A700D4A137843F03F03137038BD00BF80400040824000408640004079
:4040C0000043004008010049A146004022420040254200400440004006400040A243004008B501F0A9FB08BD70B572B63A4A137843F00403137000240CE0384963001A19F3
:4041000052000A4423445B00C8589188FFF766FF0134E4B20B2CF0D9002410E02F49A3001A1952000A4452F8480F23445B000B445168B3F85020FFF7D3FF0134E4B2022C75
:40414000ECD94FF090402649FFF71AFF254A137843F0020313701032137843F002031370214C237843F040032370A2F58632513A137843F0100313701C481D490A22FFF785
:40418000AFFF1C481C490A22FFF7AAFF1B481C490A22FFF7A5FF1B481B490A22FFF7A0FF1A481B490A22FFF79BFF1A4A137843F008031370184E01253570FFF715FF812396
:4041C0003370164B1D70FFF7F5FE154821460E22FFF786FF70BD00BFE8460040B0DE0000A800004803500140A0430040C0510040B811004810510040C41100482051004076
:40420000D011004850510040DC11004860510040E8110048224300400048004004000840B04300407222084B1A702022FF331A700622A3F5B1731A70472210331A7000222C
:4042400003F5A8731A7070478A64004010B500F03FFA04460A4A137843F020031370FF32137843F010031370023A137843F01003137000F089FA204600F02EFA10BD00BF3A
:404280009A64004008B5054B1B7823B9FFF7CAFF0122024B1A70FFF7D9FF08BDEC83FF1F08B500200C4900F043FA0020072100F053FA0023094A13707221094A11702021E6
:4042C000A2F2031211700621A5321170472110321170B03A137008BD01440000EE83FF1F8465004010B500F0F3F904460C4A137843F020031370A2F20312137843F010039C
:4043000013700122074B1A60074A137843F01003137000F0B9F9204600F0DEF910BD00BF9465004000E100E09664004008B5054B5B7823B9FFF7B4FF0122024B5A70FFF742
:40434000D1FF08BDEE83FF1F0122134B1A60134A9378D278DBB2934206D1104B1B7913F0FF0F14D0202013E00C4A9378D278DBB2934205D2094AD3789078181AC0B207E007
:40438000064AD3789078181A2030C0B200E000200122034B1A60704780E100E0EE83FF1F00E100E008B500F093F90B4B1A7842F001021A701A7802F0FE021A7000F08CF9D0
:4043C0000121064B1960064B00229A70DA701A715A71044B196008BD9765004080E100E0EE83FF1F00E100E0034B1B7813F0040FFAD1024B18707047666400404565004018
:404400001C4B1B78DBB213F01E0F05D01A4803F01E0201780A43027003F0200303F0FF022BB3164B1978C9B2154B1B78DBB21548C154154B1B7813F0FF0F02D00121134BA6
:4044400019700F490B780133DBB20B700B78DBB21F2B02D900210A4B1970094B1B780C490978DBB28B4202D10121074B1970002AC6D1704761640040EE83FF1F4765004089
:40448000F183FF1F18A0FF1FF283FF1FF383FF1FF083FF1F08B501200C4900F049F90120072100F059F90023094A13707221094A1170202102F20112117006215F3A117082
:4044C000472110321170AE3A137008BDF5450000F583FF1F8964004010B500F0F9F804460C4A137843F02003137002F20112137843F0100313700222074B1A60074A137893
:4045000043F01003137000F0CDF8204600F0E4F810BD00BF9964004000E100E09D64004008B5054B5B7823B9FFF7B4FF0122024B5A70FFF7D1FF08BDF583FF1F0222134BBE
:404540001A60134A9378D278DBB2934206D1104B1B7913F0FF0F14D0202013E00C4A9378D278DBB2934205D2094AD3789078181AC0B207E0064AD3789078181A2030C0B213
:4045800000E000200222034B1A60704780E100E0F583FF1F00E100E008B500F099F80B4B1A7842F001021A701A7802F0FE021A7000F092F80221064B1960064B00229A70E9
:4045C000DA701A715A71044B196008BD9A65004080E100E0F583FF1F00E100E0034B1B7813F0040FFAD1024B187070476D640040496500401C4B1B78DBB213F01E0F05D0DE
:404600001A4803F01E0201780A43027003F0200303F0FF022BB3164B1978C9B2154B1B78DBB21548C154154B1B7813F0FF0F02D00121134B19700F490B780133DBB20B7090
:404640000B78DBB21F2B02D900210A4B1970094B1B780C490978DBB28B4202D10121074B1970002AC6D170476A650040F583FF1F4A650040F883FF1F38A0FF1FF983FF1FEA
:40468000FA83FF1FF783FF1F054A137843F0020313701032137843F002031370704700BFA2430040054A137843F0010313701032137843F001031370704700BFA243004059
:4046C0000230800803D000BF01380046FCD17047EFF3108072B6704780F31088704700BF01BE704710B5044605E0084B1868FFF7E7FFA4F50044B4F5004FF6D8034B5868CF
:4047000000FB04F0FFF7DCFF10BD00BF5883FF1F08B5034B1B7A03FB00F0FFF7D1FF08BD5883FF1F0122014B1A7070478443004070B504460E46074B1D681F2802D900208F
:40474000FFF7CEFF04F01F04103455F8240045F8246070BD08ED00E038B504460D46072902D90020FFF7BCFF1F2C02D90020FFF7B7FF04F01F0000F1604000F564406D01E4
:40478000EDB2057038BD00BF054A137843F0080313701032137843F008031370704700BFA243004008B502200C49FFF7C1FF02200721FFF7D1FF0023094A13707221094A94
:4047C00011702021033A11700621583A11704721103211705732137008BD00BF69490000FC83FF1F8364004008B5FFF771FF0A4A137843F020031370033A137843F01003E5
:4048000013700422054B1A60054A137843F010031370FFF761FF08BD9364004000E100E09F64004008B5054B5B7823B9FFF7BAFF0122024B5A70FFF7D7FF08BDFC83FF1F39
:404840000422134B1A60134A53889BB2918889B2927912F0FF0F01D18B4211D00E4AD05CC0B201339BB2FF2B00D90023094A5380937913F0FF0F06D00022064B9A7102E0B0
:40488000064B1878C0B20422054B1A60704700BF80E100E0FC83FF1F58A0FF1F4064004000E100E00422164B1A60164B5A8892B29B889BB29A4207D1124B9B7913F0FF0F78
:4048C00019D04FF4807017E00E4B5A8892B29B889BB29A4205D20B4A93885088181A80B20AE0084A908883B2508880B2181A00F5807080B200E000200422034B1A607047D6
:4049000080E100E0FC83FF1F00E100E008B5FFF7DFFE0B4B1A7842F001021A701A7802F0FE021A70FFF7D8FE0421064B1960064B00225A809A809A71DA71044B196008BD8E
:404940009064004080E100E0FC83FF1F00E100E0034B1B7813F0040FFAD1024B187070476F640040446400401D4B1B78DBB213F01E0F05D01B4803F01E0201780A430270E0
:4049800003F0200303F0FF0233B3174B1978C9B2164B1B889BB21648C154164B1B7813F0FF0F02D00121144B197010490B8801339BB20B800B889BB2FF2B02D900210B4BA0
:4049C00019800A4B198889B20C4B1B889BB2994202D10121074B1970002AC5D1704700BF60640040FC83FF1F406400400084FF1F58A0FF1F0284FF1F0384FF1FFE83FF1FA0
:404A000008B500F0A3FD00F0ABFD08BD08B5FFF7F7FF08BD30B583B00C468DF8070000F0DFFDB4F5006F54D22509C5EB053319010C44A4B200F080FE00284CD1402021460E
:404A40000DF10702012300F0F7FD044607282FD1234B1B7813F0020FFAD0214B1B7813F0020F06D01E4B1B789B0805D04FF0FF3403E04FF0FF3400E00024E4B9194B402046
:404A800029461A785B7800F013FE072816D1144B1B7813F0020FFAD0114B1B7813F0020F0FD00F4B1B789B0810D04FF0FF340DE0012809D10AE04FF0FF3407E04FF0FF34D2
:404AC00004E04FF0FF3401E04FF0FF3400F05AFE02E0012400E00424204603B030BD00BF2247004070A5FF1F38B50446FFF7F0FD054600F05FFD04F1804000F500400478FE
:404B0000E4B200F065FD2846FFF7E6FD204638BD10B50222104B1A7081220E3B1A700F2413331C70002201331A704FF400420B4B1A6020460721FFF70FFE20460849FFF72F
:404B4000F7FD1022074B1A7000F058FA00F064FA00F04CFA10BD00BFD649004080E100E0B54B000058A1FF1F08B5FFF7B1FD064A137843F0040313701032137843F004032A
:404B80001370FFF7A9FD08BDA543004008B5074B1B7823B9FFF7BCFF0122044B1A70FFF7E3FF4FF40042024B1A6008BD0684FF1F00E100E038B5A54B1C78E4B2A44B1B78E3
:404BC00013F0400F00F0398114F0010F00F01D819F4B1B78453B052B00F21481DFE813F006008200120112010600E00004F0DF0504F00A04082C42D1954B1B78DBB2452B74
:404C000035D1944B1B7813F0FF0F10D0924B1B681B78DBB2914A137004228C4B1A7001228F4B1A7046228A4B1A702C46EDE08D4B1B7813F0020F0DD08B4A137843F00A031D
:404C400013706022824B1A704FF40042874B1A602C46DAE0864A137843F0100313701022844B1A700422023B1A702C46CDE00022764B1A704A22764B1A702C46C5E00A2CAF
:404C80002BD1794A137843F0A0031370754B1B7813F0020F14D06E4B1B7813F0080F01D0092300E00A23704A11780B4313706022674B1A704FF400426C4B1A602C46A4E018
:404CC0006B4A137843F0100313701022694B1A700422023B1A702C4697E00020FFF700FD2C4692E014F0020F37D15D4B1B78594A1278DBB2934210D2594A1378DBB256494B
:404D00000968CB5CDBB255490B7004214F4B197013780133DBB2137077E0524B1B7813F0020F0CD0504A137843F00A0313706022474B1A704FF400424C4B1A6065E000F056
:404D400079F94B4A137843F0100313701022494B1A700422023B1A7057E0424B1B7813F0020F0CD0404A137843F09A0313706022374B1A704FF400423C4B1A6045E03C4A2D
:404D8000137843F01003137010223A4B1A700422023B1A70344A137843F09003137034E0354A1378DBB2354908682C490978C9B2C15413780133DBB213701378304A1278A2
:404DC000DBB2934203D21022204B1A701DE0254B1B7813F0020F0CD0234A137843F00903137060221A4B1A704FF400421F4B1A600BE01F4A137843F0100313700022134BA9
:404E00001A7002E00020FFF76BFC14F0200F1CD00F4B1B7813F0080F01D0012300E00223114A11780B431370114A137803F0EF0313701022064B1A7038BD054B1B7813F07E
:404E4000100F02D11022024B1A7038BDD749004058A1FF1F5CA1FF1F68A1FF1FD849004065A1FF1F5DA1FF1F64A1FF1F80E100E0D6490040D94900406CA1FF1F60A1FF1F79
:404E80005EA1FF1F1A4B1B78DBB2102B29D1194B1B7813F0080F26D14FF40042164B1A604000C0B229B140F001004922104B1A7002E045220E4B1A70104B18700122013340
:404EC0001A700F4B1B7813F0010FFAD00C4B1B7803F00A030A2B08D11022054B1A700320704702207047012070470020704700BF58A1FF1FD949004080E100E0D84900401E
:404F0000D74900400A4B1B7813F0040F0ED01023074A13700421023A1170064A1370064B1B7813F0210FFAD00020704702207047D949004058A1FF1FD7490040114B1B7820
:404F400013F0040F1BD0104B18700422013B1A7046220E4B1A700E4B1B7813F0010FFAD00B4B1B7813F0020F04D16022074B1A70002070476022054B1A70032070470220EE
:404F8000704700BFD9490040D849004058A1FF1FD7490040114B1B7813F0040F1BD0104B1B78DBB2492B05D14A220D4B1A7000220C4B1A700B4B1B7813F0010FFAD00A4B20
:404FC0001B78DBB218B11021064A117004E06021034A117000E0002318467047D949004058A1FF1FD7490040D8490040024B187800221A70704700BF64A1FF1F0022044BAE
:405000001A70044A137803F0FE031370704700BF6CA1FF1F64A1FF1F0022044B1A70044A137803F0FD031370704700BF65A1FF1F64A1FF1F704700BF084A137843F0020340
:4050400013701032137843F00203137002F65932137843F001031370704700BFA3430040084A137803F0FE031370A2F66932137803F0FD0313701032137803F0FD031370F6
:40508000704700BF0C4F0040014B1870704700BF0F4F0040014B1878704700BF0F4F0040014B1880704700BF104F0040014B1880704700BF124F004008B5164A137803F078
:4050C000010313700232137803F0FC031370124B1A7802F0CF021A701A7842F030021A701A7802F0F0021A701A7842F00F021A700A4A137843F00103137040F21F30FFF7CA
:40510000CFFF40F21F30FFF7D1FF0820FFF7BCFF08BD00BF0C4F0040174F00400D4F004008B5054B1B7823B9FFF7C6FF0122024B1A70FFF781FF08BD0784FF1F024B1B683B
:40514000C3F88800704700BF08ED00E04001C0B2014B1870704700BF12E400E04FF48022014B1A60704700BF00E100E04FF48022014B1A60704700BF80E100E010B504467B
:40518000FFF7F4FF2046FFF7D9FF0720FFF7DEFFFFF7E4FF10BD00BF08B5FFF7E7FF0248FFF7CCFF08BD00BFB93E0000044A137803F0BF03800100F0400018431070704783
:4051C00050510040024B1878C0F38010704700BF51510040044A137803F07F03C001C0B203431370704700BF50510040014B1878C00970475151004010B5FFF769FA04460F
:405200000B4A137843F020031370053A137843F0100313700822074B1A60074A137843F01003137000F02EF92046FFF755FA10BD9C64004000E100E092640040014B1878E5
:40524000704700BF75640040014B1870704700BF7564004008B503200F49FFF769FA03200721FFF779FA00230C4A137076210C4A11702021053A11700E21623A11708F2190
:40528000103211704D321370FFF7D8FF00F0E700FFF7DAFF08BD00BFE95300000884FF1F8C64004008B5054B5B7823B9FFF7D2FF0122024B5A70FFF79FFF08BD0884FF1F5C
:4052C0000822134B1A60134A53889BB2918889B2927912F0FF0F01D18B4212D00E4AD05CC0B201339BB2B3F5806F00D30023094A5380937913F0FF0F06D00022054B9A719D
:4053000002E0064B1878C0B20822054B1A60704780E100E00884FF1F70A1FF1F4C64004000E100E00822164B1A60164B5A8892B29B889BB29A4207D1124B9B7913F0FF0F90
:4053400019D04FF4806017E00E4B5A8892B29B889BB29A4205D20B4A93885088181A80B20AE0084A908883B2508880B2181A00F5806080B200E000200822034B1A60704767
:4053800080E100E00884FF1F00E100E008B5FFF79FF90B4B1A7842F001021A701A7802F0FE021A70FFF798F90821064B1960064B00225A809A809A71DA71044B196008BD7D
:4053C0009C64004080E100E00884FF1F00E100E0034B1B7813F0040FFAD1024B1870704762640040426400401E4B1B78DBB213F01E0F05D01C4803F01E0201780A4302704A
:4054000003F0200303F0FF02002B27D0174B1978C9B2174B1B889BB21648C154164B1B7813F0FF0F02D00121144B197010490B8801339BB20B800B889BB2B3F5806F02D3E8
:4054400000210B4B19800A4B198889B20C4B1B889BB2994202D10121074B1970002AC3D1704700BF676400400884FF1F4C6400400C84FF1F70A1FF1F0E84FF1F0F84FF1FE2
:405480000A84FF1F054A137843F0040313701032137843F004031370704700BFA243004010B500F09DF800F047F9D0B900F086F90446072812D102E00120FFF729F90A4B46
:4054C0001B7813F0020FF7D0074B1B7813F0020F04D0054B1B789B0800D1002400F052F900E00424204610BD2247004010B500F077F800F021F910BB012000F0FFF80728A7
:4055000018D11048022100F07DF802280AD102E00120FFF7FDF80C4B1B7813F0020FF7D0002409E0084B1B7813F0020FE9D04FF0FF3401E04FF0FF3400F024F900E0042450
:40554000204610BD70A5FF1F2247004008B5FFF7A7FF034610B9FFF7C9FF0346184608BD08B5FFF7B5F80F4A137843F0080313701032137843F008031370C8220A4B1A702B
:405580000A4A137843F0100313701032137843F010031370064B1B7813F0200FFAD0FFF79BF808BDA043004001470040AC43004000470040054A137843F001031370034B3C
:4055C0001B7813F0020FFAD0704700BF02470040024A137803F0FE03137070470247004008B5FFF775F8064A137843F0080313701032137843F008031370FFF76DF808BD43
:40560000A043004070B506460D4600240CE00120FFF77EF8064B1B7813F0010FF7D0054B1B7833550134E4B2AC42F3D3204670BD224700402047004030B43E2801D81F2BEE
:4056400003D93F2827D90F2B27D8174C247814F0020F24D0154CB6252570D4252570012525700234247814F0020F1AD10F4C2070C1F300202070C9B22170591EC9B22170DC
:40568000002104E0545C094804700131C9B29942F8D3072006E0012004E0012002E0042000E0092030BC7047224700402047004030B4104C247814F0020F15D00E4CB625DD
:4056C0002570D8252570052525700234247814F0020F0BD1084C2070080A2070C9B2217022702370072002E0042000E0092030BC704700BF22470040204700400C4B1B7878
:4057000013F0020F0FD00B4BB6221A70E1221A700E221A7002331B7813F0020F05D1054B187007207047042070470920704700BF224700402047004010B5FEF7C9FF0F4B69
:405740001B78A3B901220D4B1A700D4B1B6813F0010F0ED00A4A136823F00103136000BF00BF00BF0122054B5A60002402E0042400E00024FEF7B0FF204610BD1484FF1FE7
:405780000400084008B5FEF7A3FF0A4B00221A705B68012B0AD1084A136843F00103136000BF00BF00BF0022024B5A60FEF794FF08BD00BF1484FF1F04000840074B1B78AE
:4057C00013F0020F08D0064BB6221A70E0221A700D221A700720704704207047224700402047004000210A2200F0C0B80E4B70B51E460E4C0025E41AA410A54204D056F8EB
:40580000253098470135F8E708F008FC084B094C1E46E41AA4100025A54204D056F8253098470135F8E770BD28E0000028E0000028E0000030E0000010B5431E0A44914252
:4058400004D011F8014B03F8014FF8E710BD03460244934202D003F8011BFAE7704700002DE9F0470F46404CD4F800903D4615F801EB09EB0E04667806F0080404F0FF063E
:405880000CB12F46F2E774462D2C03D1BD1C7C78012603E02B2C04BF7C78BD1C13B1102B0AD15AE0302C56D12C7804F0DF04582C4CD16C7810230235002E14BF4FF00048AF
:4058C0006FF00048B8FBF3FA0027BE4603FB1A8809EB040C9CF801C01CF0040F01D0303C0BE01CF0030C1BD0BCF1010F0CBF4FF0370C4FF0570CCCEB04049C4210DAB7F115
:40590000FF3F0AD0D64506D801D1444503DC03FB0E4E012701E04FF0FF3715F8014BD7E77C1C73460AD1002E4FF0220114BF4FF000436FF0004301602AB911E00EB1CEF1C7
:4059400000036AB107B1691E116009E03024002BB2D10823B0E70A23AEE7302CACD1A3E71846BDE8F08700BFCC83FF1F30B505460C461346034A294610682246BDE8304055
:40598000FFF76EBFC883FF1F00000000532F442F4475706C612000005365787475706C61000000004F637475706C610000000000352D352D3420202020200000362D362DC4
:4059C0003420202020200000372D372D3520202020200000382D372D35202020202000005465737420646520496D70726573696F6E000000496E696369616E646F000000AB
:405A0000517561647275706C61000000AA700000CC33C33CAA980000013922C5030000FFFF00CC33C33C0000AA5C0020002000300030CC33C33C0000AA980000013923C535
:405A4000020000FFFF00CC33C33C00001D4C33001B2A00AA00000000000000000000000000000000000000000000000000000000000000000000000000000000000000009D
:405A80000000000000000000000000000000000000000000000103070F1F1F1E3E3C3C3C3C3C3C3C3C3C3C3C3C3C3C3C3C3C3C3F3F3F3F3F000000000000000000000000BF
:405AC00000000000000000000000000000000000000000000000000000000000000000000000000000000000000000000000000000000000000000000000000000000000A6
:405B00000000000000000000011D4C33001B2A00AA00000000000000000000000000000000000000000000000000000000000000000000000000000000001F1F1F1F1F1F1F
:405B40001F1F1F1F1F1F1F1F0F0701000000000000FFFFFFFFFF80000000000000000000000000000000000000000000FFFFFFFFFC000000000000000000000000000000A3
:405B800000000000000000000000000000000000000000000000000000000000000000000000000000000000000000000000000000000000000000000000000000000000E5
:405BC0000000000000011D4C33001B2A00AA00000000000000000000000000000000000000000000000000000000000000000000000000000000C0E0F0F0F8F8F8F8F8F8C9
:405C0000F8F8F8F8F8F8F0000000000000FEFEFEFEFE0E0E0E0E0E0E0E0E0E0E0E0E0E0E0E0E0E0E1E3E7CFCF8F0E080000000000000000000000000000000000000000096
:405C40000000000000000000000000000000000000000000000000000000000000000000000000000000000000000000000000000000000000000000000000000000000024
:405C80000000011D4C33001B2A00AA00000000000000000000000000000000000000000000000000000000000000000000000000000000000000010307070707070707071C
:405CC0000707070707070707070707000000000000003F3F3F38383838383838383838383838381C1E1F0F030000000000000000000000000000000000000000000000001F
:405D00000000000000000000000000000000000000000000000000000000000000000000000000000000000000000000000000000000000000000000000000000000000162
:405D40001D4C33001B2A00AA000000000000000000000000000000000000000000000000000000000000000000000000000000007FFFFFFFFFFFFFFFFFFFFFFFFFFFFFFF28
:405D8000FFFFFFFFFFFFFC00000000000000F0FCFE1F0F0703030303030303030303030303FFFFFFFF000000000000000000000000000000000000000000000000000000AB
:405DC000000000000000000000000000000000000000000000000000000000000000000000000000000000000000000000000000000000000000000000000000011D4C3306
:405E0000001B2A00AA0000000000000000000000000000000000000000000000000000000000000000000000000000000000E0E0E0E0E0E0E0E0E0E0E0E0E0E0E0E0E0E0B3
:405E4000E0C0800000000000000000000000000000008080808080808080808080808080808000000000000000000000000000000000000000000000000000000000000002
:405E8000000000000000000000000000000000000000000000000000000000000000000000000000000000000000000000000000000000000000000000011D4C33001B2A00
:405EC00000AA0000000000000000000000000000000000000000000F0F0F0C0C0C0C0C0C0C0C0F0F0F06000F0F0F00000103070E0E0C0C0C0C0C0C0C0F0F0F000001070F4C
:405F00000F0E0C0C0E0F0F0E0C0C0C0F0F0F00000103070E0C0C0C0C0C0C0C0C0F0F0F000008080C0E07030101010101070F0E0C080000000000000000000000000000008A
:405F4000000000000000000000000000000000000000000000000000000000000000000000000000000000000000000000000000000000000000011D4C33001B2A00AA0095
:405F80000000000000000000000000000000000000000000FCFCFC1C1CDCDCDCDCDCCCFCFCFC3800FCFCFC0000FCFCFC1C1C1C1C1C1C1C1C38F8F0E00C1CFCF8E0000000AD
:405FC0000000FCFC00000000FCFCFC0000FCFCFC606060606060606060FCFCFC00000C1C3C78F0E0C0C0C0E0F0F8BC1C0C04000000000000000000000000000000000000D1
:40600000000000000000000000000000000000000000000000000000000000000000000000000000000000000000000000000000000000011D4C33001B2A00AA00000000D4
:406040000000000000000000000000000000000000000000000000000000000000000000000000000000000000000000000000000000000000000001010103030606060401
:406080000C080800000000000000000000010101010101010101010000000000000000000000000000000000000000000000000000000000000000000000000000000000BA
:4060C000000000000000000000000000000000000000000000000000000000000000000000000000000000000000000000000000011D4C33001B2A00AA0000000000000014
:406100000000000000000000000000000000013F3F1F1F1F1F1F3F3F7F7F3F3F3F1F1F1F1F1F0F0F07070707070F0F1F1F3E3D7B73E3E7C7C78E8E8E1C18183939317163A6
:4061400063636767C7C7C7C68686868E8E8E8C8C8C8C8C8C8C0C04040606060606060603030303010101010100000000000000000000000000000000000000000000000011
:40618000000000000000000000000000000000000000000000000000000000000000000000000000000000000000000000011D4C33001B2A00AA0000000000000000000053
:4061C0000000000000030F1F3F7FFFFFFFFFFFFFFEFEFEFFFFFFFFFFFFFFFFFFFFFFFFFFFFFFFFFFFFFFFFFFFFFFFFFFFFCFDF9FBE3E7E7C78F8F8F0E0E0E0C0C08080809B
:40620000800000000000000000000000000000000000000000000000000000000000000080808080808040000000000000000000000000000000000000000000000000009E
:40624000000000000000000000000000000000000000000000000000000000000000000000000000000000000000011D4C33001B2A00AA0000000000000000000000000092
:4062800000E0E0E0E0E0C08080808000000000F0F8FFFFFFFFFFFFFFFFFFFFFFFFFFFFFFFFFEFCF8F8F0F0E0C08080800000000000000000000000000000000000000000FC
:4062C000000000000000000000000000000000000000000000000000000000000000000000000000000000000000000000000000000000000000000000000000000000009E
:40630000000000000000000000000000000000000000000000000000000000000000000000000000000000011D4C33001B2A00AA00000000000000000000000000000000D1
:4063400000000000000000000000000000009CFEFFFFFFFFFEFCF8F0E0E0C080000F1F1F18181818181818181C1C1C1E1F1F1F1F1F1C18181818181818181C1C1E1E1F1FFD
:406380001F1F1F1C1818181C1F1F1F1F1F1F1E1E1C1C1818181818181C1E1E1F1F1F1F0F00000000000000000000000000000000000000000000000000000000000000005F
:4063C000000000000000000000000000000000000000000000000000000000000000000000000000011D4C33001B2A00AA0000000000000000000000000000000000000011
:406400000000000000000000000000000080C08000000000000000000000FFFFFF0000000070787878200000060EFFFFFFFF0E000000007C7C7C3C00000101CFFFFFFFFF0C
:406440000000000000FFFFFFF0800000001F3F7F7F7F7F7F3F1F0F000080E0FFFF00000000000000000000000000000000000000000000000000000000000000000000000B
:40648000000000000000000000000000000000000000000000000000000000000000000000011D4C33001B2A00AA0000000000000000000000000000000000000000000050
:4064C0000000000000000000000000000000000000000000000000FFFFFF00000000F0F8F8F0F16101010387FFFFFF01000000017F3F070301C0F0F8FCFFFFFFFF00000089
:406500000001FFFFFF7F0F070301C1E0F0F0F8F0F0F0E18103070F1FFFFF0000000000000000000000000000000000000000000000000000000000000000000000000000E3
:40654000000000000000000000000000000000000000000000000000000000000000011D4C33001B2A00AA000000000000000000000000000000000000000000000000008F
:4065800000000000000000000000000000000000000000008080808080808080808080808080808080808080808080808080808080808080808080808080808080808080DB
:4065C000808080808080808080808080808080808080808080808000000000000000000000000000000000000000000000000000000000000000000000000000000000001B
:40660000000000000000000000000000000000000000000000000000000000011D4C33001B2A00AA00000000000000000000000000000000000000000000000000000000CE
:40664000000000000000000000000000000000000000000000000000000000000000000000000001010101010101010101010101000000000000000000000000000000000D
:4066800000000000000000000000000000000000000000000000000000000000000000000000000000000000000000000000000000000000000000000000000000000000DA
:4066C000000000000000000000000000000000000000000000000000011D4C33001B2A00AA000000000000000000000000000000000000000000000000000000000000000E
:406700000000000000000000000000000000000000000103070F1F1F3E3E7C7878F8F0F0E0E0E0E0E0E0E0E0E0E0E0E0E0F0F0F8787C3C3F3F1F1F1F1F1F0F0F030000009F
:406740000000000000000000000000000000000000000000000000000000000000000000000000000000000000000000000000000000000000000000000000000000000019
:40678000000000000000000000000000000000000000000000011D4C33001B2A00AA000000000000000000000000000000000000000000000000000000000000000000004D
:4067C00000000000000000000000030F3F7FFEFCF0E0C0800000000000000000000000000000000000000000000000000000000080E0F0F8F8F8F8FEFFFF1F030100000070
:406800000000000000000000000000000000000000000001030300000000000000000000000000000000000000000000000000000000000000000000000000000000000051
:40684000000000000000000000000000000000000000011D4C33001B2A00AA00000000000000000000000000000000000107070F0F1E1E1E0F0F0F070003070F0F0F0E0F7D
:406880000F0F0F070001078F8F8F9E1E1E0F0F0707010003070F0F0F0E0E0F0F0F070003070F0F0F0E0E0E0F0F070701070F0F0F1E1E1E1E1E1E9E8E800D0F1F0F000000F5
:4068C0000000000F1F1F0F03070F0F0F0E1E1E1EFFFFFF000000000000000000000000000000000000000000000000000000000000000000000000000000000000000000A0
:40690000000000000000000000000000000000011D4C33001B2A00AA0000000000000000000000000000000000F0FCFEFF0F0F070F0F1F1E0EF0FCFEFFBF7FFFF7EFDF9FCA
:406940001E0CFFFFFFC00000000000C0FFFFFFF0FCFEFF9F0F070F0F1F9F1E00F8FEFF9F0F0F070F1FFFFEFCF0C0E7E7F7F7F7F7F7F7FFFF7F3EE0FCFEFF1F0F0F070F1FAD
:40698000FFFEFCF0F8FEFEFF0F0F070F1FFFFEFC000000000000000000000000000000000000000000000000000000000000000000000000000000000000000000000000AF
:4069C000000000000000000000000000011D4C33001B2A00AA000000000000000000000000000000000000000000000000000000000000000000000000000000000000000B
:406A0000809E1F1F1F0701000080800000000000000000000000000000000000000080808000000000000000808080808081071F1F1F1C00000000000080800000000000D2
:406A40000000000000000000000000000000000000000000000000000000000000000000000000000000000000000000000000000000000000000000000000000000000016
:406A8000000000000000000000011D4C33001B2A00AA00000000000000000000000000000000000000000000000000000000000000000000000000000000000000000080CA
:406AC000C0E0F8FCFE7E3F1F0F070303010101000000000000000000000000000000000101030303070F1F3F7EFCF8F0E0C080000000000000000000000000000000000008
:406B00000000000000000000000000000000000000000000000000000000000000000000000000000000000000000000000000000000000000000000000000000000000055
:406B4000000000000000011D4C33001B2A00AA0000000000000000000000000000000000000000000000000000000000000000000000000000000000000000000000000089
:406B8000000000008080C0C0E0E0F0F0F0F8787878787C7C7C7C787878F8F8F0F0F0E0E0C0C080800000000000000000000000000000000000000000000000000000000095
:406BC0000000000000000000000000000000000000000000000000000000000000000000000000000000000000000000000000000000000000000000000000000000000095
:406C0000000000011D4C33001B2A00AA00000000000000000000000000000000000000000000000000000000000000000000000000000000000000000000000000000000C8
:406C40000000000000000000000103070F1F1F3F3F3F3F3F3F1F1F0F07030101000000000000000000000000000000000000000000000000000000000000000000000000E9
:406C800000000000000000000000000000000000000000000000000000000000000000000000000000000000000000000000000000000000000000000000000000000000D4
:406CC000011D4C33001B2A00AA00000000000000000000000000000000000000000000000000000000000000000000000000000000000000000000000000000001030707F6
:406D00000F1F1F3F7FFFFFFFFFFFFFFFFFFFFFFFFFFFFFFFFFFFFFFFFFFF7F3F1F0F0703010000000000000000000000000000000000000000000000000000000000000066
:406D400000000000000000000000000000000000000000000000000000000000000000000000000000000000000000000000000000000000000000000000000000011D4CA9
:406D800033001B2A00AA00000000000000000000000000000000000000000000000000000000000000000000000000000000000000000103070F3F7FFFFFFFFFFFFFFCF0F3
:406DC000E0808080C0C0E0E0F0F0F8F8FCFCFEFEFEFFFFFFFFFFFFFFFFFFFFFFFFFFFF3F1F0F030000000000000000000000000000000000000000000000000000000000CF
:406E000000000000000000000000000000000000000000000000000000000000000000000000000000000000000000000000000000000000000000000000011D4C33001B9A
:406E40002A00AA0000000000000000000000000000000000000000000000000000000000000000000000000000000001071F3FFFFFFFFFFFFFFFFFFFFCE0000000000107FD
:406E80000F1F1F1F3F3F3F3F3F3F3F1F1F1F1F9F8FCCE0F0F0F8FCFEFFFFFFFFFFFFFFFFFF7F0F0300000000000000000000000000000000000000000000000000000000FD
:406EC00000000000000000000000000000000000000000000000000000000000000000000000000000000000000000000000000000000000000000011D4C33001B2A00AA06
:406F000000000000000000000000000000000000000000000000000000000000000000000000000000031F7FFFFFFFFFFFFFFFFFFFFFFFFFFF000000071F7FFFFFFFFFFF1D
:406F4000FFFFFFDF9F8F8F8F8F8F8F8F0000000000000000000080C0E0F0FCFFFFFFFFFFFFFF0F000000000000000000000000000000000000000000000000000000000099
:406F800000000000000000000000000000000000000000000000000000000000000000000000000000000000000000000000000000000000011D4C33001B2A00AA00000045
:406FC0000000000000000000000000000000000000000000000000000000000000000000003FFFFFFFFFFFFFFFFFFFFFFFFFFFFFFFFF000000F0FCFEFFFFFFFFFFFFDF8F10
:407000008F8F8F8F8F8787830000000000010103070F0F1F3F7F7FFFFFFFFFFFFFFFFFFF3F0700000000000000000000000000000000000000000000000000000000000031
:4070400000000000000000000000000000000000000000000000000000000000000000000000000000000000000000000000000000011D4C33001B2A00AA00000000000084
:40708000000000000000000000000000000000000000000000000000000000000000FCFEFEFEFFFFFFFFFFFFFFFFFFFFFFFFFF0F03030303030383838387C7C7C7C7CFCFFC
:4070C000CFDFDF9F3F3F7F7FFFFFFFFFFFFFFFFFFFFFFFFFFFFFFFFFFFFFFFFFFFFEFC00000000000000000000000000000000000000000000000000000000000000000003
:4071000000000000000000000000000000000000000000000000000000000000000000000000000000000000000000000000011D4C33001B2A00AA000000000000000000C3
:407140000000000000000000000000000000000000000000000000000000000000000000008080C0C0E0E0F0F0F0F8F8F8FCFCFCFCFCFCFEFEFEFEFEFEFEFEFEFEFEFEFE49
:40718000FEFEFCFCFCFCFCFCFCFCF8F8F8F8F0F0F0E0E0E0C0C0C0808000000000000000000000000000000000000000000000000000000000000000000000000000000063
:4071C00000000000000000000000000000000000000000000000000000000000000000000000000000000000000000011D4C33001B2A00AA00000000000000000000000003
:40720000000000000000000000000000000000000000000000000000000000000103030707070F0F1F1F1F1F1F3F3F3F7F7F7F7F7F7F7F7F7F7F7F7F7F7F7F7F7F7F7F7FD0
