:400000000080002011000000296C0000296C000008B5044B1A6803F53F5302331A6006F005FE00BFFA46004010B5054C237833B9044B13B10448AFF300800123237010BD44
:40004000D083FF1F000000003C8A0000084B10B51BB108480849AFF300800848036803B910BD074B002BFBD0BDE81040184700BF000000003C8A0000D483FF1F0881FF1F21
:400080000000000008B507F0D9FE024A13780133137008BD4992FF1F08B507F06FFF024A13780133137008BDF98BFF1F08B508F0A3F90449D1E90023013243F10003C1E9C3
:4000C000002308BDF08BFF1F08B508F029F908BD08B507F06FFB07F079FA06F0DBFF07F0D1F806F085FF07F025FC08F001F8084808F0F4F9074808F01FFA074807F012FF5C
:40010000064807F061FF08F0BBF908F04DF908BDAD000000C9000000850000009900000010B51C4B1878002107F048FB1A4B1878012107F043FB194B1878022107F03EFB2D
:40014000174B1878032107F039FB164B1878042107F034FB144B1878052107F02FFB134B1878062107F02AFB114C20780C2107F025FB94F812010D2107F020FB94F82402D1
:400180000E2107F01BFB94F836030F2107F016FB10BD00BF8F8DFF1F9897FF1FF491FF1F908DFF1F9697FF1FB097FF1F4792FF1F9C84FF1F10B5022007F06AFB234B1870F7
:4001C000032007F065FB224B1870042007F060FB204B1870052007F05BFB1F4B1870062007F056FB1D4B1870072007F051FB1C4B1870082007F04CFB1A4B1870092007F099
:4002000047FB194B18700A2007F042FB174C20700B2007F03DFB60700423154A1370154A13700C2007F034FB134C20700D2007F02FFB84F812010E2007F02AFB84F8240220
:400240000F2007F025FB84F8360310BDF491FF1F908DFF1F9697FF1FB097FF1F4792FF1F3092FF1FB197FF1F4892FF1F4492FF1F0C81FF1F508DFF1F9C84FF1F10B59CB00A
:40028000994A19AB07CA03C31A80984B16AC93E8070003C42280964A13AC07CA03C4228010AC03F10C0207CA03C4227000228DF849200DAC03F1180103C984E80300ADF85F
:4002C0003C200AAC03F1240207CA03C4228007AC03F1300207CA03C4228004AC03F13C0207CA03C4228001AC483393E8070003C42280804B1B78022B7AD10120014603F025
:4003000013FD012019A9002203F0C8FD4FF4967007F09CF8784B1B785BB90133DBB2774A82F8023182F81432012016A9002203F0B5FD714B1B78012B0BD10133DBB26F4A4B
:4003400082F8023182F81432012013A9002203F0A5FD694B1B78022B0BD10133DBB2674A82F8023182F81432012010A9002203F095FD614B1B78032B0BD10133DBB25F4A19
:4003800082F8023182F8143201200DA9002203F085FD5B4B1B783BB901200AA9162203F07DFD0522574B1A70554B1B78012B07D1012007A9162203F071FD0622514B1A707A
:4003C0004F4B1B78022B07D1012004A9162203F065FD07224B4B1A70494B1B78032B07D1012001A9162203F059FD0822454B1A70404B1B78042B6DD101202E2103F094FCEC
:40040000012019A9002203F049FD4FF4967007F01DF8394B1B787BB90133DBB2374A82F8023182F8143282F8263382F83834012016A9002203F032FD2F4B1B78012B0FD139
:400440000133DBB22D4A82F8023182F8143282F8263382F83834012013A9002203F01EFD254B1B78022B0FD10133DBB2234A82F8023182F8143282F8263382F8383401208C
:4004800010A9002203F00AFD1B4B1B78032B0FD10133DBB2194A82F8023182F8143282F8263382F8383401200DA9002203F0F6FC134B1B78012B04D1012007A9162203F04A
:4004C000EDFC0F4B1B78022B04D1012004A9162203F0E4FC074B1B78012B03D80120002103F022FC1CB010BDCC8A0000408A0000D88A0000FA97FF1F8F8DFF1F9C84FF1FCA
:40050000B097FF1F4792FF1F08B5104B1B78022B06D10220012103F007FC00220C4B1A600A4B1B78042B03D102202E2103F0FCFB064B1B78012B03D80220002103F0F4FB2D
:4005400002200449002203F0A9FC08BDFA97FF1FF093FF1F1481FF1F08B502F00DFD2D4B1870002855D02C4B187802F0EDFC03F065F850B90120002103F0D6FB0220002100
:4005800003F0D2FB0022234B1A70234B93F8120102F0DAFC03F052F850B90120002103F0C3FB0220002103F0BFFB0022194B1A70194B187802F0C8FC03F040F848B3164B23
:4005C00093F8120102F0C0FC03F038F808B302F0D3FC104B1870104B187802F0B5FC06280DD10D4B93F8120102F0AEFC062806D1094B187803F088FAFFF792FD08BD012038
:40060000092103F091FB0220092103F08DFBFFF7A3FF08BDFA97FF1F9C84FF1F70B58EB02E4C07AD04F154060FCE0FC596E8070003C52A806D4670340FCC0FC594E80700EF
:4006400003C52A80002408E00EAB2344012013F81C1C03F0F9FE0134E4B2192CF4D901200A2103F0F1FE01200A2103F0EDFE01200A2103F0E9FE01200A2103F0E5FE0120F0
:400680000A2103F0E1FE01200A2103F0DDFE002408E00EAB2344022013F8381C03F0D4FE0134E4B2192CF4D902200A2103F0CCFE02200A2103F0C8FE02200A2103F0C4FEC2
:4006C00002200A2103F0C0FE02200A2103F0BCFE02200A2103F0B8FE0EB070BD408A0000F0B585B0A54B1B68132B01F2FA81DFE813F014002A006900C500A301D1014F0261
:40070000C4023403B5038804DB047905F1054606980745089A081F09F209FFF7AFFD0122964B1A6007F00CFC07F06EFB0023944A1370944A82F8613082F80331924A82F838
:40074000073101F0CEB9914BD3E900234FF42F700021994208BF90420ED28A4B93F834312BB18B4B1878884B197804F03FF800200021864BC3E900010822834B83F80321CB
:4007800006F096FC082841F0AC81824B1B78DBB2AA2B10D17F4B9B79DBB2C32B0BD17D4BDB79DBB23C2B06D10222744B1A600120042103F0B9FA0A2006F048FE06F0A6FC1D
:4007C00001F08FB906F074FC082841F08A81714B1B78DBB2AA2B4AD16E4B9B79DBB2C32B45D16C4BDB79DBB23C2B40D1694BDB78DBB2452B24D004D80D2B07D00E2B10D0B8
:4008000035E07E2B2CD0942B22D030E003225B4B1A6001205B4B83F86100052103F084FA25E00A22554B1A600222564B83F861200022534B1A700120852103F075FA16E049
:400840000C224E4B1A600120832103F06DFA0EE000224A4B1A600120014603F065FA06E00022464B1A600120014603F05DFA0A2006F0ECFD06F04AFC01F033B906F018FC4E
:40088000082841F02E81434B1B78DBB2AA2B40F0CC80404B9B79DBB2C32B40F0C6803D4BDB79DBB23C2B40F0C0803A4BDB78DBB23B2B00F0AB8004D80F2B0CD0102B2FD047
:4008C000B3E07E2B00F0AA80942B00F09780432B40F0AB8049E00422284B1A60294B022483F86340442283F8642000252A4B1D700120062103F018FA0120009001954E238E
:40090000029324210322234603F0F0FA234B1B7813B1234B1D7088E00122214B1A7084E00422164B1A60174B012483F86340562583F864500026184B1E7020460D2103F0DF
:40094000F3F9009401964E230293204629460322022303F0CBFA134B1B7813B1104B1E7063E001220E4B1A705FE0064B022283F86320462283F8642001231CE06092FF1F53
:400980004992FF1FFC8BFF1F9C84FF1FF08BFF1FB197FF1F0098FF1F4A92FF1FF491FF1FF793FF1F908DFF1F984A1A44392182F865100133DBB21A4695490978481E8342F2
:4009C000F2DB924B9C18302084F8650084F8660083F86510002307E08C4A1A4492F8650082F86F000133DBB28B42F5D90522894B1A600120862103F097F916E00022854B7C
:400A00001A600120014603F08FF90EE00022814B1A600120014603F087F906E000227D4B1A600120014603F07FF90A2006F00EFD06F06CFB01F055B80120754B19780022F1
:400A400003F0B8FA18B1012815D001F04AB80022704B1A600120014603F066F901F041B86A4A1A4492F84B1082F8651082F86F100133DBB200E00023644A92F84B209A42EA
:400A8000EED20522634B1A600120862103F04CF901F027B806F00CFB082841F022805E4B1B78DBB2AA2B6CD15B4B9B79DBB2C32B67D1594BDB79DBB23C2B62D1564BDB78FC
:400AC0007E3B3A2B5DD8DFE803F055351E295C5C5C5C5C5C5C5C5C5C5C5C5C5C5C5C5C5C4D5C5C5C5C5C5C5C5C5C5C5C5C5C5C5C5C5C5C5C5C5C5C5C5C5C5C5C5C5C5C5C2F
:400B00005C5C5C5C41000622424B1A600120434B83F801010B2103F007F932E006223D4B1A6002223D4B83F8012101200B2103F0FBF826E00622374B1A600322374B83F886
:400B4000012101200B2103F0EFF81AE00622314B1A600422314B83F8012101200B2103F0E3F80EE000222B4B1A600120014603F0DBF806E00120014603F0D6F80022254BEB
:400B80001A600A2006F062FC06F0C0FA00F0A9BF234807F0C7F907F097F906F089FA08285BD11D4B1B78DBB2AA2B51D11A4B9B79DBB2C32B4CD1184BDB79DBB23C2B47D164
:400BC000154BDB78DBB2392B04D07E2B39D0382B3ED10FE009220F4B1A600022114B1A700A4B012083F8000183F834010A2103F09BF82DE0054B93F80331ABB10022054B26
:400C00001A600120014603F08FF821E0FC8BFF1F4792FF1F6092FF1F0098FF1F9C84FF1F850000004A92FF1F0721B34B19600023B24A82F83431B24A1370012003F074F89C
:400C400006E00022AC4B1A600120014603F06CF80A2006F0FBFB06F059FAA94B1B781D2B40F23F870023A44A1360A54A13700120014603F059F800F034BFA24C207802F019
:400C8000F3FF014684F8000194F8013198423BD19A4A92F863302078653203F0030302F0EBFC012822D107F04BF907F0ADF82546207802F049F9207840F0100006F01CFDC7
:400CC000012485F8074108218B4B196000228C4B1A708A4D85F83541204603F025F8204605F16F01122203F0D9F810E00021824B1960012003F018F8C82006F0A7FB0120EF
:400D0000014603F011F802E007227B4B1A6006F0CFF908281DD17C4B1B78DBB2AA2B15D1794B9B79DBB2C32B10D1774BDB79DBB23C2B0BD1744BDB78DBB27E2B06D101204D
:400D4000014602F0F1FF00226B4B1A600A2006F07DFB06F0DBF900F0C4BE6A4C207802F0F3F884F804010638052800F2BA86DFE810F00600B806B80616001F004A000023F0
:400D80005D4A13600C215F4A82F803115B4A82F835310120014602F0C7FF00F0A2BE574B012283F83521002283F8032100F099BE544B187802F05EFA002800F092864F4BDF
:400DC00093F83431012B0AD101214C4B83F803110022494B1A60084602F0A6FF09E00622454B1A600120454B83F803010B2102F09BFF0022414B83F835210122414B83F8F3
:400E0000072100F06EBE3F4B187802F033FA002800F06786394B93F83431012B0AD10121364B83F803110022334B1A60084602F07BFF09E00622304B1A6001202F4B83F893
:400E400003010B2102F070FF00222C4B83F8352101222C4B83F8072100F043BE01200A21002203F0A7F818B101284FD000F039BE224B93F80031013B032B39D8DFE803F0F3
:400E80000A1D29351D4A1A44002182F8DF100133DBB200E000230A2BF4D90022164B1A600120014602F040FF22E0144A1A44002182F8EA100133DBB200E000230A2BF4D9E9
:400EC00016E00E4A1A44002182F8F5100133DBB200E000230A2BF4D90AE0084A1A44002182F836110133DBB200E000230A2BF4D906F00CF900F0F5BD6092FF1FFC8BFF1F4C
:400F00004992FF1F9C84FF1F0098FF1FAA4B93F80031013B032B70D8DFE803F00B33494FA54A1A4492F84B1082F8DF100133DBB200E00023A04A92F84B209A42F0D29E4B0C
:400F400093F803316BB19D4B18789D4B197803F04DFC00229B4B1A600120014602F0E4FE4BE00721974B1960012002F0DDFE44E0914A1A4492F84B1082F8EA100133DBB298
:400F800000E000238C4A92F84B209A42F0D207218C4B1960012002F0C7FE2EE0864A1A4492F84B1082F8F5100133DBB200E00023814A92F84B209A42F0D2002307E07E4AE1
:400FC0001A4492F84B1082F836110133DBB20A2BF5D90E227B4B1A6000227B4B1A700A227A4B1A702A227A4B1A700322724B83F800210120252102F097FE06F087F800F060
:4010000070BD06F055F8082840F06B85714B1B78DBB2AA2B41D16F4B9B79DBB2C32B3CD16C4BDB79DBB23C2B37D16A4BDB78DBB2942B23D002D87E2B28D02EE0B62B02D04D
:40104000B72B0ED029E00B225E4B1A6000225E4B1A700120584B83F83401122102F064FE1BE00023544A82F800310721554A1160594A1370012002F057FE0EE00022514B2E
:401080001A600120014602F04FFE06E00120014602F04AFE00224B4B1A600A2006F0D6F906F034F800F01DBD4C4806F03BFF06F00BFF012004F064FB01286CD1332104F094
:4010C000A1FB40B967E0012004F006FC444B18550134E4B200E00124082CF4D90020012405E03F4B195D04F033FC0134E4B2072CF7D93B4B1B7ADBB283424CD110232E4AE0
:401100005370012230E010463549895C01F00F01092908DD3249895C274C1C4401F00F013731617007E02E49895C234C1C4401F00F0130316170013BDBB22949095C9F29CE
:4011400007D92749095C1C48184409093731417006E02349095C18481844090930314170013BDBB20132D2B2082ACCD90120132102F0DAFD05F0CAFF4FF42F7006F066F9CE
:4011800002220D4B83F8002109220E4B1A6001200E2102F0C9FD104B1B783B2B40F2A1840023084A13600C4A13700120014602F0BBFD00F096BC00BFFC8BFF1FB197FF1F87
:4011C0009C84FF1F6092FF1F4A92FF1FFA8BFF1F3192FF1F0098FF1F4992FF1F850000005897FF1F05F064FF082840F07A84A84B1B78DBB2AA2B66D1A54B9B79DBB2C32B8E
:4012000061D1A34BDB79DBB23C2B5CD1A04BDB78DBB2552B1DD004D83B2B3DD0462B07D051E0942B40D0B52B28D07E2B4BD143E00D22984B1A60984B1B78012B04D1012066
:401240002A2102F071FD3EE00120232102F06CFD39E00E228F4B1A600622904B83F8002100228F4B1A7005228E4B1A702A228E4B1A700120252102F057FD24E00022854B47
:401280001A608A4B012183F807110B2283F80321084602F049FD16E000227E4B1A600120014602F041FD0EE000227A4B1A600120014602F039FD06E00022764B1A600120A2
:4012C000014602F031FD0A2006F0C0F805F01EFF00F007BC05F0ECFE082840F002846C4B1B78DBB2AA2B44D1694B9B79DBB2C32B3FD1674BDB79DBB23C2B3AD1644BDB780A
:40130000DBB2482B17D002D8472B05D031E07E2B20D0942B26D02CE009225E4B1A6000225F4B1A7004225D4B83F800210120242102F0FAFC1DE00922564B1A600022584BD6
:401340001A700422554B83F800210120242102F0EBFC0EE00120014602F0E6FC00224D4B1A6006E00120014602F0DEFC0022494B1A600A2006F06AF805F0C8FEB1E30120A8
:40138000484B1978484B1A7802F014FE10B101286ED0A6E3414B93F80031013B052B64D8DFE803F0091A2F6344570021404AD1540133DBB200E00023042BF6D90022354B01
:4013C0001A600120014602F0AFFC4EE00021394AD1540133DBB200E00023324A12789342F4D300222B4B1A600120014602F09CFC3BE02A4A1A44002182F841110133DBB272
:4014000000E00023274A12789342F2D30022214B1A600120014602F087FC26E01F4A1A44002182F841110133DBB200E000231D4A12789342F2D30022164B1A6001200146C1
:4014400002F072FC11E000211B4AD1540133DBB200E00123184A12789A42F4D200220D4B1A600120014602F05FFC05F04FFE38E30A4B93F80031013B052B00F2CF80DFE892
:4014800013F026004F006500CD007B00910000BF0098FF1F6092FF1F3092FF1FFC8BFF1F4A92FF1FFA8BFF1F3192FF1F9C84FF1F5097FF1F588DFF1F508DFF1F591C914A5D
:4014C0000A4492F84B00904AD054CBB200E00023042BF3D98C480023037107F0DDF980B28A4B1880C3B28A4C2370000A607020780A2106F063F960780B2106F05FF90F2229
:40150000844B1A6001205A2102F00EFC86E07D4A1A4492F84B10804AD1540133DBB200E000237E4A12789342F1D30F22794B1A6001205A2102F0F8FB70E0724A1A4492F8D8
:401540004B1082F841110133DBB200E00023734A12789342F1D313226E4B1A600120392102F0E2FB5AE0674A1A4492F84B1082F841110133DBB200E00023684A127893421F
:40158000F1D30F22634B1A6001205A2102F0CCFB44E05C4A1A4492F84B10614AD1540133DBB200E001235E4A12789A42F1D25C4B5A785C4B5B789A4221D1594B9A78594B2B
:4015C0009B789A421BD1564BDA78564BDB789A4215D1534B1A79534B1B799A420FD10120262102F0A1FB4FF42F7005F02FFF0F22484B1A6001205A2102F096FB0EE00120E1
:40160000272102F091FB4FF42F7005F01FFF0022404B1A600120014602F086FB05F076FD5FE205F045FD082840F05B823E4B1B78DBB2AA2B40F09C803B4B9B79DBB2C32BF1
:4016400040F09680384BDB79DBB23C2B40F09080354BDB78583B3C2B00F28A80DFE803F06A883C888888888888888888883288888888888888888888888888888888888856
:40168000888888888888798888881F888888888888888888888888888888888881000E221C4B1A600023214A1370214A137005221A4B1A700120134B83F80001062102F007
:4016C00033FB55E01022134B1A60FEF7A7FF01206B2102F029FB4BE00E220E4B1A600023124A1370124A137003220C4B1A700223094A1370034A82F800310120062102F0DD
:4017000013FB35E0FC8BFF1F5097FF1F0096FF1F4492FF1F6092FF1F588DFF1FFA8BFF1F508DFF1F0C81FF1F0098FF1F4A92FF1F3192FF1F1222784B1A600022774B1A7068
:401740000422774B83F8002101203E2102F0ECFA0EE00120014602F0E7FA00226E4B1A6006E00120014602F0DFFA00226A4B1A600A2005F06BFE05F0C9FCB2E105F098FC47
:40178000082840F0AE81674B1B78DBB2AA2B44D1644B9B79DBB2C32B3FD1624BDB79DBB23C2B3AD15F4BDB78DBB2392B10D002D8382B05D031E07E2B20D0942B26D02CE045
:4017C0001122554B1A600120672102F0ADFA24E00F22514B1A600124534B1C70534D02232B702046082105F0E9FF2878092105F0E5FF20465A2102F097FA0EE00120014697
:4018000002F092FA0022444B1A6006E00120014602F08AFA0022404B1A600A2005F016FE05F074FC5DE105F043FC082840F059813C4B1B78DBB2AA2B68D13A4B9B79DBB2F5
:40184000C32B63D1374BDB79DBB23C2B5ED1354BDB787E3B162B59D8DFE803F049585858585858585858585858580C2035585858585851000F22284B1A6002202A4B18702D
:401880002A4C2070082105F099FF2078092105F095FF01205A2102F047FA37E00F221E4B1A600124204B1C70204D2C702046082105F084FF2878092105F080FF20465A21DC
:4018C00002F032FA22E00F22134B1A600020164B1870164C2070082105F070FF2078092105F06CFF01205A2102F01EFA0EE00120014602F019FA0022074B1A6006E001201F
:40190000014602F011FA0022034B1A600A2005F09DFD05F0FBFBE4E06092FF1F4A92FF1FFC8BFF1F0098FF1FB197FF1F4892FF1F02F00AFE01283CD16B4F7978C1F30011AE
:40194000303101240094002601964E2502952046C9B20D22082302F0C9FA797801F00F01009401960295204630310D22092302F0BDFA00940196029520463A210D220A2338
:4019800002F0B4FA39780909009401960295204630310D220B2302F0A9FA397801F00F01009401960295204630310D220C2302F09DFA02F06DFD01285DD14C4F3978C1F374
:4019C000011101240094002601964E250295204630311522082302F089FA397801F00F01009401960295204630311522092302F07DFA00940196029520462F2115220A23D4
:401A000002F074FA7978C1F3001130310094019602952046C9B215220B2302F067FA797801F00F010094019602952046303115220C2302F05BFA00940196029520462F2134
:401A400015220D2302F052FAB97809090094019602952046303115220E2302F047FAB97801F00F010094019602952046303115220F2302F03BFA05F01BFB082831D11C4B6B
:401A80001B78DBB2AA2B20D1194B9B79DBB2C32B1BD1174BDB79DBB23C2B16D1144BDB78DBB27E2B02D0942B08D00EE00022114B1A600120014602F037F906E000220D4BAF
:401AC0001A600120014602F02FF90A2005F0BEFC05F01CFB05E00123074A82F80731074A137005B0F0BD00BFB497FF1F3492FF1F0098FF1F6092FF1F9C84FF1FF88BFF1F12
:401B0000F0B585B0AC4B1B68132B01F2F281DFE813F014002D007000CC009701C5014302BB022E03B4038C04E0046605F30548069D07410895081709EA09FEF7E5FC012263
:401B40009D4B1A609D4C082384F8153206F04AFA06F000FA00239A4A13709A4A82F8613082F8033184F8193201F0C3B90220232102F066F9944BD3E900234FF42F7000212F
:401B8000994208BF90420FD28E4B93F8343133B18E4B1878894B93F8121102F027FE00200021894BC3E900010822844B83F8152205F076FB082841F09C81854B1B78DBB2E0
:401BC000AA2B0FD1824B9B79DBB2C32B0AD1804BDB79DBB23C2B05D10220774B1860042102F0A2F80A2005F031FC05F087FB01F080B905F055FB082841F07B81744B1B7822
:401C0000DBB2AA2B4AD1724B9B79DBB2C32B45D16F4BDB79DBB23C2B40D16D4BDB78DBB2452B24D004D80D2B07D00E2B11D035E07E2B2CD0942B22D030E003225E4B1A60EE
:401C40000122604B83F861200220052102F06CF824E00A22584B1A6002205A4B83F8610000225C4B1A70852102F05EF816E00C22514B1A600220832102F056F80EE000227B
:401C80004D4B1A600220012102F04EF806E00022494B1A600220012102F046F80A2005F0D5FB05F02BFB01F024B905F0F9FA082841F01F81464B1B78DBB2AA2B40F0B9805C
:401CC000434B9B79DBB2C32B40F0B380404BDB79DBB23C2B40F0AD803D4BDB78DBB23B2B00F0988004D80F2B0CD0102B27D0A0E07E2B00F09780942B00F08480432B40F0B9
:401D0000988038E004222C4B1A602E4B022483F86340442283F8642000252F4B1D702046062102F001F80123009301954E230293204624210322234602F0D8F879E00422C9
:401D40001D4B1A601F4B012683F86360562483F864400025204B1D7002200D2101F0E4FF009601954E230293022021460322034602F0BCF85DE0134B022283F863204622E4
:401D800083F86420012306E00E4A1A44392182F865100133DBB21A4610490978481E8342F2DB084B9C18302084F8650084F8660083F8651000231BE0F093FF1F9C84FF1F21
:401DC000F98BFF1FA890FF1FF08BFF1F4892FF1F2098FF1F4992FF1F4A92FF1F4792FF1F934A1A4492F8650082F86F000133DBB28B42F5D905228F4B1A600220862101F0F6
:401E000093FF16E000228B4B1A600220012101F08BFF0EE00022874B1A600220012101F083FF06E00022834B1A600220012101F07BFF0A2005F00AFB05F060FA01F059B862
:401E400002207D4B1978002202F0B4F818B1012815D001F04EB80022764B1A600220012101F062FF01F045B8714A1A4492F84B1082F8651082F86F100133DBB200E00023CE
:401E80006B4A92F84B209A42EED20522694B1A600220862101F048FF01F02BB805F000FA082841F02680654B1B78DBB2AA2B6CD1624B9B79DBB2C32B67D1604BDB79DBB2DA
:401EC0003C2B62D15D4BDB787E3B3A2B5DD8DFE803F055351E2A5C5C5C5C5C5C5C5C5C5C5C5C5C5C5C5C5C5C4D5C5C5C5C5C5C5C5C5C5C5C5C5C5C5C5C5C5C5C5C5C5C5C65
:401F00005C5C5C5C5C5C5C5C5C5C5C5C41000622484B1A6001224A4B83F8132202200B2101F002FF31E00622424B1A600220444B83F813020B2101F0F7FE26E006223D4BEA
:401F40001A6003223E4B83F8132202200B2101F0EBFE1AE00622374B1A600422384B83F8132202200B2101F0DFFE0EE00022314B1A600220012101F0D7FE06E00220012194
:401F800001F0D2FE00222B4B1A600A2005F05EFA05F0B4F900F0ADBF2A4805F0C3FF05F093FF05F07DF908285ED1244B1B78DBB2AA2B54D1214B9B79DBB2C32B4FD11F4B51
:401FC000DB79DBB23C2B4AD11C4BDB78DBB2392B04D07E2B3CD0382B41D110E00922154B1A600022184B1A70114B012283F8002183F8342102200A2101F096FE2FE00C4BAE
:4020000093F803313BB100220A4B1A600220012101F08AFE23E00721064B19600023044A82F83431094A1370022001F07DFE16E0A890FF1FF093FF1F4792FF1F2098FF1FE4
:402040009C84FF1F850000004A92FF1F4992FF1F0022BA4B1A600220012101F065FE0A2005F0F4F905F04AF9B54B1B781D2B40F240870023B14A1360B14A13700220012106
:4020800001F052FE00F035BFAE4C94F8120101F0EBFD014684F8120294F8133298423DD1A94A92F8633094F81201653203F0030301F0E2FA012823D105F094FF05F04AFF0A
:4020C00094F8120100F040FF94F8120140F0100005F012FB012384F819320821974A116000209A4A1070984C84F83531022001F01BFE022004F16501122201F0CFFE10E0F6
:4021000000218E4B1960022001F00EFEC82005F09DF90220012101F007FE02E00722874B1A6005F0BDF808281DD1894B1B78DBB2AA2B15D1864B9B79DBB2C32B10D1844B82
:40214000DB79DBB23C2B0BD1814BDB78DBB27E2B06D10220012101F0E7FD0022774B1A600A2005F073F905F0C9F800F0C2BE754C94F8120100F0E8FE84F8160206380528B2
:4021800000F2B786DFE810F00600B506B50616001F004C000023694A13600C21694A82F81512694A82F835310220012101F0BCFD00F09FBE644B012283F83521002283F854
:4021C000032100F096BE5F4B93F8120101F052F8002800F08E865C4B93F83431012B0AD10121594B83F803110022544B1A60022001F09AFD0AE00622504B1A600122524B09
:4022000083F8032102200B2101F08EFD00224E4B83F8352101224B4B83F8192200F069BE484B93F8120101F025F8002800F06186454B93F83431012B0AD10121454B83F831
:40224000031100223D4B1A60022001F06DFD0AE006223A4B1A6001223B4B83F8032102200B2101F061FD0022374B83F835210122344B83F8192200F03CBE02200A2100228D
:4022800001F098FE18B1012845D000F032BE2E4B93F80031013B032B39D8DFE803F00A1D2935294A1A44002182F8DF100133DBB200E000230A2BF4D90022204B1A60022077
:4022C000012101F031FD22E01F4A1A44002182F8EA100133DBB200E000230A2BF4D916E0194A1A44002182F8F5100133DBB200E000230A2BF4D90AE0134A1A44002182F81C
:4023000036110133DBB200E000230A2BF4D904F0F5FF00F0EEBD0C4B93F80031013B032B7FD8DFE803F01942585E074A1A4492F84B1082F8DF100133DBB20EE0F093FF1F21
:402340004992FF1F9C84FF1FA890FF1FF98BFF1F2098FF1FFC8BFF1F0023B04A92F84B209A42E2D2AD4B93F8033173B1AC4B1878AC4B93F8121102F039FA0022AA4B1A6054
:402380000220012101F0D0FC4BE00721A64B1960022001F0C9FC44E0A04A1A4492F84B1082F8EA100133DBB200E000239B4A92F84B209A42F0D207219B4B1960022001F0EC
:4023C000B3FC2EE0954A1A4492F84B1082F8F5100133DBB200E00023904A92F84B209A42F0D2002307E08D4A1A4492F84B1082F836110133DBB20A2BF5D90E228A4B1A6026
:4024000000228A4B1A700A22894B1A702A22894B1A700322814B83F800210220252101F083FC04F06BFF00F064BD04F039FF082840F05F85804B1B78DBB2AA2B42D17E4B07
:402440009B79DBB2C32B3DD17B4BDB79DBB23C2B38D1794BDB78DBB2942B24D002D87E2B29D02FE0B62B02D0B72B0FD02AE00B226D4B1A6000226D4B1A700122674B83F835
:4024800034210220122101F04FFC1BE00023634A82F800310721644A1160684A1370022001F042FC0EE000225F4B1A600220012101F03AFC06E00220012101F035FC0022E6
:4024C000594B1A600A2004F0C1FF04F017FF00F010BD5B4805F026FD05F0F6FC022003F04FF901286BD1332103F08CF940B966E0022003F0F1F9534B18550134E4B200E0F5
:402500000124082CF4D90020012405E04D4B195D03F01EFA0134E4B2072CF7D9494B1B7ADBB283424BD110233C4A5370012230E010464449895C01F00F01092908DD4149B4
:40254000895C364C1C4401F00F013731617007E03C49895C314C1C4401F00F0130316170013BDBB23749095C9F2907D93549095C2A48184409093731417006E03149095C02
:4025800026481844090930314170013BDBB20132D2B2082ACCD90220132101F0C5FB04F0ADFE4FF42F7004F051FF02201B4B83F8000109221C4B1A600E2101F0B5FB1F4BC0
:4025C0001B783B2B40F295840023174A13601B4A13700220012101F0A7FB00F08ABC04F05FFE082840F08584134B1B78DBB2AA2B7CD1114B9B79DBB2C32B77D10E4BDB7971
:40260000DBB23C2B72D10C4BDB78DBB2552B33D01AD83B2B53D0462B1DD067E0A890FF1F4892FF1F9C84FF1FF093FF1F4A92FF1FFA8BFF1F3192FF1F2098FF1F4992FF1F0F
:40264000850000005897FF1F942B40D0B52B28D07E2B4BD143E00D22AA4B1A60AA4B1B78012B04D102202A2101F05EFB3EE00220232101F059FB39E00E22A24B1A600622BA
:40268000A24B83F800210022A14B1A700522A14B1A702A22A04B1A700220252101F044FB24E00022974B1A609C4B012183F819120B2283F81522022001F036FB16E0002297
:4026C000904B1A600220012101F02EFB0EE000228C4B1A600220012101F026FB06E00022884B1A600220012101F01EFB0A2004F0ADFE04F003FEFCE304F0D2FD082840F00D
:40270000F883874B1B78DBB2AA2B44D1844B9B79DBB2C32B3FD1824BDB79DBB23C2B3AD17F4BDB78DBB2482B17D002D8472B05D031E07E2B20D0942B26D02CE00922714B3D
:402740001A600022724B1A700422704B83F800210220242101F0E8FA1DE00922694B1A6000226B4B1A700422684B83F800210220242101F0D9FA0EE00220012101F0D4FA76
:402780000022604B1A6006E00220012101F0CCFA00225C4B1A600A2004F058FE04F0AEFDA7E302205B4B19785B4B1A7801F002FC10B101286ED09CE3544B93F80031013B53
:4027C000052B64D8DFE803F0091A2F6344570021544AD1540133DBB200E00023042BF6D90022484B1A600220012101F09DFA4EE000214D4AD1540133DBB200E00023454A64
:4028000012789342F4D300223E4B1A600220012101F08AFA3BE03D4A1A44002182F841110133DBB200E000233A4A12789342F2D30022344B1A600220012101F075FA26E076
:40284000324A1A44002182F841110133DBB200E00023304A12789342F2D30022294B1A600220012101F060FA11E000212F4AD1540133DBB200E001232C4A12789A42F4D279
:402880000022204B1A600220012101F04DFA04F035FD2EE31D4B93F80031013B052B00F2D280DFE813F00F0052006800D0007E009400591C154A0A4492F84B00194AD05497
:4028C000CBB200E00023042BF3D916480023037105F0E2FF80B2164B1880C3B2154C2370000A607020780A2104F068FF60780B2104F064FF0F22034B1A6002205A2101F024
:4029000013FAA0E0F093FF1F3092FF1FA890FF1F4A92FF1FFA8BFF1F3192FF1F9C84FF1F2098FF1F5097FF1F588DFF1F508DFF1F0096FF1F4492FF1F8D4A1A4492F84B10DC
:402940008C4AD1540133DBB200E000238A4A12789342F1D30F22894B1A6002205A2101F0E3F970E0824A1A4492F84B1082F841110133DBB200E000237F4A12789342F1D3DD
:4029800013227E4B1A600220392101F0CDF95AE0774A1A4492F84B1082F841110133DBB200E00023744A12789342F1D30F22734B1A6002205A2101F0B7F944E06C4A1A44DE
:4029C00092F84B106E4AD1540133DBB200E001236B4A12789A42F1D2694B5A78694B5B789A4221D1664B9A78664B9B789A421BD1634BDA78634BDB789A4215D1604B1A7947
:402A0000604B1B799A420FD10220262101F08CF94FF42F7004F01AFD0F22584B1A6002205A2101F081F90EE00220272101F07CF94FF42F7004F00AFD0022504B1A60022085
:402A4000012101F071F904F059FC52E204F028FC082840F04E824C4B1B78DBB2AA2B40F08180494B9B79DBB2C32B7BD1464BDB79DBB23C2B76D1444BDB78583B3C2B71D8A3
:402A8000DFE803F052703D7070707070707070707033707070707070707070707070707070707070707070707070617070701F70707070707070707070707070707070700A
:402AC00069000E222D4B1A600023304A1370304A13700522284B1A700122254B83F800210220062101F020F93CE01022234B1A60FDF794FD02206B2101F016F932E00E22DD
:402B00001E4B1A600023214A1370214A13700322194B1A700220174B1870154B83F80001062101F001F91DE01222144B1A600022164B1A7004220E4B83F8002102203E21F3
:402B400001F0F2F80EE00220012101F0EDF800220A4B1A6006E00220012101F0E5F80022064B1A600A2004F071FC04F0C7FBC0E1A890FF1F588DFF1FFA8BFF1FF093FF1F1D
:402B8000508DFF1F0C81FF1F2098FF1F4A92FF1F3192FF1F04F084FB082840F0AA81644B1B78DBB2AA2B43D1614B9B79DBB2C32B3ED15F4BDB79DBB23C2B39D15C4BDB78C8
:402BC000DBB2392B10D002D8382B05D030E07E2B1FD0942B25D02BE01122564B1A600220672101F0A1F823E00F22524B1A600120514B1870514D02242C70082104F0DEFD21
:402C00002878092104F0DAFD20465A2101F08CF80EE00220012101F087F80022454B1A6006E00220012101F07FF80022414B1A600A2004F00BFC04F061FB5AE104F030FB52
:402C4000082840F056813A4B1B78DBB2AA2B68D1374B9B79DBB2C32B63D1354BDB79DBB23C2B5ED1324BDB787E3B162B59D8DFE803F04958585858585858585858585858B8
:402C80000C2135585858585851000F22294B1A600224294B1C70294D2C702046082104F08DFD2878092104F089FD20465A2101F03BF836E00F221F4B1A6001201E4B1870BF
:402CC0001E4C2070082104F079FD2078092104F075FD02205A2101F027F822E00F22154B1A600020144B1870144C2070082104F065FD2078092104F061FD02205A2101F04D
:402D000013F80EE00220012101F00EF80022094B1A6006E00220012101F006F80022054B1A600A2004F092FB04F0E8FAE1E000BF2098FF1FF093FF1FB197FF1F4892FF1F94
:402D400001F002FC01283CD16B4F7978C1F30011303101260096002501954E2402940220C9B20D22082301F0C1F8797801F00F01009601950294022030310D22092301F0B9
:402D8000B5F800960195029402203A210D220A2301F0ACF839780909009601950294022030310D220B2301F0A1F8397801F00F01009601950294022030310D220C2301F001
:402DC00095F801F065FB01285DD14C4F3978C1F3011101260096002501954E240294022030311522082301F081F8397801F00F01009601950294022030311522092301F072
:402E000075F800960195029402202F2115220A2301F06CF87978C1F3001130310096019502940220C9B215220B2301F05FF8797801F00F01009601950294022030311522A7
:402E40000C2301F053F800960195029402202F2115220D2301F04AF8B97809090096019502940220303115220E2301F03FF8B97801F00F0100960195029402203031152253
:402E80000F2301F033F804F00BFA082831D11C4B1B78DBB2AA2B20D1194B9B79DBB2C32B1BD1174BDB79DBB23C2B16D1144BDB78DBB27E2B02D0942B08D00EE00022114B1F
:402EC0001A600220012100F02FFF06E000220D4B1A600220012100F027FF0A2004F0B6FA04F00CFA05E00123074A82F81932074A137005B0F0BD00BFB497FF1F3492FF1F99
:402F00002098FF1FF093FF1F9C84FF1FF88BFF1F08B562B6FDF7DCF8FDF71EFBFDF74AF90320002104F0B2FAFDF7DAFB04F0CEFAFEF7E6FD04F0CAFA03F01CFA04F0C6FAA4
:402F400002F030FDF0E700BF10B5044604F0B2FB204604F0D1FB3C2004F078FA04F076FB38B104F041FBC0F3071404F0A3FB204610BD002010BD00BF10B5464BFF221A7046
:402F800083F8122183F8242283F83623012454E0204604F0B1FB642004F058FA04F056FB38B13C4B1B78FF2B03D13A4B1C7004F081FB04F04BFB68B1364B1B78A34209D0B9
:402FC000344B93F81231FF2B04D1324B83F8124104F070FB04F03AFB90B12E4B1B78A3420ED02C4B93F81231A34209D0294B93F82432FF2B04D1274B83F8244204F05AFBAF
:4030000004F024FBB8B1234B1B78A34213D0214B93F81231A3420ED01E4B93F82432A34209D01C4B93F83633FF2B04D1194B83F8364304F03FFB0134E4B2102CA8D9154B7E
:403040001B78FF2B0ED0134A92F81221FF2A09D0104A92F82422FF2A04D00E4A92F83623FF2A0FD1FF2B04D00A4A92F81221FF2A0AD1FF2B0AD1074B93F81231FF2B07D0F5
:40308000012010BD042010BD022010BD012010BD002010BD9C84FF1FF0B585B004460E461546714F6B4638687968BA6807C3B989BA7B19809A70012310E0EA5C2C2A0BD1D2
:4030C00005E0EA1812F8012CEA54013BDBB2012BF7D830236B7003E00133DBB2062BECD9624B1B78072B4CD0E5238DF8013006F00F0363F01F038DF804305D4B1B7813F028
:40310000FF0F0DD000231AE0EA5C04A9194402F00F0262F01F0201F80A2C0133DBB200E00023032BF0D90CE0EA5C04A9194402F00F0262F01F0201F80A2C0133DBB2022B08
:40314000F2D9FB238DF80A3000230CE004AA1A4412F8102C02F00F029DF80B100A448DF80B200133DBB20A2BF0D99DF80B305B4203F00F0363F01F038DF80B30F0238DF897
:403180000C303A4B1B78072B39D1E3238DF8013006F00F0666F01F068DF8046000230AE0EA5C04A9194402F00F0262F01F0201F80A2C0133DBB2052BF2D9FB238DF80C30B7
:4031C00000230CE004AA1A4412F8102C02F00F029DF80D100A448DF80D200133DBB20C2BF0D99DF80D305B4203F00F0363F01F038DF80D30F0238DF80E300E2600E00C2631
:4032000004F058FA44F0200004F076FA642004F01DF904F01BFAF0B104F0E6F944F0D00398421AD104F046FA002507E004AB2B4413F8100C04F060FA0135EDB2B542F5D94C
:4032400004F038FA322004F001F92046FFF77CFE034620B904E0002302E0002300E00123184605B0F0BD00BFE48A00004792FF1FB093FF1F10B5044604F01CFA44F040000E
:4032800004F03AFAFA2004F0E1F804F01FF9B74B1B78072B00F0F28004F0D8F9212840F0ED80B34B1B78DBB2FF2B40F0AF81B04B9B78DBB2F82B40F0AB81AD4B93F820308A
:4032C000DBB2F02B40F0A681AA4B1B78A3426AD1A74B5B7A03F00F033133A64A82F8FF3001230CE003F10B02A1498A5CA249C91A02F00F02303281F8F1200133DBB2042BD0
:40330000F0D904229B4B83F8F1209C4B1B78DBB2012B06D1974B052283F8F120302283F8F62001230CE003F1100291498A5C9449C91A02F00F02303281F8E3200133DBB272
:40334000062BF0D906228B4B83F8E32001230CE003F1170286498A5C8949C91A02F00F02303281F8D5200133DBB2062BF0D97F4B1B78052B11D109E05A1E7E49881890F803
:40338000D5000B4483F8D500D3B200E00623012BF2D83022774B83F8D6200622754B83F8D520012010BD724B5B7A03F00F033133704A82F8113201230CE003F10B026C4912
:4033C0008A5C6D49C91A02F00F02303281F803220133DBB2042BF0D90422664B83F80322664B1B78DBB2012B06D1624B052283F80322302283F8082201230CE003F11002C6
:403400005B498A5C5E49C91A02F00F02303281F8F5210133DBB2062BF0D90622554B83F8F52101230CE003F1170251498A5C5449C91A02F00F02303281F8E7210133DBB2AC
:40344000062BF0D9494B1B78052B11D109E05A1E4849881890F8E7010B4483F8E701D3B200E00623012BF2D83022424B83F8E8210622404B83F8E721012010BD3B4B1B7841
:40348000072B40F0C98004F0E1F8272840F0C680374B1B78DBB2FF2B40F0C280344B9B78DBB2F82B40F0BE80314B93F82630DBB2F02B40F0B9802F4B1B78A3424BD12C4BEE
:4034C0005B7A03F00F0331332A4A82F8FF3001230CE003F10B0226498A5C2949C91A02F00F02303281F8F1200133DBB2062BF0D90622204B83F8F12001230CE003F11202D5
:403500001B498A5C1F49C91A02F00F02303281F8E3200133DBB2082BF0D90822154B83F8E32001230CE003F11C0211498A5C1549C91A02F00F02303281F8D5200133DBB219
:40354000072BF0D90B4B302283F8D620082283F8D520012010BD064B5B7A03F00F033133044A82F8113201231BE000BF4792FF1F4098FF1F9C84FF1FA184FF1FB093FF1F68
:40358000A384FF1FA584FF1F03F10B0227498A5C2749C91A02F00F02303281F803220133DBB2062BF0D90622224B83F8032201230CE003F112021D498A5C1F49C91A02F041
:4035C0000F02303281F8F5210133DBB2082BF0D90822184B83F8F52101230CE003F11C0212498A5C1449C91A02F00F02303281F8E7210133DBB2072BF0D90E4B302283F883
:40360000E821082283F8E721012010BD002010BD002010BD002010BD002010BD002010BD002010BD002010BD002010BD4098FF1FA384FF1F9C84FF1FA584FF1F30B10028B5
:4036400002DB831F062B01D90020704701207047002104E003F00F030B44D9B201300378FB2BF7D103F00F028818404200F00F0040F0E000704700BF2DE9F04186B0002348
:403680000193029303930493ADF81430012314E0D55C2C2D0FD1E41AE4B2032C06D924E2D51815F8015CD554013BDBB2012BF7D83023537005E00133DBB214789C42E7D27E
:4036C00000241578B14B1B789D4209D11AE0AF4D2D78ED1AF61A965D56550133DBB200E0002316789E42F2D8A84B1D78AB1BDBB203E03025D554013BDBB2002BF9D1A34B9D
:403700001B78137015460F460646FFF71DFC0638C0B201280AD846F0200003F0EDFF322003F094FE03F060FF804601E04FF0000803F0C0FF03F0BEFF46F0D003434540F03E
:40374000D681FF238DF80430E1238DF80530904B1B78B34240F022818E4A92F8633063F00F038DF80630F6238DF807307B1E03F00F0363F01F038DF80830F8238DF8093090
:4037800092F86460462E09D006231AE006AA1A44E92102F8141C0133DBB200E006237B4A127806329342F1DB1A4608E006A91144E02001F8140C0133DBB20132D2B20D2A03
:4037C000F4D9442E20D128781A460CE0295C06AF174401F00F0161F01F0107F8141C0138C0B20132D2B2297819448A42EEDB134608E006A91144E02001F8140C0133DBB263
:403800000132D2B20D2AF4D9562E40F099805F4A1278072A32D0604A1278511E8C420CDD2A7805E0A91811F8011CA954013AD2B2012AF7D830226A7061E08C425FDA111B7C
:403840000139C9B2012215E0164688182C5CAC542C78A0420CD105E0B118302068540132D2B200E001222978891B8A42F4DD46E00132D2B228789042E6D240E0012C1FD9F2
:40388000454A1078001BC0B2012215E0144681186E5CAE542E78B1420CD105E0A118302068540132D2B200E001222978091B8A42F4DD24E00132D2B229789142E6D21EE06C
:4038C000354A1178091BC9B2012215E010468C182E5DAE542E78B4420CD105E0811830246C540132D2B200E001222978091A8A42F4DD04E00132D2B228789042E6D22878F7
:403900001A460CE0295C06AC144401F00F0161F01F0104F8141C0138C0B20132D2B2297819448A42EEDB134608E006A91144E02001F8140C0133DBB20132D2B20D2AF4D93F
:4039400006AA1A44FB2102F8141C0133DCB201A8FFF77EFE06AB234403F8140C0134E5B206AB2B44F02203F8142C002407E006AB234413F8140C03F0BFFE0134E4B2AC42F3
:40398000F5D9322003F062FD0120B3E04792FF1F9C84FF1FFC8BFF1F908DFF1F574B93F81231B34240F0A580554A92F8633063F00F038DF80630F6238DF807307B1E03F0D5
:4039C0000F0363F01F038DF80830F8238DF8093092F86440462C09D006231AE006AA1A44E92102F8141C0133DBB200E00623454A127806329342F1DB1A4608E006A91144C4
:403A0000E02001F8140C0133DBB20132D2B20D2AF4D9442C20D128781A460CE0295C06AE164401F00F0161F01F0106F8141C0138C0B20132D2B2297819448A42EEDB134623
:403A400008E006A91144E02001F8140C0133DBB20132D2B20D2AF4D9562C20D128781A460CE0295C06AC144401F00F0161F01F0104F8141C0138C0B20132D2B229781944D9
:403A80008A42EEDB134608E006A91144E02001F8140C0133DBB20132D2B20D2AF4D906AA1A44FB2102F8141C0133DCB201A8FFF7CFFD06AB234403F8140C0134E5B206AB66
:403AC0002B44F02203F8142C002407E006AB234413F8140C03F010FE0134E4B2AC42F5D9322003F0B3FC012004E0002002E0002000E0002006B0BDE8F08100BF9C84FF1F50
:403B0000A890FF1F4792FF1FF0B585B000AF0446FFF71AFA06280AD144F0200003F0ECFD322003F093FC03F05FFD054600E0002503F0C0FD44F0D004AC4222D1FF233B7148
:403B4000E9237B71FE23BB71EE23FB71E0233B727B72FB23BB72381DFFF77AFDF872F0233B73002408E007F11003234413F80C0C03F0C2FD0134E4B2082CF4D9C82003F0B4
:403B800065FC03F063FDC6B2F31D23F00703ADEB030D6D46002404E003F026FD28550134E4B2B442F8D903F085FDAB7A03F00F03264A13702B7B03F00F03254A1370012BC9
:403BC0000AD1244A47211170612151706C2191702021D17011715171022B0CD11D4B55221A706B225A7020229A704722DA7061221A716C225A71AB7B03F00F03013B164A05
:403C000013702B7C03F00F03012B01D0042B02D10321124A1170032B00D013B902210F4A1170022B02D101220C4B1A70AB7C03F00F03013B0A4A13702B7D03F00F03094A4B
:403C4000137000201437BD46F0BD00BF8F8DFF1F9897FF1FF893FF1FF491FF1F908DFF1F9697FF1FB097FF1FF0B585B000AF0446FFF76AF90638C0B201280AD844F02000EE
:403C800003F03AFD322003F0E1FB03F0ADFC054600E0002503F00EFD44F0D004AC4222D1FF233B71E9237B71FE23BB71E023FB71E1223A727B72FB23BB72381DFFF7C8FC6E
:403CC000F872F0233B73002408E007F11003234413F80C0C03F010FD0134E4B2082CF4D9962003F0B3FB03F0B1FCC5B2EB1D23F00703ADEB030D6E46002404E003F074FCD2
:403D000030550134E4B2AC42F8D903F0D3FC337B03F00F03012B03D1B07B00F00F0000E000201437BD46F0BD30B583B005460A4610496B460868496803C3130A8DF8023062
:403D40008DF80320002410E0012D06D102AB234413F8080C03F0FCF905E002AB234413F8080C03F0EDFA0134E4B2072CECD903B030BD00BFF48A00002DE9F04387B005460A
:403D80008C4616461C469DF83870BDF83CE00DF10408DFF8A89059F8080FD9F80410D9F80820D9F80C30A8E80F00B9F81030A8F800307A1C02FB04F303EB43039B001B1213
:403DC0008DF8063004FB02F404EB4404A3008DF80730C6EBC6035B001B128DF80830C6EBC60673008DF8093020378DF80A709DF84030592B02D185238DF80B304FEA1E237C
:403E00008DF80D308DF80EE08DF811C0002410E0012D06D106AB234413F8140C03F098F905E006AB234413F8140C03F089FA0134E4B2112CECD907B0BDE8F083F48A00005F
:403E400070B584B005460E466B46134C54F81C0F6168A26807C3A2891A808DF807608DF80960002410E0012D06D104AB234413F8100C03F06DF905E004AB234413F8100CB6
:403E800003F05EFA0134E4B20D2CECD9642003F0DDFA04B070BD00BFF48A0000F0B585B007460E46154600240DE0315D01230093002301934E23029338461F222B19FFF7A0
:403EC0005BFF0134E4B2092CEFD905B0F0BD00BF054B04E0824201D15878704702331A78002AF7D1002070472081FF1F2DE9F04387B005468C4616461C469DF83870BDF892
:403F00003CE00DF10408DFF8A89059F82C0FD9F80410D9F80820D9F80C30A8E80F00B9F81030A8F800307A1C02FB04F303EB43039B001B128DF8063004FB02F404EB440408
:403F4000A3008DF80730C6EBC6035B001B128DF80830C6EBC60673008DF8093023378DF80A709DF84030592B02D185238DF80B304FEA1E238DF80D308DF80EE08DF811C053
:403F8000002410E0012D06D106AB234413F8140C03F0DEF805E006AB234413F8140C03F0CFF90134E4B2112CECD907B0BDE8F083F48A000030B585B00D461446012840F0BF
:403FC000108103F075F8082840F02F82A84B1B78DBB2AA2B40F0FE80A54B9B79DBB2C32B40F0F880A24BDB79DBB23C2B40F0F280A04B1B78DBB2013DAB4200F39F809C4BFC
:40400000D878FFF765FF0546A0F12003DBB20B2B2AD8984A13780133DBB213701378964A134483F84B008CB9924B1A781B7892490A4492F84B1001200090002201924E22AE
:40404000029203220233FFF751FF78E0894B1B7801200090002201924E220292214603220233FFF743FF6AE0A0F12D03DBB2512B2AD8804A13780133DBB2137013787E4AE8
:40408000134483F84B008CB97A4B1A781B787A490A4492F84B1001200090002201924E22029203220233FFF721FF48E0714B1B7801200090002201924E2202922146032277
:4040C0000233FFF713FF3AE02C2838D1694B1B7813F0FF0F33D0694B1B7813F0FF0F2ED1644A13780133DBB213700121634B19701378614A134483F84B008CB95D4B1A78B2
:404100001B785D490A4492F84B1001200090002201924E22029203220233FFF7E7FE0EE0544B1B7801200090002201924E220292214603220233FFF7D9FE00E000254C4BC0
:40414000DB78DBB20B2B26D14A4B1B7803F0FF042BB9142003F07AF902F0D8FF68E1454C237801200090002201924E220292202103220233FFF7BAFE23783F4A134493F89F
:404180004B302C2B02D100223C4B1A70394A1378013BDBB213700A2D10D1364B1B7813F0FF0F0BD0334B1A78334B83F84B20142003F04CF902F0AAFF012439E12C4BDB7831
:4041C000DBB2942B06D1142003F040F902F09EFF00242DE1142003F039F902F097FF022426E103F05DF8082840F02181244B1B78DBB2AA2B40F01281214B9B79DBB2C32B01
:4042000040F00C811E4BDB79DBB23C2B40F006811C4B1B78DBB2013DAB4200F3B580184BD878FFF755FE0546A0F12003DBB20B2B3BD8144A13780133DBB213701378124A9A
:40424000134483F84B000CBB0E4B1A781B780E490A4492F84B1001220092002201924E220292022003220344FFF740FE8DE000BF0098FF1F4A92FF1FFC8BFF1FF793FF1FF9
:404280002098FF1F9797FF1FA890FF1F6A4B1B7801220092002201924E2202920220214602460344FFF722FE6FE0A0F12D03DBB2512B2CD8604A13780133DBB21370137881
:4042C0005E4A134483F84B0094B95B4B1A781B785A490A4492F84B1001220092002201924E220292022003220344FFF7FFFD4CE0514B1B7801220092002201924E22029254
:404300000220214602460344FFF7F0FD3DE02C283BD1494B1B7813F0FF0F36D0484B1B7813F0FF0F31D1444A13780133DBB213700121434B19701378424AD2783F490B44C0
:4043400083F84B208CB93C4B1A781B780A4492F84B1001220092002201924E220292022003220344FFF7C2FD0FE0334B1B7801220092002201924E22029202202146024643
:404380000344FFF7B3FD00E000250B2D27D12A4B1B7803F0FF042BB9142003F057F802F0ADFF45E0244C237801220092002201924E2202920220202102460344FFF796FDCC
:4043C00023781E4A134493F84B302C2B02D100221B4B1A70184A1378013BDBB213700A2D10D1154B1B7813F0FF0F0BD0124B1A78124B83F84B20142003F028F802F07EFF09
:40440000012415E00F4BDB78DBB2942B06D1142003F01CF802F072FF002409E0142003F015F802F06BFF022402E0022400E00224204605B030BD00BF9797FF1FA890FF1FBA
:40444000E488FF1F2098FF1F10B582B08DF804008DF8051003F09EFC0720002103F0E6FB58B1002011E002AB234413F8040C03F039FC48B90134E4B200E00024012CF2D9E0
:4044800003F014FC012000E0002002B010BD00BF38B504241DE003F07DFC6820002103F0C5FBD0B9204603F01DFCC0B903F0FEFB0A2002F0CBFF6820012103F0B7FB80B9F2
:4044C000251F03F03BFC084B585503F0EFFB0134E4B2062CDFD9012038BD002038BD002038BD002038BD00BF3492FF1F10B582B004238DF80430134B1A788DF805205A7881
:404500008DF806209B788DF8073003F043FC6820002103F08BFB58B1002011E002AB234413F8040C03F0DEFB48B90134E4B200E00024032CF2D903F0B9FB012000E0002006
:4045400002B010BDA097FF1F38B501241DE003F021FC6820002103F069FBD0B9204603F0C1FBC0B903F0A2FB0A2002F06FFF6820012103F05BFB80B9651E03F0DFFB084B48
:40458000585503F093FB0134E4B2022CDFD9012038BD002038BD002038BD002038BD00BFB497FF1F10B582B001238DF80430124B1A788DF805205B788DF8063003F0EAFBCC
:4045C0006820002103F032FB58B1002011E002AB234413F8040C03F085FB48B90134E4B200E00024022CF2D903F060FB012000E0002002B010BD00BFF493FF1F38B50446E4
:404600000E2900F2DA80DFE801F01221303F4ED85D6C7B8998A7B6C5D400704B2B44204693F88014FFF710FF0135ADB200E00025B5F56C7FF1D3C0E0684B2B44204693F8C2
:404640003018FFF701FF0135ADB200E00025B5F56C7FF1D3B1E0614B2B44204693F8E01BFFF7F2FE0135ADB200E00025B5F56C7FF1D3A2E0594B2B44204693F8901FFFF76D
:40468000E3FE0135ADB200E00025B5F56C7FF1D393E0534B2B44204693F84812FFF7D4FE0135ADB200E00025B5F56C7FF1D384E04B4B2B44204693F8F815FFF7C5FE01354A
:4046C000ADB200E00025B5F56C7FF1D375E0444B2B44204693F8A819FFF7B6FE0135ADB200E00025B5F56C7FF1D366E03C4B2B44204693F8581DFFF7A7FE0135ADB200E0A9
:404700000025B5F56C7FF1D357E0364B2B442046197CFFF799FE0135ADB200E00025B5F56C7FF2D349E02F4B2B44204693F8C013FFF78AFE0135ADB200E00025B5F56C7FD5
:40474000F1D33AE0274B2B44204693F87017FFF77BFE0135ADB200E00025B5F56C7FF1D32BE0204B2B44204693F8201BFFF76CFE0135ADB200E00025B5F56C7FF1D31CE040
:40478000184B2B44204693F8D01EFFF75DFE0135ADB200E00025B5F56C7FF1D30DE0124B2B44204693F88811FFF74EFE0135ADB200E00025B5F56C7FF1D320461B21FFF7F4
:4047C00043FE20464021FFF73FFE20460A21FFF73BFE20460A21FFF737FE38BD14CF00000CE0000004F10000FC010100F8B504460E46C04B1B78012B04D1BF4B18780021A6
:40480000FFF7FCFE20460A21FFF71EFE002506E02046BA4B595DFFF717FE0135EDB21D2DF6D920460A21FFF70FFE002506E02046B34B595DFFF708FE0135EDB21D2DF6D91D
:4048400020460A21FFF700FE002506E02046AD4B595DFFF7F9FD0135EDB21D2DF6D920460A21FFF7F1FD002506E02046A64B595DFFF7EAFD0135EDB21D2DF6D920460A21D1
:40488000FFF7E2FD002506E02046A04B595DFFF7DBFD0135EDB21D2DF6D920460A21FFF7D3FD002508E0994B2B44204693F82010FFF7CAFD0135EDB20C2DF4D9FFF7E8FD0A
:4048C000012832D1924D2978C1F3011120463031FFF7BAFD297801F00F0120463031FFF7B3FD20462F21FFF7AFFD6978C1F3001130312046C9B2FFF7A7FD697801F00F0107
:4049000020463031FFF7A0FD20462F21FFF79CFDA978090920463031FFF796FDA97801F00F0120463031FFF78FFD20460A21FFF78BFD002508E0754B2B44204693F830106E
:40494000FFF782FD0135EDB20C2DF4D9FFF7FCFD012820D16F4D6978C1F3001130312046C9B2FFF771FD697801F00F0120463031FFF76AFD20463A21FFF766FD2978090903
:4049800020463031FFF760FD297801F00F0120463031FFF759FD20460A21FFF755FD002506E02046594B595DFFF74EFD0135EDB21D2DF6D920460A21FFF746FD002508E07E
:4049C000524B2B44204693F84010FFF73DFD0135EDB20C2DF4D9504DA5FB0635ED08204605F13001FFF730FD05EB85056D00751B05F130012046C9B2FFF726FD20460A2119
:404A0000FFF722FD002508E0404B2B44204693F85010FFF719FD0135EDB20C2DF4D93F4B1B78B3420DD109E03C4B2B44204693F80811FFF709FD0135EDB200E00025092D3D
:404A4000F2D9364B93F81231B3420DD109E0334B2B44204693F81A12FFF7F6FC0135EDB200E00025092DF2D92C4B93F82432B3420DD109E0294B2B44204693F82C13FFF776
:404A8000E3FC0135EDB200E00025092DF2D9234B93F83633B3420DD109E0204B2B44204693F83E14FFF7D0FC0135EDB200E00025092DF2D920460A21FFF7C6FC174B1B7826
:404AC000B34240F034830025154B83F8345108E00E4B2B44204693F86010FFF7B5FC0135EDB20C2DF4D920460A21FFF7ADFC002521E000BF3792FF1FB197FF1FF891FF1FB9
:404B00007897FF1F708DFF1F7C84FF1F7481FF1F3492FF1FB497FF1FCDCCCCCC9C84FF1FFC8BFF1FBE4B2B44204693F87010FFF78BFC0135EDB20C2DF4D9BA4B1B78062B91
:404B400023D9B94B93F8F330302B03D10022B64B83F8F320022508E0B34B2B44204693F8F110FFF771FC0135EDB2AF4B93F8F130AB42F1D20FE0AC4B2B44204693F8F11064
:404B8000FFF762FC0135EDB200E00125A64B93F8F130AB42EFD220462021FFF755FC20469F4B93F88010FFF74FFC20462F21FFF74BFC002506E020469C4B595DFFF744FCAA
:404BC0000135EDB2042DF6D920460A21FFF73CFC002508E0924B2B44204693F88410FFF733FC0135EDB20C2DF4D98F4B93F8E430302B03D100228C4B83F8E4208A4B93F8C3
:404C0000E43043B9884B93F8E530302B03D10022854B83F8E520844B93F8E37013E0824A92F8E330DB1B1344204693F8E310FFF70BFC7F4B1B789F4203D120462E21FFF75C
:404C400003FC013FFFB2002FE9D120462021FFF7FBFB3D4606E02046744B595DFFF7F4FB0135EDB2042DF6D920460A21FFF7ECFB3D4608E06A4B2B44204693F89410FFF742
:404C8000E3FB0135EDB20C2DF4D9674B93F8D630302B03D10022644B83F8D620624B93F8D63043B9604B93F8D730302B03D100225D4B83F8D720012510E05B4B2B44204614
:404CC00093F8D510FFF7C0FB5A4B1B789D4203D120462E21FFF7B8FB0135EDB2524B93F8D530AB42E9D220462021FFF7ADFB20464B4B93F88010FFF7A7FB20460A21FFF725
:404D0000A3FB4D4B93F86130012B42D109E0444B2B44204693F8A410FFF796FB0135EDB200E03D460C2DF2D9012508E0424B2B44204693F8DF10FFF787FB0135EDB23E4BD3
:404D400093F8DF30AB42F1D220460A21FFF77CFB3D4608E0324B2B44204693F8B410FFF773FB0135EDB20C2DF4D9012508E0324B2B44204693F86510FFF766FB0135EDB214
:404D80002D4B93F86530AB42F1D220460A21FFF75BFB3D4606E02046214B595DFFF754FB0135EDB21D2DF6D920460A21FFF74CFB214B93F86130022B40F0B98109E0184B71
:404DC0002B44204693F8C410FFF73EFB0135EDB200E03D460C2DF2D9012508E0164B2B44204693F8EA10FFF72FFB0135EDB2124B93F8EA30AB42F1D220460A21FFF724FBFE
:404E00003D4608E0064B2B44204693F8D410FFF71BFB0135EDB20C2DF4D9012516E000BF7481FF1F4792FF1F9C84FF1FF893FF1F908DFF1FF491FF1FFC8BFF1FC44B2B44BE
:404E400020465978FFF700FB0135EDB2C04B5B78AB42F3D220460A21FFF7F6FA3D4608E0BC4B2B44204693F8A410FFF7EDFA0135EDB20C2DF4D9012508E0B54B2B4420460D
:404E800093F8F510FFF7E0FA0135EDB2B04B93F8F530AB42F1D220460A21FFF7D5FA3D4608E0AC4B2B44204693F8E410FFF7CCFA0135EDB20C2DF4D9012301E00133DBB2F9
:404EC000A34A92F8F5209A42F8D220460A21FFF7BBFA3D4608E09F4B2B44204693F8F410FFF7B2FA0135EDB20C2DF4D9012301E00133DBB2964A92F8F5209A42F8D22046BD
:404F00000A21FFF7A1FA3D4608E0924B2B44204693F80411FFF798FA0135EDB20C2DF4D9012301E00133DBB2894A92F8F5209A42F8D220460A21FFF787FA3D4608E0854B74
:404F40002B44204693F81411FFF77EFA0135EDB20C2DF4D9012301E00133DBB27C4A92F8F5209A42F8D220460A21FFF76DFA3D4608E0784B2B44204693F82411FFF764FA8D
:404F80000135EDB20C2DF4D9012301E00133DBB26F4A92F8F5209A42F8D220460A21FFF753FA3D4608E06B4B2B44204693F83411FFF74AFA0135EDB20C2DF4D9012301E09E
:404FC0000133DBB2624A92F8F5209A42F8D220460A21FFF739FA3D4608E05E4B2B44204693F84411FFF730FA0135EDB20C2DF4D9012301E00133DBB2554A92F8F5209A42A1
:40500000F8D220460A21FFF71FFA3D4608E0514B2B44204693F85411FFF716FA0135EDB20C2DF4D9012301E00133DBB2484A92F8F5209A42F8D220460A21FFF705FA3D46B3
:4050400008E0444B2B44204693F86411FFF7FCF90135EDB20C2DF4D9012301E00133DBB23B4A92F8F5209A42F8D220460A21FFF7EBF93D4608E0374B2B44204693F8741151
:40508000FFF7E2F90135EDB20C2DF4D9012301E00133DBB22E4A92F8F5209A42F8D220460A21FFF7D1F920460A21FFF7CDF93D4608E0284B2B44204693F88411FFF7C4F99D
:4050C0000135EDB20C2DF4D920460A21FFF7BCF920460A21FFF7B8F920460A21FFF7B4F93D4608E01B4B2B44204693F89411FFF7ABF90135EDB20C2DF4D920460A21FFF75B
:40510000A3F920460A21FFF79FF920460A21FFF79BF906E020460F4BD95DFFF795F90137FFB21D2FF6D920460A21FFF78DF90A4B93F81231B34240F0FE820FE0054B2B44B2
:40514000204693F86010FFF77FF90135EDB206E0FC8BFF1F7481FF1F9C84FF1F00250C2DECD920460A21FFF76FF9002508E0BE4B2B44204693F87010FFF766F90135EDB27D
:405180000C2DF4D9012508E0B84B2B44204693F80312FFF759F90135EDB2B44B93F80332AB42F1D220462021FFF74EF92046AE4B93F88010FFF748F920462F21FFF744F959
:4051C000002506E02046AA4B595DFFF73DF90135EDB2042DF6D920460A21FFF735F9002508E0A14B2B44204693F88410FFF72CF90135EDB20C2DF4D99C4B93F8F631302B06
:4052000003D10022994B83F8F621984B93F8F63143B9964B93F8F731302B03D10022934B83F8F721012510E0904B2B44204693F8F511FFF709F98F4B1B789D4203D1204646
:405240002E21FFF701F90135EDB2884B93F8F531AB42E9D220462021FFF7F6F8002506E02046834B595DFFF7EFF80135EDB2042DF6D920460A21FFF7E7F8002508E07A4B84
:405280002B44204693F89410FFF7DEF80135EDB20C2DF4D9754B93F8E831302B03D10022724B83F8E821714B93F8E83143B96F4B93F8E931302B03D100226C4B83F8E92105
:4052C000012510E0694B2B44204693F8E711FFF7BBF8694B1B789D4203D120462E21FFF7B3F80135EDB2614B93F8E731AB42E9D220462021FFF7A8F820465B4B93F8801063
:40530000FFF7A2F820460A21FFF79EF85B4B93F86130012B42D109E0534B2B44204693F8A410FFF791F80135EDB200E000250C2DF2D9012508E0514B2B44204693F8DF10CE
:40534000FFF782F80135EDB24C4B93F8DF30AB42F1D220460A21FFF777F8002508E0424B2B44204693F8B410FFF76EF80135EDB20C2DF4D9012508E0404B2B44204693F823
:405380006510FFF761F80135EDB23C4B93F86530AB42F1D220460A21FFF756F8002506E02046314B595DFFF74FF80135EDB21D2DF6D920460A21FFF747F8304B93F86130FD
:4053C000022B40F0B88109E0274B2B44204693F8C410FFF739F80135EDB200E000250C2DF2D9012508E0254B2B44204693F8EA10FFF72AF80135EDB2204B93F8EA30AB42C1
:40540000F1D220460A21FFF71FF8002508E0164B2B44204693F8D410FFF716F80135EDB20C2DF4D9012507E0144B2B4420465978FFF70AF80135EDB2104B5B78AB42F3D2BB
:4054400020460A21FFF700F8002508E0064B2B44204693F8A410FEF7F7FF0135EDB20C2DF4D9012515E000BF7481FF1F9C84FF1FF893FF1F908DFF1FF491FF1FA890FF1F6D
:40548000BD4B2B44204693F8F510FEF7DDFF0135EDB2B94B93F8F530AB42F1D220460A21FEF7D2FF002508E0B44B2B44204693F8E410FEF7C9FF0135EDB20C2DF4D9012302
:4054C00001E00133DBB2AC4A92F8F5209A42F8D220460A21FEF7B8FF002508E0A74B2B44204693F8F410FEF7AFFF0135EDB20C2DF4D9012301E00133DBB29F4A92F8F52063
:405500009A42F8D220460A21FEF79EFF002508E09A4B2B44204693F80411FEF795FF0135EDB20C2DF4D9012301E00133DBB2924A92F8F5209A42F8D220460A21FEF784FFE7
:40554000002508E08D4B2B44204693F81411FEF77BFF0135EDB20C2DF4D9012301E00133DBB2854A92F8F5209A42F8D220460A21FEF76AFF002508E0804B2B44204693F876
:405580002411FEF761FF0135EDB20C2DF4D9012301E00133DBB2784A92F8F5209A42F8D220460A21FEF750FF002508E0734B2B44204693F83411FEF747FF0135EDB20C2D2B
:4055C000F4D9012301E00133DBB26B4A92F8F5209A42F8D220460A21FEF736FF002508E0664B2B44204693F84411FEF72DFF0135EDB20C2DF4D9012301E00133DBB25E4A86
:4056000092F8F5209A42F8D220460A21FEF71CFF002508E0594B2B44204693F85411FEF713FF0135EDB20C2DF4D9012301E00133DBB2514A92F8F5209A42F8D220460A21F5
:40564000FEF702FF002508E04C4B2B44204693F86411FEF7F9FE0135EDB20C2DF4D9012301E00133DBB2444A92F8F5209A42F8D220460A21FEF7E8FE002508E03F4B2B44E9
:40568000204693F87411FEF7DFFE0135EDB20C2DF4D9012301E00133DBB2374A92F8F5209A42F8D220460A21FEF7CEFE20460A21FEF7CAFE002508E0304B2B44204693F8B3
:4056C0008411FEF7C1FE0135EDB20C2DF4D920460A21FEF7B9FE20460A21FEF7B5FE20460A21FEF7B1FE002508E0244B2B44204693F89411FEF7A8FE0135EDB20C2DF4D9E4
:4057000020460A21FEF7A0FE20460A21FEF79CFE20460A21FEF798FE002506E02046174B595DFEF791FE0135EDB21D2DF6D920460A21FEF789FE20460A21FEF785FE204692
:405740000A21FEF781FE20460A21FEF77DFE20460A21FEF779FE20460A21FEF775FE20461D21FEF771FE20465621FEF76DFE20463121FEF769FEF8BDA890FF1F7481FF1F1C
:4057800010B501281CD1002002F036FC4FF4FA7001F072FE012002F02FFC052001F06CFE02F036FC034658B3412001F065FE02F02FFC0446F02001F05FFEF4B901231FE03C
:4057C000002002F02DFC4FF4FA7001F055FE012002F026FC052001F04FFE02F02DFC034670B1412001F048FE02F026FC0446F02001F042FE1CB9012302E0002300E0002328
:40580000184610BD38B50D4601282DD000245AE0002002F0F1FB0A2001F02EFE45FA04F313F0010F0AD0012002F0E6FB0A2001F023FE02F0EDFB034650B94BE0002002F078
:40584000DBFB0A2001F018FE02F0E2FB00283ED1322001F011FE012002F0CEFB322001F00BFE0134E4B200E00024072CD0D9012330E0002002F0D4FB0A2001F0FDFD45FA8D
:4058800004F313F0010F0AD0012002F0C9FB0A2001F0F2FD02F0D0FB034648B91AE0002002F0BEFB0A2001F0E7FD02F0C5FB80B9322001F0E1FD012002F0B2FB322001F049
:4058C000DBFD0134E4B2072CD3D9012302E0002300E00023184638BD38B5012819D000252C4631E0002002F087FB0E2001F0C4FD012002F081FB072001F0BEFD02F088FBB5
:40590000A0400543EDB2642001F0B6FD0134E4B201E000252C46072CE4D917E0002002F07FFB0E2001F0A8FD012002F079FB072001F0A2FD02F080FBA0400543EDB2642008
:4059400001F09AFD0134E4B2072CE7D9284638BD4840002308E010F0010F03D0400880F08C0000E040080133072BF4D9704700BF30B5C1B005460C46684609494FF48072CB
:4059800002F0B4FF0023184605E0EA5C50401DF8000001339BB2621E9342F6DB41B030BD980E01008F4BD3E90023002B08BF102AC0F0808270B58C4B93F80431092B7FD1EE
:4059C000894B93F80731012B7AD1884B28221A70BC225A70CB229A70C822DA70844A1178197152785A71804A11789971AA21D9710121197292F800215A727E4991F8632040
:405A000002F003029A7291F86540A3B208E0E11A784A1A4492F86500774A5054013B9BB2002BF4D10B220CE0A2F10B017248415CC9B26E48815411B930206C49885401321D
:405A400092B2122AF0D90021684AD174694A92F8342152B119E003F114022020634988540021654AD15401339BB2072BF3D90EE003F11400591C5F4A0A4492F8DF405B4A41
:405A8000145400205C4AD0548BB2072BF0D91C2304E03021554AD15401339BB2262BF8D9524C20462821FFF763FF84F827004E4A012382F80331002182F807114F4A137000
:405AC000494B93F804310A3BDBB2012B00F2CE80454B93F80731012B40F0C880434B20221A70BC225A70CB229A70C822DA70404A1178197152785A713B4A11789971A421E1
:405B0000D9710221197292F800110139597292F8F140A3B208E0E11A334A1A4492F8F100374A5054013B9BB2002BF4D10A230CE0A3F10A0232498A5CD2B22C49CA5412B9EA
:405B400030212A4AD15401339BB20E2BF0D92D4B1B78053BDBB2012B0CD901231BE003F10E01294AD21A92F8E300204A505401339BB200E001231C4A92F8E3209A42EED2BF
:405B80000EE003F10E01214AD21A92F8E300174A505401339BB2144A92F8E3209A42F0D2124B5B7D1BB9114B30225A759A75154B1B78053BDBB2012B0CD9012332E003F191
:405BC0001601114AD21A92F8D500084A505401339BB200E00123044A92F8D5209A42EED225E000BF688DFF1F9C84FF1FF08AFF1F4492FF1FFC8BFF1FA090FF1FFC97FF1FBF
:405C0000E88AFF1F4792FF1FA384FF1FA584FF1F03F11601A84AD21A92F8D500A74A505401339BB2A64A92F8D5209A42F0D2A34B5B7F1BB9A14B30225A779A779F4C2046D9
:405C40002021FFF795FEE0779D4B062283F80421082283F8032100229A4981F8352183F807210123984A1370984A1370984B1B78DBB2012B51D1924B93F80731012B4CD1EB
:405C8000944BBC221A70CB225A70C8229A70924A1178D97052781A71894A12785A71E3229A710522DA71874B93F8364108E0E21D844B234493F83611864B9954013CA4B231
:405CC000002CF4D101220BE002F1120101339B1A7C48034493F841017E4B5854013292B2784B93F8413199B29142EDD2794D28462121FFF73DFE85F8200005E0754B185DF7
:405D000002F08CFA0134A4B2202CF7D96C4B082283F80321002283F80721694B93F805316BB1674B93F8061103EBC1021878B532FDF7B2F918B10022614B83F80521604B70
:405D400093F80731012B40F0AF805F4B1B78DBB2012B40F0A98000225B4B1A705F4BBC221A70CB225A70C8229A705B4A1178D97052781A71524A11785971E821997192F81F
:405D80000321DA710121092470E0544B19550134A4B2534B1B78053BDBB2012B12D90C224CE04B1E03EB4303C3EB03131344444803445B78303B494803550134A4B2013A56
:405DC00092B200E00822002AEBD106E03020434B18550134A4B2013292B2032AF6D908220FE04B1E03EB4303C3EB03133448034413441B7C303B394803550134A4B2013A0B
:405E000092B2002AEDD106E03020344B18550134A4B2013292B2032AF6D925E04B1E03EB4303C3EB03131344254803445B78303B2A4803550134A4B2013A92B2002AEDD1AB
:405E40000C220FE04B1E03EB4303C3EB03131C48034413441B7C303B204803550134A4B2013A92B2002AEDD1013189B2144B93F802318B4289D2194EA4F109033372651C0E
:405E8000ADB230462946FFF773FD3055002405E0124B185D02F0C2F90134A4B2AC42F7D30022074B83F80721002000210D4BC3E9000170BD704700BFA584FF1FF08AFF1F09
:405EC0009C84FF1FFC8BFF1F488DFF1FFC97FF1FF88BFF1FB493FF1F4492FF1FE888FF1F4792FF1F688DFF1F70B59D4B93F81632092B40F08A809A4B93F81932012B40F024
:405F00008480984BBC221A70CB225A70C8229A70954A1178D97052781A71914A92F812115971AA2199710121D97192F812221A728E4991F8632002F003025A7291F86500F0
:405F400084B208E0021B894B234493F86510884B9954013CA4B2002CF4D10A230CE0A3F10A0283498A5CD2B27E49CA5412B930217C4AD15401339BB2112BF0D90022794B20
:405F80009A747A4B93F8343163B123461BE003F113022020734988540021754AD15401339BB200E02346072BF1D90EE003F11300591C6E4A0A4492F8DF506A4A1554002094
:405FC0006B4AD0548BB2072BF0D91B2304E03021644AD15401339BB2252BF8D9614D28462721FFF7C5FC85F8260005E05D4B185D02F014F90134A4B2272CF7D9584B012275
:4060000083F81522002283F81922584B93F80331012B40F0D180524B93F81932012B40F0CB80544BBC221A70CB225A70C8229A704D4A1178D97052781A71494A92F81211FD
:406040005971A42199710221D97192F81212197292F8030284B208E0021B414B234493F80312454B9954013CA4B2002CF4D109230CE0A3F1090240498A5CD2B23D49CA5435
:4060800012B930213B4AD15401339BB20D2BF0D93A4B1B78053BDBB2012B0CD901231BE003F10D01364AD21A92F8F501314A505401339BB200E00123294A92F8F5219A4202
:4060C000EED20EE003F10D012E4AD21A92F8F501284A505401339BB2214A92F8F5219A42F0D2244B1B7D1BB9224B30221A755A75224B1B78053BDBB2012B0CD901231BE0D7
:4061000003F115011E4AD21A92F8E701194A505401339BB200E00123114A92F8E7219A42EED20EE003F11501164AD21A92F8E701104A505401339BB2094A92F8E7219A4284
:40614000F0D20C4B1B7F1BB90A4B30221A775A77084D28461F21FFF70BFCA8771AE000BF9C84FF1F2084FF1F4492FF1FA890FF1FA090FF1FB897FF1FE88AFF1F4792FF1F2B
:40618000A384FF1FA584FF1F734B185D02F046F80134A4B21E2CF7D9704B062283F80421082283F8152200226D4981F8352183F8192202226B4B1A70684B93F817327BB178
:4061C000664B93F8181203EBC10293F8120102F2C712FCF761FF18B10022604B83F817225E4B93F81932012B40F0B4805D4B1B78DBB2022B40F0AE8000225A4B1A705A4B28
:40620000BC221A70CB225A70C8229A70574A1178D97052781A71514A92F812115971E821997192F81522DA710121092474E04E4B19550134A4B24E4B1B78053BDBB2012BF8
:4062400013D90C224FE04B1E03EB4303C3EB031342480344134493F81331303B424803550134A4B2013A92B200E00822002AEAD106E030203C4B18550134A4B2013292B20B
:40628000032AF6D9082210E04B1E03EB4303C3EB031332480344134493F82231303B324803550134A4B2013A92B2002AECD106E030202D4B18550134A4B2013292B2032AF9
:4062C000F6D927E04B1E03EB4303C3EB031323480344134493F81331303B234803550134A4B2013A92B2002AECD10C2210E04B1E03EB4303C3EB031318480344134493F868
:406300002231303B184803550134A4B2013A92B2002AECD1013189B2104B93F814328B4285D2114EA4F109033372651CADB230462946FFF71DFB3055002405E00A4B185D69
:4063400001F06CFF0134A4B2AC42F7D30022034B83F8192270BD00BFB897FF1F9C84FF1FA890FF1F488DFF1FE888FF1F4492FF1F4792FF1F70B5322001F068F801F0F8FE50
:40638000002800F0488401229C4B1A7000249C4B1C7005E001F0BAFE9A4B18550134A4B201F0E6FE0028F5D1974BBC221A70CB225A70C8229A70954A1178D97052781A71A5
:4063C000904B1B78BC2B40F024848E4B5B78BB2B40F01F848B4B9B78B82B40F01A848B4B1B78884AD2789A4240F01384874B5B78844A12799A4240F00C84824B9B79A13BF2
:40640000432B00F20684DFE813F0440004040404040409015701140204046702040404040404040404040404040404040404040404040404040404040404040404040404D3
:40644000040404040404040404040404040404040404040404040404040404040404040404040404040404040404040404040404040404040404040404040404040404041C
:4064800004040404040404040404ED0289030404B6035C4B5A795E4B1B789A422ED15D4A127812F0FF0F1FD1574C6371A123A371574B93F80331E37120460921FFF758FADA
:4064C0002072002405E0504B185D01F0A7FE0134A4B2082CF7D9092411E04F4B185D01F09DFE0134A4B200E001244B4B1B78A342F3D80022474B1A70052400E00524414BAE
:406500005A79434B93F812319A4226D1404A92F8192202BB3C4D6B71631C9BB2A122EA5401339BB23A4A92F81522EA545C1CA4B2991C284689B2FFF71BFA28550134A4B2D8
:40654000002505E0304B585D01F068FE0135ADB2A542F7D301E0FFF7C7FC2A4B5A792C4B93F824329A421FD1274D6B71631C9BB2A122EA5401339BB2254A92F82723EA541F
:406580005C1CA4B2991C284689B2FFF7F1F928550134A4B2002505E01B4B585D01F03EFE0135ADB2A542F7D3164B5A79184B93F836339A4240F02D83134D6B71631C9BB2E0
:4065C000A122EA5401339BB2114A92F83924EA545C1CA4B2991C284689B2FFF7C9F928550134A4B2002505E0074B585D01F016FE0135ADB2A542F7D30BE300BF8E8DFF1F6B
:40660000F997FF1F0094FF1FA08DFF1F4492FF1F9C84FF1FFC97FF1FF08AFF1FB24B5A79B24B1B789A421BD10121B14A1170B14C6371A123A371AD4B93F80331E371204654
:406640000921FFF795F92072002405E0A94B185D01F0E4FD0134A4B2082CF7D9092300E00523A14A5179A14A92F81221914240F0D08202209E4908709E4D6A710133A122E3
:40668000EA5401339BB2994A92F81522EA545C1CA4B21918284689B2FFF76AF928550134A4B2002505E0934B585D01F0B7FD0135ADB2A542F7D3ACE28B4B5A798B4B18780B
:4066C00082420DD005241DE0874C257AE45C874901EBC501194481F8AC4001339BB200E009230D2BF0D9814B012183F805117E49097A83F806117F4B5871A621997103216C
:40670000D9710824794B93F81201824223D10BE0754D2E7AED5C754901EBC601194481F8BE5101339BB200E009230D2BF0D96F4B012183F817126C49097A83F818126D4934
:406740004871631C9BB2A620C85401339BB20320C85401339CB2654B93F82402824223D10BE0614D2E7AED5C604901EBC601194481F8D05201339BB200E009230D2BF0D9EB
:406780005A4B012183F829135749097A83F82A1358494871631C9BB2A620C85401339BB20320C85401339CB2504B93F836138A4223D10BE04C48057AC05C4C4A02EBC502A3
:4067C0001A4482F8E20301339BB200E009230D2BF0D9464B012283F83B24434A127A83F83C24444A5171631C9BB2A621D15401339BB20321D15401339CB2651CADB23D4E0D
:4068000030462946FFF7B4F83055002405E0394B185D01F003FD0134A4B2AC42F7D3F8E1354B1878304B195DFDF70EFE0134A4B200E009242C4B1B7AA342F1D22A4B5B79A7
:406840002A4A11788B4209D12A4A5171A7219171264991F80311D17103211172234A92F812118B4209D1234A5171A72191711F4991F81512D171032111721C4A92F824129E
:406880008B4209D11B4A5171A7219171174991F82713D17103211172144A92F83623934209D1144B5A71A7229A71104A92F83924DA7103221A720F4C20460921FFF758F8D8
:4068C0002072002405E00B4B185D01F0A7FC0134A4B2082CF7D99CE1034B5B79034A11788B4221D115E000BF0094FF1F9C84FF1F488DFF1FA08DFF1FB197FF1F03F1080295
:40690000A648805CA64A1A4482F8080101339BB200E00023092BF1D9A24B93F834311BB1A14B1878FDF762FF9C4B5B799C4A92F812118B4216D10AE003F108029748805C1B
:40694000974A1A4482F81A0201339BB200E00023092BF1D9954B93F834311BB1944B1878FDF744FF8D4B5B798D4A92F824128B4216D10AE003F108028848805C884A1A44C3
:4069800082F82C0301339BB200E00023092BF1D9884B93F834311BB1834B1878FDF726FF7E4B5B797E4A92F836138B4240F031810AE003F108027948805C794A1A4482F89F
:4069C0003E0401339BB200E00023092BF1D97A4B93F83431002B00F01C81754B1878FDF705FF16E16D4B197A744A5170597A744A1170997A5170D97A9170197B714A517013
:406A00005B7B1370112307E0A3F111026349C85C6D49885401339BB22E2BF5D92F2307E0A3F12F025D49C85C6849885401339BB24C2BF5D94D2307E0A3F14D025749C85C18
:406A40006349885401339BB26A2BF5D96B2307E0A3F14D025149C85C5E49885401339BB2882BF5D94D4B1A7C5B4B1A70FDF79AFDFDF73CFD002408E004F11001524B185DD5
:406A800089B200F09BFE0134A4B21D2CF4D91E240AE0A4F11E0304F110014C4AD05C89B200F08CFE0134A4B23B2CF2D93C240AE0A4F11E0304F11001454AD05C89B200F069
:406AC0007DFE0134A4B2592CF2D95A240AE0A4F11E0304F110013F4AD05C89B200F06EFE0134A4B2772CF2D90C2000F0D1FE2C4C20700D2000F0CCFE84F812010E2000F050
:406B0000C7FE84F824020F2000F0C2FE84F83603254B18782178FDF769FE7AE01F4B5B792E4C6371E223A3710823E3710323237220460A21FEF71CFF6072002405E0274B3F
:406B4000185D01F06BFB0134A4B2092CF7D9082307E0A3F108021149C85C2149885401339BB20B2BF5D90D4B187B1E4B1870072100F024FE4DE0094BDA79022A38D1002180
:406B8000194B1960194B1970054B082283F8032183F807110120FDF7C7F83AE00094FF1F9C84FF1FFC8BFF1FB197FF1FA890FF1F4892FF1F0496FF1F6492FF1F4092FF1F6C
:406BC000A097FF1FF493FF1FF891FF1F7897FF1F708DFF1F7C84FF1F558DFF1FA08DFF1F608DFF1F3092FF1F6092FF1FF88BFF1F002309490B7009490A70094A1360094AD2
:406C000082F80731C82000F021FC01201321FDF78BF801F0E1FA70BDF88BFF1F3092FF1F6092FF1F9C84FF1FFEE700BF08B5104E104D16E029686B68AC68002204E051F840
:406C4000040B43F8040B0432A242F8D1E868002203E0002143F8041B04328242F9D11035013E002EE6D101F01BFEFCF751F9FEE7010000004811010008B5124A124B1A6064
:406C8000124A136843F40073136000230AE0032B03D80F4A52F8231000E00E490E4A42F8231001332F2BF2D90C4B1A780C4B1A70094A0C4B1A6000F0CFF800220A4B1A6009
:406CC00008BD00BF0004FA050CED00E014ED00E000000000296C00000080FF1FBC7600400481FF1F08ED00E00081FF1FFEE700BFF0B40022174611E050F82760F3B226F055
:406D0000FF0608E001EB420511F812406D78A5550132013BDBB2002BF4D10137292FEBD9F0BC7047064B1B78DBB203F00701054A11701B09013213704422034B1A7070474B
:406D4000CF0100496E5800407658004008B50A46002101F0D6FD08BD38B53322304B1A80182330490B7002310A802F4A13704FF49C7204310A8002310B7002310A802B4A00
:406D800013704FF40271023211800232137045F6BF5102321180023213700222244B1A7008224FF040231A70032103F500731970204B1B78DBB220490B70204B1A8041F225
:406DC0005122023B1A80002419250CE01C4B1B7803F0010343EA440404F003044FF4F07000F022FB013D0DB1032CEFD115B90320FFF77CFF134B4FF480721A8007221A70BD
:406E0000002211490A704820023108701A700222033B1A700D4A137843F03F03137038BD8040004082400040864000408E4000400043004008010049A1460040224200404E
:406E4000254200400440004006400040A243004008B501F04BFD08BD70B572B63A4A137843F00403137000240CE0384963001A1952000A4423445B00C8589188FFF766FF4B
:406E80000134E4B20D2CF0D9002410E02F49A3001A1952000A4452F8540F23445B000B445168B3F85C20FFF7D3FF0134E4B2042CECD94FF090402649FFF71AFF254A137856
:406EC00043F0020313701032137843F002031370214C237843F040032370A2F58632513A137843F0100313701C481D490A22FFF7AFFF1C481C490A22FFF7AAFF1B481C491A
:406F00000A22FFF7A5FF1B481B490A22FFF7A0FF1A481B490A22FFF79BFF1A4A137843F008031370184E01253570FFF715FF81233370164B1D70FFF7F5FE154821460E2284
:406F4000FFF786FF70BD00BFE8460040980F0100A800004803500140A0430040C05100402C110048105100403811004820510040441100485051004050110048605100401C
:406F80005C110048224300400048004004000840B04300407222074B1A702022033B1A700622673B1A70472210331A7000224E331A7070478E64004010B500F03DFA044620
:406FC0000A4A137843F020031370033A137843F010031370093A137843F01003137000F0A7FA204600F02CFA10BD00BF9E64004008B5054B1B7823B9FFF7CCFF0122024B29
:407000001A70FFF7D9FF08BDEC83FF1F08B500200C4900F061FA0020072100F071FA0023094A13707221094A11702021FF3A11700621A1321170472110321170AF3A137019
:4070400008BD00BF69710000EE83FF1F8565004010B500F0F1F904460B4A137843F020031370FF3A137843F0100313700122074B1A60074A137843F01003137000F0B6F997
:40708000204600F0DDF910BD9565004000E100E09864004008B5054B5B7823B9FFF7B6FF0122024B5A70FFF7D3FF08BDEE83FF1F0122134B1A60134A9378D278DBB29342D4
:4070C00006D1104B1B7913F0FF0F14D0202013E00C4A9378D278DBB2934205D2094AD3789078181AC0B207E0064AD3789078181A2030C0B200E000200122034B1A60704754
:4071000080E100E0EE83FF1F00E100E008B500F093F90B4B1A7842F001021A701A7802F0FE021A7000F08CF90121064B1960064B00229A70DA701A715A71044B196008BDC5
:407140009665004080E100E0EE83FF1F00E100E0034B1B7813F0040FFAD1024B1870704768640040476400401C4B1B78DBB213F01E0F05D01A4803F01E0201780A430270C5
:4071800003F0200303F0FF022BB3164B1978C9B2154B1B78DBB21548C154154B1B7813F0FF0F02D00121134B19700F490B780133DBB20B700B78DBB21F2B02D900210A4BE7
:4071C0001970094B1B780C490978DBB28B4202D10121074B1970002AC6D1704766640040EE83FF1F46650040F183FF1F0098FF1FF283FF1FF383FF1FF083FF1F08B5012045
:407200000C4900F069F90120072100F079F90023094A13707221094A11702021033A11700621A2F5B37211704721103211705332137008BD59730000F583FF1F8B650040AF
