:400000000080002011000000753500007535000008B5044B1A6803F53F5302331A6003F0ABFA00BFFA46004010B5054C237833B9044B13B10448AFF300800123237010BD7B
:400040006883FF1F00000000FC4D0000084B10B51BB108480849AFF300800848036803B910BD074B002BFBD0BDE81040184700BF00000000FC4D00006C83FF1F0881FF1FEB
:400080000000000008B504F081FB024A13780133137008BD3B8DFF1F08B504F033F803F03DFF03F09FFC03F095FD03F047FC04F0E9F804F061FC08BD10B5154C20780021BC
:4000C00004F024F8134B1878012104F01FF8124B1878022104F01AF8104B1878032104F015F80F4B1878042104F010F80D4B1878052104F00BF80C4B1878062104F006F89F
:4001000020780130C0B2072104F000F810BD00BF768AFF1F9C92FF1F0C8DFF1F778AFF1F9A92FF1FB092FF1F3A8DFF1F08B5082004F056F8014B187008BD00BF288DFF1FC3
:4001400010B59CB0994A19AB07CA03C31A80984B16AC93E8070003C42280964A13AC07CA03C4228010AC03F10C0207CA03C4227000228DF849200DAC03F1180103C984E837
:400180000300ADF83C200AAC03F1240207CA03C4228007AC03F1300207CA03C4228004AC03F13C0207CA03C4228001AC483393E8070003C42280804B1B78022B7AD10120F8
:4001C000014601F0C7FF012019A9002202F07CF84FF4967003F0E2FD784B1B785BB90133DBB2774A82F8023182F80532012016A9002202F069F8714B1B78012B0BD1013351
:40020000DBB26F4A82F8023182F80532012013A9002202F059F8694B1B78022B0BD10133DBB2674A82F8023182F80532012010A9002202F049F8614B1B78032B0BD101330C
:40024000DBB25F4A82F8023182F8053201200DA9002202F039F85B4B1B783BB901200AA9162202F031F80522574B1A70554B1B78012B07D1012007A9162202F025F80622B0
:40028000514B1A704F4B1B78022B07D1012004A9162202F019F807224B4B1A70494B1B78032B07D1012001A9162202F00DF80822454B1A70404B1B78042B6DD101202E212E
:4002C00001F048FF012019A9002201F0FDFF4FF4967003F063FD394B1B787BB90133DBB2374A82F8023182F8053282F8083382F80B34012016A9002201F0E6FF2F4B1B78FA
:40030000012B0FD10133DBB22D4A82F8023182F8053282F8083382F80B34012013A9002201F0D2FF254B1B78022B0FD10133DBB2234A82F8023182F8053282F8083382F821
:400340000B34012010A9002201F0BEFF1B4B1B78032B0FD10133DBB2194A82F8023182F8053282F8083382F80B3401200DA9002201F0AAFF134B1B78012B04D1012007A947
:40038000162201F0A1FF0F4B1B78022B04D1012004A9162201F098FF074B1B78012B03D80120002101F0D6FE1CB010BD684E0000004E0000744E0000BC92FF1F768AFF1F1B
:4003C000D083FF1FB092FF1F3A8DFF1F08B5104B1B78022B06D10220012101F0BBFE00220C4B1A600A4B1B78042B03D102202E2101F0B0FE064B1B78012B03D8022000218E
:4004000001F0A8FE02200449002201F05DFF08BDBC92FF1FE08FFF1F0C81FF1F08B501F013FA2D4B1870002855D02C4B187801F0F3F901F07DFC50B90120002101F08AFEC4
:400440000220002101F086FE0022234B1A70234B93F8030101F0E0F901F06AFC50B90120002101F077FE0220002101F073FE0022194B1A70194B187801F0CEF901F058FC35
:4004800048B3164B93F8030101F0C6F901F050FC08B301F0D9F9104B1870104B187801F0BBF906280DD10D4B93F8030101F0B4F9062806D1094B187801F032FDFFF7FCFDEA
:4004C00008BD0120092101F045FE0220092101F041FEFFF7A3FF08BDBC92FF1FD083FF1F38B53A4B187801F097F901F021FC90B1364B93F8030101F08FF901F019FC38B9B0
:4005000009E0334AD15C334AD1540133DBB200E00023032BF5D9304B1B78022B0AD12B4D287801F079F92A4C207095F8030101F073F96070284B1B78042B14D1234D287847
:4005400001F06AF9224C207095F8030101F064F9607095F8060201F05FF9A07095F8090301F05AF9E0701C4B1B780BB9FFF756FF164B187801F050F901F0DAFB70B901201B
:40058000002101F0E7FD0220002101F0E3FD0023114A1370114A1360114A13600B4B93F8030101F039F901F0C3FB70B90120002101F0D0FD0220002101F0CCFD0023064A44
:4005C0001370064A1360064A136038BDD083FF1F348DFF1F688AFF1FBC92FF1F508DFF1FE08FFF1F70B584B0B34B1B680F2B00F22F87DFE813F0100023004500A1005601B3
:4006000090010E0283020403730346048C0401057F05D405B706FFF793FD0122A64B1A6004F036F904F098F80023A44A1370A44A82F8613082F8033100F00ABF03F0E0F9A2
:40064000082840F005879F4B1B78DBB2AA2B10D19C4B9B79DBB2C32B0BD19A4BDB79DBB23C2B06D10222944B1A600120042101F071FD0A2003F092FB03F0F0F900F0E8BE3A
:4006800003F0BEF9082840F0E3868E4B1B78DBB2AA2B4AD18B4B9B79DBB2C32B45D1894BDB79DBB23C2B40D1864BDB78DBB2452B24D004D80D2B07D00E2B10D035E07E2B5F
:4006C0002CD0942B22D030E003227B4B1A6001207B4B83F86100052101F03CFD25E00A22754B1A600222764B83F861200022734B1A700120852101F02DFD16E00C226E4B50
:400700001A600120832101F025FD0EE000226A4B1A600120014601F01DFD06E00022664B1A600120014601F015FD0A2003F036FB03F094F900F08CBE03F062F9082840F061
:400740008786604B1B78DBB2AA2B40F0A3805D4B9B79DBB2C32B40F09D805A4BDB79DBB23C2B40F09780574BDB78DBB23B2B00F0828004D80F2B0BD0102B25D08AE07E2BB3
:4007800000F08180942B6ED0432B40F0838037E00422494B1A604A4B022483F86340442283F864200025484B1D700120062101F0D1FC0120009001954E230293242103221F
:4007C000234601F0A9FD65E004223B4B1A603C4B012483F86340562583F8645000263A4B1E7020460D2101F0B5FC009401964E230293204629460322022301F08DFD49E0B7
:400800002F4B022283F86320462283F86420012306E02B4A1A44392182F865100133DBB21A462A490978481E8342F2DB244B9C18302084F8650084F8660083F86510002339
:4008400007E01F4A1A4492F8650082F86F000133DBB28B42F5D90522174B1A600120862101F078FC16E00022134B1A600120014601F070FC0EE000220F4B1A600120014665
:4008800001F068FC06E000220B4B1A600120014601F060FC0A2003F081FA03F0DFF800F0D7BD0120094B1978002201F099FD78B1012821D000F0CCBD508DFF1F3B8DFF1F24
:4008C000E087FF1FC092FF1F3C8DFF1F3A8DFF1F0022834B1A600120014601F03BFC00F0B7BD804A1A4492F84B1082F8651082F86F100133DBB200E000237A4A92F84B2067
:400900009A42EED20522764B1A600120862101F021FC00F09DBD03F073F8082840F09885714B1B78DBB2AA2B6CD16F4B9B79DBB2C32B67D16C4BDB79DBB23C2B62D16A4B68
:40094000DB787E3B3A2B5DD8DFE803F055351E295C5C5C5C5C5C5C5C5C5C5C5C5C5C5C5C5C5C4D5C5C5C5C5C5C5C5C5C5C5C5C5C5C5C5C5C5C5C5C5C5C5C5C5C5C5C5C5C15
:400980005C5C5C5C5C5C41000622554B1A600120564B83F801010B2101F0DCFB32E006224F4B1A600222514B83F8012101200B2101F0D0FB26E00622494B1A6003224B4BAE
:4009C00083F8012101200B2101F0C4FB1AE00622434B1A600422454B83F8012101200B2101F0B8FB0EE000223D4B1A600120014601F0B0FB06E00120014601F0ABFB0022D2
:400A0000374B1A600A2003F0C9F903F027F800F01FBD374803F02EFF03F0FEFE02F0F0FF08284DD1304B1B78DBB2AA2B43D12E4B9B79DBB2C32B3ED12B4BDB79DBB23C2BE7
:400A400039D1294BDB78DBB2392B04D07E2B2BD0382B30D10FE00922214B1A600022254B1A70204B012083F8000183F870020A2101F070FB1FE01B4B93F803313BB100220E
:400A8000174B1A600120014601F064FB13E00721134B19600023134A82F87032164A1370012001F057FB06E000220D4B1A600120014601F04FFB0A2003F070F902F0CEFF0B
:400AC0000D4B1B781D2B40F2C3840023044A1360094A13700120014601F03CFB00F0B8BC508DFF1FE087FF1FC092FF1FD083FF1F850000003C8DFF1F3B8DFF1FA74803F007
:400B0000B9FE03F089FEA64C207801F0B9FA014684F8000194F8013198423AD1A14A92F863302078653203F0030301F01FF9012821D1207800F070FE322003F02FF92078A0
:400B400040F0100003F080FA322003F027F90824954B1C6003F09CFE03F0FEFD0022934B1A700120214601F0F5FA01209049122201F0AAFB1DE000218B4B1960012001F02B
:400B8000E9FAC82003F00AF90120014601F0E2FA0FE00722844B1A60844B1B783B2B08D90023814A1360814A13700120014601F0D1FA02F025FF08281DD17E4B1B78DBB245
:400BC000AA2B15D17B4B9B79DBB2C32B10D1794BDB79DBB23C2B0BD1764BDB78DBB27E2B06D10120014601F0B5FA00226E4B1A600A2003F0D3F802F031FF00F029BC684B0C
:400C0000187800F009FE0638052800F22184DFE810F006001F041F0412001B0040000023614A13605F4A82F871320120014601F091FA00F00DBC5B4B012283F8712200220E
:400C400083F8032100F004BC554B187800F08CFE544B93F87032012B0CD10120504B197801F080FF0022504B1A600120014601F071FA09E006224C4B1A600120494B83F89C
:400C800003010B2101F066FA0022464B83F87122DEE3434B187800F067FE424B93F87032012B0CD101203E4B197801F05BFF00223D4B1A600120014601F04CFA09E00622A1
:400CC000394B1A600120374B83F803010B2101F041FA0022334B83F87122B9E301200A21002201F07DFB10B1012843D0B0E32D4B93F80031013B032B39D8DFE803F00A1D3B
:400D00002935284A1A44002182F8DF100133DBB200E000230A2BF4D90022234B1A600120014601F017FA22E01E4A1A44002182F8EA100133DBB200E000230A2BF4D916E0A8
:400D4000184A1A44002182F8F5100133DBB200E000230A2BF4D90AE0124A1A44002182F872120133DBB200E000230A2BF4D902F075FE6DE30B4B93F80031013B032B7DD83E
:400D8000DFE803F01A41575D064A1A4492F84B1082F8DF100133DBB20FE000BF85000000D083FF1FE087FF1F508DFF1F3B8DFF1F4588FF1FC092FF1F0023AA4A92F84B203C
:400DC0009A42E1D2A74B93F8033163B10120A64B197801F0C7FE0022A44B1A600120014601F0B8F94AE00721A04B1960012001F0B1F943E09B4A1A4492F84B1082F8EA1080
:400E00000133DBB200E00023964A92F84B209A42F0D20721954B1960012001F09BF92DE0904A1A4492F84B1082F8F5100133DBB200E000238B4A92F84B209A42F0D200235C
:400E400007E0884A1A4492F84B1082F872120133DBB20A2BF5D90E22844B1A600022844B1A700523834A13702A21834A11707D4A82F800310120252101F06CF902F0EEFDA3
:400E8000E6E202F0BDFD082840F0E2827B4B1B78DBB2AA2B35D1794B9B79DBB2C32B30D1764BDB79DBB23C2B2BD1744BDB78DBB2B62B04D0B72B10D07E2B22D11AE00B2207
:400EC0006A4B1A6000226A4B1A700120654B83F87002122101F03EF913E00023614A82F800310721614A1160654A1370012001F031F906E00120014601F02CF900225B4BFF
:400F00001A600A2002F04AFF02F0A8FDA0E25D4803F0B0FC03F080FC012002F033FA01285BD1332102F070FA40B956E0012002F0D5FA554B18550134E4B200E00124082C9F
:400F4000F4D90020012405E04F4B195D02F002FB0134E4B2072CF7D94B4B1B7A83423CD11023404A5370012120E0474A525C02F00F00092804DD3B4C1C443730607003E0BB
:400F8000384C1C4430306070013BDBB21209092A04DD344818443732427003E03148184430324270013BDBB20131C9B20829DCD90120132101F0CEF802F050FD4FF42F70DD
:400FC00002F0ECFE0222274B83F800210922274B1A6001200E2101F0BDF8294B1B783B2B40F236820023214A1360254A13700120014601F0AFF82BE202F002FD082840F02E
:4010000027821E4B1B78DBB2AA2B6DD11B4B9B79DBB2C32B68D1194BDB79DBB23C2B63D1164BDB78DBB27E2B57D004D8462B07D0552B2DD058E0942B47D0B52B3DD053E07D
:401040000D220A4B1A60114B1B78012B04D101202A2101F07FF847E00120232101F07AF842E000BFE087FF1FD083FF1F508DFF1F3C8DFF1FDE87FF1F298DFF1FC092FF1F3F
:401080003B8DFF1F850000007C92FF1F288DFF1F0E22AB4B1A600622AA4B83F800210022A94B1A700522A94B1A702A22A84B1A700120252101F04EF816E00C22A04B1A6038
:4010C0000120832101F046F80EE000229C4B1A600120014601F03EF806E00022984B1A600120014601F036F80A2002F057FE02F0B5FCADE102F084FC082840F0A981954B92
:401100001B78DBB2AA2B44D1924B9B79DBB2C32B3FD1904BDB79DBB23C2B3AD18D4BDB78DBB2482B17D002D8472B05D031E07E2B20D0942B26D02CE00922814B1A600022CA
:40114000814B1A7004227F4B83F800210120242101F000F81DE00922794B1A6000227A4B1A700422774B83F800210120242100F0F1FF0EE00120014600F0ECFF0022704B8F
:401180001A6006E00120014600F0E4FF00226C4B1A600A2002F002FE02F060FC58E101206A4B19786A4B1A7801F01AF910B1012847D04DE1634B93F80031052B1FD0062B03
:4011C00030D0012B3AD105E00021634AD1540133DBB200E000235D4A12789342F4D30022574B1A600120014600F0B4FF26E0554A1A44002182F87D120133DBB200E0002315
:40120000524A12789342F2D300224D4B1A600120014600F09FFF11E00021504AD1540133DBB200E001234D4A12789A42F4D20022434B1A600120014600F08CFF02F00EFC62
:4012400006E1404B93F80031052B23D0062B37D0012B71D108E03B4A1A4492F84B103E4AD1540133DBB200E00023384A12789342F1D30022324B1A600120014600F06AFFD7
:401280005AE0304A1A4492F84B1082F87D120133DBB200E000232D4A12789342F1D30022274B1A600120392100F054FF44E0254A1A4492F84B10294AD1540133DBB200E0F5
:4012C0000123264A12789A42F1D2244B5A78244B5B7B9A4221D1214B9A78214B9B7B9A421BD11E4BDA781E4BDB7B9A4215D11B4B1A791B4B1B7C9A420FD10120262100F0CF
:4013000029FF4FF42F7002F049FD0F220C4B1A6001205A2100F01EFF0EE00120272100F019FF4FF42F7002F039FD0022044B1A600120014600F00EFF02F090FB88E000BF63
:40134000508DFF1FE087FF1F3C8DFF1FDE87FF1F298DFF1FC092FF1F7892FF1F6C8AFF1F0C81FF1F02F04CFB082871D1394B1B78DBB2AA2B67D1374B9B79DBB2C32B62D1B8
:40138000344BDB79DBB23C2B5DD1324BDB78DBB2652B1CD004D8582B37D05A2B26D052E0822B04D0942B47D07E2B4CD13CE00E22294B1A600023294A1370294A13700120C5
:4013C000284B83F80001062100F0C4FE3BE00922214B1A600022214B1A700422214B83F8002101206B2100F0B5FE2CE009221A4B1A600022194B1A7004221A4B83F8002116
:401400000120062100F0A6FE1DE00922124B1A600022124B1A700422124B83F8002101203E2100F097FE0EE00120014600F092FE0022094B1A6006E00120014600F08AFE18
:401440000022054B1A600A2002F0A8FC02F006FB04B070BDC092FF1F508DFF1F3C8DFF1F298DFF1FE087FF1F08B5A94B1B68062B00F28B81DFE813F007000D00410092002D
:40148000ED001D015001FEF7A1FF0122A04B1A6008BD0220232100F0E9FE02F0A9FB082840F073819B4B1B78DBB2AA2B1FD1994B9B79DBB2C32B1AD1964BDB79DBB23C2B75
:4014C00015D1944BDB78DBB23A2B02D07E2B07D00DE002208E4B1860042100F03BFE06E00220012100F036FE0022894B1A600A2002F054FC02F0AAFB08BD02F079FB0828C6
:4015000040F04381834B1B78DBB2AA2B40D1814B9B79DBB2C32B3BD17E4BDB79DBB23C2B36D17C4BDB78DBB2452B1AD004D80D2B07D00E2B0DD02BE07E2B22D0942B18D015
:4015400026E00322724B1A600220052100F002FE1EE004226E4B1A600220852100F0FAFD16E005226A4B1A600220832100F0F2FD0EE00022664B1A600220012100F0EAFD84
:4015800006E00022624B1A600220012100F0E2FD0A2002F003FC02F059FB08BD02F028FB082840F0F2805B4B1B78DBB2AA2B4AD1584B9B79DBB2C32B45D1564BDB79DBB25C
:4015C0003C2B40D1534BDB78DBB23B2B2CD004D80F2B09D0102B0FD035E07E2B2CD0942B1AD0432B2FD10FE00422494B1A600220062100F0AFFD26E00522454B1A60022058
:401600000D2100F0A7FD1EE00622414B1A6002200B2100F09FFD16E000223D4B1A600220012100F097FD0EE00022394B1A600220012100F08FFD06E00022354B1A6002200E
:40164000012100F087FD0A2002F0A8FB02F0FEFA08BD02F0CDFA082840F097802D4B1B78DBB2AA2B1FD12B4B9B79DBB2C32B1AD1284BDB79DBB23C2B15D1264BDB78DBB2F7
:401680007E2B09D0942B0ED10022214B1A600220012100F05FFD06E000221D4B1A600220012100F057FD0A2002F078FB02F0CEFA08BD02F09DFA082867D1164B1B78DBB280
:4016C000AA2B1FD1134B9B79DBB2C32B1AD1114BDB79DBB23C2B15D10E4BDB78DBB27E2B09D0942B0ED10022094B1A600220012100F030FD06E00022054B1A600220012103
:4017000000F028FD0A2002F049FB02F09FFA08BDE08FFF1FE092FF1F02F06AFA082834D11A4B1B78DBB2AA2B2AD1184B9B79DBB2C32B25D1154BDB79DBB23C2B20D1134B08
:40174000DB78DBB2392B04D07E2B12D0382B17D107E002200A2100F0FDFC07220C4B1A600EE00220862100F0F5FC0822084B1A6006E00220012100F0EDFC0022044B1A60E7
:401780000A2002F00BFB02F061FA08BDE092FF1FE08FFF1F38B562B6FEF77EFC002304E00021174AD1540133DBB2032BF8D90423144A1373144A1370144D00242C70204683
:4017C000082102F0A3FC2C70FEF7B0FCFEF726FE01220F4B1A700320214602F0FFFA02F01DFB0C4B1B681BB9FEF77AFE02F016FBFEF7F8FE02F012FBFFF736FEEFE700BF8C
:40180000348DFF1F0C81FF1F6C8AFF1F288DFF1F2F8DFF1F508DFF1F10B5044602F0F2FB204602F011FC3C2002F0B8FA02F0B6FB38B102F081FBC0F3071402F0E3FB204611
:4018400010BD002010BD00BF10B5464BFF221A7083F8032183F8062283F80923012454E0204602F0F1FB642002F098FA02F096FB38B13C4B1B78FF2B03D13A4B1C7002F0D9
:40188000C1FB02F08BFB68B1364B1B78A34209D0344B93F80331FF2B04D1324B83F8034102F0B0FB02F07AFB90B12E4B1B78A3420ED02C4B93F80331A34209D0294B93F889
:4018C0000632FF2B04D1274B83F8064202F09AFB02F064FBB8B1234B1B78A34213D0214B93F80331A3420ED01E4B93F80632A34209D01C4B93F80933FF2B04D1194B83F88E
:40190000094302F07FFB0134E4B2102CA8D9154B1B78FF2B0ED0134A92F80321FF2A09D0104A92F80622FF2A04D00E4A92F80923FF2A0FD1FF2B04D00A4A92F80321FF2A16
:401940000AD1FF2B0AD1074B93F80331FF2B07D0012010BD042010BD022010BD012010BD002010BDD083FF1F10B5044602F04AFB44F0400002F068FB4FF4967002F00EFA09
:4019800002F04CFAB64B1B78072B00F0F28002F005FB212840F0ED80B24B1B78DBB2FF2B40F0AE81AF4B9B78DBB2F82B40F0AA81AC4B93F82030DBB2F02B40F0A581AA4B6C
:4019C0001B78A3426AD1A74B5B7A03F00F033133A54A82F8FF3001230CE003F10B02A1498A5CA249C91A02F00F02303281F8F1200133DBB2042BF0D904229B4B83F8F1207D
:401A00009B4B1B78DBB2012B06D1974B052283F8F120302283F8F62001230CE003F1100290498A5C9349C91A02F00F02303281F8E3200133DBB2062BF0D906228A4B83F87D
:401A4000E32001230CE003F1170286498A5C8949C91A02F00F02303281F8D5200133DBB2062BF0D97E4B1B78052B11D109E05A1E7D49881890F8D5000B4483F8D500D3B298
:401A800000E00623012BF2D83022774B83F8D6200622754B83F8D520012010BD714B5B7A03F00F033133704A82F8023201230CE003F10B026B498A5C6C49C91A02F00F02B4
:401AC000303281F8F4210133DBB2042BF0D90422654B83F8F421664B1B78DBB2012B06D1614B052283F8F421302283F8F92101230CE003F110025B498A5C5E49C91A02F09D
:401B00000F02303281F8E6210133DBB2062BF0D90622554B83F8E62101230CE003F1170250498A5C5349C91A02F00F02303281F8D8210133DBB2062BF0D9494B1B78052BA9
:401B400011D109E05A1E4849881890F8D8010B4483F8D801D3B200E00623012BF2D83022414B83F8D92106223F4B83F8D821012010BD3B4B1B78072B40F0C88002F00EFA45
:401B8000272840F0C580374B1B78DBB2FF2B40F0C180344B9B78DBB2F82B40F0BD80314B93F82630DBB2F02B40F0B8802E4B1B78A3424BD12B4B5B7A03F00F0331332A4AD3
:401BC00082F8FF3001230CE003F10B0225498A5C2849C91A02F00F02303281F8F1200133DBB2062BF0D906221F4B83F8F12001230CE003F112021B498A5C1F49C91A02F01C
:401C00000F02303281F8E3200133DBB2082BF0D90822154B83F8E32001230CE003F11C0210498A5C1449C91A02F00F02303281F8D5200133DBB2072BF0D90B4B302283F89D
:401C4000D620082283F8D520012010BD054B5B7A03F00F033133044A82F8023201231AE03A8DFF1F0093FF1FD083FF1FD583FF1FDC8FFF1FD783FF1FD983FF1F03F10B0245
:401C800027498A5C2749C91A02F00F02303281F8F4210133DBB2062BF0D90622224B83F8F42101230CE003F112021D498A5C1F49C91A02F00F02303281F8E6210133DBB253
:401CC000082BF0D90822184B83F8E62101230CE003F11C0212498A5C1449C91A02F00F02303281F8D8210133DBB2072BF0D90E4B302283F8D921082283F8D821012010BDF7
:401D0000002010BD002010BD002010BD002010BD002010BD002010BD002010BD002010BD0093FF1FD783FF1FD083FF1FD983FF1F30B1002802DB831F062B01D900207047BD
:401D400001207047002104E003F00F030B44D9B201300378FB2BF7D103F00F028818404200F00F0040F0E000704700BFF0B587B005460E4614460023019302930393049314
:401D8000ADF81430FFF748FD0638C0B201280AD845F0200002F058F9322001F0FFFF02F0CBF8074600E0002702F02CF902F02AF945F0D003BB4240F0AA80FF238DF80430FC
:401DC000E1238DF80530012D40F0A380524A92F8633063F00F038DF80630F6238DF80730013E06F00F0666F01F068DF80860F8238DF8093092F86450462D09D006231AE0BE
:401E000006AA1A44E92102F8141C0133DBB200E00623424A127806329342F1DB1A4608E006A91144E02001F8140C0133DBB20132D2B20D2AF4D9442D20D120781A460CE080
:401E4000215C06AE164401F00F0161F01F0106F8141C0138C0B20132D2B2217819448A42EEDB134608E006A91144E02001F8140C0133DBB20132D2B20D2AF4D9562D20D1FC
:401E800020781A460CE0215C06AD154401F00F0161F01F0105F8141C0138C0B20132D2B2217819448A42EEDB134608E006A91144E02001F8140C0133DBB20132D2B20D2A1C
:401EC000F4D906AA1A44FB2102F8141C5D1CEDB201A8FFF737FF06AB2B4403F8140C0135EDB206AB2B44F02203F8142C002407E006AB234413F8140C02F0A6F80134E4B2AE
:401F0000AC42F5D9322001F049FF012002E0002000E0002007B0F0BDE087FF1F3A8DFF1FF0B585B000AF0446FFF776FC06280AD144F0200002F088F8322001F02FFF01F0FD
:401F4000FBFF054600E0002502F05CF844F0D004AC4222D1FF233B71E9237B71FE23BB71EE23FB71E0233B727B72FB23BB72381DFFF7E8FEF872F0233B73002408E007F110
:401F80001003234413F80C0C02F05EF80134E4B2082CF4D9C82001F001FF01F0FFFFC6B2F31D23F00703ADEB030D6D46002404E001F0C2FF28550134E4B2B442F8D902F0ED
:401FC00021F8AB7A03F00F03264A13702B7B03F00F03254A1370012B0AD1244A47211170612151706C2191702021D17011715171022B0CD11D4B55221A706B225A7020220D
:402000009A704722DA7061221A716C225A71AB7B03F00F03013B164A13702B7C03F00F03012B01D0042B02D10321124A1170032B00D013B902210F4A1170022B02D101229C
:402040000C4B1A70AB7C03F00F03013B0A4A13702B7D03F00F03094A137000201437BD46F0BD00BF768AFF1F9C92FF1FE88FFF1F0C8DFF1F778AFF1F9A92FF1FB092FF1F64
:40208000F0B585B000AF0446FFF7C6FB0638C0B201280AD844F0200001F0D6FF322001F07DFE01F049FF054600E0002501F0AAFF44F0D004AC422AD1FF233B71E9237B7129
:4020C000FE23BB71E023FB71E1223A727B72FB23BB72381DFFF736FEF872F0233B73002408E007F11003234413F80C0C01F0ACFF0134E4B2082CF4D9154B1B7823B14FF480
:402100002F7001F04BFE02E0C82001F047FE01F045FFC5B2EB1D23F00703ADEB030D6E46002404E001F008FF30550134E4B2AC42F8D901F067FF337B03F00F03012B03D180
:40214000B07B00F00F0000E000201437BD46F0BD768AFF1F30B583B005460A4610496B460868496803C3130A8DF802308DF80320002410E0012D06D102AB234413F8080CB0
:4021800001F08EFC05E002AB234413F8080C01F07FFD0134E4B2072CECD903B030BD00BF804E00002DE9F04387B005468C4616461C469DF83870BDF83CE00DF10408DFF8E5
:4021C000A89059F8080FD9F80410D9F80820D9F80C30A8E80F00B9F81030A8F800307A1C02FB04F303EB43039B001B128DF8063004FB02F404EB4404A3008DF80730C6EB77
:40220000C6035B001B128DF80830C6EBC60673008DF8093020378DF80A709DF84030592B02D185238DF80B304FEA1E238DF80D308DF80EE08DF811C0002410E0012D06D1AA
:4022400006AB234413F8140C01F02AFC05E006AB234413F8140C01F01BFD0134E4B2112CECD907B0BDE8F083804E000070B584B005460E466B46134C54F81C0F6168A26817
:4022800007C3A2891A808DF807608DF80960002410E0012D06D104AB234413F8100C01F0FFFB05E004AB234413F8100C01F0F0FC0134E4B20D2CECD9642001F06FFD04B017
:4022C00070BD00BF804E0000F0B585B007460E46154600240DE0315D01230093002301934E23029338461F222B19FFF75BFF0134E4B2092CEFD905B0F0BD00BF054B04E0CB
:40230000824201D15878704702331A78002AF7D1002070472081FF1F2DE9F04387B005468C4616461C469DF83870BDF83CE00DF10408DFF8A89059F82C0FD9F80410D9F86D
:402340000820D9F80C30A8E80F00B9F81030A8F800307A1C02FB04F303EB43039B001B128DF8063004FB02F404EB4404A3008DF80730C6EBC6035B001B128DF80830C6EB8C
:40238000C60673008DF8093023378DF80A709DF84030592B02D185238DF80B304FEA1E238DF80D308DF80EE08DF811C0002410E0012D06D106AB234413F8140C01F070FB46
:4023C00005E006AB234413F8140C01F061FC0134E4B2112CECD907B0BDE8F083804E000030B585B00D461446012840F0108101F007FB082840F02F82A84B1B78DBB2AA2B60
:4024000040F0FE80A54B9B79DBB2C32B40F0F880A24BDB79DBB23C2B40F0F280A04B1B78DBB2013DAB4200F39F809C4BD878FFF765FF0546A0F12003DBB20B2B2AD8984A71
:4024400013780133DBB213701378964A134483F84B008CB9924B1A781B7892490A4492F84B1001200090002201924E22029203220233FFF751FF78E0894B1B780120009036
:40248000002201924E220292214603220233FFF743FF6AE0A0F12D03DBB2512B2AD8804A13780133DBB2137013787E4A134483F84B008CB97A4B1A781B787A490A4492F881
:4024C0004B1001200090002201924E22029203220233FFF721FF48E0714B1B7801200090002201924E220292214603220233FFF713FF3AE02C2838D1694B1B7813F0FF0F2E
:4025000033D0694B1B7813F0FF0F2ED1644A13780133DBB213700121634B19701378614A134483F84B008CB95D4B1A781B785D490A4492F84B1001200090002201924E2257
:40254000029203220233FFF7E7FE0EE0544B1B7801200090002201924E220292214603220233FFF7D9FE00E000254C4BDB78DBB20B2B26D14A4B1B7803F0FF042BB914209B
:4025800001F00CFC01F06AFA68E1454C237801200090002201924E220292202103220233FFF7BAFE23783F4A134493F84B302C2B02D100223C4B1A70394A1378013BDBB2F0
:4025C00013700A2D10D1364B1B7813F0FF0F0BD0334B1A78334B83F84B20142001F0DEFB01F03CFA012439E12C4BDB78DBB2942B06D1142001F0D2FB01F030FA00242DE13C
:40260000142001F0CBFB01F029FA022426E101F0EFFA082840F02181244B1B78DBB2AA2B40F01281214B9B79DBB2C32B40F00C811E4BDB79DBB23C2B40F006811C4B1B7851
:40264000DBB2013DAB4200F3B580184BD878FFF755FE0546A0F12003DBB20B2B3BD8144A13780133DBB213701378124A134483F84B000CBB0E4B1A781B780E490A4492F804
:402680004B1001220092002201924E220292022003220344FFF740FE8DE000BFC092FF1F3C8DFF1FE087FF1FE78FFF1FE092FF1F9B92FF1F848AFF1F6A4B1B7801220092EF
:4026C000002201924E2202920220214602460344FFF722FE6FE0A0F12D03DBB2512B2CD8604A13780133DBB2137013785E4A134483F84B0094B95B4B1A781B785A490A4404
:4027000092F84B1001220092002201924E220292022003220344FFF7FFFD4CE0514B1B7801220092002201924E2202920220214602460344FFF7F0FD3DE02C283BD1494BF1
:402740001B7813F0FF0F36D0484B1B7813F0FF0F31D1444A13780133DBB213700121434B19701378424AD2783F490B4483F84B208CB93C4B1A781B780A4492F84B1001227B
:402780000092002201924E220292022003220344FFF7C2FD0FE0334B1B7801220092002201924E2202920220214602460344FFF7B3FD00E000250B2D27D12A4B1B7803F02F
:4027C000FF042BB9142001F0E9FA01F03FFA45E0244C237801220092002201924E2202920220202102460344FFF796FD23781E4A134493F84B302C2B02D100221B4B1A700B
:40280000184A1378013BDBB213700A2D10D1154B1B7813F0FF0F0BD0124B1A78124B83F84B20142001F0BAFA01F010FA012415E00F4BDB78DBB2942B06D1142001F0AEFAAB
:4028400001F004FA002409E0142001F0A7FA01F0FDF9022402E0022400E00224204605B030BD00BF9B92FF1F848AFF1FDC87FF1FE092FF1F10B582B08DF804008DF8051012
:4028800001F030FF0720002101F078FE58B1002011E002AB234413F8040C01F0CBFE48B90134E4B200E00024012CF2D901F0A6FE012000E0002002B010BD00BF38B5042475
:4028C0001DE001F00FFF6820002101F057FED0B9204601F0AFFEC0B901F090FE0A2001F05DFA6820012101F049FE80B9251F01F0CDFE084B585501F081FE0134E4B2062C6E
:40290000DFD9012038BD002038BD002038BD002038BD00BF2C8DFF1F38B501241DE001F0E1FE6820002101F029FED0B9204601F081FEC0B901F062FE0A2001F02FFA68205F
:40294000012101F01BFE80B9651E01F09FFE084B585501F053FE0134E4B2022CDFD9012038BD002038BD002038BD002038BD00BFB492FF1F38B504460E2900F2DA80DFE8F5
:4029800001F01221303F4ED85D6C7B8998A7B6C5D400704B2B44204693F88014FFF76AFF0135ADB200E00025B5F56C7FF1D3C0E0684B2B44204693F83018FFF75BFF013581
:4029C000ADB200E00025B5F56C7FF1D3B1E0614B2B44204693F8E01BFFF74CFF0135ADB200E00025B5F56C7FF1D3A2E0594B2B44204693F8901FFFF73DFF0135ADB200E072
:402A00000025B5F56C7FF1D393E0534B2B44204693F84812FFF72EFF0135ADB200E00025B5F56C7FF1D384E04B4B2B44204693F8F815FFF71FFF0135ADB200E00025B5F578
:402A40006C7FF1D375E0444B2B44204693F8A819FFF710FF0135ADB200E00025B5F56C7FF1D366E03C4B2B44204693F8581DFFF701FF0135ADB200E00025B5F56C7FF1D31F
:402A800057E0364B2B442046197CFFF7F3FE0135ADB200E00025B5F56C7FF2D349E02F4B2B44204693F8C013FFF7E4FE0135ADB200E00025B5F56C7FF1D33AE0274B2B447D
:402AC000204693F87017FFF7D5FE0135ADB200E00025B5F56C7FF1D32BE0204B2B44204693F8201BFFF7C6FE0135ADB200E00025B5F56C7FF1D31CE0184B2B44204693F825
:402B0000D01EFFF7B7FE0135ADB200E00025B5F56C7FF1D30DE0124B2B44204693F88811FFF7A8FE0135ADB200E00025B5F56C7FF1D320461B21FFF79DFE20464021FFF747
:402B400099FE20460A21FFF795FE20460A21FFF791FE38BDA092000098A3000090B4000088C5000070B504460E46BF4B1B78012B03D101200021FFF7FDFE20460A21FFF781
:402B800079FE002506E02046B84B595DFFF772FE0135EDB21D2DF6D920460A21FFF76AFE002508E0B14B2B44204693F82010FFF761FE0135EDB20C2DF4D9FFF77FFE0128CC
:402BC00032D1AB4D2978C1F3011120463031FFF751FE297801F00F0120463031FFF74AFE20462F21FFF746FE6978C1F3001130312046C9B2FFF73EFE697801F00F0120466E
:402C00003031FFF737FE20462F21FFF733FEA978090920463031FFF72DFEA97801F00F0120463031FFF726FE20460A21FFF722FE002508E08D4B2B44204693F83010FFF7EB
:402C400019FE0135EDB20C2DF4D9FFF765FE012820D1884D6978C1F3001130312046C9B2FFF708FE697801F00F0120463031FFF701FE20463A21FFF7FDFD297809092046CE
:402C80003031FFF7F7FD297801F00F0120463031FFF7F0FD20460A21FFF7ECFD002506E02046724B595DFFF7E5FD0135EDB21D2DF6D920460A21FFF7DDFD002508E06B4B3F
:402CC0002B44204693F84010FFF7D4FD0135EDB20C2DF4D9684DA5FB0635ED08204605F13001FFF7C7FD05EB85056D00751B05F130012046C9B2FFF7BDFD20460A21FFF700
:402D0000B9FD002508E0594B2B44204693F85010FFF7B0FD0135EDB20C2DF4D920460A21FFF7A8FD554B1B78B34240F0058309E04E4B2B44204693F86010FFF79BFD0135CC
:402D4000EDB200E000250C2DF2D920460A21FFF791FD002508E0454B2B44204693F87010FFF788FD0135EDB20C2DF4D9012508E0424B2B44204693F8F110FFF77BFD013523
:402D8000EDB23E4B93F8F130AB42F1D220462021FFF770FD2046354B93F88010FFF76AFD20462F21FFF766FD002506E02046344B595DFFF75FFD0135EDB2042DF6D92046E5
:402DC0000A21FFF757FD002508E0284B2B44204693F88410FFF74EFD0135EDB20C2DF4D9264B93F8E430302B03D10022234B83F8E420224B93F8E43043B9204B93F8E5306D
:402E0000302B03D100221D4B83F8E520012510E01A4B2B44204693F8E310FFF72BFD194B1B789D4203D120462E21FFF723FD0135EDB2124B93F8E330AB42E9D220462021D9
:402E4000FFF718FD002506E020460D4B595DFFF711FD0135EDB2042DF6D920460A21FFF709FD002519E000BF2F8DFF1F7481FF1F2C8DFF1FB492FF1FCDCCCCCCD083FF1FBB
:402E8000E88FFF1F778AFF1FBE4B2B44204693F89410FFF7EFFC0135EDB20C2DF4D9BA4B93F8D630302B03D10022B74B83F8D620B54B93F8D63043B9B34B93F8D730302BC3
:402EC00003D10022B04B83F8D720012510E0AE4B2B44204693F8D510FFF7CCFCAB4B1B789D4203D120462E21FFF7C4FC0135EDB2A54B93F8D530AB42E9D220462021FFF71C
:402F0000B9FC20469F4B93F88010FFF7B3FC20460A21FFF7AFFC9E4B93F86130012B42D109E0984B2B44204693F8A410FFF7A2FC0135EDB200E000250C2DF2D9012508E0F6
:402F4000934B2B44204693F8DF10FFF793FC0135EDB28F4B93F8DF30AB42F1D220460A21FFF788FC002508E0864B2B44204693F8B410FFF77FFC0135EDB20C2DF4D9012527
:402F800008E0834B2B44204693F86510FFF772FC0135EDB27E4B93F86530AB42F1D220460A21FFF767FC002506E02046754B595DFFF760FC0135EDB21D2DF6D920460A2112
:402FC000FFF758FC724B93F86130022B40F0B48109E06C4B2B44204693F8C410FFF74AFC0135EDB200E000250C2DF2D9012508E0674B2B44204693F8EA10FFF73BFC0135B1
:40300000EDB2634B93F8EA30AB42F1D220460A21FFF730FC002508E05A4B2B44204693F8D410FFF727FC0135EDB20C2DF4D9012507E0574B2B4420465978FFF71BFC0135B9
:40304000EDB2534B5B78AB42F3D220460A21FFF711FC002508E04B4B2B44204693F8A410FFF708FC0135EDB20C2DF4D9012508E0474B2B44204693F8F510FFF7FBFB013547
:40308000EDB2434B93F8F530AB42F1D220460A21FFF7F0FB002508E03A4B2B44204693F8E410FFF7E7FB0135EDB20C2DF4D9012301E00133DBB2364A92F8F5209A42F8D2ED
:4030C00020460A21FFF7D6FB002508E02D4B2B44204693F8F410FFF7CDFB0135EDB20C2DF4D9012301E00133DBB2294A92F8F5209A42F8D220460A21FFF7BCFB002508E02D
:40310000204B2B44204693F80411FFF7B3FB0135EDB20C2DF4D9012301E00133DBB21C4A92F8F5209A42F8D220460A21FFF7A2FB002508E0134B2B44204693F81411FFF7B5
:4031400099FB0135EDB20C2DF4D9012301E00133DBB20F4A92F8F5209A42F8D220460A21FFF788FB002508E0064B2B44204693F82411FFF77FFB0135EDB20C2DF4D9012310
:403180000AE000BF7481FF1FD083FF1F0C8DFF1FE087FF1F0133DBB2784A92F8F5209A42F8D220460A21FFF765FB002508E0744B2B44204693F83411FFF75CFB0135EDB264
:4031C0000C2DF4D9012301E00133DBB26B4A92F8F5209A42F8D220460A21FFF74BFB002508E0674B2B44204693F84411FFF742FB0135EDB20C2DF4D9012301E00133DBB2F4
:403200005E4A92F8F5209A42F8D220460A21FFF731FB002508E05A4B2B44204693F85411FFF728FB0135EDB20C2DF4D9012301E00133DBB2514A92F8F5209A42F8D2204677
:403240000A21FFF717FB002508E04D4B2B44204693F86411FFF70EFB0135EDB20C2DF4D9012301E00133DBB2444A92F8F5209A42F8D220460A21FFF7FDFA002508E0404B18
:403280002B44204693F87411FFF7F4FA0135EDB20C2DF4D9012301E00133DBB2374A92F8F5209A42F8D220460A21FFF7E3FA20460A21FFF7DFFA002508E0314B2B442046BC
:4032C00093F88411FFF7D6FA0135EDB20C2DF4D920460A21FFF7CEFA20460A21FFF7CAFA20460A21FFF7C6FA002508E0244B2B44204693F89411FFF7BDFA0135EDB20C2DF0
:40330000F4D920460A21FFF7B5FA20460A21FFF7B1FA20460A21FFF7ADFA002506E02046174B595DFFF7A6FA0135EDB21D2DF6D920460A21FFF79EFA20460A21FFF79AFAE3
:4033400020460A21FFF796FA20460A21FFF792FA20460A21FFF78EFA20460A21FFF78AFA20461D21FFF786FA20465621FFF782FA20463121FFF77EFA70BD00BFE087FF1F09
:403380007481FF1F10B501281CD1002001F08AFA4FF4FA7000F018FD012001F083FA052000F012FD01F08AFA034658B3412000F00BFD01F083FA0446F02000F005FDF4B99C
:4033C00001231FE0002001F081FA4FF4FA7000F0FBFC012001F07AFA052000F0F5FC01F081FA034670B1412000F0EEFC01F07AFA0446F02000F0E8FC1CB9012302E000235C
:4034000000E00023184610BD38B50D4601282DD000245AE0002001F045FA0A2000F0D4FC45FA04F313F0010F0AD0012001F03AFA0A2000F0C9FC01F041FA034650B94BE06F
:40344000002001F02FFA0A2000F0BEFC01F036FA00283ED1322000F0B7FC012001F022FA322000F0B1FC0134E4B200E00024072CD0D9012330E0002001F028FA0A2000F0A8
:40348000A3FC45FA04F313F0010F0AD0012001F01DFA0A2000F098FC01F024FA034648B91AE0002001F012FA0A2000F08DFC01F019FA80B9322000F087FC012001F006FA4C
:4034C000322000F081FC0134E4B2072CD3D9012302E0002300E00023184638BD38B5012819D000252C4631E0002001F0DBF90E2000F06AFC012001F0D5F9072000F064FC7D
:4035000001F0DCF9A0400543EDB2642000F05CFC0134E4B201E000252C46072CE4D917E0002001F0D3F90E2000F04EFC012001F0CDF9072000F048FC01F0D4F9A0400543AA
:40354000EDB2642000F040FC0134E4B2072CE7D9284638BD4840002308E010F0010F03D0400880F08C0000E040080133072BF4D9704700BFFEE700BF08B5104E104D16E03E
:4035800029686B68AC68002204E051F8040B43F8040B0432A242F8D1E868002203E0002143F8041B04328242F9D11035013E002EE6D101F0E9FBFEF7EDF8FEE70100000076
:4035C000C0D2000008B5124A124B1A60124A136843F40073136000230AE0032B03D80F4A52F8231000E00E490E4A42F8231001332F2BF2D90C4B1A780C4B1A70094A0C4BA0
:403600001A6000F0CFF800220A4B1A6008BD00BF0004FA050CED00E014ED00E000000000753500000080FF1FBC7600400481FF1F08ED00E00081FF1FFEE700BFF0B40022EC
:40364000174611E050F82760F3B226F0FF0608E001EB420511F812406D78A5550132013BDBB2002BF4D10137282FEBD9F0BC7047064B1B78DBB203F00701054A11701B0916
:40368000013213704422034B1A707047CF0100496E5800407658004008B50A46002101F0A4FB08BD38B53322304B1A80182330490B7002310A802F4A13704FF49C720431EA
:4036C0000A8002310B7002310A802B4A13704FF40271023211800232137045F6BF5102321180023213700222244B1A7008224FF040231A70032103F500731970204B1B785B
:40370000DBB220490B70204B1A8041F25122023B1A80002419250CE01C4B1B7803F0010343EA440404F003044FF4F07000F024FB013D0DB1032CEFD115B90320FFF77CFFE8
:40374000134B4FF480721A8007221A70002211490A704820023108701A700222033B1A700D4A137843F03F03137038BD8040004082400040864000408E4000400043004082
:4037800008010049A146004022420040254200400440004006400040A243004008B501F019FB08BD70B572B63A4A137843F00403137000240CE0384963001A1952000A44AF
:4037C00023445B00C8589188FFF766FF0134E4B20C2CF0D9002410E02F49A3001A1952000A4452F8500F23445B000B445168B3F85820FFF7D3FF0134E4B2032CECD94FF049
:4038000090402649FFF71AFF254A137843F0020313701032137843F002031370214C237843F040032370A2F58632513A137843F0100313701C481D490A22FFF7AFFF1C48C0
:403840001C490A22FFF7AAFF1B481C490A22FFF7A5FF1B481B490A22FFF7A0FF1A481B490A22FFF79BFF1A4A137843F008031370184E01253570FFF715FF81233370164BED
:403880001D70FFF7F5FE154821460E22FFF786FF70BD00BFE846004024D20000A400004803500140A0430040C05100402810004810510040341000482051004040100048E9
:4038C000505100404C1000486051004058100048224300400048004004000840B04300407222074B1A7020220D3B1A7006225C3B1A70472210331A7000224F331A7070470E
:403900008F64004010B500F03FFA04460A4A137843F0200313700D3A137843F0100313700332137843F01003137000F0A9FA204600F02EFA10BD00BF9F64004008B5054B53
:403940001B7823B9FFF7CCFF0122024B1A70FFF7D9FF08BD8483FF1F08B500200C4900F063FA0020072100F073FA0023094A13707221094A11702021A2F58072117006216F
:403980009A3211704721103211705332137008BDB93A00008683FF1F8A65004010B500F0F3F904460C4A137843F020031370A2F58072137843F0100313700122074B1A6008
:4039C000074A137843F01003137000F0B7F9204600F0DEF910BD00BF9A65004000E100E09765004008B5054B5B7823B9FFF7B4FF0122024B5A70FFF7D1FF08BD8683FF1F3C
:403A00000122134B1A60134A9378D278DBB2934206D1104B1B7913F0FF0F14D0202013E00C4A9378D278DBB2934205D2094AD3789078181AC0B207E0064AD3789078181A9F
:403A40002030C0B200E000200122034B1A60704780E100E08683FF1F00E100E008B500F093F90B4B1A7842F001021A701A7802F0FE021A7000F08CF90121064B1960064B19
:403A800000229A70DA701A715A71044B196008BD9A65004080E100E08683FF1F00E100E0034B1B7813F0040FFAD1024B1870704767650040476500401C4B1B78DBB213F075
:403AC0001E0F05D01A4803F01E0201780A43027003F0200303F0FF022BB3164B1978C9B2154B1B78DBB21548C154154B1B7813F0FF0F02D00121134B19700F490B780133E2
:403B0000DBB20B700B78DBB21F2B02D900210A4B1970094B1B780C490978DBB28B4202D10121074B1970002AC6D170476A6400408683FF1F4A6500408983FF1FC092FF1F2C
:403B40008A83FF1F8B83FF1F8883FF1F08B501200C4900F069F90120072100F079F90023094A13707221094A11702021013A11700621623A11704721103211704F321370C5
:403B800008BD00BFA93C00008D83FF1F8965004010B500F0F9F804460B4A137843F020031370013A137843F0100313700222074B1A60074A137843F01003137000F0CCF8BF
:403BC000204600F0E5F810BD9965004000E100E09565004008B5054B5B7823B9FFF7B6FF0122024B5A70FFF7D3FF08BD8D83FF1F0222134B1A60134A9378D278DBB2934220
:403C000006D1104B1B7913F0FF0F14D0202013E00C4A9378D278DBB2934205D2094AD3789078181AC0B207E0064AD3789078181A2030C0B200E000200222034B1A60704747
:403C400080E100E08D83FF1F00E100E008B500F09BF80B4B1A7842F001021A701A7802F0FE021A7000F094F80221064B1960064B00229A70DA701A715A71044B196008BD0C
:403C80009965004080E100E08D83FF1F00E100E0034B1B7813F0040FFAD1024B1870704765650040456500401C4B1B78DBB213F01E0F05D01A4803F01E0201780A4302701B
:403CC00003F0200303F0FF022BB3164B1978C9B2154B1B78DBB21548C154154B1B7813F0FF0F02D00121134B19700F490B780133DBB20B700B78DBB21F2B02D900210A4BDC
:403D00001970094B1B780C490978DBB28B4202D10121074B1970002AC6D17047686500408D83FF1F496500409083FF1FE092FF1F9183FF1F9283FF1F8F83FF1F054A137842
:403D400043F0020313701032137843F002031370704700BFA2430040054A137843F0010313701032137843F001031370704700BFA2430040000000000230800803D000BF63
:403D800001380046FCD17047EFF3108072B6704780F31088704700BF01BE704710B5044605E0084B1868FFF7E7FFA4F50044B4F5004FF6D8034B586800FB04F0FFF7DCFFA4
:403DC00010BD00BF5883FF1F08B5034B1B7A03FB00F0FFF7D1FF08BD5883FF1F0E4B1A7802F0FC0200F00300104318701A7842F080021A701A7802F07F021A7049011A7848
:403E000001F0600102F09F02114319701A7842F010021A70704700BF834300400122014B1A7070478443004070B504460E46074B1D681F2802D90020FFF7AEFF04F01F0497
:403E4000103455F8240045F8246070BD08ED00E038B504460D46072902D90020FFF79CFF1F2C02D90020FFF797FF04F01F0000F1604000F564406D01EDB2057038BD00BF3F
:403E8000054A137843F0040313701032137843F004031370704700BFA243004008B502200C49FFF7C1FF02200721FFF7D1FF0023094A13707221094A11702021093A1170E7
:403EC0000621603A11704721103211705232137008BD00BF614000009483FF1F8D64004008B5FFF751FF0A4A137843F020031370093A137843F0100313700422054B1A6081
:403F0000054A137843F010031370FFF741FF08BD9D64004000E100E09664004008B5054B5B7823B9FFF7BAFF0122024B5A70FFF7D7FF08BD9483FF1F0422134B1A60134AE1
:403F400053889BB2918889B2927912F0FF0F01D18B4211D00E4AD05CC0B201339BB2FF2B00D90023094A5380937913F0FF0F06D00022064B9A7102E0064B1878C0B204229B
:403F8000054B1A60704700BF80E100E09483FF1F0093FF1F4964004000E100E00422164B1A60164B5A8892B29B889BB29A4207D1124B9B7913F0FF0F19D04FF4807017E0AB
:403FC0000E4B5A8892B29B889BB29A4205D20B4A93885088181A80B20AE0084A908883B2508880B2181A00F5807080B200E000200422034B1A60704780E100E09483FF1F7C
:4040000000E100E008B5FFF7BFFE0B4B1A7842F001021A701A7802F0FE021A70FFF7B8FE0421064B1960064B00225A809A809A71DA71044B196008BD9964004080E100E037
:404040009483FF1F00E100E0034B1B7813F0040FFAD1024B1870704766640040426400401D4B1B78DBB213F01E0F05D01B4803F01E0201780A43027003F0200303F0FF02C7
:4040800033B3174B1978C9B2164B1B889BB21648C154164B1B7813F0FF0F02D00121144B197010490B8801339BB20B800B889BB2FF2B02D900210B4B19800A4B198889B2E9
:4040C0000C4B1B889BB2994202D10121074B1970002AC5D1704700BF646400409483FF1F496400409883FF1F0093FF1F9A83FF1F9B83FF1F9683FF1F08B500F0F9FC00F044
:4041000001FD08BD08B5FFF7F7FF08BD30B583B00C468DF8070000F035FDB4F5006F54D22509C5EB053319010C44A4B200F0D6FD00284CD1402021460DF10702012300F038
:404140004DFD044607282FD1234B1B7813F0020FFAD0214B1B7813F0020F06D01E4B1B789B0805D04FF0FF3403E04FF0FF3400E00024E4B9194B402029461A785B7800F050
:4041800069FD072816D1144B1B7813F0020FFAD0114B1B7813F0020F0FD00F4B1B789B0810D04FF0FF340DE0012809D10AE04FF0FF3407E04FF0FF3404E04FF0FF3401E013
:4041C0004FF0FF3400F0B0FD02E0012400E00424204603B030BD00BF224700405894FF1F38B50446FFF7D0FD054600F0B5FC04F1804000F500400478E4B200F0BBFC284632
:40420000FFF7C6FD204638BD10B50222104B1A7081220E3B1A700F2413331C70002201331A704FF400420B4B1A6020460721FFF70FFE20460849FFF7F7FD1022074B1A70AC
:4042400000F058FA00F064FA00F04CFA10BD00BFD649004080E100E0AD4200000094FF1F08B5FFF791FD064A137843F0040313701032137843F004031370FFF789FD08BD07
:40428000A543004008B5074B1B7823B9FFF7BCFF0122044B1A70FFF7E3FF4FF40042024B1A6008BD9E83FF1F00E100E038B5A54B1C78E4B2A44B1B7813F0400F00F039813D
:4042C00014F0010F00F01D819F4B1B78453B052B00F21481DFE813F006008200120112010600E00004F0DF0504F00A04082C42D1954B1B78DBB2452B35D1944B1B7813F0FE
:40430000FF0F10D0924B1B681B78DBB2914A137004228C4B1A7001228F4B1A7046228A4B1A702C46EDE08D4B1B7813F0020F0DD08B4A137843F00A0313706022824B1A7045
:404340004FF40042874B1A602C46DAE0864A137843F0100313701022844B1A700422023B1A702C46CDE00022764B1A704A22764B1A702C46C5E00A2C2BD1794A137843F097
:40438000A0031370754B1B7813F0020F14D06E4B1B7813F0080F01D0092300E00A23704A11780B4313706022674B1A704FF400426C4B1A602C46A4E06B4A137843F0100318
:4043C00013701022694B1A700422023B1A702C4697E00020FFF7E0FC2C4692E014F0020F37D15D4B1B78594A1278DBB2934210D2594A1378DBB256490968CB5CDBB2554938
:404400000B7004214F4B197013780133DBB2137077E0524B1B7813F0020F0CD0504A137843F00A0313706022474B1A704FF400424C4B1A6065E000F079F94B4A137843F05D
:40444000100313701022494B1A700422023B1A7057E0424B1B7813F0020F0CD0404A137843F09A0313706022374B1A704FF400423C4B1A6045E03C4A137843F010031370A7
:4044800010223A4B1A700422023B1A70344A137843F09003137034E0354A1378DBB2354908682C490978C9B2C15413780133DBB213701378304A1278DBB2934203D2102296
:4044C000204B1A701DE0254B1B7813F0020F0CD0234A137843F00903137060221A4B1A704FF400421F4B1A600BE01F4A137843F0100313700022134B1A7002E00020FFF799
:404500004BFC14F0200F1CD00F4B1B7813F0080F01D0012300E00223114A11780B431370114A137803F0EF0313701022064B1A7038BD054B1B7813F0100F02D11022024BB8
:404540001A7038BDD74900400094FF1F0494FF1F1094FF1FD84900400D94FF1F0594FF1F0C94FF1F80E100E0D6490040D94900401494FF1F0894FF1F0694FF1F1A4B1B786B
:40458000DBB2102B29D1194B1B7813F0080F26D14FF40042164B1A604000C0B229B140F001004922104B1A7002E045220E4B1A70104B1870012201331A700F4B1B7813F0E4
:4045C000010FFAD00C4B1B7803F00A030A2B08D11022054B1A700320704702207047012070470020704700BF0094FF1FD949004080E100E0D8490040D74900400A4B1B78BE
:4046000013F0040F0ED01023074A13700421023A1170064A1370064B1B7813F0210FFAD00020704702207047D94900400094FF1FD7490040114B1B7813F0040F1BD0104B7A
:4046400018700422013B1A7046220E4B1A700E4B1B7813F0010FFAD00B4B1B7813F0020F04D16022074B1A70002070476022054B1A70032070470220704700BFD94900407B
:40468000D84900400094FF1FD7490040114B1B7813F0040F1BD0104B1B78DBB2492B05D14A220D4B1A7000220C4B1A700B4B1B7813F0010FFAD00A4B1B78DBB218B110214C
:4046C000064A117004E06021034A117000E0002318467047D94900400094FF1FD7490040D8490040024B187800221A70704700BF0C94FF1F0022044B1A70044A137803F045
:40470000FE031370704700BF1494FF1F0C94FF1F0022044B1A70044A137803F0FD031370704700BF0D94FF1F0C94FF1F704700BF084A137843F0020313701032137843F0B0
:404740000203137002F65932137843F001031370704700BFA3430040084A137803F0FE031370A2F66932137803F0FD0313701032137803F0FD031370704700BF0C4F004071
:40478000014B1870704700BF0F4F0040014B1878704700BF0F4F0040014B1880704700BF104F0040014B1880704700BF124F004008B5164A137803F001031370023213784C
:4047C00003F0FC031370124B1A7802F0CF021A701A7842F030021A701A7802F0F0021A701A7842F00F021A700A4A137843F00103137040F21F30FFF7CFFF40F21F30FFF7D4
:40480000D1FF0820FFF7BCFF08BD00BF0C4F0040174F00400D4F004008B5054B1B7823B9FFF7C6FF0122024B1A70FFF781FF08BD9F83FF1F024B1B68C3F88800704700BF39
:4048400008ED00E04001C0B2014B1870704700BF12E400E04FF48022014B1A60704700BF00E100E04FF48022014B1A60704700BF80E100E010B50446FFF7F4FF2046FFF7F8
:40488000D9FF0720FFF7DEFFFFF7E4FF10BD00BF08B5FFF7E7FF0248FFF7CCFF08BD00BF75350000044A137803F0BF03800100F0400018431070704750510040024B187860
:4048C000C0F38010704700BF51510040044A137803F07F03C001C0B203431370704700BF50510040014B1878C00970475151004008B503200C49FFF797FA03200721FFF741
:40490000A7FA0023094A13707221094A11702021083A117006215B3A11704721103211704F32137008BD00BF95490000A083FF1F8B64004010B5FFF727FA04460B4A13782E
:4049400043F020031370083A137843F0100313700822074B1A60074A137843F01003137000F062F82046FFF713FA10BD9B64004000E100E09764004008B5054B5B7823B9B6
:40498000FFF7B6FF0122024B5A70FFF7D3FF08BDA083FF1F1C4B1B78DBB213F01E0F05D01A4803F01E0201780A43027003F0200303F0FF022BB3164B1978C9B2154B1B78C3
:4049C000DBB21548C154154B1B7813F0FF0F02D00121134B19700F490B780133DBB20B700B78DBB23F2B02D900210A4B1970094B1B780C490978DBB28B4202D10121074B10
:404A00001970002AC6D1704763640040A083FF1F4C640040A383FF1F1894FF1FA483FF1FA583FF1FA283FF1F054A137843F0080313701032137843F008031370704700BFC2
:404A4000A243004010B500F09DF800F047F9D0B900F086F90446072812D102E00120FFF7B3F90A4B1B7813F0020FF7D0074B1B7813F0020F04D0054B1B789B0800D1002493
:404A800000F052F900E00424204610BD2247004010B500F077F800F021F910BB012000F0FFF8072818D11048022100F07DF802280AD102E00120FFF787F90C4B1B7813F073
:404AC000020FF7D0002409E0084B1B7813F0020FE9D04FF0FF3401E04FF0FF3400F024F900E00424204610BD5894FF1F2247004008B5FFF7A7FF034610B9FFF7C9FF0346EC
:404B0000184608BD08B5FFF73FF90F4A137843F0080313701032137843F008031370C8220A4B1A700A4A137843F0100313701032137843F010031370064B1B7813F0200F17
:404B4000FAD0FFF725F908BDA043004001470040AC43004000470040054A137843F001031370034B1B7813F0020FFAD0704700BF02470040024A137803F0FE0313707047DA
:404B80000247004008B5FFF7FFF8064A137843F0080313701032137843F008031370FFF7F7F808BDA043004070B506460D4600240CE00120FFF708F9064B1B7813F0010FE8
:404BC000F7D0054B1B7833550134E4B2AC42F3D3204670BD224700402047004030B43E2801D81F2B03D93F2827D90F2B27D8174C247814F0020F24D0154CB6252570D42566
:404C00002570012525700234247814F0020F1AD10F4C2070C1F300202070C9B22170591EC9B22170002104E0545C094804700131C9B29942F8D3072006E0012004E0012074
:404C400002E0042000E0092030BC7047224700402047004030B4104C247814F0020F15D00E4CB6252570D8252570052525700234247814F0020F0BD1084C2070080A2070F8
:404C8000C9B2217022702370072002E0042000E0092030BC704700BF22470040204700400C4B1B7813F0020F0FD00B4BB6221A70E1221A700E221A7002331B7813F0020F23
:404CC00005D1054B187007207047042070470920704700BF224700402047004010B5FFF753F80F4B1B78A3B901220D4B1A700D4B1B6813F0010F0ED00A4A136823F0010358
:404D0000136000BF00BF00BF0122054B5A60002402E0042400E00024FFF73AF8204610BDA883FF1F0400084008B5FFF72DF80A4B00221A705B68012B0AD1084A136843F0D1
:404D40000103136000BF00BF00BF0022024B5A60FFF71EF808BD00BFA883FF1F04000840074B1B7813F0020F08D0064BB6221A70E0221A700D221A700720704704207047AF
:404D800022470040204700400E4B70B51E460E4C0025E41AA410A54204D056F8253098470135F8E708F07AFA084B094C1E46E41AA4100025A54204D056F82530984701357C
:404DC000F8E770BDA8D20000A8D20000A8D20000B0D2000010B5431E0A44914204D011F8014B03F8014FF8E710BD03460244934202D003F8011BFAE770470000000000006B
:404E0000532F442F4475706C612000005365787475706C61000000004F637475706C610000000000352D352D3420202020200000362D362D3420202020200000372D372D3F
:404E40003520202020200000382D372D35202020202000005465737420646520496D70726573696F6E000000496E696369616E646F000000517561647275706C6100000023
:404E8000AA700000CC33C33CAA980000013922C5030000FFFF00CC33C33C0000AA5C0020002000300030CC33C33C0000AA980000013923C5020000FFFF00CC33C33C000072
:404EC0001D4C33001B2A00AA000000000000000000000000000000000000000000000000000000000000000000000000000000000000000000000000000000000000000027
:404F00000000000000000000000103070F1F1F1E3E3C3C3C3C3C3C3C3C3C3C3C3C3C3C3C3C3C3C3F3F3F3F3F0000000000000000000000000000000000000000000000004A
:404F4000000000000000000000000000000000000000000000000000000000000000000000000000000000000000000000000000000000000000000000000000011D4C3394
:404F8000001B2A00AA00000000000000000000000000000000000000000000000000000000000000000000000000000000001F1F1F1F1F1F1F1F1F1F1F1F1F1F0F07010039
:404FC0000000000000FFFFFFFFFF80000000000000000000000000000000000000000000FFFFFFFFFC0000000000000000000000000000000000000000000000000000003E
:40500000000000000000000000000000000000000000000000000000000000000000000000000000000000000000000000000000000000000000000000011D4C33001B2A8E
:4050400000AA00000000000000000000000000000000000000000000000000000000000000000000000000000000C0E0F0F0F8F8F8F8F8F8F8F8F8F8F8F8F0000000000076
:4050800000FEFEFEFEFE0E0E0E0E0E0E0E0E0E0E0E0E0E0E0E0E0E0E1E3E7CFCF8F0E0800000000000000000000000000000000000000000000000000000000000000000E2
:4050C000000000000000000000000000000000000000000000000000000000000000000000000000000000000000000000000000000000000000011D4C33001B2A00AA0024
:4051000000000000000000000000000000000000000000000000000000000000000000000000000000000000000001030707070707070707070707070707070707070700E6
:405140000000000000003F3F3F38383838383838383838383838381C1E1F0F03000000000000000000000000000000000000000000000000000000000000000000000000F7
:40518000000000000000000000000000000000000000000000000000000000000000000000000000000000000000000000000000000000011D4C33001B2A00AA0000000063
:4051C0000000000000000000000000000000000000000000000000000000000000000000000000007FFFFFFFFFFFFFFFFFFFFFFFFFFFFFFFFFFFFFFFFFFFFC000000000049
:405200000000F0FCFE1F0F0703030303030303030303030303FFFFFFFF0000000000000000000000000000000000000000000000000000000000000000000000000000002C
:40524000000000000000000000000000000000000000000000000000000000000000000000000000000000000000000000000000011D4C33001B2A00AA00000000000000A2
:4052800000000000000000000000000000000000000000000000000000000000000000000000E0E0E0E0E0E0E0E0E0E0E0E0E0E0E0E0E0E0E0C0800000000000000000000E
:4052C00000000000000080808080808080808080808080808080000000000000000000000000000000000000000000000000000000000000000000000000000000000000AE
:40530000000000000000000000000000000000000000000000000000000000000000000000000000000000000000000000011D4C33001B2A00AA00000000000000000000E1
:4053400000000000000000000000000F0F0F0C0C0C0C0C0C0C0C0F0F0F06000F0F0F00000103070E0E0C0C0C0C0C0C0C0F0F0F000001070F0F0E0C0C0E0F0F0E0C0C0C0FDF
:405380000F0F00000103070E0C0C0C0C0C0C0C0C0F0F0F000008080C0E07030101010101070F0E0C08000000000000000000000000000000000000000000000000000000B8
:4053C000000000000000000000000000000000000000000000000000000000000000000000000000000000000000011D4C33001B2A00AA0000000000000000000000000021
:405400000000000000000000FCFCFC1C1CDCDCDCDCDCCCFCFCFC3800FCFCFC0000FCFCFC1C1C1C1C1C1C1C1C38F8F0E00C1CFCF8E00000000000FCFC00000000FCFCFC004C
:4054400000FCFCFC606060606060606060FCFCFC00000C1C3C78F0E0C0C0C0E0F0F8BC1C0C0400000000000000000000000000000000000000000000000000000000000048
:40548000000000000000000000000000000000000000000000000000000000000000000000000000000000011D4C33001B2A00AA0000000000000000000000000000000060
:4054C000000000000000000000000000000000000000000000000000000000000000000000000000000000000000000101010303060606040C080800000000000000000071
:405500000001010101010101010101000000000000000000000000000000000000000000000000000000000000000000000000000000000000000000000000000000000061
:40554000000000000000000000000000000000000000000000000000000000000000000000000000011D4C33001B2A00AA000000000000000000000000000000000000009F
:405580000000013F3F1F1F1F1F1F3F3F7F7F3F3F3F1F1F1F1F1F0F0F07070707070F0F1F1F3E3D7B73E3E7C7C78E8E8E1C1818393931716363636767C7C7C7C68686868E63
:4055C0008E8E8C8C8C8C8C8C8C0C0404060606060606060303030301010101010000000000000000000000000000000000000000000000000000000000000000000000006C
:40560000000000000000000000000000000000000000000000000000000000000000000000011D4C33001B2A00AA000000000000000000000000000000030F1F3F7FFFFFF1
:40564000FFFFFFFFFEFEFEFFFFFFFFFFFFFFFFFFFFFFFFFFFFFFFFFFFFFFFFFFFFFFFFFFFFCFDF9FBE3E7E7C78F8F8F0E0E0E0C0C080808080000000000000000000000093
:4056800000000000000000000000000000000000000000008080808080804000000000000000000000000000000000000000000000000000000000000000000000000000AA
:4056C000000000000000000000000000000000000000000000000000000000000000011D4C33001B2A00AA0000000000000000000000000000E0E0E0E0E0C08080808000FE
:40570000000000F0F8FFFFFFFFFFFFFFFFFFFFFFFFFFFFFFFFFEFCF8F8F0F0E0C08080800000000000000000000000000000000000000000000000000000000000000000A7
:405740000000000000000000000000000000000000000000000000000000000000000000000000000000000000000000000000000000000000000000000000000000000029
:40578000000000000000000000000000000000000000000000000000000000011D4C33001B2A00AA000000000000000000000000000000000000000000000000000000005D
:4057C00000009CFEFFFFFFFFFEFCF8F0E0E0C080000F1F1F18181818181818181C1C1C1E1F1F1F1F1F1C18181818181818181C1C1E1E1F1F1F1F1F1C1818181C1F1F1F1F30
:405800001F1F1E1E1C1C1818181818181C1E1E1F1F1F1F0F000000000000000000000000000000000000000000000000000000000000000000000000000000000000000043
:40584000000000000000000000000000000000000000000000000000011D4C33001B2A00AA000000000000000000000000000000000000000000000000000000000000009C
:405880000080C08000000000000000000000FFFFFF0000000070787878200000060EFFFFFFFF0E000000007C7C7C3C00000101CFFFFFFFFF0000000000FFFFFFF08000002B
:4058C000001F3F7F7F7F7F7F3F1F0F000080E0FFFF000000000000000000000000000000000000000000000000000000000000000000000000000000000000000000000004
:40590000000000000000000000000000000000000000000000011D4C33001B2A00AA00000000000000000000000000000000000000000000000000000000000000000000DB
:405940000000000000000000000000FFFFFF00000000F0F8F8F0F16101010387FFFFFF01000000017F3F070301C0F0F8FCFFFFFFFF0000000001FFFFFF7F0F070301C1E0DC
:40598000F0F0F8F0F0F0E18103070F1FFFFF0000000000000000000000000000000000000000000000000000000000000000000000000000000000000000000000000000A7
:4059C000000000000000000000000000000000000000011D4C33001B2A00AA000000000000000000000000000000000000000000000000000000000000000000000000001B
:405A00000000000000000000808080808080808080808080808080808080808080808080808080808080808080808080808080808080808080808080808080808080808066
:405A400080808080808080808080800000000000000000000000000000000000000000000000000000000000000000000000000000000000000000000000000000000000A6
:405A8000000000000000000000000000000000011D4C33001B2A00AA000000000000000000000000000000000000000000000000000000000000000000000000000000005A
:405AC0000000000000000000000000000000000000000000000000010101010101010101010101010000000000000000000000000000000000000000000000000000000099
:405B00000000000000000000000000000000000000000000000000000000000000000000000000000000000000000000000000000000000000000000000000000000000065
:405B4000000000000000000000000000011D4C33001B2A00AA0000000000000000000000000000000000000000000000000000000000000000000000000000000000000099
:405B80000000000000000103070F1F1F3E3E7C7878F8F0F0E0E0E0E0E0E0E0E0E0E0E0E0E0F0F0F8787C3C3F3F1F1F1F1F1F0F0F030000000000000000000000000000002B
:405BC00000000000000000000000000000000000000000000000000000000000000000000000000000000000000000000000000000000000000000000000000000000000A5
:405C0000000000000000000000011D4C33001B2A00AA0000000000000000000000000000000000000000000000000000000000000000000000000000000000000000030FC6
:405C40003F7FFEFCF0E0C0800000000000000000000000000000000000000000000000000000000080E0F0F8F8F8F8FEFFFF1F03010000000000000000000000000000000D
:405C800000000000000000010303000000000000000000000000000000000000000000000000000000000000000000000000000000000000000000000000000000000000DD
:405CC000000000000000011D4C33001B2A00AA00000000000000000000000000000000000107070F0F1E1E1E0F0F0F070003070F0F0F0E0F0F0F0F070001078F8F8F9E1E64
:405D00001E0F0F0707010003070F0F0F0E0E0F0F0F070003070F0F0F0E0E0E0F0F070701070F0F0F1E1E1E1E1E1E9E8E800D0F1F0F0000000000000F1F1F0F03070F0F0F92
:405D40000E1E1E1EFFFFFF000000000000000000000000000000000000000000000000000000000000000000000000000000000000000000000000000000000000000000BE
:405D8000000000011D4C33001B2A00AA0000000000000000000000000000000000F0FCFEFF0F0F070F0F1F1E0EF0FCFEFFBF7FFFF7EFDF9F1E0CFFFFFFC00000000000C0AF
:405DC000FFFFFFF0FCFEFF9F0F070F0F1F9F1E00F8FEFF9F0F0F070F1FFFFEFCF0C0E7E7F7F7F7F7F7F7FFFF7F3EE0FCFEFF1F0F0F070F1FFFFEFCF0F8FEFEFF0F0F070FD0
:405E00001FFFFEFC0000000000000000000000000000000000000000000000000000000000000000000000000000000000000000000000000000000000000000000000004A
:405E4000011D4C33001B2A00AA00000000000000000000000000000000000000000000000000000000000000000000000000000000000000809E1F1F1F0701000080800013
:405E800000000000000000000000000000000000000080808000000000000000808080808081071F1F1F1C00000000000080800000000000000000000000000000000000E1
:405EC00000000000000000000000000000000000000000000000000000000000000000000000000000000000000000000000000000000000000000000000000000011D4C38
:405F000033001B2A00AA00000000000000000000000000000000000000000000000000000000000000000000000000000000000000000080C0E0F8FCFE7E3F1F0F07030335
:405F4000010101000000000000000000000000000000000101030303070F1F3F7EFCF8F0E0C08000000000000000000000000000000000000000000000000000000000001D
:405F800000000000000000000000000000000000000000000000000000000000000000000000000000000000000000000000000000000000000000000000011D4C33001B29
:405FC0002A00AA00000000000000000000000000000000000000000000000000000000000000000000000000000000000000000000000000000000008080C0C0E0E0F0F0AD
:40600000F0F8787878787C7C7C7C787878F8F8F0F0F0E0E0C0C080800000000000000000000000000000000000000000000000000000000000000000000000000000000040
:4060400000000000000000000000000000000000000000000000000000000000000000000000000000000000000000000000000000000000000000011D4C33001B2A00AA94
:4060800000000000000000000000000000000000000000000000000000000000000000000000000000000000000000000000000000000000000000000000000000010307D5
:4060C0000F1F1F3F3F3F3F3F3F1F1F0F0703010100000000000000000000000000000000000000000000000000000000000000000000000000000000000000000000000080
:4061000000000000000000000000000000000000000000000000000000000000000000000000000000000000000000000000000000000000011D4C33001B2A00AA000000D3
:40614000000000000000000000000000000000000000000000000000000000000000000000000000000000000000000000000000010307070F1F1F3F7FFFFFFFFFFFFFFF09
:40618000FFFFFFFFFFFFFFFFFFFFFFFFFFFF7F3F1F0F07030100000000000000000000000000000000000000000000000000000000000000000000000000000000000000F6
:4061C00000000000000000000000000000000000000000000000000000000000000000000000000000000000000000000000000000011D4C33001B2A00AA00000000000013
:4062000000000000000000000000000000000000000000000000000000000000000000000000000000000103070F3F7FFFFFFFFFFFFFFCF0E0808080C0C0E0E0F0F0F8F830
:40624000FCFCFEFEFEFFFFFFFFFFFFFFFFFFFFFFFFFFFF3F1F0F030000000000000000000000000000000000000000000000000000000000000000000000000000000000CA
:4062800000000000000000000000000000000000000000000000000000000000000000000000000000000000000000000000011D4C33001B2A00AA00000000000000000052
:4062C0000000000000000000000000000000000000000000000000000000000000000001071F3FFFFFFFFFFFFFFFFFFFFCE00000000001070F1F1F1F3F3F3F3F3F3F3F1F19
:406300001F1F1F9F8FCCE0F0F0F8FCFEFFFFFFFFFFFFFFFFFF7F0F0300000000000000000000000000000000000000000000000000000000000000000000000000000000CC
:4063400000000000000000000000000000000000000000000000000000000000000000000000000000000000000000011D4C33001B2A00AA00000000000000000000000091
:4063800000000000000000000000000000000000000000000000000000031F7FFFFFFFFFFFFFFFFFFFFFFFFFFF000000071F7FFFFFFFFFFFFFFFFFDF9F8F8F8F8F8F8F8F45
:4063C0000000000000000000000080C0E0F0FCFFFFFFFFFFFFFF0F000000000000000000000000000000000000000000000000000000000000000000000000000000000089
:4064000000000000000000000000000000000000000000000000000000000000000000000000000000000000011D4C33001B2A00AA000000000000000000000000000000D0
:406440000000000000000000000000000000000000000000003FFFFFFFFFFFFFFFFFFFFFFFFFFFFFFFFF000000F0FCFEFFFFFFFFFFFFDF8F8F8F8F8F8F878783000000003F
:4064800000010103070F0F1F3F7F7FFFFFFFFFFFFFFFFFFF3F0700000000000000000000000000000000000000000000000000000000000000000000000000000000000019
:4064C00000000000000000000000000000000000000000000000000000000000000000000000000000011D4C33001B2A00AA00000000000000000000000000000000000010
:40650000000000000000000000000000000000000000FCFEFEFEFFFFFFFFFFFFFFFFFFFFFFFFFF0F03030303030383838387C7C7C7C7CFCFCFDFDF9F3F3F7F7FFFFFFFFFE3
:40654000FFFFFFFFFFFFFFFFFFFFFFFFFFFFFFFFFFFEFC00000000000000000000000000000000000000000000000000000000000000000000000000000000000000000032
:4065800000000000000000000000000000000000000000000000000000000000000000000000011D4C33001B2A00AA0000000000000000000000000000000000000000004F
:4065C0000000000000000000000000000000000000000000008080C0C0E0E0F0F0F0F8F8F8FCFCFCFCFCFCFEFEFEFEFEFEFEFEFEFEFEFEFEFEFEFCFCFCFCFCFCFCFCF8F809
:40660000F8F8F0F0F0E0E0E0C0C0C08080000000000000000000000000000000000000000000000000000000000000000000000000000000000000000000000000000000BA
:4066400000000000000000000000000000000000000000000000000000000000000000011D4C33001B2A00AA0000000000000000000000000000000000000000000000008E
:40668000000000000000000000000000000000000103030707070F0F1F1F1F1F1F3F3F3F7F7F7F7F7F7F7F7F7F7F7F7F7F7F7F7F7F7F7F7F7F7F7F7F3F3F3F1F1F1F1F0F18
:4066C0000F0F070703030101000000000000000000000000000000000000000000000000000000000000000000000000000000000000000000000000000000000000000066
:4067000000000000000000000000000000000000000000000000000000000000011D4C33001B2A00AA000000000000000000000000000000000000000000000000000000CD
:4067400000000103070F0F1F3F7F7FFFFFFFFEFEFCFCF8F8F0F0E0E0E0C0C0C080808080808080808080808080808080808080808080808080C0C0C0E0E0E0E0F0F8F8F8DB
:40678000FCFEFEFFFFFFFF7F7F3F1F0F070301000000000000000000000000000000000000000000000000000000000000000000000000000000000000000000000000006F
:4067C00000000000000000000000000000000000000000000000000000011D4C33001B2A00AA000000000000000000000000000000000000000000000000010F1F3F7FFF21
:40680000FFFFFFFEFCF8F0E0C0870F1F1F3F7F7F7F7E7E7E3E3F1F00000000000101010101010000000000000000010101010101010100000000000000000101010101011F
:40684000010080C0E0F0F8FCFFFFFFFFFF7F3F0F03000000000000000000000000000000000000000000000000000000000000000000000000000000000000000000000048
:4068800000000000000000000000000000000000000000000000011D4C33001B2A00AA00000000000000000000000000000000000000000000003FFFFFFFFFFFFFFFE0C074
:4068C000000000000000F0F9FFFFFFFFFF1F1F0F0F0F0F00001F7FFFFFFFFFFBF3F9F9F9F8F800003F7FFFFFFFFFFBF3F9F9F9F800000F3F7FFFFFFFF8F0F0F8FFFFFFFFB6
:406900003F1F00000000C0F8FFFFFFFFFFFFFF3F00000000000000000000000000000000000000000000000000000000000000000000000000000000000000000000000009
:4069400000000000000000000000000000000000000000011D4C33001B2A00AA0000000000000000000000000000000000000000000000FEFFFFFFFFFFFFFF07010000008C
:40698000000078FFFFFFFFFFFFCF87878787878707000F8FC7C7E7E7E7FFFFFFFFFF7F1C000F87C7E7E7E7F7FFFFFFFFFF7E00F8FEFFFFFFFF07070707FFFFFFFFFFFC0067
:4069C000000000031FFFFFFFFFFFFFFFFC00000000000000000000000000000000000000000000000000000000000000000000000000000000000000000000000000000080
:406A000000000000000000000000000000000000011D4C33001B2A00AA00000000000000000000000000000000000000000000000080F0F8FEFFFFFFFFFF7F3F0F07030191
:406A40000180C0C0C0E0E0E0E0E0E0C0C0C00080C0C0E0E0E0E0E0E0C0C080000000C0C0C0E0E0E0E0E0E0C08080000000008080C0E0E0E0E0E0E0C0C08103070F1F3F7F5E
:406A8000FFFFFFFFFEFCF8E0800000000000000000000000000000000000000000000000000000000000000000000000000000000000000000000000000000000000000088
:406AC00000000000000000000000000000011D4C33001B2A00AA000000000000000000000000000000000000000000000000000000000080C0E0F0F8F8FCFEFFFFFFFF7F95
:406B00003F3F1F1F0F0F0707070703030101010101010000000000000000000000000000000001010101010303030707070F0F0F1F1F3F7F7FFFFFFFFFFEFCF8F0F0E0805A
:406B40000000000000000000000000000000000000000000000000000000000000000000000000000000000000000000000000000000000000000000000000000000000015
:406B800000000000000000000000011D4C33001B2A00AA0000000000000000000000000000000000000000000000000000000000000000000000000000808080C0E0E0E069
:406BC000F0F0F8F8F8F8FCFCFCFEFEFEFEFEFEFEFEFEFFFFFFFFFFFFFFFFFFFFFEFEFEFEFEFEFEFEFEFCFCFCF8F8F8F0F0F0E0E0C0C0808000000000000000000000000023
:406C00000000000000000000000000000000000000000000000000000000000000000000000000000000000000000000000000000000000000000000000000000000000054
:406C400000000000000000011D4C33001B2A00AA00000000000000000000000000000000000000000000000000000000000000000000000000000000000000000000000088
:406C800000000000000F1F3F3F3F3F3F3F3E3F3F3C383F3F38303F3E3C383F3F3F3F3F3F3F3F3F1F0F000000000000000000000000000000000000000000000000000000C0
:406CC0000000000000000000000000000000000000000000000000000000000000000000000000000000000000000000000000000000000000000000000000000000000094
:406D000000000000011D4C33001B2A00AA000000000000000000000000000000000000000000000000000000000000000000000000000000000000000000000000000000C7
:406D40000000FFFFFFFEFEC6E2F01304C8101020606060201010C884933062E6E6EEFFFFFFFF000000000000000000000000000000000000000000000000000000000000DC
:406D800000000000000000000000000000000000000000000000000000000000000000000000000000000000000000000000000000000000000000000000000000000000D3
:406DC00000011D4C33001B2A00AA0000000000000000000000000000000000000000000000000000000000000000000000000000000000000000000000000000000000FF08
:406E0000FFFFEF676604E0F804020101000000000001010204F8E1094CCEEEEFFFFFFF000000000000000000000000000000000000000000000000000000000000000000D6
:406E40000000000000000000000000000000000000000000000000000000000000000000000000000000000000000000000000000000000000000000000000000000011DF4
:406E80004C33001B2A00AA0000000000000000000000000000000000000000000000000000000000000000000000000000000000000000000000000000000000FFFFFFFF68
:406EC0007F7F7FEF0F1F3F03078FDFC3C19F0F037F3F1FCFFFFFFFFFFFFFFFFF00000000000000000000000000000000000000000000000000000000000000000000000068
:406F00000000000000000000000000000000000000000000000000000000000000000000000000000000000000000000000000000000000000000000000000011D4C3300B4
:406F40001B2A00AA00000000000000000000000000000000000000000000000000000000000000000000000000000000000000000000000000000000000080C0C0C0C0C0E2
:406F8000C0C0C0C0C0C0C0C0C0C0C0C0C0C0C0C0C0C0C0C0C0C0C0800000000000000000000000000000000000000000000000000000000000000000000000000000000011
:406FC0000000000000000000000000000000000000000000000000000000000000000000000000000000000000000000000000000000000000000000011D4C33001B2A00AF
:40700000AA00000000000000000000000000000000000000000000000000000000000000000000013FFFFFFC7F1F1FFFFFF8C103071434373F3F1C003137FFFC703003DFF0
:40704000DFD8070F1F38313F3F1F001F3F3F18393F3F1C0103071434373F3F1C000FFFFFE00000000000000000000000000000000000000000000000000000000000000085
:407080000000000000000000000000000000000000000000000000000000000000000000000000000000000000000000000000000000000000011D4C33001B2A00AA000044
:4070C0000000000000000000000000000000000000000000000000000000000000000000C0C0C0000080C0C0C1800080C0C0C08080C0C1000080C0C0C000C0C0C00000804E
:40710000C0C0C0C0C0810040C0C00000C0C0C00080C0C0C08080C0C000C0C0C00000000000000000000000000000000000000001000000000000000000000000000000008D
:407140000000000000000000000000000000000000000000000000000000000000000000000000000000000000000000000000000000011D4C33001B2A00AA000000000083
:4071800000000000000000000000000000000000000000000000000000000000000000000000000000F80800786800007E7000F80070781800B800685800B8007820400001
:4071C0000038F800786800007818600078780070187800685800006858007868007820400078186000B8007820400000E800000000000000000000000000000000000000FF
:407200000000000000000000000000000000000000000000000000000000000000000000000000000000000000000000000000011D4C33001B2A00AA0000000000000000C2
