:400000000080002011000000156B0000156B000008B5044B1A6803F53F5302331A6006F07BFD00BFFA46004010B5054C237833B9044B13B10448AFF300800123237010BDF9
:40004000D083FF1F00000000DC880000084B10B51BB108480849AFF300800848036803B910BD074B002BFBD0BDE81040184700BF00000000DC880000D483FF1F0881FF1FE5
:400080000000000008B507F04DFE024A13780133137008BDED8DFF1F08B508F0FDF80849D1E90023013243F10003C1E900230549D1E90023013243F10003C1E9002308BD20
:4000C0009088FF1F088AFF1F08B508F079F80849D1E90023013243F10003C1E900230549D1E90023013243F10003C1E9002308BD0895FF1FF08DFF1F08B507F0CFFA07F09E
:40010000D9F906F03DFF07F033F806F0E7FE07F085FB07F03DFF054808F030F908F000F9034808F059F908F08FF808BD99000000C900000010B51C4B1878002107F0B2FAFA
:400140001A4B1878012107F0ADFA194B1878022107F0A8FA174B1878032107F0A3FA164B1878042107F09EFA144B1878052107F099FA134B1878062107F094FA114C20789D
:400180000C2107F08FFA94F808010D2107F08AFA94F810020E2107F085FA94F818030F2107F080FA10BD00BF2F8AFF1FFC94FF1F988DFF1F308AFF1FFA94FF1F1095FF1F2E
:4001C000EB8DFF1F6084FF1F10B5022007F0D4FA234B1870032007F0CFFA224B1870042007F0CAFA204B1870052007F0C5FA1F4B1870062007F0C0FA1D4B1870072007F069
:40020000BBFA1C4B1870082007F0B6FA1A4B1870092007F0B1FA194B18700A2007F0ACFA174C20700B2007F0A7FA60700423154A1370154A13700C2007F09EFA134C2070C5
:400240000D2007F099FA84F808010E2007F094FA84F810020F2007F08FFA84F8180310BD988DFF1F308AFF1FFA94FF1F1095FF1FEB8DFF1FD48DFF1F1195FF1FEC8DFF1FF4
:40028000E88DFF1F0C81FF1FEC89FF1F6084FF1F10B59CB0994A19AB07CA03C31A80984B16AC93E8070003C42280964A13AC07CA03C4228010AC03F10C0207CA03C4227031
:4002C00000228DF849200DAC03F1180103C984E80300ADF83C200AAC03F1240207CA03C4228007AC03F1300207CA03C4228004AC03F13C0207CA03C4228001AC483393E810
:40030000070003C42280804B1B78022B7AD10120014603F077FE012019A9002203F02CFF4FF4967007F006F8784B1B785BB90133DBB2774A82F8023182F80A32012016A917
:40034000002203F019FF714B1B78012B0BD10133DBB26F4A82F8023182F80A32012013A9002203F009FF694B1B78022B0BD10133DBB2674A82F8023182F80A32012010A923
:40038000002203F0F9FE614B1B78032B0BD10133DBB25F4A82F8023182F80A3201200DA9002203F0E9FE5B4B1B783BB901200AA9162203F0E1FE0522574B1A70554B1B78B7
:4003C000012B07D1012007A9162203F0D5FE0622514B1A704F4B1B78022B07D1012004A9162203F0C9FE07224B4B1A70494B1B78032B07D1012001A9162203F0BDFE082299
:40040000454B1A70404B1B78042B6DD101202E2103F0F8FD012019A9002203F0ADFE4FF4967006F087FF394B1B787BB90133DBB2374A82F8023182F80A3282F8123382F82E
:400440001A34012016A9002203F096FE2F4B1B78012B0FD10133DBB22D4A82F8023182F80A3282F8123382F81A34012013A9002203F082FE254B1B78022B0FD10133DBB227
:40048000234A82F8023182F80A3282F8123382F81A34012010A9002203F06EFE1B4B1B78032B0FD10133DBB2194A82F8023182F80A3282F8123382F81A3401200DA900227C
:4004C00003F05AFE134B1B78012B04D1012007A9162203F051FE0F4B1B78022B04D1012004A9162203F048FE074B1B78012B03D80120002103F086FD1CB010BD6C89000014
:40050000E0880000788900001D95FF1F2F8AFF1F6084FF1F1095FF1FEB8DFF1F08B5104B1B78022B06D10220012103F06BFD00220C4B1A600A4B1B78042B03D102202E21B3
:4005400003F060FD064B1B78012B03D80220002103F058FD02200449002203F00DFE08BD1D95FF1F5491FF1F1481FF1F08B502F0CDFC2D4B1870002855D02C4B187802F01D
:40058000ADFC03F07FFA50B90120002103F03AFD0220002103F036FD0022234B1A70234B93F8080102F09AFC03F06CFA50B90120002103F027FD0220002103F023FD002271
:4005C000194B1A70194B187802F088FC03F05AFA48B3164B93F8080102F080FC03F052FA08B302F093FC104B1870104B187802F075FC06280DD10D4B93F8080102F06EFCFE
:40060000062806D1094B187803F0E2FBFFF792FD08BD0120092103F0F5FC0220092103F0F1FCFFF7A3FF08BD1D95FF1F6084FF1F70B58EB02E4C07AD04F154060FCE0FC59C
:4006400096E8070003C52A806D4670340FCC0FC594E8070003C52A80002408E00EAB2344012013F81C1C04F05DF80134E4B2192CF4D901200A2104F055F801200A2104F005
:4006800051F801200A2104F04DF801200A2104F049F801200A2104F045F801200A2104F041F8002408E00EAB2344022013F8381C04F038F80134E4B2192CF4D902200A21FA
:4006C00004F030F802200A2104F02CF802200A2104F028F802200A2104F024F802200A2104F020F802200A2104F01CF80EB070BDE0880000F0B585B0B24B1B68132B01F22F
:40070000C881DFE813F0140027004D00A9006D019B011902910201038B036104B4043B05C9051E06730717086C08ED08C009FFF7AFFD0122A34B1A6007F076FB07F0D8FAB3
:400740000023A14A1370A14A82F8613082F8033101F09FB908229E4B83F8032106F01EFC082841F096819B4B1B78DBB2AA2B10D1984B9B79DBB2C32B0BD1964BDB79DBB2F5
:400780003C2B06D102228F4B1A600120042103F039FC0A2006F0CEFD06F02EFC01F079B906F0FCFB082841F074818A4B1B78DBB2AA2B4AD1874B9B79DBB2C32B45D1854B78
:4007C000DB79DBB23C2B40D1824BDB78DBB2452B24D004D80D2B07D00E2B10D035E07E2B2CD0942B22D030E00322764B1A600120764B83F86100052103F004FC25E00A22A8
:40080000704B1A600222714B83F8612000226E4B1A700120852103F0F5FB16E00C22694B1A600120832103F0EDFB0EE00022654B1A600120014603F0E5FB06E00022614B7D
:400840001A600120014603F0DDFB0A2006F072FD06F0D2FB01F01DB906F0A0FB082841F018815C4B1B78DBB2AA2B40F0A380594B9B79DBB2C32B40F09D80564BDB79DBB236
:400880003C2B40F09780534BDB78DBB23B2B00F0828004D80F2B0BD0102B25D08AE07E2B00F08180942B6ED0432B40F0838037E00422444B1A60454B022483F86340442271
:4008C00083F864200025444B1D700120062103F099FB0120009001954E23029324210322234603F071FC65E00422364B1A60374B012483F86340562583F864500026364BED
:400900001E7020460D2103F07DFB009401964E230293204629460322022303F055FC49E02A4B022283F86320462283F86420012306E0264A1A44392182F865100133DBB28D
:400940001A4626490978481E8342F2DB1F4B9C18302084F8650084F8660083F86510002307E01A4A1A4492F8650082F86F000133DBB28B42F5D90522124B1A600120862148
:4009800003F040FB16E000220E4B1A600120014603F038FB0EE000220A4B1A600120014603F030FB06E00022064B1A600120014603F028FB0A2006F0BDFC06F01DFB01F002
:4009C00068B800BF008EFF1FED8DFF1F9C88FF1F6084FF1F2495FF1FEE8DFF1FEB8DFF1F0120894B1978002203F052FC18B1012815D001F04EB80022844B1A600120014600
:400A000003F000FB01F045B8814A1A4492F84B1082F8651082F86F100133DBB200E000237B4A92F84B209A42EED20522774B1A600120862103F0E6FA01F02BB806F0AEFA5A
:400A4000082841F02680734B1B78DBB2AA2B6CD1704B9B79DBB2C32B67D16E4BDB79DBB23C2B62D16B4BDB787E3B3A2B5DD8DFE803F055351E295C5C5C5C5C5C5C5C5C5C4A
:400A80005C5C5C5C5C5C5C5C4D5C5C5C5C5C5C5C5C5C5C5C5C5C5C5C5C5C5C5C5C5C5C5C5C5C5C5C5C5C5C5C5C5C5C5C41000622564B1A600120584B83F801010B2103F091
:400AC000A1FA32E00622514B1A600222524B83F8012101200B2103F095FA26E006224B4B1A6003224C4B83F8012101200B2103F089FA1AE00622454B1A600422464B83F826
:400B0000012101200B2103F07DFA0EE000223F4B1A600120014603F075FA06E00120014603F070FA0022394B1A600A2006F002FC06F062FA00F0ADBF384807F067F907F099
:400B400037F906F02BFA08284DD1324B1B78DBB2AA2B43D12F4B9B79DBB2C32B3ED12D4BDB79DBB23C2B39D12A4BDB78DBB2392B04D07E2B2BD0382B30D10FE00922234B57
:400B80001A600022264B1A70214B012083F8000183F834010A2103F035FA1FE01C4B93F803313BB10022194B1A600120014603F029FA13E00721154B19600023144A82F81A
:400BC0003431184A1370012003F01CFA06E000220E4B1A600120014603F014FA0A2006F0A9FB06F009FA0F4B1B781D2B40F251870023064A13600B4A13700120014603F028
:400C000001FA00F046BF00BFEB8DFF1F008EFF1F9C88FF1F2495FF1F6084FF1F85000000EE8DFF1FED8DFF1FAD4C207803F080F9014684F8000194F8013198423BD1A94A9A
:400C400092F863302078653203F0030302F038FF012822D107F0E8F807F04AF82546207802F03CF9207840F0100006F0B9FC012485F8074108219C4B196000229B4B1A7028
:400C8000984D85F83541204603F0BCF9204605F16501122203F070FA10E00021924B1960012003F0AFF9C82006F044FB0120014603F0A8F902E007228B4B1A6006F06EF907
:400CC00008281DD18A4B1B78DBB2AA2B15D1884B9B79DBB2C32B10D1854BDB79DBB23C2B0BD1834BDB78DBB27E2B06D10120014603F088F900227C4B1A600A2006F01AFB4D
:400D000006F07AF900F0C5BE754C207802F0E6F884F804010638052800F2BB86DFE810F00600B906B90616002200500000236E4A13600C216A4A82F803116A4A82F835316B
:400D40000120014603F05EF900F0A3BE654A012382F83531002182F80311614A82F8033100F097BE5E4B187802F0A8FC002800F090865C4B93F83431012B0DD15D4B18789A
:400D8000574B197803F0A0FE0022574B1A600120014603F037F909E00622534B1A600120504B83F803010B2103F02CF900224D4B83F8352101224A4B83F8072100F069BE01
:400DC000474B187802F07AFC002800F06286454B93F83431012B0DD1464B1878404B197803F072FE0022404B1A600120014603F009F909E006223C4B1A600120394B83F889
:400E000003010B2103F0FEF80022364B83F835210122334B83F8072100F03BBE01200A21002203F035FA18B1012845D000F031BE2C4B93F80031013B032B39D8DFE803F01A
:400E40000A1D2935274A1A44002182F8DF100133DBB200E000230A2BF4D90022224B1A600120014603F0CEF822E01E4A1A44002182F8EA100133DBB200E000230A2BF4D981
:400E800016E0184A1A44002182F8F5100133DBB200E000230A2BF4D90AE0124A1A44002182F836110133DBB200E000230A2BF4D906F0A2F800F0EDBD0A4B93F80031013B53
:400EC000032B7DD8DFE803F01840565C054A1A4492F84B1082F8DF100133DBB20DE000BF6084FF1F9C88FF1F008EFF1FED8DFF1F2495FF1F1195FF1F0023B04A92F84B200E
:400F00009A42E3D2AD4B93F803316BB1AC4B1878AC4B197803F0D8FD0022AB4B1A600120014603F06FF84BE00721A74B1960012003F068F844E0A14A1A4492F84B1082F824
:400F4000EA100133DBB200E000239C4A92F84B209A42F0D207219C4B1960012003F052F82EE0964A1A4492F84B1082F8F5100133DBB200E00023914A92F84B209A42F0D272
:400F8000002307E08D4A1A4492F84B1082F836110133DBB20A2BF5D90E228B4B1A6000228A4B1A700A228A4B1A702A22894B1A700322824B83F800210120252103F022F850
:400FC00006F01AF800F065BD05F0E8FF082840F06085814B1B78DBB2AA2B41D17E4B9B79DBB2C32B3CD17C4BDB79DBB23C2B37D1794BDB78DBB2942B23D002D87E2B28D096
:401000002EE0B62B02D0B72B0ED029E00B226E4B1A6000226D4B1A700120684B83F83401122102F0EFFF1BE00023644A82F800310721654A1160694A1370012002F0E2FFE2
:401040000EE00022604B1A600120014602F0DAFF06E00120014602F0D5FF00225A4B1A600A2006F067F905F0C7FF00F012BD5C4806F0CCFE06F09CFE012004F0A5FC0128E6
:401080006CD1332104F0E2FC40B967E0012004F047FD544B18550134E4B200E00124082CF4D90020012405E04E4B195D04F074FD0134E4B2072CF7D94A4B1B7ADBB283426F
:4010C0004CD110233D4A5370012230E010464549895C01F00F01092908DD4249895C374C1C4401F00F013731617007E03D49895C324C1C4401F00F0130316170013BDBB289
:401100003849095C9F2907D93649095C2B48184409093731417006E03249095C27481844090930314170013BDBB20132D2B2082ACCD90120132102F065FF05F05DFF4FF4F8
:401140002F7006F0F7F802221C4B83F8002109221D4B1A6001200E2102F054FF1F4B1B783B2B40F296840023174A13601B4A13700120014602F046FF00F08BBC05F00EFFBC
:40118000082840F08684144B1B78DBB2AA2B7DD1114B9B79DBB2C32B78D10F4BDB79DBB23C2B73D10C4BDB78DBB2552B34D01BD83B2B54D0462B1ED068E000BF9C88FF1F29
:4011C0001195FF1F6084FF1F008EFF1FEE8DFF1F9A88FF1FD58DFF1F2495FF1FED8DFF1F85000000BC94FF1F942B40D0B52B28D07E2B4BD143E00D22AA4B1A60AA4B1B780D
:40120000012B04D101202A2102F0FCFE3EE00120232102F0F7FE39E00E22A24B1A600622A24B83F800210022A14B1A700522A14B1A702A22A04B1A700120252102F0E2FE5B
:4012400024E00022974B1A609C4B012183F807110B2283F80321084602F0D4FE16E00022904B1A600120014602F0CCFE0EE000228C4B1A600120014602F0C4FE06E000225C
:40128000884B1A600120014602F0BCFE0A2006F051F805F0B1FEFCE305F080FE082840F0F883874B1B78DBB2AA2B44D1844B9B79DBB2C32B3FD1824BDB79DBB23C2B3AD129
:4012C0007F4BDB78DBB2482B17D002D8472B05D031E07E2B20D0942B26D02CE00922714B1A600022724B1A700422704B83F800210120242102F086FE1DE00922694B1A60E5
:4013000000226B4B1A700422684B83F800210120242102F077FE0EE00120014602F072FE0022604B1A6006E00120014602F06AFE00225C4B1A600A2005F0FCFF05F05CFEB6
:40134000A7E301205B4B19785B4B1A7802F0A0FF10B101286ED09CE3544B93F80031013B052B64D8DFE803F0091A2F6344570021544AD1540133DBB200E00023042BF6D968
:401380000022484B1A600120014602F03BFE4EE000214D4AD1540133DBB200E00023454A12789342F4D300223E4B1A600120014602F028FE3BE03D4A1A44002182F8411155
:4013C0000133DBB200E000233A4A12789342F2D30022344B1A600120014602F013FE26E0324A1A44002182F841110133DBB200E00023304A12789342F2D30022294B1A60BC
:401400000120014602F0FEFD11E000212F4AD1540133DBB200E001232C4A12789A42F4D20022204B1A600120014602F0EBFD05F0E3FD2EE31D4B93F80031013B052B00F28F
:40144000D280DFE813F00F0052006800D0007E009400591C154A0A4492F84B00194AD054CBB200E00023042BF3D916480023037107F062F980B2164B1880C3B2154C2370D1
:40148000000A607020780A2106F00CF960780B2106F008F90F22034B1A6001205A2102F0B1FDA0E0008EFF1FD48DFF1F9C88FF1FEE8DFF1F9A88FF1FD58DFF1F6084FF1F1C
:4014C0002495FF1FB494FF1FF489FF1FEC89FF1F6493FF1FE88DFF1F8D4A1A4492F84B108C4AD1540133DBB200E000238A4A12789342F1D30F22894B1A6001205A2102F0FC
:4015000081FD70E0824A1A4492F84B1082F841110133DBB200E000237F4A12789342F1D313227E4B1A600120392102F06BFD5AE0774A1A4492F84B1082F841110133DBB23A
:4015400000E00023744A12789342F1D30F22734B1A6001205A2102F055FD44E06C4A1A4492F84B106E4AD1540133DBB200E001236B4A12789A42F1D2694B5A78694B5B7894
:401580009A4221D1664B9A78664B9B789A421BD1634BDA78634BDB789A4215D1604B1A79604B1B799A420FD10120262102F02AFD4FF42F7005F0BEFE0F22584B1A6001208F
:4015C0005A2102F01FFD0EE00120272102F01AFD4FF42F7005F0AEFE0022504B1A600120014602F00FFD05F007FD52E205F0D6FC082840F04E824C4B1B78DBB2AA2B40F002
:401600008180494B9B79DBB2C32B7BD1464BDB79DBB23C2B76D1444BDB78583B3C2B71D8DFE803F052703C707070707070707070703270707070707070707070707070708B
:4016400070707070707070707070617070701F707070707070707070707070707070707069000E222D4B1A600023304A1370304A13700522284B1A700120254B83F80001F1
:40168000062102F0BFFC3DE01022244B1A60FEF7CFFF01206B2102F0B5FC33E00E221F4B1A600023214A1370214A137003221A4B1A700223174A1370154A82F8003101209D
:4016C000062102F09FFC1DE01222144B1A600022164B1A7004220E4B83F8002101203E2102F090FC0EE00120014602F08BFC00220A4B1A6006E00120014602F083FC002265
:40170000064B1A600A2005F015FE05F075FCC0E19C88FF1FF489FF1F9A88FF1F008EFF1FEC89FF1F0C81FF1F2495FF1FEE8DFF1FD58DFF1F05F032FC082840F0AA81644B51
:401740001B78DBB2AA2B44D1614B9B79DBB2C32B3FD15F4BDB79DBB23C2B3AD15C4BDB78DBB2392B10D002D8382B05D031E07E2B20D0942B26D02CE01122564B1A60012060
:40178000672102F03FFC24E00F22524B1A600124514B1C70514D02232B702046082105F081FF2878092105F07DFF20465A2102F029FC0EE00120014602F024FC0022454B2C
:4017C0001A6006E00120014602F01CFC0022414B1A600A2005F0AEFD05F00EFC59E105F0DDFB082840F05581394B1B78DBB2AA2B68D1374B9B79DBB2C32B63D1344BDB791F
:40180000DBB23C2B5ED1324BDB787E3B162B59D8DFE803F049585858585858585858585858580C2035585858585851000F22294B1A600220284B1870284C2070082105F047
:4018400031FF2078092105F02DFF01205A2102F0D9FB37E00F221F4B1A6001241E4B1C701E4D2C702046082105F01CFF2878092105F018FF20465A2102F0C4FB22E00F226C
:40188000144B1A600020144B1870144C2070082105F008FF2078092105F004FF01205A2102F0B0FB0EE00120014602F0ABFB0022084B1A6006E00120014602F0A3FB002263
:4018C000044B1A600A2005F035FD05F095FBE0E02495FF1F008EFF1F1195FF1FEC8DFF1F02F0A0FF01283CD16B4F7978C1F30011303101240094002601964E25029520462D
:40190000C9B20D22082302F05FFC797801F00F01009401960295204630310D22092302F053FC00940196029520463A210D220A2302F04AFC3978090900940196029520466C
:4019400030310D220B2302F03FFC397801F00F01009401960295204630310D220C2302F033FC02F003FF01285DD14C4F3978C1F3011101240094002601964E25029520467F
:4019800030311522082302F01FFC397801F00F01009401960295204630311522092302F013FC00940196029520462F2115220A2302F00AFC7978C1F30011303100940196A2
:4019C00002952046C9B215220B2302F0FDFB797801F00F010094019602952046303115220C2302F0F1FB00940196029520462F2115220D2302F0E8FBB9780909009401963F
:401A000002952046303115220E2302F0DDFBB97801F00F010094019602952046303115220F2302F0D1FB05F0B9FA082831D11C4B1B78DBB2AA2B20D1194B9B79DBB2C32B1A
:401A40001BD1174BDB79DBB23C2B16D1144BDB78DBB27E2B02D0942B08D00EE00022114B1A600120014602F0CDFA06E000220D4B1A600120014602F0C5FA0A2005F05AFC29
:401A800005F0BAFA05E00123074A82F80731074A137005B0F0BD00BF1495FF1FD88DFF1F2495FF1F008EFF1F6084FF1F9888FF1FF0B585B0B64B1B68132B01F2D681DFE8C2
:401AC00013F014002B005400B0007701A50123029B020A0398037004C4044A05D7052C06810725087908FB08CE09FEF717FD0122A74B1A600822A74B83F80B2206F0C2F962
:401B000006F09CF90023A44A1370A44A82F8613082F8033101F0A9B90220232102F0FEFA08229C4B83F80B2205F030FB082841F09C819B4B1B78DBB2AA2B0FD1984B9B7933
:401B4000DBB2C32B0AD1964BDB79DBB23C2B05D102208F4B1860042102F054FA0A2005F0E9FB05F041FB01F080B905F00FFB082841F07B818A4B1B78DBB2AA2B4AD1884BC5
:401B80009B79DBB2C32B45D1854BDB79DBB23C2B40D1834BDB78DBB2452B24D004D80D2B07D00E2B11D035E07E2B2CD0942B22D030E00322764B1A600122784B83F8612083
:401BC0000220052102F01EFA24E00A22704B1A600220724B83F861000022724B1A70852102F010FA16E00C22694B1A600220832102F008FA0EE00022654B1A6002200121DE
:401C000002F000FA06E00022614B1A600220012102F0F8F90A2005F08DFB05F0E5FA01F024B905F0B3FA082841F01F815C4B1B78DBB2AA2B40F0A480594B9B79DBB2C32B54
:401C400040F09E80564BDB79DBB23C2B40F09880534BDB78DBB23B2B00F0838004D80F2B0BD0102B26D08BE07E2B00F08280942B6FD0432B40F0848038E00422444B1A60FF
:401C8000464B022483F86340442283F864200025454B1D702046062102F0B4F90123009301954E230293204624210322234602F08BFA65E00422364B1A60384B012683F8EE
:401CC0006360562483F864400025374B1D7002200D2102F097F9009601954E230293022021460322034602F06FFA49E02B4B022283F86320462283F86420012306E0274A5B
:401D00001A44392182F865100133DBB21A4627490978481E8342F2DB204B9C18302084F8650084F8660083F86510002307E01B4A1A4492F8650082F86F000133DBB28B429D
:401D4000F5D90522124B1A600220862102F05AF916E000220E4B1A600220012102F052F90EE000220A4B1A600220012102F04AF906E00022064B1A600220012102F042F981
:401D80000A2005F0D7FA05F02FFA01F06EB800BF5491FF1F6084FF1F9988FF1F4C8CFF1F4495FF1FED8DFF1FEE8DFF1FEB8DFF1F0220894B1978002202F06AFA18B1012856
:401DC00015D001F052B80022844B1A600220012102F018F901F049B8814A1A4492F84B1082F8651082F86F100133DBB200E000237B4A92F84B209A42EED20522774B1A60EC
:401E00000220862102F0FEF801F02FB805F0BEF9082841F02A80734B1B78DBB2AA2B6CD1704B9B79DBB2C32B67D16E4BDB79DBB23C2B62D16B4BDB787E3B3A2B5DD8DFE899
:401E400003F055351E2A5C5C5C5C5C5C5C5C5C5C5C5C5C5C5C5C5C5C4D5C5C5C5C5C5C5C5C5C5C5C5C5C5C5C5C5C5C5C5C5C5C5C5C5C5C5C5C5C5C5C5C5C5C5C41000622DB
:401E8000564B1A600122584B83F8092202200B2102F0B8F831E00622504B1A600220524B83F809020B2102F0ADF826E006224B4B1A6003224C4B83F8092202200B2102F075
:401EC000A1F81AE00622454B1A600422464B83F8092202200B2102F095F80EE000223F4B1A600220012102F08DF806E00220012102F088F80022394B1A600A2005F01AFA35
:401F000005F072F900F0B1BF384805F07FFF05F04FFF05F03BF908284ED1324B1B78DBB2AA2B44D12F4B9B79DBB2C32B3FD12D4BDB79DBB23C2B3AD12A4BDB78DBB2392B0F
:401F400004D07E2B2CD0382B31D110E00922234B1A600022264B1A70214B012283F8002183F8342102200A2102F04CF81FE01C4B93F803313BB10022184B1A600220012191
:401F800002F040F813E00721144B19600023144A82F83431174A1370022002F033F806E000220E4B1A600220012102F02BF80A2005F0C0F905F018F90E4B1B781D2B40F209
:401FC00054870023054A13600A4A13700220012102F018F800F049BFEB8DFF1F5491FF1F4C8CFF1F4495FF1F6084FF1F85000000EE8DFF1FED8DFF1FAE4C94F8080101F04E
:4020000097FF014684F8080294F80932984239D1A94A92F8633094F80801653203F0030301F04EFD01281FD105F02CFF05F006FF94F8080100F052FF94F8080140F0100043
:4020400005F0CEFA012384F80F3208219B4B196000229B4B1A70022001F0D4FF02209949122202F089F810E00021944B1960022001F0C8FFC82005F05DF90220012101F06C
:40208000C1FF02E007228D4B1A6005F07FF808281DD18D4B1B78DBB2AA2B15D18A4B9B79DBB2C32B10D1884BDB79DBB23C2B0BD1854BDB78DBB27E2B06D10220012101F025
:4020C000A1FF00227D4B1A600A2005F033F905F08BF800F0CABE774C94F8080100F0FEFE84F80C020638052800F2BF86DFE810F00600BD06BD0616001F00500000236F4A7D
:4021000013600C216B4A82F80B126B4A82F835310220012101F076FF00F0A7BE664B012283F83521002283F8032100F09EBE614B93F8080101F0C2FA002800F096865E4BA3
:4021400093F83431012B0ED1604B1878594B93F8081102F0B9FC0022584B1A600220012101F050FF0AE00622544B1A600122524B83F8032102200B2101F044FF00224E4BB0
:4021800083F8352101224B4B83F80F2200F06DBE484B93F8080101F091FA002800F06586454B93F83431012B0ED1484B1878414B93F8081102F088FC0022404B1A6002208B
:4021C000012101F01FFF0AE006223C4B1A600122394B83F8032102200B2101F013FF0022354B83F835210122324B83F80F2200F03CBE02200A21002202F04AF818B10128C6
:4022000045D000F032BE2C4B93F80031013B032B39D8DFE803F00A1D2935274A1A44002182F8DF100133DBB200E000230A2BF4D90022224B1A600220012101F0E3FE22E07C
:402240001D4A1A44002182F8EA100133DBB200E000230A2BF4D916E0174A1A44002182F8F5100133DBB200E000230A2BF4D90AE0114A1A44002182F836110133DBB200E0FD
:4022800000230A2BF4D904F0AFFF00F0EEBD0A4B93F80031013B032B7FD8DFE803F01942585E054A1A4492F84B1082F8DF100133DBB20EE06084FF1F4C8CFF1F5491FF1F7A
:4022C0009988FF1FB18CFF1F4495FF1FEC8DFF1F0023B04A92F84B209A42E2D2AD4B93F8033173B1AC4B1878AC4B93F8081102F0EBFB0022AA4B1A600220012101F082FEF9
:402300004BE00721A64B1960022001F07BFE44E0A04A1A4492F84B1082F8EA100133DBB200E000239B4A92F84B209A42F0D207219B4B1960022001F065FE2EE0954A1A440B
:4023400092F84B1082F8F5100133DBB200E00023904A92F84B209A42F0D2002307E08D4A1A4492F84B1082F836110133DBB20A2BF5D90E228A4B1A6000228A4B1A700A22F3
:40238000894B1A702A22894B1A700322814B83F800210220252101F035FE04F025FF00F064BD04F0F3FE082840F05F85804B1B78DBB2AA2B42D17E4B9B79DBB2C32B3DD171
:4023C0007B4BDB79DBB23C2B38D1794BDB78DBB2942B24D002D87E2B29D02FE0B62B02D0B72B0FD02AE00B226D4B1A6000226D4B1A700122674B83F834210220122101F0B8
:4024000001FE1BE00023634A82F800310721644A1160684A1370022001F0F4FD0EE000225F4B1A600220012101F0ECFD06E00220012101F0E7FD0022594B1A600A2004F0F8
:4024400079FF04F0D1FE00F010BD5B4805F0DEFC05F0AEFC022003F0B7FA01286BD1332103F0F4FA40B966E0022003F059FB534B18550134E4B200E00124082CF4D900204F
:40248000012405E04D4B195D03F086FB0134E4B2072CF7D9494B1B7ADBB283424BD110233C4A5370012230E010464449895C01F00F01092908DD4149895C364C1C4401F05A
:4024C0000F013731617007E03C49895C314C1C4401F00F0130316170013BDBB23749095C9F2907D93549095C2A48184409093731417006E03149095C2648184409093031FE
:402500004170013BDBB20132D2B2082ACCD90220132101F077FD04F067FE4FF42F7004F009FF02201B4B83F8000109221C4B1A600E2101F067FD1F4B1B783B2B40F295845F
:402540000023174A13601B4A13700220012101F059FD00F08ABC04F019FE082840F08584134B1B78DBB2AA2B7CD1114B9B79DBB2C32B77D10E4BDB79DBB23C2B72D10C4B39
:40258000DB78DBB2552B33D01AD83B2B53D0462B1DD067E04C8CFF1FEC8DFF1F6084FF1F5491FF1FEE8DFF1F9A88FF1FD58DFF1F4495FF1FED8DFF1F85000000BC94FF1F2B
:4025C000942B40D0B52B28D07E2B4BD143E00D22AA4B1A60AA4B1B78012B04D102202A2101F010FD3EE00220232101F00BFD39E00E22A24B1A600622A24B83F800210022BA
:40260000A14B1A700522A14B1A702A22A04B1A700220252101F0F6FC24E00022974B1A609C4B012183F80F120B2283F80B22022001F0E8FC16E00022904B1A6002200121D7
:4026400001F0E0FC0EE000228C4B1A600220012101F0D8FC06E00022884B1A600220012101F0D0FC0A2004F065FE04F0BDFDFCE304F08CFD082840F0F883874B1B78DBB275
:40268000AA2B44D1844B9B79DBB2C32B3FD1824BDB79DBB23C2B3AD17F4BDB78DBB2482B17D002D8472B05D031E07E2B20D0942B26D02CE00922714B1A600022724B1A7048
:4026C0000422704B83F800210220242101F09AFC1DE00922694B1A6000226B4B1A700422684B83F800210220242101F08BFC0EE00220012101F086FC0022604B1A6006E091
:402700000220012101F07EFC00225C4B1A600A2004F010FE04F068FDA7E302205B4B19785B4B1A7801F0B4FD10B101286ED09CE3544B93F80031013B052B64D8DFE803F001
:40274000091A2F6344570021544AD1540133DBB200E00023042BF6D90022484B1A600220012101F04FFC4EE000214D4AD1540133DBB200E00023454A12789342F4D300220E
:402780003E4B1A600220012101F03CFC3BE03D4A1A44002182F841110133DBB200E000233A4A12789342F2D30022344B1A600220012101F027FC26E0324A1A44002182F862
:4027C00041110133DBB200E00023304A12789342F2D30022294B1A600220012101F012FC11E000212F4AD1540133DBB200E001232C4A12789A42F4D20022204B1A60022092
:40280000012101F0FFFB04F0EFFC2EE31D4B93F80031013B052B00F2D280DFE813F00F0052006800D0007E009400591C154A0A4492F84B00194AD054CBB200E00023042B25
:40284000F3D916480023037105F076FF80B2164B1880C3B2154C2370000A607020780A2104F020FF60780B2104F01CFF0F22034B1A6002205A2101F0C5FBA0E05491FF1F0C
:40288000D48DFF1F4C8CFF1FEE8DFF1F9A88FF1FD58DFF1F6084FF1F4495FF1FB494FF1FF489FF1FEC89FF1F6493FF1FE88DFF1F8D4A1A4492F84B108C4AD1540133DBB23F
:4028C00000E000238A4A12789342F1D30F22894B1A6002205A2101F095FB70E0824A1A4492F84B1082F841110133DBB200E000237F4A12789342F1D313227E4B1A600220CC
:40290000392101F07FFB5AE0774A1A4492F84B1082F841110133DBB200E00023744A12789342F1D30F22734B1A6002205A2101F069FB44E06C4A1A4492F84B106E4AD154CE
:402940000133DBB200E001236B4A12789A42F1D2694B5A78694B5B789A4221D1664B9A78664B9B789A421BD1634BDA78634BDB789A4215D1604B1A79604B1B799A420FD18E
:402980000220262101F03EFB4FF42F7004F0D2FC0F22584B1A6002205A2101F033FB0EE00220272101F02EFB4FF42F7004F0C2FC0022504B1A600220012101F023FB04F052
:4029C00013FC52E204F0E2FB082840F04E824C4B1B78DBB2AA2B40F08180494B9B79DBB2C32B7BD1464BDB79DBB23C2B76D1444BDB78583B3C2B71D8DFE803F052703D70F9
:402A000070707070707070707033707070707070707070707070707070707070707070707070617070701F707070707070707070707070707070707069000E222D4B1A6028
:402A40000023304A1370304A13700522284B1A700122254B83F800210220062101F0D2FA3CE01022234B1A60FDF7E2FD02206B2101F0C8FA32E00E221E4B1A600023214AC3
:402A80001370214A13700322194B1A700220174B1870154B83F80001062101F0B3FA1DE01222144B1A600022164B1A7004220E4B83F8002102203E2101F0A4FA0EE0022093
:402AC000012101F09FFA00220A4B1A6006E00220012101F097FA0022064B1A600A2004F029FC04F081FBC0E14C8CFF1FF489FF1F9A88FF1F5491FF1FEC89FF1F0C81FF1F3A
:402B00004495FF1FEE8DFF1FD58DFF1F04F03EFB082840F0AA81644B1B78DBB2AA2B43D1614B9B79DBB2C32B3ED15F4BDB79DBB23C2B39D15C4BDB78DBB2392B10D002D82A
:402B4000382B05D030E07E2B1FD0942B25D02BE01122564B1A600220672101F053FA23E00F22524B1A600120514B1870514D02242C70082104F096FD2878092104F092FD93
:402B800020465A2101F03EFA0EE00220012101F039FA0022454B1A6006E00220012101F031FA0022414B1A600A2004F0C3FB04F01BFB5AE104F0EAFA082840F056813A4B66
:402BC0001B78DBB2AA2B68D1374B9B79DBB2C32B63D1354BDB79DBB23C2B5ED1324BDB787E3B162B59D8DFE803F049585858585858585858585858580C21355858585858DB
:402C000051000F22294B1A600224294B1C70294D2C702046082104F045FD2878092104F041FD20465A2101F0EDF936E00F221F4B1A6001201E4B18701E4C2070082104F01F
:402C400031FD2078092104F02DFD02205A2101F0D9F922E00F22154B1A600020144B1870144C2070082104F01DFD2078092104F019FD02205A2101F0C5F90EE00220012161
:402C800001F0C0F90022094B1A6006E00220012101F0B8F90022054B1A600A2004F04AFB04F0A2FAE1E000BF4495FF1F5491FF1F1195FF1FEC8DFF1F01F0B4FD01283CD122
:402CC0006B4F7978C1F30011303101260096002501954E2402940220C9B20D22082301F073FA797801F00F01009601950294022030310D22092301F067FA00960195029488
:402D000002203A210D220A2301F05EFA39780909009601950294022030310D220B2301F053FA397801F00F01009601950294022030310D220C2301F047FA01F017FD012819
:402D40005DD14C4F3978C1F3011101260096002501954E240294022030311522082301F033FA397801F00F01009601950294022030311522092301F027FA00960195029462
:402D800002202F2115220A2301F01EFA7978C1F3001130310096019502940220C9B215220B2301F011FA797801F00F010096019502940220303115220C2301F005FA00963A
:402DC0000195029402202F2115220D2301F0FCF9B97809090096019502940220303115220E2301F0F1F9B97801F00F010096019502940220303115220F2301F0E5F904F07A
:402E0000C5F9082831D11C4B1B78DBB2AA2B20D1194B9B79DBB2C32B1BD1174BDB79DBB23C2B16D1144BDB78DBB27E2B02D0942B08D00EE00022114B1A600220012101F079
:402E4000E1F806E000220D4B1A600220012101F0D9F80A2004F06EFA04F0C6F905E00123074A82F80F32074A137005B0F0BD00BF1495FF1FD88DFF1F4495FF1F5491FF1F12
:402E80006084FF1F9888FF1F08B562B6FDF734F9FDF76CFBFDF798F90320002104F06AFA04F088FA03F070FAFDF724FC04F082FAFEF7FEFD04F07EFA064A13780133DBB211
:402EC00013701378DBB20A2BEAD90022024B1A70E6E700BF1C95FF1F2E8AFF1F10B5044604F05CFB204604F07BFB3C2004F022FA04F020FB38B104F0EBFAC0F3071404F0EC
:402F00004DFB204610BD002010BD00BF10B5464BFF221A7083F8082183F8102283F81823012454E0204604F05BFB642004F002FA04F000FB38B13C4B1B78FF2B03D13A4B70
:402F40001C7004F02BFB04F0F5FA68B1364B1B78A34209D0344B93F80831FF2B04D1324B83F8084104F01AFB04F0E4FA90B12E4B1B78A3420ED02C4B93F80831A34209D076
:402F8000294B93F81032FF2B04D1274B83F8104204F004FB04F0CEFAB8B1234B1B78A34213D0214B93F80831A3420ED01E4B93F81032A34209D01C4B93F81833FF2B04D18E
:402FC000194B83F8184304F0E9FA0134E4B2102CA8D9154B1B78FF2B0ED0134A92F80821FF2A09D0104A92F81022FF2A04D00E4A92F81823FF2A0FD1FF2B04D00A4A92F816
:403000000821FF2A0AD1FF2B0AD1074B93F80831FF2B07D0012010BD042010BD022010BD012010BD002010BD6084FF1FF8B5054604F0B4FA45F0500004F0D2FA04F0BAF916
:403040004FF4617004F076F904F0B4F904F072FAC0B2222806D0402804D05E2802D07C2840F02281B44B1B78DBB2FF2B40F01881B14B5B78DBB2F62B40F01281AE4BDB789D
:40308000DBB2F92B40F00C81AC4CA4FB0030C0F30214AB4B1B78AB421DD0002699E0C5EB051006EB4603C3EB031203461344A44A13440B4400225A700131C9B200E0002180
:4030C0000D29ECD90135EDB200E00025022DF6D90136F6B200E00026032EF6D900252F4655E02B1D944AD05CC6EB061E07EB4703C3EB031273461344914A13445B1A00F07C
:403100000F0230329A720135EDB2022E01D1042905D00131C9B200E001210829E1D90135EDB20136F6B200E00026022EF4D90735EDB204220CE007EB4703C3EB0313804930
:403140000B44D11891F823101344D977013AD2B2002AF0D107EB4703C3EB0313784A134408225A701A740422DA77764B1B78DBB2012B0AD107EB4703C3EB0313704A1344FF
:403180000522DA77302283F824200137FFB2A742CAD304F003FA2046F8BDC5EB051006EB4603C3EB031203461344654A13440B44002283F809210131C9B200E000210D29A9
:4031C000EBD90135EDB200E00025022DF6D90136F6B2032EF8D900252F465BE02B1D564AD05CC6EB061E07EB4703C3EB031273461344534A13445B1A00F00F02303283F83E
:4032000012210135EDB2022E01D1042905D00131C9B200E001210829E0D90135EDB20136F6B200E00026022EF4D90735EDB204220DE007EB4703C3EB031341490B44D11882
:4032400091F82B11134483F82711013AD2B2002AEFD107EB4703C3EB0313394A1344082283F8092183F81821042283F82721354B1B78DBB2012B0BD107EB4703C3EB0313E8
:403280002F4A1344052283F82721302283F82C210137FFB2A742C5D304F080F92046F8BD04F07CF90020F8BD2E2806D0582804D0822802D0AC2840F00B811F4B1B78DBB2F4
:4032C000FF2B40F001811C4B5B78DBB2F62B40F0FB80194BDB78DBB2F92B40F0F5801A4CA4FB00304409164B1B78AB421DD0002694E0C5EB051006EB4603C3EB031203465D
:4033000013440F4A13440B4400225A700131C9B200E000210D29ECD90135EDB200E00025022DF6D90136F6B200E00026032EF6D900252F4650E000BF6495FF1F8988888824
:403340006084FF1F508FFF1FCDCCCCCC2B1D624AD05CC6EB061E07EB4703C3EB0312734613445E4A13445B1A00F00F0230329A730135EDB2022E01D1062905D00131C9B2AD
:4033800000E001210C29E1D90135EDB20136F6B200E00026022EF4D90935EDB206220CE007EB4703C3EB03134C490B44D11891F825101344D977013AD2B2002AF0D107EBA6
:4033C0004703C3EB0313454A13440C225A701A740622DA770137FFB2A742DAD304F0DEF82046F8BDC5EB051006EB4603C3EB031203461344394A13440B44002283F8092124
:403400000131C9B200E000210D29EBD90135EDB200E00025022DF6D90136F6B2032EF8D900252F464AE02B1D2B4AD05CC6EB061E07EB4703C3EB031273461344274A1344D2
:403440005B1A00F00F02303283F816210135EDB2022E01D1062905D00131C9B200E001210C29E0D90135EDB20136F6B200E00026022EF4D90935EDB206220DE007EB470365
:40348000C3EB031315490B44D11891F82D11134483F82711013AD2B2002AEFD107EB4703C3EB03130D4A13440C2283F8092183F81821062283F827210137FFB2A742D6D39D
:4034C00004F06CF82046F8BD04F068F80020F8BD04F064F80020F8BD6495FF1F6084FF1FF0B585B004460E461546714F6B4638687968BA6807C3B989BA7B19809A70012303
:4035000010E0EA5C2C2A0BD105E0EA1812F8012CEA54013BDBB2012BF7D830236B7003E00133DBB2062BECD9624B1B78072B4CD0E5238DF8013006F00F0363F01F038DF8ED
:4035400004305D4B1B7813F0FF0F0DD000231AE0EA5C04A9194402F00F0262F01F0201F80A2C0133DBB200E00023032BF0D90CE0EA5C04A9194402F00F0262F01F0201F876
:403580000A2C0133DBB2022BF2D9FB238DF80A3000230CE004AA1A4412F8102C02F00F029DF80B100A448DF80B200133DBB20A2BF0D99DF80B305B4203F00F0363F01F0387
:4035C0008DF80B30F0238DF80C303A4B1B78072B39D1E3238DF8013006F00F0666F01F068DF8046000230AE0EA5C04A9194402F00F0262F01F0201F80A2C0133DBB2052BC5
:40360000F2D9FB238DF80C3000230CE004AA1A4412F8102C02F00F029DF80D100A448DF80D200133DBB20C2BF0D99DF80D305B4203F00F0363F01F038DF80D30F0238DF8C6
:403640000E300E2600E00C2603F0A8FF44F0200003F0C6FF642003F06DFE03F06BFFF0B103F036FF44F0D00398421AD103F096FF002507E004AB2B4413F8100C03F0B0FFD1
:403680000135EDB2B542F5D903F088FF322003F051FE2046FFF722FC034620B904E0002302E0002300E00123184605B0F0BD00BF84890000EB8DFF1F508FFF1F10B5044688
:4036C00003F06CFF44F0400003F08AFFFA2003F031FE03F06FFEB74B1B78072B00F0F28003F028FF212840F0ED80B34B1B78DBB2FF2B40F0AF81B04B9B78DBB2F82B40F021
:40370000AB81AD4B93F82030DBB2F02B40F0A681AA4B1B78A3426AD1A74B5B7A03F00F033133A64A82F8FF3001230CE003F10B02A1498A5CA249C91A02F00F02303281F88D
:40374000F1200133DBB2042BF0D904229B4B83F8F1209C4B1B78DBB2012B06D1974B052283F8F120302283F8F62001230CE003F1100291498A5C9449C91A02F00F0230326A
:4037800081F8E3200133DBB2062BF0D906228B4B83F8E32001230CE003F1170286498A5C8949C91A02F00F02303281F8D5200133DBB2062BF0D97F4B1B78052B11D109E0E9
:4037C0005A1E7E49881890F8D5000B4483F8D500D3B200E00623012BF2D83022774B83F8D6200622754B83F8D520012010BD724B5B7A03F00F033133704A82F80732012313
:403800000CE003F10B026C498A5C6D49C91A02F00F02303281F8F9210133DBB2042BF0D90422664B83F8F921664B1B78DBB2012B06D1624B052283F8F921302283F8FE2121
:4038400001230CE003F110025B498A5C5E49C91A02F00F02303281F8EB210133DBB2062BF0D90622554B83F8EB2101230CE003F1170251498A5C5449C91A02F00F023032A8
:4038800081F8DD210133DBB2062BF0D9494B1B78052B11D109E05A1E4849881890F8DD010B4483F8DD01D3B200E00623012BF2D83022424B83F8DE210622404B83F8DD21F4
:4038C000012010BD3B4B1B78072B40F0C98003F031FE272840F0C680374B1B78DBB2FF2B40F0C280344B9B78DBB2F82B40F0BE80314B93F82630DBB2F02B40F0B9802F4B59
:403900001B78A3424BD12C4B5B7A03F00F0331332A4A82F8FF3001230CE003F10B0226498A5C2949C91A02F00F02303281F8F1200133DBB2062BF0D90622204B83F8F1209D
:4039400001230CE003F112021B498A5C1F49C91A02F00F02303281F8E3200133DBB2082BF0D90822154B83F8E32001230CE003F11C0211498A5C1549C91A02F00F023032EC
:4039800081F8D5200133DBB2072BF0D90B4B302283F8D620082283F8D520012010BD064B5B7A03F00F033133044A82F8073201231BE000BFEB8DFF1F6495FF1F6084FF1F1F
:4039C0006584FF1F508FFF1F6784FF1F6984FF1F03F10B0227498A5C2749C91A02F00F02303281F8F9210133DBB2062BF0D90622224B83F8F92101230CE003F112021D49AA
:403A00008A5C1F49C91A02F00F02303281F8EB210133DBB2082BF0D90822184B83F8EB2101230CE003F11C0212498A5C1449C91A02F00F02303281F8DD210133DBB2072B28
:403A4000F0D90E4B302283F8DE21082283F8DD21012010BD002010BD002010BD002010BD002010BD002010BD002010BD002010BD002010BD6495FF1F6784FF1F6084FF1F3D
:403A80006984FF1F30B1002802DB831F062B01D90020704701207047002104E003F00F030B44D9B201300378FB2BF7D103F00F028818404200F00F0040F0E000704700BF90
:403AC000F0B587B005460E46144600230193029303930493ADF81430FFF700FA0638C0B201280AD845F0200003F07AFD322003F021FC03F0EDFC074600E0002703F04EFD55
:403B000003F04CFD45F0D003BB4240F05381FF238DF80430E1238DF80530A94B1B78AB4240F0A180A74A92F8633063F00F038DF80630F6238DF80730013E06F00F0666F03F
:403B40001F068DF80860F8238DF8093092F86450462D09D006231AE006AA1A44E92102F8141C0133DBB200E00623974A127806329342F1DB1A4608E006A91144E02001F818
:403B8000140C0133DBB20132D2B20D2AF4D9442D20D120781A460CE0215C06AE164401F00F0161F01F0106F8141C0138C0B20132D2B2217819448A42EEDB134608E006A91B
:403BC0001144E02001F8140C0133DBB20132D2B20D2AF4D9562D20D120781A460CE0215C06AD154401F00F0161F01F0105F8141C0138C0B20132D2B2217819448A42EEDB6E
:403C0000134608E006A91144E02001F8140C0133DBB20132D2B20D2AF4D906AA1A44FB2102F8141C5D1CEDB201A8FFF735FF06AB2B4403F8140C0135EDB206AB2B44F02229
:403C400003F8142C002407E006AB234413F8140C03F0C6FC0134E4B2AC42F5D9322003F069FB0120A9E0564B93F80831AB4240F0A380564A92F8633063F00F038DF80630AA
:403C8000F6238DF80730013E06F00F0666F01F068DF80860F8238DF8093092F86450462D09D006231AE006AA1A44E92102F8141C0133DBB200E00623434A127806329342C7
:403CC000F1DB1A4608E006A91144E02001F8140C0133DBB20132D2B20D2AF4D9442D20D120781A460CE0215C06AE164401F00F0161F01F0106F8141C0138C0B20132D2B244
:403D0000217819448A42EEDB134608E006A91144E02001F8140C0133DBB20132D2B20D2AF4D9562D20D120781A460CE0215C06AD154401F00F0161F01F0105F8141C013865
:403D4000C0B20132D2B2217819448A42EEDB134608E006A91144E02001F8140C0133DBB20132D2B20D2AF4D906AA1A44FB2102F8141C5D1CEDB201A8FFF78EFE06AB2B44FE
:403D800003F8140C0135EDB206AB2B44F02203F8142C002407E006AB234413F8140C03F01FFC0134E4B2AC42F5D9322003F0C2FA012002E0002000E0002007B0F0BD00BF7C
:403DC0006084FF1F9C88FF1FEB8DFF1F4C8CFF1FF0B585B000AF0446FFF780F806280AD144F0200003F0FCFB322003F0A3FA03F06FFB054600E0002503F0D0FB44F0D00416
:403E0000AC4222D1FF233B71E9237B71FE23BB71EE23FB71E0233B727B72FB23BB72381DFFF73AFEF872F0233B73002408E007F11003234413F80C0C03F0D2FB0134E4B24F
:403E4000082CF4D9C82003F075FA03F073FBC6B2F31D23F00703ADEB030D6D46002404E003F036FB28550134E4B2B442F8D903F095FBAB7A03F00F03264A13702B7B03F022
:403E80000F03254A1370012B0AD1244A47211170612151706C2191702021D17011715171022B0CD11D4B55221A706B225A7020229A704722DA7061221A716C225A71AB7BB3
:403EC00003F00F03013B164A13702B7C03F00F03012B01D0042B02D10321124A1170032B00D013B902210F4A1170022B02D101220C4B1A70AB7C03F00F03013B0A4A1370E8
:403F00002B7D03F00F03094A137000201437BD46F0BD00BF2F8AFF1FFC94FF1F5C91FF1F988DFF1F308AFF1FFA94FF1F1095FF1FF0B585B000AF0446FEF7D0FF0638C0B2C3
:403F400001280AD844F0200003F04AFB322003F0F1F903F0BDFA054600E0002503F01EFB44F0D004AC422AD1FF233B71E9237B71FE23BB71E023FB71E1223A727B72FB2348
:403F8000BB72381DFFF788FDF872F0233B73002408E007F11003234413F80C0C03F020FB0134E4B2082CF4D9154B1B7823B14FF4FA7003F0BFF902E0962003F0BBF903F00D
:403FC000B9FAC5B2EB1D23F00703ADEB030D6E46002404E003F07CFA30550134E4B2AC42F8D903F0DBFA337B03F00F03012B03D1B07B00F00F0000E000201437BD46F0BDF6
:404000002F8AFF1F30B583B005460A4610496B460868496803C3130A8DF802308DF80320002410E0012D06D102AB234413F8080C03F004F805E002AB234413F8080C03F043
:40404000F5F80134E4B2072CECD903B030BD00BF948900002DE9F04387B005468C4616461C469DF83870BDF83CE00DF10408DFF8A89059F8080FD9F80410D9F80820D9F87B
:404080000C30A8E80F00B9F81030A8F800307A1C02FB04F303EB43039B001B128DF8063004FB02F404EB4404A3008DF80730C6EBC6035B001B128DF80830C6EBC6067300E9
:4040C0008DF8093020378DF80A709DF84030592B02D185238DF80B304FEA1E238DF80D308DF80EE08DF811C0002410E0012D06D106AB234413F8140C02F0A0FF05E006AB60
:40410000234413F8140C03F091F80134E4B2112CECD907B0BDE8F0839489000070B584B005460E466B46134C54F81C0F6168A26807C3A2891A808DF807608DF809600024D9
:4041400010E0012D06D104AB234413F8100C02F075FF05E004AB234413F8100C03F066F80134E4B20D2CECD9642003F0E3F804B070BD00BF94890000F0B585B007460E46E1
:40418000154600240DE0315D01230093002301934E23029338461F222B19FFF75BFF0134E4B2092CEFD905B0F0BD00BF054B04E0824201D15878704702331A78002AF7D14B
:4041C000002070472081FF1F2DE9F04387B005468C4616461C469DF83870BDF83CE00DF10408DFF8A89059F82C0FD9F80410D9F80820D9F80C30A8E80F00B9F81030A8F800
:4042000000307A1C02FB04F303EB43039B001B128DF8063004FB02F404EB4404A3008DF80730C6EBC6035B001B128DF80830C6EBC60673008DF8093023378DF80A709DF827
:404240004030592B02D185238DF80B304FEA1E238DF80D308DF80EE08DF811C0002410E0012D06D106AB234413F8140C02F0E6FE05E006AB234413F8140C02F0D7FF0134B3
:40428000E4B2112CECD907B0BDE8F0839489000030B585B00D461446012840F0108102F07DFE082840F02F82A84B1B78DBB2AA2B40F0FE80A54B9B79DBB2C32B40F0F8808E
:4042C000A24BDB79DBB23C2B40F0F280A04B1B78DBB2013DAB4200F39F809C4BD878FFF765FF0546A0F12003DBB20B2B2AD8984A13780133DBB213701378964A134483F85C
:404300004B008CB9924B1A781B7892490A4492F84B1001200090002201924E22029203220233FFF751FF78E0894B1B7801200090002201924E220292214603220233FFF7F3
:4043400043FF6AE0A0F12D03DBB2512B2AD8804A13780133DBB2137013787E4A134483F84B008CB97A4B1A781B787A490A4492F84B1001200090002201924E220292032228
:404380000233FFF721FF48E0714B1B7801200090002201924E220292214603220233FFF713FF3AE02C2838D1694B1B7813F0FF0F33D0694B1B7813F0FF0F2ED1644A1378A6
:4043C0000133DBB213700121634B19701378614A134483F84B008CB95D4B1A781B785D490A4492F84B1001200090002201924E22029203220233FFF7E7FE0EE0544B1B7823
:4044000001200090002201924E220292214603220233FFF7D9FE00E000254C4BDB78DBB20B2B26D14A4B1B7803F0FF042BB9142002F080FF02F0E0FD68E1454C23780120CF
:404440000090002201924E220292202103220233FFF7BAFE23783F4A134493F84B302C2B02D100223C4B1A70394A1378013BDBB213700A2D10D1364B1B7813F0FF0F0BD05A
:40448000334B1A78334B83F84B20142002F052FF02F0B2FD012439E12C4BDB78DBB2942B06D1142002F046FF02F0A6FD00242DE1142002F03FFF02F09FFD022426E102F001
:4044C00065FE082840F02181244B1B78DBB2AA2B40F01281214B9B79DBB2C32B40F00C811E4BDB79DBB23C2B40F006811C4B1B78DBB2013DAB4200F3B580184BD878FFF78D
:4045000055FE0546A0F12003DBB20B2B3BD8144A13780133DBB213701378124A134483F84B000CBB0E4B1A781B780E490A4492F84B1001220092002201924E2202920220C3
:4045400003220344FFF740FE8DE000BF2495FF1FEE8DFF1F9C88FF1F5B91FF1F4495FF1FFB94FF1F4C8CFF1F6A4B1B7801220092002201924E22029202202146024603444B
:40458000FFF722FE6FE0A0F12D03DBB2512B2CD8604A13780133DBB2137013785E4A134483F84B0094B95B4B1A781B785A490A4492F84B1001220092002201924E220292A3
:4045C000022003220344FFF7FFFD4CE0514B1B7801220092002201924E2202920220214602460344FFF7F0FD3DE02C283BD1494B1B7813F0FF0F36D0484B1B7813F0FF0F85
:4046000031D1444A13780133DBB213700121434B19701378424AD2783F490B4483F84B208CB93C4B1A781B780A4492F84B1001220092002201924E220292022003220344A4
:40464000FFF7C2FD0FE0334B1B7801220092002201924E2202920220214602460344FFF7B3FD00E000250B2D27D12A4B1B7803F0FF042BB9142002F05DFE02F0B5FD45E0F8
:40468000244C237801220092002201924E2202920220202102460344FFF796FD23781E4A134493F84B302C2B02D100221B4B1A70184A1378013BDBB213700A2D10D1154BB9
:4046C0001B7813F0FF0F0BD0124B1A78124B83F84B20142002F02EFE02F086FD012415E00F4BDB78DBB2942B06D1142002F022FE02F07AFD002409E0142002F01BFE02F06B
:4047000073FD022402E0022400E00224204605B030BD00BFFB94FF1F4C8CFF1F8088FF1F4495FF1F10B582B08DF804008DF8051003F0A4FA0720002103F0ECF958B100205A
:4047400011E002AB234413F8040C03F03FFA48B90134E4B200E00024012CF2D903F01AFA012000E0002002B010BD00BF38B504241DE003F083FA6820002103F0CBF9D0B954
:40478000204603F023FAC0B903F004FA0A2002F0D1FD6820012103F0BDF980B9251F03F041FA084B585503F0F5F90134E4B2062CDFD9012038BD002038BD002038BD00203B
:4047C00038BD00BFD88DFF1F10B582B004238DF80430134B1A788DF805205A788DF806209B788DF8073003F049FA6820002103F091F958B1002011E002AB234413F8040C20
:4048000003F0E4F948B90134E4B200E00024032CF2D903F0BFF9012000E0002002B010BD0495FF1F38B501241DE003F027FA6820002103F06FF9D0B9204603F0C7F9C0B99A
:4048400003F0A8F90A2002F075FD6820012103F061F980B9651E03F0E5F9084B585503F099F90134E4B2022CDFD9012038BD002038BD002038BD002038BD00BF1495FF1F81
:4048800010B582B001238DF80430124B1A788DF805205B788DF8063003F0F0F96820002103F038F958B1002011E002AB234413F8040C03F08BF948B90134E4B200E00024C4
:4048C000022CF2D903F066F9012000E0002002B010BD00BF5891FF1F38B504460E2900F2DA80DFE801F01221303F4ED85D6C7B8998A7B6C5D400704B2B44204693F88014C3
:40490000FFF710FF0135ADB200E00025B5F56C7FF1D3C0E0684B2B44204693F83018FFF701FF0135ADB200E00025B5F56C7FF1D3B1E0614B2B44204693F8E01BFFF7F2FE1D
:404940000135ADB200E00025B5F56C7FF1D3A2E0594B2B44204693F8901FFFF7E3FE0135ADB200E00025B5F56C7FF1D393E0534B2B44204693F84812FFF7D4FE0135ADB21D
:4049800000E00025B5F56C7FF1D384E04B4B2B44204693F8F815FFF7C5FE0135ADB200E00025B5F56C7FF1D375E0444B2B44204693F8A819FFF7B6FE0135ADB200E000253D
:4049C000B5F56C7FF1D366E03C4B2B44204693F8581DFFF7A7FE0135ADB200E00025B5F56C7FF1D357E0364B2B442046197CFFF799FE0135ADB200E00025B5F56C7FF2D38B
:404A000049E02F4B2B44204693F8C013FFF78AFE0135ADB200E00025B5F56C7FF1D33AE0274B2B44204693F87017FFF77BFE0135ADB200E00025B5F56C7FF1D32BE0204BE4
:404A40002B44204693F8201BFFF76CFE0135ADB200E00025B5F56C7FF1D31CE0184B2B44204693F8D01EFFF75DFE0135ADB200E00025B5F56C7FF1D30DE0124B2B44204638
:404A800093F88811FFF74EFE0135ADB200E00025B5F56C7FF1D320461B21FFF743FE20464021FFF73FFE20460A21FFF73BFE20460A21FFF737FE38BDB4CD0000ACDE00004E
:404AC000A4EF00009C000100F8B504460E46C54B1B78012B04D1C44B18780021FFF7FCFE20460A21FFF71EFE002506E02046BF4B595DFFF717FE0135EDB21D2DF6D92046B4
:404B00000A21FFF70FFE002506E02046B84B595DFFF708FE0135EDB21D2DF6D920460A21FFF700FE002506E02046B24B595DFFF7F9FD0135EDB21D2DF6D920460A21FFF729
:404B4000F1FD002506E02046AB4B595DFFF7EAFD0135EDB21D2DF6D920460A21FFF7E2FD002506E02046A54B595DFFF7DBFD0135EDB21D2DF6D920460A21FFF7D3FD0025AA
:404B800008E09E4B2B44204693F82010FFF7CAFD0135EDB20C2DF4D9FFF7E8FD012832D1974D2978C1F3011120463031FFF7BAFD297801F00F0120463031FFF7B3FD2046C1
:404BC0002F21FFF7AFFD6978C1F3001130312046C9B2FFF7A7FD697801F00F0120463031FFF7A0FD20462F21FFF79CFDA978090920463031FFF796FDA97801F00F012046B5
:404C00003031FFF78FFD20460A21FFF78BFD002508E07A4B2B44204693F83010FFF782FD0135EDB20C2DF4D9FFF7FCFD012820D1744D6978C1F3001130312046C9B2FFF718
:404C400071FD697801F00F0120463031FFF76AFD20463A21FFF766FD2978090920463031FFF760FD297801F00F0120463031FFF759FD20460A21FFF755FD002506E02046DA
:404C80005E4B595DFFF74EFD0135EDB21D2DF6D920460A21FFF746FD002508E0574B2B44204693F84010FFF73DFD0135EDB20C2DF4D9554DA5FB0635ED08204605F1300133
:404CC000FFF730FD05EB85056D00751B05F130012046C9B2FFF726FD20460A21FFF722FD002508E0454B2B44204693F85010FFF719FD0135EDB20C2DF4D920460A21FFF788
:404D000011FD424B1B78B34240F0318309E03B4B2B44204693F86010FFF704FD0135EDB200E000250C2DF2D920460A21FFF7FAFC002508E0314B2B44204693F87010FFF77C
:404D4000F1FC0135EDB20C2DF4D9314B1B78062B23D92E4B93F8F330302B03D100222B4B83F8F320022508E0284B2B44204693F8F110FFF7D7FC0135EDB2244B93F8F13017
:404D8000AB42F1D20FE0214B2B44204693F8F110FFF7C8FC0135EDB200E001251B4B93F8F130AB42EFD220462021FFF7BBFC2046124B93F88010FFF7B5FC20462F21FFF7AD
:404DC000B1FC002506E02046124B595DFFF7AAFC0135EDB2042DF6D920460A21FFF7A2FC002522E0DB8DFF1F1195FF1F9C8DFF1FDC94FF1F108AFF1F4084FF1F7481FF1FF9
:404E0000D88DFF1F1495FF1FCDCCCCCC6084FF1FEB8DFF1F5C91FF1FBF4B2B44204693F88410FFF77FFC0135EDB20C2DF4D9BB4B93F8E430302B03D10022B84B83F8E42092
:404E4000B64B93F8E43043B9B44B93F8E530302B03D10022B14B83F8E520B04B93F8E37013E0AE4A92F8E330DB1B1344204693F8E310FFF757FCAA4B1B789F4203D12046AC
:404E80002E21FFF74FFC013FFFB2002FE9D120462021FFF747FC3D4606E02046A14B595DFFF740FC0135EDB2042DF6D920460A21FFF738FC3D4608E0974B2B44204693F8C8
:404EC0009410FFF72FFC0135EDB20C2DF4D9934B93F8D630302B03D10022904B83F8D6208E4B93F8D63043B98C4B93F8D730302B03D10022894B83F8D720012510E0874BB8
:404F00002B44204693F8D510FFF70CFC864B1B789D4203D120462E21FFF704FC0135EDB27E4B93F8D530AB42E9D220462021FFF7F9FB2046784B93F88010FFF7F3FB204677
:404F40000A21FFF7EFFB794B93F86130012B42D109E0714B2B44204693F8A410FFF7E2FB0135EDB200E03D460C2DF2D9012508E06E4B2B44204693F8DF10FFF7D3FB01352F
:404F8000EDB26A4B93F8DF30AB42F1D220460A21FFF7C8FB3D4608E05F4B2B44204693F8B410FFF7BFFB0135EDB20C2DF4D9012508E05E4B2B44204693F86510FFF7B2FB16
:404FC0000135EDB2594B93F86530AB42F1D220460A21FFF7A7FB3D4606E020464E4B595DFFF7A0FB0135EDB21D2DF6D920460A21FFF798FB4D4B93F86130022B40F0B7813F
:4050000009E0454B2B44204693F8C410FFF78AFB0135EDB200E03D460C2DF2D9012508E0424B2B44204693F8EA10FFF77BFB0135EDB23E4B93F8EA30AB42F1D220460A2167
:40504000FFF770FB3D4608E0334B2B44204693F8D410FFF767FB0135EDB20C2DF4D9012507E0324B2B4420465978FFF75BFB0135EDB22E4B5B78AB42F3D220460A21FFF799
:4050800051FB3D4608E0244B2B44204693F8A410FFF748FB0135EDB20C2DF4D9012508E0224B2B44204693F8F510FFF73BFB0135EDB21E4B93F8F530AB42F1D220460A2167
:4050C000FFF730FB3D4608E0134B2B44204693F8E410FFF727FB0135EDB20C2DF4D9012301E00133DBB2114A92F8F5209A42F8D220460A21FFF716FB3D4608E0064B2B4456
:40510000204693F8F410FFF70DFB0135EDB20C2DF4D901230EE000BF7481FF1F6084FF1F308AFF1F5C91FF1F988DFF1F9C88FF1F0133DBB2B84A92F8F5209A42F8D22046E5
:405140000A21FFF7EFFA3D4608E0B44B2B44204693F80411FFF7E6FA0135EDB20C2DF4D9012301E00133DBB2AB4A92F8F5209A42F8D220460A21FFF7D5FA3D4608E0A74BE2
:405180002B44204693F81411FFF7CCFA0135EDB20C2DF4D9012301E00133DBB29E4A92F8F5209A42F8D220460A21FFF7BBFA3D4608E09A4B2B44204693F82411FFF7B2FA1D
:4051C0000135EDB20C2DF4D9012301E00133DBB2914A92F8F5209A42F8D220460A21FFF7A1FA3D4608E08D4B2B44204693F83411FFF798FA0135EDB20C2DF4D9012301E07C
:405200000133DBB2844A92F8F5209A42F8D220460A21FFF787FA3D4608E0804B2B44204693F84411FFF77EFA0135EDB20C2DF4D9012301E00133DBB2774A92F8F5209A425C
:40524000F8D220460A21FFF76DFA3D4608E0734B2B44204693F85411FFF764FA0135EDB20C2DF4D9012301E00133DBB26A4A92F8F5209A42F8D220460A21FFF753FA3D4643
:4052800008E0664B2B44204693F86411FFF74AFA0135EDB20C2DF4D9012301E00133DBB25D4A92F8F5209A42F8D220460A21FFF739FA3D4608E0594B2B44204693F874110B
:4052C000FFF730FA0135EDB20C2DF4D9012301E00133DBB2504A92F8F5209A42F8D220460A21FFF71FFA20460A21FFF71BFA3D4608E04A4B2B44204693F88411FFF712FADB
:405300000135EDB20C2DF4D920460A21FFF70AFA20460A21FFF706FA20460A21FFF702FA3D4608E03D4B2B44204693F89411FFF7F9F90135EDB20C2DF4D920460A21FFF7BB
:40534000F1F920460A21FFF7EDF920460A21FFF7E9F906E02046314BD95DFFF7E3F90137FFB21D2FF6D920460A21FFF7DBF92C4B93F80831B34240F0018309E0274B2B4490
:40538000204693F86010FFF7CDF90135EDB200E000250C2DF2D920460A21FFF7C3F9002508E01E4B2B44204693F87010FFF7BAF90135EDB20C2DF4D9012508E0184B2B44F5
:4053C000204693F8F911FFF7ADF90135EDB2144B93F8F931AB42F1D220462021FFF7A2F920460E4B93F88010FFF79CF920462F21FFF798F9002506E020460A4B595DFFF731
:4054000091F90135EDB2042DF6D920460A21FFF789F9002511E000BF9C88FF1F7481FF1F6084FF1F5C91FF1FBE4B2B44204693F88410FFF777F90135EDB20C2DF4D9BA4B8A
:4054400093F8EC31302B03D10022B74B83F8EC21B54B93F8EC3143B9B34B93F8ED31302B03D10022B04B83F8ED21012510E0AE4B2B44204693F8EB11FFF754F9AB4B1B7852
:405480009D4203D120462E21FFF74CF90135EDB2A54B93F8EB31AB42E9D220462021FFF741F9002506E02046A14B595DFFF73AF90135EDB2042DF6D920460A21FFF732F99B
:4054C000002508E0974B2B44204693F89410FFF729F90135EDB20C2DF4D9934B93F8DE31302B03D10022904B83F8DE218E4B93F8DE3143B98C4B93F8DF31302B03D1002276
:40550000894B83F8DF21012510E0874B2B44204693F8DD11FFF706F9864B1B789D4203D120462E21FFF7FEF80135EDB27E4B93F8DD31AB42E9D220462021FFF7F3F820466C
:40554000784B93F88010FFF7EDF820460A21FFF7E9F8794B93F86130012B42D109E0714B2B44204693F8A410FFF7DCF80135EDB200E000250C2DF2D9012508E06E4B2B4454
:40558000204693F8DF10FFF7CDF80135EDB26A4B93F8DF30AB42F1D220460A21FFF7C2F8002508E05F4B2B44204693F8B410FFF7B9F80135EDB20C2DF4D9012508E05E4B27
:4055C0002B44204693F86510FFF7ACF80135EDB2594B93F86530AB42F1D220460A21FFF7A1F8002506E020464E4B595DFFF79AF80135EDB21D2DF6D920460A21FFF792F88C
:405600004D4B93F86130022B40F0B88109E0454B2B44204693F8C410FFF784F80135EDB200E000250C2DF2D9012508E0424B2B44204693F8EA10FFF775F80135EDB23E4B6D
:4056400093F8EA30AB42F1D220460A21FFF76AF8002508E0334B2B44204693F8D410FFF761F80135EDB20C2DF4D9012507E0324B2B4420465978FFF755F80135EDB22E4B32
:405680005B78AB42F3D220460A21FFF74BF8002508E0244B2B44204693F8A410FFF742F80135EDB20C2DF4D9012508E0224B2B44204693F8F510FFF735F80135EDB21E4BBF
:4056C00093F8F530AB42F1D220460A21FFF72AF8002508E0134B2B44204693F8E410FFF721F80135EDB20C2DF4D9012301E00133DBB2114A92F8F5209A42F8D220460A2101
:40570000FFF710F8002508E0064B2B44204693F8F410FFF707F80135EDB20C2DF4D901230EE000BF7481FF1F6084FF1F308AFF1F5C91FF1F988DFF1F4C8CFF1F0133DBB216
:405740009F4A92F8F5209A42F8D220460A21FEF7E9FF002508E09B4B2B44204693F80411FEF7E0FF0135EDB20C2DF4D9012301E00133DBB2924A92F8F5209A42F8D2204629
:405780000A21FEF7CFFF002508E08E4B2B44204693F81411FEF7C6FF0135EDB20C2DF4D9012301E00133DBB2854A92F8F5209A42F8D220460A21FEF7B5FF002508E0814B0E
:4057C0002B44204693F82411FEF7ACFF0135EDB20C2DF4D9012301E00133DBB2784A92F8F5209A42F8D220460A21FEF79BFF002508E0744B2B44204693F83411FEF792FFB5
:405800000135EDB20C2DF4D9012301E00133DBB26B4A92F8F5209A42F8D220460A21FEF781FF002508E0674B2B44204693F84411FEF778FF0135EDB20C2DF4D9012301E007
:405840000133DBB25E4A92F8F5209A42F8D220460A21FEF767FF002508E05A4B2B44204693F85411FEF75EFF0135EDB20C2DF4D9012301E00133DBB2514A92F8F5209A420E
:40588000F8D220460A21FEF74DFF002508E04D4B2B44204693F86411FEF744FF0135EDB20C2DF4D9012301E00133DBB2444A92F8F5209A42F8D220460A21FEF733FF002549
:4058C00008E0404B2B44204693F87411FEF72AFF0135EDB20C2DF4D9012301E00133DBB2374A92F8F5209A42F8D220460A21FEF719FF20460A21FEF715FF002508E0314B0A
:405900002B44204693F88411FEF70CFF0135EDB20C2DF4D920460A21FEF704FF20460A21FEF700FF20460A21FEF7FCFE002508E0244B2B44204693F89411FEF7F3FE01356C
:40594000EDB20C2DF4D920460A21FEF7EBFE20460A21FEF7E7FE20460A21FEF7E3FE002506E02046174B595DFEF7DCFE0135EDB21D2DF6D920460A21FEF7D4FE20460A2112
:40598000FEF7D0FE20460A21FEF7CCFE20460A21FEF7C8FE20460A21FEF7C4FE20460A21FEF7C0FE20461D21FEF7BCFE20465621FEF7B8FE20463121FEF7B4FEF8BD00BF4E
:4059C0004C8CFF1F7481FF1F10B501281CD1002002F062FA4FF4FA7001F0C2FC012002F05BFA052001F0BCFC02F062FA034658B3412001F0B5FC02F05BFA0446F02001F08C
:405A0000AFFCF4B901231FE0002002F059FA4FF4FA7001F0A5FC012002F052FA052001F09FFC02F059FA034670B1412001F098FC02F052FA0446F02001F092FC1CB9012392
:405A400002E0002300E00023184610BD38B50D4601282DD000245AE0002002F01DFA0A2001F07EFC45FA04F313F0010F0AD0012002F012FA0A2001F073FC02F019FA034657
:405A800050B94BE0002002F007FA0A2001F068FC02F00EFA00283ED1322001F061FC012002F0FAF9322001F05BFC0134E4B200E00024072CD0D9012330E0002002F000FAC4
:405AC0000A2001F04DFC45FA04F313F0010F0AD0012002F0F5F90A2001F042FC02F0FCF9034648B91AE0002002F0EAF90A2001F037FC02F0F1F980B9322001F031FC0120B1
:405B000002F0DEF9322001F02BFC0134E4B2072CD3D9012302E0002300E00023184638BD38B5012819D000252C4631E0002002F0B3F90E2001F014FC012002F0ADF9072095
:405B400001F00EFC02F0B4F9A0400543EDB2642001F006FC0134E4B201E000252C46072CE4D917E0002002F0ABF90E2001F0F8FB012002F0A5F9072001F0F2FB02F0ACF90E
:405B8000A0400543EDB2642001F0EAFB0134E4B2072CE7D9284638BD4840002308E010F0010F03D0400880F08C0000E040080133072BF4D9704700BF30B5C1B005460C4625
:405BC000684609494FF4807202F0E0FD0023184605E0EA5C50401DF8000001339BB2621E9342F6DB41B030BD380D010038B5B34B93F803310B2B1BD1B04B93F80731012BCF
:405C000016D1AE4B1B78AE4C6371E623A3710B23E37120460921FFF7CFFF2072002405E0A74B185D02F04AFA0134A4B2082CF7D9A24B93F80B320B2B1CD1A04B93F80731E3
:405C4000012B17D19D4B93F808319D4C6371E623A3710B23E37120460921FFF7ADFF2072002405E0964B185D02F028FA0134A4B2082CF7D9914B93F813330B2B1CD18F4B98
:405C800093F80731012B17D18C4B93F810328C4C6371E623A3710B23E37120460921FFF78BFF2072002405E0854B185D02F006FA0134A4B2082CF7D9804B93F81B340B2BD2
:405CC0001CD17E4B93F80731012B17D17B4B93F818337B4C6371E623A3710B23E37120460921FFF769FF2072002405E0744B185D02F0E4F90134A4B2082CF7D9714B93F8DF
:405D00003531002B00F083806C4B93F80731012B7DD16A4A11786A4B5971AA2199710121D97192F800211A72664991F8632002F003025A7291F8650084B208E0021B614B64
:405D4000234493F86510604B9954013CA4B2002CF4D10A230CE0A3F10A025B498A5CD2B25749CA5412B93021554AD15401339BB2112BF0D90022524B9A74524B93F834315B
:405D800063B123461BE003F1130220204C49885400214D4AD15401339BB200E02346072BF1D90EE003F11300591C464A0A4492F8DF50434A15540020434AD0548BB2072BD7
:405DC000F0D91B2304E030213D4AD15401339BB2252BF8D93A4D28462721FFF7EDFE85F826000A2001F0A6FA05E0354B185D02F065F90134A4B2272CF7D90A2001F09AFA16
:405E00002E4B012283F80321002283F807212F4B93F83531002B00F09080284B93F80F32012B40F08A80254A92F80811244B5971AA2199710121D97192F808221A722349EF
:405E400091F8632002F003025A7291F8650084B208E0021B1D4B234493F865101A4B9954013CA4B2002CF4D10A230CE0A3F10A0215498A5CD2B21249CA5412B93021104A15
:405E8000D15401339BB2112BF0D900220C4B9A740E4B93F8343163B1234626E003F113022020074988540021074AD15401339BB200E02346072BF1D919E000BF6084FF1F58
:405EC000548FFF1F9C88FF1F448CFF1F4C8CFF1F03F11300591CB34A0A4492F8DF50B24A15540020B14AD0548BB2072BF0D91B2304E03021AC4AD15401339BB2252BF8D9EF
:405F0000A94D28462721FFF757FE85F826000A2001F010FA05E0A44B185D02F0CFF80134A4B2272CF7D90A2001F004FAA04B012283F80B22002283F80F229D4B93F80431AD
:405F40000A3BDBB2012B00F2B080994B93F80731012B40F0AA80964A1178934B5971A42199710221D97192F80011197292F8F10084B208E0021B8E4B234493F8F1108D4B07
:405F80009954013CA4B2002CF4D109230CE0A3F1090288498A5CD2B28349CA5412B93021814AD15401339BB20D2BF0D9824B1B78053BDBB2012B0CD901231BE003F10D01A7
:405FC0007E4AD21A92F8E300774A505401339BB200E00123764A92F8E3209A42EED20EE003F10D01764AD21A92F8E3006E4A505401339BB26E4A92F8E3209A42F0D26A4B2F
:406000001B7D1BB9684B30221A755A756A4B1B78053BDBB2012B0CD901231BE003F11501664AD21A92F8D5005F4A505401339BB200E001235E4A92F8D5209A42EED20EE0C4
:4060400003F115015E4AD21A92F8D500564A505401339BB2564A92F8D5209A42F0D2524B1B7F1BB9504B30221A775A774E4D28461F21FFF7A1FDA8770A2001F05BF905E0F7
:40608000494B185D02F01AF80134A4B21E2CF7D90A2001F04FF9464B082283F803210022484981F8352183F80721414B93F80C320A3BDBB2012B00F2C3803D4B93F80F3270
:4060C000012B40F0BD803A4A92F80811364B5971A42199710221D97192F80812197292F8F90184B208E0021B314B234493F8F911304B9954013CA4B2002CF4D109230CE0EF
:40610000A3F109022B498A5CD2B22749CA5412B93021254AD15401339BB20D2BF0D9264B1B78053BDBB2012B0CD901231BE003F10D01224AD21A92F8EB011B4A5054013314
:406140009BB200E001231A4A92F8EB219A42EED20EE003F10D011A4AD21A92F8EB01124A505401339BB2124A92F8EB219A42F0D20D4B1B7D1BB90C4B30221A755A750E4B4D
:406180001B78053BDBB2012B1ED901232DE003F115010A4AD21A92F8DD01034A505401339BB212E04C8CFF1F548FFF1F448CFF1F6084FF1F8488FF1FEB8DFF1F6784FF1F65
:4061C0006984FF1F9C88FF1F0123684A92F8DD219A42DCD20EE003F11501654AD21A92F8DD01644A505401339BB2604A92F8DD219A42F0D25F4B1B7F1BB95E4B30221A7728
:406200005A775C4D28461F21FFF7D6FCA8770A2001F090F805E0574B185D01F04FFF0134A4B21E2CF7D90A2001F084F84F4B082283F80B220022504981F8352183F80F2293
:406240004E4B1B78DBB2012B63D1484B93F80731012B5ED1454B1A78464B5A71E3229A710522DA7101220AE0D11D01339B1A4448034493F836013F4B5854013292B2404BA3
:4062800093F8363199B29142EED2082307E0394AD25C12B93021374AD15401339BB2122BF5D901220BE002F1120101339B1A3448034493F841012F4B5854013292B2304B58
:4062C00093F8413199B29142EDD2132307E0294AD25C12B93021274AD15401339BB21E2BF5D9244C20462121FFF766FC84F82000002405E01F4B185D01F0E0FE0134A4B26E
:40630000202CF7D9194B052283F80321002283F80721164B93F805316BB1144B93F8061103EBC1021878B532FDF7DAF818B100220E4B83F805210D4B93F80D327BB10B4B9C
:4063400093F80E1203EBC10293F8080102F2BD12FDF7C6F818B10022044B83F80D2200200021084BC3E9000138BD00BF6084FF1F6984FF1F548FFF1F4C8CFF1F9888FF1F9D
:406380009C88FF1F088AFF1FA24BBC221A70CB225A70C8229A70A04A1178D97052781A719E4BD3E90023002B08BF042AC0F0938370B51E2000F0BEFF01F02AFE002800F0EB
:4063C00084830122964B1A700024964B1C7005E001F0ECFD944B18550134A4B201F018FE0028F5D1914BBC221A70CB225A70C8229A70894A1178D97052781A718A4B1B789B
:40640000BC2B13D1884B5B78BB2B0FD1864B9B78B82B0BD1804B1B78834AD2789A4205D17D4B5B78804A12799A421CD07E4B1B7ABC2B40F048837C4B5B7ABB2B40F04383EB
:40644000794B9B7AB82B40F03E83734B1B78764AD27A9A4240F037836F4B5B78724A127B9A4240F03083724B93F80331012B0ED06F4B93F80B32012B09D06D4B93F8133321
:40648000012B04D06A4B93F81B34012B01D1FFF7ADFB654B9B79A72B00F0FA8106D8A52B6BD000F23881A12B0AD00CE3E12B00F04282E22B00F0DB82AB2B40F0048336E2C8
:4064C000594B5A795A4B19788A4209D1574B5971A1219971564991F80311D971082400E00524534B93F808319A420DD14F494B71631C9BB2A120C85401339BB24C4890F8A0
:406500000B02C85401339CB2494B93F810329A420DD146494B71631C9BB2A120C85401339BB2434890F81303C85401339CB2404B93F818339A420DD13C4A5371631C9BB228
:40654000A121D15401339BB2394991F81B14D15401339CB2651CADB2344E30462946FFF72BFB3055002405E0304B185D01F0A6FD0134A4B2AC42F7D3A5E22B4B5B792C4AD3
:406580001078834258D1FCF751FD294A1178274B5971E821997192F80321DA7100221A7201225A72234B1B78053BDBB293420BD90A2442E01E4A1A4451781C4A11550134DC
:4065C000A4B2013B9BB201E00A240823002BF1D106E03021154A11550134A4B201339BB2032BF6D9082308E0114A1A44117C0F4A11550134A4B2013B9BB2002BF4D106E08E
:4066000030210A4A11550134A4B201339BB2032BF6D912E0548FFF1FE88DFF1F9088FF1F2E8AFF1F1C95FF1F6491FF1F408AFF1F6084FF1FEB8DFF1F0524B44B5B79B44A58
:4066400092F80801834250D1FCF7F0FCB04991F80831B04A5371631C9BB2E820D05401339BB291F80B12D15401339BB20021D15401339BB20121D1540B449CB2A64B1B7855
:40668000053BDBB28B4230D80AE0A14A1A4492F80911A04A11550134A4B2013B9BB200E00823002BF1D106E030219A4A11550134A4B201339BB2032BF6D9082309E0944A89
:4066C0001A4492F81811934A11550134A4B2013B9BB2002BF3D106E030218E4A11550134A4B201339BB2032BF6D9651CADB2894E30462946FFF760FA3055A5F1090333720D
:40670000002405E0834B185D01F0D8FC0134A4B2AC42F7D3D7E17D4B5A797D4B1878824221D1012183F8071109230AE0774C257AE45C774901EBC501194481F8AC400133CF
:406740009BB20D2BF2D9724B012183F805116F49097A83F806116F4B5871A62199710321D971082400E00524694B93F80801824225D1012183F80F1209230AE0634D2E7A67
:40678000ED5C634901EBC601194481F8B45101339BB20D2BF2D95E4B012183F80D125B49097A83F80E125B494871631C9BB2A620C85401339BB20320C85401339CB2544BBF
:4067C00093F81002824225D1012183F8171309230AE04E4D2E7AED5C4D4901EBC601194481F8BC5201339BB20D2BF2D9484B012183F815134549097A83F8161345494871D4
:40680000631C9BB2A620C85401339BB20320C85401339CB23E4B93F818138A4225D1012283F81F2409230AE03848057AC05C384A02EBC5021A4482F8C40301339BB20D2BC7
:40684000F2D9334B012283F81D24304A127A83F81E24304A5171631C9BB2A621D15401339BB20321D15401339CB2651CADB2294E30462946FFF7A0F93055002405E0254B24
:40688000185D01F01BFC0134A4B2AC42F7D31AE11E4B5B791E4A11788B4207D11D4A5171A72191711A4991F80311D171184A92F808118B4207D1174A5171A7219171144921
:4068C00091F80B12D171124A92F810128B4207D1104A5171A72191710D4991F81313D1710B4A92F81823934207D10A4B5A71A7229A71074A92F81B24DA71064C20460921D4
:40690000FFF75AF9207200240EE000BF6491FF1F6084FF1F408AFF1FEB8DFF1F6E4B185D01F0CCFB0134A4B2082CF7D9CBE0BC22694B1A70C7E0694B197A694A5170597AA7
:40694000684A1170997A5170D97A9170197B664A51705B7B1370112307E0A3F111025F49C85C6249885401339BB22E2BF5D92F2307E0A3F12F025949C85C5D498854013327
:406980009BB24C2BF5D94D2307E0A3F14D025349C85C5849885401339BB26A2BF5D96B2307E0A3F14D024D49C85C5349885401339BB2882BF5D9494B1A7C504B1A70FDF71B
:4069C0005FFFFDF701FF002408E004F11001474B185D89B200F066FE0134A4B21D2CF4D91E240AE0A4F11E0304F11001404AD05C89B200F057FE0134A4B23B2CF2D93C24C1
:406A00000AE0A4F11E0304F110013A4AD05C89B200F048FE0134A4B2592CF2D95A240AE0A4F11E0304F11001334AD05C89B200F039FE0134A4B2772CF2D90C2000F09CFED6
:406A40002F4C20700D2000F097FE84F808010E2000F092FE84F810020F2000F08DFE84F81803284B18782178FEF72EF82BE01B4B5B79194C6371E223A3710823E371032364
:406A8000237220460A21FFF797F86072002405E0114B185D01F012FB0134A4B2092CF7D9082307E0A3F108020C49C85C1649885401339BB20B2BF5D9084B187B134B18703C
:406AC000072100F0EFFD01F0D7FA00200021104BC3E9000170BD7047408AFF1F6491FF1FE48DFF1F0495FF1F5891FF1F9C8DFF1FDC94FF1F108AFF1F4084FF1FF189FF1F54
:406B00006084FF1F1195FF1FFC89FF1FD48DFF1F9088FF1FFEE700BF08B5104E104D16E029686B68AC68002204E051F8040B43F8040B0432A242F8D1E868002203E00021AC
:406B400043F8041B04328242F9D11035013E002EE6D101F0F5FDFCF797F9FEE701000000E40F010008B5124A124B1A60124A136843F40073136000230AE0032B03D80F4AFB
:406B800052F8231000E00E490E4A42F8231001332F2BF2D90C4B1A780C4B1A70094A0C4B1A6000F0CFF800220A4B1A6008BD00BF0004FA050CED00E014ED00E0000000002C
:406BC000156B00000080FF1FBC7600400481FF1F08ED00E00081FF1FFEE700BFF0B40022174611E050F82760F3B226F0FF0608E001EB420511F812406D78A5550132013BE3
:406C0000DBB2002BF4D10137292FEBD9F0BC7047064B1B78DBB203F00701054A11701B09013213704422034B1A707047CF0100496E5800407658004008B50A46002101F0C9
:406C4000B0FD08BD38B53322304B1A80182330490B7002310A802F4A13704FF49C7204310A8002310B7002310A802B4A13704FF40271023211800232137045F6BF5102323F
:406C80001180023213700222244B1A7008224FF040231A70032103F500731970204B1B78DBB220490B70204B1A8041F25122023B1A80002419250CE01C4B1B7803F00103D1
:406CC00043EA440404F003044FF4F07000F020FB013D0DB1032CEFD115B90320FFF77CFF134B4FF480721A8007221A70002211490A704820023108701A700222033B1A70CA
:406D00000D4A137843F03F03137038BD8040004082400040864000408E4000400043004008010049A146004022420040254200400440004006400040A243004008B501F04A
:406D400025FD08BD70B572B63A4A137843F00403137000240CE0384963001A1952000A4423445B00C8589188FFF766FF0134E4B20C2CF0D9002410E02F49A3001A19520076
:406D80000A4452F8500F23445B000B445168B3F85820FFF7D3FF0134E4B2042CECD94FF090402649FFF71AFF254A137843F0020313701032137843F002031370214C237895
:406DC00043F040032370A2F58632513A137843F0100313701C481D490A22FFF7AFFF1C481C490A22FFF7AAFF1B481C490A22FFF7A5FF1B481B490A22FFF7A0FF1A481B4952
:406E00000A22FFF79BFF1A4A137843F008031370184E01253570FFF715FF81233370164B1D70FFF7F5FE154821460E22FFF786FF70BD00BFE8460040380E0100A80000488D
:406E400003500140A0430040C0510040DC10004810510040E810004820510040F41000485051004000110048605100400C110048224300400048004004000840B0430040BC
:406E80007222074B1A70202201331A700622683B1A70472210331A70002250331A7070478964004010B500F03BFA04460A4A137843F0200313700132137843F01003137051
:406EC000083A137843F01003137000F0A5FA204600F02AFA10BD00BF9964004008B5054B1B7823B9FFF7CCFF0122024B1A70FFF7D9FF08BDEC83FF1F08B500200C4900F0B1
:406F00005FFA0020072100F06FFA0023094A13707221094A11702021013211700621623A1170472110321170B03A137008BD00BF55700000EE83FF1F8765004010B500F06D
:406F4000EFF904460B4A137843F0200313700132137843F0100313700122074B1A60074A137843F01003137000F0B6F9204600F0DBF910BD9765004000E100E0966400403E
:406F800008B5054B5B7823B9FFF7B6FF0122024B5A70FFF7D3FF08BDEE83FF1F0122134B1A60134A9378D278DBB2934206D1104B1B7913F0FF0F14D0202013E00C4A9378B6
:406FC000D278DBB2934205D2094AD3789078181AC0B207E0064AD3789078181A2030C0B200E000200122034B1A60704780E100E0EE83FF1F00E100E008B500F091F90B4B86
:407000001A7842F001021A701A7802F0FE021A7000F08AF90121064B1960064B00229A70DA701A715A71044B196008BD9865004080E100E0EE83FF1F00E100E0034B1B7839
:4070400013F0040FFAD1024B1870704766640040466400401C4B1B78DBB213F01E0F05D01A4803F01E0201780A43027003F0200303F0FF022BB3164B1978C9B2154B1B782E
:40708000DBB21548C154154B1B7813F0FF0F02D00121134B19700F490B780133DBB20B700B78DBB21F2B02D900210A4B1970094B1B780C490978DBB28B4202D10121074B49
:4070C0001970002AC6D1704768650040EE83FF1F48650040F183FF1F2495FF1FF283FF1FF383FF1FF083FF1F08B501200C4900F067F90120072100F077F90023094A1370C0
:407100007221094A11702021013211700621A2F5B47211704721103211705432137008BD45720000F583FF1F8A65004010B500F0F7F804460B4A137843F02003137001323F
:40714000137843F0100313700222074B1A60074A137843F01003137000F0CCF8204600F0E3F810BD9A65004000E100E09764004008B5054B5B7823B9FFF7B6FF0122024B62
:407180005A70FFF7D3FF08BDF583FF1F0222134B1A60134A9378D278DBB2934206D1104B1B7913F0FF0F14D0202013E00C4A9378D278DBB2934205D2094AD3789078181A28
:4071C000C0B207E0064AD3789078181A2030C0B200E000200222034B1A60704780E100E0F583FF1F00E100E008B500F099F80B4B1A7842F001021A701A7802F0FE021A7071
:4072000000F092F80221064B1960064B00229A70DA701A715A71044B196008BD9A65004080E100E0F583FF1F00E100E0034B1B7813F0040FFAD1024B18707047676400400D
