:400000000080002011000000814F0000814F000008B5044B1A6803F53F5302331A6004F0B1FF00BFFA46004010B5054C237833B9044B13B10448AFF300800123237010BD23
:40004000D083FF1F00000000F06C0000084B10B51BB108480849AFF300800848036803B910BD074B002BFBD0BDE81040184700BF00000000F06C0000D483FF1F0881FF1FF5
:400080000000000008B506F085F8024A13780133137008BDDD8DFF1F08B506F007FB0849D1E90023013243F10003C1E900230549D1E90023013243F10003C1E9002308BDF4
:4000C0008088FF1FF889FF1F08B506F083FA0849D1E90023013243F10003C1E900230549D1E90023013243F10003C1E9002308BDF894FF1FE08DFF1F08B505F007FD05F09F
:4001000011FC05F073F905F069FA05F01DF905F0BDFD06F047F9054806F03AFB06F00AFB034806F063FB06F099FA08BD99000000C900000010B51C4B1878002105F0EAFC8F
:400140001A4B1878012105F0E5FC194B1878022105F0E0FC174B1878032105F0DBFC164B1878042105F0D6FC144B1878052105F0D1FC134B1878062105F0CCFC114C20784D
:400180000C2105F0C7FC94F806010D2105F0C2FC94F80C020E2105F0BDFC94F812030F2105F0B8FC10BD00BF1F8AFF1FEC94FF1F888DFF1F208AFF1FEA94FF1F0095FF1FBA
:4001C000DB8DFF1F6084FF1F10B5022005F00CFD234B1870032005F007FD224B1870042005F002FD204B1870052005F0FDFC1F4B1870062005F0F8FC1D4B1870072005F060
:40020000F3FC1C4B1870082005F0EEFC1A4B1870092005F0E9FC194B18700A2005F0E4FC174C20700B2005F0DFFC60700423154A1370154A13700C2005F0D6FC134C207073
:400240000D2005F0D1FC84F806010E2005F0CCFC84F80C020F2005F0C7FC84F8120310BD888DFF1F208AFF1FEA94FF1F0095FF1FDB8DFF1FC48DFF1F0195FF1FDC8DFF1FD8
:40028000D88DFF1F0C81FF1FDC89FF1F6084FF1F10B59CB0994A19AB07CA03C31A80984B16AC93E8070003C42280964A13AC07CA03C4228010AC03F10C0207CA03C4227051
:4002C00000228DF849200DAC03F1180103C984E80300ADF83C200AAC03F1240207CA03C4228007AC03F1300207CA03C4228004AC03F13C0207CA03C4228001AC483393E810
:40030000070003C42280804B1B78022B7AD10120014602F0E9FD012019A9002202F09EFE4FF4967005F03EFA784B1B785BB90133DBB2774A82F8023182F80832012016A901
:40034000002202F08BFE714B1B78012B0BD10133DBB26F4A82F8023182F80832012013A9002202F07BFE694B1B78022B0BD10133DBB2674A82F8023182F80832012010A947
:40038000002202F06BFE614B1B78032B0BD10133DBB25F4A82F8023182F8083201200DA9002202F05BFE5B4B1B783BB901200AA9162202F053FE0522574B1A70554B1B7866
:4003C000012B07D1012007A9162202F047FE0622514B1A704F4B1B78022B07D1012004A9162202F03BFE07224B4B1A70494B1B78032B07D1012001A9162202F02FFE082246
:40040000454B1A70404B1B78042B6DD101202E2102F06AFD012019A9002202F01FFE4FF4967005F0BFF9394B1B787BB90133DBB2374A82F8023182F8083282F80E3382F821
:400440001434012016A9002202F008FE2F4B1B78012B0FD10133DBB22D4A82F8023182F8083282F80E3382F81434012013A9002202F0F4FD254B1B78022B0FD10133DBB258
:40048000234A82F8023182F8083282F80E3382F81434012010A9002202F0E0FD1B4B1B78032B0FD10133DBB2194A82F8023182F8083282F80E3382F8143401200DA9002224
:4004C00002F0CCFD134B1B78012B04D1012007A9162202F0C3FD0F4B1B78022B04D1012004A9162202F0BAFD074B1B78012B03D80120002102F0F8FC1CB010BD806D00005C
:40050000F46C00008C6D00000D95FF1F1F8AFF1F6084FF1F0095FF1FDB8DFF1F08B5104B1B78022B06D10220012102F0DDFC00220C4B1A600A4B1B78042B03D102202E2193
:4005400002F0D2FC064B1B78012B03D80220002102F0CAFC02200449002202F07FFD08BD0D95FF1F4491FF1F1481FF1F08B501F0EBFC2D4B1870002855D02C4B187801F0D1
:40058000CBFC02F09FFA50B90120002102F0ACFC0220002102F0A8FC0022234B1A70234B93F8060101F0B8FC02F08CFA50B90120002102F099FC0220002102F095FC00223A
:4005C000194B1A70194B187801F0A6FC02F07AFA48B3164B93F8060101F09EFC02F072FA08B301F0B1FC104B1870104B187801F093FC06280DD10D4B93F8060101F08CFC33
:40060000062806D1094B187802F054FBFFF792FD08BD0120092102F067FC0220092102F063FCFFF7A3FF08BD0D95FF1F6084FF1F70B58EB02E4C07AD04F154060FCE0FC559
:4006400096E8070003C52A806D4670340FCC0FC594E8070003C52A80002408E00EAB2344012013F81C1C02F0CFFF0134E4B2192CF4D901200A2102F0C7FF01200A2102F019
:40068000C3FF01200A2102F0BFFF01200A2102F0BBFF01200A2102F0B7FF01200A2102F0B3FF002408E00EAB2344022013F8381C02F0AAFF0134E4B2192CF4D902200A212E
:4006C00002F0A2FF02200A2102F09EFF02200A2102F09AFF02200A2102F096FF02200A2102F092FF02200A2102F08EFF0EB070BDF46C000038B5524BD3E90023002B08BF9D
:40070000092AC0F09B804F4B1B68002B73D14E4B187801F001FC02F0D5F990B14A4B93F8060101F0F9FB02F0CDF938B909E0474AD15C474AD1540133DBB200E00023032B13
:40074000F5D9444B1B78022B0AD13F4D287801F0E3FB3E4C207095F8060101F0DDFB60703C4B1B78042B14D1374D287801F0D4FB364C207095F8060101F0CEFB607095F870
:400780000C0201F0C9FBA07095F8120301F0C4FBE070304B1B780BB9FFF7E8FE2A4B187801F0BAFB02F08EF970B90120002102F09BFB0220002102F097FB0023254A137023
:4007C000204A1360244A13601F4B93F8060101F0A3FB02F077F970B90120002102F084FB0220002102F080FB00231A4A1370154A1360194A1360194B1B7813F0FF0F18D11F
:40080000104B1B68ABB9104B187801F085FB062803D10D4B187801F027FC0B4B93F8060101F07AFB062804D1074B93F8060101F01BFC00200021024BC3E9000138BD00BFF0
:40084000F894FF1FF08DFF1F6084FF1FD08DFF1FD889FF1F0D95FF1F4491FF1F1E8AFF1FF0B585B0B14B1B68122B01F27D81DFE813F0130026004C00A8006B019901170221
:400880008F0201037F0358049F042605B20507062F07C1072808A908FFF7FAFC0122A34B1A6005F0F9FC05F05BFC0023A04A1370A04A82F8613082F8033101F055B908224B
:4008C0009D4B83F8032104F09FFD082841F04C819A4B1B78DBB2AA2B10D1984B9B79DBB2C32B0BD1954BDB79DBB23C2B06D102228E4B1A600120042102F0F6FA0A2004F0EE
:4009000051FF04F0AFFD01F02FB904F07DFD082841F02A81894B1B78DBB2AA2B4AD1874B9B79DBB2C32B45D1844BDB79DBB23C2B40D1824BDB78DBB2452B24D004D80D2BCC
:4009400007D00E2B10D035E07E2B2CD0942B22D030E00322754B1A600120764B83F86100052102F0C1FA25E00A22704B1A600222704B83F8612000226D4B1A7001208521B0
:4009800002F0B2FA16E00C22684B1A600120832102F0AAFA0EE00022644B1A600120014602F0A2FA06E00022604B1A600120014602F09AFA0A2004F0F5FE04F053FD01F05D
:4009C000D3B804F021FD082841F0CE805B4B1B78DBB2AA2B40F0A380584B9B79DBB2C32B40F09D80554BDB79DBB23C2B40F09780524BDB78DBB23B2B00F0828004D80F2B24
:400A00000BD0102B25D08AE07E2B00F08180942B6ED0432B40F0838037E00422434B1A60444B022483F86340442283F864200025434B1D700120062102F056FA0120009011
:400A400001954E23029324210322234602F02EFB65E00422354B1A60364B012483F86340562583F864500026354B1E7020460D2102F03AFA009401964E2302932046294625
:400A80000322022302F012FB49E02A4B022283F86320462283F86420012306E0254A1A44392182F865100133DBB21A4625490978481E8342F2DB1F4B9C18302084F865004F
:400AC00084F8660083F86510002307E0194A1A4492F8650082F86F000133DBB28B42F5D90522124B1A600120862102F0FDF916E000220E4B1A600120014602F0F5F90EE056
:400B000000220A4B1A600120014602F0EDF906E00022064B1A600120014602F0E5F90A2004F040FE04F09EFC01F01EB8F08DFF1FDD8DFF1F8C88FF1F6084FF1F1495FF1FAA
:400B4000DE8DFF1FDB8DFF1F0120894B1978002202F010FB18B1012815D001F005B80022844B1A600120014602F0BEF900F0FCBF814A1A4492F84B1082F8651082F86F101F
:400B80000133DBB200E000237B4A92F84B209A42EED20522774B1A600120862102F0A4F900F0E2BF04F030FC082840F0DD87734B1B78DBB2AA2B6CD1704B9B79DBB2C32BB2
:400BC00067D16E4BDB79DBB23C2B62D16B4BDB787E3B3A2B5DD8DFE803F055351E295C5C5C5C5C5C5C5C5C5C5C5C5C5C5C5C5C5C4D5C5C5C5C5C5C5C5C5C5C5C5C5C5C5C79
:400C00005C5C5C5C5C5C5C5C5C5C5C5C5C5C5C5C5C5C5C5C41000622564B1A600120584B83F801010B2102F05FF932E00622514B1A600222524B83F8012101200B2102F05C
:400C400053F926E006224B4B1A6003224C4B83F8012101200B2102F047F91AE00622454B1A600422464B83F8012101200B2102F03BF90EE000223F4B1A600120014602F0B1
:400C800033F906E00120014602F02EF90022394B1A600A2004F086FD04F0E4FB00F064BF384805F0EBFA05F0BBFA04F0ADFB08284DD1324B1B78DBB2AA2B43D12F4B9B79F8
:400CC000DBB2C32B3ED12D4BDB79DBB23C2B39D12A4BDB78DBB2392B04D07E2B2BD0382B30D10FE00922234B1A600022264B1A70214B012083F8000183F834010A2102F016
:400D0000F3F81FE01C4B93F803313BB10022194B1A600120014602F0E7F813E00721154B19600023144A82F83431184A1370012002F0DAF806E000220E4B1A60012001461D
:400D400002F0D2F80A2004F02DFD04F08BFB0F4B1B781D2B40F208870023064A13600B4A13700120014602F0BFF800F0FDBE00BFDB8DFF1FF08DFF1F8C88FF1F1495FF1FAC
:400D80006084FF1F85000000DE8DFF1FDD8DFF1FA84C207802F03EF8014684F8000194F8013198423DD1A44A92F863302078653203F0030301F0A4FE012824D1207801F010
:400DC000ABF8322004F0EEFC207840F0100004F03FFE322004F0E6FC0825984B1D6005F05BFA05F0BDF90022954B1A700124954B1C702046294602F077F8204692491222A5
:400E000002F02CF910E000218C4B1960012002F06BF8C82004F0C6FC0120014602F064F802E00722854B1A6004F0EEFA08281DD1864B1B78DBB2AA2B15D1844B9B79DBB205
:400E4000C32B10D1814BDB79DBB23C2B0BD17F4BDB78DBB27E2B06D10120014602F044F80022764B1A600A2004F09CFC04F0FAFA00F07ABE6F4C207801F04EF884F80401C5
:400E80000638052800F27086DFE810F006006E066E0612001B0048000023684A1360664A82F835310120014602F01EF800F05CBE614B012283F83521002283F8032100F012
:400EC00053BE01225F4B1A705A4B187801F016FC002800F04986584B93F83431012B0DD15B4B1878534B197802F060FD0022534B1A600120014601F0F7FF09E006224F4BE6
:400F00001A6001204C4B83F803010B2101F0ECFF0022494B83F8352100F026BE454B187801F0ECFB002800F01F86434B93F83431012B0DD1464B18783E4B197802F036FD00
:400F400000223E4B1A600120014601F0CDFF09E006223A4B1A600120374B83F803010B2101F0C2FF0022344B83F8352100F0FCBD01200A21002202F0FDF818B1012845D0A0
:400F800000F0F2BD2C4B93F80031013B032B39D8DFE803F00A1D2935274A1A44002182F8DF100133DBB200E000230A2BF4D90022224B1A600120014601F096FF22E01E4A25
:400FC0001A44002182F8EA100133DBB200E000230A2BF4D916E0184A1A44002182F8F5100133DBB200E000230A2BF4D90AE0124A1A44002182F836110133DBB200E00023D2
:401000000A2BF4D904F02EFA00F0AEBD0A4B93F80031013B032B00F28080DFE803F01B43595F054A1A4492F84B1082F8DF100133DBB210E06084FF1F8C88FF1FF08DFF1F7F
:40104000DD8DFF1F898DFF1FF188FF1F1495FF1F0195FF1F0023AD4A92F84B209A42E0D2AA4B93F803316BB1A94B1878A94B197802F09CFC0022A84B1A600120014601F0BA
:4010800033FF4AE00721A44B1960012001F02CFF43E09E4A1A4492F84B1082F8EA100133DBB200E00023994A92F84B209A42F0D20721994B1960012001F016FF2DE0934A75
:4010C0001A4492F84B1082F8F5100133DBB200E000238E4A92F84B209A42F0D2002307E08A4A1A4492F84B1082F836110133DBB20A2BF5D90E22884B1A600022874B1A705E
:401100000523874A13702A21864A11707F4A82F800310120252101F0E7FE04F0A3F900F023BD04F071F9082840F01E857E4B1B78DBB2AA2B35D17C4B9B79DBB2C32B30D10A
:40114000794BDB79DBB23C2B2BD1774BDB78DBB2B62B04D0B72B10D07E2B22D11AE00B226D4B1A6000226D4B1A700120674B83F83401122101F0B8FE13E00023634A82F85B
:4011800000310721644A1160684A1370012001F0ABFE06E00120014601F0A6FE00225E4B1A600A2004F0FEFA04F05CF900F0DCBC5F4805F063F805F033F8012003F04EF847
:4011C00001286CD1332103F08BF840B967E0012003F0F0F8574B18550134E4B200E00124082CF4D90020012405E0524B195D03F01DF90134E4B2072CF7D94E4B1B7ADBB2D4
:4012000083424CD11023414A5370012230E010464849895C01F00F01092908DD4549895C3A4C1C4401F00F013731617007E04149895C364C1C4401F00F0130316170013BFA
:40124000DBB23C49095C9F2907D93A49095C2F48184409093731417006E03649095C2B481844090930314170013BDBB20132D2B2082ACCD90120132101F036FE04F0F2F8FD
:401280004FF42F7004F08EFA0222204B83F800210922214B1A6001200E2101F025FE234B1B783B2B40F2608400231B4A13601F4A13700120014601F017FE00F055BC04F069
:4012C000A3F8082840F05084174B1B78DBB2AA2B7BD1154B9B79DBB2C32B76D1124BDB79DBB23C2B71D1104BDB78DBB2552B34D004D83B2B52D0462B1ED066E0942B55D0B3
:40130000B52B3FD07E2B60D158E000BF8C88FF1F0195FF1F6084FF1FF08DFF1FDE8DFF1F8988FF1FC58DFF1F1495FF1FDD8DFF1F85000000AC94FF1F0D22A94B1A60A94B7F
:401340001B78012B04D101202A2101F0CDFD3CE00120232101F0C8FD37E00E22A04B1A600622A14B83F800210022A04B1A7005229F4B1A702A229F4B1A700120252101F0D5
:40138000B3FD22E00022964B1A600B229A4B83F803210120014601F0A7FD16E00022904B1A600120014601F09FFD0EE000228C4B1A600120014601F097FD06E00022884BC5
:4013C0001A600120014601F08FFD0A2004F0EAF904F048F8C8E304F017F8082840F0C483864B1B78DBB2AA2B44D1844B9B79DBB2C32B3FD1814BDB79DBB23C2B3AD17F4BD2
:40140000DB78DBB2482B17D002D8472B05D031E07E2B20D0942B26D02CE00922704B1A600022724B1A7004226F4B83F800210120242101F059FD1DE00922694B1A6000227C
:401440006A4B1A700422684B83F800210120242101F04AFD0EE00120014601F045FD00225F4B1A6006E00120014601F03DFD00225B4B1A600A2004F095F903F0F3FF73E3A9
:4014800001205B4B19785B4B1A7801F073FE10B1012859D068E3544B93F80031013B052B4FD8DFE803F0091A4E4E2F420021544AD1540133DBB200E00023042BF6D900223C
:4014C000474B1A600120014601F00EFD39E000214C4AD1540133DBB200E00023444A12789342F4D300223E4B1A600120014601F0FBFC26E03C4A1A44002182F8411101338F
:40150000DBB200E000233A4A12789342F2D30022334B1A600120014601F0E6FC11E00021394AD1540133DBB200E00123364A12789A42F4D200222A4B1A600120014601F089
:40154000D3FC03F08FFF0FE3274B93F80031013B052B00F2BA80DFE803F00C35B8B8667C591C214A0A4492F84B00254AD054CBB200E00023042BF3D921480023037105F010
:40158000E5FA80B2214B1880C3B2214C2370000A607020780A2104F0BDFA60780B2104F0B9FA0F220E4B1A6001205A2101F09CFC8BE00D4A1A4492F84B10124AD1540133CB
:4015C000DBB200E000230A4A12789342F1D30F22034B1A6001205A2101F086FC75E000BFF08DFF1FC48DFF1F8C88FF1FDE8DFF1F8988FF1FC58DFF1F6084FF1F1495FF1F9B
:40160000A494FF1FE489FF1FDC89FF1F5493FF1FD88DFF1F8C4A1A4492F84B1082F841110133DBB200E00023884A12789342F1D30F22874B1A6001205A2101F055FC44E0A1
:40164000814A1A4492F84B10824AD1540133DBB200E001237F4A12789A42F1D27D4B5A787D4B5B789A4221D17A4B9A787A4B9B789A421BD1774BDA78774BDB789A4215D14F
:40168000744B1A79744B1B799A420FD10120262101F02AFC4FF42F7004F084F80F226C4B1A6001205A2101F01FFC0EE00120272101F01AFC4FF42F7004F074F80022644B7D
:4016C0001A600120014601F00FFC03F0CBFE4BE203F09AFE082840F04782604B1B78DBB2AA2B40F081805D4B9B79DBB2C32B7BD15A4BDB79DBB23C2B76D1584BDB78583B5E
:401700003C2B71D8DFE803F052703C7070707070707070707032707070707070707070707070707070707070707070707070617070701F70707070707070707070707070AF
:401740007070707069000E22414B1A600023444A1370444A137005223C4B1A7001203A4B83F80001062101F0BFFB3DE01022384B1A60FEF75DFF01206B2101F0B5FB33E09B
:401780000E22334B1A600023354A1370354A137003222E4B1A700223334A13702A4A82F800310120062101F09FFB1DE01222284B1A6000222A4B1A700422234B83F800212C
:4017C00001203E2101F090FB0EE00120014601F08BFB00221E4B1A6006E00120014601F083FB00221A4B1A600A2003F0DBFF03F039FEB9E103F008FE082840F0B581174BB1
:401800001B78DBB2AA2B56D1144B9B79DBB2C32B51D1124BDB79DBB23C2B4CD10F4BDB78DBB2392B22D002D8382B05D043E07E2B32D0942B38D03EE01122054B1A60012047
:40184000672101F051FB36E08C88FF1F8988FF1FF08DFF1FDC89FF1F0C81FF1F1495FF1FDE8DFF1FC58DFF1FE489FF1F0F22514B1A600124504B1C70504D02232B702046C2
:40188000082104F047F92878092104F043F920465A2101F029FB0EE00120014601F024FB0022444B1A6006E00120014601F01CFB0022404B1A600A2003F074FF03F0D2FD7B
:4018C00052E103F0A1FD082840F04E813C4B1B78DBB2AA2B68D13A4B9B79DBB2C32B63D1374BDB79DBB23C2B5ED1354BDB787E3B162B59D8DFE803F0495858585858585896
:401900005858585858580C2035585858585851000F22284B1A600220274B1870274C2070082104F0F7F82078092104F0F3F801205A2101F0D9FA37E00F221E4B1A60012493
:401940001D4B1C701D4D2C702046082104F0E2F82878092104F0DEF820465A2101F0C4FA22E00F22134B1A600020134B1870134C2070082104F0CEF82078092104F0CAF891
:4019800001205A2101F0B0FA0EE00120014601F0ABFA0022074B1A6006E00120014601F0A3FA0022034B1A600A2003F0FBFE03F059FDD9E0F08DFF1F0195FF1FDC8DFF1F62
:4019C0001495FF1F01F0A0FE01283CD1674F7978C1F30011303101240094002601964E2502952046C9B20D22082301F05FFB797801F00F01009401960295204630310D22DE
:401A0000092301F053FB00940196029520463A210D220A2301F04AFB39780909009401960295204630310D220B2301F03FFB397801F00F01009401960295204630310D22E8
:401A40000C2301F033FB01F003FE01285DD1484F3978C1F3011101240094002601964E250295204630311522082301F01FFB397801F00F010094019602952046303115229B
:401A8000092301F013FB00940196029520462F2115220A2301F00AFB7978C1F3001130310094019602952046C9B215220B2301F0FDFA797801F00F01009401960295204608
:401AC000303115220C2301F0F1FA00940196029520462F2115220D2301F0E8FAB97809090094019602952046303115220E2301F0DDFAB97801F00F0100940196029520463B
:401B0000303115220F2301F0D1FA03F07DFC08282AD1184B1B78DBB2AA2B20D1154B9B79DBB2C32B1BD1134BDB79DBB23C2B16D1104BDB78DBB27E2B02D0942B08D00EE09C
:401B400000220D4B1A600120014601F0CDF906E00022094B1A600120014601F0C5F90A2003F020FE03F07EFC05B0F0BD0495FF1FC88DFF1F1495FF1FF08DFF1F08B5A54B22
:401B80001B68062B00F29281DFE813F00700110045009600F10021015701FEF7BFFC01229C4B1A6008229C4B83F8092208BD0220232101F025FA03F01FFD082840F07681B8
:401BC000964B1B78DBB2AA2B1FD1944B9B79DBB2C32B1AD1914BDB79DBB23C2B15D18F4BDB78DBB23A2B02D07E2B07D00DE00220884B1860042101F077F906E00220012141
:401C000001F072F90022834B1A600A2003F0CAFD03F020FD08BD03F0EFFC082840F046817E4B1B78DBB2AA2B40D17C4B9B79DBB2C32B3BD1794BDB79DBB23C2B36D1774B1A
:401C4000DB78DBB2452B1AD004D80D2B07D00E2B0DD02BE07E2B22D0942B18D026E003226C4B1A600220052101F03EF91EE00422684B1A600220852101F036F916E00522BA
:401C8000644B1A600220832101F02EF90EE00022604B1A600220012101F026F906E000225C4B1A600220012101F01EF90A2003F079FD03F0CFFC08BD03F09EFC082840F01C
:401CC000F580564B1B78DBB2AA2B4AD1534B9B79DBB2C32B45D1514BDB79DBB23C2B40D14E4BDB78DBB23B2B2CD004D80F2B09D0102B0FD035E07E2B2CD0942B1AD0432BD1
:401D00002FD10FE00422434B1A600220062101F0EBF826E005223F4B1A6002200D2101F0E3F81EE006223B4B1A6002200B2101F0DBF816E00022374B1A600220012101F09B
:401D4000D3F80EE00022334B1A600220012101F0CBF806E000222F4B1A600220012101F0C3F80A2003F01EFD03F074FC08BD03F043FC082840F09A80284B1B78DBB2AA2B38
:401D80001FD1264B9B79DBB2C32B1AD1234BDB79DBB23C2B15D1214BDB78DBB27E2B09D0942B0ED100221B4B1A600220012101F09BF806E00022174B1A600220012101F05D
:401DC00093F80A2003F0EEFC03F044FC08BD03F013FC08286AD1114B1B78DBB2AA2B26D10E4B9B79DBB2C32B21D10C4BDB79DBB23C2B1CD1094BDB78DBB27E2B10D0942BC2
:401E000015D10022034B1A600220012101F06CF80DE000BF4491FF1F6084FF1F3495FF1F0022234B1A600220012101F05DF80A2003F0B8FC03F00EFC08BD03F0DDFB08288F
:401E400034D11C4B1B78DBB2AA2B2AD1194B9B79DBB2C32B25D1174BDB79DBB23C2B20D1144BDB78DBB2392B04D07E2B12D0382B17D107E002200A2101F036F807220C4B62
:401E80001A600EE00220862101F02EF80822084B1A6006E00220012101F026F80022044B1A600A2003F07EFC03F0D4FB08BD00BF4491FF1F3495FF1F08B562B6FEF71CF929
:401EC000FEF754FBFEF780F90320002103F08AFC03F0A8FC02F0D4FAFEF7C2FC03F0A2FCFFF74CFE03F09EFCFEF704FC03F09AFC02F030FE064A13780133DBB213701378C3
:401F0000DBB20A2BE4D90022024B1A70E0E700BF0C95FF1F1E8AFF1F10B5044603F076FD204603F095FD3C2003F03CFC03F03AFD38B103F005FDC0F3071403F067FD2046A4
:401F400010BD002010BD00BF10B5464BFF221A7083F8062183F80C2283F81223012454E0204603F075FD642003F01CFC03F01AFD38B13C4B1B78FF2B03D13A4B1C7003F02A
:401F800045FD03F00FFD68B1364B1B78A34209D0344B93F80631FF2B04D1324B83F8064103F034FD03F0FEFC90B12E4B1B78A3420ED02C4B93F80631A34209D0294B93F85F
:401FC0000C32FF2B04D1274B83F80C4203F01EFD03F0E8FCB8B1234B1B78A34213D0214B93F80631A3420ED01E4B93F80C32A34209D01C4B93F81233FF2B04D1194B83F85C
:40200000124303F003FD0134E4B2102CA8D9154B1B78FF2B0ED0134A92F80621FF2A09D0104A92F80C22FF2A04D00E4A92F81223FF2A0FD1FF2B04D00A4A92F80621FF2A6A
:402040000AD1FF2B0AD1074B93F80631FF2B07D0012010BD042010BD022010BD012010BD002010BD6084FF1FF8B5054603F0CEFC45F0500003F0ECFC03F0D4FB4FF46170D5
:4020800003F090FB03F0CEFB03F08CFCC0B2222806D0402804D05E2802D07C2840F02281B44B1B78DBB2FF2B40F01881B14B5B78DBB2F62B40F01281AE4BDB78DBB2F92B7F
:4020C00040F00C81AC4CA4FB0030C0F30214AB4B1B78AB421DD0002699E0C5EB051006EB4603C3EB031203461344A44A13440B4400225A700131C9B200E000210D29ECD906
:402100000135EDB200E00025022DF6D90136F6B200E00026032EF6D900252F4655E02B1D944AD05CC6EB061E07EB4703C3EB031273461344914A13445B1A00F00F023032D3
:402140009A720135EDB2022E01D1042905D00131C9B200E001210829E1D90135EDB20136F6B200E00026022EF4D90735EDB204220CE007EB4703C3EB031380490B44D1183B
:4021800091F823101344D977013AD2B2002AF0D107EB4703C3EB0313784A134408225A701A740422DA77764B1B78DBB2012B0AD107EB4703C3EB0313704A13440522DA778F
:4021C000302283F824200137FFB2A742CAD303F01DFC2046F8BDC5EB051006EB4603C3EB031203461344654A13440B44002283F807210131C9B200E000210D29EBD90135DE
:40220000EDB200E00025022DF6D90136F6B2032EF8D900252F465BE02B1D564AD05CC6EB061E07EB4703C3EB031273461344534A13445B1A00F00F02303283F810210135A0
:40224000EDB2022E01D1042905D00131C9B200E001210829E0D90135EDB20136F6B200E00026022EF4D90735EDB204220DE007EB4703C3EB031341490B44D11891F82911F8
:40228000134483F82511013AD2B2002AEFD107EB4703C3EB0313394A1344082283F8072183F81621042283F82521354B1B78DBB2012B0BD107EB4703C3EB03132F4A1344B5
:4022C000052283F82521302283F82A210137FFB2A742C5D303F09AFB2046F8BD03F096FB0020F8BD2E2806D0582804D0822802D0AC2840F00B811F4B1B78DBB2FF2B40F008
:4023000001811C4B5B78DBB2F62B40F0FB80194BDB78DBB2F92B40F0F5801A4CA4FB00304409164B1B78AB421DD0002694E0C5EB051006EB4603C3EB0312034613440F4AD6
:4023400013440B4400225A700131C9B200E000210D29ECD90135EDB200E00025022DF6D90136F6B200E00026032EF6D900252F4650E000BF5495FF1F898888886084FF1FB2
:40238000408FFF1FCDCCCCCC2B1D624AD05CC6EB061E07EB4703C3EB0312734613445E4A13445B1A00F00F0230329A730135EDB2022E01D1062905D00131C9B200E001218D
:4023C0000C29E1D90135EDB20136F6B200E00026022EF4D90935EDB206220CE007EB4703C3EB03134C490B44D11891F825101344D977013AD2B2002AF0D107EB4703C3EB80
:402400000313454A13440C225A701A740622DA770137FFB2A742DAD303F0F8FA2046F8BDC5EB051006EB4603C3EB031203461344394A13440B44002283F807210131C9B225
:4024400000E000210D29EBD90135EDB200E00025022DF6D90136F6B2032EF8D900252F464AE02B1D2B4AD05CC6EB061E07EB4703C3EB031273461344274A13445B1A00F0EA
:402480000F02303283F814210135EDB2022E01D1062905D00131C9B200E001210C29E0D90135EDB20136F6B200E00026022EF4D90935EDB206220DE007EB4703C3EB0313D8
:4024C00015490B44D11891F82B11134483F82511013AD2B2002AEFD107EB4703C3EB03130D4A13440C2283F8072183F81621062283F825210137FFB2A742D6D303F086FAC8
:402500002046F8BD03F082FA0020F8BD03F07EFA0020F8BD5495FF1F6084FF1FF0B585B004460E461546724F6B4638687968BA6807C3B989BA7B19809A70012310E0EA5CCD
:402540002C2A0BD105E0EA1812F8012CEA54013BDBB2012BF7D830236B7003E00133DBB2062BECD9634B1B78072B4CD0E5238DF8013006F00F0363F01F038DF804305E4B15
:402580001B7813F0FF0F0DD000231AE0EA5C04A9194402F00F0262F01F0201F80A2C0133DBB200E00023032BF0D90CE0EA5C04A9194402F00F0262F01F0201F80A2C0133B8
:4025C000DBB2022BF2D9FB238DF80A3000230CE004AA1A4412F8102C02F00F029DF80B100A448DF80B200133DBB20A2BF0D99DF80B305B4203F00F0363F01F038DF80B3001
:40260000F0238DF80C303B4B1B78072B3CD1E3238DF8013006F00F03013B63F01F038DF8043000230CE0C3F10602AA5C04A9194402F00F0262F01F0201F80A2C0133DBB2FF
:40264000052BF0D9FB238DF80C3000230CE004AA1A4412F8102C02F00F029DF80D100A448DF80D200133DBB20C2BF0D99DF80D305B4203F00F0363F01F038DF80D30F023ED
:402680008DF80E300E2600E00C2603F0BFF944F0200003F0DDF9642003F084F803F082F9F0B103F04DF944F0D00398421AD103F0ADF9002507E004AB2B4413F8100C03F065
:4026C000C7F90135EDB2B542F5D903F09FF9322003F068F82046FFF71FFC034620B904E0002302E0002300E00123184605B0F0BD986D0000DB8DFF1F408FFF1F10B5044660
:4027000003F084F944F0400003F0A2F9FA2003F049F803F087F8B74B1B78072B00F0F28003F040F9212840F0ED80B34B1B78DBB2FF2B40F0AF81B04B9B78DBB2F82B40F096
:40274000AB81AD4B93F82030DBB2F02B40F0A681AA4B1B78A3426AD1A74B5B7A03F00F033133A64A82F8FF3001230CE003F10B02A1498A5CA249C91A02F00F02303281F85D
:40278000F1200133DBB2042BF0D904229B4B83F8F1209C4B1B78DBB2012B06D1974B052283F8F120302283F8F62001230CE003F1100291498A5C9449C91A02F00F0230323A
:4027C00081F8E3200133DBB2062BF0D906228B4B83F8E32001230CE003F1170286498A5C8949C91A02F00F02303281F8D5200133DBB2062BF0D97F4B1B78052B11D109E0B9
:402800005A1E7E49881890F8D5000B4483F8D500D3B200E00623012BF2D83022774B83F8D6200622754B83F8D520012010BD724B5B7A03F00F033133704A82F805320123E4
:402840000CE003F10B026C498A5C6D49C91A02F00F02303281F8F7210133DBB2042BF0D90422664B83F8F721664B1B78DBB2012B06D1624B052283F8F721302283F8FC21F9
:4028800001230CE003F110025B498A5C5E49C91A02F00F02303281F8E9210133DBB2062BF0D90622554B83F8E92101230CE003F1170251498A5C5449C91A02F00F0230327C
:4028C00081F8DB210133DBB2062BF0D9494B1B78052B11D109E05A1E4849881890F8DB010B4483F8DB01D3B200E00623012BF2D83022424B83F8DC210622404B83F8DB21CE
:40290000012010BD3B4B1B78072B40F0C98003F049F8272840F0C680374B1B78DBB2FF2B40F0C280344B9B78DBB2F82B40F0BE80314B93F82630DBB2F02B40F0B9802F4B16
:402940001B78A3424BD12C4B5B7A03F00F0331332A4A82F8FF3001230CE003F10B0226498A5C2949C91A02F00F02303281F8F1200133DBB2062BF0D90622204B83F8F1206D
:4029800001230CE003F112021B498A5C1F49C91A02F00F02303281F8E3200133DBB2082BF0D90822154B83F8E32001230CE003F11C0211498A5C1549C91A02F00F023032BC
:4029C00081F8D5200133DBB2072BF0D90B4B302283F8D620082283F8D520012010BD064B5B7A03F00F033133044A82F8053201231BE000BFDB8DFF1F5495FF1F6084FF1F11
:402A00006584FF1F408FFF1F6784FF1F6984FF1F03F10B0227498A5C2749C91A02F00F02303281F8F7210133DBB2062BF0D90622224B83F8F72101230CE003F112021D498D
:402A40008A5C1F49C91A02F00F02303281F8E9210133DBB2082BF0D90822184B83F8E92101230CE003F11C0212498A5C1449C91A02F00F02303281F8DB210133DBB2072BFE
:402A8000F0D90E4B302283F8DC21082283F8DB21012010BD002010BD002010BD002010BD002010BD002010BD002010BD002010BD002010BD5495FF1F6784FF1F6084FF1F21
:402AC0006984FF1F30B1002802DB831F062B01D90020704701207047002104E003F00F030B44D9B201300378FB2BF7D103F00F028818404200F00F0040F0E000704700BF60
:402B0000F0B587B005460E46144600230193029303930493ADF81430FFF7FEF90638C0B201280AD845F0200002F092FF322002F039FE02F005FF074600E0002702F066FFC2
:402B400002F064FF45F0D003BB4240F0AA80FF238DF80430E1238DF80530012D40F0A380524A92F8633063F00F038DF80630F6238DF80730013E06F00F0666F01F068DF88F
:402B80000860F8238DF8093092F86450462D09D006231AE006AA1A44E92102F8141C0133DBB200E00623424A127806329342F1DB1A4608E006A91144E02001F8140C013393
:402BC000DBB20132D2B20D2AF4D9442D20D120781A460CE0215C06AE164401F00F0161F01F0106F8141C0138C0B20132D2B2217819448A42EEDB134608E006A91144E020EA
:402C000001F8140C0133DBB20132D2B20D2AF4D9562D20D120781A460CE0215C06AD154401F00F0161F01F0105F8141C0138C0B20132D2B2217819448A42EEDB134608E051
:402C400006A91144E02001F8140C0133DBB20132D2B20D2AF4D906AA1A44FB2102F8141C5D1CEDB201A8FFF737FF06AB2B4403F8140C0135EDB206AB2B44F02203F8142CFD
:402C8000002407E006AB234413F8140C02F0E0FE0134E4B2AC42F5D9322002F083FD012002E0002000E0002007B0F0BD8C88FF1FDB8DFF1FF0B585B000AF0446FFF72CF97E
:402CC00006280AD144F0200002F0C2FE322002F069FD02F035FE054600E0002502F096FE44F0D004AC4222D1FF233B71E9237B71FE23BB71EE23FB71E0233B727B72FB23EC
:402D0000BB72381DFFF7E8FEF872F0233B73002408E007F11003234413F80C0C02F098FE0134E4B2082CF4D9C82002F03BFD02F039FEC6B2F31D23F00703ADEB030D6D46DA
:402D4000002404E002F0FCFD28550134E4B2B442F8D902F05BFEAB7A03F00F03264A13702B7B03F00F03254A1370012B0AD1244A47211170612151706C2191702021D1709B
:402D800011715171022B0CD11D4B55221A706B225A7020229A704722DA7061221A716C225A71AB7B03F00F03013B164A13702B7C03F00F03012B01D0042B02D10321124A2A
:402DC0001170032B00D013B902210F4A1170022B02D101220C4B1A70AB7C03F00F03013B0A4A13702B7D03F00F03094A137000201437BD46F0BD00BF1F8AFF1FEC94FF1F86
:402E00004C91FF1F888DFF1F208AFF1FEA94FF1F0095FF1FF0B585B000AF0446FFF77CF80638C0B201280AD844F0200002F010FE322002F0B7FC02F083FD054600E0002548
:402E400002F0E4FD44F0D004AC422AD1FF233B71E9237B71FE23BB71E023FB71E1223A727B72FB23BB72381DFFF736FEF872F0233B73002408E007F11003234413F80C0CDA
:402E800002F0E6FD0134E4B2082CF4D9154B1B7823B14FF42F7002F085FC02E0C82002F081FC02F07FFDC5B2EB1D23F00703ADEB030D6E46002404E002F042FD30550134C3
:402EC000E4B2AC42F8D902F0A1FD337B03F00F03012B03D1B07B00F00F0000E000201437BD46F0BD1F8AFF1F30B583B005460A4610496B460868496803C3130A8DF80230D6
:402F00008DF80320002410E0012D06D102AB234413F8080C02F0C8FA05E002AB234413F8080C02F0B9FB0134E4B2072CECD903B030BD00BFA86D00002DE9F04387B0054629
:402F40008C4616461C469DF83870BDF83CE00DF10408DFF8A89059F8080FD9F80410D9F80820D9F80C30A8E80F00B9F81030A8F800307A1C02FB04F303EB43039B001B1261
:402F80008DF8063004FB02F404EB4404A3008DF80730C6EBC6035B001B128DF80830C6EBC60673008DF8093020378DF80A709DF84030592B02D185238DF80B304FEA1E23CA
:402FC0008DF80D308DF80EE08DF811C0002410E0012D06D106AB234413F8140C02F064FA05E006AB234413F8140C02F055FB0134E4B2112CECD907B0BDE8F083A86D00007F
:4030000070B584B005460E466B46134C54F81C0F6168A26807C3A2891A808DF807608DF80960002410E0012D06D104AB234413F8100C02F039FA05E004AB234413F8100C38
:4030400002F02AFB0134E4B20D2CECD9642002F0A9FB04B070BD00BFA86D0000F0B585B007460E46154600240DE0315D01230093002301934E23029338461F222B19FFF7BF
:403080005BFF0134E4B2092CEFD905B0F0BD00BF054B04E0824201D15878704702331A78002AF7D1002070472081FF1F2DE9F04387B005468C4616461C469DF83870BDF8E0
:4030C0003CE00DF10408DFF8A89059F82C0FD9F80410D9F80820D9F80C30A8E80F00B9F81030A8F800307A1C02FB04F303EB43039B001B128DF8063004FB02F404EB440457
:40310000A3008DF80730C6EBC6035B001B128DF80830C6EBC60673008DF8093023378DF80A709DF84030592B02D185238DF80B304FEA1E238DF80D308DF80EE08DF811C0A1
:40314000002410E0012D06D106AB234413F8140C02F0AAF905E006AB234413F8140C02F09BFA0134E4B2112CECD907B0BDE8F083A86D000030B585B00D461446012840F0DE
:40318000108102F041F9082840F02F82A84B1B78DBB2AA2B40F0FE80A54B9B79DBB2C32B40F0F880A24BDB79DBB23C2B40F0F280A04B1B78DBB2013DAB4200F39F809C4B7E
:4031C000D878FFF765FF0546A0F12003DBB20B2B2AD8984A13780133DBB213701378964A134483F84B008CB9924B1A781B7892490A4492F84B1001200090002201924E22FD
:40320000029203220233FFF751FF78E0894B1B7801200090002201924E220292214603220233FFF743FF6AE0A0F12D03DBB2512B2AD8804A13780133DBB2137013787E4A36
:40324000134483F84B008CB97A4B1A781B787A490A4492F84B1001200090002201924E22029203220233FFF721FF48E0714B1B7801200090002201924E22029221460322C5
:403280000233FFF713FF3AE02C2838D1694B1B7813F0FF0F33D0694B1B7813F0FF0F2ED1644A13780133DBB213700121634B19701378614A134483F84B008CB95D4B1A7800
:4032C0001B785D490A4492F84B1001200090002201924E22029203220233FFF7E7FE0EE0544B1B7801200090002201924E220292214603220233FFF7D9FE00E000254C4B0F
:40330000DB78DBB20B2B26D14A4B1B7803F0FF042BB9142002F046FA02F0A4F868E1454C237801200090002201924E220292202103220233FFF7BAFE23783F4A134493F85C
:403340004B302C2B02D100223C4B1A70394A1378013BDBB213700A2D10D1364B1B7813F0FF0F0BD0334B1A78334B83F84B20142002F018FA02F076F8012439E12C4BDB78EE
:40338000DBB2942B06D1142002F00CFA02F06AF800242DE1142002F005FA02F063F8022426E102F029F9082840F02181244B1B78DBB2AA2B40F01281214B9B79DBB2C32B61
:4033C00040F00C811E4BDB79DBB23C2B40F006811C4B1B78DBB2013DAB4200F3B580184BD878FFF755FE0546A0F12003DBB20B2B3BD8144A13780133DBB213701378124AE9
:40340000134483F84B000CBB0E4B1A781B780E490A4492F84B1001220092002201924E220292022003220344FFF740FE8DE000BF1495FF1FDE8DFF1F8C88FF1F4B91FF1FC8
:403440003495FF1FEB94FF1F3C8CFF1F6A4B1B7801220092002201924E2202920220214602460344FFF722FE6FE0A0F12D03DBB2512B2CD8604A13780133DBB213701378DD
:403480005E4A134483F84B0094B95B4B1A781B785A490A4492F84B1001220092002201924E220292022003220344FFF7FFFD4CE0514B1B7801220092002201924E220292A2
:4034C0000220214602460344FFF7F0FD3DE02C283BD1494B1B7813F0FF0F36D0484B1B7813F0FF0F31D1444A13780133DBB213700121434B19701378424AD2783F490B440F
:4035000083F84B208CB93C4B1A781B780A4492F84B1001220092002201924E220292022003220344FFF7C2FD0FE0334B1B7801220092002201924E22029202202146024691
:403540000344FFF7B3FD00E000250B2D27D12A4B1B7803F0FF042BB9142002F023F902F079F845E0244C237801220092002201924E2202920220202102460344FFF796FD89
:4035800023781E4A134493F84B302C2B02D100221B4B1A70184A1378013BDBB213700A2D10D1154B1B7813F0FF0F0BD0124B1A78124B83F84B20142002F0F4F802F04AF8C7
:4035C000012415E00F4BDB78DBB2942B06D1142002F0E8F802F03EF8002409E0142002F0E1F802F037F8022402E0022400E00224204605B030BD00BFEB94FF1F3C8CFF1F08
:403600007888FF1F3495FF1F10B582B08DF804008DF8051002F06AFD0720002102F0B2FC58B1002011E002AB234413F8040C02F005FD48B90134E4B200E00024012CF2D925
:4036400002F0E0FC012000E0002002B010BD00BF38B504241DE002F049FD6820002102F091FCD0B9204602F0E9FCC0B902F0CAFC0A2002F097F86820012102F083FC80B9B5
:40368000251F02F007FD084B585502F0BBFC0134E4B2062CDFD9012038BD002038BD002038BD002038BD00BFC88DFF1F10B582B004238DF80430134B1A788DF805205A78A8
:4036C0008DF806209B788DF8073002F00FFD6820002102F057FC58B1002011E002AB234413F8040C02F0AAFC48B90134E4B200E00024032CF2D902F085FC012000E0002025
:4037000002B010BDF494FF1F38B501241DE002F0EDFC6820002102F035FCD0B9204602F08DFCC0B902F06EFC0A2002F03BF86820012102F027FC80B9651E02F0ABFC084BB9
:40374000585502F05FFC0134E4B2022CDFD9012038BD002038BD002038BD002038BD00BF0495FF1F10B582B001238DF80430124B1A788DF805205B788DF8063002F0B6FC34
:403780006820002102F0FEFB58B1002011E002AB234413F8040C02F051FC48B90134E4B200E00024022CF2D902F02CFC012000E0002002B010BD00BF4891FF1F38B504467D
:4037C0000E2900F2DA80DFE801F01221303F4ED85D6C7B8998A7B6C5D400704B2B44204693F88014FFF710FF0135ADB200E00025B5F56C7FF1D3C0E0684B2B44204693F811
:403800003018FFF701FF0135ADB200E00025B5F56C7FF1D3B1E0614B2B44204693F8E01BFFF7F2FE0135ADB200E00025B5F56C7FF1D3A2E0594B2B44204693F8901FFFF7BB
:40384000E3FE0135ADB200E00025B5F56C7FF1D393E0534B2B44204693F84812FFF7D4FE0135ADB200E00025B5F56C7FF1D384E04B4B2B44204693F8F815FFF7C5FE013598
:40388000ADB200E00025B5F56C7FF1D375E0444B2B44204693F8A819FFF7B6FE0135ADB200E00025B5F56C7FF1D366E03C4B2B44204693F8581DFFF7A7FE0135ADB200E0F7
:4038C0000025B5F56C7FF1D357E0364B2B442046197CFFF799FE0135ADB200E00025B5F56C7FF2D349E02F4B2B44204693F8C013FFF78AFE0135ADB200E00025B5F56C7F24
:40390000F1D33AE0274B2B44204693F87017FFF77BFE0135ADB200E00025B5F56C7FF1D32BE0204B2B44204693F8201BFFF76CFE0135ADB200E00025B5F56C7FF1D31CE08E
:40394000184B2B44204693F8D01EFFF75DFE0135ADB200E00025B5F56C7FF1D30DE0124B2B44204693F88811FFF74EFE0135ADB200E00025B5F56C7FF1D320461B21FFF742
:4039800043FE20464021FFF73FFE20460A21FFF73BFE20460A21FFF737FE38BDC8B10000C0C20000B8D30000B0E4000070B504460E46C84B1B78012B04D1C74B1878002114
:4039C000FFF7FCFE20460A21FFF71EFE002506E02046C24B595DFFF717FE0135EDB21D2DF6D920460A21FFF70FFE002506E02046BB4B595DFFF708FE0135EDB21D2DF6D95C
:403A000020460A21FFF700FE002506E02046B54B595DFFF7F9FD0135EDB21D2DF6D920460A21FFF7F1FD002506E02046AE4B595DFFF7EAFD0135EDB21D2DF6D920460A210F
:403A4000FFF7E2FD002506E02046A84B595DFFF7DBFD0135EDB21D2DF6D920460A21FFF7D3FD002508E0A14B2B44204693F82010FFF7CAFD0135EDB20C2DF4D9FFF7E8FD48
:403A8000012832D19A4D2978C1F3011120463031FFF7BAFD297801F00F0120463031FFF7B3FD20462F21FFF7AFFD6978C1F3001130312046C9B2FFF7A7FD697801F00F014D
:403AC00020463031FFF7A0FD20462F21FFF79CFDA978090920463031FFF796FDA97801F00F0120463031FFF78FFD20460A21FFF78BFD002508E07D4B2B44204693F83010B5
:403B0000FFF782FD0135EDB20C2DF4D9FFF7FCFD012820D1774D6978C1F3001130312046C9B2FFF771FD697801F00F0120463031FFF76AFD20463A21FFF766FD2978090949
:403B400020463031FFF760FD297801F00F0120463031FFF759FD20460A21FFF755FD002506E02046614B595DFFF74EFD0135EDB21D2DF6D920460A21FFF746FD002508E0C4
:403B80005A4B2B44204693F84010FFF73DFD0135EDB20C2DF4D9584DA5FB0635ED08204605F13001FFF730FD05EB85056D00751B05F130012046C9B2FFF726FD20460A2157
:403BC000FFF722FD002508E0484B2B44204693F85010FFF719FD0135EDB20C2DF4D920460A21FFF711FD454B1B78B34240F0118309E03E4B2B44204693F86010FFF704FDBF
:403C00000135EDB200E000250C2DF2D920460A21FFF7FAFC002508E0344B2B44204693F87010FFF7F1FC0135EDB20C2DF4D9012508E0324B2B44204693F8F110FFF7E4FC3D
:403C40000135EDB22D4B93F8F130AB42F1D220462021FFF7D9FC2046244B93F88010FFF7D3FC20462F21FFF7CFFC002506E02046234B595DFFF7C8FC0135EDB2042DF6D9D9
:403C800020460A21FFF7C0FC002508E0174B2B44204693F88410FFF7B7FC0135EDB20C2DF4D9164B93F8E430302B03D10022134B83F8E420114B93F8E43043B90F4B93F8D0
:403CC000E530302B03D100220C4B83F8E520012529E000BFCB8DFF1F0195FF1F8C8DFF1FCC94FF1F008AFF1F4084FF1F7481FF1FC88DFF1F0495FF1FCDCCCCCC6084FF1FC0
:403D00004C91FF1FC04B2B44204693F8E310FFF77BFCBE4B1B789D4203D120462E21FFF773FC0135EDB2B84B93F8E330AB42E9D220462021FFF768FC002506E02046B44BC5
:403D4000595DFFF761FC0135EDB2042DF6D920460A21FFF759FC002508E0AE4B2B44204693F89410FFF750FC0135EDB20C2DF4D9A54B93F8D630302B03D10022A24B83F828
:403D8000D620A14B93F8D63043B99F4B93F8D730302B03D100229C4B83F8D720012510E0994B2B44204693F8D510FFF72DFC9A4B1B789D4203D120462E21FFF725FC0135E3
:403DC000EDB2914B93F8D530AB42E9D220462021FFF71AFC20468F4B93F88010FFF714FC20460A21FFF710FC8C4B93F86130012B42D109E0874B2B44204693F8A410FFF772
:403E000003FC0135EDB200E000250C2DF2D9012508E0824B2B44204693F8DF10FFF7F4FB0135EDB27D4B93F8DF30AB42F1D220460A21FFF7E9FB002508E0764B2B442046A1
:403E400093F8B410FFF7E0FB0135EDB20C2DF4D9012508E0714B2B44204693F86510FFF7D3FB0135EDB26D4B93F86530AB42F1D220460A21FFF7C8FB002506E02046654B1C
:403E8000595DFFF7C1FB0135EDB21D2DF6D920460A21FFF7B9FB614B93F86130022B40F0B88109E05B4B2B44204693F8C410FFF7ABFB0135EDB200E000250C2DF2D90125B0
:403EC00008E0564B2B44204693F8EA10FFF79CFB0135EDB2514B93F8EA30AB42F1D220460A21FFF791FB002508E04A4B2B44204693F8D410FFF788FB0135EDB20C2DF4D93F
:403F0000012507E0454B2B4420465978FFF77CFB0135EDB2414B5B78AB42F3D220460A21FFF772FB002508E03A4B2B44204693F8A410FFF769FB0135EDB20C2DF4D90125F6
:403F400008E0364B2B44204693F8F510FFF75CFB0135EDB2314B93F8F530AB42F1D220460A21FFF751FB002508E02A4B2B44204693F8E410FFF748FB0135EDB20C2DF4D9B8
:403F8000012301E00133DBB2244A92F8F5209A42F8D220460A21FFF737FB002508E01D4B2B44204693F8F410FFF72EFB0135EDB20C2DF4D9012301E00133DBB2174A92F84B
:403FC000F5209A42F8D220460A21FFF71DFB002508E0104B2B44204693F80411FFF714FB0135EDB20C2DF4D9012301E00133DBB20A4A92F8F5209A42F8D220460A21FFF7C4
:4040000003FB002515E000BF6084FF1F208AFF1F4C91FF1F7481FF1F888DFF1F8C88FF1F8C4B2B44204693F81411FFF7EDFA0135EDB20C2DF4D9012301E00133DBB2864AC2
:4040400092F8F5209A42F8D220460A21FFF7DCFA002508E07F4B2B44204693F82411FFF7D3FA0135EDB20C2DF4D9012301E00133DBB2794A92F8F5209A42F8D220460A2135
:40408000FFF7C2FA002508E0724B2B44204693F83411FFF7B9FA0135EDB20C2DF4D9012301E00133DBB26C4A92F8F5209A42F8D220460A21FFF7A8FA002508E0654B2B4445
:4040C000204693F84411FFF79FFA0135EDB20C2DF4D9012301E00133DBB25F4A92F8F5209A42F8D220460A21FFF78EFA002508E0584B2B44204693F85411FFF785FA01352D
:40410000EDB20C2DF4D9012301E00133DBB2524A92F8F5209A42F8D220460A21FFF774FA002508E04B4B2B44204693F86411FFF76BFA0135EDB20C2DF4D9012301E0013357
:40414000DBB2454A92F8F5209A42F8D220460A21FFF75AFA002508E03E4B2B44204693F87411FFF751FA0135EDB20C2DF4D9012301E00133DBB2384A92F8F5209A42F8D2DF
:4041800020460A21FFF740FA20460A21FFF73CFA002508E02F4B2B44204693F88411FFF733FA0135EDB20C2DF4D920460A21FFF72BFA20460A21FFF727FA20460A21FFF72C
:4041C00023FA002508E0234B2B44204693F89411FFF71AFA0135EDB20C2DF4D920460A21FFF712FA20460A21FFF70EFA20460A21FFF70AFA002506E02046164B595DFFF712
:4042000003FA0135EDB21D2DF6D920460A21FFF7FBF920460A21FFF7F7F920460A21FFF7F3F920460A21FFF7EFF920460A21FFF7EBF920460A21FFF7E7F920461D21FFF753
:40424000E3F920465621FFF7DFF920463121FFF7DBF970BD7481FF1F8C88FF1F10B501281CD1002002F022F84FF4FA7001F0B0FA012002F01BF8052001F0AAFA02F022F888
:40428000034658B3412001F0A3FA02F01BF80446F02001F09DFAF4B901231FE0002002F019F84FF4FA7001F093FA012002F012F8052001F08DFA02F019F8034670B141202E
:4042C00001F086FA02F012F80446F02001F080FA1CB9012302E0002300E00023184610BD38B50D4601282DD000245AE0002001F0DDFF0A2001F06CFA45FA04F313F0010FE5
:404300000AD0012001F0D2FF0A2001F061FA01F0D9FF034650B94BE0002001F0C7FF0A2001F056FA01F0CEFF00283ED1322001F04FFA012001F0BAFF322001F049FA0134BB
:40434000E4B200E00024072CD0D9012330E0002001F0C0FF0A2001F03BFA45FA04F313F0010F0AD0012001F0B5FF0A2001F030FA01F0BCFF034648B91AE0002001F0AAFF9B
:404380000A2001F025FA01F0B1FF80B9322001F01FFA012001F09EFF322001F019FA0134E4B2072CD3D9012302E0002300E00023184638BD38B5012819D000252C4631E0B8
:4043C000002001F073FF0E2001F002FA012001F06DFF072001F0FCF901F074FFA0400543EDB2642001F0F4F90134E4B201E000252C46072CE4D917E0002001F06BFF0E2034
:4044000001F0E6F9012001F065FF072001F0E0F901F06CFFA0400543EDB2642001F0D8F90134E4B2072CE7D9284638BD4840002308E010F0010F03D0400880F08C0000E021
:4044400040080133072BF4D9704700BF30B5C1B005460C46684609494FF4807202F0A0FB0023184605E0EA5C50401DF8000001339BB2621E9342F6DB41B030BD4CF1000083
:40448000A84BD3E90023002B08BF032AC0F04D8370B5642001F086F901F0C4FF002800F03C830122A04B1A700024A04B1C7005E001F086FF9E4B18550134A4B201F0B2FFD6
:4044C0000028F5D19B4BBC221A70CB225A70C8229A70994A1178D97052781A71944B1B78BC2B40F01A83924B5B78BB2B40F015838F4B9B78B82B40F010838F4B1B788C4A71
:40450000D2789A4240F009838B4B5B78884A12799A4240F00283864B9B79A62B00F02E8104D8A12B0CD0A52B67D0F6E2E12B00F01B82E22B00F0CC82A72B40F0EE82CDE146
:404540007B4B5A797D4B19788A4209D1794B5971A1219971794991F80311D971082400E00524764B93F806319A420DD171494B71631C9BB2A120C85401339BB26F4890F84F
:404580000902C85401339CB26C4B93F80C329A420DD168494B71631C9BB2A120C85401339BB2664890F80F03C85401339CB2634B93F812339A420DD15E4A5371631C9BB22B
:4045C000A121D15401339BB25C4991F81514D15401339CB2651CADB2564E30462946FFF735FF3055002405E0524B185D01F070FF0134A4B2AC42F7D38FE24D4B59794F4B0A
:404600001A78914243D14B4B5A71A5229A714B4A92F80321DA7134221A7201225A72484B1B78053BDBB293420BD90A2430E0434A1A4450783F4A10550134A4B2013B9BB2D0
:4046400001E00A240823002BF1D106E03020394A10550134A4B201339BB2032BF6D9082308E0364A1A44107C324A10550134A4B2013B9BB2002BF4D106E030202D4A105578
:404680000134A4B201339BB2032BF6D900E005242A4B93F8063199425DD1264A5371631C9BB2A521D15401339BB2244991F80912D15401339BB23421D15401339BB2012168
:4046C000D1540B449CB21E4B1B78053BDBB28B4241D80AE0194A1A4492F80711154A11550134A4B2013B9BB200E00823002BF1D106E030210F4A11550134A4B201339BB229
:40470000032BF6D9082309E00C4A1A4492F81611084A11550134A4B2013B9BB2002BF3D117E000BF8088FF1F1E8AFF1F0C95FF1F5491FF1F308AFF1FD88DFF1F6084FF1F87
:40474000DB8DFF1F3021AD4A11550134A4B201339BB2032BF6D9651CADB2A84E30462946FFF774FE3055002405E0A44B185D01F0AFFE0134A4B2AC42F7D3CEE1A04B5A7999
:40478000A04B187882420DD005241DE09C4C257AE45C9C4901EBC501194481F8AC4001339BB200E009230D2BF0D90121954B83F80511934B197A944B1970904B5871A62132
:4047C00099710321D97108248E4B93F80601824223D10BE08A4D2E7AED5C8A4901EBC601194481F8B25101339BB200E009230D2BF0D90121834B83F80B12814B197A824B9E
:4048000019707E494871631C9BB2A620C85401339BB20320C85401339CB27A4B93F80C02824223D10BE0764D2E7AED5C754901EBC601194481F8B85201339BB200E00923EC
:404840000D2BF0D901216F4B83F811136C4B197A6D4B197069494871631C9BB2A620C85401339BB20320C85401339CB2654B93F812138A421FD10BE06148057AC05C614AE0
:4048800002EBC5021A4482F8BE0301339BB200E009230D2BF0D901225A4B83F81724574A5171631C9BB2A621D15401339BB20321D15401339CB2651CADB2504E30462946D5
:4048C000FFF7C4FD3055002405E04C4B185D01F0FFFD0134A4B2AC42F7D31EE1484B5B79484A11788B4207D1444A5171A7219171444991F80311D171424A92F806118B4291
:4049000007D13E4A5171A72191713E4991F80912D1713C4A92F80C128B4207D1374A5171A7219171374991F80F13D171354A92F81223934207D1314B5A71A7229A71314A50
:4049400092F81524DA712D4C20460921FFF77EFD2072002405E0294B185D01F0B9FD0134A4B2082CF7D9D8E0254B197A274A5170597A274A1170997A5170D97A9170197B87
:40498000244A51705B7B1370112307E0A3F111021B49C85C2049885401339BB22E2BF5D92F2307E0A3F12F021549C85C1B49885401339BB24C2BF5D94D2307E0A3F14D0278
:4049C0000F49C85C1649885401339BB26A2BF5D96B2307E0A3F14D020949C85C1149885401339BB2882BF5D9054B1A7C0E4B1A70FEF7B8FEFEF75AFE002420E0308AFF1F59
:404A00005491FF1F6084FF1FDA8DFF1FD48DFF1FF494FF1F4891FF1F8C8DFF1FCC94FF1F008AFF1F4084FF1FE189FF1F04F110013E4B185D89B201F06DF80134A4B21D2CA0
:404A4000F4D91E240AE0A4F11E0304F11001384AD05C89B201F05EF80134A4B23B2CF2D93C240AE0A4F11E0304F11001314AD05C89B201F04FF80134A4B2592CF2D95A241B
:404A80000AE0A4F11E0304F110012B4AD05C89B201F040F80134A4B2772CF2D90C2001F0A3F8264C20700D2001F09EF884F806010E2001F099F884F80C020F2001F094F87B
:404AC00084F812031E4B18782178FEF76FFF24E01C4B5B791C4C6371E223A3710823E3710323237220460A21FFF7B0FC6072002405E0154B185D01F0EBFC0134A4B2092CE7
:404B0000F7D9082307E0C3F108020E49C85C0F49885401339BB20D2BF5D901F0B7FC002000210B4BC3E9000170BD70478C8DFF1FCC94FF1F008AFF1F4084FF1F6084FF1F92
:404B40000195FF1F5491FF1F308AFF1FEC89FF1F8088FF1F38B5AF4BD3E90023002B08BF332AC0F00382AC4B93F803310B2B21D1AA4CBC232370CB236370C823A370A84BAB
:404B80001A78E2705B782371A34B1B786371E623A3710B23E37120460921FFF757FC2072002405E09D4B185D01F092FC0134E4B2082CF7D9984B93F809320B2B22D1974CE2
:404BC000BC232370CB236370C823A370944B1A78E2705B782371904B93F806316371E623A3710B23E37120460921FFF72FFC2072002405E0894B185D01F06AFC0134E4B293
:404C0000082CF7D9844B93F803310B2B21D1834CBC232370CB236370C823A370804B1A78E2705B7823717C4B1B786371E623A3710B23E37120460921FFF708FC2072002497
:404C400005E0764B185D01F043FC0134E4B2082CF7D9714B93F809320B2B22D16F4CBC232370CB236370C823A3706D4B1A78E2705B782371684B93F806316371E623A3711A
:404C80000B23E37120460921FFF7E0FB2072002405E0624B185D01F01BFC0134E4B2082CF7D95D4B93F80431092B40F089805D4B1B78012B40F0848000225A4B1A70574B1A
:404CC000BC221A70CB225A70C8229A70544A1178D97052781A71504A11785971AA2199710121D97192F800211A724F4991F8632002F003025A7291F86500044608E0021BD3
:404D0000494B234493F86510484B9954013CE4B2002CF4D10A2307E0A3F10A024349895C3E4AD1540133DBB2112BF5D90A2307E03A4AD25C12B93021384AD1540133DBB24D
:404D4000112BF5D90022354B9A74374B93F834314BB1234615E003F1130220202F4988540133DBB200E02346072BF4D90BE003F1130101332C4A1A4492F8DF00274A50548E
:404D8000DBB2072BF3D91B2304E03021234AD1540133DBB2242BF8D9204D28462621FFF755FB85F8250005E01C4B185D01F090FB0134E4B2262CF7D90122174B83F803212A
:404DC000154B93F804310A2B40F0A380154B1B78012B40F09E800023124A1370124A82F835310E4BBC221A70CB225A70C8229A700B4A1178D97052781A71074A11785971D4
:404E0000A42199710221D97192F800211A72012318E000BFF889FF1F6084FF1F448FFF1FD88DFF1F898DFF1F8C88FF1F348CFF1F03F108014E4A1A4492F8F1004D4A505422
:404E40000133DBB24A4A92F8F1209A42F0D2484B93F8E430302B03D10022454B83F8E420434B93F8E43043B9414B93F8E530302B03D100223E4B83F8E520012309E003F162
:404E800010013B4A1A4492F8E3003A4A50540133DBB2374A92F8E3209A42F0D2344B93F8D630302B03D10022314B83F8D620304B93F8D63043B92E4B93F8D730302B03D16C
:404EC00000222B4B83F8D720012309E003F11801274A1A4492F8D500264A50540133DBB2234A92F8D5209A42F0D2224C20461E21FFF7ACFA6077002405E01E4B185D01F0A3
:404F0000E7FA0134E4B21D2CF7D90822184B83F80321174B93F8053173B1174B19781A78134B03EBC2021878B532FDF7F7FA18B100220F4B83F805210D4B93F80B3283B10E
:404F40000D4B19781A780A4B03EBC20293F8060102F2BB12FDF7E2FA18B10022044B83F80B2200200021054BC3E9000138BD00BF6084FF1F448FFF1FDA8DFF1FF889FF1FA1
:404F8000FEE700BF08B5104E104D16E029686B68AC68002204E051F8040B43F8040B0432A242F8D1E868002203E0002143F8041B04328242F9D11035013E002EE6D101F0EE
:404FC000C9FDFCF779FFFEE701000000F8F3000008B5124A124B1A60124A136843F40073136000230AE0032B03D80F4A52F8231000E00E490E4A42F8231001332F2BF2D98A
:405000000C4B1A780C4B1A70094A0C4B1A6000F0CFF800220A4B1A6008BD00BF0004FA050CED00E014ED00E000000000814F00000080FF1FBC7600400481FF1F08ED00E041
:405040000081FF1FFEE700BFF0B40022174611E050F82760F3B226F0FF0608E001EB420511F812406D78A5550132013BDBB2002BF4D10137292FEBD9F0BC7047064B1B786E
:40508000DBB203F00701054A11701B09013213704422034B1A707047CF0100496E5800407658004008B50A46002101F084FD08BD38B53322304B1A80182330490B7002317E
:4050C0000A802F4A13704FF49C7204310A8002310B7002310A802B4A13704FF40271023211800232137045F6BF5102321180023213700222244B1A7008224FF040231A704B
:40510000032103F500731970204B1B78DBB220490B70204B1A8041F25122023B1A80002419250CE01C4B1B7803F0010343EA440404F003044FF4F07000F022FB013D0DB10B
:40514000032CEFD115B90320FFF77CFF134B4FF480721A8007221A70002211490A704820023108701A700222033B1A700D4A137843F03F03137038BD8040004082400040AE
:40518000864000408E4000400043004008010049A146004022420040254200400440004006400040A243004008B501F0F9FC08BD70B572B63A4A137843F0040313700024C0
:4051C0000CE0384963001A1952000A4423445B00C8589188FFF766FF0134E4B20C2CF0D9002410E02F49A3001A1952000A4452F8500F23445B000B445168B3F85820FFF75C
:40520000D3FF0134E4B2042CECD94FF090402649FFF71AFF254A137843F0020313701032137843F002031370214C237843F040032370A2F58632513A137843F010031370D3
:405240001C481D490A22FFF7AFFF1C481C490A22FFF7AAFF1B481C490A22FFF7A5FF1B481B490A22FFF7A0FF1A481B490A22FFF79BFF1A4A137843F008031370184E01252C
:405280003570FFF715FF81233370164B1D70FFF7F5FE154821460E22FFF786FF70BD00BFE84600404CF20000A800004803500140A0430040C0510040DC100048105100404D
:4052C000E810004820510040F41000485051004000110048605100400C110048224300400048004004000840B04300407222074B1A70202201331A700622683B1A70472207
:4053000010331A70002250331A7070478964004010B500F03DFA04460A4A137843F0200313700132137843F010031370083A137843F01003137000F0A7FA204600F02CFA75
:4053400010BD00BF9964004008B5054B1B7823B9FFF7CCFF0122024B1A70FFF7D9FF08BDEC83FF1F08B500200C4900F061FA0020072100F071FA0023094A13707221094A0E
:4053800011702021013211700621623A1170472110321170B03A137008BD00BFC1540000EE83FF1F8765004010B500F0F1F904460B4A137843F0200313700132137843F0B4
:4053C000100313700122074B1A60074A137843F01003137000F0B6F9204600F0DDF910BD9765004000E100E09664004008B5054B5B7823B9FFF7B6FF0122024B5A70FFF71D
:40540000D3FF08BDEE83FF1F0122134B1A60134A9378D278DBB2934206D1104B1B7913F0FF0F14D0202013E00C4A9378D278DBB2934205D2094AD3789078181AC0B207E034
:40544000064AD3789078181A2030C0B200E000200122034B1A60704780E100E0EE83FF1F00E100E008B500F093F90B4B1A7842F001021A701A7802F0FE021A7000F08CF9FF
:405480000121064B1960064B00229A70DA701A715A71044B196008BD9865004080E100E0EE83FF1F00E100E0034B1B7813F0040FFAD1024B18707047666400404664004046
:4054C0001C4B1B78DBB213F01E0F05D01A4803F01E0201780A43027003F0200303F0FF022BB3164B1978C9B2154B1B78DBB21548C154154B1B7813F0FF0F02D00121134BD6
:4055000019700F490B780133DBB20B700B78DBB21F2B02D900210A4B1970094B1B780C490978DBB28B4202D10121074B1970002AC6D1704768650040EE83FF1F48650040AF
:40554000F183FF1F1495FF1FF283FF1FF383FF1FF083FF1F08B501200C4900F069F90120072100F079F90023094A13707221094A11702021013211700621A2F5B472117030
:405580004721103211705432137008BDB1560000F583FF1F8A65004010B500F0F9F804460B4A137843F0200313700132137843F0100313700222074B1A60074A137843F0F7
:4055C0001003137000F0CCF8204600F0E5F810BD9A65004000E100E09764004008B5054B5B7823B9FFF7B6FF0122024B5A70FFF7D3FF08BDF583FF1F0222134B1A60134A09
:405600009378D278DBB2934206D1104B1B7913F0FF0F14D0202013E00C4A9378D278DBB2934205D2094AD3789078181AC0B207E0064AD3789078181A2030C0B200E0002019
:405640000222034B1A60704780E100E0F583FF1F00E100E008B500F09BF80B4B1A7842F001021A701A7802F0FE021A7000F094F80221064B1960064B00229A70DA701A713F
:405680005A71044B196008BD9A65004080E100E0F583FF1F00E100E0034B1B7813F0040FFAD1024B1870704767640040476400401C4B1B78DBB213F01E0F05D01A4803F096
:4056C0001E0201780A43027003F0200303F0FF022BB3164B1978C9B2154B1B78DBB21548C154154B1B7813F0FF0F02D00121134B19700F490B780133DBB20B700B78DBB205
:405700001F2B02D900210A4B1970094B1B780C490978DBB28B4202D10121074B1970002AC6D170476B650040F583FF1F4A650040F883FF1F3495FF1FF983FF1FFA83FF1F9C
:40574000F783FF1F054A137843F0020313701032137843F002031370704700BFA2430040054A137843F0010313701032137843F001031370704700BFA24300400000000023
:405780000230800803D000BF01380046FCD17047EFF3108072B6704780F31088704700BF01BE704710B5044605E0084B1868FFF7E7FFA4F50044B4F5004FF6D8034B5868FE
:4057C00000FB04F0FFF7DCFF10BD00BF5883FF1F08B5034B1B7A03FB00F0FFF7D1FF08BD5883FF1F0E4B1A7802F0FC0200F00300104318701A7842F080021A701A7802F055
:405800007F021A7049011A7801F0600102F09F02114319701A7842F010021A70704700BF834300400122014B1A7070478443004070B504460E46074B1D681F2802D9002050
:40584000FFF7AEFF04F01F04103455F8240045F8246070BD08ED00E038B504460D46072902D90020FFF79CFF1F2C02D90020FFF797FF04F01F0000F1604000F564406D0133
:40588000EDB2057038BD00BF054A137843F0040313701032137843F004031370704700BFA243004008B502200C49FFF7C1FF02200721FFF7D1FF0023094A13707221094A8B
:4058C00011702021043A11700621633A11704721103211704F32137008BD00BF695A0000FC83FF1F8C64004008B5FFF751FF0A4A137843F020031370043A137843F01003D5
:4059000013700422054B1A60054A137843F010031370FFF741FF08BD9C64004000E100E09464004008B5054B5B7823B9FFF7BAFF0122024B5A70FFF7D7FF08BDFC83FF1F4A
:405940000422134B1A60134A53889BB2918889B2927912F0FF0F01D18B4211D00E4AD05CC0B201339BB2FF2B00D90023094A5380937913F0FF0F06D00022064B9A7102E09F
:40598000064B1878C0B20422054B1A60704700BF80E100E0FC83FF1F5495FF1F4B64004000E100E00422164B1A60164B5A8892B29B889BB29A4207D1124B9B7913F0FF0F6B
:4059C00019D04FF4807017E00E4B5A8892B29B889BB29A4205D20B4A93885088181A80B20AE0084A908883B2508880B2181A00F5807080B200E000200422034B1A607047C5
:405A000080E100E0FC83FF1F00E100E008B5FFF7BFFE0B4B1A7842F001021A701A7802F0FE021A70FFF7B8FE0421064B1960064B00225A809A809A71DA71044B196008BDBD
:405A40009B64004080E100E0FC83FF1F00E100E0034B1B7813F0040FFAD1024B1870704764640040446400401D4B1B78DBB213F01E0F05D01B4803F01E0201780A430270CF
:405A800003F0200303F0FF0233B3174B1978C9B2164B1B889BB21648C154164B1B7813F0FF0F02D00121144B197010490B8801339BB20B800B889BB2FF2B02D900210B4B8F
:405AC00019800A4B198889B20C4B1B889BB2994202D10121074B1970002AC5D1704700BF68640040FC83FF1F4B6400400084FF1F5495FF1F0284FF1F0384FF1FFE83FF1F8B
:405B000008B500F0D7FE00F0DFFE08BD08B5FFF7F7FF08BD30B583B00C468DF8070000F013FFB4F5006F54D22509C5EB053319010C44A4B200F0B4FF00284CD14020214628
:405B40000DF10702012300F02BFF044607282FD1234B1B7813F0020FFAD0214B1B7813F0020F06D01E4B1B789B0805D04FF0FF3403E04FF0FF3400E00024E4B9194B4020FF
:405B800029461A785B7800F047FF072816D1144B1B7813F0020FFAD0114B1B7813F0020F0FD00F4B1B789B0810D04FF0FF340DE0012809D10AE04FF0FF3407E04FF0FF348C
:405BC00004E04FF0FF3401E04FF0FF3400F08EFF02E0012400E00424204603B030BD00BF224700406C98FF1F38B50446FFF7D0FD054600F093FE04F1804000F500400478B4
:405C0000E4B200F099FE2846FFF7C6FD204638BD10B50222104B1A7081220E3B1A700F2413331C70002201331A704FF400420B4B1A6020460721FFF70FFE20460849FFF709
:405C4000F7FD1022074B1A7000F058FA00F064FA00F04CFA10BD00BFD649004080E100E0B55C00005496FF1F08B5FFF791FD064A137843F0040313701032137843F0040337
:405C80001370FFF789FD08BDA543004008B5074B1B7823B9FFF7BCFF0122044B1A70FFF7E3FF4FF40042024B1A6008BD0684FF1F00E100E038B5A54B1C78E4B2A44B1B78F2
:405CC00013F0400F00F0398114F0010F00F01D819F4B1B78453B052B00F21481DFE813F006008200120112010600E00004F0DF0504F00A04082C42D1954B1B78DBB2452B63
:405D000035D1944B1B7813F0FF0F10D0924B1B681B78DBB2914A137004228C4B1A7001228F4B1A7046228A4B1A702C46EDE08D4B1B7813F0020F0DD08B4A137843F00A030C
:405D400013706022824B1A704FF40042874B1A602C46DAE0864A137843F0100313701022844B1A700422023B1A702C46CDE00022764B1A704A22764B1A702C46C5E00A2C9E
:405D80002BD1794A137843F0A0031370754B1B7813F0020F14D06E4B1B7813F0080F01D0092300E00A23704A11780B4313706022674B1A704FF400426C4B1A602C46A4E007
:405DC0006B4A137843F0100313701022694B1A700422023B1A702C4697E00020FFF7E0FC2C4692E014F0020F37D15D4B1B78594A1278DBB2934210D2594A1378DBB256495B
:405E00000968CB5CDBB255490B7004214F4B197013780133DBB2137077E0524B1B7813F0020F0CD0504A137843F00A0313706022474B1A704FF400424C4B1A6065E000F045
:405E400079F94B4A137843F0100313701022494B1A700422023B1A7057E0424B1B7813F0020F0CD0404A137843F09A0313706022374B1A704FF400423C4B1A6045E03C4A1C
:405E8000137843F01003137010223A4B1A700422023B1A70344A137843F09003137034E0354A1378DBB2354908682C490978C9B2C15413780133DBB213701378304A127891
:405EC000DBB2934203D21022204B1A701DE0254B1B7813F0020F0CD0234A137843F00903137060221A4B1A704FF400421F4B1A600BE01F4A137843F0100313700022134B98
:405F00001A7002E00020FFF74BFC14F0200F1CD00F4B1B7813F0080F01D0012300E00223114A11780B431370114A137803F0EF0313701022064B1A7038BD054B1B7813F08D
:405F4000100F02D11022024B1A7038BDD74900405496FF1F5896FF1F6496FF1FD84900406196FF1F5996FF1F6096FF1F80E100E0D6490040D94900406896FF1F5C96FF1FE0
:405F80005A96FF1F1A4B1B78DBB2102B29D1194B1B7813F0080F26D14FF40042164B1A604000C0B229B140F001004922104B1A7002E045220E4B1A70104B1870012201333E
:405FC0001A700F4B1B7813F0010FFAD00C4B1B7803F00A030A2B08D11022054B1A700320704702207047012070470020704700BF5496FF1FD949004080E100E0D84900401C
:40600000D74900400A4B1B7813F0040F0ED01023074A13700421023A1170064A1370064B1B7813F0210FFAD00020704702207047D94900405496FF1FD7490040114B1B781E
:4060400013F0040F1BD0104B18700422013B1A7046220E4B1A700E4B1B7813F0010FFAD00B4B1B7813F0020F04D16022074B1A70002070476022054B1A70032070470220DD
:40608000704700BFD9490040D84900405496FF1FD7490040114B1B7813F0040F1BD0104B1B78DBB2492B05D14A220D4B1A7000220C4B1A700B4B1B7813F0010FFAD00A4B1E
:4060C0001B78DBB218B11021064A117004E06021034A117000E0002318467047D94900405496FF1FD7490040D8490040024B187800221A70704700BF6096FF1F0022044BBB
:406100001A70044A137803F0FE031370704700BF6896FF1F6096FF1F0022044B1A70044A137803F0FD031370704700BF6196FF1F6096FF1F704700BF084A137843F002036B
:4061400013701032137843F00203137002F65932137843F001031370704700BFA3430040084A137803F0FE031370A2F66932137803F0FD0313701032137803F0FD031370E5
:40618000704700BF0C4F0040014B1870704700BF0F4F0040014B1878704700BF0F4F0040014B1880704700BF104F0040014B1880704700BF124F004008B5164A137803F067
:4061C000010313700232137803F0FC031370124B1A7802F0CF021A701A7842F030021A701A7802F0F0021A701A7842F00F021A700A4A137843F00103137040F21F30FFF7B9
:40620000CFFF40F21F30FFF7D1FF0820FFF7BCFF08BD00BF0C4F0040174F00400D4F004008B5054B1B7823B9FFF7C6FF0122024B1A70FFF781FF08BD0784FF1F024B1B682A
:40624000C3F88800704700BF08ED00E04001C0B2014B1870704700BF12E400E04FF48022014B1A60704700BF00E100E04FF48022014B1A60704700BF80E100E010B504466A
:40628000FFF7F4FF2046FFF7D9FF0720FFF7DEFFFFF7E4FF10BD00BF08B5FFF7E7FF0248FFF7CCFF08BD00BF814F0000044A137803F0BF03800100F0400018431070704799
:4062C00050510040024B1878C0F38010704700BF51510040044A137803F07F03C001C0B203431370704700BF50510040014B1878C00970475151004010B5FFF749FA04461E
:406300000B4A137843F020031370013A137843F0100313700822074B1A60074A137843F01003137000F02EF92046FFF735FA10BD9E64004000E100E093640040014B1878F5
:40634000704700BF70640040014B1870704700BF7064004008B503200F49FFF769FA03200721FFF779FA00230C4A137072210C4A11702021013A117006215E3A11704721E5
:406380001032117044321370FFF7D8FF00F0E700FFF7DAFF08BD00BFE96400000884FF1F8E64004008B5054B5B7823B9FFF7D2FF0122024B5A70FFF79FFF08BD0884FF1F41
:4063C0000822134B1A60134A53889BB2918889B2927912F0FF0F01D18B4212D00E4AD05CC0B201339BB2B3F5007F00D30023094A5380937913F0FF0F06D00022054B9A71FC
:4064000002E0064B1878C0B20822054B1A60704780E100E00884FF1F6C96FF1F4864004000E100E00822164B1A60164B5A8892B29B889BB29A4207D1124B9B7913F0FF0F92
:4064400019D04FF4007017E00E4B5A8892B29B889BB29A4205D20B4A93885088181A80B20AE0084A908883B2508880B2181A00F5007080B200E000200822034B1A60704736
:4064800080E100E00884FF1F00E100E008B5FFF77FF90B4B1A7842F001021A701A7802F0FE021A70FFF778F90821064B1960064B00225A809A809A71DA71044B196008BDAC
:4064C0009864004080E100E00884FF1F00E100E0034B1B7813F0040FFAD1024B1870704763640040406400401E4B1B78DBB213F01E0F05D01C4803F01E0201780A4302703E
:4065000003F0200303F0FF02002B27D0174B1978C9B2174B1B889BB21648C154164B1B7813F0FF0F02D00121144B197010490B8801339BB20B800B889BB2B3F5007F02D347
:4065400000210B4B19800A4B198889B20C4B1B889BB2994202D10121074B1970002AC3D1704700BF6D6400400884FF1F486400400C84FF1F6C96FF1F0E84FF1F0F84FF1FDE
:406580000A84FF1F054A137843F0080313701032137843F008031370704700BFA2430040084A137843F0080313701032137843F00803137002F67132137843F0010313705F
:4065C000704700BFA3430040014B1870704700BF274F0040014B1878704700BF274F0040014B1880704700BF284F0040014B1880704700BF2A4F004008B5154A137803F039
:40660000010313700232137803F0FC031370114B1A7802F0CF021A701A7842F030021A701A7802F0F0021A701A7842F00F021A70094A137843F001031370F920FFF7D0FF0F
:40664000F920FFF7D3FF0820FFF7BEFF08BD00BF244F00402F4F0040254F004008B5054B1B7823B9FFF7C8FF0122024B1A70FFF797FF08BD1284FF1F084A137843F0040366
:4066800013701032137843F00403137002F66532137843F001031370704700BFA3430040014B1870704700BF1B4F0040014B1878704700BF1B4F0040014B1880704700BF13
:4066C0001C4F0040014B1880704700BF1E4F004008B5154A137803F0010313700232137803F0FC031370114B1A7802F0CF021A701A7842F030021A701A7802F0F0021A70D8
:406700001A7842F00F021A70094A137843F0010313701320FFF7D0FF1320FFF7D3FF0820FFF7BEFF08BD00BF184F0040234F0040194F004008B5054B1B7823B9FFF7C8FFD6
:406740000122024B1A70FFF797FF08BD1384FF1F024B1B68C3F88C00704700BF08ED00E04001C0B2014B1870704700BF13E400E04FF40022014B1A60704700BF00E100E081
:406780004FF40022014B1A60704700BF80E100E010B50446FFF7F4FF2046FFF7D9FF0720FFF7DEFFFFF7E4FF10BD00BF024B1B68C3F89000704700BF08ED00E04001C0B253
:4067C000014B1870704700BF14E400E04FF48012014B1A60704700BF00E100E04FF48012014B1A60704700BF80E100E010B50446FFF7F4FF2046FFF7D9FF0720FFF7DEFF2D
:40680000FFF7E4FF10BD00BF10B500F09DF800F047F9D0B900F086F90446072812D102E00120FEF7D5FF0A4B1B7813F0020FF7D0074B1B7813F0020F04D0054B1B789B0843
:4068400000D1002400F052F900E00424204610BD2247004010B500F077F800F021F910BB012000F0FFF8072818D11048022100F07DF802280AD102E00120FEF7A9FF0C4B0F
:406880001B7813F0020FF7D0002409E0084B1B7813F0020FE9D04FF0FF3401E04FF0FF3400F024F900E00424204610BD6C98FF1F2247004008B5FFF7A7FF034610B9FFF771
:4068C000C9FF0346184608BD08B5FEF761FF0F4A137843F0080313701032137843F008031370C8220A4B1A700A4A137843F0100313701032137843F010031370064B1B7834
:4069000013F0200FFAD0FEF747FF08BDA043004001470040AC43004000470040054A137843F001031370034B1B7813F0020FFAD0704700BF02470040024A137803F0FE03DD
:40694000137070470247004008B5FEF721FF064A137843F0080313701032137843F008031370FEF719FF08BDA043004070B506460D4600240CE00120FEF72AFF064B1B786C
:4069800013F0010FF7D0054B1B7833550134E4B2AC42F3D3204670BD224700402047004030B43E2801D81F2B03D93F2827D90F2B27D8174C247814F0020F24D0154CB62503
:4069C0002570D4252570012525700234247814F0020F1AD10F4C2070C1F300202070C9B22170591EC9B22170002104E0545C094804700131C9B29942F8D3072006E001200E
:406A000004E0012002E0042000E0092030BC7047224700402047004030B4104C247814F0020F15D00E4CB6252570D8252570052525700234247814F0020F0BD1084C2070B7
:406A4000080A2070C9B2217022702370072002E0042000E0092030BC704700BF22470040204700400C4B1B7813F0020F0FD00B4BB6221A70E1221A700E221A7002331B78B7
:406A800013F0020F05D1054B187007207047042070470920704700BF224700402047004010B5FEF775FE0F4B1B78A3B901220D4B1A700D4B1B6813F0010F0ED00A4A136856
:406AC00023F00103136000BF00BF00BF0122054B5A60002402E0042400E00024FEF75CFE204610BD1484FF1F0400084008B5FEF74FFE0A4B00221A705B68012B0AD1084AD0
:406B0000136843F00103136000BF00BF00BF0022024B5A60FEF740FE08BD00BF1484FF1F04000840074B1B7813F0020F08D0064BB6221A70E0221A700D221A70072070476A
:406B400004207047224700402047004000210A2200F0C0B80E4B70B51E460E4C0025E41AA410A54204D056F8253098470135F8E708F030FC084B094C1E46E41AA4100025C9
:406B8000A54204D056F8253098470135F8E770BDE0F30000E0F30000E0F30000E8F3000010B5431E0A44914204D011F8014B03F8014FF8E710BD03460244934202D003F86A
:406BC000011BFAE7704700002DE9F0470F46404CD4F800903D4615F801EB09EB0E04667806F0080404F0FF060CB12F46F2E774462D2C03D1BD1C7C78012603E02B2C04BF19
:406C00007C78BD1C13B1102B0AD15AE0302C56D12C7804F0DF04582C4CD16C7810230235002E14BF4FF000486FF00048B8FBF3FA0027BE4603FB1A8809EB040C9CF801C093
:406C40001CF0040F01D0303C0BE01CF0030C1BD0BCF1010F0CBF4FF0370C4FF0570CCCEB04049C4210DAB7F1FF3F0AD0D64506D801D1444503DC03FB0E4E012701E04FF0FF
:406C8000FF3715F8014BD7E77C1C73460AD1002E4FF0220114BF4FF000436FF0004301602AB911E00EB1CEF100036AB107B1691E116009E03024002BB2D10823B0E70A2379
:406CC000AEE7302CACD1A3E71846BDE8F08700BFCC83FF1F30B505460C461346034A294610682246BDE83040FFF76EBFC883FF1F00000000532F442F4475706C61200000D3
:406D00005365787475706C61000000004F637475706C610000000000352D352D3420202020200000362D362D3420202020200000372D372D3520202020200000382D372D8D
:406D400035202020202000005465737420646520496D70726573696F6E2050756572746F203100005465737420646520496D70726573696F6E2050756572746F203200009F
:406D8000496E696369616E646F000000517561647275706C61000000FF00F4F600F700000000000000000000AA700000CC33C33CAA980000013922C5030000FFFF00CC333B
:406DC000C33C0000AA5C0020002000300030CC33C33C0000AA980000013923C5020000FFFF00CC33C33C00001D4C33001B2A00AA0000000000000000000000000000000003
:406E0000000000000000000000000000000000000000000000000000000000000000000000000000000000000000000000000000000103070F1F1F1E3E3C3C3C3C3C3C3CFA
:406E40003C3C3C3C3C3C3C3C3C3C3C3F3F3F3F3F00000000000000000000000000000000000000000000000000000000000000000000000000000000000000000000000043
:406E8000000000000000000000000000000000000000000000000000000000000000000000000000011D4C33001B2A00AA0000000000000000000000000000000000000046
:406EC000000000000000000000000000000000000000000000001F1F1F1F1F1F1F1F1F1F1F1F1F1F0F0701000000000000FFFFFFFFFF80000000000000000000000000004E
:406F00000000000000000000FFFFFFFFFC00000000000000000000000000000000000000000000000000000000000000000000000000000000000000000000000000000059
:406F4000000000000000000000000000000000000000000000000000000000000000000000011D4C33001B2A00AA0000000000000000000000000000000000000000000085
:406F8000000000000000000000000000000000000000C0E0F0F0F8F8F8F8F8F8F8F8F8F8F8F8F0000000000000FEFEFEFEFE0E0E0E0E0E0E0E0E0E0E0E0E0E0E0E0E0E0ECF
:406FC0001E3E7CFCF8F0E080000000000000000000000000000000000000000000000000000000000000000000000000000000000000000000000000000000000000000075
:40700000000000000000000000000000000000000000000000000000000000000000011D4C33001B2A00AA00000000000000000000000000000000000000000000000000C4
:40704000000000000000000000000000000000000000010307070707070707070707070707070707070707000000000000003F3F3F38383838383838383838383838381C9E
:407080001E1F0F0300000000000000000000000000000000000000000000000000000000000000000000000000000000000000000000000000000000000000000000000081
:4070C000000000000000000000000000000000000000000000000000000000011D4C33001B2A00AA0000000000000000000000000000000000000000000000000000000004
:407100000000000000000000000000007FFFFFFFFFFFFFFFFFFFFFFFFFFFFFFFFFFFFFFFFFFFFC00000000000000F0FCFE1F0F0703030303030303030303030303FFFFFFA6
:40714000FF00000000000000000000000000000000000000000000000000000000000000000000000000000000000000000000000000000000000000000000000000000010
:40718000000000000000000000000000000000000000000000000000011D4C33001B2A00AA0000000000000000000000000000000000000000000000000000000000000043
:4071C00000000000000000000000E0E0E0E0E0E0E0E0E0E0E0E0E0E0E0E0E0E0E0C080000000000000000000000000000000808080808080808080808080808080800000AF
:40720000000000000000000000000000000000000000000000000000000000000000000000000000000000000000000000000000000000000000000000000000000000004E
