:400000000080002011000000212100002121000008B5044B1A6803F53F5302331A6002F081F800BFFA46004010B5054C237833B9044B13B10448AFF300800123237010BD78
:400040009082FF1F0000000038370000084B10B51BB108480849AFF300800848036803B910BD074B002BFBD0BDE81040184700BF00000000383700009482FF1F0881FF1F51
:400080000000000008B502F0BBFE02F0C5FD02F017FB02F00DFC02F037FA02F0BFFA02F05BFF08BD10B5154C2078002102F0ACFE134B1878012102F0A7FE124B1878022114
:4000C00002F0A2FE104B1878032102F09DFE0F4B1878042102F098FE0D4B1878052102F093FE0C4B1878062102F08EFE20780130C0B2072102F088FE10BD00BFAE89FF1F62
:40010000D495FF1F568CFF1FAF89FF1FD295FF1FE895FF1F5690FF1F10B59CB0994A19AB07CA03C31A80984B16AC93E8070003C42280964A13AC07CA03C4228010AC03F1BC
:400140000C0207CA03C4227000228DF849200DAC03F1180103C984E80300ADF83C200AAC03F1240207CA03C4228007AC03F1300207CA03C4228004AC03F13C0207CA03C49E
:40018000228001AC483393E8070003C42280804B1B78022B7AD10120014601F049FB012019A9002201F0FEFB4FF4967002F072FC784B1B785BB90133DBB2774A82F80231E6
:4001C00082F80532012016A9002201F0EBFB714B1B78012B0BD10133DBB26F4A82F8023182F80532012013A9002201F0DBFB694B1B78022B0BD10133DBB2674A82F8023111
:4002000082F80532012010A9002201F0CBFB614B1B78032B0BD10133DBB25F4A82F8023182F8053201200DA9002201F0BBFB5B4B1B783BB901200AA9162201F0B3FB0522AA
:40024000574B1A70554B1B78012B07D1012007A9162201F0A7FB0622514B1A704F4B1B78022B07D1012004A9162201F09BFB07224B4B1A70494B1B78032B07D1012001A931
:40028000162201F08FFB0822454B1A70404B1B78042B6DD101202E2101F0CAFA012019A9002201F07FFB4FF4967002F0F3FB394B1B787BB90133DBB2374A82F8023182F84A
:4002C000053282F8083382F80B34012016A9002201F068FB2F4B1B78012B0FD10133DBB22D4A82F8023182F8053282F8083382F80B34012013A9002201F054FB254B1B78A4
:40030000022B0FD10133DBB2234A82F8023182F8053282F8083382F80B34012010A9002201F040FB1B4B1B78032B0FD10133DBB2194A82F8023182F8053282F8083382F8D6
:400340000B3401200DA9002201F02CFB134B1B78012B04D1012007A9162201F023FB0F4B1B78022B04D1012004A9162201F01AFB074B1B78012B03D80120002101F058FAB7
:400380001CB010BDA43700003C370000B0370000F095FF1FAE89FF1F0083FF1FE895FF1F5690FF1F08B5104B1B78022B06D10220012101F03DFA00220C4B1A600A4B1B7841
:4003C000042B03D102202E2101F032FA064B1B78012B03D80220002101F02AFA02200449002201F0DFFA08BDF095FF1F1493FF1F0C81FF1F08B500F0B3FD2D4B1870002871
:4004000055D02C4B187800F093FD01F01DF850B90120002101F00CFA0220002101F008FA0022234B1A70234B93F8030100F080FD01F00AF850B90120002101F0F9F90220CB
:40044000002101F0F5F90022194B1A70194B187800F06EFD00F0F8FF48B3164B93F8030100F066FD00F0F0FF08B300F079FD104B1870104B187800F05BFD06280DD10D4B7E
:4004800093F8030100F054FD062806D1094B187801F0D2F8FFF706FE08BD0120092101F0C7F90220092101F0C3F9FFF7A3FF08BDF095FF1F0083FF1F70B584B0B14B1B689B
:4004C000092B00F27683DFE813F00A001000410092004A01840101024702B102F302FFF71BFE0122A74B1A6063E302F0F7F8082840F05F83A44B1B78DBB2AA2B20D1A24B99
:400500009B79DBB2C32B1BD19F4BDB79DBB23C2B16D19D4BDB78DBB23A2B02D07E2B08D00EE00222974B1A600120042101F080F906E00120014601F07BF90022914B1A605E
:400540000A2002F0A7FA02F0F7F832E302F0C6F8082840F02E838C4B1B78DBB2AA2B40D1894B9B79DBB2C32B3BD1874BDB79DBB23C2B36D1844BDB78DBB2452B1AD004D8B5
:400580000D2B07D00E2B0DD02BE07E2B22D0942B18D026E003227B4B1A600120052101F047F91EE00422774B1A600120852101F03FF916E00522734B1A600120832101F08B
:4005C00037F90EE000226F4B1A600120014601F02FF906E000226B4B1A600120014601F027F90A2002F056FA02F0A6F8E1E202F075F8082840F0DD82634B1B78DBB2AA2BD5
:4006000040F0A780604B9B79DBB2C32B40F0A1805D4BDB79DBB23C2B40F09B805A4BDB78DBB23B2B00F0868004D80F2B0BD0102B27D08EE07E2B00F08580942B72D0432B1E
:4006400040F087803BE004224E4B1A604F4B002483F82541022583F87C50442283F87D204B4B1C700120062101F0E2F80120009001944E230293242103222B4601F0BAF964
:4006800067E004223F4B1A60404B002583F82551012483F87C40562683F87D603C4B1D7020460D2101F0C4F8009401954E230293204631460322022301F09CF949E0334B1F
:4006C000022283F87C20462283F87D20012306E02E4A1A44392182F87E100133DBB219462C4A1278501E8342F2DB284B5C18302084F87E0084F87F0083F87E20002307E08E
:400700002249194491F87E0081F888000133DBB29342F5D905221B4B1A600120862101F087F816E00022174B1A600120014601F07FF80EE00022134B1A600120014601F041
:4007400077F806E000220F4B1A600120014601F06FF80A2002F09EF901F0EEFF29E201200C4B1978002201F0A9F910B101281ED01FE20022034B1A600120014601F058F8A8
:4007800017E200BF7890FF1FF497FF1F1087FF1F5790FF1F5690FF1F8B4A1A4492F8641082F87E1082F888100133DBB200E00023854A92F864209A42EED20022824B83F802
:4007C00025210522814B1A600120862101F030F8EFE101F083FF082840F0EB817C4B1B78DBB2AA2B6CD17A4B9B79DBB2C32B67D1774BDB79DBB23C2B62D1754BDB787E3BC8
:400800003A2B5DD8DFE803F055351E295C5C5C5C5C5C5C5C5C5C5C5C5C5C5C5C5C5C4D5C5C5C5C5C5C5C5C5C5C5C5C5C5C5C5C5C5C5C5C5C5C5C5C5C5C5C5C5C5C5C5C5CF2
:400840005C5C41000622614B1A600120614B83F801010B2100F0ECFF32E006225B4B1A6002225C4B83F8012101200B2100F0E0FF26E00622554B1A600322564B83F8012157
:4008800001200B2100F0D4FF1AE006224F4B1A600422504B83F8012101200B2100F0C8FF0EE00022494B1A600120014600F0C0FF06E00120014600F0BBFF0022434B1A6039
:4008C0000A2002F0E7F801F037FF72E101F006FF082840F06E813E4B1B78DBB2AA2B35D13B4B9B79DBB2C32B30D1394BDB79DBB23C2B2BD1364BDB78DBB2392B04D07E2B9A
:400900001DD0382B22D10FE00922304B1A600022314B1A702C4B012083F8250183F895020A2100F085FF11E00022274B83F825210721264B1960012000F07AFF06E001206A
:40094000014600F075FF0022204B1A600A2002F0A1F801F0F1FE2CE1012000F0FFFE01461C4B83F8000193F80131984236D1164A92F87C30174800787E3203F0030300F047
:4009800081FD012812D1134C207800F0D1FA207840F0100002F0D6F9322002F07BF808210A4B1960012000F043FF1AE00021074B1960012000F03CFFC82002F06BF80120D1
:4009C000014600F035FF0CE01087FF1F7890FF1FF497FF1F0083FF1F5790FF1F0722764B1A6001F07BFE08281DD1744B1B78DBB2AA2B15D1714B9B79DBB2C32B10D16F4B0A
:400A0000DB79DBB23C2B0BD16C4BDB78DBB27E2B06D10120014600F00BFF0022664B1A600A2002F037F801F087FEC2E0644B187800F07EFA0A2805D00B281AD0062840F040
:400A4000B8802DE05E4B187800F01AFB00225A4B1A605C4B93F89532012B05D101200146574B1B7801F098FA0120014600F0E0FE9FE0534B187800F003FB00224E4B1A6091
:400A8000504B93F89532012B05D1012001464C4B1B7801F081FA0120014600F0C9FE88E00022454B1A600120014600F0C1FE80E001200A21002201F001F810B1012837D0D6
:400AC00077E0404B93F82531022B1FD0032B29D0012B2AD107E03B4A1A44002182F804110133DBB200E000230A2BF4D90022324B1A600120014600F09BFE16E0314A1A44B0
:400B0000002182F80F110133DBB200E000230A2BF4D90AE02B4A1A44002182F81A110133DBB200E000230A2BF4D901F005FE40E0244B93F82531022B23D0032B31D0012B0C
:400B400035D108E01F4A1A4492F8641082F804110133DBB200E000231A4A92F864209A42F0D20721144B1960012000F061FE1EE0144A1A4492F8641082F80F110133DBB2DC
:400B800000E000230F4A92F864209A42F0D20EE00C4A1A4492F8641082F81A110133DBB200E00023074A92F864209A42F0D201F0C3FD04B070BD00BF7890FF1FF497FF1F07
:400BC0000083FF1F1087FF1F08B5A94B1B68062B00F28B81DFE813F007000D0041009200ED001D015001FFF7DDFB0122A04B1A6008BD0220232100F0A7FE01F067FE082893
:400C000040F073819B4B1B78DBB2AA2B1FD1994B9B79DBB2C32B1AD1964BDB79DBB23C2B15D1944BDB78DBB23A2B02D07E2B07D00DE002208E4B1860042100F0F9FD06E091
:400C40000220012100F0F4FD0022894B1A600A2001F020FF01F068FE08BD01F037FE082840F04381834B1B78DBB2AA2B40D1814B9B79DBB2C32B3BD17E4BDB79DBB23C2BF3
:400C800036D17C4BDB78DBB2452B1AD004D80D2B07D00E2B0DD02BE07E2B22D0942B18D026E00322724B1A600220052100F0C0FD1EE004226E4B1A600220852100F0B8FDC3
:400CC00016E005226A4B1A600220832100F0B0FD0EE00022664B1A600220012100F0A8FD06E00022624B1A600220012100F0A0FD0A2001F0CFFE01F017FE08BD01F0E6FDAA
:400D0000082840F0F2805B4B1B78DBB2AA2B4AD1584B9B79DBB2C32B45D1564BDB79DBB23C2B40D1534BDB78DBB23B2B2CD004D80F2B09D0102B0FD035E07E2B2CD0942B87
:400D40001AD0432B2FD10FE00422494B1A600220062100F06DFD26E00522454B1A6002200D2100F065FD1EE00622414B1A6002200B2100F05DFD16E000223D4B1A6002207C
:400D8000012100F055FD0EE00022394B1A600220012100F04DFD06E00022354B1A600220012100F045FD0A2001F074FE01F0BCFD08BD01F08BFD082840F097802D4B1B78D4
:400DC000DBB2AA2B1FD12B4B9B79DBB2C32B1AD1284BDB79DBB23C2B15D1264BDB78DBB27E2B09D0942B0ED10022214B1A600220012100F01DFD06E000221D4B1A6002203D
:400E0000012100F015FD0A2001F044FE01F08CFD08BD01F05BFD082867D1164B1B78DBB2AA2B1FD1134B9B79DBB2C32B1AD1114BDB79DBB23C2B15D10E4BDB78DBB27E2BB7
:400E400009D0942B0ED10022094B1A600220012100F0EEFC06E00022054B1A600220012100F0E6FC0A2001F015FE01F05DFD08BD1493FF1F1498FF1F01F028FD082834D1ED
:400E80001A4B1B78DBB2AA2B2AD1184B9B79DBB2C32B25D1154BDB79DBB23C2B20D1134BDB78DBB2392B04D07E2B12D0382B17D107E002200A2100F0BBFC07220C4B1A603B
:400EC0000EE00220862100F0B3FC0822084B1A6006E00220012100F0ABFC0022044B1A600A2001F0D7FD01F01FFD08BD1498FF1F1493FF1F08B562B6002304E000210B4A57
:400F0000D1540133DBB2032BF8D9FFF7BBF8FFF771FA0320002101F0DDFD01F0FBFDFFF7CBFA01F0F7FDFFF74FFEF6E75090FF1F10B5044601F0E4FE204601F003FF3C2075
:400F400001F0A8FD01F0A8FE38B101F073FEC0F3071401F0D5FE204610BD002010BD00BF10B5464BFF221A7083F8032183F8062283F80923012454E0204601F0E3FE642089
:400F800001F088FD01F088FE38B13C4B1B78FF2B03D13A4B1C7001F0B3FE01F07DFE68B1364B1B78A34209D0344B93F80331FF2B04D1324B83F8034101F0A2FE01F06CFED4
:400FC00090B12E4B1B78A3420ED02C4B93F80331A34209D0294B93F80632FF2B04D1274B83F8064201F08CFE01F056FEB8B1234B1B78A34213D0214B93F80331A3420ED0A2
:401000001E4B93F80632A34209D01C4B93F80933FF2B04D1194B83F8094301F071FE0134E4B2102CA8D9154B1B78FF2B0ED0134A92F80321FF2A09D0104A92F80622FF2A49
:4010400004D00E4A92F80923FF2A0FD1FF2B04D00A4A92F80321FF2A0AD1FF2B0AD1074B93F80331FF2B07D0012010BD042010BD022010BD012010BD002010BD0083FF1F20
:4010800010B5044601F03CFE44F0400001F05AFE4FF4967001F0FEFC01F03CFDB64B1B78072B00F0F28001F0F7FD212840F0ED80B24B1B78DBB2FF2B40F0AE81AF4B9B7835
:4010C000DBB2F82B40F0AA81AC4B93F82030DBB2F02B40F0A581AA4B1B78A3426AD1A74B5B7A03F00F033133A54A82F8FF3001230CE003F10B02A1498A5CA249C91A02F004
:401100000F02303281F8F1200133DBB2042BF0D904229B4B83F8F1209B4B1B78DBB2012B06D1974B052283F8F120302283F8F62001230CE003F1100290498A5C9349C91A4C
:4011400002F00F02303281F8E3200133DBB2062BF0D906228A4B83F8E32001230CE003F1170286498A5C8949C91A02F00F02303281F8D5200133DBB2062BF0D97E4B1B78E7
:40118000052B11D109E05A1E7D49881890F8D5000B4483F8D500D3B200E00623012BF2D83022774B83F8D6200622754B83F8D520012010BD714B5B7A03F00F033133704A57
:4011C00082F8023201230CE003F10B026B498A5C6C49C91A02F00F02303281F8F4210133DBB2042BF0D90422654B83F8F421664B1B78DBB2012B06D1614B052283F8F421B5
:40120000302283F8F92101230CE003F110025B498A5C5E49C91A02F00F02303281F8E6210133DBB2062BF0D90622554B83F8E62101230CE003F1170250498A5C5349C91A98
:4012400002F00F02303281F8D8210133DBB2062BF0D9494B1B78052B11D109E05A1E4849881890F8D8010B4483F8D801D3B200E00623012BF2D83022414B83F8D92106220E
:401280003F4B83F8D821012010BD3B4B1B78072B40F0C88001F000FD272840F0C580374B1B78DBB2FF2B40F0C180344B9B78DBB2F82B40F0BD80314B93F82630DBB2F02BDC
:4012C00040F0B8802E4B1B78A3424BD12B4B5B7A03F00F0331332A4A82F8FF3001230CE003F10B0225498A5C2849C91A02F00F02303281F8F1200133DBB2062BF0D906221D
:401300001F4B83F8F12001230CE003F112021B498A5C1F49C91A02F00F02303281F8E3200133DBB2082BF0D90822154B83F8E32001230CE003F11C0210498A5C1449C91AC3
:4013400002F00F02303281F8D5200133DBB2072BF0D90B4B302283F8D620082283F8D520012010BD054B5B7A03F00F033133044A82F8023201231AE05690FF1F3498FF1FA7
:401380000083FF1F0583FF1F1293FF1F0783FF1F0983FF1F03F10B0227498A5C2749C91A02F00F02303281F8F4210133DBB2062BF0D90622224B83F8F42101230CE003F150
:4013C00012021D498A5C1F49C91A02F00F02303281F8E6210133DBB2082BF0D90822184B83F8E62101230CE003F11C0212498A5C1449C91A02F00F02303281F8D8210133E3
:40140000DBB2072BF0D90E4B302283F8D921082283F8D821012010BD002010BD002010BD002010BD002010BD002010BD002010BD002010BD002010BD3498FF1F0783FF1F7E
:401440000083FF1F0983FF1F30B1002802DB831F062B01D90020704701207047002104E003F00F030B44D9B201300378FB2BF7D103F00F028818404200F00F0040F0E0002C
:40148000704700BFF0B587B005460E46144600230193029303930493ADF81430FFF748FD0638C0B201280AD845F0200001F04AFC322001F0EFFA01F0BDFB074600E00027D4
:4014C00001F01EFC01F01CFC45F0D003BB4240F0AA80FF238DF80430E1238DF80530012D40F0A380524A92F87C3063F00F038DF80630F6238DF80730013E06F00F0666F0F8
:401500001F068DF80860F8238DF8093092F87D50462D09D006231AE006AA1A44E92102F8141C0133DBB200E00623424A127806329342F1DB1A4608E006A91144E02001F8BA
:40154000140C0133DBB20132D2B20D2AF4D9442D20D120781A460CE0215C06AE164401F00F0161F01F0106F8141C0138C0B20132D2B2217819448A42EEDB134608E006A981
:401580001144E02001F8140C0133DBB20132D2B20D2AF4D9562D20D120781A460CE0215C06AD154401F00F0161F01F0105F8141C0138C0B20132D2B2217819448A42EEDBD4
:4015C000134608E006A91144E02001F8140C0133DBB20132D2B20D2AF4D906AA1A44FB2102F8141C5D1CEDB201A8FFF737FF06AB2B4403F8140C0135EDB206AB2B44F0228E
:4016000003F8142C002407E006AB234413F8140C01F098FB0134E4B2AC42F5D9322001F039FA012002E0002000E0002007B0F0BD1087FF1F5690FF1FF0B585B000AF04468D
:40164000FFF776FC06280AD144F0200001F07AFB322001F01FFA01F0EDFA054600E0002501F04EFB44F0D004AC4222D1FF233B71E9237B71FE23BB71EE23FB71E0233B7258
:401680007B72FB23BB72381DFFF7E8FEF872F0233B73002408E007F11003234413F80C0C01F050FB0134E4B2082CF4D9C82001F0F1F901F0F1FAC6B2F31D23F00703ADEB11
:4016C000030D6D46002404E001F0B4FA28550134E4B2B442F8D901F013FBAB7A03F00F03184A13702B7B03F00F03174A1370AB7B03F00F03013B154A13702B7C03F00F03DF
:40170000012B01D0042B02D10321114A1170032B00D013B902210E4A1170022B02D101220B4B1A70AB7C03F00F03013B094A13702B7D03F00F03084A137000201437BD46B3
:40174000F0BD00BFAE89FF1FD495FF1F568CFF1FAF89FF1FD295FF1FE895FF1FF0B585B000AF0446FFF7E4FB0638C0B201280AD844F0200001F0E6FA322001F08BF901F06B
:4017800059FA054600E0002501F0BAFA44F0D004AC422AD1FF233B71E9237B71FE23BB71E023FB71E1223A727B72FB23BB72381DFFF754FEF872F0233B73002408E007F1BB
:4017C0001003234413F80C0C01F0BCFA0134E4B2082CF4D9154B1B7823B14FF42F7001F059F902E0C82001F055F901F055FAC5B2EB1D23F00703ADEB030D6E46002404E0A4
:4018000001F018FA30550134E4B2AC42F8D901F077FA337B03F00F03012B03D1B07B00F00F0000E000201437BD46F0BDAE89FF1F30B583B005460A4610496B460868496829
:4018400003C3130A8DF802308DF80320002410E0012D06D102AB234413F8080C00F08EFF05E002AB234413F8080C01F07FF80134E4B2072CECD903B030BD00BFBC370000C8
:401880002DE9F04387B005468C4616461C469DF83870BDF83CE00DF10408DFF8A89059F8080FD9F80410D9F80820D9F80C30A8E80F00B9F81030A8F800307A1C02FB04F369
:4018C00003EB43039B001B128DF8063004FB02F404EB4404A3008DF80730C6EBC6035B001B128DF80830C6EBC60673008DF8093020378DF80A709DF84030592B02D18523DF
:401900008DF80B304FEA1E238DF80D308DF80EE08DF811C0002410E0012D06D106AB234413F8140C00F02AFF05E006AB234413F8140C01F01BF80134E4B2112CECD907B0BD
:40194000BDE8F083BC37000070B584B005460E466B46134C54F81C0F6168A26807C3A2891A808DF807608DF80960002410E0012D06D104AB234413F8100C00F0FFFE05E079
:4019800004AB234413F8100C00F0F0FF0134E4B20D2CECD9642001F07DF804B070BD00BFBC370000F0B585B007460E46154600240DE0315D01230093002301934E230293DC
:4019C00038461F222B19FFF75BFF0134E4B2092CEFD905B0F0BD00BF054B04E0824201D15878704702331A78002AF7D1002070471881FF1F2DE9F04387B005468C4616461A
:401A00001C469DF83870BDF83CE00DF10408DFF8A89059F82C0FD9F80410D9F80820D9F80C30A8E80F00B9F81030A8F800307A1C02FB04F303EB43039B001B128DF8063005
:401A400004FB02F404EB4404A3008DF80730C6EBC6035B001B128DF80830C6EBC60673008DF8093023378DF80A709DF84030592B02D185238DF80B304FEA1E238DF80D3015
:401A80008DF80EE08DF811C0002410E0012D06D106AB234413F8140C00F070FE05E006AB234413F8140C00F061FF0134E4B2112CECD907B0BDE8F083BC37000030B585B082
:401AC0000D461446012840F0108100F007FE082840F02F82A84B1B78DBB2AA2B40F0FE80A54B9B79DBB2C32B40F0F880A24BDB79DBB23C2B40F0F280A04B1B78DBB2013D6C
:401B0000AB4200F39F809C4BD878FFF765FF0546A0F12003DBB20B2B2AD8984A13780133DBB213701378964A134483F864008CB9924B1A781B7892490A4492F86410012070
:401B40000090002201924E22029203220233FFF751FF78E0894B1B7801200090002201924E220292214602221344FFF743FF6AE0A0F12D03DBB2512B2AD8804A137801339A
:401B8000DBB2137013787E4A134483F864008CB97A4B1A781B787A490A4492F8641001200090002201924E22029203220233FFF721FF48E0714B1B78012000900022019297
:401BC0004E220292214602221344FFF713FF3AE02C2838D1694B1B7813F0FF0F33D0694B1B7813F0FF0F2ED1644A13780133DBB213700121634B19701378614A134483F8F0
:401C000064008CB95D4B1A781B785D490A4492F8641001200090002201924E22029203220233FFF7E7FE0EE0544B1B7801200090002201924E220292214602221344FFF73B
:401C4000D9FE00E000254C4BDB78DBB20B2B26D14A4B1B7803F0FF042BB9142000F01AFF00F06AFD68E1454C237801200090002201924E220292202103220233FFF7BAFE26
:401C800023783F4A134493F864302C2B02D100223C4B1A70394A1378013BDBB213700A2D10D1364B1B7813F0FF0F0BD0334B1A78334B83F86420142000F0ECFE00F03CFDF7
:401CC000012439E12C4BDB78DBB2942B06D1142000F0E0FE00F030FD00242DE1142000F0D9FE00F029FD022426E100F0EFFD082840F02181244B1B78DBB2AA2B40F0128124
:401D0000214B9B79DBB2C32B40F00C811E4BDB79DBB23C2B40F006811C4B1B78DBB2013DAB4200F3B580184BD878FFF755FE0546A0F12003DBB20B2B3BD8144A13780133BB
:401D4000DBB213701378124A134483F864000CBB0E4B1A781B780E490A4492F8641001220092002201924E220292022003220344FFF740FE8DE000BFF497FF1F5790FF1F44
:401D80001087FF1F1B93FF1F1498FF1FD395FF1FC089FF1F6A4B1B7801220092002201924E2202920220214602460344FFF722FE6FE0A0F12D03DBB2512B2CD8604A1378B5
:401DC0000133DBB2137013785E4A134483F8640094B95B4B1A781B785A490A4492F8641001220092002201924E220292022003220344FFF7FFFD4CE0514B1B780122009231
:401E0000002201924E2202920220214602460344FFF7F0FD3DE02C283BD1494B1B7813F0FF0F36D0484B1B7813F0FF0F31D1444A13780133DBB213700121434B19701378D9
:401E4000424AD2783F490B4483F864208CB93C4B1A781B780A4492F8641001220092002201924E220292022003220344FFF7C2FD0FE0334B1B7801220092002201924E22EE
:401E800002920220214602460344FFF7B3FD00E000250B2D27D12A4B1B7803F0FF042BB9142000F0F7FD00F03FFD45E0244C237801220092002201924E2202920220202174
:401EC00002460344FFF796FD23781E4A134493F864302C2B02D100221B4B1A70184A1378013BDBB213700A2D10D1154B1B7813F0FF0F0BD0124B1A78124B83F86420142066
:401F000000F0C8FD00F010FD012415E00F4BDB78DBB2942B06D1142000F0BCFD00F004FD002409E0142000F0B5FD00F0FDFC022402E0022400E00224204605B030BD00BF70
:401F4000D395FF1FC089FF1F0C87FF1F1498FF1F10B582B08DF804008DF8051001F000FA0720002101F074F958B1002011E002AB234413F8040C01F0C7F948B90134E4B288
:401F800000E00024012CF2D901F0A2F9012000E0002002B010BD00BF70B505461E46002405E028462021FFF7D3FF0134E4B2052CF7D9002406E02846554B195DFFF7C8FFCF
:401FC0000134E4B20E2CF6D928460A21FFF7C0FF28460A21FFF7BCFF28460A21FFF7B8FF28460A21FFF7B4FF002407E0484B23442846197CFFF7ACFF0134E4B2072CF5D978
:4020000028460A21FFF7A4FF002407E0404B23442846197EFFF79CFF0134E4B2052CF5D9002408E03A4B2344284693F82010FFF78FFF0134E4B2092CF4D9364CA4FB063444
:40204000E408284604F13001FFF782FF04EB84046400341B04F130012846C9B2FFF778FF28460A21FFF774FF002408E0284B2344284693F82C10FFF76BFF0134E4B2082C47
:40208000F4D9254B1B78B34220D128460A21FFF75FFF002408E01E4B2344284693F83810FFF756FF0134E4B2092CF4D9012408E01A4B2344284693F80411FFF749FF0134EE
:4020C000E4B2164B93F80431A342F1D228460A21FFF73EFF28460A21FFF73AFF28460A21FFF736FF28460A21FFF732FF28460A21FFF72EFF28461D21FFF72AFF28465621FD
:40210000FFF726FF28463121FFF722FF70BD00BF6C81FF1FCDCCCCCC0083FF1F1087FF1FFEE700BF08B5104E104D16E029686B68AC68002204E051F8040B43F8040B0432C7
:40214000A242F8D1E868002203E0002143F8041B04328242F9D11035013E002EE6D101F0B1FAFEF7C7FEFEE7010000008438000008B5124A124B1A60124A136843F400734C
:40218000136000230AE0032B03D80F4A52F8231000E00E490E4A42F8231001332F2BF2D90C4B1A780C4B1A70094A0C4B1A6000F0C9F800220A4B1A6008BD00BF0004FA0554
:4021C0000CED00E014ED00E000000000212100000080FF1FBC7600400481FF1F08ED00E00081FF1FFEE700BFF0B40022174611E050F82760F3B226F0FF0608E001EB42055A
:4022000011F812406D78A5550132013BDBB2002BF4D10137272FEBD9F0BC7047064B1B78DBB203F00701054A11701B09013213704422034B1A707047CF0100496E58004099
:402240007658004008B50A46002101F06CFA08BD38B533222D4B1A8018232D490B7002310A802C4A13704FF49C7204310A8002310B7002310A80284A13704FF40271023276
:402280001180023213700222244B1A7008224FF040231A70032103F500731970204B1B78DBB220490B70204B1A8041F25122023B1A80002419250CE01C4B1B7803F001031B
:4022C00043EA440404F003044FF4F07000F0D0FB013D0DB1032CEFD115B90320FFF782FF134B4FF480721A8007221A70002211490A704820023108701A700222033B1A705E
:402300000D4A137843F01F03137038BD8040004082400040864000408E4000400043004008010049A146004022420040254200400440004006400040A243004008B501F0B4
:40234000E7F908BD70B572B63A4A137843F00403137000240CE0384963001A1952000A4423445B00C8589188FFF76CFF0134E4B20A2CF0D9002410E02F49A3001A195200FE
:402380000A4452F8440F23445B000B445168B3F84C20FFF7D3FF0134E4B2022CECD94FF090402649FFF720FF254A137843F0020313701032137843F002031370214C2378F3
:4023C00043F040032370A2F58632513A137843F0100313701C481D490A22FFF7AFFF1C481C490A22FFF7AAFF1B481C490A22FFF7A5FF1B481B490A22FFF7A0FF1A481B499C
:402400000A22FFF79BFF1A4A137843F008031370184E01253570FFF71BFF81233370164B1D70FFF7FBFE154821460E22FFF786FF70BD00BFE8460040FC370000A0000048E7
:4024400003500140A0430040C0510040D00F004810510040DC0F004820510040E80F004850510040F40F00486051004000100048224300400048004004000840B043004048
:4024800008B503200C4900F04BFB0320072100F05BFB0023094A13707221094A11702021013A117006216C3A11704721103211705232137008BD00BF25250000AC82FF1F29
:4024C0008E64004010B500F0DBFA04460B4A137843F020031370013A137843F0100313700822074B1A60074A137843F01003137000F092FA204600F0C7FA10BD9E64004051
:4025000000E100E09364004008B5054B5B7823B9FFF7B6FF0122024B5A70FFF7D3FF08BDAC82FF1F1E4B1B78DBB213F01E0F05D01C4803F01E0201780A43027003F02003D6
:4025400003F0FF02002B27D0174B1978C9B2174B1B889BB21648C154164B1B7813F0FF0F02D00121144B197010490B8801339BB20B800B889BB2B3F5007F02D300210B4BE6
:4025800019800A4B198889B20C4B1B889BB2994202D10121074B1970002AC3D1704700BF6D640040AC82FF1F4E640040B082FF1FF495FF1FB282FF1FB382FF1FAE82FF1FF2
:4025C0007222074B1A70202202331A700622693B1A70472210331A7000224F331A7070478A64004010B500F04BFA04460A4A137843F0200313700232137843F01003137047
:402600000A3A137843F01003137000F0B5FA204600F03AFA10BD00BF9A64004008B5054B1B7823B9FFF7CCFF0122024B1A70FFF7D9FF08BDB682FF1F08B500200C4900F0CD
:402640006FFA0020072100F07FFA0023094A13707221094A11702021013A117006219D321170472110321170B03A137008BD00BF95270000B882FF1F8864004010B500F05B
:40268000FFF904460B4A137843F020031370013A137843F0100313700122074B1A60074A137843F01003137000F0C4F9204600F0EBF910BD9864004000E100E09464004013
:4026C00008B5054B5B7823B9FFF7B6FF0122024B5A70FFF7D3FF08BDB882FF1F0122134B1A60134A9378D278DBB2934206D1104B1B7913F0FF0F14D0202013E00C4A9378F6
:40270000D278DBB2934205D2094AD3789078181AC0B207E0064AD3789078181A2030C0B200E000200122034B1A60704780E100E0B882FF1F00E100E008B500F0A1F90B4BB5
:402740001A7842F001021A701A7802F0FE021A7000F09AF90121064B1960064B00229A70DA701A715A71044B196008BD9865004080E100E0B882FF1F00E100E0034B1B7869
:4027800013F0040FFAD1024B1870704764640040476400401C4B1B78DBB213F01E0F05D01A4803F01E0201780A43027003F0200303F0FF022BB3164B1978C9B2154B1B7838
:4027C000DBB21548C154154B1B7813F0FF0F02D00121134B19700F490B780133DBB20B700B78DBB21F2B02D900210A4B1970094B1B780C490978DBB28B4202D10121074B52
:402800001970002AC6D1704767640040B882FF1F48650040BB82FF1FF497FF1FBC82FF1FBD82FF1FBA82FF1F08B501200C4900F077F90120072100F087F90023094A1370EB
:402840007221094A11702021FE3A11700621663A11704721103211705132137008BD00BF85290000BF82FF1F8965004010B500F007F904460B4A137843F020031370FE3ACF
:40288000137843F0100313700222074B1A60074A137843F01003137000F0DAF8204600F0F3F810BD9965004000E100E09664004008B5054B5B7823B9FFF7B6FF0122024B4F
:4028C0005A70FFF7D3FF08BDBF82FF1F0222134B1A60134A9378D278DBB2934206D1104B1B7913F0FF0F14D0202013E00C4A9378D278DBB2934205D2094AD3789078181A68
:40290000C0B207E0064AD3789078181A2030C0B200E000200222034B1A60704780E100E0BF82FF1F00E100E008B500F0A9F80B4B1A7842F001021A701A7802F0FE021A70A0
:4029400000F0A2F80221064B1960064B00229A70DA701A715A71044B196008BD9A65004080E100E0BF82FF1F00E100E0034B1B7813F0040FFAD1024B18707047666400403E
:40298000466400401C4B1B78DBB213F01E0F05D01A4803F01E0201780A43027003F0200303F0FF022BB3164B1978C9B2154B1B78DBB21548C154154B1B7813F0FF0F02D0D7
:4029C0000121134B19700F490B780133DBB20B700B78DBB21F2B02D900210A4B1970094B1B780C490978DBB28B4202D10121074B1970002AC6D170476B640040BF82FF1FB6
:402A00004A650040C282FF1F1498FF1FC382FF1FC482FF1FC182FF1F054A137843F0080313701032137843F008031370704700BFA2430040054A137843F0020313701032B8
:402A4000137843F002031370704700BFA2430040054A137843F0010313701032137843F001031370704700BFA2430040000000000230800803D000BF01380046FCD1704770
:402A8000EFF3108072B6704780F31088704700BF01BE704710B5044605E0084B1868FFF7E7FFA4F50044B4F5004FF6D8034B586800FB04F0FFF7DCFF10BD00BF8082FF1F0E
:402AC00008B5034B1B7A03FB00F0FFF7D1FF08BD8082FF1F0E4B1A7802F0FC0200F00300104318701A7842F080021A701A7802F07F021A7049011A7801F0600102F09F02D4
:402B0000114319701A7842F010021A70704700BF834300400122014B1A7070478443004070B504460E46074B1D681F2802D90020FFF7AEFF04F01F04103455F8240045F89D
:402B4000246070BD08ED00E038B504460D46072902D90020FFF79CFF1F2C02D90020FFF797FF04F01F0000F1604000F564406D01EDB2057038BD00BF054A137843F0040330
:402B800013701032137843F004031370704700BFA243004008B502200D49FFF7C1FF02200721FFF7D1FF00230A4A137072210A4A11702021FB3211700621A2F5B0721170C0
:402BC00047211032117002F25112137008BD00BF5D2D0000C682FF1F8964004008B5FFF74FFF0A4A137843F020031370FB32137843F0100313700422054B1A60054A13782B
:402C000043F010031370FFF73FFF08BD9964004000E100E09565004008B5054B5B7823B9FFF7B8FF0122024B5A70FFF7D7FF08BDC682FF1F0422134B1A60134A53889BB27D
:402C4000918889B2927912F0FF0F01D18B4211D00E4AD05CC0B201339BB2FF2B00D90023094A5380937913F0FF0F06D00022064B9A7102E0064B1878C0B20422054B1A600C
:402C8000704700BF80E100E0C682FF1F3498FF1F4B65004000E100E00422164B1A60164B5A8892B29B889BB29A4207D1124B9B7913F0FF0F19D04FF4807017E00E4B5A88E0
:402CC00092B29B889BB29A4205D20B4A93885088181A80B20AE0084A908883B2508880B2181A00F5807080B200E000200422034B1A60704780E100E0C682FF1F00E100E0D8
:402D000008B5FFF7BDFE0B4B1A7842F001021A701A7802F0FE021A70FFF7B6FE0421064B1960064B00225A809A809A71DA71044B196008BD9B65004080E100E0C682FF1FA6
:402D400000E100E0034B1B7813F0040FFAD1024B1870704765650040456500401D4B1B78DBB213F01E0F05D01B4803F01E0201780A43027003F0200303F0FF0233B3174BC3
:402D80001978C9B2164B1B889BB21648C154164B1B7813F0FF0F02D00121144B197010490B8801339BB20B800B889BB2FF2B02D900210B4B19800A4B198889B20C4B1B884A
:402DC0009BB2994202D10121074B1970002AC5D1704700BF64650040C682FF1F4B650040CA82FF1F3498FF1FCC82FF1FCD82FF1FC882FF1F08B500F02FFB00F037FB08BDF3
:402E000008B5FFF7F7FF08BD30B583B00C468DF8070000F055FBB4F5006F54D22509C5EB053319010C44A4B200F0F6FB00284CD1402021460DF10702012300F06DFB044620
:402E400007282FD1234B1B7813F0020FFAD0214B1B7813F0020F06D01E4B1B789B0805D04FF0FF3403E04FF0FF3400E00024E4B9194B402029461A785B7800F089FB072844
:402E800016D1144B1B7813F0020FFAD0114B1B7813F0020F0FD00F4B1B789B0810D04FF0FF340DE0012809D10AE04FF0FF3407E04FF0FF3404E04FF0FF3401E04FF0FF3449
:402EC00000F0D0FB02E0012400E00424204603B030BD00BF224700404C99FF1F10B50222104B1A7081220E3B1A700F2413331C70002201331A704FF400420B4B1A602046B3
:402F00000721FFF721FE20460849FFF709FE1022074B1A7000F02CFA00F038FA00F020FA10BD00BFD649004080E100E0812F00003499FF1F08B5FFF7A3FD064A137843F028
:402F4000040313701032137843F004031370FFF79BFD08BDA543004008B5074B1B7823B9FFF7BCFF0122044B1A70FFF7E3FF4FF40042024B1A6008BDD082FF1F00E100E07D
:402F800038B5A54B1C78E4B2A44B1B7813F0400F00F0398114F0010F00F01D819F4B1B78453B052B00F21481DFE813F006008200120112010600E00004F0DF0504F00A04FE
:402FC000082C42D1954B1B78DBB2452B35D1944B1B7813F0FF0F10D0924B1B681B78DBB2914A137004228C4B1A7001228F4B1A7046228A4B1A702C46EDE08D4B1B7813F051
:40300000020F0DD08B4A137843F00A0313706022824B1A704FF40042874B1A602C46DAE0864A137843F0100313701022844B1A700422023B1A702C46CDE00022764B1A7081
:403040004A22764B1A702C46C5E00A2C2BD1794A137843F0A0031370754B1B7813F0020F14D06E4B1B7813F0080F01D0092300E00A23704A11780B4313706022674B1A701C
:403080004FF400426C4B1A602C46A4E06B4A137843F0100313701022694B1A700422023B1A702C4697E00020FFF7F2FC2C4692E014F0020F37D15D4B1B78594A1278DBB21B
:4030C000934210D2594A1378DBB256490968CB5CDBB255490B7004214F4B197013780133DBB2137077E0524B1B7813F0020F0CD0504A137843F00A0313706022474B1A706D
:403100004FF400424C4B1A6065E000F04DF94B4A137843F0100313701022494B1A700422023B1A7057E0424B1B7813F0020F0CD0404A137843F09A0313706022374B1A701B
:403140004FF400423C4B1A6045E03C4A137843F01003137010223A4B1A700422023B1A70344A137843F09003137034E0354A1378DBB2354908682C490978C9B2C1541378A0
:403180000133DBB213701378304A1278DBB2934203D21022204B1A701DE0254B1B7813F0020F0CD0234A137843F00903137060221A4B1A704FF400421F4B1A600BE01F4A06
:4031C000137843F0100313700022134B1A7002E00020FFF75DFC14F0200F1CD00F4B1B7813F0080F01D0012300E00223114A11780B431370114A137803F0EF0313701022CB
:40320000064B1A7038BD054B1B7813F0100F02D11022024B1A7038BDD74900403499FF1F3899FF1F4499FF1FD84900404199FF1F3999FF1F4099FF1F80E100E0D6490040D3
:40324000D94900404899FF1F3C99FF1F3A99FF1F1A4B1B78DBB2102B29D1194B1B7813F0080F26D14FF40042164B1A604000C0B229B140F001004922104B1A7002E0452291
:403280000E4B1A70104B1870012201331A700F4B1B7813F0010FFAD00C4B1B7803F00A030A2B08D11022054B1A700320704702207047012070470020704700BF3499FF1F8D
:4032C000D949004080E100E0D8490040D74900400A4B1B7813F0040F0ED01023074A13700421023A1170064A1370064B1B7813F0210FFAD00020704702207047D9490040DF
:403300003499FF1FD7490040114B1B7813F0040F1BD0104B18700422013B1A7046220E4B1A700E4B1B7813F0010FFAD00B4B1B7813F0020F04D16022074B1A700020704768
:403340006022054B1A70032070470220704700BFD9490040D84900403499FF1FD7490040024B187800221A70704700BF4099FF1F0022044B1A70044A137803F0FE03137030
:40338000704700BF4899FF1F4099FF1F0022044B1A70044A137803F0FD031370704700BF4199FF1F4099FF1F704700BF10B500F087F800F031F9D0B900F070F904460728D3
:4033C00012D102E00120FFF77BFB0A4B1B7813F0020FF7D0074B1B7813F0020F04D0054B1B789B0800D1002400F03CF900E00424204610BD2247004010B500F061F800F069
:403400000BF910BB012000F0E9F8072818D11048022100F067F802280AD102E00120FFF74FFB0C4B1B7813F0020FF7D0002409E0084B1B7813F0020FE9D04FF0FF3401E0C9
:403440004FF0FF3400F00EF900E00424204610BD4C99FF1F2247004008B5FFF7A7FF034610B9FFF7C9FF0346184608BD08B5FFF707FB0F4A137843F0080313701032137840
:4034800043F008031370C8220A4B1A700A4A137843F0100313701032137843F010031370064B1B7813F0200FFAD0FFF7EDFA08BDA043004001470040AC4300400047004061
:4034C00008B5FFF7DDFA064A137843F0080313701032137843F008031370FFF7D5FA08BDA043004070B506460D4600240CE00120FFF7E6FA064B1B7813F0010FF7D0054B92
:403500001B7833550134E4B2AC42F3D3204670BD224700402047004030B43E2801D81F2B03D93F2827D90F2B27D8174C247814F0020F24D0154CB6252570D4252570012598
:4035400025700234247814F0020F1AD10F4C2070C1F300202070C9B22170591EC9B22170002104E0545C094804700131C9B29942F8D3072006E0012004E0012002E0042000
:4035800000E0092030BC7047224700402047004030B4104C247814F0020F15D00E4CB6252570D8252570052525700234247814F0020F0BD1084C2070080A2070C9B22170C9
:4035C00022702370072002E0042000E0092030BC704700BF22470040204700400C4B1B7813F0020F0FD00B4BB6221A70E1221A700E221A7002331B7813F0020F05D1054BE0
:40360000187007207047042070470920704700BF224700402047004010B5FFF731FA0F4B1B78A3B901220D4B1A700D4B1B6813F0010F0ED00A4A136823F00103136000BF42
:4036400000BF00BF0122054B5A60002402E0042400E00024FFF718FA204610BDD482FF1F0400084008B5FFF70BFA0A4B00221A705B68012B0AD1084A136843F00103136078
:4036800000BF00BF00BF0022024B5A60FFF7FCF908BD00BFD482FF1F04000840074B1B7813F0020F08D0064BB6221A70E0221A700D221A700720704704207047224700404A
:4036C000204700400E4B70B51E460E4C0025E41AA410A54204D056F8253098470135F8E700F0BEF8084B094C1E46E41AA4100025A54204D056F8253098470135F8E770BDB6
:403700006C3800006C3800006C3800007438000010B5431E0A44914204D011F8014B03F8014FF8E710BD03460244934202D003F8011BFAE77047000000000000532F442FB0
:403740004475706C612000005365787475706C61000000004F637475706C610000000000352D352D3420202020200000362D362D3420202020200000372D372D3520202076
:4037800020200000382D372D35202020202000005465737420646520496D70726573696F6E000000496E696369616E646F000000517561647275706C61000000AA70000075
:4037C000CC33C33CAA980000013922C5030000FFFF00CC33C33C0000AA5C0020002000300030CC33C33C0000AA980000013923C5020000FFFF00CC33C33C0000C849004012
:403800001900005100401000305100402000F0510040100000000140000E800E01408001001401408006001B0140000100400140000A004C014000020050014020000000BA
:4038400060520040C80E00480600000E0140D00E00488000801A0140500F004880000000F8B500BFF8BC08BC9E4670474D00000071210000F8B500BFF8BC08BC9E4670475E
:4038800029000000983800000881FF1F88010000C016000000000000000000004D555820562E20312E3000000131023203330434053506360737083809390A300C0A1B51F6
:4038C0001C571D451E521F54205921552249234F2450254126532744284629472A482B4A2C4B2D4C2F5A3058314332564242344E354D6A2D6820512C000000005345525660
:403900004943452053544154494F4E004E756D6265723A20446174653A200000506F736974696F6E3A20000050726F647563743A20000000506C6174653A2020202000003F
:403940004C6173742074696D652073686966743A200000004C6173742074696D652073686966743A202000004C61737420646174652073686966743A20000000436F6E73B4
:40398000656375746976653A2020202053686966742074696D653A2020000000536869667420646174653A20434F50592000000049643A2020202020202020004B6D3A20A7
:4039C00020202020202020004163636F756E743A202020004D6F6E65793A202020482000566F6C756D656E3A20204720000000005050553A202020202020482F47200000E2
:403A0000486F75723A20200050483A204E4954200000E02EC05D00001800000000366E01000000000000000000000000000000000000000000000000000000000000000089
:403A40000000000000000000000000000000000000000000000000000000000000000000000000000000000000000000000000000000000000000000000000000000000046
:403A80000000000000000000000000000000000000000000000000000000000000000000000000000000000000000000000000000000000000000000000000000000000006
:403AC00000000000000000000000000000000000000000000000000000000000000000000000000000000000000000000000000000000000000000000000000000000000C6
:403B00000000000000000000000000000000000000000000000000000000000000000000000000000000000000000000000000000000000000000000000000000000000085
:020000040003F7
:0200000480007A
:40000000095200400C640040036500406400014033010140600201404303014064040140440501405D0601404B070140480801403D090140450A0140470B0140560C014041
:40004000470D0140160E0140340F01406314014056150140191701405B180140611901402D1A01405C1B0140054001400641014007420140044301400D4401400D45014039
:40008000044601400247014003480140024901400F4C01400F4D01400850014002510140088009800C401002140429202C1030813442820F830F840F860F8738887289727B
:4000C0008A728B388C388D388E72843C850F8972040D06100A200C0D0E300F05100C1108121114281611170618021B0323022506261527012F01303C32023308350736016C
:400100003A023B203E443F044053410246EC470B481C49FF4AFF4BFF4EF04F44500C580459045A045C235D035F0166C06A406B0281108461852C860E871189408A1C8E08B2
:400140009303945C95149603988099099B109C619E16A623A91CAB22AD30AF0CB080B11FB20FB41AB560B660B880B920BA28BE41C001C740C9FFCA07CBFFCC40CD20CEF020
:40018000CF05D008D804D904DA04DC33DD03DF01E040E1A8E240E3200004030604040601070409280B800D080E060F021020162019881B031C041D881F052020222026127A
:4001C000270429062A402F0630043222361A39403C043E224004422045804A0150405120520853405420562388108C408F20C0E7C2EEC424CA3BCCE7CEE8D016D2080020E4
:400200000438050106050C210E1816011A061E0124192622281229022A202C2832013302343E35013E043F144051410346C047BE483849FF4AFF4BFF4EF04F44500C5401DE
:40024000580459045A045B045C025D225F0166C06A406B028208854D8710882C890C8A038B508C318D288E068F519320954D973099029B549E13A431A60EAA0CB030B1039A
:40028000B20FB33CB540B802B902BA08BB08BE01BF10C004C540C9FFCA07CBFFCC40CD20CEF0CF05D008D401D804D904DA04DB04DC12DD32DF01E040E1A8E240E32000107C
:4002C000014203010506070109800D800E240F201014122014141602181019041B021E1420082205250827082F043020320538443B203D0843024410458049024D4051807B
:400300005240541855045602571059895B205E205F8984948A208C108D299540960499889B209C049D069E40A120A220B701C0BBC2E1C4E6CA20CC07CE4ED051D210D6FFB0
:40034000E008E20104020503060C0B010C2010101104120D150318051A181E10210228052A18301C3104322035033603388039203A223E043F114006474049FF4A074BFFEC
:400380004C404D204EF04F0550085401580459045A045B045C045D145F01604061A86240632080318246878589438BAC8D7A8E4C8F849340946C960399239BD49C319E0E04
:4003C000A208A378A503A704A920AA13AC80AF08B030B20FB31FB480B590B64AB760B802BA88BBA8BE11C004C540C9FFCA07CBFFCC40CD20CEF0CF05D008D804D904DA0425
:40040000DC40DF01E040E1A8E240E3200080010402100301054109100A410E2213201501160619061A451D021E2A20082340240825102608272229022E012F2532083302B3
:400440003722380839203D243E40450248044D014F025111521053015604588059245B0187408D40920A94449540972898809C04A420AA10AB80AD80B408B701C095C2ABF6
:40048000C4D2CAF1CCA3CE76D080D204D60FE208E402EC020053020C040306440E08140A16541C531E0428202A45300F3440363038803A023E1040524104450B46C047E028
:4004C000482949FF4AFF4BFF4EF04F44500C540158045A045B045F0166C06A406B02840C85318671870E8B408CDC8D2C8E228F0392039531970698109A409B139C099ED03D
:400500009F0CA014A620A708A810AAACAF40B01FB10FB330B4E0B740B908BA20BB02BF44C062C103C5E0C6CBC80EC9FFCAFFCBFFCEF0CF44D00CD418D604D804D904DA043B
:40054000DB04DC11DD11DF01E6C0EA40EB020044040205410620081009800A420C440E2210A8160418041A401B021C081D411F4020402288281129043028318032043310C9
:40058000384439083A103D013E02410443104460462448484C014F4450805310562258025CA05D015E08610262A08102848490089122920F9444972899029A049B229D4194
:4005C0009E02A215A301A460A722AD20AF10B004C0B5C2ABC44ECA0ACC0ECE0ED0A6D214D6F1D80D004104F3060C08FF100F110112F014821501180C19011AF31CC322E30E
:400600002404280C2C08302C320F34C03610370138803A0A56025713580459045B045C115D105F0183048402851C8645876289048C148D678E2A8F189518989F991C9B6194
:400640009D10A17FA409A508A632A89FAB43AC80B018B207B31FB460B558B680B720B980BB28BE10D602D710D804D904DB04DC04DD40DF0101080302040206140804090830
:400680000A080E5A1020115014801601172819281A021B521C481D081E401F8021042258254029012A082B083080310432103715390A3B605B805D026502678069506A085E
:4006C0006F15720273147510760177289008950196809D809E40A020A104A781B201C075C2F2C4F7CA07CCEECE0FD688EE8000FF060407010E230F011008145C16A118E7F9
:400700001A181C041F022010245C26A228182F0230403238341F35023680370138803A283B083E013F5056025713580459045B045C325D205F018201830189068A028B08E6
:400740008F0A90029310980299069B189D069F08A004A301A914AA01AB08B201B31EB501B606B880BB08BE04BF10D418D604D804D904DB04DC22DF010002014804020520DE
:4007800008940A680E881088121015021688180219111A201E031F042208230524082604272029102A502D202F8032403641372039883E803F1259015D01658467A46A148C
:4007C0006B017088712487408D208E4491CA9208931096149729988099289A089C149E109F01A021A104A240A480A520A608AD01B020C05DC25FC45ECAA8CCB8CEBAD681AD
:40080000D8B0E240E4020E0112012701300133013A803E014065410442014403460C470E481449FF4AFF4BFF4C624DA04EF04F41500C5418580459045A045B045C425D226A
:400840005F016640670269106A306B106D106E106F12841C850C86C3888289048D0C8ED38FE390DF91419310940C95EF980499E39B0C9C419D0F9E209FE0A008A108A4D32D
:40088000A582A60CA80FAAD0ABE3ACC3ADC3B0C0B1C0B220B310B40FB50FB61CB72CBA20BBA0D418D604D804D904DB04DC32DD30DF010180021003040540060108800921E9
:4008C0000B200F801095194A1A081C021F012010229125042A022B292C203102329838283B403C023D02450946014DC04E04560857405A025D02600462026301670A8202E4
:4009000087108A408D20902C9188934094109634988199809A029B049F01A10AA329A688B0C0B103B280C087C21FC40FCA4FCC0FCE0ED0D0D230D681D83DE030E410E84086
:4009400088908A4A8C01904092A4930194F998F99B01A028A252B0E0B206B418B501B601BE04BF10D804D904DC02DF0100800320051007050A010C010E550F0210281302C8
:40098000150218401A011B281D581E40200221402224234024042A882B083120329835C1362038183A023B40404041204308480149014A0851045A0868286B027014720A2B
:4009C000C0C5C271C41ECA0ECCAECE0FD007D20CD602E480020403010E04100318031C021E01200222012701300232043601370138803E053F404006450449FF4A074BFF86
:400A00004C404D204EF04F055008541C5604580459045A045B045C045D415F01604061A86240632080718110828884B08514864788508C028D108E018F0C9040910C920312
:400A40009311951C968097029A809C249D209E419F03A109A310A401A60EA8C3AA30AD40B27FB320B480B540B71FBE10BF14C023C106C6C0C7EBC838C9FFCAFFCBFFCEF0D3
:400A8000CF44D00CD401D804D904DA04DB04DC04DD44DF01E6C0EA40EB0201800380040805020604070209010A040B010C100D110E210F2010801610172018801B841C0830
:400AC0001F04200124042508268028222B022F423404368138023F464410472049044A084C0450205604573259015A085C865E2060016202630866106708800184A4858045
:400B000086048A068C808D0890089122920593C594809708980499039B229D04A101A209A301A420A720A901B210C0F9C2FBC468CA92CCD0CED1D060D224D6F3D80DE002A0
:400B4000E208E62CEE01810184018F0190089122920593C494809708980499029B229C019D049E10A209A301A420A720AA20AC02B440E206EA02EE030009013702B20348DC
:400B8000050209060F79115913261414162A171019511B201C021E452104241F281F29262B592D7F3080310732183340346035303607370E3BA23E10403141064204440282
:400BC000460C47E0482449FF4AFF4BFF4C624DA04EF04F41500C580459045A045C415D015F016640670269106A306B106D106E106F128401850C89418C018DF38F0C913C90
:400C000093C395C3991F9BE09D08A1FFA504A801ABE3AD82B10FB201B310B52CB7C0BB02BF04D602D712D804D904DB04DF010144040208400B020E121110171418101B08E1
:400C40001D201E121F01200822A423402421250126022748280229012A082B082C012E223080310832103302352036023708380839803B603C013F944560461047014C08F7
:400C8000568057015A085C015D0264046610695470847104720879017A807C807D80801086808C018E088F0290409222931494029503961097E0980499309A039B349C8050
:400CC0009D859E5CA020A144A208A350A480A605A709A804AC04B780C015C2A0C462CABFCCEFCEFED0F0D220D602E610EA02EC10051F091F150117261D141F492201250A25
:400D0000260127D1318033073560360137183A023E403F10401341044206440245C0460E480649FF4AFF4BFF4C624DA04EF04F41500C580459045A045F0166406702691019
:400D40006A306B106D106E106F120442051007200C480D200E10108012201484160119811A401C801D201E181F4020042109224024202580269027402A082C212D022F0853
:400D8000310832403520374839143D083EA04014414042404581469048844D014E014F20524057207C027E40832084018501869187088A188B108C108E20905291949202BE
:400DC000950297A098C499329A019B289C039D819E60A024A105A220A310A448A508A604AB40B040B301B409B604C0F0C2E0C4DCCAF2CC7ACE76D0DFD234E280E410E64054
:400E0000EE203020310235803704CCF083049D809F04A420A502E2803C8085809D80A420A502CE20E2108020A460A502E280061009801010142056205D028A20C004C20291
:400E4000C40CD402D601E401008054208C209830B180B210B502C002D402E408E802EA04EE0487409830B040EE0493409830A502AC40EA408902A5020B0210401380148031
:400E8000674078107C20934098309F80AF80C202C40ED801DE030802620278407C8088028E0298C0B701C208D802DC01DE04E204E408EA02001F080E0A130C1F0E1C1013F7
:400EC0001A131C1300FF03C020300000300000000010000014182A000000000409BC32420000000000FF000000E70018023C45C1800000009F0800009F0000830004000022
:400F0000601F80201840079800200002000001042306050004E0000C12FFFFFF62A0F0410C00000000000212040404043333000100000000000040020010301000101012B9
:400F400000000000000000000000000000000000040000001800004008C600293CFF4100000000007F0400027C030204000604090041439E00400000670018BF10FF0000D6
:400F8000580700701F0820800000280A000040004503010006E0C0000AFFFFFF62A0F0410C00000000000000040404004104000100000000000040020010301000101012DE
:400FC0000000000000000000000000000000000030000000300030000000000080004080800080000000000002000402020002000000000020001020200020000000000085
:40100000810042919100810000000000000000000000000000000000000000000000000000000000000000000000000000000000000000000000000000000000000000004A
:401040000000000000000000000000000000000000000000000000000000000000000000000000000000000000000000000000000000000000000000000000000000000070
:401080000000000000000000000000000000000000000000000000000000000000000000000000000000000000000000000000000000000000000000000000000000000030
:4010C00000000000000000000000000000000000000000000000000000000000000000000000000000000000000000000000000000000000000000000000000000000000F0
:4011000000000000000000000000000000000000000000000000000000000000000000000000000000000000000000000000000000000000000000000000000000000000AF
:0200000490006A
:0400000000004005B7
:0200000490105A
:04000000BC90ACAF55
:0200000490303A
:020000006BADE6
:0200000490402A
:4000000000000000000000000000000000000000000000000000000000000000000000000000000000000000000000000000000000000000000000000000000000000000C0
:400040000000000000000000000000000000000000000000000000000000000000000000000000000000000000000000000000000000000000000000000000000000000080
:400080000000000000000000000000000000000000000000000000000000000000000000000000000000000000000000000000000000000000000000000000000000000040
:4000C0000000000000000000000000000000000000000000000000000000000000000000000000000000000000000000000000000000000000000000000000000000000000
:0200000490501A
:0C00000000012E12306900012E2C9C160D
:00000001FF