:400000000080002011000000650700006507000008B5044B1A6803F53F5302331A6000F0A3FB00BFFA46004010B5054C237833B9044B13B10448AFF300800123237010BD01
:400040002881FF1F0000000014170000084B10B51BB108480849AFF300800848036803B910BD074B002BFBD0BDE81040184700BF00000000141700002C81FF1F0881FF1FAB
:400080000000000008B501F011F901F01BF800F02FFE00F0D5FE00F04BFD00F0D3FD08BD08B50F4B1878002101F004F90D4B1878012101F0FFF80C4B1878022101F0FAF852
:4000C0000A4B1878032101F0F5F8094B1878042101F0F0F8074B1878052101F0EBF808BD3288FF1F5494FF1FD98AFF1F3388FF1F5294FF1F6894FF1F10B596B0434A13ABEA
:4001000007CA03C31A80424B10AC93E8070003C42280404A0DAC07CA03C422800AAC03F10C0207CA03C4227000228DF8312007AC03F1180103C984E80300ADF8242004AC6F
:4001400003F1240207CA03C4228001AC303393E8070003C42280304B1B78022B46D10120014600F02BFA0220012100F027FA012013A9002200F0DCFA4FF4FA7000F002FFA9
:40018000264B1B7823B9012010A9002200F0D0FA224B1B78012B04D101200DA9002200F0C7FA1E4B1B78022B04D101200AA9002200F0BEFA194B1B78032B04D1012007A997
:4001C000002200F0B5FA164B1B78012B04D1012004A9162200F0ACFA114B1B78022B0DD1012001A9162200F0A3FA07E00120002100F0E4F90220002100F0E0F902200949AD
:40020000002200F095FA16B010BD00BF5417000018170000601700006994FF1F3288FF1F6894FF1F0C81FF1F08B500F0A3F8054B187028B1044B187800F040F9FFF730FFDC
:4002400008BD00BF6994FF1F9081FF1F38B5002305E0294AD15C294AD1540133DBB2032BF7D9274B1B78022B10D1264D287800F069F8214C2070282000F084FE95F8000108
:4002800000F060F86070282000F07CFE1C4B1B78042B20D11B4D287800F054F8164C2070282000F06FFE95F8000100F04BF86070282000F067FE95F8000200F043F8A07087
:4002C000282000F05FFE95F8000300F03BF8E070282000F057FE0A4B1B78012B04D9094B187800F02FF830B90022054B1A70FFF79BFFFFF701FF38BDD48EFF1F2C88FF1F3B
:400300006994FF1F9081FF1F08B562B6002304E000210B4AD1540133DBB2032BF8D9FFF7B1FEFFF781FFFFF7E7FE00F04BFEFFF78DFF00F047FE0220232100F0CBF9F4E761
:40034000D48EFF1F10B5044600F030FF204600F04FFF3C2000F016FE00F0F4FE38B100F0BFFEC0F3071400F021FF204610BD002010BD00BF10B5464BFF221A7083F80021F9
:4003800083F8002283F80023012454E0204600F02FFF642000F0F6FD00F0D4FE38B13C4B1B78FF2B03D13A4B1C7000F0FFFE00F0C9FE68B1364B1B78A34209D0344B93F851
:4003C0000031FF2B04D1324B83F8004100F0EEFE00F0B8FE90B12E4B1B78A3420ED02C4B93F80031A34209D0294B93F80032FF2B04D1274B83F8004200F0D8FE00F0A2FE5C
:40040000B8B1234B1B78A34213D0214B93F80031A3420ED01E4B93F80032A34209D01C4B93F80033FF2B04D1194B83F8004300F0BDFE0134E4B2102CA8D9154B1B78FF2B25
:400440000ED0134A92F80021FF2A09D0104A92F80022FF2A04D00E4A92F80023FF2A0FD1FF2B04D00A4A92F80021FF2A0AD1FF2B0AD1074B93F80031FF2B07D0012010BD80
:40048000042010BD022010BD012010BD002010BD9081FF1F002104E003F00F030B44D9B201300378FB2BF7D103F00F028818404200F00F0040F0E000704700BFF0B585B04F
:4004C00000AF0446FFF73EFF06280AD144F0200000F08EFE322000F055FD00F001FE054600E0002500F062FE44F0D004AC4222D1FF233B71E9237B71FE23BB71EE23FB715B
:40050000E0233B727B72FB23BB72381DFFF7C2FFF872F0233B73002408E007F11003234413F80C0C00F064FE0134E4B2082CF4D9C82000F027FD00F005FEC6B2F31D23F053
:400540000703ADEB030D6D46002404E000F0C8FD28550134E4B2B442F8D900F027FEAB7A03F00F030F4A13702B7B03F00F030E4A1370AB7B03F00F030C4A13702B7C03F00B
:400580000F030B4A1370AB7C03F00F03094A13702B7D03F00F03084A137000201437BD46F0BD00BF3288FF1F5494FF1FD98AFF1F3388FF1F5294FF1F6894FF1F30B583B085
:4005C00005460A4610496B460868496803C3130A8DF802308DF80320002410E0012D06D102AB234413F8080C00F090FB05E002AB234413F8080C00F031FC0134E4B2072CF9
:40060000ECD903B030BD00BF6C1700002DE9F04387B005468C4616461C469DF83870BDF83CE00DF10408DFF8A89059F8080FD9F80410D9F80820D9F80C30A8E80F00B9F8EE
:400640001030A8F800307A1C02FB04F303EB43039B001B128DF8063004FB02F404EB4404A3008DF80730C6EBC6035B001B128DF80830C6EBC60673008DF8093020378DF855
:400680000A709DF84030592B02D185238DF80B304FEA1E238DF80D308DF80EE08DF811C0002410E0012D06D106AB234413F8140C00F02CFB05E006AB234413F8140C00F06C
:4006C000CDFB0134E4B2112CECD907B0BDE8F0836C17000070B584B005460E466B46134C54F81C0F6168A26807C3A2891A808DF807608DF80960002410E0012D06D104AB90
:40070000234413F8100C00F001FB05E004AB234413F8100C00F0A2FB0134E4B20D2CECD9642000F02FFC04B070BD00BF6C170000F0B585B007460E46154600240DE0315D90
:4007400001230093002301934E23029338461F222B19FFF75BFF0134E4B2092CEFD905B0F0BD00BFFEE700BF08B5104E104D16E029686B68AC68002204E051F8040B43F8A6
:40078000040B0432A242F8D1E868002203E0002143F8041B04328242F9D11035013E002EE6D100F07DFFFFF7AFFDFEE7010000000018000008B5124A124B1A60124A136877
:4007C00043F40073136000230AE0032B03D80F4A52F8231000E00E490E4A42F8231001332F2BF2D90C4B1A780C4B1A70094A0C4B1A6000F0C9F800220A4B1A6008BD00BF87
:400800000004FA050CED00E014ED00E000000000650700000080FF1FBC7600400481FF1F08ED00E00081FF1FFEE700BFF0B40022174611E050F82760F3B226F0FF0608E039
:4008400001EB420511F812406D78A5550132013BDBB2002BF4D10137272FEBD9F0BC7047064B1B78DBB203F00701054A11701B09013213704422034B1A707047CF01004946
:400880006E5800407658004008B50A46002100F038FF08BD38B533222D4B1A8018232D490B7002310A802C4A13704FF49C7204310A8002310B7002310A80284A13704FF421
:4008C000027102321180023213700222244B1A7008224FF040231A70032103F500731970204B1B78DBB220490B70204B1A8041F25122023B1A80002419250CE01C4B1B7845
:4009000003F0010343EA440404F003044FF4F07000F026FB013D0DB1032CEFD115B90320FFF782FF134B4FF480721A8007221A70002211490A704820023108701A700222B2
:40094000033B1A700D4A137843F01F03137038BD8040004082400040864000408E4000400043004008010049A146004022420040254200400440004006400040A243004074
:4009800008B500F0B3FE08BD70B572B6354A137843F00403137000240CE0334963001A1952000A4423445B00C8589188FFF76CFF0134E4B2082CF0D900240BE02A49A300F5
:4009C0001A1952000A44906BD16B8022FFF7D8FF0134E4B2002CF1D04FF090402349FFF725FF234A137843F0020313701032137843F0020313701F4C237843F040032370E7
:400A0000A2F58632513A137843F0100313701A481A490A22FFF7B4FF19481A490A22FFF7AFFF194819490A22FFF7AAFF184819490A22FFF7A5FF184A137843F00803137096
:400A4000164E01253570FFF725FF81233370144B1D70FFF705FF134821460E22FFF790FF70BD00BFE846004098170000A000004803500140A0430040105100409C0E00484E
:400A800020510040A80E004850510040B40E004860510040C00E0048224300400048004004000840B043004008B503200C4900F08FFA0320072100F09FFA0023094A13706E
:400AC0007221094A11702021033211700621613A11704721103211705032137008BD00BF4D0B00004481FF1F8064004010B500F03FFA04460B4A137843F02003137003321C
:400B0000137843F0100313700822074B1A60074A137843F01003137000F0F6F9204600F02BFA10BD9064004000E100E09264004008B5054B5B7823B9FFF7B6FF0122024B9D
:400B40005A70FFF7D3FF08BD4481FF1F1E4B1B78DBB213F01E0F05D01C4803F01E0201780A43027003F0200303F0FF02002B27D0174B1978C9B2174B1B889BB21648C1549F
:400B8000164B1B7813F0FF0F02D00121144B197010490B8801339BB20B800B889BB2B3F5007F02D300210B4B19800A4B198889B20C4B1B889BB2994202D10121074B19704D
:400BC000002AC3D1704700BF636400404481FF1F406400404881FF1F8C94FF1F4A81FF1F4B81FF1F4681FF1F7222074B1A702022043B1A700622673B1A70472210331A7011
:400C0000002258331A7070478E64004010B500F0AFF904460A4A137843F020031370043A137843F0100313700132137843F01003137000F0F9F9204600F09EF910BD00BFC1
:400C40009E64004008B5054B1B7823B9FFF7CCFF0122024B1A70FFF7D9FF08BD4E81FF1F08B500200D4900F0B3F90020072100F0C3F900230A4A137072210A4A1170202115
:400C800002F5807211700621A2F5B17211704721103211705132137008BD00BF250D00005081FF1F8864004010B500F061F904460C4A137843F02003137002F580721378DF
:400CC00043F0100313700122074B1A60074A137843F01003137000F025F9204600F04CF910BD00BF9864004000E100E09764004008B5054B5B7823B9FFF7B2FF0122024B57
:400D00005A70FFF7D1FF08BD5081FF1F034B1B7813F0040FFAD1024B1870704767640040476400401C4B1B78DBB213F01E0F05D01A4803F01E0201780A43027003F02003DC
:400D400003F0FF022BB3164B1978C9B2154B1B78DBB21548C154154B1B7813F0FF0F02D00121134B19700F490B780133DBB20B700B78DBB21F2B02D900210A4B1970094BC4
:400D80001B780C490978DBB28B4202D10121074B1970002AC6D17047686500405081FF1F486500405381FF1F8C96FF1F5481FF1F5581FF1F5281FF1F08B501200C4900F012
:400DC00007F90120072100F017F90023094A13707221094A11702021013211700621603A1170472110321170B73A137008BD00BF750E00005781FF1F8A65004010B500F093
:400E0000B7F804460B4A137843F0200313700132137843F0100313700222074B1A60074A137843F01003137000F08AF8204600F0A3F810BD9A65004000E100E0946400407C
:400E400008B5054B5B7823B9FFF7B6FF0122024B5A70FFF7D3FF08BD5781FF1F034B1B7813F0040FFAD1024B1870704764640040476500401C4B1B78DBB213F01E0F05D080
:400E80001A4803F01E0201780A43027003F0200303F0FF022BB3164B1978C9B2154B1B78DBB21548C154154B1B7813F0FF0F02D00121134B19700F490B780133DBB20B7048
:400EC0000B78DBB21F2B02D900210A4B1970094B1B780C490978DBB28B4202D10121074B1970002AC6D170476B6500405781FF1F496500405A81FF1FAC96FF1F5B81FF1F18
:400F00005C81FF1F5981FF1F054A137843F0080313701032137843F008031370704700BFA2430040054A137843F0020313701032137843F002031370704700BFA243004042
:400F4000054A137843F0010313701032137843F001031370704700BFA2430040000000000230800803D000BF01380046FCD17047EFF3108072B6704780F31088704700BF9A
:400F800001BE704710B5044605E0084B1868FFF7E7FFA4F50044B4F5004FF6D8034B586800FB04F0FFF7DCFF10BD00BF1881FF1F08B5034B1B7A03FB00F0FFF7D1FF08BD4B
:400FC0001881FF1F0122014B1A7070478443004070B504460E46074B1D681F2802D90020FFF7CEFF04F01F04103455F8240045F8246070BD08ED00E038B504460D4607299B
:4010000002D90020FFF7BCFF1F2C02D90020FFF7B7FF04F01F0000F1604000F564406D01EDB2057038BD00BF054A137843F0040313701032137843F004031370704700BF08
:40104000A243004008B502200C49FFF7C1FF02200721FFF7D1FF0023094A13707221094A11702021033A11700621683A11704721103211705532137008BD00BF09120000D4
:401080005E81FF1F8C64004008B5FFF771FF0A4A137843F020031370033A137843F0100313700422054B1A60054A137843F010031370FFF761FF08BD9C64004000E100E0E8
:4010C0009664004008B5054B5B7823B9FFF7BAFF0122024B5A70FFF7D7FF08BD5E81FF1F0422134B1A60134A53889BB2918889B2927912F0FF0F01D18B4211D00E4AD05C8D
:40110000C0B201339BB2FF2B00D90023094A5380937913F0FF0F06D00022064B9A7102E0064B1878C0B20422054B1A60704700BF80E100E05E81FF1FCC96FF1F4C640040B6
:4011400000E100E00422164B1A60164B5A8892B29B889BB29A4207D1124B9B7913F0FF0F19D04FF4807017E00E4B5A8892B29B889BB29A4205D20B4A93885088181A80B21F
:401180000AE0084A908883B2508880B2181A00F5807080B200E000200422034B1A60704780E100E05E81FF1F00E100E008B5FFF7DFFE0B4B1A7842F001021A701A7802F0F4
:4011C000FE021A70FFF7D8FE0421064B1960064B00225A809A809A71DA71044B196008BD9C64004080E100E05E81FF1F00E100E0034B1B7813F0040FFAD1024B18707047D3
:4012000066640040466500401D4B1B78DBB213F01E0F05D01B4803F01E0201780A43027003F0200303F0FF0233B3174B1978C9B2164B1B889BB21648C154164B1B7813F065
:40124000FF0F02D00121144B197010490B8801339BB20B800B889BB2FF2B02D900210B4B19800A4B198889B20C4B1B889BB2994202D10121074B1970002AC5D1704700BF3E
:40128000696400405E81FF1F4C6400406281FF1FCC96FF1F6481FF1F6581FF1F6081FF1F08B500F0C7F800F0CFF808BD08B5FFF7F7FF08BD30B583B00C468DF8070000F071
:4012C000EDF8B4F5006F54D22509C5EB053319010C44A4B200F08EF900284CD1402021460DF10702012300F005F9044607282FD1234B1B7813F0020FFAD0214B1B7813F0FF
:40130000020F06D01E4B1B789B0805D04FF0FF3403E04FF0FF3400E00024E4B9194B402029461A785B7800F021F9072816D1144B1B7813F0020FFAD0114B1B7813F0020F5F
:401340000FD00F4B1B789B0810D04FF0FF340DE0012809D10AE04FF0FF3407E04FF0FF3404E04FF0FF3401E04FF0FF3400F068F902E0012400E00424204603B030BD00BF39
:4013800022470040CC97FF1F10B500F087F800F031F9D0B900F070F90446072812D102E00120FFF705FE0A4B1B7813F0020FF7D0074B1B7813F0020F04D0054B1B789B0865
:4013C00000D1002400F03CF900E00424204610BD2247004010B500F061F800F00BF910BB012000F0E9F8072818D11048022100F067F802280AD102E00120FFF7D9FD0C4B23
:401400001B7813F0020FF7D0002409E0084B1B7813F0020FE9D04FF0FF3401E04FF0FF3400F00EF900E00424204610BDCC97FF1F2247004008B5FFF7A7FF034610B9FFF7FC
:40144000C9FF0346184608BD08B5FFF791FD0F4A137843F0080313701032137843F008031370C8220A4B1A700A4A137843F0100313701032137843F010031370064B1B78D9
:4014800013F0200FFAD0FFF777FD08BDA043004001470040AC4300400047004008B5FFF767FD064A137843F0080313701032137843F008031370FFF75FFD08BDA043004025
:4014C00070B506460D4600240CE00120FFF770FD064B1B7813F0010FF7D0054B1B7833550134E4B2AC42F3D3204670BD224700402047004030B43E2801D81F2B03D93F2859
:4015000027D90F2B27D8174C247814F0020F24D0154CB6252570D4252570012525700234247814F0020F1AD10F4C2070C1F300202070C9B22170591EC9B22170002104E09B
:40154000545C094804700131C9B29942F8D3072006E0012004E0012002E0042000E0092030BC7047224700402047004030B4104C247814F0020F15D00E4CB6252570D825D1
:401580002570052525700234247814F0020F0BD1084C2070080A2070C9B2217022702370072002E0042000E0092030BC704700BF22470040204700400C4B1B7813F0020F77
:4015C0000FD00B4BB6221A70E1221A700E221A7002331B7813F0020F05D1054B187007207047042070470920704700BF224700402047004010B5FFF7BBFC0F4B1B78A3B920
:4016000001220D4B1A700D4B1B6813F0010F0ED00A4A136823F00103136000BF00BF00BF0122054B5A60002402E0042400E00024FFF7A2FC204610BD6881FF1F04000840CA
:4016400008B5FFF795FC0A4B00221A705B68012B0AD1084A136843F00103136000BF00BF00BF0022024B5A60FFF786FC08BD00BF6881FF1F04000840074B1B7813F0020F36
:4016800008D0064BB6221A70E0221A700D221A70072070470420704722470040204700400E4B70B51E460E4C0025E41AA410A54204D056F8253098470135F8E700F08EF876
:4016C000084B094C1E46E41AA4100025A54204D056F8253098470135F8E770BDE8170000E8170000E8170000F017000010B5431E0A44914204D011F8014B03F8014FF8E7EA
:4017000010BD03460244934202D003F8011BFAE77047000000000000532F442F4475706C612000005365787475706C61000000004F637475706C610000000000362D362DF8
:401740003420202020200000372D372D3520202020200000496E696369616E646F000000517561647275706C61000000AA700000CC33C33CAA980000013922C5030000FF3E
:40178000FF00CC33C33C0000AA5C0020002000300030CC33C33C0000005100401000305100402000C05100401000F0510040100080000140800F00140140000800400140E6
:4017C000000A004C014000020050014020000000000001401C0E004880000000F8B500BFF8BC08BC9E4670474D000000B5070000F8B500BFF8BC08BC9E467047290000003C
:40180000101800000881FF1F20000000A8160000000000004D555820562E20312E3000000000E02EC05D00001800000000366E0100000000000000000000000000000000C6
:401840000000000000000000000000000000000000000000000000000000000000000000000000000000000000000000000000000000000000000000000000000000000068
:401880000000000000000000000000000000000000000000000000000000000000000000000000000000000000000000000000000000000000000000000000000000000028
:4018C00000000000000000000000000000000000000000000000000000000000000000000000000000000000000000000000000000000000000000000000000000000000E8
:4019000000000000000000000000000000000000000000000000000000000000000000000000000000000000000000000000000000000000000000000000000000000000A7
:020000040003F7
:0200000480007A
:40000000055200400C640040036500401800014038010140660201404D0301405D0401403F0501406B060140410701403F0801403A090140560A0140420B0140530C014087
:40004000420D0140440E01402B0F0140091501406A160140451701406418014044190140541A01404C1B014004400140054101400242014004430140094401400A4501403C
:4000800003460140034701400448014003490140084C01400A4D014008500140015101400C4014042C10308134428072820F8338840F860F870F8872893C8A388B0F8C72DC
:4000C0008E7288388A728B389801A801AC01B201BA20C002C540C9FFCA07CBFFCC40CD20CEF0CF05D008D804DA04DC03DD04DF01E040E1A8E240E32000040240030A0840B5
:400100000A010B840D10108013181580172019011A011B101C041F28200221042289230428802B283050320A38283A424005430844104504460448014A084D0151085310F2
:400140005608590169A06B207094720273188602870489108F20C00FC24BC4CECA07CC0FCE0FD02ED20CD6010473060C0720082A09700A440B0D0C030E44137015051758FD
:400180001E0820732204265529022B0C2D052F3830403103320F3430353C3768382039023A083BA03E114002450449FF4A074BFF4C404D204EF04F05500854015804590433
:4001C0005A045B045C335D335F01604061A86240632084018B808D4F8F309720990C9B509E02A355A604A780A94FAA02AB10AD2AAF50B13CB201B303B580B606B740B908E6
:40020000BB02BE44BF54C003C640C9FFCA07CBFFCC40CD20CEF0CF05D008D418D604D804D904DA04DB04DC20DD32DF01E040E1A8E240E320000805040602071808800E0298
:400240001004110816A01701180119081D241E4020502180230425112601270929112B112EA0302033083504360138403B203D244010452049014D04521056205A025C2072
:400280005D085E405F02600261026304810286018D018E08910192029320940198849A089E04A10CA280A310A702A904AC80AD04AF40B004B240C0E4C281C436CA3FCCC6EC
:4002C000CE6CD022D6F1D80DE008EA04EE02051409100A1C0C1C0E230F0310211140121617201821190C1A0E1B111F202110230C2608284029092A032B102C802D1C2F0215
:40030000300F311F32603340341A3520368038083A223E403F144046410245EB46C0480B49FF4AFF4BFF4EF04F44500C5401580459045A045B045C225D025F0166C06A4031
:400340006B028109831085108C01910C9311951C970299109B0C9F03A514B11FB401BE10C023C104C6B0C7CEC838C9FFCAFFCBFFCEF0CF44D00CD804D904DA04DC30DD030A
:40038000DF01E6C0EA40EB02030A04800A441218134019101A051B0B1E0822242340274028802B092F203119328037593A103B443D0640C042444620471148404A084B0470
:4003C000502054045602572059215A88800282209040910596019A389B199C029D109E06A189A288A424A709AB02B004B302B420B602C083C20AC407CA4DCCFFCECED0E5F9
:40040000D204D60FEA0401A20202031504380508064307510C560E211322143815D41645172119D41B231E292A4630633131321833C034073503370C380839883A223B2258
:400440003E043F044003460449FF4A074BFF4C404D204EF04F0550085401580459045A045B045C415D415F01604061A8624063208413854C860487118C0A8D1C8E148F4234
:4004800094139514960C99209B039D80A215A403A550A614A70CA909AA08AB10AD10B010B20FB3C0B51FB720B908BA08BE01BF40C031C102C5ECC70BC813C9FFCAFFCBFFED
:4004C000CEF0CF44D00CD401D804D904DA04DB04DC11DD11DF01E6C0EA40EB020044046406440A100E110F0210B41208172019041A501C441D0821402218232024202501E3
:400500002745280429042A4030883210371538443D023E08400442114508482049024A804C804F0250085640581059025A485EA85F018D409101948096809A089D219E0483
:40054000A204AC40B020B180B740C0B5C2A4C44ECA0ECCEECECAD04ED6FFE602E80200020110044F0508063009180C010D4010031160145C15FF1623187F191C1BE21C7358
:400580001DE71E0C1F18223323632404251C27E1280C29242C082F04301C31603240342C351F360F378039803AA03B283E0456025711580459045B045C115D105F018602D1
:4005C0008E019E02B001B402BB80BE10D41CD604D804D904DB04DC21DD40DF010008030104040680074109400C400D020E2915011601172819201A401C141D011E011F10A8
:4006000022802540261D2C082D012E402F1034403616380239013EAA5B065C10615063406D406E14762B77288740970899509B06A680AD48B240B320B480C0B5C2F1C4F0D5
:40064000CAF0CCF0CEF0D623D80DE410E830EC20020206020A010B01120117021F012B0234013501360237023E503F50402541044203440146E0470C481849FF4AFF4BFFD3
:400680004C624DA04EF04F41500C5418580459045A045B045D225F016640670269106A306B106D106E106F1280048212837F8504860487229161931E9408953F974099330F
:4006C0009B449D069E039F09A004A211A417A817A97FAC04AD46AF39B007B107B210B360B408B508B710B808BA02BB0ABE10D401D804D904DB04DC44DD20DF01002002107C
:4007000003400504068009010D080E031405170919501C201E041F022305250427862B0C2E802F0630083240361037893B203D083E0141814328440245404B4050085310B1
:4007400059025C025E845F20630579027A80928093409708980599069A109B499C80A181A211A324A680A702A810B001C03EC2A8C4F0CA34CCFACEC4D00FD208D6F1D80C6E
:4007800001040502081409060A0A0C020E050F191009112712521318153917061901243F283F293F2C202D362F093007311032403307341835203620370E3B883F10406510
:4007C00041024204440346C047E0482849FF4AFF4BFF4C624DA04EF04F41500C56025712580459045A045B045C445D445F016640670269106A306B106D106E106F12810971
:400800008332859F899F8D809514972A99029B459E01B180B201B318B507B760BF40D804D904DC23DF01044005100A010C011540171418201C401D141E4221A0221423409D
:4008400024042502260C27412C042F063120320436143709399A3E2A3F804404450A4A034E0A4F80550156105C046D406F14762A919A92819668974099029C819D10A10807
:40088000A210A324A680AB12AC10AD80B121B201B601B708C0C0C211C4E0CA30CCE6CEFFD0E0D230D640E008EE8000FF011004F30518060C084109080C1C0EE30F0312F3AA
:4008C00014C317041882193C1B421C0F1D7F1EF02008240425672718280C29042B802D3C2F4130C03120321C3380340F351F362C374039803AA03B203F01560257105804EA
:4009000059045B045C225D205F018A209240941F981F9C099E12A080A414A60AA802AA05AE20B007B260B480B618BE14D804DC03DF0101200281032005100A2A0B400E51C4
:400940000F0410A81491171019821A021B341D881E241F0221202248238829A02B103120328838283A023B405B80699870BC720286048B048E10C04FC2FFC4FECA0ECC0EDF
:40098000CE0FD608E002E4308B408C0297409C02AE12B102B201B510E60200710103020803240443063007250C240E4113D8145015A3174C180219631A011B941C811DDAB9
:4009C0001E0E1F242040214022032430264727802F083280331F35C0367F37203B283E043F404062410345E046B047C0482A49FF4AFF4BFF4EF04F44500C580459045A0441
:400A00005C445D045F0166C06A406B02841C85338603870C89038B148C018E0E92039308990A9B349D809E1CA133A304A401A616AD40AE08AF15B01AB160B380B40FB50FFF
:400A4000B710B902BA22BB20BF44C021C104C5E0C6CBC80EC9FFCAFFCBFFCEF0CF44D00CD804D904DA04DF01E6C0EA40EB02004404200520075108020A020DA00E040F2063
:400A800012201340150116801704184419121D801E011F04211022652304252026482710280229022E8531103281375538203B043E0A404241104608470449014C404E08BC
:400AC0004F01509056025710848086208B0491019480968897019A089B459D219F10A280A650C0B5C2E9C435CAD9CCFDCEC6D06DD220E008E402E6080201053F093F0D20AB
:400B00001108139419121A011B4929052B4A3001311C33C0350337203A083E013F044035410642044402450C470E481149FF4AFF4BFF4C624DA04EF04F41500C5418560437
:400B4000580459045A045B045C145D115F016640670269106A306B106D106E106F1287018C228E5190449231930298019A0E9B02A301A4E7A8E7AC80B060B280B407B502EB
:400B8000B618B701BB02BE40BF50C063C104C205C401C50EC70CC811C9FFCAFFCBFFCC62CDA0CEF0CF41D00CD804D904DA04DF01E640E702E910EA30EB10ED10EE10EF12C2
:400BC0000080050106800A480F081002111419041A481B881F052040230524022502262227202B402C0830203201362238083D403E144040438846A04720482049104B4032
:400C00004C014E084F08500454045E0263C06520660267028501860287088E208F40914092159402970899219F41A209A40CA502A602C011C24AC407CA21CCA5CE72D0EB2B
:400C4000D23CD680D8B0E08002F304F30518060C09080C410D7F108211041380140F153C16F0174118C31B041C1C1D3C1EE31F422008211024042703280C29672B182CFF4D
:400C800030C03140322C3320340F3580361C371F39023A283B803F0456025711580459045B045F01860188A08C80908392609463968898049A18A4E2A610A848AA80B20480
:400CC000B4F8B603B880BE44C001C704C9FFCA07CBFFCC40CD20CEF0CF05D008D418D604D804DA04DB04DF01E040E1A8E240E320008403400620070A08400A680D010E24FE
:400D000010A01140131014201608180419121A201B481D801E041F042261232029142A023040326033093868394045805404562057105B205D0267456802691470B47202F2
:400D4000731081048340874088448B078F10904091029248930595149602982099049A089B089D10A210A442A740B008B239B301B420C0EDC27FC46FCA07CC0FCE0ED01054
:400D8000D684D8B0E230E8E0338836203704CCF083049F04A620A788E280A620A7888708A620A788E6400640081056105E018610C004C202D402D60100805304860196016C
:400DC000B010B240C002D404EA04EE019708B040EE048C019708E4088780A620A780E6108620A620E640094060018B0490019708C202D602E0010801630288018B01B1405B
:400E0000C208D602E001E604EE04001F081C0A1F0C160E1C10131A111C1300FF040800007F0C00000004030000410400670F18F000F3000C3CC341003C1C42E31082000070
:400E400008FF0000180000F30000000020C0000F402C1F1C2000802800000100630205000100E00C18FFFFFF62A0F0410C00000000000213040404043333000100000000CA
:400E80000000400200103010001010120000000000000000000000000000000080004080800080000000000002000402020002000000000020001020200020000000000092
:400EC00081004281810081000000000000000000000000000000000000000000000000000000000000000000000000000000000000000000000000000000000000000000AC
:400F000000000000000000000000000000000000000000000000000000000000000000000000000000000000000000000000000000000000000000000000000000000000B1
:400F40000000000000000000000000000000000000000000000000000000000000000000000000000000000000000000000000000000000000000000000000000000000071
:400F80000000000000000000000000000000000000000000000000000000000000000000000000000000000000000000000000000000000000000000000000000000000031
:400FC00000000000000000000000000000000000000000000000000000000000000000000000000000000000000000000000000000000000000000000000000000000000F1
:0200000490006A
:0400000000004005B7
:0200000490105A
:04000000BC90ACAF55
:0200000490303A
:020000001D964B
:0200000490402A
:4000000000000000000000000000000000000000000000000000000000000000000000000000000000000000000000000000000000000000000000000000000000000000C0
:400040000000000000000000000000000000000000000000000000000000000000000000000000000000000000000000000000000000000000000000000000000000000080
:400080000000000000000000000000000000000000000000000000000000000000000000000000000000000000000000000000000000000000000000000000000000000040
:4000C0000000000000000000000000000000000000000000000000000000000000000000000000000000000000000000000000000000000000000000000000000000000000
:0200000490501A
:0C00000000012E12306900012E1F4DFF80
:00000001FF