:400000000080002011000000752E0000752E000008B5044B1A6803F53F5302331A6002F02BFF00BFFA46004010B5054C237833B9044B13B10448AFF300800123237010BD05
:400040005083FF1F00000000B4460000084B10B51BB108480849AFF300800848036803B910BD074B002BFBD0BDE81040184700BF00000000B44600005483FF1F0881FF1FB9
:400080000000000008B504F09DF8024A13780133137008BDFF8CFF1F08B503F063FD03F06DFC03F0BDF903F0B7FA03F0DDF803F065F903F003FE08BD10B5154C2078002194
:4000C00003F054FD134B1878012103F04FFD124B1878022103F04AFD104B1878032103F045FD0F4B1878042103F040FD0D4B1878052103F03BFD0C4B1878062103F036FD33
:4001000020780130C0B2072103F030FD10BD00BF4A8AFF1F3492FF1FD18CFF1F4B8AFF1F3292FF1F4892FF1FFE8CFF1F10B59CB0994A19AB07CA03C31A80984B16AC93E8E1
:40014000070003C42280964A13AC07CA03C4228010AC03F10C0207CA03C4227000228DF849200DAC03F1180103C984E80300ADF83C200AAC03F1240207CA03C4228007AC7F
:4001800003F1300207CA03C4228004AC03F13C0207CA03C4228001AC483393E8070003C42280804B1B78022B7AD10120014601F06FFC012019A9002201F024FD4FF49670B6
:4001C00003F01CFB784B1B785BB90133DBB2774A82F8023182F80532012016A9002201F011FD714B1B78012B0BD10133DBB26F4A82F8023182F80532012013A9002201F08B
:4002000001FD694B1B78022B0BD10133DBB2674A82F8023182F80532012010A9002201F0F1FC614B1B78032B0BD10133DBB25F4A82F8023182F8053201200DA9002201F0CB
:40024000E1FC5B4B1B783BB901200AA9162201F0D9FC0522574B1A70554B1B78012B07D1012007A9162201F0CDFC0622514B1A704F4B1B78022B07D1012004A9162201F0DE
:40028000C1FC07224B4B1A70494B1B78032B07D1012001A9162201F0B5FC0822454B1A70404B1B78042B6DD101202E2101F0F0FB012019A9002201F0A5FC4FF4967003F078
:4002C0009DFA394B1B787BB90133DBB2374A82F8023182F8053282F8083382F80B34012016A9002201F08EFC2F4B1B78012B0FD10133DBB22D4A82F8023182F8053282F868
:40030000083382F80B34012013A9002201F07AFC254B1B78022B0FD10133DBB2234A82F8023182F8053282F8083382F80B34012010A9002201F066FC1B4B1B78032B0FD103
:400340000133DBB2194A82F8023182F8053282F8083382F80B3401200DA9002201F052FC134B1B78012B04D1012007A9162201F049FC0F4B1B78022B04D1012004A916222F
:4003800001F040FC074B1B78012B03D80120002101F07EFB1CB010BD20470000B84600002C4700005492FF1F4A8AFF1FC083FF1F4892FF1FFE8CFF1F08B5104B1B78022B38
:4003C00006D10220012101F063FB00220C4B1A600A4B1B78042B03D102202E2101F058FB064B1B78012B03D80220002101F050FB02200449002201F005FC08BD5492FF1F4A
:40040000908FFF1F0C81FF1F08B500F0BBFE2D4B1870002855D02C4B187800F09BFE01F025F950B90120002101F032FB0220002101F02EFB0022234B1A70234B93F80301A5
:4004400000F088FE01F012F950B90120002101F01FFB0220002101F01BFB0022194B1A70194B187800F076FE01F000F948B3164B93F8030100F06EFE01F0F8F808B300F045
:4004800081FE104B1870104B187800F063FE06280DD10D4B93F8030100F05CFE062806D1094B187801F0DAF9FFF706FE08BD0120092101F0EDFA0220092101F0E9FAFFF7BC
:4004C000A3FF08BD5492FF1FC083FF1F70B584B0B34B1B680B2B00F27884DFE813F00C001B004D00A8006D019C0119026102E4022403AC03F403FFF719FE0122A84B1A6073
:4005000003F0E2FE03F044FE0022A64B83F8612000F05BBC02F092FF082840F05684A24B1B78DBB2AA2B20D19F4B9B79DBB2C32B1BD19D4BDB79DBB23C2B16D19A4BDB7859
:40054000DBB23A2B02D07E2B08D00EE00222944B1A600120042101F09BFA06E00120014601F096FA00228E4B1A600A2003F046F902F092FF00F029BC02F060FF082840F056
:400580002484894B1B78DBB2AA2B4AD1864B9B79DBB2C32B45D1844BDB79DBB23C2B40D1814BDB78DBB2452B24D004D80D2B07D00E2B10D035E07E2B2CD0942B22D030E082
:4005C0000322774B1A600120764B83F86100052101F05EFA25E00A22714B1A600222714B83F861200022714B1A700120852101F04FFA16E005226A4B1A600120832101F0BF
:4006000047FA0EE00022664B1A600120014601F03FFA06E00022624B1A600120014601F037FA0A2003F0EAF802F036FFCDE302F005FF082840F0C9835B4B1B78DBB2AA2BE0
:4006400040F0A780584B9B79DBB2C32B40F0A180554BDB79DBB23C2B40F09B80524BDB78DBB23B2B00F0868004D80F2B0BD0102B27D08EE07E2B00F08580942B72D0432BF6
:4006800040F087803BE00422454B1A60454B002483F80041022583F86350442283F86420434B1C700120062101F0F2F90120009001944E230293242103222B4601F0CAFA74
:4006C00067E00422364B1A60364B002583F80051012483F86340562683F86460344B1D7020460D2101F0D4F9009401954E230293204631460322022301F0ACFA49E0294B39
:40070000022283F86320462283F86420012306E0244A1A44392182F865100133DBB21A4624490978481E8342F2DB1E4B9C18302084F8650084F8660083F86510002307E0E0
:40074000184A1A4492F8650082F86F000133DBB28B42F5D90522124B1A600120862101F097F916E000220E4B1A600120014601F08FF90EE000220A4B1A600120014601F03A
:4007800087F906E00022064B1A600120014601F07FF90A2003F032F802F07EFE15E300BF188DFF1FD087FF1F5894FF1FFF8CFF1F008DFF1FFE8CFF1F0120984B19780022B4
:4007C00001F0ACFA10B1012813D0FEE20022944B1A600120014601F05BF9F6E2914A1A4492F84B1082F8651082F86F100133DBB200E000238B4A92F84B209A42EED2002263
:40080000884B83F800210522854B1A600120862101F03EF9D9E202F011FE082840F0D582814B1B78DBB2AA2B6CD17F4B9B79DBB2C32B67D17C4BDB79DBB23C2B62D17A4BDF
:40084000DB787E3B3A2B5DD8DFE803F055351E295C5C5C5C5C5C5C5C5C5C5C5C5C5C5C5C5C5C4D5C5C5C5C5C5C5C5C5C5C5C5C5C5C5C5C5C5C5C5C5C5C5C5C5C5C5C5C5C16
:400880005C5C5C5C5C5C41000622654B1A600120664B83F801010B2101F0FAF832E006225F4B1A600222614B83F8012101200B2101F0EEF826E00622594B1A6003225B4B19
:4008C00083F8012101200B2101F0E2F81AE00622534B1A600422554B83F8012101200B2101F0D6F80EE000224D4B1A600120014601F0CEF806E00120014601F0C9F8002237
:40090000474B1A600A2002F079FF02F0C5FD5CE202F094FD082840F05882434B1B78DBB2AA2B37D1404B9B79DBB2C32B32D13E4BDB79DBB23C2B2DD13B4BDB78DBB2392B27
:4009400004D07E2B1FD0382B24D10FE00922344B1A600022364B1A70324B012083F8000183F870020A2101F093F813E000232D4A82F8003107212A4A11602E4A1370012064
:4009800001F086F806E00120014601F081F80022234B1A600A2002F031FF02F07DFD14E2254803F083FC03F053FC012001F006F801461E4B83F8000193F8013198423DD156
:4009C000184A92F8633019480078653203F0030300F06AFE012812D1144C207800F0BAFB207840F0100003F05FF8322002F006FF08210B4B1960012001F04AF82EE0002128
:400A0000074B1960012001F043F8C82002F0F6FE0120014601F03CF820E000BFFE8CFF1F188DFF1FD087FF1F5894FF1FC083FF1F008DFF1FFF8CFF1F850000000722B04B3C
:400A40001A60B04B1B781D2B08D90023AC4A1360AC4A13700120014601F01AF802F0EEFC08281DD1A84B1B78DBB2AA2B15D1A64B9B79DBB2C32B10D1A34BDB79DBB23C2B76
:400A80000BD1A14BDB78DBB27E2B06D10120014600F0FEFF00229A4B1A600A2002F0AEFE02F0FAFC91E1994B187800F053FB0A2805D00B2819D0062840F087812BE0934BF2
:400AC000187800F0EFFB00228D4B1A60904B93F87032012B04D101208C4B197801F0E0FC0120014600F0D4FF6FE1884B187800F0D9FB0022824B1A60854B93F87032012B85
:400B000004D10120814B197801F0CAFC0120014600F0BEFF59E10022794B1A600120014600F0B6FF51E101200A21002201F0F6F810B1012837D048E1754B93F80031022BAD
:400B40001FD0032B29D0012B2AD107E0704A1A44002182F8DF100133DBB200E000230A2BF4D90022664B1A600120014600F090FF16E0674A1A44002182F8EA100133DBB25A
:400B800000E000230A2BF4D90AE0614A1A44002182F8F5100133DBB200E000230A2BF4D902F07AFC11E15A4B93F80031022B23D0032B37D0012B3BD108E0554A1A4492F820
:400BC0004B1082F8DF100133DBB200E00023504A92F84B209A42F0D20721494B1960012000F056FF24E04A4A1A4492F84B1082F8EA100133DBB200E00023454A92F84B200E
:400C00009A42F0D207213E4B1960012000F040FF0EE03F4A1A4492F84B1082F8F5100133DBB200E000233A4A92F84B209A42F0D202F032FCC9E002F001FC082840F0C5802B
:400C4000314B1B78DBB2AA2B37D12F4B9B79DBB2C32B32D12C4BDB79DBB23C2B2DD12A4BDB78DBB2B62B04D0B72B12D07E2B24D11CE00B22224B1A600022264B1A70244B2A
:400C8000012083F8000183F87002122100F000FF13E000231E4A82F800310721184A1160184A1370012000F0F3FE06E00120014600F0EEFE0022124B1A600A2002F09EFDA3
:400CC00002F0EAFB81E0144803F0F0FA03F0C0FA012001F0D7FF01286AD1332102F014F840B965E0012002F079F80C4B18550134E4B200E00124082CF4D90020012415E0A7
:400D0000188DFF1FFF8CFF1F5894FF1FC083FF1FD087FF1F008DFF1F850000001492FF1F2B4B195D02F096F80134E4B2072CF7D9274B1B7A83423BD11023264A53700121D9
:400D400020E0234A525C02F00F00092804DD214C1C443730607003E01E4C1C4430306070013BDBB21209092A04DD1A4818443732427003E01748184430324270013BDBB218
:400D80000131C9B20829DCD90120132100F080FE02F082FB4FF42F7002F030FD01200D4B83F8000109220C4B1A600E2100F070FE0A4B1B783B2B08D90023074A1360074A88
:400DC00013700120014600F063FE04B070BD00BF1492FF1FD087FF1F188DFF1FFF8CFF1F08B5A94B1B68062B00F28B81DFE813F007000D0041009200ED001D015001FFF70C
:400E0000DBFA0122A04B1A6008BD0220232100F0CBFE02F00FFC082840F073819B4B1B78DBB2AA2B1FD1994B9B79DBB2C32B1AD1964BDB79DBB23C2B15D1944BDB78DBB229
:400E40003A2B02D07E2B07D00DE002208E4B1860042100F01DFE06E00220012100F018FE0022894B1A600A2002F0C8FC02F010FC08BD02F0DFFB082840F04381834B1B7897
:400E8000DBB2AA2B40D1814B9B79DBB2C32B3BD17E4BDB79DBB23C2B36D17C4BDB78DBB2452B1AD004D80D2B07D00E2B0DD02BE07E2B22D0942B18D026E00322724B1A608F
:400EC0000220052100F0E4FD1EE004226E4B1A600220852100F0DCFD16E005226A4B1A600220832100F0D4FD0EE00022664B1A600220012100F0CCFD06E00022624B1A60B7
:400F00000220012100F0C4FD0A2002F077FC02F0BFFB08BD02F08EFB082840F0F2805B4B1B78DBB2AA2B4AD1584B9B79DBB2C32B45D1564BDB79DBB23C2B40D1534BDB7886
:400F4000DBB23B2B2CD004D80F2B09D0102B0FD035E07E2B2CD0942B1AD0432B2FD10FE00422494B1A600220062100F091FD26E00522454B1A6002200D2100F089FD1EE0C3
:400F80000622414B1A6002200B2100F081FD16E000223D4B1A600220012100F079FD0EE00022394B1A600220012100F071FD06E00022354B1A600220012100F069FD0A200D
:400FC00002F01CFC02F064FB08BD02F033FB082840F097802D4B1B78DBB2AA2B1FD12B4B9B79DBB2C32B1AD1284BDB79DBB23C2B15D1264BDB78DBB27E2B09D0942B0ED1DB
:401000000022214B1A600220012100F041FD06E000221D4B1A600220012100F039FD0A2002F0ECFB02F034FB08BD02F003FB082867D1164B1B78DBB2AA2B1FD1134B9B79E9
:40104000DBB2C32B1AD1114BDB79DBB23C2B15D10E4BDB78DBB27E2B09D0942B0ED10022094B1A600220012100F012FD06E00022054B1A600220012100F00AFD0A2002F0CB
:40108000BDFB02F005FB08BD908FFF1F7894FF1F02F0D0FA082834D11A4B1B78DBB2AA2B2AD1184B9B79DBB2C32B25D1154BDB79DBB23C2B20D1134BDB78DBB2392B04D01D
:4010C0007E2B12D0382B17D107E002200A2100F0DFFC07220C4B1A600EE00220862100F0D7FC0822084B1A6006E00220012100F0CFFC0022044B1A600A2002F07FFB02F058
:40110000C7FA08BD7894FF1F908FFF1F08B562B6002304E000210D4AD1540133DBB2032BF8D9FEF7B9FFFFF76FF90122084B1A700320002102F082FB02F0A0FBFFF7C6F989
:4011400002F09CFBFFF74CFEF6E700BFF88CFF1FF38CFF1F10B5044602F084FC204602F0A3FC3C2002F04AFB02F048FC38B102F013FCC0F3071402F075FC204610BD00201C
:4011800010BD00BF10B5464BFF221A7083F8032183F8062283F80923012454E0204602F083FC642002F02AFB02F028FC38B13C4B1B78FF2B03D13A4B1C7002F053FC02F093
:4011C0001DFC68B1364B1B78A34209D0344B93F80331FF2B04D1324B83F8034102F042FC02F00CFC90B12E4B1B78A3420ED02C4B93F80331A34209D0294B93F80632FF2BE3
:4012000004D1274B83F8064202F02CFC02F0F6FBB8B1234B1B78A34213D0214B93F80331A3420ED01E4B93F80632A34209D01C4B93F80933FF2B04D1194B83F8094302F053
:4012400011FC0134E4B2102CA8D9154B1B78FF2B0ED0134A92F80321FF2A09D0104A92F80622FF2A04D00E4A92F80923FF2A0FD1FF2B04D00A4A92F80321FF2A0AD1FF2B83
:401280000AD1074B93F80331FF2B07D0012010BD042010BD022010BD012010BD002010BDC083FF1F10B5044602F0DCFB44F0400002F0FAFB4FF4967002F0A0FA02F0DEFA65
:4012C000B64B1B78072B00F0F28002F097FB212840F0ED80B24B1B78DBB2FF2B40F0AE81AF4B9B78DBB2F82B40F0AA81AC4B93F82030DBB2F02B40F0A581AA4B1B78A34261
:401300006AD1A74B5B7A03F00F033133A54A82F8FF3001230CE003F10B02A1498A5CA249C91A02F00F02303281F8F1200133DBB2042BF0D904229B4B83F8F1209B4B1B7842
:40134000DBB2012B06D1974B052283F8F120302283F8F62001230CE003F1100290498A5C9349C91A02F00F02303281F8E3200133DBB2062BF0D906228A4B83F8E320012396
:401380000CE003F1170286498A5C8949C91A02F00F02303281F8D5200133DBB2062BF0D97E4B1B78052B11D109E05A1E7D49881890F8D5000B4483F8D500D3B200E006237D
:4013C000012BF2D83022774B83F8D6200622754B83F8D520012010BD714B5B7A03F00F033133704A82F8023201230CE003F10B026B498A5C6C49C91A02F00F02303281F8A9
:40140000F4210133DBB2042BF0D90422654B83F8F421664B1B78DBB2012B06D1614B052283F8F421302283F8F92101230CE003F110025B498A5C5E49C91A02F00F023032CB
:4014400081F8E6210133DBB2062BF0D90622554B83F8E62101230CE003F1170250498A5C5349C91A02F00F02303281F8D8210133DBB2062BF0D9494B1B78052B11D109E018
:401480005A1E4849881890F8D8010B4483F8D801D3B200E00623012BF2D83022414B83F8D92106223F4B83F8D821012010BD3B4B1B78072B40F0C88002F0A0FA272840F0C6
:4014C000C580374B1B78DBB2FF2B40F0C180344B9B78DBB2F82B40F0BD80314B93F82630DBB2F02B40F0B8802E4B1B78A3424BD12B4B5B7A03F00F0331332A4A82F8FF3070
:4015000001230CE003F10B0225498A5C2849C91A02F00F02303281F8F1200133DBB2062BF0D906221F4B83F8F12001230CE003F112021B498A5C1F49C91A02F00F02303218
:4015400081F8E3200133DBB2082BF0D90822154B83F8E32001230CE003F11C0210498A5C1449C91A02F00F02303281F8D5200133DBB2072BF0D90B4B302283F8D6200822B7
:4015800083F8D520012010BD054B5B7A03F00F033133044A82F8023201231AE0FE8CFF1F9894FF1FC083FF1FC583FF1F8D8FFF1FC783FF1FC983FF1F03F10B0227498A5C09
:4015C0002749C91A02F00F02303281F8F4210133DBB2062BF0D90622224B83F8F42101230CE003F112021D498A5C1F49C91A02F00F02303281F8E6210133DBB2082BF0D974
:401600000822184B83F8E62101230CE003F11C0212498A5C1449C91A02F00F02303281F8D8210133DBB2072BF0D90E4B302283F8D921082283F8D821012010BD002010BDCC
:40164000002010BD002010BD002010BD002010BD002010BD002010BD002010BD9894FF1FC783FF1FC083FF1FC983FF1F30B1002802DB831F062B01D9002070470120704730
:40168000002104E003F00F030B44D9B201300378FB2BF7D103F00F028818404200F00F0040F0E000704700BFF0B587B005460E46144600230193029303930493ADF81430CA
:4016C000FFF748FD0638C0B201280AD845F0200002F0EAF9322002F091F802F05DF9074600E0002702F0BEF902F0BCF945F0D003BB4240F0AA80FF238DF80430E1238DF84E
:401700000530012D40F0A380524A92F8633063F00F038DF80630F6238DF80730013E06F00F0666F01F068DF80860F8238DF8093092F86450462D09D006231AE006AA1A44FF
:40174000E92102F8141C0133DBB200E00623424A127806329342F1DB1A4608E006A91144E02001F8140C0133DBB20132D2B20D2AF4D9442D20D120781A460CE0215C06AE24
:40178000164401F00F0161F01F0106F8141C0138C0B20132D2B2217819448A42EEDB134608E006A91144E02001F8140C0133DBB20132D2B20D2AF4D9562D20D120781A46FC
:4017C0000CE0215C06AD154401F00F0161F01F0105F8141C0138C0B20132D2B2217819448A42EEDB134608E006A91144E02001F8140C0133DBB20132D2B20D2AF4D906AA5E
:401800001A44FB2102F8141C5D1CEDB201A8FFF737FF06AB2B4403F8140C0135EDB206AB2B44F02203F8142C002407E006AB234413F8140C02F038F90134E4B2AC42F5D9A2
:40184000322001F0DBFF012002E0002000E0002007B0F0BDD087FF1FFE8CFF1FF0B585B000AF0446FFF776FC06280AD144F0200002F01AF9322001F0C1FF02F08DF8054645
:4018800000E0002502F0EEF844F0D004AC4222D1FF233B71E9237B71FE23BB71EE23FB71E0233B727B72FB23BB72381DFFF7E8FEF872F0233B73002408E007F11003234410
:4018C00013F80C0C02F0F0F80134E4B2082CF4D9C82001F093FF02F091F8C6B2F31D23F00703ADEB030D6D46002404E002F054F828550134E4B2B442F8D902F0B3F8AB7A22
:4019000003F00F03264A13702B7B03F00F03254A1370012B0AD1244A47211170612151706C2191702021D17011715171022B0CD11D4B55221A706B225A7020229A7047229E
:40194000DA7061221A716C225A71AB7B03F00F03013B164A13702B7C03F00F03012B01D0042B02D10321124A1170032B00D013B902210F4A1170022B02D101220C4B1A70F5
:40198000AB7C03F00F03013B0A4A13702B7D03F00F03094A137000201437BD46F0BD00BF4A8AFF1F3492FF1F988FFF1FD18CFF1F4B8AFF1F3292FF1F4892FF1FF0B585B04E
:4019C00000AF0446FFF7C6FB0638C0B201280AD844F0200002F068F8322001F00FFF01F0DBFF054600E0002502F03CF844F0D004AC422AD1FF233B71E9237B71FE23BB7140
:401A0000E023FB71E1223A727B72FB23BB72381DFFF736FEF872F0233B73002408E007F11003234413F80C0C02F03EF80134E4B2082CF4D9154B1B7823B14FF42F7001F077
:401A4000DDFE02E0C82001F0D9FE01F0D7FFC5B2EB1D23F00703ADEB030D6E46002404E001F09AFF30550134E4B2AC42F8D901F0F9FF337B03F00F03012B03D1B07B00F0E2
:401A80000F0000E000201437BD46F0BD4A8AFF1F30B583B005460A4610496B460868496803C3130A8DF802308DF80320002410E0012D06D102AB234413F8080C01F00EFDC2
:401AC00005E002AB234413F8080C01F003FE0134E4B2072CECD903B030BD00BF384700002DE9F04387B005468C4616461C469DF83870BDF83CE00DF10408DFF8A89059F868
:401B0000080FD9F80410D9F80820D9F80C30A8E80F00B9F81030A8F800307A1C02FB04F303EB43039B001B128DF8063004FB02F404EB4404A3008DF80730C6EBC6035B00A2
:401B40001B128DF80830C6EBC60673008DF8093020378DF80A709DF84030592B02D185238DF80B304FEA1E238DF80D308DF80EE08DF811C0002410E0012D06D106AB23447D
:401B800013F8140C01F0AAFC05E006AB234413F8140C01F09FFD0134E4B2112CECD907B0BDE8F0833847000070B584B005460E466B46134C54F81C0F6168A26807C3A2894C
:401BC0001A808DF807608DF80960002410E0012D06D104AB234413F8100C01F07FFC05E004AB234413F8100C01F074FD0134E4B20D2CECD9642001F001FE04B070BD00BF4E
:401C000038470000F0B585B007460E46154600240DE0315D01230093002301934E23029338461F222B19FFF75BFF0134E4B2092CEFD905B0F0BD00BF054B04E0824201D136
:401C40005878704702331A78002AF7D1002070471881FF1F2DE9F04387B005468C4616461C469DF83870BDF83CE00DF10408DFF8A89059F82C0FD9F80410D9F80820D9F8D9
:401C80000C30A8E80F00B9F81030A8F800307A1C02FB04F303EB43039B001B128DF8063004FB02F404EB4404A3008DF80730C6EBC6035B001B128DF80830C6EBC60673000D
:401CC0008DF8093023378DF80A709DF84030592B02D185238DF80B304FEA1E238DF80D308DF80EE08DF811C0002410E0012D06D106AB234413F8140C01F0F0FB05E006AB36
:401D0000234413F8140C01F0E5FC0134E4B2112CECD907B0BDE8F0833847000030B585B00D461446012840F0108101F087FB082840F02F82A84B1B78DBB2AA2B40F0FE8059
:401D4000A54B9B79DBB2C32B40F0F880A24BDB79DBB23C2B40F0F280A04B1B78DBB2013DAB4200F39F809C4BD878FFF765FF0546A0F12003DBB20B2B2AD8984A1378013327
:401D8000DBB213701378964A134483F84B008CB9924B1A781B7892490A4492F84B1001200090002201924E22029203220233FFF751FF78E0894B1B78012000900022019207
:401DC0004E220292214602221344FFF743FF6AE0A0F12D03DBB2512B2AD8804A13780133DBB2137013787E4A134483F84B008CB97A4B1A781B787A490A4492F84B10012060
:401E00000090002201924E22029203220233FFF721FF48E0714B1B7801200090002201924E220292214602221344FFF713FF3AE02C2838D1694B1B7813F0FF0F33D0694B98
:401E40001B7813F0FF0F2ED1644A13780133DBB213700121634B19701378614A134483F84B008CB95D4B1A781B785D490A4492F84B1001200090002201924E22029203221C
:401E80000233FFF7E7FE0EE0544B1B7801200090002201924E220292214602221344FFF7D9FE00E000254C4BDB78DBB20B2B26D14A4B1B7803F0FF042BB9142001F09EFC6F
:401EC00001F0EAFA68E1454C237801200090002201924E220292202103220233FFF7BAFE23783F4A134493F84B302C2B02D100223C4B1A70394A1378013BDBB213700A2D76
:401F000010D1364B1B7813F0FF0F0BD0334B1A78334B83F84B20142001F070FC01F0BCFA012439E12C4BDB78DBB2942B06D1142001F064FC01F0B0FA00242DE1142001F071
:401F40005DFC01F0A9FA022426E101F073FB082840F02181244B1B78DBB2AA2B40F01281214B9B79DBB2C32B40F00C811E4BDB79DBB23C2B40F006811C4B1B78DBB2013DDA
:401F8000AB4200F3B580184BD878FFF755FE0546A0F12003DBB20B2B3BD8144A13780133DBB213701378124A134483F84B000CBB0E4B1A781B780E490A4492F84B10012218
:401FC0000092002201924E220292022003220344FFF740FE8DE000BF5894FF1F008DFF1FD087FF1F978FFF1F7894FF1F3392FF1F608AFF1F6A4B1B78012200920022019273
:402000004E2202920220214602460344FFF722FE6FE0A0F12D03DBB2512B2CD8604A13780133DBB2137013785E4A134483F84B0094B95B4B1A781B785A490A4492F84B109A
:4020400001220092002201924E220292022003220344FFF7FFFD4CE0514B1B7801220092002201924E2202920220214602460344FFF7F0FD3DE02C283BD1494B1B7813F007
:40208000FF0F36D0484B1B7813F0FF0F31D1444A13780133DBB213700121434B19701378424AD2783F490B4483F84B208CB93C4B1A781B780A4492F84B1001220092002224
:4020C00001924E220292022003220344FFF7C2FD0FE0334B1B7801220092002201924E2202920220214602460344FFF7B3FD00E000250B2D27D12A4B1B7803F0FF042BB9C3
:40210000142001F07BFB01F0C3FA45E0244C237801220092002201924E2202920220202102460344FFF796FD23781E4A134493F84B302C2B02D100221B4B1A70184A1378B4
:40214000013BDBB213700A2D10D1154B1B7813F0FF0F0BD0124B1A78124B83F84B20142001F04CFB01F094FA012415E00F4BDB78DBB2942B06D1142001F040FB01F088FA42
:40218000002409E0142001F039FB01F081FA022402E0022400E00224204605B030BD00BF3392FF1F608AFF1FCC87FF1F7894FF1F10B582B08DF804008DF8051001F0AEFF14
:4021C0000720002101F0F6FE58B1002011E002AB234413F8040C01F049FF48B90134E4B200E00024012CF2D901F024FF012000E0002002B010BD00BF38B504241DE001F0F2
:402200008DFF6820002101F0D5FED0B9204601F02DFFC0B901F00EFF0A2001F0EFFA6820012101F0C7FE80B9251F01F04BFF084B585501F0FFFE0134E4B2062CDFD9012042
:4022400038BD002038BD002038BD002038BD00BFF08CFF1F38B501241DE001F05FFF6820002101F0A7FED0B9204601F0FFFEC0B901F0E0FE0A2001F0C1FA6820012101F09E
:4022800099FE80B9651E01F01DFF084B585501F0D1FE0134E4B2022CDFD9012038BD002038BD002038BD002038BD00BF4C92FF1F38B504460E2900F2DA80DFE801F0122198
:4022C000303F4ED85D6C7B8998A7B6C5D400704B2B44204693F88014FFF76AFF0135ADB200E00025B5F56C7FF1D3C0E0684B2B44204693F83018FFF75BFF0135ADB200E02D
:402300000025B5F56C7FF1D3B1E0614B2B44204693F8E01BFFF74CFF0135ADB200E00025B5F56C7FF1D3A2E0594B2B44204693F8901FFFF73DFF0135ADB200E00025B5F5A8
:402340006C7FF1D393E0534B2B44204693F84812FFF72EFF0135ADB200E00025B5F56C7FF1D384E04B4B2B44204693F8F815FFF71FFF0135ADB200E00025B5F56C7FF1D35F
:4023800075E0444B2B44204693F8A819FFF710FF0135ADB200E00025B5F56C7FF1D366E03C4B2B44204693F8581DFFF701FF0135ADB200E00025B5F56C7FF1D357E0364BDD
:4023C0002B442046197CFFF7F3FE0135ADB200E00025B5F56C7FF2D349E02F4B2B44204693F8C013FFF7E4FE0135ADB200E00025B5F56C7FF1D33AE0274B2B44204693F80B
:402400007017FFF7D5FE0135ADB200E00025B5F56C7FF1D32BE0204B2B44204693F8201BFFF7C6FE0135ADB200E00025B5F56C7FF1D31CE0184B2B44204693F8D01EFFF7F8
:40244000B7FE0135ADB200E00025B5F56C7FF1D30DE0124B2B44204693F88811FFF7A8FE0135ADB200E00025B5F56C7FF1D320461B21FFF79DFE20464021FFF799FE2046F5
:402480000A21FFF795FE20460A21FFF791FE38BD588B0000509C000048AD000040BE000070B504460E46C74B1B78012B03D101200021FFF7FDFE20460A21FFF779FE0025DD
:4024C00006E02046C04B595DFFF772FE0135EDB21D2DF6D920460A21FFF76AFE002508E0B94B2B44204693F82010FFF761FE0135EDB20C2DF4D9FFF77FFE012832D1B34D1C
:402500002978C1F3011120463031FFF751FE297801F00F0120463031FFF74AFE20462F21FFF746FE6978C1F3001130312046C9B2FFF73EFE697801F00F0120463031FFF7D8
:4025400037FE20462F21FFF733FEA978090920463031FFF72DFEA97801F00F0120463031FFF726FE20460A21FFF722FE002508E0954B2B44204693F83010FFF719FE0135B4
:40258000EDB20C2DF4D9FFF765FE012831D1904D6978C1F3001130312046C9B2FFF708FE697801F00F0120463031FFF701FE20463A21FFF7FDFD2978090920463031FFF772
:4025C000F7FD297801F00F0120463031FFF7F0FD6B7813F0200F04D020467021FFF7E8FD03E020466121FFF7E3FD20466D21FFF7DFFD20460A21FFF7DBFD002506E02046A9
:40260000714B595DFFF7D4FD0135EDB21D2DF6D920460A21FFF7CCFD002508E06A4B2B44204693F84010FFF7C3FD0135EDB20C2DF4D9684DA5FB0635ED08204605F130010E
:40264000FFF7B6FD05EB85056D00751B05F130012046C9B2FFF7ACFD20460A21FFF7A8FD002508E0584B2B44204693F85010FFF79FFD0135EDB20C2DF4D920460A21FFF703
:4026800097FD554B1B78B34240F0D78209E04E4B2B44204693F86010FFF78AFD0135EDB200E000250C2DF2D920460A21FFF780FD002508E0444B2B44204693F87010FFF7B2
:4026C00077FD0135EDB20C2DF4D9012508E0424B2B44204693F8F110FFF76AFD0135EDB23D4B93F8F130AB42F1D220462021FFF75FFD2046344B93F88010FFF759FD2046CE
:402700002F21FFF755FD002506E02046334B595DFFF74EFD0135EDB2042DF6D920460A21FFF746FD002508E0274B2B44204693F88410FFF73DFD0135EDB20C2DF4D9264B8D
:4027400093F8E430302B03D10022234B83F8E420214B93F8E43043B91F4B93F8E530302B03D100221C4B83F8E520012510E01A4B2B44204693F8E310FFF71AFD184B1B7862
:402780009D4203D120462E21FFF712FD0135EDB2114B93F8E330AB42E9D220462021FFF707FD002506E020460C4B595DFFF700FD0135EDB2042DF6D920460A21FFF7F8FCD3
:4027C000002518E0F38CFF1F6C81FF1FF08CFF1F4C92FF1FCDCCCCCCC083FF1F988FFF1F4B8AFF1FC14B2B44204693F89410FFF7DFFC0135EDB20C2DF4D9BD4B93F8D6305F
:40280000302B03D10022BA4B83F8D620B84B93F8D63043B9B64B93F8D730302B03D10022B34B83F8D720012510E0B14B2B44204693F8D510FFF7BCFCAE4B1B789D4203D1A9
:4028400020462E21FFF7B4FC0135EDB2A84B93F8D530AB42E9D220462021FFF7A9FC2046A24B93F88010FFF7A3FC20460A21FFF79FFCA14B93F86130012B21D109E09B4BA1
:402880002B44204693F8A410FFF792FC0135EDB200E000250C2DF2D9012508E0964B2B44204693F8DF10FFF783FC0135EDB2924B93F8DF30AB42F1D220460A21FFF778FCF8
:4028C000002506E02046894B595DFFF771FC0135EDB21D2DF6D920460A21FFF769FC864B93F86130022B40F0A88109E07F4B2B44204693F8B410FFF75BFC0135EDB200E054
:4029000000250A2DF2D9012508E07B4B2B44204693F8EA10FFF74CFC0135EDB2764B93F8EA30AB42F1D220460A21FFF741FC002508E06E4B2B44204693F8C410FFF738FC31
:402940000135EDB20C2DF4D9012507E06A4B2B4420465978FFF72CFC0135EDB2664B5B78AB42F3D220460A21FFF722FC002508E05E4B2B44204693F8A410FFF719FC01353B
:40298000EDB20C2DF4D9012508E05B4B2B44204693F8F510FFF70CFC0135EDB2564B93F8F530AB42F1D220460A21FFF701FC002508E04E4B2B44204693F8D410FFF7F8FB2E
:4029C0000135EDB20C2DF4D9012301E00133DBB2494A92F8F5209A42F8D220460A21FFF7E7FB002508E0414B2B44204693F8E410FFF7DEFB0135EDB20C2DF4D9012301E059
:402A00000133DBB23C4A92F8F5209A42F8D220460A21FFF7CDFB002508E0344B2B44204693F8F410FFF7C4FB0135EDB20C2DF4D9012301E00133DBB22F4A92F8F5209A4281
:402A4000F8D220460A21FFF7B3FB002508E0274B2B44204693F80411FFF7AAFB0135EDB20C2DF4D9012301E00133DBB2224A92F8F5209A42F8D220460A21FFF799FB002536
:402A800008E01A4B2B44204693F81411FFF790FB0135EDB20C2DF4D9012301E00133DBB2154A92F8F5209A42F8D220460A21FFF77FFB002508E00D4B2B44204693F8241183
:402AC000FFF776FB0135EDB20C2DF4D9012301E00133DBB2084A92F8F5209A42F8D220460A21FFF765FB002511E000BF6C81FF1FC083FF1FD18CFF1FD087FF1F5F4B2B4406
:402B0000204693F83411FFF753FB0135EDB20C2DF4D9012301E00133DBB2594A92F8F5209A42F8D220460A21FFF742FB002508E0524B2B44204693F84411FFF739FB01350F
:402B4000EDB20C2DF4D9012301E00133DBB24C4A92F8F5209A42F8D220460A21FFF728FB002508E0454B2B44204693F85411FFF71FFB0135EDB20C2DF4D9012301E00133DF
:402B8000DBB23F4A92F8F5209A42F8D220460A21FFF70EFB002508E0384B2B44204693F86411FFF705FB0135EDB20C2DF4D9012301E00133DBB2324A92F8F5209A42F8D26D
:402BC00020460A21FFF7F4FA002508E02B4B2B44204693F87411FFF7EBFA0135EDB20C2DF4D920460A21FFF7E3FA20460A21FFF7DFFA002508E0214B2B44204693F8841110
:402C0000FFF7D6FA0135EDB20C2DF4D920460A21FFF7CEFA20460A21FFF7CAFA002506E02046164B595DFFF7C3FA0135EDB21D2DF6D920460A21FFF7BBFA20460A21FFF76D
:402C4000B7FA20460A21FFF7B3FA20460A21FFF7AFFA20460A21FFF7ABFA20460A21FFF7A7FA20461D21FFF7A3FA20465621FFF79FFA20463121FFF79BFA70BD6C81FF1FCD
:402C8000D087FF1F10B501281CD1002001F026FB4FF4FA7000F0C8FD012001F01FFB052000F0C2FD01F026FB034658B3412000F0BBFD01F01FFB0446F02000F0B5FDF4B90D
:402CC00001231FE0002001F01DFB4FF4FA7000F0ABFD012001F016FB052000F0A5FD01F01DFB034670B1412000F09EFD01F016FB0446F02000F098FD1CB9012302E000232B
:402D000000E00023184610BD38B50D4601282DD000245AE0002001F0E1FA0A2000F084FD45FA04F313F0010F0AD0012001F0D6FA0A2000F079FD01F0DDFA034650B94BE040
:402D4000002001F0CBFA0A2000F06EFD01F0D2FA00283ED1322000F067FD012001F0BEFA322000F061FD0134E4B200E00024072CD0D9012330E0002001F0C4FA0A2000F02C
:402D800053FD45FA04F313F0010F0AD0012001F0B9FA0A2000F048FD01F0C0FA034648B91AE0002001F0AEFA0A2000F03DFD01F0B5FA80B9322000F037FD012001F0A2FA83
:402DC000322000F031FD0134E4B2072CD3D9012302E0002300E00023184638BD38B5012819D000252C4631E0002001F077FA0E2000F01AFD012001F071FA072000F014FD37
:402E000001F078FAA0400543EDB2642000F00CFD0134E4B201E000252C46072CE4D917E0002001F06FFA0E2000F0FEFC012001F069FA072000F0F8FC01F070FAA04005432C
:402E4000EDB2642000F0F0FC0134E4B2072CE7D9284638BD4840002308E010F0010F03D0400880F08C0000E040080133072BF4D9704700BFFEE700BF08B5104E104D16E095
:402E800029686B68AC68002204E051F8040B43F8040B0432A242F8D1E868002203E0002143F8041B04328242F9D11035013E002EE6D101F0C5FBFEF729F9FEE70100000064
:402EC00058CB000008B5124A124B1A60124A136843F40073136000230AE0032B03D80F4A52F8231000E00E490E4A42F8231001332F2BF2D90C4B1A780C4B1A70094A0C4B16
:402F00001A6000F0CFF800220A4B1A6008BD00BF0004FA050CED00E014ED00E000000000752E00000080FF1FBC7600400481FF1F08ED00E00081FF1FFEE700BFF0B40022FA
:402F4000174611E050F82760F3B226F0FF0608E001EB420511F812406D78A5550132013BDBB2002BF4D10137282FEBD9F0BC7047064B1B78DBB203F00701054A11701B091D
:402F8000013213704422034B1A707047CF0100496E5800407658004008B50A46002101F080FB08BD38B53322304B1A80182330490B7002310A802F4A13704FF49C72043115
:402FC0000A8002310B7002310A802B4A13704FF40271023211800232137045F6BF5102321180023213700222244B1A7008224FF040231A70032103F500731970204B1B7862
:40300000DBB220490B70204B1A8041F25122023B1A80002419250CE01C4B1B7803F0010343EA440404F003044FF4F07000F0D4FB013D0DB1032CEFD115B90320FFF77CFF3F
:40304000134B4FF480721A8007221A70002211490A704820023108701A700222033B1A700D4A137843F03F03137038BD8040004082400040864000408E4000400043004089
:4030800008010049A146004022420040254200400440004006400040A243004008B501F0F5FA08BD70B572B63A4A137843F00403137000240CE0384963001A1952000A44DB
:4030C00023445B00C8589188FFF766FF0134E4B20A2CF0D9002410E02F49A3001A1952000A4452F8440F23445B000B445168B3F84C20FFF7D3FF0134E4B2012CECD94FF06C
:4031000090402649FFF71AFF254A137843F0020313701032137843F002031370214C237843F040032370A2F58632513A137843F0100313701C481D490A22FFF7AFFF1C48C7
:403140001C490A22FFF7AAFF1B481C490A22FFF7A5FF1B481B490A22FFF7A0FF1A481B490A22FFF79BFF1A4A137843F008031370184E01253570FFF715FF81233370164BF4
:403180001D70FFF7F5FE154821460E22FFF786FF70BD00BFE8460040DCCA0000A400004803500140A0430040C0510040C80F004810510040D40F004820510040E00F004863
:4031C00050510040EC0F004860510040F80F0048224300400048004004000840B043004008B503200C4900F04FFB0320072100F05FFB0023094A13707221094A117020211A
:403200000D3A117006215C3A117047211032117002F24F12137008BD853200006C83FF1F8F64004010B500F0DFFA04460B4A137843F0200313700D3A137843F0100313709D
:403240000822074B1A60074A137843F01003137000F096FA204600F0CBFA10BD9F64004000E100E09565004008B5054B5B7823B9FFF7B6FF0122024B5A70FFF7D3FF08BDDF
:403280006C83FF1F1E4B1B78DBB213F01E0F05D01C4803F01E0201780A43027003F0200303F0FF02002B27D0174B1978C9B2174B1B889BB21648C154164B1B7813F0FF0F60
:4032C00002D00121144B197010490B8801339BB20B800B889BB2B3F5007F02D300210B4B19800A4B198889B20C4B1B889BB2994202D10121074B1970002AC3D1704700BFB7
:40330000626400406C83FF1F4C6400407083FF1F5892FF1F7283FF1F7383FF1F6E83FF1F7222074B1A702022013B1A7006229E331A70472210331A70002253331A70704721
:403340008B64004010B500F04FFA04460A4A137843F020031370013A137843F01003137002F20112137843F01003137000F0B8FA204600F03DFA10BD9B64004008B5054BEC
:403380001B7823B9FFF7CCFF0122024B1A70FFF7D9FF08BD7683FF1F08B500200C4900F073FA0020072100F083FA0023094A13707221094A11702021053A11700621A33298
:4033C0001170472110321170B03A137008BD00BFF53400007883FF1F8964004010B500F003FA04460B4A137843F020031370053A137843F0100313700122074B1A60074A39
:40340000137843F01003137000F0C8F9204600F0EFF910BD9964004000E100E09764004008B5054B5B7823B9FFF7B6FF0122024B5A70FFF7D3FF08BD7883FF1F0122134B7B
:403440001A60134A9378D278DBB2934206D1104B1B7913F0FF0F14D0202013E00C4A9378D278DBB2934205D2094AD3789078181AC0B207E0064AD3789078181A2030C0B224
:4034800000E000200122034B1A60704780E100E07883FF1F00E100E008B500F0A5F90B4B1A7842F001021A701A7802F0FE021A7000F09EF90121064B1960064B00229A705F
:4034C000DA701A715A71044B196008BD9965004080E100E07883FF1F00E100E0034B1B7813F0040FFAD1024B1870704767640040476400401C4B1B78DBB213F01E0F05D076
:403500001A4803F01E0201780A43027003F0200303F0FF022BB3164B1978C9B2154B1B78DBB21548C154154B1B7813F0FF0F02D00121134B19700F490B780133DBB20B70A1
:403540000B78DBB21F2B02D900210A4B1970094B1B780C490978DBB28B4202D10121074B1970002AC6D17047646400407883FF1F496500407B83FF1F5894FF1F7C83FF1F66
:403580007D83FF1F7A83FF1F08B501200D4900F07BF90120072100F08BF900230A4A137072210A4A1170202102F5817211700621A2F5B372117047211032117002F5A872CF
:4035C000137008BDED3600007F83FF1F8864004010B500F009F904460C4A137843F02003137002F58172137843F0100313700222074B1A60074A137843F01003137000F096
:40360000DBF8204600F0F4F810BD00BF9864004000E100E09465004008B5054B5B7823B9FFF7B2FF0122024B5A70FFF7D1FF08BD7F83FF1F0222134B1A60134A9378D278BD
:40364000DBB2934206D1104B1B7913F0FF0F14D0202013E00C4A9378D278DBB2934205D2094AD3789078181AC0B207E0064AD3789078181A2030C0B200E000200222034BDC
:403680001A60704780E100E07F83FF1F00E100E008B500F0A9F80B4B1A7842F001021A701A7802F0FE021A7000F0A2F80221064B1960064B00229A70DA701A715A71044BD1
:4036C000196008BD9A65004080E100E07F83FF1F00E100E0034B1B7813F0040FFAD1024B1870704764650040446500401C4B1B78DBB213F01E0F05D01A4803F01E02017871
:403700000A43027003F0200303F0FF022BB3164B1978C9B2154B1B78DBB21548C154154B1B7813F0FF0F02D00121134B19700F490B780133DBB20B700B78DBB21F2B02D958
:4037400000210A4B1970094B1B780C490978DBB28B4202D10121074B1970002AC6D170476A6500407F83FF1F4A6500408283FF1F7894FF1F8383FF1F8483FF1F8183FF1F15
:40378000054A137843F0080313701032137843F008031370704700BFA2430040054A137843F0020313701032137843F002031370704700BFA2430040054A137843F001037C
:4037C00013701032137843F001031370704700BFA2430040000000000230800803D000BF01380046FCD17047EFF3108072B6704780F31088704700BF01BE704710B504467E
:4038000005E0084B1868FFF7E7FFA4F50044B4F5004FF6D8034B586800FB04F0FFF7DCFF10BD00BF4083FF1F08B5034B1B7A03FB00F0FFF7D1FF08BD4083FF1F0E4B1A7831
:4038400002F0FC0200F00300104318701A7842F080021A701A7802F07F021A7049011A7801F0600102F09F02114319701A7842F010021A70704700BF834300400122014B42
:403880001A7070478443004070B504460E46074B1D681F2802D90020FFF7AEFF04F01F04103455F8240045F8246070BD08ED00E038B504460D46072902D90020FFF79CFF6C
:4038C0001F2C02D90020FFF797FF04F01F0000F1604000F564406D01EDB2057038BD00BF054A137843F0040313701032137843F004031370704700BFA243004008B50220E8
:403900000C49FFF7C1FF02200721FFF7D1FF0023094A13707221094A117020210A3A117006215E3A11704721103211705132137008BD00BFC13A00008683FF1F8D640040BE
:4039400008B5FFF751FF0A4A137843F0200313700A3A137843F0100313700422054B1A60054A137843F010031370FFF741FF08BD9D64004000E100E09664004008B5054B1D
:403980005B7823B9FFF7BAFF0122024B5A70FFF7D7FF08BD8683FF1F0422134B1A60134A53889BB2918889B2927912F0FF0F01D18B4211D00E4AD05CC0B201339BB2FF2BA4
:4039C00000D90023094A5380937913F0FF0F06D00022064B9A7102E0064B1878C0B20422054B1A60704700BF80E100E08683FF1F9894FF1F4E64004000E100E00422164BAD
:403A00001A60164B5A8892B29B889BB29A4207D1124B9B7913F0FF0F19D04FF4807017E00E4B5A8892B29B889BB29A4205D20B4A93885088181A80B20AE0084A908883B2F5
:403A4000508880B2181A00F5807080B200E000200422034B1A60704780E100E08683FF1F00E100E008B5FFF7BFFE0B4B1A7842F001021A701A7802F0FE021A70FFF7B8FE54
:403A80000421064B1960064B00225A809A809A71DA71044B196008BD9E64004080E100E08683FF1F00E100E0034B1B7813F0040FFAD1024B18707047666400404264004024
:403AC0001D4B1B78DBB213F01E0F05D01B4803F01E0201780A43027003F0200303F0FF0233B3174B1978C9B2164B1B889BB21648C154164B1B7813F0FF0F02D00121144B11
:403B0000197010490B8801339BB20B800B889BB2FF2B02D900210B4B19800A4B198889B20C4B1B889BB2994202D10121074B1970002AC5D1704700BF636400408683FF1F88
:403B40004E6400408A83FF1F9894FF1F8C83FF1F8D83FF1F8883FF1F08B500F03BFC00F043FC08BD08B5FFF7F7FF08BD30B583B00C468DF8070000F061FCB4F5006F54D293
:403B80002509C5EB053319010C44A4B200F002FD00284CD1402021460DF10702012300F079FC044607282FD1234B1B7813F0020FFAD0214B1B7813F0020F06D01E4B1B7867
:403BC0009B0805D04FF0FF3403E04FF0FF3400E00024E4B9194B402029461A785B7800F095FC072816D1144B1B7813F0020FFAD0114B1B7813F0020F0FD00F4B1B789B0874
:403C000010D04FF0FF340DE0012809D10AE04FF0FF3407E04FF0FF3404E04FF0FF3401E04FF0FF3400F0DCFC02E0012400E00424204603B030BD00BF22470040B095FF1F3C
:403C400010B50222104B1A7081220E3B1A700F2413331C70002201331A704FF400420B4B1A6020460721FFF723FE20460849FFF70BFE1022074B1A7000F058FA00F064FACD
:403C800000F04CFA10BD00BFD649004080E100E0E53C00009895FF1F08B5FFF7A5FD064A137843F0040313701032137843F004031370FFF79DFD08BDA543004008B5074B33
:403CC0001B7823B9FFF7BCFF0122044B1A70FFF7E3FF4FF40042024B1A6008BD9083FF1F00E100E038B5A54B1C78E4B2A44B1B7813F0400F00F0398114F0010F00F01D81A6
:403D00009F4B1B78453B052B00F21481DFE813F006008200120112010600E00004F0DF0504F00A04082C42D1954B1B78DBB2452B35D1944B1B7813F0FF0F10D0924B1B6817
:403D40001B78DBB2914A137004228C4B1A7001228F4B1A7046228A4B1A702C46EDE08D4B1B7813F0020F0DD08B4A137843F00A0313706022824B1A704FF40042874B1A6088
:403D80002C46DAE0864A137843F0100313701022844B1A700422023B1A702C46CDE00022764B1A704A22764B1A702C46C5E00A2C2BD1794A137843F0A0031370754B1B78B5
:403DC00013F0020F14D06E4B1B7813F0080F01D0092300E00A23704A11780B4313706022674B1A704FF400426C4B1A602C46A4E06B4A137843F0100313701022694B1A7064
:403E00000422023B1A702C4697E00020FFF7F4FC2C4692E014F0020F37D15D4B1B78594A1278DBB2934210D2594A1378DBB256490968CB5CDBB255490B7004214F4B197019
:403E400013780133DBB2137077E0524B1B7813F0020F0CD0504A137843F00A0313706022474B1A704FF400424C4B1A6065E000F079F94B4A137843F0100313701022494B8A
:403E80001A700422023B1A7057E0424B1B7813F0020F0CD0404A137843F09A0313706022374B1A704FF400423C4B1A6045E03C4A137843F01003137010223A4B1A70042262
:403EC000023B1A70344A137843F09003137034E0354A1378DBB2354908682C490978C9B2C15413780133DBB213701378304A1278DBB2934203D21022204B1A701DE0254B61
:403F00001B7813F0020F0CD0234A137843F00903137060221A4B1A704FF400421F4B1A600BE01F4A137843F0100313700022134B1A7002E00020FFF75FFC14F0200F1CD046
:403F40000F4B1B7813F0080F01D0012300E00223114A11780B431370114A137803F0EF0313701022064B1A7038BD054B1B7813F0100F02D11022024B1A7038BDD749004005
:403F80009895FF1F9C95FF1FA895FF1FD8490040A595FF1F9D95FF1FA495FF1F80E100E0D6490040D9490040AC95FF1FA095FF1F9E95FF1F1A4B1B78DBB2102B29D1194B89
:403FC0001B7813F0080F26D14FF40042164B1A604000C0B229B140F001004922104B1A7002E045220E4B1A70104B1870012201331A700F4B1B7813F0010FFAD00C4B1B780C
:4040000003F00A030A2B08D11022054B1A700320704702207047012070470020704700BF9895FF1FD949004080E100E0D8490040D74900400A4B1B7813F0040F0ED0102387
:40404000074A13700421023A1170064A1370064B1B7813F0210FFAD00020704702207047D94900409895FF1FD7490040114B1B7813F0040F1BD0104B18700422013B1A705A
:4040800046220E4B1A700E4B1B7813F0010FFAD00B4B1B7813F0020F04D16022074B1A70002070476022054B1A70032070470220704700BFD9490040D84900409895FF1F09
:4040C000D7490040114B1B7813F0040F1BD0104B1B78DBB2492B05D14A220D4B1A7000220C4B1A700B4B1B7813F0010FFAD00A4B1B78DBB218B11021064A117004E06021EF
:40410000034A117000E0002318467047D94900409895FF1FD7490040D8490040024B187800221A70704700BFA495FF1F0022044B1A70044A137803F0FE031370704700BF14
:40414000AC95FF1FA495FF1F0022044B1A70044A137803F0FD031370704700BFA595FF1FA495FF1F704700BF084A137843F0020313701032137843F00203137002F6593201
:40418000137843F001031370704700BFA3430040084A137803F0FE031370A2F66932137803F0FD0313701032137803F0FD031370704700BF0C4F0040014B1870704700BFF8
:4041C0000F4F0040014B1878704700BF0F4F0040014B1880704700BF104F0040014B1880704700BF124F004008B5164A137803F0010313700232137803F0FC031370124B8A
:404200001A7802F0CF021A701A7842F030021A701A7802F0F0021A701A7842F00F021A700A4A137843F00103137040F21F30FFF7CFFF40F21F30FFF7D1FF0820FFF7BCFFC2
:4042400008BD00BF0C4F0040174F00400D4F004008B5054B1B7823B9FFF7C6FF0122024B1A70FFF781FF08BD9183FF1F024B1B68C3F88800704700BF08ED00E04001C0B22E
:40428000014B1870704700BF12E400E04FF48022014B1A60704700BF00E100E04FF48022014B1A60704700BF80E100E010B50446FFF7F4FF2046FFF7D9FF0720FFF7DEFF74
:4042C000FFF7E4FF10BD00BF08B5FFF7E7FF0248FFF7CCFF08BD00BF752E0000044A137803F0BF03800100F0400018431070704750510040024B1878C0F38010704700BF46
:4043000051510040044A137803F07F03C001C0B203431370704700BF50510040014B1878C00970475151004010B500F087F800F031F9D0B900F070F90446072812D102E04E
:404340000120FFF771FA0A4B1B7813F0020FF7D0074B1B7813F0020F04D0054B1B789B0800D1002400F03CF900E00424204610BD2247004010B500F061F800F00BF910BBDA
:40438000012000F0E9F8072818D11048022100F067F802280AD102E00120FFF745FA0C4B1B7813F0020FF7D0002409E0084B1B7813F0020FE9D04FF0FF3401E04FF0FF34A2
:4043C00000F00EF900E00424204610BDB095FF1F2247004008B5FFF7A7FF034610B9FFF7C9FF0346184608BD08B5FFF7FDF90F4A137843F0080313701032137843F0080391
:404400001370C8220A4B1A700A4A137843F0100313701032137843F010031370064B1B7813F0200FFAD0FFF7E3F908BDA043004001470040AC4300400047004008B5FFF767
:40444000D3F9064A137843F0080313701032137843F008031370FFF7CBF908BDA043004070B506460D4600240CE00120FFF7DCF9064B1B7813F0010FF7D0054B1B783355BB
:404480000134E4B2AC42F3D3204670BD224700402047004030B43E2801D81F2B03D93F2827D90F2B27D8174C247814F0020F24D0154CB6252570D425257001252570023459
:4044C000247814F0020F1AD10F4C2070C1F300202070C9B22170591EC9B22170002104E0545C094804700131C9B29942F8D3072006E0012004E0012002E0042000E0092033
:4045000030BC7047224700402047004030B4104C247814F0020F15D00E4CB6252570D8252570052525700234247814F0020F0BD1084C2070080A2070C9B22170227023701D
:40454000072002E0042000E0092030BC704700BF22470040204700400C4B1B7813F0020F0FD00B4BB6221A70E1221A700E221A7002331B7813F0020F05D1054B18700720C6
:404580007047042070470920704700BF224700402047004010B5FFF727F90F4B1B78A3B901220D4B1A700D4B1B6813F0010F0ED00A4A136823F00103136000BF00BF00BFEF
:4045C0000122054B5A60002402E0042400E00024FFF70EF9204610BD9483FF1F0400084008B5FFF701F90A4B00221A705B68012B0AD1084A136843F00103136000BF00BF3E
:4046000000BF0022024B5A60FFF7F2F808BD00BF9483FF1F04000840074B1B7813F0020F08D0064BB6221A70E0221A700D221A7007207047042070472247004020470040DB
:404640000E4B70B51E460E4C0025E41AA410A54204D056F8253098470135F8E708F06AFA084B094C1E46E41AA4100025A54204D056F8253098470135F8E770BD40CB00000C
:4046800040CB000040CB000048CB000010B5431E0A44914204D011F8014B03F8014FF8E710BD03460244934202D003F8011BFAE77047000000000000532F442F4475706CFB
:4046C000612000005365787475706C61000000004F637475706C610000000000352D352D3420202020200000362D362D3420202020200000372D372D35202020202000003C
:40470000382D372D35202020202000005465737420646520496D70726573696F6E000000496E696369616E646F000000517561647275706C61000000AA700000CC33C33C27
:40474000AA980000013922C5030000FFFF00CC33C33C0000AA5C0020002000300030CC33C33C0000AA980000013923C5020000FFFF00CC33C33C00001D4C33001B2A00AA46
:4047800000000000000000000000000000000000000000000000000000000000000000000000000000000000000000000000000000000000000000000000000000000000F9
:4047C000000103070F1F1F1E3E3C3C3C3C3C3C3C3C3C3C3C3C3C3C3C3C3C3C3F3F3F3F3F000000000000000000000000000000000000000000000000000000000000000092
:4048000000000000000000000000000000000000000000000000000000000000000000000000000000000000000000000000000000000000011D4C33001B2A00AA000000EC
:4048400000000000000000000000000000000000000000000000000000000000000000000000000000001F1F1F1F1F1F1F1F1F1F1F1F1F1F0F0701000000000000FFFFFF72
:40488000FFFF80000000000000000000000000000000000000000000FFFFFFFFFC000000000000000000000000000000000000000000000000000000000000000000000082
:4048C00000000000000000000000000000000000000000000000000000000000000000000000000000000000000000000000000000011D4C33001B2A00AA0000000000002C
:4049000000000000000000000000000000000000000000000000000000000000000000000000C0E0F0F0F8F8F8F8F8F8F8F8F8F8F8F8F0000000000000FEFEFEFEFE0E0E55
:404940000E0E0E0E0E0E0E0E0E0E0E0E0E0E0E0E1E3E7CFCF8F0E080000000000000000000000000000000000000000000000000000000000000000000000000000000003B
:4049800000000000000000000000000000000000000000000000000000000000000000000000000000000000000000000000011D4C33001B2A00AA0000000000000000006B
:4049C00000000000000000000000000000000000000000000000000000000000000000000000010307070707070707070707070707070707070707000000000000003F3FB0
:404A00003F38383838383838383838383838381C1E1F0F030000000000000000000000000000000000000000000000000000000000000000000000000000000000000000BC
:404A400000000000000000000000000000000000000000000000000000000000000000000000000000000000000000011D4C33001B2A00AA000000000000000000000000AA
:404A8000000000000000000000000000000000000000000000000000000000007FFFFFFFFFFFFFFFFFFFFFFFFFFFFFFFFFFFFFFFFFFFFC00000000000000F0FCFE1F0F0771
:404AC00003030303030303030303030303FFFFFFFF000000000000000000000000000000000000000000000000000000000000000000000000000000000000000000000093
:404B000000000000000000000000000000000000000000000000000000000000000000000000000000000000011D4C33001B2A00AA000000000000000000000000000000E9
:404B40000000000000000000000000000000000000000000000000000000E0E0E0E0E0E0E0E0E0E0E0E0E0E0E0E0E0E0E0C080000000000000000000000000000000808055
:404B800080808080808080808080808080800000000000000000000000000000000000000000000000000000000000000000000000000000000000000000000000000000F5
:404BC00000000000000000000000000000000000000000000000000000000000000000000000000000011D4C33001B2A00AA00000000000000000000000000000000000029
:404C00000000000F0F0F0C0C0C0C0C0C0C0C0F0F0F06000F0F0F00000103070E0E0C0C0C0C0C0C0C0F0F0F000001070F0F0E0C0C0E0F0F0E0C0C0C0F0F0F00000103070EEF
:404C40000C0C0C0C0C0C0C0C0F0F0F000008080C0E07030101010101070F0E0C08000000000000000000000000000000000000000000000000000000000000000000000036
:404C800000000000000000000000000000000000000000000000000000000000000000000000011D4C33001B2A00AA00000000000000000000000000000000000000000068
:404CC000FCFCFC1C1CDCDCDCDCDCCCFCFCFC3800FCFCFC0000FCFCFC1C1C1C1C1C1C1C1C38F8F0E00C1CFCF8E00000000000FCFC00000000FCFCFC0000FCFCFC6060606020
:404D00006060606060FCFCFC00000C1C3C78F0E0C0C0C0E0F0F8BC1C0C04000000000000000000000000000000000000000000000000000000000000000000000000000003
:404D400000000000000000000000000000000000000000000000000000000000000000011D4C33001B2A00AA000000000000000000000000000000000000000000000000A7
:404D800000000000000000000000000000000000000000000000000000000000000000000000000101010303060606040C08080000000000000000000001010101010101B1
:404DC00001010100000000000000000000000000000000000000000000000000000000000000000000000000000000000000000000000000000000000000000000000000B0
:404E000000000000000000000000000000000000000000000000000000000000011D4C33001B2A00AA000000000000000000000000000000000000000000013F3F1F1F1F0A
:404E40001F1F3F3F7F7F3F3F3F1F1F1F1F1F0F0F07070707070F0F1F1F3E3D7B73E3E7C7C78E8E8E1C1818393931716363636767C7C7C7C68686868E8E8E8C8C8C8C8C8C22
:404E80008C0C040406060606060606030303030101010101000000000000000000000000000000000000000000000000000000000000000000000000000000000000000017
:404EC00000000000000000000000000000000000000000000000000000011D4C33001B2A00AA000000000000000000000000000000030F1F3F7FFFFFFFFFFFFFFEFEFEFF44
:404F0000FFFFFFFFFFFFFFFFFFFFFFFFFFFFFFFFFFFFFFFFFFFFFFFFFFCFDF9FBE3E7E7C78F8F8F0E0E0E0C0C08080808000000000000000000000000000000000000000CF
:404F400000000000000000000000000080808080808040000000000000000000000000000000000000000000000000000000000000000000000000000000000000000000F1
:404F800000000000000000000000000000000000000000000000011D4C33001B2A00AA0000000000000000000000000000E0E0E0E0E0C08080808000000000F0F8FFFFFF60
:404FC000FFFFFFFFFFFFFFFFFFFFFFFFFFFEFCF8F8F0F0E0C080808000000000000000000000000000000000000000000000000000000000000000000000000000000000D4
:405000000000000000000000000000000000000000000000000000000000000000000000000000000000000000000000000000000000000000000000000000000000000070
:4050400000000000000000000000000000000000000000011D4C33001B2A00AA0000000000000000000000000000000000000000000000000000000000009CFEFFFFFFFF0E
:40508000FEFCF8F0E0E0C080000F1F1F18181818181818181C1C1C1E1F1F1F1F1F1C18181818181818181C1C1E1E1F1F1F1F1F1C1818181C1F1F1F1F1F1F1E1E1C1C18182B
:4050C000181818181C1E1E1F1F1F1F0F000000000000000000000000000000000000000000000000000000000000000000000000000000000000000000000000000000006D
:4051000000000000000000000000000000000000011D4C33001B2A00AA000000000000000000000000000000000000000000000000000000000000000080C0800000000023
:40514000000000000000FFFFFF0000000070787878200000060EFFFFFFFF0E000000007C7C7C3C00000101CFFFFFFFFF0000000000FFFFFFF0800000001F3F7F7F7F7F7F59
:405180003F1F0F000080E0FFFF0000000000000000000000000000000000000000000000000000000000000000000000000000000000000000000000000000000000000024
:4051C00000000000000000000000000000011D4C33001B2A00AA00000000000000000000000000000000000000000000000000000000000000000000000000000000000023
:40520000000000FFFFFF00000000F0F8F8F0F16101010387FFFFFF01000000017F3F070301C0F0F8FCFFFFFFFF0000000001FFFFFF7F0F070301C1E0F0F0F8F0F0F0E18119
:4052400003070F1FFFFF00000000000000000000000000000000000000000000000000000000000000000000000000000000000000000000000000000000000000000000F8
:4052800000000000000000000000011D4C33001B2A00AA00000000000000000000000000000000000000000000000000000000000000000000000000000000000000000062
:4052C00080808080808080808080808080808080808080808080808080808080808080808080808080808080808080808080808080808080808080808080808080808080AE
:4053000080808000000000000000000000000000000000000000000000000000000000000000000000000000000000000000000000000000000000000000000000000000ED
:4053400000000000000000011D4C33001B2A00AA000000000000000000000000000000000000000000000000000000000000000000000000000000000000000000000000A1
:4053800000000000000000000000000000000001010101010101010101010101000000000000000000000000000000000000000000000000000000000000000000000000E0
:4053C00000000000000000000000000000000000000000000000000000000000000000000000000000000000000000000000000000000000000000000000000000000000AD
:4054000000000000011D4C33001B2A00AA000000000000000000000000000000000000000000000000000000000000000000000000000000000000000000000000000103DC
:40544000070F1F1F3E3E7C7878F8F0F0E0E0E0E0E0E0E0E0E0E0E0E0E0F0F0F8787C3C3F3F1F1F1F1F1F0F0F03000000000000000000000000000000000000000000000076
:4054800000000000000000000000000000000000000000000000000000000000000000000000000000000000000000000000000000000000000000000000000000000000EC
:4054C00000011D4C33001B2A00AA0000000000000000000000000000000000000000000000000000000000000000000000000000000000000000030F3F7FFEFCF0E0C08046
:405500000000000000000000000000000000000000000000000000000000000080E0F0F8F8F8F8FEFFFF1F030100000000000000000000000000000000000000000000011B
:405540000303000000000000000000000000000000000000000000000000000000000000000000000000000000000000000000000000000000000000000000000000011D07
:405580004C33001B2A00AA00000000000000000000000000000000000107070F0F1E1E1E0F0F0F070003070F0F0F0E0F0F0F0F070001078F8F8F9E1E1E0F0F07070100037B
:4055C000070F0F0F0E0E0F0F0F070003070F0F0F0E0E0E0F0F070701070F0F0F1E1E1E1E1E1E9E8E800D0F1F0F0000000000000F1F1F0F03070F0F0F0E1E1E1EFFFFFF00C3
:405600000000000000000000000000000000000000000000000000000000000000000000000000000000000000000000000000000000000000000000000000011D4C3300CD
:405640001B2A00AA0000000000000000000000000000000000F0FCFEFF0F0F070F0F1F1E0EF0FCFEFFBF7FFFF7EFDF9F1E0CFFFFFFC00000000000C0FFFFFFF0FCFEFF9F0E
:405680000F070F0F1F9F1E00F8FEFF9F0F0F070F1FFFFEFCF0C0E7E7F7F7F7F7F7F7FFFF7F3EE0FCFEFF1F0F0F070F1FFFFEFCF0F8FEFEFF0F0F070F1FFFFEFC0000000084
:4056C0000000000000000000000000000000000000000000000000000000000000000000000000000000000000000000000000000000000000000000011D4C33001B2A00C8
:40570000AA00000000000000000000000000000000000000000000000000000000000000000000000000000000000000809E1F1F1F0701000080800000000000000000003C
:405740000000000000000000000080808000000000000000808080808081071F1F1F1C00000000000080800000000000000000000000000000000000000000000000000028
:405780000000000000000000000000000000000000000000000000000000000000000000000000000000000000000000000000000000000000011D4C33001B2A00AA00005D
:4057C0000000000000000000000000000000000000000000000000000000000000000000000000000000000000000080C0E0F8FCFE7E3F1F0F07030301010100000000009C
:4058000000000000000000000000000101030303070F1F3F7EFCF8F0E0C0800000000000000000000000000000000000000000000000000000000000000000000000000067
:405840000000000000000000000000000000000000000000000000000000000000000000000000000000000000000000000000000000011D4C33001B2A00AA00000000009C
:405880000000000000000000000000000000000000000000000000000000000000000000000000000000000000000000000000008080C0C0E0E0F0F0F0F8787878787C7C08
:4058C0007C7C787878F8F8F0F0F0E0E0C0C0808000000000000000000000000000000000000000000000000000000000000000000000000000000000000000000000000048
:405900000000000000000000000000000000000000000000000000000000000000000000000000000000000000000000000000011D4C33001B2A00AA0000000000000000DB
:4059400000000000000000000000000000000000000000000000000000000000000000000000000000000000000000000000000000000000000103070F1F1F3F3F3F3F3F94
:405980003F1F1F0F0703010100000000000000000000000000000000000000000000000000000000000000000000000000000000000000000000000000000000000000004F
:4059C0000000000000000000000000000000000000000000000000000000000000000000000000000000000000000000011D4C33001B2A00AA00000000000000000000001B
:405A000000000000000000000000000000000000000000000000000000000000000000000000000000000000010307070F1F1F3F7FFFFFFFFFFFFFFFFFFFFFFFFFFFFFFF58
:405A4000FFFFFFFFFFFF7F3F1F0F07030100000000000000000000000000000000000000000000000000000000000000000000000000000000000000000000000000000035
:405A80000000000000000000000000000000000000000000000000000000000000000000000000000000000000011D4C33001B2A00AA00000000000000000000000000005A
:405AC0000000000000000000000000000000000000000000000000000000000000000103070F3F7FFFFFFFFFFFFFFCF0E0808080C0C0E0E0F0F0F8F8FCFCFEFEFEFFFFFF89
:405B0000FFFFFFFFFFFFFFFFFFFFFF3F1F0F030000000000000000000000000000000000000000000000000000000000000000000000000000000000000000000000000000
:405B40000000000000000000000000000000000000000000000000000000000000000000000000000000011D4C33001B2A00AA000000000000000000000000000000000099
:405B8000000000000000000000000000000000000000000000000001071F3FFFFFFFFFFFFFFFFFFFFCE00000000001070F1F1F1F3F3F3F3F3F3F3F1F1F1F1F9F8FCCE0F039
:405BC000F0F8FCFEFFFFFFFFFFFFFFFFFF7F0F030000000000000000000000000000000000000000000000000000000000000000000000000000000000000000000000003B
:405C00000000000000000000000000000000000000000000000000000000000000000000000000011D4C33001B2A00AA0000000000000000000000000000000000000000D8
:405C40000000000000000000000000000000000000031F7FFFFFFFFFFFFFFFFFFFFFFFFFFF000000071F7FFFFFFFFFFFFFFFFFDF9F8F8F8F8F8F8F8F00000000000000008C
:405C8000000080C0E0F0FCFFFFFFFFFFFFFF0F00000000000000000000000000000000000000000000000000000000000000000000000000000000000000000000000000D0
:405CC0000000000000000000000000000000000000000000000000000000000000000000011D4C33001B2A00AA000000000000000000000000000000000000000000000018
:405D0000000000000000000000000000003FFFFFFFFFFFFFFFFFFFFFFFFFFFFFFFFF000000F0FCFEFFFFFFFFFFFFDF8F8F8F8F8F8F8787830000000000010103070F0F1F3D
:405D40003F7F7FFFFFFFFFFFFFFFFFFF3F070000000000000000000000000000000000000000000000000000000000000000000000000000000000000000000000000000A9
:405D80000000000000000000000000000000000000000000000000000000000000011D4C33001B2A00AA000000000000000000000000000000000000000000000000000057
:405DC00000000000000000000000FCFEFEFEFFFFFFFFFFFFFFFFFFFFFFFFFF0F03030303030383838387C7C7C7C7CFCFCFDFDF9F3F3F7F7FFFFFFFFFFFFFFFFFFFFFFFFF33
:405E0000FFFFFFFFFFFFFFFFFFFEFC000000000000000000000000000000000000000000000000000000000000000000000000000000000000000000000000000000000071
:405E40000000000000000000000000000000000000000000000000000000011D4C33001B2A00AA000000000000000000000000000000000000000000000000000000000096
:405E8000000000000000000000000000008080C0C0E0E0F0F0F0F8F8F8FCFCFCFCFCFCFEFEFEFEFEFEFEFEFEFEFEFEFEFEFEFCFCFCFCFCFCFCFCF8F8F8F8F0F0F0E0E0E0F0
:405EC000C0C0C08080000000000000000000000000000000000000000000000000000000000000000000000000000000000000000000000000000000000000000000000062
:405F00000000000000000000000000000000000000000000000000011D4C33001B2A00AA0000000000000000000000000000000000000000000000000000000000000000D5
:405F400000000000000000000103030707070F0F1F1F1F1F1F3F3F3F7F7F7F7F7F7F7F7F7F7F7F7F7F7F7F7F7F7F7F7F7F7F7F7F3F3F3F1F1F1F1F0F0F0F0707030301012B
:405F800000000000000000000000000000000000000000000000000000000000000000000000000000000000000000000000000000000000000000000000000000000000E1
:405FC0000000000000000000000000000000000000000000011D4C33001B2A00AA00000000000000000000000000000000000000000000000000000000000103070F0F1FCD
:406000003F7F7FFFFFFFFEFEFCFCF8F8F0F0E0E0E0C0C0C080808080808080808080808080808080808080808080808080C0C0C0E0E0E0E0F0F8F8F8FCFEFEFFFFFFFF7FF7
:406040007F3F1F0F07030100000000000000000000000000000000000000000000000000000000000000000000000000000000000000000000000000000000000000000029
:406080000000000000000000000000000000000000011D4C33001B2A00AA000000000000000000000000000000000000000000000000010F1F3F7FFFFFFFFFFEFCF8F0E0A9
:4060C000C0870F1F1F3F7F7F7F7E7E7E3E3F1F0000000000010101010101000000000000000001010101010101010000000000000000010101010101010080C0E0F0F8FC21
:40610000FFFFFFFFFF7F3F0F030000000000000000000000000000000000000000000000000000000000000000000000000000000000000000000000000000000000000094
:406140000000000000000000000000000000011D4C33001B2A00AA00000000000000000000000000000000000000000000003FFFFFFFFFFFFFFFE0C0000000000000F0F9D2
:40618000FFFFFFFFFF1F1F0F0F0F0F00001F7FFFFFFFFFFBF3F9F9F9F8F800003F7FFFFFFFFFFBF3F9F9F9F800000F3F7FFFFFFFF8F0F0F8FFFFFFFF3F1F00000000C0F8D0
:4061C000FFFFFFFFFFFFFF3F000000000000000000000000000000000000000000000000000000000000000000000000000000000000000000000000000000000000000067
:406200000000000000000000000000011D4C33001B2A00AA0000000000000000000000000000000000000000000000FEFFFFFFFFFFFFFF0701000000000078FFFFFFFFFF60
:40624000FFCF87878787878707000F8FC7C7E7E7E7FFFFFFFFFF7F1C000F87C7E7E7E7F7FFFFFFFFFF7E00F8FEFFFFFFFF07070707FFFFFFFFFFFC00000000031FFFFFFF02
:40628000FFFFFFFFFC0000000000000000000000000000000000000000000000000000000000000000000000000000000000000000000000000000000000000000000000E6
:4062C0000000000000000000011D4C33001B2A00AA00000000000000000000000000000000000000000000000080F0F8FEFFFFFFFFFF7F3F0F0703010180C0C0C0E0E0E078
:40630000E0E0E0C0C0C00080C0C0E0E0E0E0E0E0C0C080000000C0C0C0E0E0E0E0E0E0C08080000000008080C0E0E0E0E0E0E0C0C08103070F1F3F7FFFFFFFFFFEFCF8E038
:40634000800000000000000000000000000000000000000000000000000000000000000000000000000000000000000000000000000000000000000000000000000000009D
:406380000000000000011D4C33001B2A00AA000000000000000000000000000000000000000000000000000000000080C0E0F0F8F8FCFEFFFFFFFF7F3F3F1F1F0F0F0707F4
:4063C000070703030101010101010000000000000000000000000000000001010101010303030707070F0F0F1F1F3F7F7FFFFFFFFFFEFCF8F0F0E08000000000000000008A
:40640000000000000000000000000000000000000000000000000000000000000000000000000000000000000000000000000000000000000000000000000000000000005C
:406440000000011D4C33001B2A00AA0000000000000000000000000000000000000000000000000000000000000000000000000000808080C0E0E0E0F0F0F8F8F8F8FCFCF8
:40648000FCFEFEFEFEFEFEFEFEFEFFFFFFFFFFFFFFFFFFFFFEFEFEFEFEFEFEFEFEFCFCFCF8F8F8F0F0F0E0E0C0C08080000000000000000000000000000000000000000022
:4064C000000000000000000000000000000000000000000000000000000000000000000000000000000000000000000000000000000000000000000000000000000000019B
:406500001D4C33001B2A00AA00000000000000000000000000000000000000000000000000000000000000000000000000000000000000000000000000000000000F1F3F63
:406540003F3F3F3F3F3E3F3F3C383F3F38303F3E3C383F3F3F3F3F3F3F3F3F1F0F000000000000000000000000000000000000000000000000000000000000000000000074
:40658000000000000000000000000000000000000000000000000000000000000000000000000000000000000000000000000000000000000000000000000000011D4C333E
:4065C000001B2A00AA0000000000000000000000000000000000000000000000000000000000000000000000000000000000000000000000000000000000FFFFFFFEFEC6ED
:40660000E2F01304C8101020606060201010C884933062E6E6EEFFFFFFFF0000000000000000000000000000000000000000000000000000000000000000000000000000E2
:40664000000000000000000000000000000000000000000000000000000000000000000000000000000000000000000000000000000000000000000000011D4C33001B2A38
:4066800000AA0000000000000000000000000000000000000000000000000000000000000000000000000000000000000000000000000000000000FFFFFFEF676604E0F89B
:4066C00004020101000000000001010204F8E1094CCEEEEFFFFFFF0000000000000000000000000000000000000000000000000000000000000000000000000000000000B4
:40670000000000000000000000000000000000000000000000000000000000000000000000000000000000000000000000000000000000000000011D4C33001B2A00AA00CD
:4067400000000000000000000000000000000000000000000000000000000000000000000000000000000000000000000000000000000000FFFFFFFF7F7F7FEF0F1F3F0341
:40678000078FDFC3C19F0F037F3F1FCFFFFFFFFFFFFFFFFF00000000000000000000000000000000000000000000000000000000000000000000000000000000000000008B
:4067C000000000000000000000000000000000000000000000000000000000000000000000000000000000000000000000000000000000011D4C33001B2A00AA000000000D
:40680000000000000000000000000000000000000000000000000000000000000000000000000000000000000000000000000000000080C0C0C0C0C0C0C0C0C0C0C0C0C018
:40684000C0C0C0C0C0C0C0C0C0C0C0C0C0C0C08000000000000000000000000000000000000000000000000000000000000000000000000000000000000000000000000058
:40688000000000000000000000000000000000000000000000000000000000000000000000000000000000000000000000000000011D4C33001B2A00AA000000000000004C
:4068C000000000000000000000000000000000000000000000000000000000013FFFFFFC7F1F1FFFFFF8C103071434373F3F1C003137FFFC703003DFDFD8070F1F38313F4E
:406900003F1F001F3F3F18393F3F1C0103071434373F3F1C000FFFFFE000000000000000000000000000000000000000000000000000000000000000000000000000000060
:40694000000000000000000000000000000000000000000000000000000000000000000000000000000000000000000000011D4C33001B2A00AA000000000000000000008B
:40698000000000000000000000000000000000000000000000000000C0C0C0000080C0C0C1800080C0C0C08080C0C1000080C0C0C000C0C0C0000080C0C0C0C0C081004014
:4069C000C0C00000C0C0C00080C0C0C08080C0C000C0C0C0000000000000000000000000000000000000000100000000000000000000000000000000000000000000000056
:406A0000000000000000000000000000000000000000000000000000000000000000000000000000000000000000011D4C33001B2A00AA00000000000000000000000000CA
:406A40000000000000000000000000000000000000000000000000000000000000F80800786800007E7000F80070781800B800685800B800782040000038F8007868000038
:406A80007818600078780070187800685800006858007868007820400078186000B8007820400000E800000000000000000000000000000000000000000000000000000056
:406AC000000000000000000000000000000000000000000000000000000000000000000000000000000000011D4C33001B2A00AA000000000000000000000000000000000A
:406B00000000000000000000000000000000000000000000000000000000000000000000000000000000000000000000000000000000000101010303030303030303030136
:406B40000101000000000000000000000000000000000000000000000000000000000000000000000000000000000000000000000000000000000000000000000000000013
:406B8000000000000000000000000000000000000000000000000000000000000000000000000000011D4C33001B2A00AA0000000000000000000000000000000000000049
:406BC000000000000000000000000000000000000000000000000000000000000000000000000000000103070F1F3F7F7FFFFFFFDBFBFBFFBFBDBFDFDFDFCFEFE7F3F9FCED
:406C0000FE7F3F1F0703000000000000000000000000000000000000000000000000000000000000000000000000000000000000000000000000000000000000000000006F
:406C4000000000000000000000000000000000000000000000000000000000000000000000011D4C33001B2A00AA0000000000000000000000000000000000000000000088
:406C800000000000000000000000000000000000000000000000010303070707000000001E7CFCF8F0E0C0C08080808000808080C0C0E0F0F8FCFCCEE0F8FCFC7C00C0F848
:406CC000FCFCFC00000000000000000000000000000000000001010307070700070F0F0F1F1F00000000000000000000000000000000000000000000000000000000000014
:406D0000000000000000000000000000000000000000000000000000000000000000011D4C33001B2A00AA00000000000000000000000000000000011F7F7F7F7F7F7E7C32
:406D4000FCFFFFFFFFFF7F3F7C7CFFFFFFFFFF7F1F073FFFFFFFFFFF0FFFFFFFFF7F7F7C7CFCFFFFFFFF7F3F0F1F1F7F7FFFFFF7E7E7F7FF7F3F0F7FFFFFFFFF7F7C7CF81A
:406D8000FFFF1F3F7F7FFEFCF8F8FDFF7F7F3F1F033FFFFFFFFFFFF17FFFFFFFFFFFF800000000000000000000000000000000000000000000000000000000000000000097
:406DC000000000000000000000000000000000000000000000000000000000011D4C33001B2A00AA00000000000000000000000000000000F8FCFCFCFCF8F000003CFCFC03
:406E0000FCFCFCF800000CFCFCF8F8F8F0FCFCFCF8F8F0E0F8F8FCFCFCF8F00000007CFCFCF8F8F0E0E0F0F8F8FCFCFCFCFC7C78786038F8F8F8F8F8F800000000E0F0F88E
:406E4000F8FCFCFC7C7CFCFCF8F0F0E09CFCFCF8F8F8E088F8F8F8F8F8F0C00000000000000000000000000000000000000000000000000000000000000000000000000012
:406E8000000000000000000000000000000000000000000000000000010000001D4C33001B2A00AA0000000000000000000000000000000000030303030303030303030325
:406EC000000000000000000000000303030303030303030300000000000000000000000000000000000000000000000000000000030303030303030000000000000000005F
:406F00000000000000000000000003030303030303000000030303030303030000000000000000000000000000000000000000000000000000000000000000000000000027
:406F4000000000000000000000000000000000000000000000000000011D4C33001B2A00AA0000000000000000000000000000000000FFFFFFFFFFFFFFFFFFFFFFFF07008A
:406F800000000000000FFFFFFFFFFFFFFFFFFFFFFF00000000000000000101010303030303030101010000000000000000FFFFFFFFFFFFFF000101010303030301010100AA
:406FC00000000000000000FBFBFBFBFBFBFB000000FFFFFFFFFFFFFF00000000000000000000000000000000000000000000000000000000000000000000000000000000BB
:40700000000000000000000000000000000000000000000000011D4C33001B2A00AA0000000000000000000000000000000000FFFFFFFFFFFFFFE0FFFFFFFFFFFF0F0303DC
:407040001FFFFFFFFFFFFCFFFFFFFFFFFFFF0000000F1F3F7FFFFFFFFEFCF8F8F8F8FCFCFFFFFF7F7F1F0F030000FFFFFFFFFFFFFFFFFFFEFCF8F8F8FCFCFEFFFFFF7F3F90
:407080001F070000FFFFFFFFFFFFFF000000FFFFFFFFFFFFFF00000000000000000000000000000000000000000000000000000000000000000000000000000000000000B8
:4070C000000000000000000000000000000000000000011D4C33001B2A00AA0000000000000000000000000000000000FFFFFFFFFFFFFF0000C0FCFFFFFFFFFFFFFFFFFF58
:40710000FEF00000FFFFFFFFFFFFFF000000FFFFFFFFFFFF9F070301010101030307FFFFFFFFFFFFFC0000FFFFFFFFFFFFFFFF0F0301010101010307FFFFFFFFFFFFFEF0BD
:4071400000FFFFFFFFFFFFFF000000FFFFFFFFFFFFFF000000000000000000000000000000000000000000000000000000000000000000000000000000000000000000001D
:40718000000000000000000000000000000000011D4C33001B2A00AA0000000000000000000000000000000000F8F8F8F8F8F8F80000000080F8F8F8F8F8F8F8E000000053
:4071C00000F8F8F8F8F8F8F80000000080C0E0F0F8F8F8FCFCFCFCFCFCF8F8F8F0E0E0C000000000F8F8F8F8F8F8F8F8F8F8FCFCFCFCFCFCFCF8F8F0F0E080000000F8F8DB
:40720000F8F8F8F8F8000000F8F8F8F8F8F8F800000000000000000000000000000000000000000000000000000000000000000000000000000000000000000000000000AE
