:4000000000800020110000004D6900004D69000008B5044B1A6803F53F5302331A6006F097FC00BFFA46004010B5054C237833B9044B13B10448AFF300800123237010BD72
:40004000D083FF1F0000000044860000084B10B51BB108480849AFF300800848036803B910BD074B002BFBD0BDE81040184700BF0000000044860000D483FF1F0881FF1F19
:400080000000000008B507F069FD024A13780133137008BD258EFF1F08B507F01BFA07F025F906F089FE06F07FFF06F033FE07F0D1FA07F089FE08F043F807F0DBFF08BD03
:4000C00010B51C4B1878002107F008FA1A4B1878012107F003FA194B1878022107F0FEF9174B1878032107F0F9F9164B1878042107F0F4F9144B1878052107F0EFF9134BCF
:400100001878062107F0EAF9114C20780C2107F0E5F994F808010D2107F0E0F994F810020E2107F0DBF994F818030F2107F0D6F910BD00BF678AFF1F3493FF1FD08DFF1F74
:40014000688AFF1F3293FF1F4893FF1F238EFF1F9C84FF1F10B5022007F02AFA234B1870032007F025FA224B1870042007F020FA204B1870052007F01BFA1F4B18700620EF
:4001800007F016FA1D4B1870072007F011FA1C4B1870082007F00CFA1A4B1870092007F007FA194B18700A2007F002FA174C20700B2007F0FDF960700423154A1370154AB1
:4001C00013700C2007F0F4F9134C20700D2007F0EFF984F808010E2007F0EAF984F810020F2007F0E5F984F8180310BDD08DFF1F688AFF1F3293FF1F4893FF1F238EFF1FB8
:400200000C8EFF1F4993FF1F248EFF1F208EFF1F0C81FF1F248AFF1F9C84FF1F10B59CB0994A19AB07CA03C31A80984B16AC93E8070003C42280964A13AC07CA03C4228069
:4002400010AC03F10C0207CA03C4227000228DF849200DAC03F1180103C984E80300ADF83C200AAC03F1240207CA03C4228007AC03F1300207CA03C4228004AC03F13C0285
:4002800007CA03C4228001AC483393E8070003C42280804B1B78022B7AD10120014603F075FE012019A9002203F02AFF4FF4967006F05CFF784B1B785BB90133DBB2774AA6
:4002C00082F8023182F80A32012016A9002203F017FF714B1B78012B0BD10133DBB26F4A82F8023182F80A32012013A9002203F007FF694B1B78022B0BD10133DBB2674AA2
:4003000082F8023182F80A32012010A9002203F0F7FE614B1B78032B0BD10133DBB25F4A82F8023182F80A3201200DA9002203F0E7FE5B4B1B783BB901200AA9162203F063
:40034000DFFE0522574B1A70554B1B78012B07D1012007A9162203F0D3FE0622514B1A704F4B1B78022B07D1012004A9162203F0C7FE07224B4B1A70494B1B78032B07D195
:40038000012001A9162203F0BBFE0822454B1A70404B1B78042B6DD101202E2103F0F6FD012019A9002203F0ABFE4FF4967006F0DDFE394B1B787BB90133DBB2374A82F8A7
:4003C000023182F80A3282F8123382F81A34012016A9002203F094FE2F4B1B78012B0FD10133DBB22D4A82F8023182F80A3282F8123382F81A34012013A9002203F080FE5B
:40040000254B1B78022B0FD10133DBB2234A82F8023182F80A3282F8123382F81A34012010A9002203F06CFE1B4B1B78032B0FD10133DBB2194A82F8023182F80A3282F833
:40044000123382F81A3401200DA9002203F058FE134B1B78012B04D1012007A9162203F04FFE0F4B1B78022B04D1012004A9162203F046FE074B1B78012B03D80120002198
:4004800003F084FD1CB010BDD486000048860000E08600009293FF1F678AFF1F9C84FF1F4893FF1F238EFF1F08B5104B1B78022B06D10220012103F069FD00220C4B1A600A
:4004C0000A4B1B78042B03D102202E2103F05EFD064B1B78012B03D80220002103F056FD02200449002203F00BFE08BD9293FF1F8C8FFF1F1481FF1F08B502F0CBFC2D4B6F
:400500001870002855D02C4B187802F0ABFC03F07DFA50B90120002103F038FD0220002103F034FD0022234B1A70234B93F8080102F098FC03F06AFA50B90120002103F0CB
:4005400025FD0220002103F021FD0022194B1A70194B187802F086FC03F058FA48B3164B93F8080102F07EFC03F050FA08B302F091FC104B1870104B187802F073FC062818
:400580000DD10D4B93F8080102F06CFC062806D1094B187803F0E0FBFFF792FD08BD0120092103F0F3FC0220092103F0EFFCFFF7A3FF08BD9293FF1F9C84FF1F70B58EB07E
:4005C0002E4C07AD04F154060FCE0FC596E8070003C52A806D4670340FCC0FC594E8070003C52A80002408E00EAB2344012013F81C1C04F05BF80134E4B2192CF4D9012006
:400600000A2104F053F801200A2104F04FF801200A2104F04BF801200A2104F047F801200A2104F043F801200A2104F03FF8002408E00EAB2344022013F8381C04F036F806
:400640000134E4B2192CF4D902200A2104F02EF802200A2104F02AF802200A2104F026F802200A2104F022F802200A2104F01EF802200A2104F01AF80EB070BD48860000B6
:40068000F0B585B0B34B1B68132B01F2C681DFE813F014002A005000AC006F019D011B02930203038A035F04B2043905C7051C06710715086A08EB08BE09FFF7AFFD012245
:4006C000A44B1A6007F0CCFA07F02EFA0023A24A1370A24A82F8613082F80331A04A82F8073101F09AB908229D4B83F8032106F071FB082841F091819A4B1B78DBB2AA2B3E
:4007000010D1984B9B79DBB2C32B0BD1954BDB79DBB23C2B06D102228E4B1A600120042103F034FC0A2006F021FD06F081FB01F074B906F04FFB082841F06F81894B1B78E5
:40074000DBB2AA2B4AD1874B9B79DBB2C32B45D1844BDB79DBB23C2B40D1824BDB78DBB2452B24D004D80D2B07D00E2B10D035E07E2B2CD0942B22D030E00322754B1A606E
:400780000120764B83F86100052103F0FFFB25E00A22704B1A600222704B83F8612000226D4B1A700120852103F0F0FB16E00C22684B1A600120832103F0E8FB0EE0002222
:4007C000644B1A600120014603F0E0FB06E00022604B1A600120014603F0D8FB0A2006F0C5FC06F025FB01F018B906F0F3FA082841F013815B4B1B78DBB2AA2B40F0A380C0
:40080000584B9B79DBB2C32B40F09D80554BDB79DBB23C2B40F09780524BDB78DBB23B2B00F0828004D80F2B0BD0102B25D08AE07E2B00F08180942B6ED0432B40F0838072
:4008400037E00422434B1A60444B022483F86340442283F864200025434B1D700120062103F094FB0120009001954E23029324210322234603F06CFC65E00422354B1A6011
:40088000364B012483F86340562583F864500026354B1E7020460D2103F078FB009401964E230293204629460322022303F050FC49E02A4B022283F86320462283F86420E6
:4008C000012306E0254A1A44392182F865100133DBB21A4625490978481E8342F2DB1F4B9C18302084F8650084F8660083F86510002307E0194A1A4492F8650082F86F000C
:400900000133DBB28B42F5D90522124B1A600120862103F03BFB16E000220E4B1A600120014603F033FB0EE000220A4B1A600120014603F02BFB06E00022064B1A600120A4
:40094000014603F023FB0A2006F010FC06F070FA01F063B8388EFF1F258EFF1FD488FF1F9C84FF1F9893FF1F268EFF1F238EFF1F0120894B1978002203F04EFC18B1012859
:4009800015D001F04AB80022844B1A600120014603F0FCFA01F041B8814A1A4492F84B1082F8651082F86F100133DBB200E000237B4A92F84B209A42EED20522774B1A6046
:4009C0000120862103F0E2FA01F027B806F002FA082841F02280734B1B78DBB2AA2B6CD1704B9B79DBB2C32B67D16E4BDB79DBB23C2B62D16B4BDB787E3B3A2B5DD8DFE8D2
:400A000003F055351E295C5C5C5C5C5C5C5C5C5C5C5C5C5C5C5C5C5C4D5C5C5C5C5C5C5C5C5C5C5C5C5C5C5C5C5C5C5C5C5C5C5C5C5C5C5C5C5C5C5C5C5C5C5C4100062230
:400A4000564B1A600120584B83F801010B2103F09DFA32E00622514B1A600222524B83F8012101200B2103F091FA26E006224B4B1A6003224C4B83F8012101200B2103F014
:400A800085FA1AE00622454B1A600422464B83F8012101200B2103F079FA0EE000223F4B1A600120014603F071FA06E00120014603F06CFA0022394B1A600A2006F056FB72
:400AC00006F0B6F900F0A9BF384807F0BBF807F08BF806F07FF908284DD1324B1B78DBB2AA2B43D12F4B9B79DBB2C32B3ED12D4BDB79DBB23C2B39D12A4BDB78DBB2392B78
:400B000004D07E2B2BD0382B30D10FE00922234B1A600022264B1A70214B012083F8000183F834010A2103F031FA1FE01C4B93F803313BB10022194B1A600120014603F04C
:400B400025FA13E00721154B19600023144A82F83431184A1370012003F018FA06E000220E4B1A600120014603F010FA0A2006F0FDFA06F05DF90F4B1B781D2B40F24D8719
:400B80000023064A13600B4A13700120014603F0FDF900F042BF00BF238EFF1F388EFF1FD488FF1F9893FF1F9C84FF1F85000000268EFF1F258EFF1FAB4C207803F07CF9A3
:400BC000014684F8000194F8013198423BD1A74A92F863302078653203F0030302F034FF012822D107F03CF806F09EFF2546207802F038F9207840F0100006F00DFC012436
:400C000085F8074108219A4B19600022994B1A70964D85F83541204603F0B8F9204605F16501122203F06CFA10E00021904B1960012003F0ABF9C82006F098FA01200146B4
:400C400003F0A4F902E00722894B1A6006F0C2F808281DD1884B1B78DBB2AA2B15D1864B9B79DBB2C32B10D1834BDB79DBB23C2B0BD1814BDB78DBB27E2B06D10120014648
:400C800003F084F900227A4B1A600A2006F06EFA06F0CEF800F0C1BE734C207802F0E2F884F804010638052800F2B786DFE810F00600B506B50616001F004D0000236C4AD4
:400CC00013600C21684A82F80311684A82F835310120014603F05AF900F09FBE634B012283F83521002283F8032100F096BE5E4B187802F0A7FC002800F08F865B4B93F8B4
:400D00003431012B0DD15D4B1878574B197803F09FFE0022564B1A600120014603F036F909E00622524B1A600120504B83F803010B2103F02BF900224C4B83F8352101222F
:400D4000494B83F8072100F068BE474B187802F079FC002800F06186444B93F83431012B0DD1464B1878404B197803F071FE00223F4B1A600120014603F008F909E00622E3
:400D80003B4B1A600120394B83F803010B2103F0FDF80022354B83F835210122324B83F8072100F03ABE01200A21002203F034FA18B1012845D000F030BE2C4B93F80031B6
:400DC000013B032B39D8DFE803F00A1D2935274A1A44002182F8DF100133DBB200E000230A2BF4D90022224B1A600120014603F0CDF822E01D4A1A44002182F8EA10013361
:400E0000DBB200E000230A2BF4D916E0174A1A44002182F8F5100133DBB200E000230A2BF4D90AE0114A1A44002182F836110133DBB200E000230A2BF4D905F0F9FF00F0DD
:400E4000ECBD0A4B93F80031013B032B7CD8DFE803F0173F555B054A1A4492F84B1082F8DF100133DBB20CE09C84FF1FD488FF1F388EFF1F258EFF1F9893FF1F4993FF1FE2
:400E80000023B04A92F84B209A42E4D2AD4B93F803316BB1AC4B1878AC4B197803F0D8FD0022AB4B1A600120014603F06FF84BE00721A74B1960012003F068F844E0A14A4F
:400EC0001A4492F84B1082F8EA100133DBB200E000239C4A92F84B209A42F0D207219C4B1960012003F052F82EE0964A1A4492F84B1082F8F5100133DBB200E00023914AC9
:400F000092F84B209A42F0D2002307E08D4A1A4492F84B1082F836110133DBB20A2BF5D90E228B4B1A6000228A4B1A700A228A4B1A702A22894B1A700322824B83F80021B1
:400F40000120252103F022F805F072FF00F065BD05F040FF082840F06085814B1B78DBB2AA2B41D17E4B9B79DBB2C32B3CD17C4BDB79DBB23C2B37D1794BDB78DBB2942B5A
:400F800023D002D87E2B28D02EE0B62B02D0B72B0ED029E00B226E4B1A6000226D4B1A700120684B83F83401122102F0EFFF1BE00023644A82F800310721654A1160694A6C
:400FC0001370012002F0E2FF0EE00022604B1A600120014602F0DAFF06E00120014602F0D5FF00225A4B1A600A2006F0BFF805F01FFF00F012BD5C4806F024FE06F0F4FD71
:40100000012004F0A5FC01286CD1332104F0E2FC40B967E0012004F047FD544B18550134E4B200E00124082CF4D90020012405E04E4B195D04F074FD0134E4B2072CF7D98C
:401040004A4B1B7ADBB283424CD110233D4A5370012230E010464549895C01F00F01092908DD4249895C374C1C4401F00F013731617007E03D49895C324C1C4401F00F0188
:4010800030316170013BDBB23849095C9F2907D93649095C2B48184409093731417006E03249095C27481844090930314170013BDBB20132D2B2082ACCD90120132102F076
:4010C00065FF05F0B5FE4FF42F7006F04FF802221C4B83F8002109221D4B1A6001200E2102F054FF1F4B1B783B2B40F296840023174A13601B4A13700120014602F046FFCF
:4011000000F08BBC05F066FE082840F08684144B1B78DBB2AA2B7DD1114B9B79DBB2C32B78D10F4BDB79DBB23C2B73D10C4BDB78DBB2552B34D01BD83B2B54D0462B1ED062
:4011400068E000BFD488FF1F4993FF1F9C84FF1F388EFF1F268EFF1FD288FF1F0D8EFF1F9893FF1F258EFF1F85000000F492FF1F942B40D0B52B28D07E2B4BD143E00D22CE
:40118000AA4B1A60AA4B1B78012B04D101202A2102F0FCFE3EE00120232102F0F7FE39E00E22A24B1A600622A24B83F800210022A14B1A700522A14B1A702A22A04B1A701E
:4011C0000120252102F0E2FE24E00022974B1A609C4B012183F807110B2283F80321084602F0D4FE16E00022904B1A600120014602F0CCFE0EE000228C4B1A600120014660
:4012000002F0C4FE06E00022884B1A600120014602F0BCFE0A2005F0A9FF05F009FEFCE305F0D8FD082840F0F883874B1B78DBB2AA2B44D1844B9B79DBB2C32B3FD1824B33
:40124000DB79DBB23C2B3AD17F4BDB78DBB2482B17D002D8472B05D031E07E2B20D0942B26D02CE00922714B1A600022724B1A700422704B83F800210120242102F086FE68
:401280001DE00922694B1A6000226B4B1A700422684B83F800210120242102F077FE0EE00120014602F072FE0022604B1A6006E00120014602F06AFE00225C4B1A600A2020
:4012C00005F054FF05F0B4FDA7E301205B4B19785B4B1A7802F0A0FF10B101286ED09CE3544B93F80031013B052B64D8DFE803F0091A2F6344570021544AD1540133DBB2FC
:4013000000E00023042BF6D90022484B1A600120014602F03BFE4EE000214D4AD1540133DBB200E00023454A12789342F4D300223E4B1A600120014602F028FE3BE03D4A1F
:401340001A44002182F841110133DBB200E000233A4A12789342F2D30022344B1A600120014602F013FE26E0324A1A44002182F841110133DBB200E00023304A12789342C6
:40138000F2D30022294B1A600120014602F0FEFD11E000212F4AD1540133DBB200E001232C4A12789A42F4D20022204B1A600120014602F0EBFD05F03BFD2EE31D4B93F872
:4013C0000031013B052B00F2D280DFE813F00F0052006800D0007E009400591C154A0A4492F84B00194AD054CBB200E00023042BF3D916480023037107F052F880B2164BD5
:401400001880C3B2154C2370000A607020780A2106F064F860780B2106F060F80F22034B1A6001205A2102F0B1FDA0E0388EFF1F0C8EFF1FD488FF1F268EFF1FD288FF1F55
:401440000D8EFF1F9C84FF1F9893FF1FEC92FF1F2C8AFF1F248AFF1F9C91FF1F208EFF1F8D4A1A4492F84B108C4AD1540133DBB200E000238A4A12789342F1D30F22894B04
:401480001A6001205A2102F081FD70E0824A1A4492F84B1082F841110133DBB200E000237F4A12789342F1D313227E4B1A600120392102F06BFD5AE0774A1A4492F84B1040
:4014C00082F841110133DBB200E00023744A12789342F1D30F22734B1A6001205A2102F055FD44E06C4A1A4492F84B106E4AD1540133DBB200E001236B4A12789A42F1D295
:40150000694B5A78694B5B789A4221D1664B9A78664B9B789A421BD1634BDA78634BDB789A4215D1604B1A79604B1B799A420FD10120262102F02AFD4FF42F7005F016FE19
:401540000F22584B1A6001205A2102F01FFD0EE00120272102F01AFD4FF42F7005F006FE0022504B1A600120014602F00FFD05F05FFC52E205F02EFC082840F04E824C4B31
:401580001B78DBB2AA2B40F08180494B9B79DBB2C32B7BD1464BDB79DBB23C2B76D1444BDB78583B3C2B71D8DFE803F052703C707070707070707070703270707070707067
:4015C000707070707070707070707070707070707070617070701F707070707070707070707070707070707069000E222D4B1A600023304A1370304A13700522284B1A70FF
:401600000120254B83F80001062102F0BFFC3DE01022244B1A60FEF7D1FF01206B2102F0B5FC33E00E221F4B1A600023214A1370214A137003221A4B1A700223174A137039
:40164000154A82F800310120062102F09FFC1DE01222144B1A600022164B1A7004220E4B83F8002101203E2102F090FC0EE00120014602F08BFC00220A4B1A6006E0012094
:40168000014602F083FC0022064B1A600A2005F06DFD05F0CDFBC0E1D488FF1F2C8AFF1FD288FF1F388EFF1F248AFF1F0C81FF1F9893FF1F268EFF1F0D8EFF1F05F08AFB2F
:4016C000082840F0AA81644B1B78DBB2AA2B44D1614B9B79DBB2C32B3FD15F4BDB79DBB23C2B3AD15C4BDB78DBB2392B10D002D8382B05D031E07E2B20D0942B26D02CE016
:401700001122564B1A600120672102F03FFC24E00F22524B1A600124514B1C70514D02232B702046082105F0D9FE2878092105F0D5FE20465A2102F029FC0EE00120014653
:4017400002F024FC0022454B1A6006E00120014602F01CFC0022414B1A600A2005F006FD05F066FB59E105F035FB082840F05581394B1B78DBB2AA2B68D1374B9B79DBB2C9
:40178000C32B63D1344BDB79DBB23C2B5ED1324BDB787E3B162B59D8DFE803F049585858585858585858585858580C2035585858585851000F22294B1A600220284B1870F5
:4017C000284C2070082105F089FE2078092105F085FE01205A2102F0D9FB37E00F221F4B1A6001241E4B1C701E4D2C702046082105F074FE2878092105F070FE20465A2153
:4018000002F0C4FB22E00F22144B1A600020144B1870144C2070082105F060FE2078092105F05CFE01205A2102F0B0FB0EE00120014602F0ABFB0022084B1A6006E001204A
:40184000014602F0A3FB0022044B1A600A2005F08DFC05F0EDFAE0E09893FF1F388EFF1F4993FF1F248EFF1F02F0A0FF01283CD16B4F7978C1F300113031012400940026F4
:4018800001964E2502952046C9B20D22082302F05FFC797801F00F01009401960295204630310D22092302F053FC00940196029520463A210D220A2302F04AFC397809090E
:4018C000009401960295204630310D220B2302F03FFC397801F00F01009401960295204630310D220C2302F033FC02F003FF01285DD14C4F3978C1F30111012400940026DF
:4019000001964E250295204630311522082302F01FFC397801F00F01009401960295204630311522092302F013FC00940196029520462F2115220A2302F00AFC7978C1F3B8
:40194000001130310094019602952046C9B215220B2302F0FDFB797801F00F010094019602952046303115220C2302F0F1FB00940196029520462F2115220D2302F0E8FB90
:40198000B97809090094019602952046303115220E2302F0DDFBB97801F00F010094019602952046303115220F2302F0D1FB05F011FA082831D11C4B1B78DBB2AA2B20D1C8
:4019C000194B9B79DBB2C32B1BD1174BDB79DBB23C2B16D1144BDB78DBB27E2B02D0942B08D00EE00022114B1A600120014602F0CDFA06E000220D4B1A600120014602F0EB
:401A0000C5FA0A2005F0B2FB05F012FA05E00123074A82F80731074A137005B0F0BD00BF4C93FF1F108EFF1F9893FF1F388EFF1F9C84FF1FD088FF1FF0B585B0B64B1B6821
:401A4000132B01F2D681DFE813F014002B005400B0007701A50123029B020A0398037004C4044A05D7052C06810725087908FB08CE09FEF719FD0122A74B1A600822A74BEA
:401A800083F80B2206F01AF906F0F4F80023A44A1370A44A82F8613082F8033101F0A9B90220232102F0FEFA08229C4B83F80B2205F088FA082841F09C819B4B1B78DBB201
:401AC000AA2B0FD1984B9B79DBB2C32B0AD1964BDB79DBB23C2B05D102208F4B1860042102F054FA0A2005F041FB05F099FA01F080B905F067FA082841F07B818A4B1B78E4
:401B0000DBB2AA2B4AD1884B9B79DBB2C32B45D1854BDB79DBB23C2B40D1834BDB78DBB2452B24D004D80D2B07D00E2B11D035E07E2B2CD0942B22D030E00322764B1A6095
:401B40000122784B83F861200220052102F01EFA24E00A22704B1A600220724B83F861000022724B1A70852102F010FA16E00C22694B1A600220832102F008FA0EE00022EA
:401B8000654B1A600220012102F000FA06E00022614B1A600220012102F0F8F90A2005F0E5FA05F03DFA01F024B905F00BFA082841F01F815C4B1B78DBB2AA2B40F0A48093
:401BC000594B9B79DBB2C32B40F09E80564BDB79DBB23C2B40F09880534BDB78DBB23B2B00F0838004D80F2B0BD0102B26D08BE07E2B00F08280942B6FD0432B40F0848094
:401C000038E00422444B1A60464B022483F86340442283F864200025454B1D702046062102F0B4F90123009301954E230293204624210322234602F08BFA65E00422364BC6
:401C40001A60384B012683F86360562483F864400025374B1D7002200D2102F097F9009601954E230293022021460322034602F06FFA49E02B4B022283F86320462283F83B
:401C80006420012306E0274A1A44392182F865100133DBB21A4627490978481E8342F2DB204B9C18302084F8650084F8660083F86510002307E01B4A1A4492F8650082F81C
:401CC0006F000133DBB28B42F5D90522124B1A600220862102F05AF916E000220E4B1A600220012102F052F90EE000220A4B1A600220012102F04AF906E00022064B1A6076
:401D00000220012102F042F90A2005F02FFA05F087F901F06EB800BF8C8FFF1F9C84FF1FD188FF1F848CFF1FB893FF1F258EFF1F268EFF1F238EFF1F0220894B19780022FF
:401D400002F06AFA18B1012815D001F052B80022844B1A600220012102F018F901F049B8814A1A4492F84B1082F8651082F86F100133DBB200E000237B4A92F84B209A4247
:401D8000EED20522774B1A600220862102F0FEF801F02FB805F016F9082841F02A80734B1B78DBB2AA2B6CD1704B9B79DBB2C32B67D16E4BDB79DBB23C2B62D16B4BDB78B9
:401DC0007E3B3A2B5DD8DFE803F055351E2A5C5C5C5C5C5C5C5C5C5C5C5C5C5C5C5C5C5C4D5C5C5C5C5C5C5C5C5C5C5C5C5C5C5C5C5C5C5C5C5C5C5C5C5C5C5C5C5C5C5C1B
:401E00005C5C5C5C41000622564B1A600122584B83F8092202200B2102F0B8F831E00622504B1A600220524B83F809020B2102F0ADF826E006224B4B1A6003224C4B83F887
:401E4000092202200B2102F0A1F81AE00622454B1A600422464B83F8092202200B2102F095F80EE000223F4B1A600220012102F08DF806E00220012102F088F80022394BF7
:401E80001A600A2005F072F905F0CAF800F0B1BF384805F0D7FE05F0A7FE05F093F808284ED1324B1B78DBB2AA2B44D12F4B9B79DBB2C32B3FD12D4BDB79DBB23C2B3AD1E9
:401EC0002A4BDB78DBB2392B04D07E2B2CD0382B31D110E00922234B1A600022264B1A70214B012283F8002183F8342102200A2102F04CF81FE01C4B93F803313BB100227A
:401F0000184B1A600220012102F040F813E00721144B19600023144A82F83431174A1370022002F033F806E000220E4B1A600220012102F02BF80A2005F018F905F070F81F
:401F40000E4B1B781D2B40F254870023054A13600A4A13700220012102F018F800F049BF238EFF1F8C8FFF1F848CFF1FB893FF1F9C84FF1F85000000268EFF1F258EFF1F21
:401F8000AE4C94F8080101F097FF014684F8080294F80932984239D1A94A92F8633094F80801653203F0030301F04EFD01281FD105F084FE05F05EFE94F8080100F052FF6B
:401FC00094F8080140F0100005F026FA012384F80F3208219B4B196000229B4B1A70022001F0D4FF02209949122202F089F810E00021944B1960022001F0C8FFC82005F04B
:40200000B5F80220012101F0C1FF02E007228D4B1A6004F0D7FF08281DD18D4B1B78DBB2AA2B15D18A4B9B79DBB2C32B10D1884BDB79DBB23C2B0BD1854BDB78DBB27E2B71
:4020400006D10220012101F0A1FF00227D4B1A600A2005F08BF804F0E3FF00F0CABE774C94F8080100F0FEFE84F80C020638052800F2BF86DFE810F00600BD06BD06160087
:402080001F00500000236F4A13600C216B4A82F80B126B4A82F835310220012101F076FF00F0A7BE664B012283F83521002283F8032100F09EBE614B93F8080101F0C2FAB6
:4020C000002800F096865E4B93F83431012B0ED1604B1878594B93F8081102F0B9FC0022584B1A600220012101F050FF0AE00622544B1A600122524B83F8032102200B2143
:4021000001F044FF00224E4B83F8352101224B4B83F80F2200F06DBE484B93F8080101F091FA002800F06586454B93F83431012B0ED1484B1878414B93F8081102F088FC65
:402140000022404B1A600220012101F01FFF0AE006223C4B1A600122394B83F8032102200B2101F013FF0022354B83F835210122324B83F80F2200F03CBE02200A21002223
:4021800002F04AF818B1012845D000F032BE2C4B93F80031013B032B39D8DFE803F00A1D2935274A1A44002182F8DF100133DBB200E000230A2BF4D90022224B1A600220CD
:4021C000012101F0E3FE22E01D4A1A44002182F8EA100133DBB200E000230A2BF4D916E0174A1A44002182F8F5100133DBB200E000230A2BF4D90AE0114A1A44002182F870
:4022000036110133DBB200E000230A2BF4D904F007FF00F0EEBD0A4B93F80031013B032B7FD8DFE803F01942585E054A1A4492F84B1082F8DF100133DBB20EE09C84FF1F77
:40224000848CFF1F8C8FFF1FD188FF1FE98CFF1FB893FF1F248EFF1F0023B04A92F84B209A42E2D2AD4B93F8033173B1AC4B1878AC4B93F8081102F0EBFB0022AA4B1A60AC
:402280000220012101F082FE4BE00721A64B1960022001F07BFE44E0A04A1A4492F84B1082F8EA100133DBB200E000239B4A92F84B209A42F0D207219B4B1960022001F085
:4022C00065FE2EE0954A1A4492F84B1082F8F5100133DBB200E00023904A92F84B209A42F0D2002307E08D4A1A4492F84B1082F836110133DBB20A2BF5D90E228A4B1A6073
:4023000000228A4B1A700A22894B1A702A22894B1A700322814B83F800210220252101F035FE04F07DFE00F064BD04F04BFE082840F05F85804B1B78DBB2AA2B42D17E4B32
:402340009B79DBB2C32B3DD17B4BDB79DBB23C2B38D1794BDB78DBB2942B24D002D87E2B29D02FE0B62B02D0B72B0FD02AE00B226D4B1A6000226D4B1A700122674B83F836
:4023800034210220122101F001FE1BE00023634A82F800310721644A1160684A1370022001F0F4FD0EE000225F4B1A600220012101F0ECFD06E00220012101F0E7FD00221A
:4023C000594B1A600A2004F0D1FE04F029FE00F010BD5B4805F036FC05F006FC022003F0B7FA01286BD1332103F0F4FA40B966E0022003F059FB534B18550134E4B200E07B
:402400000124082CF4D90020012405E04D4B195D03F086FB0134E4B2072CF7D9494B1B7ADBB283424BD110233C4A5370012230E010464449895C01F00F01092908DD41494C
:40244000895C364C1C4401F00F013731617007E03C49895C314C1C4401F00F0130316170013BDBB23749095C9F2907D93549095C2A48184409093731417006E03149095C03
:4024800026481844090930314170013BDBB20132D2B2082ACCD90220132101F077FD04F0BFFD4FF42F7004F061FE02201B4B83F8000109221C4B1A600E2101F067FD1F4B39
:4024C0001B783B2B40F295840023174A13601B4A13700220012101F059FD00F08ABC04F071FD082840F08584134B1B78DBB2AA2B7CD1114B9B79DBB2C32B77D10E4BDB79AD
:40250000DBB23C2B72D10C4BDB78DBB2552B33D01AD83B2B53D0462B1DD067E0848CFF1F248EFF1F9C84FF1F8C8FFF1F268EFF1FD288FF1F0D8EFF1FB893FF1F258EFF1FD8
:4025400085000000F492FF1F942B40D0B52B28D07E2B4BD143E00D22AA4B1A60AA4B1B78012B04D102202A2101F010FD3EE00220232101F00BFD39E00E22A24B1A600622BC
:40258000A24B83F800210022A14B1A700522A14B1A702A22A04B1A700220252101F0F6FC24E00022974B1A609C4B012183F80F120B2283F80B22022001F0E8FC16E0002246
:4025C000904B1A600220012101F0E0FC0EE000228C4B1A600220012101F0D8FC06E00022884B1A600220012101F0D0FC0A2004F0BDFD04F015FDFCE304F0E4FC082840F0C4
:40260000F883874B1B78DBB2AA2B44D1844B9B79DBB2C32B3FD1824BDB79DBB23C2B3AD17F4BDB78DBB2482B17D002D8472B05D031E07E2B20D0942B26D02CE00922714B3E
:402640001A600022724B1A700422704B83F800210220242101F09AFC1DE00922694B1A6000226B4B1A700422684B83F800210220242101F08BFC0EE00220012101F086FC5B
:402680000022604B1A6006E00220012101F07EFC00225C4B1A600A2004F068FD04F0C0FCA7E302205B4B19785B4B1A7801F0B4FD10B101286ED09CE3544B93F80031013BCD
:4026C000052B64D8DFE803F0091A2F6344570021544AD1540133DBB200E00023042BF6D90022484B1A600220012101F04FFC4EE000214D4AD1540133DBB200E00023454AB1
:4027000012789342F4D300223E4B1A600220012101F03CFC3BE03D4A1A44002182F841110133DBB200E000233A4A12789342F2D30022344B1A600220012101F027FC26E00F
:40274000324A1A44002182F841110133DBB200E00023304A12789342F2D30022294B1A600220012101F012FC11E000212F4AD1540133DBB200E001232C4A12789A42F4D2C6
:402780000022204B1A600220012101F0FFFB04F047FC2EE31D4B93F80031013B052B00F2D280DFE813F00F0052006800D0007E009400591C154A0A4492F84B00194AD054D4
:4027C000CBB200E00023042BF3D916480023037105F066FE80B2164B1880C3B2154C2370000A607020780A2104F078FE60780B2104F074FE0F22034B1A6002205A2101F084
:40280000C5FBA0E08C8FFF1F0C8EFF1F848CFF1F268EFF1FD288FF1F0D8EFF1F9C84FF1FB893FF1FEC92FF1F2C8AFF1F248AFF1F9C91FF1F208EFF1F8D4A1A4492F84B1022
:402840008C4AD1540133DBB200E000238A4A12789342F1D30F22894B1A6002205A2101F095FB70E0824A1A4492F84B1082F841110133DBB200E000237F4A12789342F1D32A
:4028800013227E4B1A600220392101F07FFB5AE0774A1A4492F84B1082F841110133DBB200E00023744A12789342F1D30F22734B1A6002205A2101F069FB44E06C4A1A4477
:4028C00092F84B106E4AD1540133DBB200E001236B4A12789A42F1D2694B5A78694B5B789A4221D1664B9A78664B9B789A421BD1634BDA78634BDB789A4215D1604B1A7948
:40290000604B1B799A420FD10220262101F03EFB4FF42F7004F02AFC0F22584B1A6002205A2101F033FB0EE00220272101F02EFB4FF42F7004F01AFC0022504B1A6002204C
:40294000012101F023FB04F06BFB52E204F03AFB082840F04E824C4B1B78DBB2AA2B40F08180494B9B79DBB2C32B7BD1464BDB79DBB23C2B76D1444BDB78583B3C2B71D8CE
:40298000DFE803F052703D7070707070707070707033707070707070707070707070707070707070707070707070617070701F70707070707070707070707070707070700B
:4029C00069000E222D4B1A600023304A1370304A13700522284B1A700122254B83F800210220062101F0D2FA3CE01022234B1A60FDF7E4FD02206B2101F0C8FA32E00E2228
:402A00001E4B1A600023214A1370214A13700322194B1A700220174B1870154B83F80001062101F0B3FA1DE01222144B1A600022164B1A7004220E4B83F8002102203E2141
:402A400001F0A4FA0EE00220012101F09FFA00220A4B1A6006E00220012101F097FA0022064B1A600A2004F081FB04F0D9FAC0E1848CFF1F2C8AFF1FD288FF1F8C8FFF1FCC
:402A8000248AFF1F0C81FF1FB893FF1F268EFF1F0D8EFF1F04F096FA082840F0AA81644B1B78DBB2AA2B43D1614B9B79DBB2C32B3ED15F4BDB79DBB23C2B39D15C4BDB78A4
:402AC000DBB2392B10D002D8382B05D030E07E2B1FD0942B25D02BE01122564B1A600220672101F053FA23E00F22524B1A600120514B1870514D02242C70082104F0EEFC5F
:402B00002878092104F0EAFC20465A2101F03EFA0EE00220012101F039FA0022454B1A6006E00220012101F031FA0022414B1A600A2004F01BFB04F073FA5AE104F042FAF7
:402B4000082840F056813A4B1B78DBB2AA2B68D1374B9B79DBB2C32B63D1354BDB79DBB23C2B5ED1324BDB787E3B162B59D8DFE803F04958585858585858585858585858B9
:402B80000C2135585858585851000F22294B1A600224294B1C70294D2C702046082104F09DFC2878092104F099FC20465A2101F0EDF936E00F221F4B1A6001201E4B1870EF
:402BC0001E4C2070082104F089FC2078092104F085FC02205A2101F0D9F922E00F22154B1A600020144B1870144C2070082104F075FC2078092104F071FC02205A2101F05F
:402C0000C5F90EE00220012101F0C0F90022094B1A6006E00220012101F0B8F90022054B1A600A2004F0A2FA04F0FAF9E1E000BFB893FF1F8C8FFF1F4993FF1F248EFF1FC5
:402C400001F0B4FD01283CD16B4F7978C1F30011303101260096002501954E2402940220C9B20D22082301F073FA797801F00F01009601950294022030310D22092301F053
:402C800067FA00960195029402203A210D220A2301F05EFA39780909009601950294022030310D220B2301F053FA397801F00F01009601950294022030310D220C2301F0E6
:402CC00047FA01F017FD01285DD14C4F3978C1F3011101260096002501954E240294022030311522082301F033FA397801F00F01009601950294022030311522092301F057
:402D000027FA00960195029402202F2115220A2301F01EFA7978C1F3001130310096019502940220C9B215220B2301F011FA797801F00F010096019502940220303115228C
:402D40000C2301F005FA00960195029402202F2115220D2301F0FCF9B97809090096019502940220303115220E2301F0F1F9B97801F00F010096019502940220303115223A
:402D80000F2301F0E5F904F01DF9082831D11C4B1B78DBB2AA2B20D1194B9B79DBB2C32B1BD1174BDB79DBB23C2B16D1144BDB78DBB27E2B02D0942B08D00EE00022114B5C
:402DC0001A600220012101F0E1F806E000220D4B1A600220012101F0D9F80A2004F0C6F904F01EF905E00123074A82F80F32074A137005B0F0BD00BF4C93FF1F108EFF1FC0
:402E0000B893FF1F8C8FFF1F9C84FF1FD088FF1F08B562B6FDF740F9FDF76EFBFDF79AF90320002104F0C2F904F0E0F903F090F9FDF726FC04F0DAF9FEF7FEFD04F0D6F98A
:402E4000064A13780133DBB213701378DBB20A2BEAD90022024B1A70E6E700BF9193FF1F668AFF1F10B5044604F0B4FA204604F0D3FA3C2004F07AF904F078FA38B104F070
:402E800043FAC0F3071404F0A5FA204610BD002010BD00BF10B5464BFF221A7083F8082183F8102283F81823012454E0204604F0B3FA642004F05AF904F058FA38B13C4BAC
:402EC0001B78FF2B03D13A4B1C7004F083FA04F04DFA68B1364B1B78A34209D0344B93F80831FF2B04D1324B83F8084104F072FA04F03CFA90B12E4B1B78A3420ED02C4B05
:402F000093F80831A34209D0294B93F81032FF2B04D1274B83F8104204F05CFA04F026FAB8B1234B1B78A34213D0214B93F80831A3420ED01E4B93F81032A34209D01C4BB2
:402F400093F81833FF2B04D1194B83F8184304F041FA0134E4B2102CA8D9154B1B78FF2B0ED0134A92F80821FF2A09D0104A92F81022FF2A04D00E4A92F81823FF2A0FD145
:402F8000FF2B04D00A4A92F80821FF2A0AD1FF2B0AD1074B93F80831FF2B07D0012010BD042010BD022010BD012010BD002010BD9C84FF1FF8B5054604F00CFA45F050008E
:402FC00004F02AFA04F012F94FF4617004F0CEF804F00CF904F0CAF9C0B2222806D0402804D05E2802D07C2840F02281B44B1B78DBB2FF2B40F01881B14B5B78DBB2F62B10
:4030000040F01281AE4BDB78DBB2F92B40F00C81AC4CA4FB0030C0F30214AB4B1B78AB421DD0002699E0C5EB051006EB4603C3EB031203461344A44A13440B4400225A709F
:403040000131C9B200E000210D29ECD90135EDB200E00025022DF6D90136F6B200E00026032EF6D900252F4655E02B1D944AD05CC6EB061E07EB4703C3EB031273461344E5
:40308000914A13445B1A00F00F0230329A720135EDB2022E01D1042905D00131C9B200E001210829E1D90135EDB20136F6B200E00026022EF4D90735EDB204220CE007EBF1
:4030C0004703C3EB031380490B44D11891F823101344D977013AD2B2002AF0D107EB4703C3EB0313784A134408225A701A740422DA77764B1B78DBB2012B0AD107EB47037E
:40310000C3EB0313704A13440522DA77302283F824200137FFB2A742CAD304F05BF92046F8BDC5EB051006EB4603C3EB031203461344654A13440B44002283F809210131AF
:40314000C9B200E000210D29EBD90135EDB200E00025022DF6D90136F6B2032EF8D900252F465BE02B1D564AD05CC6EB061E07EB4703C3EB031273461344534A13445B1AEA
:4031800000F00F02303283F812210135EDB2022E01D1042905D00131C9B200E001210829E0D90135EDB20136F6B200E00026022EF4D90735EDB204220DE007EB4703C3EBFD
:4031C000031341490B44D11891F82B11134483F82711013AD2B2002AEFD107EB4703C3EB0313394A1344082283F8092183F81821042283F82721354B1B78DBB2012B0BD191
:4032000007EB4703C3EB03132F4A1344052283F82721302283F82C210137FFB2A742C5D304F0D8F82046F8BD04F0D4F80020F8BD2E2806D0582804D0822802D0AC2840F0DC
:403240000B811F4B1B78DBB2FF2B40F001811C4B5B78DBB2F62B40F0FB80194BDB78DBB2F92B40F0F5801A4CA4FB00304409164B1B78AB421DD0002694E0C5EB051006EB1C
:403280004603C3EB0312034613440F4A13440B4400225A700131C9B200E000210D29ECD90135EDB200E00025022DF6D90136F6B200E00026032EF6D900252F4650E000BF88
:4032C000D893FF1F898888889C84FF1F888FFF1FCDCCCCCC2B1D624AD05CC6EB061E07EB4703C3EB0312734613445E4A13445B1A00F00F0230329A730135EDB2022E01D1C1
:40330000062905D00131C9B200E001210C29E1D90135EDB20136F6B200E00026022EF4D90935EDB206220CE007EB4703C3EB03134C490B44D11891F825101344D977013AD6
:40334000D2B2002AF0D107EB4703C3EB0313454A13440C225A701A740622DA770137FFB2A742DAD304F036F82046F8BDC5EB051006EB4603C3EB031203461344394A134401
:403380000B44002283F809210131C9B200E000210D29EBD90135EDB200E00025022DF6D90136F6B2032EF8D900252F464AE02B1D2B4AD05CC6EB061E07EB4703C3EB031215
:4033C00073461344274A13445B1A00F00F02303283F816210135EDB2022E01D1062905D00131C9B200E001210C29E0D90135EDB20136F6B200E00026022EF4D90935EDB25F
:4034000006220DE007EB4703C3EB031315490B44D11891F82D11134483F82711013AD2B2002AEFD107EB4703C3EB03130D4A13440C2283F8092183F81821062283F8272147
:403440000137FFB2A742D6D303F0C4FF2046F8BD03F0C0FF0020F8BD03F0BCFF0020F8BDD893FF1F9C84FF1FF0B585B004460E461546714F6B4638687968BA6807C3B9893C
:40348000BA7B19809A70012310E0EA5C2C2A0BD105E0EA1812F8012CEA54013BDBB2012BF7D830236B7003E00133DBB2062BECD9624B1B78072B4CD0E5238DF8013006F07E
:4034C0000F0363F01F038DF804305D4B1B7813F0FF0F0DD000231AE0EA5C04A9194402F00F0262F01F0201F80A2C0133DBB200E00023032BF0D90CE0EA5C04A9194402F068
:403500000F0262F01F0201F80A2C0133DBB2022BF2D9FB238DF80A3000230CE004AA1A4412F8102C02F00F029DF80B100A448DF80B200133DBB20A2BF0D99DF80B305B4204
:4035400003F00F0363F01F038DF80B30F0238DF80C303A4B1B78072B39D1E3238DF8013006F00F0666F01F068DF8046000230AE0EA5C04A9194402F00F0262F01F0201F8F2
:403580000A2C0133DBB2052BF2D9FB238DF80C3000230CE004AA1A4412F8102C02F00F029DF80D100A448DF80D200133DBB20C2BF0D99DF80D305B4203F00F0363F01F037A
:4035C0008DF80D30F0238DF80E300E2600E00C2603F000FF44F0200003F01EFF642003F0C5FD03F0C3FEF0B103F08EFE44F0D00398421AD103F0EEFE002507E004AB2B44B5
:4036000013F8100C03F008FF0135EDB2B542F5D903F0E0FE322003F0A9FD2046FFF722FC034620B904E0002302E0002300E00123184605B0F0BD00BFEC860000238EFF1FA7
:40364000888FFF1F10B5044603F0C4FE44F0400003F0E2FEFA2003F089FD03F0C7FDB74B1B78072B00F0F28003F080FE212840F0ED80B34B1B78DBB2FF2B40F0AF81B04B9D
:403680009B78DBB2F82B40F0AB81AD4B93F82030DBB2F02B40F0A681AA4B1B78A3426AD1A74B5B7A03F00F033133A64A82F8FF3001230CE003F10B02A1498A5CA249C91AF9
:4036C00002F00F02303281F8F1200133DBB2042BF0D904229B4B83F8F1209C4B1B78DBB2012B06D1974B052283F8F120302283F8F62001230CE003F1100291498A5C944955
:40370000C91A02F00F02303281F8E3200133DBB2062BF0D906228B4B83F8E32001230CE003F1170286498A5C8949C91A02F00F02303281F8D5200133DBB2062BF0D97F4BAF
:403740001B78052B11D109E05A1E7E49881890F8D5000B4483F8D500D3B200E00623012BF2D83022774B83F8D6200622754B83F8D520012010BD724B5B7A03F00F03313396
:40378000704A82F8073201230CE003F10B026C498A5C6D49C91A02F00F02303281F8F9210133DBB2042BF0D90422664B83F8F921664B1B78DBB2012B06D1624B052283F817
:4037C000F921302283F8FE2101230CE003F110025B498A5C5E49C91A02F00F02303281F8EB210133DBB2062BF0D90622554B83F8EB2101230CE003F1170251498A5C54496B
:40380000C91A02F00F02303281F8DD210133DBB2062BF0D9494B1B78052B11D109E05A1E4849881890F8DD010B4483F8DD01D3B200E00623012BF2D83022424B83F8DE2158
:403840000622404B83F8DD21012010BD3B4B1B78072B40F0C98003F089FD272840F0C680374B1B78DBB2FF2B40F0C280344B9B78DBB2F82B40F0BE80314B93F82630DBB254
:40388000F02B40F0B9802F4B1B78A3424BD12C4B5B7A03F00F0331332A4A82F8FF3001230CE003F10B0226498A5C2949C91A02F00F02303281F8F1200133DBB2062BF0D93F
:4038C0000622204B83F8F12001230CE003F112021B498A5C1F49C91A02F00F02303281F8E3200133DBB2082BF0D90822154B83F8E32001230CE003F11C0211498A5C154996
:40390000C91A02F00F02303281F8D5200133DBB2072BF0D90B4B302283F8D620082283F8D520012010BD064B5B7A03F00F033133044A82F8073201231BE000BF238EFF1F37
:40394000D893FF1F9C84FF1FA184FF1F888FFF1FA384FF1FA584FF1F03F10B0227498A5C2749C91A02F00F02303281F8F9210133DBB2062BF0D90622224B83F8F9210123D1
:403980000CE003F112021D498A5C1F49C91A02F00F02303281F8EB210133DBB2082BF0D90822184B83F8EB2101230CE003F11C0212498A5C1449C91A02F00F02303281F840
:4039C000DD210133DBB2072BF0D90E4B302283F8DE21082283F8DD21012010BD002010BD002010BD002010BD002010BD002010BD002010BD002010BD002010BDD893FF1F66
:403A0000A384FF1F9C84FF1FA584FF1F30B1002802DB831F062B01D90020704701207047002104E003F00F030B44D9B201300378FB2BF7D103F00F028818404200F00F00D7
:403A400040F0E000704700BFF0B587B005460E46144600230193029303930493ADF81430FFF700FA0638C0B201280AD845F0200003F0D2FC322003F079FB03F045FC07468E
:403A800000E0002703F0A6FC03F0A4FC45F0D003BB4240F05381FF238DF80430E1238DF80530A94B1B78AB4240F0A180A74A92F8633063F00F038DF80630F6238DF807306D
:403AC000013E06F00F0666F01F068DF80860F8238DF8093092F86450462D09D006231AE006AA1A44E92102F8141C0133DBB200E00623974A127806329342F1DB1A4608E0F6
:403B000006A91144E02001F8140C0133DBB20132D2B20D2AF4D9442D20D120781A460CE0215C06AE164401F00F0161F01F0106F8141C0138C0B20132D2B2217819448A4257
:403B4000EEDB134608E006A91144E02001F8140C0133DBB20132D2B20D2AF4D9562D20D120781A460CE0215C06AD154401F00F0161F01F0105F8141C0138C0B20132D2B2C0
:403B8000217819448A42EEDB134608E006A91144E02001F8140C0133DBB20132D2B20D2AF4D906AA1A44FB2102F8141C5D1CEDB201A8FFF735FF06AB2B4403F8140C0135F0
:403BC000EDB206AB2B44F02203F8142C002407E006AB234413F8140C03F01EFC0134E4B2AC42F5D9322003F0C1FA0120A9E0564B93F80831AB4240F0A380564A92F86330CB
:403C000063F00F038DF80630F6238DF80730013E06F00F0666F01F068DF80860F8238DF8093092F86450462D09D006231AE006AA1A44E92102F8141C0133DBB200E006234B
:403C4000434A127806329342F1DB1A4608E006A91144E02001F8140C0133DBB20132D2B20D2AF4D9442D20D120781A460CE0215C06AE164401F00F0161F01F0106F8141C02
:403C80000138C0B20132D2B2217819448A42EEDB134608E006A91144E02001F8140C0133DBB20132D2B20D2AF4D9562D20D120781A460CE0215C06AD154401F00F0161F00A
:403CC0001F0105F8141C0138C0B20132D2B2217819448A42EEDB134608E006A91144E02001F8140C0133DBB20132D2B20D2AF4D906AA1A44FB2102F8141C5D1CEDB201A89B
:403D0000FFF78EFE06AB2B4403F8140C0135EDB206AB2B44F02203F8142C002407E006AB234413F8140C03F077FB0134E4B2AC42F5D9322003F01AFA012002E0002000E0EE
:403D4000002007B0F0BD00BF9C84FF1FD488FF1F238EFF1F848CFF1FF0B585B000AF0446FFF780F806280AD144F0200003F054FB322003F0FBF903F0C7FA054600E000252E
:403D800003F028FB44F0D004AC4222D1FF233B71E9237B71FE23BB71EE23FB71E0233B727B72FB23BB72381DFFF73AFEF872F0233B73002408E007F11003234413F80C0C3D
:403DC00003F02AFB0134E4B2082CF4D9C82003F0CDF903F0CBFAC6B2F31D23F00703ADEB030D6D46002404E003F08EFA28550134E4B2B442F8D903F0EDFAAB7A03F00F03F0
:403E0000264A13702B7B03F00F03254A1370012B0AD1244A47211170612151706C2191702021D17011715171022B0CD11D4B55221A706B225A7020229A704722DA706122B1
:403E40001A716C225A71AB7B03F00F03013B164A13702B7C03F00F03012B01D0042B02D10321124A1170032B00D013B902210F4A1170022B02D101220C4B1A70AB7C03F083
:403E80000F03013B0A4A13702B7D03F00F03094A137000201437BD46F0BD00BF678AFF1F3493FF1F948FFF1FD08DFF1F688AFF1F3293FF1F4893FF1FF0B585B000AF044611
:403EC000FEF7D0FF0638C0B201280AD844F0200003F0A2FA322003F049F903F015FA054600E0002503F076FA44F0D004AC422AD1FF233B71E9237B71FE23BB71E023FB71B1
:403F0000E1223A727B72FB23BB72381DFFF788FDF872F0233B73002408E007F11003234413F80C0C03F078FA0134E4B2082CF4D9154B1B7823B14FF4FA7003F017F902E074
:403F4000962003F013F903F011FAC5B2EB1D23F00703ADEB030D6E46002404E003F0D4F930550134E4B2AC42F8D903F033FA337B03F00F03012B03D1B07B00F00F0000E0E2
:403F800000201437BD46F0BD678AFF1F30B583B005460A4610496B460868496803C3130A8DF802308DF80320002410E0012D06D102AB234413F8080C02F05CFF05E002AB8C
:403FC000234413F8080C03F04DF80134E4B2072CECD903B030BD00BFFC8600002DE9F04387B005468C4616461C469DF83870BDF83CE00DF10408DFF8A89059F8080FD9F8A4
:404000000410D9F80820D9F80C30A8E80F00B9F81030A8F800307A1C02FB04F303EB43039B001B128DF8063004FB02F404EB4404A3008DF80730C6EBC6035B001B128DF8B3
:404040000830C6EBC60673008DF8093020378DF80A709DF84030592B02D185238DF80B304FEA1E238DF80D308DF80EE08DF811C0002410E0012D06D106AB234413F8140CDF
:4040800002F0F8FE05E006AB234413F8140C02F0E9FF0134E4B2112CECD907B0BDE8F083FC86000070B584B005460E466B46134C54F81C0F6168A26807C3A2891A808DF892
:4040C00007608DF80960002410E0012D06D104AB234413F8100C02F0CDFE05E004AB234413F8100C02F0BEFF0134E4B20D2CECD9642003F03BF804B070BD00BFFC860000F2
:40410000F0B585B007460E46154600240DE0315D01230093002301934E23029338461F222B19FFF75BFF0134E4B2092CEFD905B0F0BD00BF054B04E0824201D15878704709
:4041400002331A78002AF7D1002070472081FF1F2DE9F04387B005468C4616461C469DF83870BDF83CE00DF10408DFF8A89059F82C0FD9F80410D9F80820D9F80C30A8E867
:404180000F00B9F81030A8F800307A1C02FB04F303EB43039B001B128DF8063004FB02F404EB4404A3008DF80730C6EBC6035B001B128DF80830C6EBC60673008DF80930F6
:4041C00023378DF80A709DF84030592B02D185238DF80B304FEA1E238DF80D308DF80EE08DF811C0002410E0012D06D106AB234413F8140C02F03EFE05E006AB234413F80B
:40420000140C02F02FFF0134E4B2112CECD907B0BDE8F083FC86000030B585B00D461446012840F0108102F0D5FD082840F02F82A84B1B78DBB2AA2B40F0FE80A54B9B7900
:40424000DBB2C32B40F0F880A24BDB79DBB23C2B40F0F280A04B1B78DBB2013DAB4200F39F809C4BD878FFF765FF0546A0F12003DBB20B2B2AD8984A13780133DBB21370F6
:404280001378964A134483F84B008CB9924B1A781B7892490A4492F84B1001200090002201924E22029203220233FFF751FF78E0894B1B7801200090002201924E220292EE
:4042C000214603220233FFF743FF6AE0A0F12D03DBB2512B2AD8804A13780133DBB2137013787E4A134483F84B008CB97A4B1A781B787A490A4492F84B10012000900022AE
:4043000001924E22029203220233FFF721FF48E0714B1B7801200090002201924E220292214603220233FFF713FF3AE02C2838D1694B1B7813F0FF0F33D0694B1B7813F0B0
:40434000FF0F2ED1644A13780133DBB213700121634B19701378614A134483F84B008CB95D4B1A781B785D490A4492F84B1001200090002201924E22029203220233FFF762
:40438000E7FE0EE0544B1B7801200090002201924E220292214603220233FFF7D9FE00E000254C4BDB78DBB20B2B26D14A4B1B7803F0FF042BB9142002F0D8FE02F038FD32
:4043C00068E1454C237801200090002201924E220292202103220233FFF7BAFE23783F4A134493F84B302C2B02D100223C4B1A70394A1378013BDBB213700A2D10D1364BC4
:404400001B7813F0FF0F0BD0334B1A78334B83F84B20142002F0AAFE02F00AFD012439E12C4BDB78DBB2942B06D1142002F09EFE02F0FEFC00242DE1142002F097FE02F009
:40444000F7FC022426E102F0BDFD082840F02181244B1B78DBB2AA2B40F01281214B9B79DBB2C32B40F00C811E4BDB79DBB23C2B40F006811C4B1B78DBB2013DAB4200F382
:40448000B580184BD878FFF755FE0546A0F12003DBB20B2B3BD8144A13780133DBB213701378124A134483F84B000CBB0E4B1A781B780E490A4492F84B100122009200221F
:4044C00001924E220292022003220344FFF740FE8DE000BF9893FF1F268EFF1FD488FF1F938FFF1FB893FF1F3393FF1F848CFF1F6A4B1B7801220092002201924E22029231
:404500000220214602460344FFF722FE6FE0A0F12D03DBB2512B2CD8604A13780133DBB2137013785E4A134483F84B0094B95B4B1A781B785A490A4492F84B1001220092C4
:40454000002201924E220292022003220344FFF7FFFD4CE0514B1B7801220092002201924E2202920220214602460344FFF7F0FD3DE02C283BD1494B1B7813F0FF0F36D083
:40458000484B1B7813F0FF0F31D1444A13780133DBB213700121434B19701378424AD2783F490B4483F84B208CB93C4B1A781B780A4492F84B1001220092002201924E2210
:4045C0000292022003220344FFF7C2FD0FE0334B1B7801220092002201924E2202920220214602460344FFF7B3FD00E000250B2D27D12A4B1B7803F0FF042BB9142002F07B
:40460000B5FD02F00DFD45E0244C237801220092002201924E2202920220202102460344FFF796FD23781E4A134493F84B302C2B02D100221B4B1A70184A1378013BDBB261
:4046400013700A2D10D1154B1B7813F0FF0F0BD0124B1A78124B83F84B20142002F086FD02F0DEFC012415E00F4BDB78DBB2942B06D1142002F07AFD02F0D2FC002409E0C5
:40468000142002F073FD02F0CBFC022402E0022400E00224204605B030BD00BF3393FF1F848CFF1FBC88FF1FB893FF1F10B582B08DF804008DF8051003F0FCF90720002189
:4046C00003F044F958B1002011E002AB234413F8040C03F097F948B90134E4B200E00024012CF2D903F072F9012000E0002002B010BD00BF38B504241DE003F0DBF96820D8
:40470000002103F023F9D0B9204603F07BF9C0B903F05CF90A2002F029FD6820012103F015F980B9251F03F099F9084B585503F04DF90134E4B2062CDFD9012038BD00201F
:4047400038BD002038BD002038BD00BF108EFF1F10B582B004238DF80430134B1A788DF805205A788DF806209B788DF8073003F0A1F96820002103F0E9F858B1002011E0BE
:4047800002AB234413F8040C03F03CF948B90134E4B200E00024032CF2D903F017F9012000E0002002B010BD3C93FF1F38B501241DE003F07FF96820002103F0C7F8D0B9EA
:4047C000204603F01FF9C0B903F000F90A2002F0CDFC6820012103F0B9F880B9651E03F03DF9084B585503F0F1F80134E4B2022CDFD9012038BD002038BD002038BD0020DE
:4048000038BD00BF4C93FF1F10B582B001238DF80430124B1A788DF805205B788DF8063003F048F96820002103F090F858B1002011E002AB234413F8040C03F0E3F848B95C
:404840000134E4B200E00024022CF2D903F0BEF8012000E0002002B010BD00BF908FFF1F38B504460E2900F2DA80DFE801F01221303F4ED85D6C7B8998A7B6C5D400704BDB
:404880002B44204693F88014FFF710FF0135ADB200E00025B5F56C7FF1D3C0E0684B2B44204693F83018FFF701FF0135ADB200E00025B5F56C7FF1D3B1E0614B2B44204616
:4048C00093F8E01BFFF7F2FE0135ADB200E00025B5F56C7FF1D3A2E0594B2B44204693F8901FFFF7E3FE0135ADB200E00025B5F56C7FF1D393E0534B2B44204693F848128F
:40490000FFF7D4FE0135ADB200E00025B5F56C7FF1D384E04B4B2B44204693F8F815FFF7C5FE0135ADB200E00025B5F56C7FF1D375E0444B2B44204693F8A819FFF7B6FEFA
:404940000135ADB200E00025B5F56C7FF1D366E03C4B2B44204693F8581DFFF7A7FE0135ADB200E00025B5F56C7FF1D357E0364B2B442046197CFFF799FE0135ADB200E0F0
:404980000025B5F56C7FF2D349E02F4B2B44204693F8C013FFF78AFE0135ADB200E00025B5F56C7FF1D33AE0274B2B44204693F87017FFF77BFE0135ADB200E00025B5F50B
:4049C0006C7FF1D32BE0204B2B44204693F8201BFFF76CFE0135ADB200E00025B5F56C7FF1D31CE0184B2B44204693F8D01EFFF75DFE0135ADB200E00025B5F56C7FF1D3B3
:404A00000DE0124B2B44204693F88811FFF74EFE0135ADB200E00025B5F56C7FF1D320461B21FFF743FE20464021FFF73FFE20460A21FFF73BFE20460A21FFF737FE38BDBA
:404A40001CCB000014DC00000CED000004FE0000F8B504460E46C54B1B78012B04D1C44B18780021FFF7FCFE20460A21FFF71EFE002506E02046BF4B595DFFF717FE0135B0
:404A8000EDB21D2DF6D920460A21FFF70FFE002506E02046B84B595DFFF708FE0135EDB21D2DF6D920460A21FFF700FE002506E02046B24B595DFFF7F9FD0135EDB21D2DE2
:404AC000F6D920460A21FFF7F1FD002506E02046AB4B595DFFF7EAFD0135EDB21D2DF6D920460A21FFF7E2FD002506E02046A54B595DFFF7DBFD0135EDB21D2DF6D92046EB
:404B00000A21FFF7D3FD002508E09E4B2B44204693F82010FFF7CAFD0135EDB20C2DF4D9FFF7E8FD012832D1974D2978C1F3011120463031FFF7BAFD297801F00F01204698
:404B40003031FFF7B3FD20462F21FFF7AFFD6978C1F3001130312046C9B2FFF7A7FD697801F00F0120463031FFF7A0FD20462F21FFF79CFDA978090920463031FFF796FD50
:404B8000A97801F00F0120463031FFF78FFD20460A21FFF78BFD002508E07A4B2B44204693F83010FFF782FD0135EDB20C2DF4D9FFF7FCFD012820D1744D6978C1F3001149
:404BC00030312046C9B2FFF771FD697801F00F0120463031FFF76AFD20463A21FFF766FD2978090920463031FFF760FD297801F00F0120463031FFF759FD20460A21FFF7E6
:404C000055FD002506E020465E4B595DFFF74EFD0135EDB21D2DF6D920460A21FFF746FD002508E0574B2B44204693F84010FFF73DFD0135EDB20C2DF4D9554DA5FB063572
:404C4000ED08204605F13001FFF730FD05EB85056D00751B05F130012046C9B2FFF726FD20460A21FFF722FD002508E0454B2B44204693F85010FFF719FD0135EDB20C2DDA
:404C8000F4D920460A21FFF711FD424B1B78B34240F0318309E03B4B2B44204693F86010FFF704FD0135EDB200E000250C2DF2D920460A21FFF7FAFC002508E0314B2B4410
:404CC000204693F87010FFF7F1FC0135EDB20C2DF4D9314B1B78062B23D92E4B93F8F330302B03D100222B4B83F8F320022508E0284B2B44204693F8F110FFF7D7FC0135EB
:404D0000EDB2244B93F8F130AB42F1D20FE0214B2B44204693F8F110FFF7C8FC0135EDB200E001251B4B93F8F130AB42EFD220462021FFF7BBFC2046124B93F88010FFF7D0
:404D4000B5FC20462F21FFF7B1FC002506E02046124B595DFFF7AAFC0135EDB2042DF6D920460A21FFF7A2FC002522E0138EFF1F4993FF1FD48DFF1F1493FF1F488AFF1FFB
:404D80007C84FF1F7481FF1F108EFF1F4C93FF1FCDCCCCCC9C84FF1F238EFF1F948FFF1FBF4B2B44204693F88410FFF77FFC0135EDB20C2DF4D9BB4B93F8E430302B03D16C
:404DC0000022B84B83F8E420B64B93F8E43043B9B44B93F8E530302B03D10022B14B83F8E520B04B93F8E37013E0AE4A92F8E330DB1B1344204693F8E310FFF757FCAA4B37
:404E00001B789F4203D120462E21FFF74FFC013FFFB2002FE9D120462021FFF747FC3D4606E02046A14B595DFFF740FC0135EDB2042DF6D920460A21FFF738FC3D4608E0DC
:404E4000974B2B44204693F89410FFF72FFC0135EDB20C2DF4D9934B93F8D630302B03D10022904B83F8D6208E4B93F8D63043B98C4B93F8D730302B03D10022894B83F8D5
:404E8000D720012510E0874B2B44204693F8D510FFF70CFC864B1B789D4203D120462E21FFF704FC0135EDB27E4B93F8D530AB42E9D220462021FFF7F9FB2046784B93F8F3
:404EC0008010FFF7F3FB20460A21FFF7EFFB794B93F86130012B42D109E0714B2B44204693F8A410FFF7E2FB0135EDB200E03D460C2DF2D9012508E06E4B2B44204693F8BF
:404F0000DF10FFF7D3FB0135EDB26A4B93F8DF30AB42F1D220460A21FFF7C8FB3D4608E05F4B2B44204693F8B410FFF7BFFB0135EDB20C2DF4D9012508E05E4B2B44204650
:404F400093F86510FFF7B2FB0135EDB2594B93F86530AB42F1D220460A21FFF7A7FB3D4606E020464E4B595DFFF7A0FB0135EDB21D2DF6D920460A21FFF798FB4D4B93F842
:404F80006130022B40F0B78109E0454B2B44204693F8C410FFF78AFB0135EDB200E03D460C2DF2D9012508E0424B2B44204693F8EA10FFF77BFB0135EDB23E4B93F8EA3003
:404FC000AB42F1D220460A21FFF770FB3D4608E0334B2B44204693F8D410FFF767FB0135EDB20C2DF4D9012507E0324B2B4420465978FFF75BFB0135EDB22E4B5B78AB4225
:40500000F3D220460A21FFF751FB3D4608E0244B2B44204693F8A410FFF748FB0135EDB20C2DF4D9012508E0224B2B44204693F8F510FFF73BFB0135EDB21E4B93F8F530DC
:40504000AB42F1D220460A21FFF730FB3D4608E0134B2B44204693F8E410FFF727FB0135EDB20C2DF4D9012301E00133DBB2114A92F8F5209A42F8D220460A21FFF716FBC0
:405080003D4608E0064B2B44204693F8F410FFF70DFB0135EDB20C2DF4D901230EE000BF7481FF1F9C84FF1F688AFF1F948FFF1FD08DFF1FD488FF1F0133DBB2B84A92F842
:4050C000F5209A42F8D220460A21FFF7EFFA3D4608E0B44B2B44204693F80411FFF7E6FA0135EDB20C2DF4D9012301E00133DBB2AB4A92F8F5209A42F8D220460A21FFF76E
:40510000D5FA3D4608E0A74B2B44204693F81411FFF7CCFA0135EDB20C2DF4D9012301E00133DBB29E4A92F8F5209A42F8D220460A21FFF7BBFA3D4608E09A4B2B442046D3
:4051400093F82411FFF7B2FA0135EDB20C2DF4D9012301E00133DBB2914A92F8F5209A42F8D220460A21FFF7A1FA3D4608E08D4B2B44204693F83411FFF798FA0135EDB2A5
:405180000C2DF4D9012301E00133DBB2844A92F8F5209A42F8D220460A21FFF787FA3D4608E0804B2B44204693F84411FFF77EFA0135EDB20C2DF4D9012301E00133DBB20E
:4051C000774A92F8F5209A42F8D220460A21FFF76DFA3D4608E0734B2B44204693F85411FFF764FA0135EDB20C2DF4D9012301E00133DBB26A4A92F8F5209A42F8D2204679
:405200000A21FFF753FA3D4608E0664B2B44204693F86411FFF74AFA0135EDB20C2DF4D9012301E00133DBB25D4A92F8F5209A42F8D220460A21FFF739FA3D4608E0594B7F
:405240002B44204693F87411FFF730FA0135EDB20C2DF4D9012301E00133DBB2504A92F8F5209A42F8D220460A21FFF71FFA20460A21FFF71BFA3D4608E04A4B2B44204698
:4052800093F88411FFF712FA0135EDB20C2DF4D920460A21FFF70AFA20460A21FFF706FA20460A21FFF702FA3D4608E03D4B2B44204693F89411FFF7F9F90135EDB20C2D6E
:4052C000F4D920460A21FFF7F1F920460A21FFF7EDF920460A21FFF7E9F906E02046314BD95DFFF7E3F90137FFB21D2FF6D920460A21FFF7DBF92C4B93F80831B34240F00B
:40530000018309E0274B2B44204693F86010FFF7CDF90135EDB200E000250C2DF2D920460A21FFF7C3F9002508E01E4B2B44204693F87010FFF7BAF90135EDB20C2DF4D907
:40534000012508E0184B2B44204693F8F911FFF7ADF90135EDB2144B93F8F931AB42F1D220462021FFF7A2F920460E4B93F88010FFF79CF920462F21FFF798F9002506E038
:4053800020460A4B595DFFF791F90135EDB2042DF6D920460A21FFF789F9002511E000BFD488FF1F7481FF1F9C84FF1F948FFF1FBE4B2B44204693F88410FFF777F90135A4
:4053C000EDB20C2DF4D9BA4B93F8EC31302B03D10022B74B83F8EC21B54B93F8EC3143B9B34B93F8ED31302B03D10022B04B83F8ED21012510E0AE4B2B44204693F8EB11F5
:40540000FFF754F9AB4B1B789D4203D120462E21FFF74CF90135EDB2A54B93F8EB31AB42E9D220462021FFF741F9002506E02046A14B595DFFF73AF90135EDB2042DF6D901
:4054400020460A21FFF732F9002508E0974B2B44204693F89410FFF729F90135EDB20C2DF4D9934B93F8DE31302B03D10022904B83F8DE218E4B93F8DE3143B98C4B93F8A5
:40548000DF31302B03D10022894B83F8DF21012510E0874B2B44204693F8DD11FFF706F9864B1B789D4203D120462E21FFF7FEF80135EDB27E4B93F8DD31AB42E9D2204614
:4054C0002021FFF7F3F82046784B93F88010FFF7EDF820460A21FFF7E9F8794B93F86130012B42D109E0714B2B44204693F8A410FFF7DCF80135EDB200E000250C2DF2D983
:40550000012508E06E4B2B44204693F8DF10FFF7CDF80135EDB26A4B93F8DF30AB42F1D220460A21FFF7C2F8002508E05F4B2B44204693F8B410FFF7B9F80135EDB20C2DF5
:40554000F4D9012508E05E4B2B44204693F86510FFF7ACF80135EDB2594B93F86530AB42F1D220460A21FFF7A1F8002506E020464E4B595DFFF79AF80135EDB21D2DF6D999
:4055800020460A21FFF792F84D4B93F86130022B40F0B88109E0454B2B44204693F8C410FFF784F80135EDB200E000250C2DF2D9012508E0424B2B44204693F8EA10FFF7A8
:4055C00075F80135EDB23E4B93F8EA30AB42F1D220460A21FFF76AF8002508E0334B2B44204693F8D410FFF761F80135EDB20C2DF4D9012507E0324B2B4420465978FFF783
:4056000055F80135EDB22E4B5B78AB42F3D220460A21FFF74BF8002508E0244B2B44204693F8A410FFF742F80135EDB20C2DF4D9012508E0224B2B44204693F8F510FFF70F
:4056400035F80135EDB21E4B93F8F530AB42F1D220460A21FFF72AF8002508E0134B2B44204693F8E410FFF721F80135EDB20C2DF4D9012301E00133DBB2114A92F8F5204D
:405680009A42F8D220460A21FFF710F8002508E0064B2B44204693F8F410FFF707F80135EDB20C2DF4D901230EE000BF7481FF1F9C84FF1F688AFF1F948FFF1FD08DFF1F35
:4056C000848CFF1F0133DBB29F4A92F8F5209A42F8D220460A21FEF7E9FF002508E09B4B2B44204693F80411FEF7E0FF0135EDB20C2DF4D9012301E00133DBB2924A92F8DC
:40570000F5209A42F8D220460A21FEF7CFFF002508E08E4B2B44204693F81411FEF7C6FF0135EDB20C2DF4D9012301E00133DBB2854A92F8F5209A42F8D220460A21FEF7FA
:40574000B5FF002508E0814B2B44204693F82411FEF7ACFF0135EDB20C2DF4D9012301E00133DBB2784A92F8F5209A42F8D220460A21FEF79BFF002508E0744B2B442046FE
:4057800093F83411FEF792FF0135EDB20C2DF4D9012301E00133DBB26B4A92F8F5209A42F8D220460A21FEF781FF002508E0674B2B44204693F84411FEF778FF0135EDB23D
:4057C0000C2DF4D9012301E00133DBB25E4A92F8F5209A42F8D220460A21FEF767FF002508E05A4B2B44204693F85411FEF75EFF0135EDB20C2DF4D9012301E00133DBB29A
:40580000514A92F8F5209A42F8D220460A21FEF74DFF002508E04D4B2B44204693F86411FEF744FF0135EDB20C2DF4D9012301E00133DBB2444A92F8F5209A42F8D220462A
:405840000A21FEF733FF002508E0404B2B44204693F87411FEF72AFF0135EDB20C2DF4D9012301E00133DBB2374A92F8F5209A42F8D220460A21FEF719FF20460A21FEF7B0
:4058800015FF002508E0314B2B44204693F88411FEF70CFF0135EDB20C2DF4D920460A21FEF704FF20460A21FEF700FF20460A21FEF7FCFE002508E0244B2B44204693F811
:4058C0009411FEF7F3FE0135EDB20C2DF4D920460A21FEF7EBFE20460A21FEF7E7FE20460A21FEF7E3FE002506E02046174B595DFEF7DCFE0135EDB21D2DF6D920460A212A
:40590000FEF7D4FE20460A21FEF7D0FE20460A21FEF7CCFE20460A21FEF7C8FE20460A21FEF7C4FE20460A21FEF7C0FE20461D21FEF7BCFE20465621FEF7B8FE2046312191
:40594000FEF7B4FEF8BD00BF848CFF1F7481FF1F10B501281CD1002002F0BAF94FF4FA7001F01AFC012002F0B3F9052001F014FC02F0BAF9034658B3412001F00DFC02F04C
:40598000B3F90446F02001F007FCF4B901231FE0002002F0B1F94FF4FA7001F0FDFB012002F0AAF9052001F0F7FB02F0B1F9034670B1412001F0F0FB02F0AAF90446F020DB
:4059C00001F0EAFB1CB9012302E0002300E00023184610BD38B50D4601282DD000245AE0002002F075F90A2001F0D6FB45FA04F313F0010F0AD0012002F06AF90A2001F0C1
:405A0000CBFB02F071F9034650B94BE0002002F05FF90A2001F0C0FB02F066F900283ED1322001F0B9FB012002F052F9322001F0B3FB0134E4B200E00024072CD0D90123EA
:405A400030E0002002F058F90A2001F0A5FB45FA04F313F0010F0AD0012002F04DF90A2001F09AFB02F054F9034648B91AE0002002F042F90A2001F08FFB02F049F980B9EA
:405A8000322001F089FB012002F036F9322001F083FB0134E4B2072CD3D9012302E0002300E00023184638BD38B5012819D000252C4631E0002002F00BF90E2001F06CFBB0
:405AC000012002F005F9072001F066FB02F00CF9A0400543EDB2642001F05EFB0134E4B201E000252C46072CE4D917E0002002F003F90E2001F050FB012002F0FDF80720BF
:405B000001F04AFB02F004F9A0400543EDB2642001F042FB0134E4B2072CE7D9284638BD4840002308E010F0010F03D0400880F08C0000E040080133072BF4D9704700BF1B
:405B400030B5C1B005460C46684609494FF4807202F0D0FC0023184605E0EA5C50401DF8000001339BB2621E9342F6DB41B030BDA00A010038B5AE4B93F80431092B40F0B4
:405B80008980AB4B93F80731012B40F08380A94BBC221A70CB225A70C8229A70A64A1178D97052781A71A24A11785971AA2199710121D97192F800211A72A04991F86320FA
:405BC00002F003025A7291F8650084B208E0021B9A4B234493F86510994B9954013CA4B2002CF4D10A230CE0A3F10A0294498A5CD2B29049CA5412B930218E4AD1540133D4
:405C00009BB2112BF0D900228A4B9A748B4B93F8343163B123461BE003F113022020854988540021864AD15401339BB200E02346072BF1D90EE003F11300591C7F4A0A447F
:405C400092F8DF507B4A155400207D4AD0548BB2072BF0D91B2304E03021764AD15401339BB2252BF8D9734D28462721FFF768FF85F8260005E06F4B185D02F03BF901341B
:405C8000A4B2262CF7D96A4B012283F80321002283F80721694B93F80331012B40F0B580634B93F80731012B40F0AF80654BBC221A70CB225A70C8229A705F4A1178D970F2
:405CC00052781A715A4A11785971A42199710221D97192F80011197292F8F10084B208E0021B534B234493F8F110574B9954013CA4B2002CF4D109230CE0A3F1090252494A
:405D00008A5CD2B24F49CA5412B930214D4AD15401339BB20D2BF0D94C4B1B78053BDBB2012B0CD901231BE003F10D01484AD21A92F8E300434A505401339BB200E001231F
:405D40003B4A92F8E3209A42EED20EE003F10D01404AD21A92F8E3003A4A505401339BB2334A92F8E3209A42F0D2364B1B7D1BB9344B30221A755A75344B1B78053BDBB256
:405D8000012B0CD901231BE003F11501304AD21A92F8D5002B4A505401339BB200E00123234A92F8D5209A42EED20EE003F11501284AD21A92F8D500224A505401339BB278
:405DC0001B4A92F8D5209A42F0D21E4B1B7F1BB91C4B30221A775A771A4D28461F21FFF7AFFEA87705E0174B185D02F083F80134A4B21E2CF7D90E4B082283F80321002246
:405E00000E4981F8352183F80721094B93F805316BB1074B93F8061103EBC1021878B532FDF722FB18B10022014B83F8052138BD9C84FF1F2084FF1F208EFF1FD488FF1F28
:405E40007C8CFF1F5093FF1FC088FF1F238EFF1FA384FF1FA584FF1F38B5B34B93F80C32092B40F08A80B04B93F80F32012B40F08480AE4BBC221A70CB225A70C8229A70E5
:405E8000AB4A1178D97052781A71A74A92F808115971AA2199710121D97192F808221A72A44991F8632002F003025A7291F8650084B208E0021B9F4B234493F865109E4BC8
:405EC0009954013CA4B2002CF4D10A230CE0A3F10A0299498A5CD2B29449CA5412B93021924AD15401339BB2112BF0D900228F4B9A74904B93F8343163B123461BE003F14D
:405F0000130220208949885400218B4AD15401339BB200E02346072BF1D90EE003F11300591C844A0A4492F8DF50804A15540020814AD0548BB2072BF0D91B2304E0302151
:405F40007A4AD15401339BB2252BF8D9774D28462721FFF7F5FD85F8260005E0734B185D01F0C8FF0134A4B2272CF7D96E4B012283F80B22002283F80F226E4B93F8033149
:405F8000012B40F0BC80684B93F80F32012B40F0B6806A4BBC221A70CB225A70C8229A70634A1178D97052781A715F4A92F808115971A42199710221D97192F8081219721B
:405FC00092F8F90184B208E0021B574B234493F8F9115B4B9954013CA4B2002CF4D109230CE0A3F1090256498A5CD2B25349CA5412B93021514AD15401339BB20D2BF0D955
:40600000504B1B78053BDBB2012B0CD901231BE003F10D014C4AD21A92F8EB01474A505401339BB200E001233F4A92F8EB219A42EED20EE003F10D01444AD21A92F8EB01E6
:406040003E4A505401339BB2374A92F8EB219A42F0D23A4B1B7D1BB9384B30221A755A75384B1B78053BDBB2012B0CD901231BE003F11501344AD21A92F8DD012F4A50548E
:4060800001339BB200E00123274A92F8DD219A42EED20EE003F115012C4AD21A92F8DD01264A505401339BB21F4A92F8DD219A42F0D2224B1B7F1BB9204B30221A775A77E6
:4060C0001E4D28461F21FFF73BFDA8770A2001F04DF805E0194B185D01F00CFF0134A4B21E2CF7D90A2001F041F80F4B082283F80B2200220F4981F8352183F80F220A4BB1
:4061000093F80D327BB1084B93F80E1203EBC10293F8080102F2BD12FDF7A6F918B10022014B83F80D2238BD9C84FF1F2084FF1F208EFF1F848CFF1F7C8CFF1F5093FF1FD9
:40614000C088FF1F238EFF1FA384FF1FA584FF1F70B51E2001F00AF801F076FE002800F0D7830122A94B1A700024A94B1C7005E001F038FEA74B18550134A4B201F064FEA3
:406180000028F5D1A44BBC221A70CB225A70C8229A70A24A1178D97052781A719D4B1B78BC2B40F0B3839B4B5B78BB2B40F0AE83984B9B78B82B40F0A983984B1B78954A8A
:4061C000D2789A4240F0A283944B5B78914A12799A4240F09B838F4B9B79A62B00F0CB8105D8A12B0DD0A52B00F0B1808EE3E12B00F0C482E22B00F05D83A72B40F08683D5
:4062000076E2844B5A79864B1B789A4220D1844A92F80721C2B9804C6371A123A371804B93F80331E37120460921FFF789FC2072002405E0784B185D01F05CFE0134A4B22E
:40624000082CF7D9092404E0FFF794FC052400E00524704B5A79724B93F808319A4226D16F4A92F80F2202BB6B4D6B71631C9BB2A122EA5401339BB2694A92F80B22EA54B4
:406280005C1CA4B2991C284689B2FFF759FC28550134A4B2002505E05F4B585D01F02AFE0135ADB2A542F7D301E0FFF7D5FD594B5A795B4B93F810329A421FD1564D6B71B9
:4062C000631C9BB2A122EA5401339BB2544A92F81323EA545C1CA4B2991C284689B2FFF72FFC28550134A4B2002505E04A4B585D01F000FE0135ADB2A542F7D3454B5A7973
:40630000474B93F818339A4240F00083424D6B71631C9BB2A122EA5401339BB2404A92F81B24EA545C1CA4B2991C284689B2FFF707FC28550134A4B2002505E0364B585DAF
:4063400001F0D8FD0135ADB2A542F7D3DEE2314B5B79334A1078834279D1FCF72BFE304A11782D4B5971E821997192F80321DA7100221A720122092463E0274B1A55013429
:40638000A4B2284B1B78053BDBB2012B0BD90C2337E02349194448781F4908550134A4B2013B9BB200E00823002BF2D106E03020194908550134A4B201339BB2032BF6D905
:4063C000082308E016491944087C134908550134A4B2013B9BB2002BF4D106E030200E4908550134A4B201339BB2032BF6D926E00B4919444878084908550134A4B2013BAE
:406400009BB2002BF4D10C2317E000BF668AFF1F9193FF1F9C8FFF1F788AFF1F208EFF1F9C84FF1F238EFF1FAD491944087CAD4908550134A4B2013B9BB2002BF4D1013247
:4064400092B2A74B93F80231934296D200E00524A54B5B79A24A92F80801834275D1FCF7A9FD9F4991F808319E4A5371631C9BB2E820D05401339BB291F80B12D15401332D
:406480009BB20021D15401339CB2012258E0954B1A550134A4B2954B1B78053BDBB2012B0CD90C233AE08E49194491F809018D4908550134A4B2013B9BB200E00823002BB4
:4064C000F1D106E03020874908550134A4B201339BB2032BF6D9082309E08149194491F81801804908550134A4B2013B9BB2002BF3D106E030207B4908550134A4B2013352
:406500009BB2032BF6D919E07549194491F80901744908550134A4B2013B9BB2002BF3D10C2309E06E49194491F818016D4908550134A4B2013B9BB2002BF3D1013292B2F2
:40654000674B93F80A329342A1D2664EA4F109033372651CADB230462946FFF7F1FA3055002405E05F4B185D01F0C4FC0134A4B2AC42F7D3CAE15C4B5A79594B18788242FC
:406580000DD005241DE0584C257AE45C544901EBC501194481F8AC4001339BB200E009230D2BF0D94E4B012183F805114E49097A83F806114B4B5871A62199710321D97120
:4065C0000824474B93F80801824223D10BE0464D2E7AED5C424901EBC601194481F8B45101339BB200E009230D2BF0D93C4B012183F80D123C49097A83F80E12394948715A
:40660000631C9BB2A620C85401339BB20320C85401339CB2324B93F81002824223D10BE0314D2E7AED5C2E4901EBC601194481F8BC5201339BB200E009230D2BF0D9284B2F
:40664000012183F815132849097A83F8161325494871631C9BB2A620C85401339BB20320C85401339CB21E4B93F818138A4223D10BE01D48057AC05C194A02EBC5021A4467
:4066800082F8C40301339BB200E009230D2BF0D9134B012283F81D24134A127A83F81E24104A5171631C9BB2A621D15401339BB20321D15401339CB2651CADB2094E30465B
:4066C0002946FFF73DFA3055002405E0054B185D01F010FC0134A4B2AC42F7D316E100BF9C84FF1F788AFF1F9C8FFF1F238EFF1F884B5B79884A11788B4207D1874A517105
:40670000A7219171844991F80311D171824A92F808118B4207D1814A5171A72191717E4991F80B12D1717C4A92F810128B4207D17A4A5171A7219171774991F81313D171B1
:40674000754A92F81823934207D1744B5A71A7229A71714A92F81B24DA71704C20460921FFF7EEF92072002405E06C4B185D01F0C1FB0134A4B2082CF7D9C7E0654B197AA5
:40678000674A5170597A674A1170997A5170D97A9170197B644A51705B7B1370112307E0A3F111025B49C85C6049885401339BB22E2BF5D92F2307E0A3F12F025549C85C67
:4067C0005B49885401339BB24C2BF5D94D2307E0A3F14D024F49C85C5649885401339BB26A2BF5D96B2307E0A3F14D024949C85C5149885401339BB2882BF5D9454B1A7C52
:406800004E4B1A70FEF700F8FDF7A2FF002408E004F11001454B185D89B200F05FFE0134A4B21D2CF4D91E240AE0A4F11E0304F110013F4AD05C89B200F050FE0134A4B2D2
:406840003B2CF2D93C240AE0A4F11E0304F11001384AD05C89B200F041FE0134A4B2592CF2D95A240AE0A4F11E0304F11001324AD05C89B200F032FE0134A4B2772CF2D9CD
:406880000C2000F095FE244C20700D2000F090FE84F808010E2000F08BFE84F810020F2000F086FE84F81803254B18782178FEF7CFF82BE0174B5B79184C6371E223A371A3
:4068C0000823E3710323237220460A21FFF738F96072002405E0114B185D01F00BFB0134A4B2092CF7D9082307E0A3F108020949C85C1449885401339BB20B2BF5D9054B3F
:40690000187B114B1870072100F0E8FD01F0D0FA70BD00BF9C8FFF1F9C84FF1F788AFF1F1C8EFF1F3C93FF1F908FFF1FD48DFF1F1493FF1F488AFF1F7C84FF1F298AFF1F80
:406940004993FF1F348AFF1F0C8EFF1FFEE700BF08B5104E104D16E029686B68AC68002204E051F8040B43F8040B0432A242F8D1E868002203E0002143F8041B04328242AA
:40698000F9D11035013E002EE6D101F08DFDFCF73FFAFEE7010000004C0D010008B5124A124B1A60124A136843F40073136000230AE0032B03D80F4A52F8231000E00E49B6
:4069C0000E4A42F8231001332F2BF2D90C4B1A780C4B1A70094A0C4B1A6000F0CFF800220A4B1A6008BD00BF0004FA050CED00E014ED00E0000000004D6900000080FF1F4E
:406A0000BC7600400481FF1F08ED00E00081FF1FFEE700BFF0B40022174611E050F82760F3B226F0FF0608E001EB420511F812406D78A5550132013BDBB2002BF4D101370D
:406A4000292FEBD9F0BC7047064B1B78DBB203F00701054A11701B09013213704422034B1A707047CF0100496E5800407658004008B50A46002101F048FD08BD38B53322F4
:406A8000304B1A80182330490B7002310A802F4A13704FF49C7204310A8002310B7002310A802B4A13704FF40271023211800232137045F6BF510232118002321370022249
:406AC000244B1A7008224FF040231A70032103F500731970204B1B78DBB220490B70204B1A8041F25122023B1A80002419250CE01C4B1B7803F0010343EA440404F003048F
:406B00004FF4F07000F020FB013D0DB1032CEFD115B90320FFF77CFF134B4FF480721A8007221A70002211490A704820023108701A700222033B1A700D4A137843F03F03A4
:406B4000137038BD8040004082400040864000408E4000400043004008010049A146004022420040254200400440004006400040A243004008B501F0BDFC08BD70B572B698
:406B80003A4A137843F00403137000240CE0384963001A1952000A4423445B00C8589188FFF766FF0134E4B20C2CF0D9002410E02F49A3001A1952000A4452F8500F23440E
:406BC0005B000B445168B3F85820FFF7D3FF0134E4B2042CECD94FF090402649FFF71AFF254A137843F0020313701032137843F002031370214C237843F040032370A2F515
:406C00008632513A137843F0100313701C481D490A22FFF7AFFF1C481C490A22FFF7AAFF1B481C490A22FFF7A5FF1B481B490A22FFF7A0FF1A481B490A22FFF79BFF1A4A93
:406C4000137843F008031370184E01253570FFF715FF81233370164B1D70FFF7F5FE154821460E22FFF786FF70BD00BFE8460040A00B0100A800004803500140A043004053
:406C8000C0510040DC10004810510040E810004820510040F41000485051004000110048605100400C110048224300400048004004000840B04300407222074B1A70202283
:406CC00001331A700622683B1A70472210331A70002250331A7070478964004010B500F03BFA04460A4A137843F0200313700132137843F010031370083A137843F01003B2
:406D0000137000F0A5FA204600F02AFA10BD00BF9964004008B5054B1B7823B9FFF7CCFF0122024B1A70FFF7D9FF08BDEC83FF1F08B500200C4900F05FFA0020072100F0F4
:406D40006FFA0023094A13707221094A11702021013211700621623A1170472110321170B03A137008BD00BF8D6E0000EE83FF1F8765004010B500F0EFF904460B4A137878
:406D800043F0200313700132137843F0100313700122074B1A60074A137843F01003137000F0B6F9204600F0DBF910BD9765004000E100E09664004008B5054B5B7823B956
:406DC000FFF7B6FF0122024B5A70FFF7D3FF08BDEE83FF1F0122134B1A60134A9378D278DBB2934206D1104B1B7913F0FF0F14D0202013E00C4A9378D278DBB2934205D2B1
:406E0000094AD3789078181AC0B207E0064AD3789078181A2030C0B200E000200122034B1A60704780E100E0EE83FF1F00E100E008B500F091F90B4B1A7842F001021A7079
:406E40001A7802F0FE021A7000F08AF90121064B1960064B00229A70DA701A715A71044B196008BD9865004080E100E0EE83FF1F00E100E0034B1B7813F0040FFAD1024B1E
:406E80001870704766640040466400401C4B1B78DBB213F01E0F05D01A4803F01E0201780A43027003F0200303F0FF022BB3164B1978C9B2154B1B78DBB21548C154154BBF
:406EC0001B7813F0FF0F02D00121134B19700F490B780133DBB20B700B78DBB21F2B02D900210A4B1970094B1B780C490978DBB28B4202D10121074B1970002AC6D1704769
:406F000068650040EE83FF1F48650040F183FF1F9893FF1FF283FF1FF383FF1FF083FF1F08B501200C4900F067F90120072100F077F90023094A13707221094A1170202168
:406F4000013211700621A2F5B47211704721103211705432137008BD7D700000F583FF1F8A65004010B500F0F7F804460B4A137843F0200313700132137843F0100313701F
:406F80000222074B1A60074A137843F01003137000F0CCF8204600F0E3F810BD9A65004000E100E09764004008B5054B5B7823B9FFF7B6FF0122024B5A70FFF7D3FF08BD21
:406FC000F583FF1F0222134B1A60134A9378D278DBB2934206D1104B1B7913F0FF0F14D0202013E00C4A9378D278DBB2934205D2094AD3789078181AC0B207E0064AD3784D
:407000009078181A2030C0B200E000200222034B1A60704780E100E0F583FF1F00E100E008B500F099F80B4B1A7842F001021A701A7802F0FE021A7000F092F80221064B38
:407040001960064B00229A70DA701A715A71044B196008BD9A65004080E100E0F583FF1F00E100E0034B1B7813F0040FFAD1024B1870704767640040476400401C4B1B78D8
:40708000DBB213F01E0F05D01A4803F01E0201780A43027003F0200303F0FF022BB3164B1978C9B2154B1B78DBB21548C154154B1B7813F0FF0F02D00121134B19700F4913
:4070C0000B780133DBB20B700B78DBB21F2B02D900210A4B1970094B1B780C490978DBB28B4202D10121074B1970002AC6D170476B650040F583FF1F4A650040F883FF1F10
:40710000B893FF1FF983FF1FFA83FF1FF783FF1F054A137843F0020313701032137843F002031370704700BFA2430040054A137843F0010313701032137843F00103137046
:40714000704700BFA24300400230800803D000BF01380046FCD17047EFF3108072B6704780F31088704700BF01BE704710B5044605E0084B1868FFF7E7FFA4F50044B4F5B4
:40718000004FF6D8034B586800FB04F0FFF7DCFF10BD00BF5883FF1F08B5034B1B7A03FB00F0FFF7D1FF08BD5883FF1F0E4B1A7802F0FC0200F00300104318701A7842F0E0
:4071C00080021A701A7802F07F021A7049011A7801F0600102F09F02114319701A7842F010021A70704700BF834300400122014B1A7070478443004070B504460E46074BAE
:407200001D681F2802D90020FFF7AEFF04F01F04103455F8240045F8246070BD08ED00E038B504460D46072902D90020FFF79CFF1F2C02D90020FFF797FF04F01F0000F139
