:400000000080002011000000096F0000096F000008B5044B1A6803F53F5302331A6006F075FF00BFFA46004010B5054C237833B9044B13B10448AFF300800123237010BD0D
:40004000D083FF1F000000006C8C0000084B10B51BB108480849AFF300800848036803B910BD074B002BFBD0BDE81040184700BF000000006C8C0000D483FF1F0881FF1FBD
:400080000000000008B508F049F8024A13780133137008BD4991FF1F08B508F0F3FA0849D1E90023013243F10003C1E900230549D1E90023013243F10003C1E9002308BDD1
:4000C000F08AFF1F688CFF1F08B507F0E3FC07F0EDFB07F04FF907F045FA07F0F9F807F099FD08F051F9044808F03EFB08F00EFB08F0A0FA08BD00BF9900000010B51C4B5F
:400100001878002107F0CAFC1A4B1878012107F0C5FC194B1878022107F0C0FC174B1878032107F0BBFC164B1878042107F0B6FC144B1878052107F0B1FC134B1878062167
:4001400007F0ACFC114C20780C2107F0A7FC94F812010D2107F0A2FC94F824020E2107F09DFC94F836030F2107F098FC10BD00BF8F8CFF1F9896FF1FF490FF1F908CFF1FE4
:400180009696FF1FB096FF1F4791FF1F9C84FF1F10B5022007F0ECFC234B1870032007F0E7FC224B1870042007F0E2FC204B1870052007F0DDFC1F4B1870062007F0D8FCEB
:4001C0001D4B1870072007F0D3FC1C4B1870082007F0CEFC1A4B1870092007F0C9FC194B18700A2007F0C4FC174C20700B2007F0BFFC60700423154A1370154A13700C20F4
:4002000007F0B6FC134C20700D2007F0B1FC84F812010E2007F0ACFC84F824020F2007F0A7FC84F8360310BDF490FF1F908CFF1F9696FF1FB096FF1F4791FF1F3091FF1FAD
:40024000B196FF1F4891FF1F4491FF1F0C81FF1F508CFF1F9C84FF1F10B59CB0994A19AB07CA03C31A80984B16AC93E8070003C42280964A13AC07CA03C4228010AC03F14A
:400280000C0207CA03C4227000228DF849200DAC03F1180103C984E80300ADF83C200AAC03F1240207CA03C4228007AC03F1300207CA03C4228004AC03F13C0207CA03C45D
:4002C000228001AC483393E8070003C42280804B1B78022B7AD10120014603F0B5FE012019A9002203F06AFF4FF4967007F01EFA784B1B785BB90133DBB2774A82F8023113
:4003000082F81432012016A9002203F057FF714B1B78012B0BD10133DBB26F4A82F8023182F81432012013A9002203F047FF694B1B78022B0BD10133DBB2674A82F80231CD
:4003400082F81432012010A9002203F037FF614B1B78032B0BD10133DBB25F4A82F8023182F8143201200DA9002203F027FF5B4B1B783BB901200AA9162203F01FFF0522F5
:40038000574B1A70554B1B78012B07D1012007A9162203F013FF0622514B1A704F4B1B78022B07D1012004A9162203F007FF07224B4B1A70494B1B78032B07D1012001A90C
:4003C000162203F0FBFE0822454B1A70404B1B78042B6DD101202E2103F036FE012019A9002203F0EBFE4FF4967007F09FF9394B1B787BB90133DBB2374A82F8023182F806
:40040000143282F8263382F83834012016A9002203F0D4FE2F4B1B78012B0FD10133DBB22D4A82F8023182F8143282F8263382F83834012013A9002203F0C0FE254B1B78CC
:40044000022B0FD10133DBB2234A82F8023182F8143282F8263382F83834012010A9002203F0ACFE1B4B1B78032B0FD10133DBB2194A82F8023182F8143282F8263382F89D
:40048000383401200DA9002203F098FE134B1B78012B04D1012007A9162203F08FFE0F4B1B78022B04D1012004A9162203F086FE074B1B78012B03D80120002103F0C4FD85
:4004C0001CB010BDFC8C0000708C0000088D0000FA96FF1F8F8CFF1F9C84FF1FB096FF1F4791FF1F08B5104B1B78022B06D10220012103F0A9FD00220C4B1A600A4B1B7864
:40050000042B03D102202E2103F09EFD064B1B78012B03D80220002103F096FD02200449002203F04BFE08BDFA96FF1FF092FF1F1481FF1F08B502F015FD2D4B1870002889
:4005400055D02C4B187802F0F5FC03F0C7FA50B90120002103F078FD0220002103F074FD0022234B1A70234B93F8120102F0E2FC03F0B4FA50B90120002103F065FD022005
:40058000002103F061FD0022194B1A70194B187802F0D0FC03F0A2FA48B3164B93F8120102F0C8FC03F09AFA08B302F0DBFC104B1870104B187802F0BDFC06280DD10D4BE0
:4005C00093F8120102F0B6FC062806D1094B187803F02AFCFFF792FD08BD0120092103F033FD0220092103F02FFDFFF7A3FF08BDFA96FF1F9C84FF1F70B58EB02E4C07ADBA
:4006000004F154060FCE0FC596E8070003C52A806D4670340FCC0FC594E8070003C52A80002408E00EAB2344012013F81C1C04F09BF80134E4B2192CF4D901200A2104F094
:4006400093F801200A2104F08FF801200A2104F08BF801200A2104F087F801200A2104F083F801200A2104F07FF8002408E00EAB2344022013F8381C04F076F80134E4B25A
:40068000192CF4D902200A2104F06EF802200A2104F06AF802200A2104F066F802200A2104F062F802200A2104F05EF802200A2104F05AF80EB070BD708C0000F0B585B0B9
:4006C000B14B1B68132B01F2E681DFE813F014002A006900C5008D01BB013902B1022103A9037F04D2045905E7053C06910735088A080B09DE09FFF7AFFD0122A24B1A6032
:4007000007F08EFD07F0F0FC0023A04A1370A04A82F8613082F803319E4A82F8073101F0BAB99D4BD3E900234FF42F700021994208BF90420ED2964B93F834312BB1974B76
:400740001878944B197804F0E1F900200021924BC3E9000108228F4B83F8032106F018FE082841F098818E4B1B78DBB2AA2B10D18B4B9B79DBB2C32B0BD1894BDB79DBB212
:400780003C2B06D10222804B1A600120042103F05BFC0A2006F0CAFF06F028FE01F07BB906F0F6FD082841F076817D4B1B78DBB2AA2B4AD17A4B9B79DBB2C32B45D1784B92
:4007C000DB79DBB23C2B40D1754BDB78DBB2452B24D004D80D2B07D00E2B10D035E07E2B2CD0942B22D030E00322674B1A600120674B83F86100052103F026FC25E00A22B1
:40080000614B1A600222624B83F8612000225F4B1A700120852103F017FC16E00C225A4B1A600120832103F00FFC0EE00022564B1A600120014603F007FC06E00022524B6E
:400840001A600120014603F0FFFB0A2006F06EFF06F0CCFD01F01FB906F09AFD082841F01A814F4B1B78DBB2AA2B40F0B6804C4B9B79DBB2C32B40F0B080494BDB79DBB21B
:400880003C2B40F0AA80464BDB78DBB23B2B00F0958004D80F2B0CD0102B26D09DE07E2B00F09480942B00F08180432B40F0958037E00422344B1A60354B022483F86340F1
:4008C000442283F864200025364B1D700120062103F0BAFB0120009001954E23029324210322234603F092FC77E00422264B1A60274B012483F86340562583F864500026E2
:40090000284B1E7020460D2103F09EFB009401964E230293204629460322022303F076FC5BE01B4B022283F86320462283F86420012306E0164A1A44392182F86510013372
:40094000DBB21A4618490978481E8342F2DB104B9C18302084F8650084F8660083F86510002307E00A4A1A4492F8650082F86F000133DBB28B42F5D90522034B1A6001209E
:40098000862103F061FB28E06091FF1F4991FF1FFC8AFF1F9C84FF1FF08AFF1FB196FF1F0097FF1F4A91FF1F4791FF1F0022984B1A600120014603F047FB0EE00022944BA4
:4009C0001A600120014603F03FFB06E00022904B1A600120014603F037FB0A2006F0A6FE06F004FD01F057B801208A4B1978002203F070FC18B1012815D001F04CB800224D
:400A0000834B1A600120014603F01EFB01F043B8814A1A4492F84B1082F8651082F86F100133DBB200E000237B4A92F84B209A42EED20522764B1A600120862103F004FBE2
:400A400001F029B806F0A4FC082841F02480734B1B78DBB2AA2B6CD1704B9B79DBB2C32B67D16E4BDB79DBB23C2B62D16B4BDB787E3B3A2B5DD8DFE803F055351E295C5CC4
:400A80005C5C5C5C5C5C5C5C5C5C5C5C5C5C5C5C4D5C5C5C5C5C5C5C5C5C5C5C5C5C5C5C5C5C5C5C5C5C5C5C5C5C5C5C5C5C5C5C5C5C5C5C41000622554B1A600120584B4E
:400AC00083F801010B2103F0BFFA32E00622504B1A600222524B83F8012101200B2103F0B3FA26E006224A4B1A6003224C4B83F8012101200B2103F0A7FA1AE00622444BDF
:400B00001A600422464B83F8012101200B2103F09BFA0EE000223E4B1A600120014603F093FA06E00120014603F08EFA0022384B1A600A2006F0FAFD06F058FC00F0ABBF74
:400B4000384807F05FFB07F02FFB06F021FC08284DD1324B1B78DBB2AA2B43D12F4B9B79DBB2C32B3ED12D4BDB79DBB23C2B39D12A4BDB78DBB2392B04D07E2B2BD0382B26
:400B800030D10FE00922224B1A600022264B1A70214B012083F8000183F834010A2103F053FA1FE01C4B93F803313BB10022184B1A600120014603F047FA13E00721144BCC
:400BC00019600023144A82F83431184A1370012003F03AFA06E000220D4B1A600120014603F032FA0A2006F0A1FD06F0FFFB0F4B1B781D2B40F24F870023054A13600B4A69
:400C000013700120014603F01FFA00F044BF00BF6091FF1F4791FF1FFC8AFF1F0097FF1F9C84FF1F850000004A91FF1F4991FF1FAC4C207803F0A8F9014684F8000194F885
:400C4000013198423BD1A84A92F863302078653203F0030302F060FF012822D107F0E0FA07F042FA2546207802F064F9207840F0100006F0B1FE012485F8074108219B4BEC
:400C8000196000229A4B1A70974D85F83541204603F0DAF9204605F16501122203F08EFA10E00021914B1960012003F0CDF9C82006F03CFD0120014603F0C6F902E007223A
:400CC0008A4B1A6006F064FB08281DD1894B1B78DBB2AA2B15D1874B9B79DBB2C32B10D1844BDB79DBB23C2B0BD1824BDB78DBB27E2B06D10120014603F0A6F900227B4B3F
:400D00001A600A2006F012FD06F070FB00F0C3BE744C207802F00EF984F804010638052800F2B986DFE810F00600B706B70616001F004F0000236D4A13600C21694A82F858
:400D40000311694A82F835310120014603F07CF900F0A1BE644B012283F83521002283F8032100F098BE5F4B187802F0D3FC002800F091865C4B93F83431012B0FD1002016
:400D800000215D4BC3E900010121574B83F803110022564B1A60084603F056F909E00622524B1A600120504B83F803010B2103F04BF900224C4B83F835210122494B83F81B
:400DC000072100F068BE474B187802F0A3FC002800F06186444B93F83431012B0CD100200021454BC3E900010022404B1A600120014603F029F909E006223C4B1A60012026
:400E0000394B83F803010B2103F01EF90022364B83F835210122334B83F8072100F03BBE01200A21002203F055FA18B1012845D000F031BE2C4B93F80031013B032B39D894
:400E4000DFE803F00A1D2935274A1A44002182F8DF100133DBB200E000230A2BF4D90022224B1A600120014603F0EEF822E01E4A1A44002182F8EA100133DBB200E00023A9
:400E80000A2BF4D916E0184A1A44002182F8F5100133DBB200E000230A2BF4D90AE0124A1A44002182F836110133DBB200E000230A2BF4D906F09AFA00F0EDBD0A4B93F8C4
:400EC0000031013B032B7DD8DFE803F01840565C054A1A4492F84B1082F8DF100133DBB20DE000BF9C84FF1FFC8AFF1F6091FF1F4991FF1F0097FF1FF08AFF1F0023B04A83
:400F000092F84B209A42E3D2AD4B93F803316BB1AC4B1878AC4B197803F0F8FD0022AB4B1A600120014603F08FF84BE00721A74B1960012003F088F844E0A14A1A4492F8A4
:400F40004B1082F8EA100133DBB200E000239C4A92F84B209A42F0D207219C4B1960012003F072F82EE0964A1A4492F84B1082F8F5100133DBB200E00023914A92F84B201B
:400F80009A42F0D2002307E08D4A1A4492F84B1082F836110133DBB20A2BF5D90E228B4B1A6000228A4B1A700A228A4B1A702A22894B1A700322824B83F8002101202521BF
:400FC00003F042F806F012FA00F065BD06F0E0F9082840F06085814B1B78DBB2AA2B41D17E4B9B79DBB2C32B3CD17C4BDB79DBB23C2B37D1794BDB78DBB2942B23D002D81D
:401000007E2B28D02EE0B62B02D0B72B0ED029E00B226E4B1A6000226D4B1A700120684B83F83401122103F00FF81BE00023644A82F800310721654A1160694A13700120FA
:4010400003F002F80EE00022604B1A600120014602F0FAFF06E00120014602F0F5FF00225A4B1A600A2006F061FB06F0BFF900F012BD5C4807F0C6F807F096F8012004F0AA
:401080000FFD01286CD1332104F04CFD40B967E0012004F0B1FD544B18550134E4B200E00124082CF4D90020012405E04E4B195D04F0DEFD0134E4B2072CF7D94A4B1B7A4D
:4010C000DBB283424CD110233D4A5370012230E010464549895C01F00F01092908DD4249895C374C1C4401F00F013731617007E03D49895C324C1C4401F00F013031617000
:40110000013BDBB23849095C9F2907D93649095C2B48184409093731417006E03249095C27481844090930314170013BDBB20132D2B2082ACCD90120132102F085FF06F0AD
:4011400055F94FF42F7006F0F1FA02221C4B83F8002109221D4B1A6001200E2102F074FF1F4B1B783B2B40F296840023174A13601B4A13700120014602F066FF00F08BBCF1
:4011800006F006F9082840F08684144B1B78DBB2AA2B7DD1114B9B79DBB2C32B78D10F4BDB79DBB23C2B73D10C4BDB78DBB2552B34D01BD83B2B54D0462B1ED068E000BF76
:4011C000FC8AFF1FB196FF1F9C84FF1F6091FF1F4A91FF1FFA8AFF1F3191FF1F0097FF1F4991FF1F850000005896FF1F942B40D0B52B28D07E2B4BD143E00D22AA4B1A60B3
:40120000AA4B1B78012B04D101202A2102F01CFF3EE00120232102F017FF39E00E22A24B1A600622A24B83F800210022A14B1A700522A14B1A702A22A04B1A700120252163
:4012400002F002FF24E00022974B1A609C4B012183F807110B2283F80321084602F0F4FE16E00022904B1A600120014602F0ECFE0EE000228C4B1A600120014602F0E4FE11
:4012800006E00022884B1A600120014602F0DCFE0A2006F04BFA06F0A9F8FCE306F078F8082840F0F883874B1B78DBB2AA2B44D1844B9B79DBB2C32B3FD1824BDB79DBB291
:4012C0003C2B3AD17F4BDB78DBB2482B17D002D8472B05D031E07E2B20D0942B26D02CE00922714B1A600022724B1A700422704B83F800210120242102F0A6FE1DE0092281
:40130000694B1A6000226B4B1A700422684B83F800210120242102F097FE0EE00120014602F092FE0022604B1A6006E00120014602F08AFE00225C4B1A600A2006F0F6F982
:4013400006F054F8A7E301205B4B19785B4B1A7802F0C0FF10B101286ED09CE3544B93F80031013B052B64D8DFE803F0091A2F6344570021544AD1540133DBB200E0002304
:40138000042BF6D90022484B1A600120014602F05BFE4EE000214D4AD1540133DBB200E00023454A12789342F4D300223E4B1A600120014602F048FE3BE03D4A1A440021E3
:4013C00082F841110133DBB200E000233A4A12789342F2D30022344B1A600120014602F033FE26E0324A1A44002182F841110133DBB200E00023304A12789342F2D30022BE
:40140000294B1A600120014602F01EFE11E000212F4AD1540133DBB200E001232C4A12789A42F4D20022204B1A600120014602F00BFE05F0DBFF2EE31D4B93F80031013B87
:40144000052B00F2D280DFE813F00F0052006800D0007E009400591C154A0A4492F84B00194AD054CBB200E00023042BF3D916480023037107F028FB80B2164B1880C3B2DB
:40148000154C2370000A607020780A2106F006FB60780B2106F002FB0F22034B1A6001205A2102F0D1FDA0E06091FF1F3091FF1FFC8AFF1F4A91FF1FFA8AFF1F3191FF1FCB
:4014C0009C84FF1F0097FF1F5096FF1F588CFF1F508CFF1F0095FF1F4491FF1F8D4A1A4492F84B108C4AD1540133DBB200E000238A4A12789342F1D30F22894B1A600120E3
:401500005A2102F0A1FD70E0824A1A4492F84B1082F841110133DBB200E000237F4A12789342F1D313227E4B1A600120392102F08BFD5AE0774A1A4492F84B1082F841114E
:401540000133DBB200E00023744A12789342F1D30F22734B1A6001205A2102F075FD44E06C4A1A4492F84B106E4AD1540133DBB200E001236B4A12789A42F1D2694B5A783A
:40158000694B5B789A4221D1664B9A78664B9B789A421BD1634BDA78634BDB789A4215D1604B1A79604B1B799A420FD10120262102F04AFD4FF42F7006F0B8F80F22584B8E
:4015C0001A6001205A2102F03FFD0EE00120272102F03AFD4FF42F7006F0A8F80022504B1A600120014602F02FFD05F0FFFE52E205F0CEFE082840F04E824C4B1B78DBB224
:40160000AA2B40F08180494B9B79DBB2C32B7BD1464BDB79DBB23C2B76D1444BDB78583B3C2B71D8DFE803F052703C70707070707070707070327070707070707070707046
:401640007070707070707070707070707070617070701F707070707070707070707070707070707069000E222D4B1A600023304A1370304A13700522284B1A700120254BAD
:4016800083F80001062102F0DFFC3DE01022244B1A60FEF7B1FF01206B2102F0D5FC33E00E221F4B1A600023214A1370214A137003221A4B1A700223174A1370154A82F851
:4016C00000310120062102F0BFFC1DE01222144B1A600022164B1A7004220E4B83F8002101203E2102F0B0FC0EE00120014602F0ABFC00220A4B1A6006E00120014602F054
:40170000A3FC0022064B1A600A2006F00FF805F06DFEC0E1FC8AFF1F588CFF1FFA8AFF1F6091FF1F508CFF1F0C81FF1F0097FF1F4A91FF1F3191FF1F05F02AFE082840F0EE
:40174000AA81644B1B78DBB2AA2B44D1614B9B79DBB2C32B3FD15F4BDB79DBB23C2B3AD15C4BDB78DBB2392B10D002D8382B05D031E07E2B20D0942B26D02CE01122564B21
:401780001A600120672102F05FFC24E00F22524B1A600124514B1C70514D02232B702046082106F07BF92878092106F077F920465A2102F049FC0EE00120014602F044FCF9
:4017C0000022454B1A6006E00120014602F03CFC0022414B1A600A2005F0A8FF05F006FE59E105F0D5FD082840F05581394B1B78DBB2AA2B68D1374B9B79DBB2C32B63D130
:40180000344BDB79DBB23C2B5ED1324BDB787E3B162B59D8DFE803F049585858585858585858585858580C2035585858585851000F22294B1A600220284B1870284C207092
:40184000082106F02BF92078092106F027F901205A2102F0F9FB37E00F221F4B1A6001241E4B1C701E4D2C702046082106F016F92878092106F012F920465A2102F0E4FB6D
:4018800022E00F22144B1A600020144B1870144C2070082106F002F92078092106F0FEF801205A2102F0D0FB0EE00120014602F0CBFB0022084B1A6006E00120014602F0C7
:4018C000C3FB0022044B1A600A2005F02FFF05F08DFDE0E00097FF1F6091FF1FB196FF1F4891FF1F02F0C0FF01283CD16B4F7978C1F30011303101240094002601964E25F2
:4019000002952046C9B20D22082302F07FFC797801F00F01009401960295204630310D22092302F073FC00940196029520463A210D220A2302F06AFC39780909009401960C
:401940000295204630310D220B2302F05FFC397801F00F01009401960295204630310D220C2302F053FC02F023FF01285DD14C4F3978C1F3011101240094002601964E251F
:401980000295204630311522082302F03FFC397801F00F01009401960295204630311522092302F033FC00940196029520462F2115220A2302F02AFC7978C1F30011303170
:4019C0000094019602952046C9B215220B2302F01DFC797801F00F010094019602952046303115220C2302F011FC00940196029520462F2115220D2302F008FCB9780909DC
:401A00000094019602952046303115220E2302F0FDFBB97801F00F010094019602952046303115220F2302F0F1FB05F0B1FC082831D11C4B1B78DBB2AA2B20D1194B9B7930
:401A4000DBB2C32B1BD1174BDB79DBB23C2B16D1144BDB78DBB27E2B02D0942B08D00EE00022114B1A600120014602F0EDFA06E000220D4B1A600120014602F0E5FA0A20B9
:401A800005F054FE05F0B2FC05E00123074A82F80731074A137005B0F0BD00BFB496FF1F3491FF1F0097FF1F6091FF1F9C84FF1FF88AFF1FF0B585B0B64B1B68132B01F2BF
:401AC000D681DFE813F014002B005400B0007701A50123029B020A0398037004C4044A05D7052C06810725087908FB08CE09FEF7F9FC0122A74B1A600822A74B83F815220A
:401B000006F0BCFB06F096FB0023A44A1370A44A82F8613082F8033101F0A9B90220232102F01EFB08229C4B83F8152205F028FD082841F09C819B4B1B78DBB2AA2B0FD15C
:401B4000984B9B79DBB2C32B0AD1964BDB79DBB23C2B05D102208F4B1860042102F074FA0A2005F0E3FD05F039FD01F080B905F007FD082841F07B818A4B1B78DBB2AA2BAC
:401B80004AD1884B9B79DBB2C32B45D1854BDB79DBB23C2B40D1834BDB78DBB2452B24D004D80D2B07D00E2B11D035E07E2B2CD0942B22D030E00322764B1A600122784B91
:401BC00083F861200220052102F03EFA24E00A22704B1A600220724B83F861000022724B1A70852102F030FA16E00C22694B1A600220832102F028FA0EE00022654B1A60C6
:401C00000220012102F020FA06E00022614B1A600220012102F018FA0A2005F087FD05F0DDFC01F024B905F0ABFC082841F01F815C4B1B78DBB2AA2B40F0A480594B9B795A
:401C4000DBB2C32B40F09E80564BDB79DBB23C2B40F09880534BDB78DBB23B2B00F0838004D80F2B0BD0102B26D08BE07E2B00F08280942B6FD0432B40F0848038E004228D
:401C8000444B1A60464B022483F86340442283F864200025454B1D702046062102F0D4F90123009301954E230293204624210322234602F0ABFA65E00422364B1A60384B47
:401CC000012683F86360562483F864400025374B1D7002200D2102F0B7F9009601954E230293022021460322034602F08FFA49E02B4B022283F86320462283F864200123D0
:401D000006E0274A1A44392182F865100133DBB21A4627490978481E8342F2DB204B9C18302084F8650084F8660083F86510002307E01B4A1A4492F8650082F86F000133A0
:401D4000DBB28B42F5D90522124B1A600220862102F07AF916E000220E4B1A600220012102F072F90EE000220A4B1A600220012102F06AF906E00022064B1A6002200121F4
:401D800002F062F90A2005F0D1FC05F027FC01F06EB800BFF092FF1F9C84FF1FF98AFF1FA88FFF1F2097FF1F4991FF1F4A91FF1F4791FF1F0220894B1978002202F08AFA4D
:401DC00018B1012815D001F052B80022844B1A600220012102F038F901F049B8814A1A4492F84B1082F8651082F86F100133DBB200E000237B4A92F84B209A42EED2052216
:401E0000774B1A600220862102F01EF901F02FB805F0B6FB082841F02A80734B1B78DBB2AA2B6CD1704B9B79DBB2C32B67D16E4BDB79DBB23C2B62D16B4BDB787E3B3A2B3E
:401E40005DD8DFE803F055351E2A5C5C5C5C5C5C5C5C5C5C5C5C5C5C5C5C5C5C4D5C5C5C5C5C5C5C5C5C5C5C5C5C5C5C5C5C5C5C5C5C5C5C5C5C5C5C5C5C5C5C5C5C5C5C48
:401E800041000622564B1A600122584B83F8132202200B2102F0D8F831E00622504B1A600220524B83F813020B2102F0CDF826E006224B4B1A6003224C4B83F813220220CC
:401EC0000B2102F0C1F81AE00622454B1A600422464B83F8132202200B2102F0B5F80EE000223F4B1A600220012102F0ADF806E00220012102F0A8F80022394B1A600A2096
:401F000005F014FC05F06AFB00F0B1BF384806F079F906F049F905F033FB08284ED1324B1B78DBB2AA2B44D12F4B9B79DBB2C32B3FD12D4BDB79DBB23C2B3AD12A4BDB781D
:401F4000DBB2392B04D07E2B2CD0382B31D110E00922234B1A600022264B1A70214B012283F8002183F8342102200A2102F06CF81FE01C4B93F803313BB10022184B1A60C4
:401F80000220012102F060F813E00721144B19600023144A82F83431174A1370022002F053F806E000220E4B1A600220012102F04BF80A2005F0BAFB05F010FB0E4B1B78E9
:401FC0001D2B40F254870023054A13600A4A13700220012102F038F800F049BF4791FF1FF092FF1FA88FFF1F2097FF1F9C84FF1F850000004A91FF1F4991FF1FAE4C94F878
:40200000120101F0C1FF014684F8120294F81332984239D1A94A92F8633094F81201653203F0030301F078FD01281FD106F026F906F000F994F8120100F07CFF94F81201E5
:4020400040F0100005F0C8FC012384F8193208219B4B196000229B4B1A70022001F0F4FF02209949122202F0A9F810E00021944B1960022001F0E8FFC82005F057FB0220DD
:40208000012101F0E1FF02E007228D4B1A6005F077FA08281DD18D4B1B78DBB2AA2B15D18A4B9B79DBB2C32B10D1884BDB79DBB23C2B0BD1854BDB78DBB27E2B06D102200B
:4020C000012101F0C1FF00227D4B1A600A2005F02DFB05F083FA00F0CABE774C94F8120100F028FF84F816020638052800F2BF86DFE810F00600BD06BD0616001F005000F1
:4021000000236F4A13600C216B4A82F815126B4A82F835310220012101F096FF00F0A7BE664B012283F83521002283F8032100F09EBE614B93F8120101F0ECFA002800F02E
:4021400096865E4B93F83431012B0ED1604B1878594B93F8121102F0D9FC0022584B1A600220012101F070FF0AE00622544B1A600122524B83F8032102200B2101F064FF3C
:4021800000224E4B83F8352101224B4B83F8192200F06DBE484B93F8120101F0BBFA002800F06586454B93F83431012B0ED1484B1878414B93F8121102F0A8FC0022404B04
:4021C0001A600220012101F03FFF0AE006223C4B1A600122394B83F8032102200B2101F033FF0022354B83F835210122324B83F8192200F03CBE02200A21002202F06AF8B2
:4022000018B1012845D000F032BE2C4B93F80031013B032B39D8DFE803F00A1D2935274A1A44002182F8DF100133DBB200E000230A2BF4D90022224B1A600220012101F06D
:4022400003FF22E01D4A1A44002182F8EA100133DBB200E000230A2BF4D916E0174A1A44002182F8F5100133DBB200E000230A2BF4D90AE0114A1A44002182F83611013366
:40228000DBB200E000230A2BF4D905F0A7F900F0EEBD0A4B93F80031013B032B7FD8DFE803F01942585E054A1A4492F84B1082F8DF100133DBB20EE09C84FF1FA88FFF1F82
:4022C000F092FF1FF98AFF1F0D90FF1F2097FF1F4891FF1F0023B04A92F84B209A42E2D2AD4B93F8033173B1AC4B1878AC4B93F8121102F00BFC0022AA4B1A60022001219F
:4023000001F0A2FE4BE00721A64B1960022001F09BFE44E0A04A1A4492F84B1082F8EA100133DBB200E000239B4A92F84B209A42F0D207219B4B1960022001F085FE2EE077
:40234000954A1A4492F84B1082F8F5100133DBB200E00023904A92F84B209A42F0D2002307E08D4A1A4492F84B1082F836110133DBB20A2BF5D90E228A4B1A6000228A4B6C
:402380001A700A22894B1A702A22894B1A700322814B83F800210220252101F055FE05F01DF900F064BD05F0EBF8082840F05F85804B1B78DBB2AA2B42D17E4B9B79DBB2B1
:4023C000C32B3DD17B4BDB79DBB23C2B38D1794BDB78DBB2942B24D002D87E2B29D02FE0B62B02D0B72B0FD02AE00B226D4B1A6000226D4B1A700122674B83F834210220E0
:40240000122101F021FE1BE00023634A82F800310721644A1160684A1370022001F014FE0EE000225F4B1A600220012101F00CFE06E00220012101F007FE0022594B1A606F
:402440000A2005F073F905F0C9F800F010BD5B4805F0D8FE05F0A8FE022003F021FB01286BD1332103F05EFB40B966E0022003F0C3FB534B18550134E4B200E00124082CFE
:40248000F4D90020012405E04D4B195D03F0F0FB0134E4B2072CF7D9494B1B7ADBB283424BD110233C4A5370012230E010464449895C01F00F01092908DD4149895C364C54
:4024C0001C4401F00F013731617007E03C49895C314C1C4401F00F0130316170013BDBB23749095C9F2907D93549095C2A48184409093731417006E03149095C2648184420
:40250000090930314170013BDBB20132D2B2082ACCD90220132101F097FD05F05FF84FF42F7005F003F902201B4B83F8000109221C4B1A600E2101F087FD1F4B1B783B2B0F
:4025400040F295840023174A13601B4A13700220012101F079FD00F08ABC05F011F8082840F08584134B1B78DBB2AA2B7CD1114B9B79DBB2C32B77D10E4BDB79DBB23C2B75
:4025800072D10C4BDB78DBB2552B33D01AD83B2B53D0462B1DD067E0A88FFF1F4891FF1F9C84FF1FF092FF1F4A91FF1FFA8AFF1F3191FF1F2097FF1F4991FF1F8500000007
:4025C0005896FF1F942B40D0B52B28D07E2B4BD143E00D22AA4B1A60AA4B1B78012B04D102202A2101F030FD3EE00220232101F02BFD39E00E22A24B1A600622A24B83F8B1
:4026000000210022A14B1A700522A14B1A702A22A04B1A700220252101F016FD24E00022974B1A609C4B012183F819120B2283F81522022001F008FD16E00022904B1A6082
:402640000220012101F000FD0EE000228C4B1A600220012101F0F8FC06E00022884B1A600220012101F0F0FC0A2005F05FF804F0B5FFFCE304F084FF082840F0F883874B07
:402680001B78DBB2AA2B44D1844B9B79DBB2C32B3FD1824BDB79DBB23C2B3AD17F4BDB78DBB2482B17D002D8472B05D031E07E2B20D0942B26D02CE00922714B1A6000226F
:4026C000724B1A700422704B83F800210220242101F0BAFC1DE00922694B1A6000226B4B1A700422684B83F800210220242101F0ABFC0EE00220012101F0A6FC0022604B4A
:402700001A6006E00220012101F09EFC00225C4B1A600A2005F00AF804F060FFA7E302205B4B19785B4B1A7801F0D4FD10B101286ED09CE3544B93F80031013B052B64D82C
:40274000DFE803F0091A2F6344570021544AD1540133DBB200E00023042BF6D90022484B1A600220012101F06FFC4EE000214D4AD1540133DBB200E00023454A127893421D
:40278000F4D300223E4B1A600220012101F05CFC3BE03D4A1A44002182F841110133DBB200E000233A4A12789342F2D30022344B1A600220012101F047FC26E0324A1A44D4
:4027C000002182F841110133DBB200E00023304A12789342F2D30022294B1A600220012101F032FC11E000212F4AD1540133DBB200E001232C4A12789A42F4D20022204B73
:402800001A600220012101F01FFC04F0E7FE2EE31D4B93F80031013B052B00F2D280DFE813F00F0052006800D0007E009400591C154A0A4492F84B00194AD054CBB200E0C0
:402840000023042BF3D916480023037106F03CF980B2164B1880C3B2154C2370000A607020780A2105F01AF960780B2105F016F90F22034B1A6002205A2101F0E5FBA0E0F2
:40288000F092FF1F3091FF1FA88FFF1F4A91FF1FFA8AFF1F3191FF1F9C84FF1F2097FF1F5096FF1F588CFF1F508CFF1F0095FF1F4491FF1F8D4A1A4492F84B108C4AD154FB
:4028C0000133DBB200E000238A4A12789342F1D30F22894B1A6002205A2101F0B5FB70E0824A1A4492F84B1082F841110133DBB200E000237F4A12789342F1D313227E4B87
:402900001A600220392101F09FFB5AE0774A1A4492F84B1082F841110133DBB200E00023744A12789342F1D30F22734B1A6002205A2101F089FB44E06C4A1A4492F84B10CF
:402940006E4AD1540133DBB200E001236B4A12789A42F1D2694B5A78694B5B789A4221D1664B9A78664B9B789A421BD1634BDA78634BDB789A4215D1604B1A79604B1B796D
:402980009A420FD10220262101F05EFB4FF42F7004F0CCFE0F22584B1A6002205A2101F053FB0EE00220272101F04EFB4FF42F7004F0BCFE0022504B1A600220012101F050
:4029C00043FB04F00BFE52E204F0DAFD082840F04E824C4B1B78DBB2AA2B40F08180494B9B79DBB2C32B7BD1464BDB79DBB23C2B76D1444BDB78583B3C2B71D8DFE803F042
:402A000052703D7070707070707070707033707070707070707070707070707070707070707070707070617070701F707070707070707070707070707070707069000E22AB
:402A40002D4B1A600023304A1370304A13700522284B1A700122254B83F800210220062101F0F2FA3CE01022234B1A60FDF7C4FD02206B2101F0E8FA32E00E221E4B1A603D
:402A80000023214A1370214A13700322194B1A700220174B1870154B83F80001062101F0D3FA1DE01222144B1A600022164B1A7004220E4B83F8002102203E2101F0C4FAD5
:402AC0000EE00220012101F0BFFA00220A4B1A6006E00220012101F0B7FA0022064B1A600A2004F023FE04F079FDC0E1A88FFF1F588CFF1FFA8AFF1FF092FF1F508CFF1F73
:402B00000C81FF1F2097FF1F4A91FF1F3191FF1F04F036FD082840F0AA81644B1B78DBB2AA2B43D1614B9B79DBB2C32B3ED15F4BDB79DBB23C2B39D15C4BDB78DBB2392BA1
:402B400010D002D8382B05D030E07E2B1FD0942B25D02BE01122564B1A600220672101F073FA23E00F22524B1A600120514B1870514D02242C70082104F090FF2878092140
:402B800004F08CFF20465A2101F05EFA0EE00220012101F059FA0022454B1A6006E00220012101F051FA0022414B1A600A2004F0BDFD04F013FD5AE104F0E2FC082840F0F3
:402BC00056813A4B1B78DBB2AA2B68D1374B9B79DBB2C32B63D1354BDB79DBB23C2B5ED1324BDB787E3B162B59D8DFE803F049585858585858585858585858580C213558DF
:402C00005858585851000F22294B1A600224294B1C70294D2C702046082104F03FFF2878092104F03BFF20465A2101F00DFA36E00F221F4B1A6001201E4B18701E4C2070C3
:402C4000082104F02BFF2078092104F027FF02205A2101F0F9F922E00F22154B1A600020144B1870144C2070082104F017FF2078092104F013FF02205A2101F0E5F90EE058
:402C80000220012101F0E0F90022094B1A6006E00220012101F0D8F90022054B1A600A2004F044FD04F09AFCE1E000BF2097FF1FF092FF1FB196FF1F4891FF1F01F0D4FD42
:402CC00001283CD16B4F7978C1F30011303101260096002501954E2402940220C9B20D22082301F093FA797801F00F01009601950294022030310D22092301F087FA00963E
:402D00000195029402203A210D220A2301F07EFA39780909009601950294022030310D220B2301F073FA397801F00F01009601950294022030310D220C2301F067FA01F0CA
:402D400037FD01285DD14C4F3978C1F3011101260096002501954E240294022030311522082301F053FA397801F00F01009601950294022030311522092301F047FA0096F1
:402D80000195029402202F2115220A2301F03EFA7978C1F3001130310096019502940220C9B215220B2301F031FA797801F00F010096019502940220303115220C2301F063
:402DC00025FA00960195029402202F2115220D2301F01CFAB97809090096019502940220303115220E2301F011FAB97801F00F010096019502940220303115220F2301F055
:402E000005FA04F0BDFB082831D11C4B1B78DBB2AA2B20D1194B9B79DBB2C32B1BD1174BDB79DBB23C2B16D1144BDB78DBB27E2B02D0942B08D00EE00022114B1A6002209F
:402E4000012101F001F906E000220D4B1A600220012101F0F9F80A2004F068FC04F0BEFB05E00123074A82F81932074A137005B0F0BD00BFB496FF1F3491FF1F2097FF1FE2
:402E8000F092FF1F9C84FF1FF88AFF1F08B562B6FDF71AF9FDF74EFBFDF77AF90320002104F064FC04F082FC03F0ECFBFDF706FC04F07CFCFEF7FEFD04F078FC194B1B787F
:402EC000DBB2012B0DD1184B187800F0DBF830B1154B012283F80721002283F8192204F065FC104B1B78DBB2022B0ED10E4B93F8120100F0C7F830B10B4B012283F8192214
:402F0000002283F8072104F051FC084A13780133DBB213701378DBB20A2BC3D90022044B1A70BFE7488CFF1F9C84FF1FF996FF1F8E8CFF1F10B5044604F02CFD204604F045
:402F40004BFD3C2004F0F2FB04F0F0FC38B104F0BBFCC0F3071404F01DFD204610BD002010BD00BF10B5464BFF221A7083F8122183F8242283F83623012454E0204604F0A6
:402F80002BFD642004F0D2FB04F0D0FC38B13C4B1B78FF2B03D13A4B1C7004F0FBFC04F0C5FC68B1364B1B78A34209D0344B93F81231FF2B04D1324B83F8124104F0EAFCD6
:402FC00004F0B4FC90B12E4B1B78A3420ED02C4B93F81231A34209D0294B93F82432FF2B04D1274B83F8244204F0D4FC04F09EFCB8B1234B1B78A34213D0214B93F81231B5
:40300000A3420ED01E4B93F82432A34209D01C4B93F83633FF2B04D1194B83F8364304F0B9FC0134E4B2102CA8D9154B1B78FF2B0ED0134A92F81221FF2A09D0104A92F8E7
:403040002422FF2A04D00E4A92F83623FF2A0FD1FF2B04D00A4A92F81221FF2A0AD1FF2B0AD1074B93F81231FF2B07D0012010BD042010BD022010BD012010BD002010BDE7
:403080009C84FF1FF8B5054604F084FC45F0500004F0A2FC04F08AFB4FF4617004F046FB04F084FB04F042FCC0B2222806D0402804D05E2802D07C2840F02281B44B1B78B9
:4030C000DBB2FF2B40F01881B14B5B78DBB2F62B40F01281AE4BDB78DBB2F92B40F00C81AC4CA4FB0030C0F30214AB4B1B78AB421DD0002699E0C5EB051006EB4603C3EB17
:40310000031203461344A44A13440B4400225A700131C9B200E000210D29ECD90135EDB200E00025022DF6D90136F6B200E00026032EF6D900252F4655E02B1D944AD05CD3
:40314000C6EB061E07EB4703C3EB031273461344914A13445B1A00F00F0230329A720135EDB2022E01D1042905D00131C9B200E001210829E1D90135EDB20136F6B200E04E
:403180000026022EF4D90735EDB204220CE007EB4703C3EB031380490B44D11891F823101344D977013AD2B2002AF0D107EB4703C3EB0313784A134408225A701A74042230
:4031C000DA77764B1B78DBB2012B0AD107EB4703C3EB0313704A13440522DA77302283F824200137FFB2A742CAD304F0D3FB2046F8BDC5EB051006EB4603C3EB03120346A5
:403200001344654A13440B44002283F813210131C9B200E000210D29EBD90135EDB200E00025022DF6D90136F6B2032EF8D900252F465BE02B1D564AD05CC6EB061E07EB00
:403240004703C3EB031273461344534A13445B1A00F00F02303283F81C210135EDB2022E01D1042905D00131C9B200E001210829E0D90135EDB20136F6B200E00026022E51
:40328000F4D90735EDB204220DE007EB4703C3EB031341490B44D11891F83511134483F83111013AD2B2002AEFD107EB4703C3EB0313394A1344082283F8132183F8222194
:4032C000042283F83121354B1B78DBB2012B0BD107EB4703C3EB03132F4A1344052283F83121302283F836210137FFB2A742C5D304F050FB2046F8BD04F04CFB0020F8BD77
:403300002E2806D0582804D0822802D0AC2840F00B811F4B1B78DBB2FF2B40F001811C4B5B78DBB2F62B40F0FB80194BDB78DBB2F92B40F0F5801A4CA4FB00304409164B18
:403340001B78AB421DD0002694E0C5EB051006EB4603C3EB0312034613440F4A13440B4400225A700131C9B200E000210D29ECD90135EDB200E00025022DF6D90136F6B299
:4033800000E00026032EF6D900252F4650E000BF4097FF1F898888889C84FF1FB092FF1FCDCCCCCC2B1D624AD05CC6EB061E07EB4703C3EB0312734613445E4A13445B1A21
:4033C00000F00F0230329A730135EDB2022E01D1062905D00131C9B200E001210C29E1D90135EDB20136F6B200E00026022EF4D90935EDB206220CE007EB4703C3EB03133C
:403400004C490B44D11891F825101344D977013AD2B2002AF0D107EB4703C3EB0313454A13440C225A701A740622DA770137FFB2A742DAD304F0AEFA2046F8BDC5EB0510D0
:4034400006EB4603C3EB031203461344394A13440B44002283F813210131C9B200E000210D29EBD90135EDB200E00025022DF6D90136F6B2032EF8D900252F464AE02B1D48
:403480002B4AD05CC6EB061E07EB4703C3EB031273461344274A13445B1A00F00F02303283F820210135EDB2022E01D1062905D00131C9B200E001210C29E0D90135EDB2DE
:4034C0000136F6B200E00026022EF4D90935EDB206220DE007EB4703C3EB031315490B44D11891F83711134483F83111013AD2B2002AEFD107EB4703C3EB03130D4A134426
:403500000C2283F8132183F82221062283F831210137FFB2A742D6D304F03CFA2046F8BD04F038FA0020F8BD04F034FA0020F8BD4097FF1F9C84FF1FF0B585B004460E469E
:403540001546714F6B4638687968BA6807C3B989BA7B19809A70012310E0EA5C2C2A0BD105E0EA1812F8012CEA54013BDBB2012BF7D830236B7003E00133DBB2062BECD984
:40358000624B1B78072B4CD0E5238DF8013006F00F0363F01F038DF804305D4B1B7813F0FF0F0DD000231AE0EA5C04A9194402F00F0262F01F0201F80A2C0133DBB200E0AD
:4035C0000023032BF0D90CE0EA5C04A9194402F00F0262F01F0201F80A2C0133DBB2022BF2D9FB238DF80A3000230CE004AA1A4412F8102C02F00F029DF80B100A448DF853
:403600000B200133DBB20A2BF0D99DF80B305B4203F00F0363F01F038DF80B30F0238DF80C303A4B1B78072B39D1E3238DF8013006F00F0666F01F068DF8046000230AE099
:40364000EA5C04A9194402F00F0262F01F0201F80A2C0133DBB2052BF2D9FB238DF80C3000230CE004AA1A4412F8102C02F00F029DF80D100A448DF80D200133DBB20C2BAC
:40368000F0D99DF80D305B4203F00F0363F01F038DF80D30F0238DF80E300E2600E00C2604F078F944F0200004F096F9642004F03DF804F03BF9F0B104F006F944F0D003CE
:4036C00098421AD104F066F9002507E004AB2B4413F8100C04F080F90135EDB2B542F5D904F058F9322004F021F82046FFF722FC034620B904E0002302E0002300E001230A
:40370000184605B0F0BD00BF148D00004791FF1FB092FF1F10B5044604F03CF944F0400004F05AF9FA2004F001F804F03FF8B74B1B78072B00F0F28004F0F8F8212840F068
:40374000ED80B34B1B78DBB2FF2B40F0AF81B04B9B78DBB2F82B40F0AB81AD4B93F82030DBB2F02B40F0A681AA4B1B78A3426AD1A74B5B7A03F00F033133A64A82F8FF30D7
:4037800001230CE003F10B02A1498A5CA249C91A02F00F02303281F8F1200133DBB2042BF0D904229B4B83F8F1209C4B1B78DBB2012B06D1974B052283F8F120302283F8AE
:4037C000F62001230CE003F1100291498A5C9449C91A02F00F02303281F8E3200133DBB2062BF0D906228B4B83F8E32001230CE003F1170286498A5C8949C91A02F00F027B
:40380000303281F8D5200133DBB2062BF0D97F4B1B78052B11D109E05A1E7E49881890F8D5000B4483F8D500D3B200E00623012BF2D83022774B83F8D6200622754B83F85E
:40384000D520012010BD724B5B7A03F00F033133704A82F8113201230CE003F10B026C498A5C6D49C91A02F00F02303281F803220133DBB2042BF0D90422664B83F803227B
:40388000664B1B78DBB2012B06D1624B052283F80322302283F8082201230CE003F110025B498A5C5E49C91A02F00F02303281F8F5210133DBB2062BF0D90622554B83F8AD
:4038C000F52101230CE003F1170251498A5C5449C91A02F00F02303281F8E7210133DBB2062BF0D9494B1B78052B11D109E05A1E4849881890F8E7010B4483F8E701D3B282
:4039000000E00623012BF2D83022424B83F8E8210622404B83F8E721012010BD3B4B1B78072B40F0C98004F001F8272840F0C680374B1B78DBB2FF2B40F0C280344B9B78BB
:40394000DBB2F82B40F0BE80314B93F82630DBB2F02B40F0B9802F4B1B78A3424BD12C4B5B7A03F00F0331332A4A82F8FF3001230CE003F10B0226498A5C2949C91A02F02E
:403980000F02303281F8F1200133DBB2062BF0D90622204B83F8F12001230CE003F112021B498A5C1F49C91A02F00F02303281F8E3200133DBB2082BF0D90822154B83F8E0
:4039C000E32001230CE003F11C0211498A5C1549C91A02F00F02303281F8D5200133DBB2072BF0D90B4B302283F8D620082283F8D520012010BD064B5B7A03F00F03313362
:403A0000044A82F8113201231BE000BF4791FF1F4097FF1F9C84FF1FA184FF1FB092FF1FA384FF1FA584FF1F03F10B0227498A5C2749C91A02F00F02303281F80322013364
:403A4000DBB2062BF0D90622224B83F8032201230CE003F112021D498A5C1F49C91A02F00F02303281F8F5210133DBB2082BF0D90822184B83F8F52101230CE003F11C02EA
:403A800012498A5C1449C91A02F00F02303281F8E7210133DBB2072BF0D90E4B302283F8E821082283F8E721012010BD002010BD002010BD002010BD002010BD002010BD78
:403AC000002010BD002010BD002010BD4097FF1FA384FF1F9C84FF1FA584FF1F30B1002802DB831F062B01D90020704701207047002104E003F00F030B44D9B2013003786E
:403B0000FB2BF7D103F00F028818404200F00F0040F0E000704700BFF0B587B005460E46144600230193029303930493ADF81430FFF700FA0638C0B201280AD845F02000B5
:403B400003F04AFF322003F0F1FD03F0BDFE074600E0002703F01EFF03F01CFF45F0D003BB4240F05381FF238DF80430E1238DF80530A94B1B78AB4240F0A180A74A92F8D4
:403B8000633063F00F038DF80630F6238DF80730013E06F00F0666F01F068DF80860F8238DF8093092F86450462D09D006231AE006AA1A44E92102F8141C0133DBB200E062
:403BC0000623974A127806329342F1DB1A4608E006A91144E02001F8140C0133DBB20132D2B20D2AF4D9442D20D120781A460CE0215C06AE164401F00F0161F01F0106F836
:403C0000141C0138C0B20132D2B2217819448A42EEDB134608E006A91144E02001F8140C0133DBB20132D2B20D2AF4D9562D20D120781A460CE0215C06AD154401F00F01AB
:403C400061F01F0105F8141C0138C0B20132D2B2217819448A42EEDB134608E006A91144E02001F8140C0133DBB20132D2B20D2AF4D906AA1A44FB2102F8141C5D1CEDB273
:403C800001A8FFF735FF06AB2B4403F8140C0135EDB206AB2B44F02203F8142C002407E006AB234413F8140C03F096FE0134E4B2AC42F5D9322003F039FD0120A9E0564B92
:403CC00093F81231AB4240F0A380564A92F8633063F00F038DF80630F6238DF80730013E06F00F0666F01F068DF80860F8238DF8093092F86450462D09D006231AE006AA1C
:403D00001A44E92102F8141C0133DBB200E00623434A127806329342F1DB1A4608E006A91144E02001F8140C0133DBB20132D2B20D2AF4D9442D20D120781A460CE0215C93
:403D400006AE164401F00F0161F01F0106F8141C0138C0B20132D2B2217819448A42EEDB134608E006A91144E02001F8140C0133DBB20132D2B20D2AF4D9562D20D12078C2
:403D80001A460CE0215C06AD154401F00F0161F01F0105F8141C0138C0B20132D2B2217819448A42EEDB134608E006A91144E02001F8140C0133DBB20132D2B20D2AF4D9C8
:403DC00006AA1A44FB2102F8141C5D1CEDB201A8FFF78EFE06AB2B4403F8140C0135EDB206AB2B44F02203F8142C002407E006AB234413F8140C03F0EFFD0134E4B2AC42C9
:403E0000F5D9322003F092FC012002E0002000E0002007B0F0BD00BF9C84FF1FFC8AFF1F4791FF1FA88FFF1FF0B585B000AF0446FFF780F806280AD144F0200003F0CCFD14
:403E4000322003F073FC03F03FFD054600E0002503F0A0FD44F0D004AC4222D1FF233B71E9237B71FE23BB71EE23FB71E0233B727B72FB23BB72381DFFF73AFEF872F0231E
:403E80003B73002408E007F11003234413F80C0C03F0A2FD0134E4B2082CF4D9C82003F045FC03F043FDC6B2F31D23F00703ADEB030D6D46002404E003F006FD2855013456
:403EC000E4B2B442F8D903F065FDAB7A03F00F03264A13702B7B03F00F03254A1370012B0AD1244A47211170612151706C2191702021D17011715171022B0CD11D4B552278
:403F00001A706B225A7020229A704722DA7061221A716C225A71AB7B03F00F03013B164A13702B7C03F00F03012B01D0042B02D10321124A1170032B00D013B902210F4AFE
:403F40001170022B02D101220C4B1A70AB7C03F00F03013B0A4A13702B7D03F00F03094A137000201437BD46F0BD00BF8F8CFF1F9896FF1FF892FF1FF490FF1F908CFF1F17
:403F80009696FF1FB096FF1FF0B585B000AF0446FEF7D0FF0638C0B201280AD844F0200003F01AFD322003F0C1FB03F08DFC054600E0002503F0EEFC44F0D004AC4222D110
:403FC000FF233B71E9237B71FE23BB71E023FB71E1223A727B72FB23BB72381DFFF788FDF872F0233B73002408E007F11003234413F80C0C03F0F0FC0134E4B2082CF4D911
:40400000962003F093FB03F091FCC5B2EB1D23F00703ADEB030D6E46002404E003F054FC30550134E4B2AC42F8D903F0B3FC337B03F00F03012B03D1B07B00F00F0000E018
:4040400000201437BD46F0BD30B583B005460A4610496B460868496803C3130A8DF802308DF80320002410E0012D06D102AB234413F8080C03F0DCF905E002AB234413F8ED
:40408000080C03F0CDFA0134E4B2072CECD903B030BD00BF248D00002DE9F04387B005468C4616461C469DF83870BDF83CE00DF10408DFF8A89059F8080FD9F80410D9F8BF
:4040C0000820D9F80C30A8E80F00B9F81030A8F800307A1C02FB04F303EB43039B001B128DF8063004FB02F404EB4404A3008DF80730C6EBC6035B001B128DF80830C6EBEF
:40410000C60673008DF8093020378DF80A709DF84030592B02D185238DF80B304FEA1E238DF80D308DF80EE08DF811C0002410E0012D06D106AB234413F8140C03F078F9A3
:4041400005E006AB234413F8140C03F069FA0134E4B2112CECD907B0BDE8F083248D000070B584B005460E466B46134C54F81C0F6168A26807C3A2891A808DF807608DF822
:404180000960002410E0012D06D104AB234413F8100C03F04DF905E004AB234413F8100C03F03EFA0134E4B20D2CECD9642003F0BDFA04B070BD00BF248D0000F0B585B098
:4041C00007460E46154600240DE0315D01230093002301934E23029338461F222B19FFF75BFF0134E4B2092CEFD905B0F0BD00BF054B04E0824201D15878704702331A785C
:40420000002AF7D1002070472081FF1F2DE9F04387B005468C4616461C469DF83870BDF83CE00DF10408DFF8A89059F82C0FD9F80410D9F80820D9F80C30A8E80F00B9F8AD
:404240001030A8F800307A1C02FB04F303EB43039B001B128DF8063004FB02F404EB4404A3008DF80730C6EBC6035B001B128DF80830C6EBC60673008DF8093023378DF816
:404280000A709DF84030592B02D185238DF80B304FEA1E238DF80D308DF80EE08DF811C0002410E0012D06D106AB234413F8140C03F0BEF805E006AB234413F8140C03F09B
:4042C000AFF90134E4B2112CECD907B0BDE8F083248D000030B585B00D461446012840F0108103F055F8082840F02F82A84B1B78DBB2AA2B40F0FE80A54B9B79DBB2C32BB2
:4043000040F0F880A24BDB79DBB23C2B40F0F280A04B1B78DBB2013DAB4200F39F809C4BD878FFF765FF0546A0F12003DBB20B2B2AD8984A13780133DBB213701378964A45
:40434000134483F84B008CB9924B1A781B7892490A4492F84B1001200090002201924E22029203220233FFF751FF78E0894B1B7801200090002201924E220292214603220C
:404380000233FFF743FF6AE0A0F12D03DBB2512B2AD8804A13780133DBB2137013787E4A134483F84B008CB97A4B1A781B787A490A4492F84B1001200090002201924E2276
:4043C000029203220233FFF721FF48E0714B1B7801200090002201924E220292214603220233FFF713FF3AE02C2838D1694B1B7813F0FF0F33D0694B1B7813F0FF0F2ED1E6
:40440000644A13780133DBB213700121634B19701378614A134483F84B008CB95D4B1A781B785D490A4492F84B1001200090002201924E22029203220233FFF7E7FE0EE0DB
:40444000544B1B7801200090002201924E220292214603220233FFF7D9FE00E000254C4BDB78DBB20B2B26D14A4B1B7803F0FF042BB9142003F05AF902F0B8FF68E1454C6A
:40448000237801200090002201924E220292202103220233FFF7BAFE23783F4A134493F84B302C2B02D100223C4B1A70394A1378013BDBB213700A2D10D1364B1B7813F047
:4044C000FF0F0BD0334B1A78334B83F84B20142003F02CF902F08AFF012439E12C4BDB78DBB2942B06D1142003F020F902F07EFF00242DE1142003F019F902F077FF0224C4
:4045000026E103F03DF8082840F02181244B1B78DBB2AA2B40F01281214B9B79DBB2C32B40F00C811E4BDB79DBB23C2B40F006811C4B1B78DBB2013DAB4200F3B580184BC6
:40454000D878FFF755FE0546A0F12003DBB20B2B3BD8144A13780133DBB213701378124A134483F84B000CBB0E4B1A781B780E490A4492F84B1001220092002201924E22F3
:404580000292022003220344FFF740FE8DE000BF0097FF1F4A91FF1FFC8AFF1FF792FF1F2097FF1F9796FF1FA88FFF1F6A4B1B7801220092002201924E22029202202146CC
:4045C00002460344FFF722FE6FE0A0F12D03DBB2512B2CD8604A13780133DBB2137013785E4A134483F84B0094B95B4B1A781B785A490A4492F84B100122009200220192D8
:404600004E220292022003220344FFF7FFFD4CE0514B1B7801220092002201924E2202920220214602460344FFF7F0FD3DE02C283BD1494B1B7813F0FF0F36D0484B1B7851
:4046400013F0FF0F31D1444A13780133DBB213700121434B19701378424AD2783F490B4483F84B208CB93C4B1A781B780A4492F84B1001220092002201924E2202920220BF
:4046800003220344FFF7C2FD0FE0334B1B7801220092002201924E2202920220214602460344FFF7B3FD00E000250B2D27D12A4B1B7803F0FF042BB9142003F037F802F04E
:4046C0008DFF45E0244C237801220092002201924E2202920220202102460344FFF796FD23781E4A134493F84B302C2B02D100221B4B1A70184A1378013BDBB213700A2D09
:4047000010D1154B1B7813F0FF0F0BD0124B1A78124B83F84B20142003F008F802F05EFF012415E00F4BDB78DBB2942B06D1142002F0FCFF02F052FF002409E0142002F090
:40474000F5FF02F04BFF022402E0022400E00224204605B030BD00BF9796FF1FA88FFF1FE488FF1F2097FF1F10B582B08DF804008DF8051003F07EFC0720002103F0C6FB8C
:4047800058B1002011E002AB234413F8040C03F019FC48B90134E4B200E00024012CF2D903F0F4FB012000E0002002B010BD00BF38B504241DE003F05DFC6820002103F0A5
:4047C000A5FBD0B9204603F0FDFBC0B903F0DEFB0A2002F0ABFF6820012103F097FB80B9251F03F01BFC084B585503F0CFFB0134E4B2062CDFD9012038BD002038BD0020C1
:4048000038BD002038BD00BF3491FF1F10B582B004238DF80430134B1A788DF805205A788DF806209B788DF8073003F023FC6820002103F06BFB58B1002011E002AB2344CD
:4048400013F8040C03F0BEFB48B90134E4B200E00024032CF2D903F099FB012000E0002002B010BDA096FF1F38B501241DE003F001FC6820002103F049FBD0B9204603F06B
:40488000A1FBC0B903F082FB0A2002F04FFF6820012103F03BFB80B9651E03F0BFFB084B585503F073FB0134E4B2022CDFD9012038BD002038BD002038BD002038BD00BFA7
:4048C000B496FF1F10B582B001238DF80430124B1A788DF805205B788DF8063003F0CAFB6820002103F012FB58B1002011E002AB234413F8040C03F065FB48B90134E4B28C
:4049000000E00024022CF2D903F040FB012000E0002002B010BD00BFF492FF1F38B504460E2900F2DA80DFE801F01221303F4ED85D6C7B8998A7B6C5D400704B2B44204624
:4049400093F88014FFF710FF0135ADB200E00025B5F56C7FF1D3C0E0684B2B44204693F83018FFF701FF0135ADB200E00025B5F56C7FF1D3B1E0614B2B44204693F8E01BA4
:40498000FFF7F2FE0135ADB200E00025B5F56C7FF1D3A2E0594B2B44204693F8901FFFF7E3FE0135ADB200E00025B5F56C7FF1D393E0534B2B44204693F84812FFF7D4FE8C
:4049C0000135ADB200E00025B5F56C7FF1D384E04B4B2B44204693F8F815FFF7C5FE0135ADB200E00025B5F56C7FF1D375E0444B2B44204693F8A819FFF7B6FE0135ADB26D
:404A000000E00025B5F56C7FF1D366E03C4B2B44204693F8581DFFF7A7FE0135ADB200E00025B5F56C7FF1D357E0364B2B442046197CFFF799FE0135ADB200E00025B5F5F5
:404A40006C7FF2D349E02F4B2B44204693F8C013FFF78AFE0135ADB200E00025B5F56C7FF1D33AE0274B2B44204693F87017FFF77BFE0135ADB200E00025B5F56C7FF1D36A
:404A80002BE0204B2B44204693F8201BFFF76CFE0135ADB200E00025B5F56C7FF1D31CE0184B2B44204693F8D01EFFF75DFE0135ADB200E00025B5F56C7FF1D30DE0124B57
:404AC0002B44204693F88811FFF74EFE0135ADB200E00025B5F56C7FF1D320461B21FFF743FE20464021FFF73FFE20460A21FFF73BFE20460A21FFF737FE38BD44D100002F
:404B00003CE2000034F300002C040100F8B504460E46C04B1B78012B04D1BF4B18780021FFF7FCFE20460A21FFF71EFE002506E02046BA4B595DFFF717FE0135EDB21D2D71
:404B4000F6D920460A21FFF70FFE002506E02046B34B595DFFF708FE0135EDB21D2DF6D920460A21FFF700FE002506E02046AD4B595DFFF7F9FD0135EDB21D2DF6D92046DF
:404B80000A21FFF7F1FD002506E02046A64B595DFFF7EAFD0135EDB21D2DF6D920460A21FFF7E2FD002506E02046A04B595DFFF7DBFD0135EDB21D2DF6D920460A21FFF748
:404BC000D3FD002508E0994B2B44204693F82010FFF7CAFD0135EDB20C2DF4D9FFF7E8FD012832D1924D2978C1F3011120463031FFF7BAFD297801F00F0120463031FFF7AC
:404C0000B3FD20462F21FFF7AFFD6978C1F3001130312046C9B2FFF7A7FD697801F00F0120463031FFF7A0FD20462F21FFF79CFDA978090920463031FFF796FDA97801F0D4
:404C40000F0120463031FFF78FFD20460A21FFF78BFD002508E0754B2B44204693F83010FFF782FD0135EDB20C2DF4D9FFF7FCFD012820D16F4D6978C1F3001130312046DD
:404C8000C9B2FFF771FD697801F00F0120463031FFF76AFD20463A21FFF766FD2978090920463031FFF760FD297801F00F0120463031FFF759FD20460A21FFF755FD002575
:404CC00006E02046594B595DFFF74EFD0135EDB21D2DF6D920460A21FFF746FD002508E0524B2B44204693F84010FFF73DFD0135EDB20C2DF4D9504DA5FB0635ED082046DD
:404D000005F13001FFF730FD05EB85056D00751B05F130012046C9B2FFF726FD20460A21FFF722FD002508E0404B2B44204693F85010FFF719FD0135EDB20C2DF4D93F4B22
:404D40001B78B3420DD109E03C4B2B44204693F80811FFF709FD0135EDB200E00025092DF2D9364B93F81231B3420DD109E0334B2B44204693F81A12FFF7F6FC0135EDB23B
:404D800000E00025092DF2D92C4B93F82432B3420DD109E0294B2B44204693F82C13FFF7E3FC0135EDB200E00025092DF2D9234B93F83633B3420DD109E0204B2B442046B8
:404DC00093F83E14FFF7D0FC0135EDB200E00025092DF2D920460A21FFF7C6FC174B1B78B34240F034830025154B83F8345108E00E4B2B44204693F86010FFF7B5FC0135AC
:404E0000EDB20C2DF4D920460A21FFF7ADFC002521E000BF3791FF1FB196FF1FF890FF1F7896FF1F708CFF1F7C84FF1F7481FF1F3491FF1FB496FF1FCDCCCCCC9C84FF1F96
:404E4000FC8AFF1FBE4B2B44204693F87010FFF78BFC0135EDB20C2DF4D9BA4B1B78062B23D9B94B93F8F330302B03D10022B64B83F8F320022508E0B34B2B44204693F889
:404E8000F110FFF771FC0135EDB2AF4B93F8F130AB42F1D20FE0AC4B2B44204693F8F110FFF762FC0135EDB200E00125A64B93F8F130AB42EFD220462021FFF755FC20464E
:404EC0009F4B93F88010FFF74FFC20462F21FFF74BFC002506E020469C4B595DFFF744FC0135EDB2042DF6D920460A21FFF73CFC002508E0924B2B44204693F88410FFF7CD
:404F000033FC0135EDB20C2DF4D98F4B93F8E430302B03D100228C4B83F8E4208A4B93F8E43043B9884B93F8E530302B03D10022854B83F8E520844B93F8E37013E0824A57
:404F400092F8E330DB1B1344204693F8E310FFF70BFC7F4B1B789F4203D120462E21FFF703FC013FFFB2002FE9D120462021FFF7FBFB3D4606E02046744B595DFFF7F4FB14
:404F80000135EDB2042DF6D920460A21FFF7ECFB3D4608E06A4B2B44204693F89410FFF7E3FB0135EDB20C2DF4D9674B93F8D630302B03D10022644B83F8D620624B93F8EF
:404FC000D63043B9604B93F8D730302B03D100225D4B83F8D720012510E05B4B2B44204693F8D510FFF7C0FB5A4B1B789D4203D120462E21FFF7B8FB0135EDB2524B93F80F
:40500000D530AB42E9D220462021FFF7ADFB20464B4B93F88010FFF7A7FB20460A21FFF7A3FB4D4B93F86130012B42D109E0444B2B44204693F8A410FFF796FB0135EDB2CF
:4050400000E03D460C2DF2D9012508E0424B2B44204693F8DF10FFF787FB0135EDB23E4B93F8DF30AB42F1D220460A21FFF77CFB3D4608E0324B2B44204693F8B410FFF7BF
:4050800073FB0135EDB20C2DF4D9012508E0324B2B44204693F86510FFF766FB0135EDB22D4B93F86530AB42F1D220460A21FFF75BFB3D4606E02046214B595DFFF754FBC0
:4050C0000135EDB21D2DF6D920460A21FFF74CFB214B93F86130022B40F0B98109E0184B2B44204693F8C410FFF73EFB0135EDB200E03D460C2DF2D9012508E0164B2B440C
:40510000204693F8EA10FFF72FFB0135EDB2124B93F8EA30AB42F1D220460A21FFF724FB3D4608E0064B2B44204693F8D410FFF71BFB0135EDB20C2DF4D9012516E000BF75
:405140007481FF1F4791FF1F9C84FF1FF892FF1F908CFF1FF490FF1FFC8AFF1FC44B2B4420465978FFF700FB0135EDB2C04B5B78AB42F3D220460A21FFF7F6FA3D4608E0D3
:40518000BC4B2B44204693F8A410FFF7EDFA0135EDB20C2DF4D9012508E0B54B2B44204693F8F510FFF7E0FA0135EDB2B04B93F8F530AB42F1D220460A21FFF7D5FA3D46D0
:4051C00008E0AC4B2B44204693F8E410FFF7CCFA0135EDB20C2DF4D9012301E00133DBB2A34A92F8F5209A42F8D220460A21FFF7BBFA3D4608E09F4B2B44204693F8F410F8
:40520000FFF7B2FA0135EDB20C2DF4D9012301E00133DBB2964A92F8F5209A42F8D220460A21FFF7A1FA3D4608E0924B2B44204693F80411FFF798FA0135EDB20C2DF4D9C4
:40524000012301E00133DBB2894A92F8F5209A42F8D220460A21FFF787FA3D4608E0854B2B44204693F81411FFF77EFA0135EDB20C2DF4D9012301E00133DBB27C4A92F829
:40528000F5209A42F8D220460A21FFF76DFA3D4608E0784B2B44204693F82411FFF764FA0135EDB20C2DF4D9012301E00133DBB26F4A92F8F5209A42F8D220460A21FFF708
:4052C00053FA3D4608E06B4B2B44204693F83411FFF74AFA0135EDB20C2DF4D9012301E00133DBB2624A92F8F5209A42F8D220460A21FFF739FA3D4608E05E4B2B4420462C
:4053000093F84411FFF730FA0135EDB20C2DF4D9012301E00133DBB2554A92F8F5209A42F8D220460A21FFF71FFA3D4608E0514B2B44204693F85411FFF716FA0135EDB2A1
:405340000C2DF4D9012301E00133DBB2484A92F8F5209A42F8D220460A21FFF705FA3D4608E0444B2B44204693F86411FFF7FCF90135EDB20C2DF4D9012301E00133DBB2A9
:405380003B4A92F8F5209A42F8D220460A21FFF7EBF93D4608E0374B2B44204693F87411FFF7E2F90135EDB20C2DF4D9012301E00133DBB22E4A92F8F5209A42F8D2204651
:4053C0000A21FFF7D1F920460A21FFF7CDF93D4608E0284B2B44204693F88411FFF7C4F90135EDB20C2DF4D920460A21FFF7BCF920460A21FFF7B8F920460A21FFF7B4F96C
:405400003D4608E01B4B2B44204693F89411FFF7ABF90135EDB20C2DF4D920460A21FFF7A3F920460A21FFF79FF920460A21FFF79BF906E020460F4BD95DFFF795F901372C
:40544000FFB21D2FF6D920460A21FFF78DF90A4B93F81231B34240F0FE820FE0054B2B44204693F86010FFF77FF90135EDB206E0FC8AFF1F7481FF1F9C84FF1F00250C2D00
:40548000ECD920460A21FFF76FF9002508E0BE4B2B44204693F87010FFF766F90135EDB20C2DF4D9012508E0B84B2B44204693F80312FFF759F90135EDB2B44B93F80332B0
:4054C000AB42F1D220462021FFF74EF92046AE4B93F88010FFF748F920462F21FFF744F9002506E02046AA4B595DFFF73DF90135EDB2042DF6D920460A21FFF735F9002587
:4055000008E0A14B2B44204693F88410FFF72CF90135EDB20C2DF4D99C4B93F8F631302B03D10022994B83F8F621984B93F8F63143B9964B93F8F731302B03D10022934BF9
:4055400083F8F721012510E0904B2B44204693F8F511FFF709F98F4B1B789D4203D120462E21FFF701F90135EDB2884B93F8F531AB42E9D220462021FFF7F6F8002506E0ED
:405580002046834B595DFFF7EFF80135EDB2042DF6D920460A21FFF7E7F8002508E07A4B2B44204693F89410FFF7DEF80135EDB20C2DF4D9754B93F8E831302B03D10022B7
:4055C000724B83F8E821714B93F8E83143B96F4B93F8E931302B03D100226C4B83F8E921012510E0694B2B44204693F8E711FFF7BBF8694B1B789D4203D120462E21FFF7B2
:40560000B3F80135EDB2614B93F8E731AB42E9D220462021FFF7A8F820465B4B93F88010FFF7A2F820460A21FFF79EF85B4B93F86130012B42D109E0534B2B44204693F8FA
:40564000A410FFF791F80135EDB200E000250C2DF2D9012508E0514B2B44204693F8DF10FFF782F80135EDB24C4B93F8DF30AB42F1D220460A21FFF777F8002508E0424B6A
:405680002B44204693F8B410FFF76EF80135EDB20C2DF4D9012508E0404B2B44204693F86510FFF761F80135EDB23C4B93F86530AB42F1D220460A21FFF756F8002506E0C6
:4056C0002046314B595DFFF74FF80135EDB21D2DF6D920460A21FFF747F8304B93F86130022B40F0B88109E0274B2B44204693F8C410FFF739F80135EDB200E000250C2D2B
:40570000F2D9012508E0254B2B44204693F8EA10FFF72AF80135EDB2204B93F8EA30AB42F1D220460A21FFF71FF8002508E0164B2B44204693F8D410FFF716F80135EDB2F0
:405740000C2DF4D9012507E0144B2B4420465978FFF70AF80135EDB2104B5B78AB42F3D220460A21FFF700F8002508E0064B2B44204693F8A410FEF7F7FF0135EDB20C2D7A
:40578000F4D9012515E000BF7481FF1F9C84FF1FF892FF1F908CFF1FF490FF1FA88FFF1FBD4B2B44204693F8F510FEF7DDFF0135EDB2B94B93F8F530AB42F1D220460A2110
:4057C000FEF7D2FF002508E0B44B2B44204693F8E410FEF7C9FF0135EDB20C2DF4D9012301E00133DBB2AC4A92F8F5209A42F8D220460A21FEF7B8FF002508E0A74B2B443F
:40580000204693F8F410FEF7AFFF0135EDB20C2DF4D9012301E00133DBB29F4A92F8F5209A42F8D220460A21FEF79EFF002508E09A4B2B44204693F80411FEF795FF0135B8
:40584000EDB20C2DF4D9012301E00133DBB2924A92F8F5209A42F8D220460A21FEF784FF002508E08D4B2B44204693F81411FEF77BFF0135EDB20C2DF4D9012301E00133A6
:40588000DBB2854A92F8F5209A42F8D220460A21FEF76AFF002508E0804B2B44204693F82411FEF761FF0135EDB20C2DF4D9012301E00133DBB2784A92F8F5209A42F8D2EE
:4058C00020460A21FEF750FF002508E0734B2B44204693F83411FEF747FF0135EDB20C2DF4D9012301E00133DBB26B4A92F8F5209A42F8D220460A21FEF736FF002508E0C5
:40590000664B2B44204693F84411FEF72DFF0135EDB20C2DF4D9012301E00133DBB25E4A92F8F5209A42F8D220460A21FEF71CFF002508E0594B2B44204693F85411FEF746
:4059400013FF0135EDB20C2DF4D9012301E00133DBB2514A92F8F5209A42F8D220460A21FEF702FF002508E04C4B2B44204693F86411FEF7F9FE0135EDB20C2DF4D90123A9
:4059800001E00133DBB2444A92F8F5209A42F8D220460A21FEF7E8FE002508E03F4B2B44204693F87411FEF7DFFE0135EDB20C2DF4D9012301E00133DBB2374A92F8F520F7
:4059C0009A42F8D220460A21FEF7CEFE20460A21FEF7CAFE002508E0304B2B44204693F88411FEF7C1FE0135EDB20C2DF4D920460A21FEF7B9FE20460A21FEF7B5FE204679
:405A00000A21FEF7B1FE002508E0244B2B44204693F89411FEF7A8FE0135EDB20C2DF4D920460A21FEF7A0FE20460A21FEF79CFE20460A21FEF798FE002506E02046174B6D
:405A4000595DFEF791FE0135EDB21D2DF6D920460A21FEF789FE20460A21FEF785FE20460A21FEF781FE20460A21FEF77DFE20460A21FEF779FE20460A21FEF775FE204686
:405A80001D21FEF771FE20465621FEF76DFE20463121FEF769FEF8BDA88FFF1F7481FF1F10B501281CD1002002F0F2FB4FF4FA7001F052FE012002F0EBFB052001F04CFEB5
:405AC00002F0F2FB034658B3412001F045FE02F0EBFB0446F02001F03FFEF4B901231FE0002002F0E9FB4FF4FA7001F035FE012002F0E2FB052001F02FFE02F0E9FB034695
:405B000070B1412001F028FE02F0E2FB0446F02001F022FE1CB9012302E0002300E00023184610BD38B50D4601282DD000245AE0002002F0ADFB0A2001F00EFE45FA04F38B
:405B400013F0010F0AD0012002F0A2FB0A2001F003FE02F0A9FB034650B94BE0002002F097FB0A2001F0F8FD02F09EFB00283ED1322001F0F1FD012002F08AFB322001F0D7
:405B8000EBFD0134E4B200E00024072CD0D9012330E0002002F090FB0A2001F0DDFD45FA04F313F0010F0AD0012002F085FB0A2001F0D2FD02F08CFB034648B91AE000200F
:405BC00002F07AFB0A2001F0C7FD02F081FB80B9322001F0C1FD012002F06EFB322001F0BBFD0134E4B2072CD3D9012302E0002300E00023184638BD38B5012819D00025F3
:405C00002C4631E0002002F043FB0E2001F0A4FD012002F03DFB072001F09EFD02F044FBA0400543EDB2642001F096FD0134E4B201E000252C46072CE4D917E0002002F097
:405C40003BFB0E2001F088FD012002F035FB072001F082FD02F03CFBA0400543EDB2642001F07AFD0134E4B2072CE7D9284638BD4840002308E010F0010F03D0400880F045
:405C80008C0000E040080133072BF4D9704700BF30B5C1B005460C46684609494FF4807202F03CFF0023184605E0EA5C50401DF8000001339BB2621E9342F6DB41B030BD5C
:405CC000C810010070B59D4B93F80431092B40F089809A4B93F80731012B40F08380984BBC221A70CB225A70C8229A70954A1178D97052781A71914A11785971AA2199718B
:405D00000121D97192F800211A728F4991F8632002F003025A7291F8650084B208E0021B894B234493F86510884B9954013CA4B2002CF4D10A230CE0A3F10A0283498A5C06
:405D4000D2B27F49CA5412B930217D4AD15401339BB2112BF0D90022794B9A747A4B93F8343163B123461BE003F113022020744988540021754AD15401339BB200E0234659
:405D8000072BF1D90EE003F11300591C6E4A0A4492F8DF506A4A155400206C4AD0548BB2072BF0D91B2304E03021654AD15401339BB2252BF8D9624D28462721FFF768FFC4
:405DC00085F8260005E05E4B185D02F073FB0134A4B2262CF7D9594B012283F80321002283F80721554B93F804310A3BDBB2012B00F2D080514B93F80731012B40F0CA8020
:405E0000534BBC221A70CB225A70C8229A704D4A1178D97052781A71484A11785971A42199710221D97192F800110139197292F8F10084B208E0021B404B234493F8F1103E
:405E4000444B9954013CA4B2002CF4D109230CE0A3F109023F498A5CD2B23D49CA5412B930213B4AD15401339BB20D2BF0D93A4B1B78053BDBB2012B0CD901231BE003F184
:405E80000D01364AD21A92F8E300314A505401339BB200E00123294A92F8E3209A42EED20EE003F10D012E4AD21A92F8E300284A505401339BB2214A92F8E3209A42F0D2CD
:405EC000234B1B7D1BB9224B30221A755A75224B1B78053BDBB2012B0CD901231BE003F115011E4AD21A92F8D500194A505401339BB200E00123114A92F8D5209A42EED2EF
:405F00000EE003F11501164AD21A92F8D500104A505401339BB2094A92F8D5209A42F0D20B4B1B7F1BB90A4B30221A775A77084D28461F21FFF7ACFEA87719E09C84FF1F09
:405F40002084FF1F4491FF1FFC8AFF1FA08FFF1FB896FF1FE88AFF1F4791FF1FA384FF1FA584FF1F9B4B185D02F0A4FA0134A4B21E2CF7D9984B062283F80421082283F81D
:405F800003210022954981F8352183F807210122934B1A70934B1B78DBB2012B51D18E4B93F80731012B4CD18F4BBC221A70CB225A70C8229A708D4A1178D97052781A71A4
:405FC000854A12785A71E3229A710522DA71834B93F8364108E0E21D804B234493F83611814B9954013CA4B2002CF4D101220BE002F1120101339B1A7848034493F8410132
:40600000794B5854013292B2744B93F8413199B29142EDD2744D28462121FFF739FE85F8200005E0704B185D02F044FA0134A4B2202CF7D9684B082283F80321002283F8A0
:406040000721654B93F805316BB1634B93F8061103EBC1021878B532FDF76EFA18B100225D4B83F805215C4B93F80731012B40F0AF805B4B1B78DBB2012B40F0A980002201
:40608000574B1A705A4BBC221A70CB225A70C8229A70564A1178D97052781A714E4A11785971E821997192F80321DA710121092470E04F4B19550134A4B24E4B1B78053BA0
:4060C000DBB2012B12D90C224CE04B1E03EB4303C3EB03131344404803445B78303B444803550134A4B2013A92B200E00822002AEBD106E030203E4B18550134A4B2013215
:4061000092B2032AF6D908220FE04B1E03EB4303C3EB03133048034413441B7C303B344803550134A4B2013A92B2002AEDD106E030202F4B18550134A4B2013292B2032A7B
:40614000F6D925E04B1E03EB4303C3EB03131344214803445B78303B254803550134A4B2013A92B2002AEDD10C220FE04B1E03EB4303C3EB03131848034413441B7C303B70
:406180001B4803550134A4B2013A92B2002AEDD1013189B2104B93F802318B4289D2144EA4F109033372651CADB230462946FFF76FFD3055002405E00D4B185D02F07AF9F5
:4061C0000134A4B2AC42F7D30022034B83F8072170BD00BFB896FF1F9C84FF1FFC8AFF1F488CFF1FF88AFF1FB492FF1F4491FF1FE888FF1F4791FF1F70B59D4B93F81632C2
:40620000092B40F08A809A4B93F81932012B40F08480984BBC221A70CB225A70C8229A70954A1178D97052781A71914A92F812115971AA2199710121D97192F812221A72FC
:406240008E4991F8632002F003025A7291F8650084B208E0021B894B234493F86510884B9954013CA4B2002CF4D10A230CE0A3F10A0283498A5CD2B27E49CA5412B93021E0
:406280007C4AD15401339BB2112BF0D90022794B9A747A4B93F8343163B123461BE003F113022020734988540021754AD15401339BB200E02346072BF1D90EE003F11300AB
:4062C000591C6E4A0A4492F8DF506A4A155400206B4AD0548BB2072BF0D91B2304E03021644AD15401339BB2252BF8D9614D28462721FFF7CDFC85F8260005E05D4B185D6C
:4063000002F0D8F80134A4B2272CF7D9584B012283F81522002283F81922584B93F80331012B40F0D180524B93F81932012B40F0CB80544BBC221A70CB225A70C8229A70C2
:406340004D4A1178D97052781A71494A92F812115971A42199710221D97192F81212197292F8030284B208E0021B414B234493F80312454B9954013CA4B2002CF4D1092356
:406380000CE0A3F1090240498A5CD2B23D49CA5412B930213B4AD15401339BB20D2BF0D93A4B1B78053BDBB2012B0CD901231BE003F10D01364AD21A92F8F501314A505451
:4063C00001339BB200E00123294A92F8F5219A42EED20EE003F10D012E4AD21A92F8F501284A505401339BB2214A92F8F5219A42F0D2244B1B7D1BB9224B30221A755A755D
:40640000224B1B78053BDBB2012B0CD901231BE003F115011E4AD21A92F8E701194A505401339BB200E00123114A92F8E7219A42EED20EE003F11501164AD21A92F8E701C4
:40644000104A505401339BB2094A92F8E7219A42F0D20C4B1B7F1BB90A4B30221A775A77084D28461F21FFF713FCA8771AE000BF9C84FF1F2084FF1F4491FF1FA88FFF1F24
:40648000A08FFF1FB896FF1FE88AFF1F4791FF1FA384FF1FA584FF1F734B185D02F00AF80134A4B21E2CF7D9704B062283F80421082283F8152200226D4981F8352183F8C4
:4064C000192202226B4B1A70684B93F817327BB1664B93F8181203EBC10293F8120102F2C712FDF729F818B10022604B83F817225E4B93F81932012B40F0B4805D4B1B781F
:40650000DBB2022B40F0AE8000225A4B1A705A4BBC221A70CB225A70C8229A70574A1178D97052781A71514A92F812115971E821997192F81522DA710121092474E04E4B05
:4065400019550134A4B24E4B1B78053BDBB2012B13D90C224FE04B1E03EB4303C3EB031342480344134493F81331303B424803550134A4B2013A92B200E00822002AEAD116
:4065800006E030203C4B18550134A4B2013292B2032AF6D9082210E04B1E03EB4303C3EB031332480344134493F82231303B324803550134A4B2013A92B2002AECD106E02E
:4065C00030202D4B18550134A4B2013292B2032AF6D927E04B1E03EB4303C3EB031323480344134493F81331303B234803550134A4B2013A92B2002AECD10C2210E04B1E82
:4066000003EB4303C3EB031318480344134493F82231303B184803550134A4B2013A92B2002AECD1013189B2104B93F814328B4285D2114EA4F109033372651CADB23046BA
:406640002946FFF725FB3055002405E00A4B185D01F030FF0134A4B2AC42F7D30022034B83F8192270BD00BFB896FF1F9C84FF1FA88FFF1F488CFF1FE888FF1F4491FF1F56
:406680004791FF1F70B5282001F050F801F0BCFE002800F00D840122A14B1A700024A14B1C7005E001F07EFE9F4B18550134A4B201F0AAFE0028F5D19C4BBC221A70CB22BE
:4066C0005A70C8229A709A4A1178D97052781A71954B1B78BC2B40F0E983934B5B78BB2B40F0E483904B9B78B82B40F0DF83904B1B788D4AD2789A4240F0D8838C4B5B78AA
:40670000894A12799A4240F0D183874B9B79A13B432B00F2CB83DFE813F04400C903C903C903EA0047010402C9035702C903C903C903C903C903C903C903C903C903C90364
:40674000C903C903C903C903C903C903C903C903C903C903C903C903C903C903C903C903C903C903C903C903C903C903C903C903C903C903C903C903C903C903C903C90399
:40678000C903C903C903C903C903C903C903C903C903C903C903C903C903DC027803C903A503614B5A79634B1B789A4220D1614A92F80721C2B95D4C6371A123A3715D4B4E
:4067C00093F80331E37120460921FFF761FA2072002405E0554B185D01F06CFE0134A4B2082CF7D9092404E0FFF76CFA052400E005244D4B5A794F4B93F812319A4226D1C6
:406800004C4A92F8192202BB484D6B71631C9BB2A122EA5401339BB2464A92F81522EA545C1CA4B2991C284689B2FFF731FA28550134A4B2002505E03C4B585D01F03AFE2E
:406840000135ADB2A542F7D301E0FFF7D5FC364B5A79384B93F824329A421FD1334D6B71631C9BB2A122EA5401339BB2314A92F82723EA545C1CA4B2991C284689B2FFF74D
:4068800007FA28550134A4B2002505E0274B585D01F010FE0135ADB2A542F7D3224B5A79244B93F836339A4240F000831F4D6B71631C9BB2A122EA5401339BB21D4A92F8A0
:4068C0003924EA545C1CA4B2991C284689B2FFF7DFF928550134A4B2002505E0134B585D01F0E8FD0135ADB2A542F7D3DEE20E4B5A79104B1B789A422AD101210E4A117016
:406900000A4C6371A123A3710A4B93F80331E37120460921FFF7BCF92072002414E000BF8E8CFF1FF996FF1F0093FF1FA08CFF1F4491FF1F9C84FF1F488CFF1FAB4B185DDB
:4069400001F0B8FD0134A4B2082CF7D9092300E00523A74A5179A74A92F81221914240F0A5820220A4490870A04D6A710133A122EA5401339BB29F4A92F81522EA545C1CB6
:40698000A4B21918284689B2FFF782F928550134A4B2002505E0954B585D01F08BFD0135ADB2A542F7D381E2914B5A79914B187882420DD005241DE08D4C257AE45C8D49FD
:4069C00001EBC501194481F8AC4001339BB200E009230D2BF0D9874B012183F805118449097A83F80611814B5871A62199710321D97108247F4B93F81201824223D10BE023
:406A00007B4D2E7AED5C7B4901EBC601194481F8BE5101339BB200E009230D2BF0D9754B012183F817127249097A83F818126F494871631C9BB2A620C85401339BB2032087
:406A4000C85401339CB26B4B93F82402824223D10BE0674D2E7AED5C664901EBC601194481F8D05201339BB200E009230D2BF0D9604B012183F829135D49097A83F82A137C
:406A80005A494871631C9BB2A620C85401339BB20320C85401339CB2564B93F836138A4223D10BE05248057AC05C524A02EBC5021A4482F8E20301339BB200E009230D2B63
:406AC000F0D94C4B012283F83B24494A127A83F83C24464A5171631C9BB2A621D15401339BB20321D15401339CB2651CADB23F4E30462946FFF7CCF83055002405E03B4BC9
:406B0000185D01F0D7FC0134A4B2AC42F7D3CDE13A4B1878364B195DFDF726FE0134A4B200E00924324B1B7AA342F1D2304B5B79304A11788B4209D12C4A5171A7219171BA
:406B40002C4991F80311D17103211172294A92F812118B4209D1254A5171A7219171254991F81512D17103211172224A92F824128B4209D11D4A5171A72191711D4991F89C
:406B80002713D171032111721A4A92F83623934209D1164B5A71A7229A71164A92F83924DA7103221A72114C20460921FFF770F82072002405E00D4B185D01F07BFC013429
:406BC000A4B2082CF7D971E1094B5B79094A11788B4220D114E003F108020548805C054A1A4482F8080101339BB20AE0A08CFF1F0093FF1F9C84FF1F488CFF1FB196FF1FE1
:406C00000023092BE7D9AB4B93F834311BB1AA4B1878FDF77BFFA94B5B79A94A92F812118B4216D10AE003F10802A448805CA44A1A4482F81A0201339BB200E00023092B32
:406C4000F1D9A04B93F834311BB19F4B1878FDF75DFF9A4B5B799A4A92F824128B4216D10AE003F108029548805C954A1A4482F82C0301339BB200E00023092BF1D9934BE1
:406C800093F834311BB18C4B1878FDF73FFF8B4B5B798B4A92F836138B4240F007810AE003F108028548805C854A1A4482F83E0401339BB200E00023092BF1D9844B93F852
:406CC0003431002B00F0F2807F4B1878FDF71EFFECE07A4B197A7F4A5170597A7E4A1170997A5170D97A9170197B7C4A51705B7B1370112307E0A3F111027049C85C784971
:406D0000885401339BB22E2BF5D92F2307E0A3F12F026A49C85C7349885401339BB24C2BF5D94D2307E0A3F14D026449C85C6E49885401339BB26A2BF5D96B2307E0A3F111
:406D40004D025E49C85C6949885401339BB2882BF5D95A4B1A7C664B1A70FDF7B3FDFDF755FD002408E004F110015D4B185D89B200F094FE0134A4B21D2CF4D91E240AE050
:406D8000A4F11E0304F11001564AD05C89B200F085FE0134A4B23B2CF2D93C240AE0A4F11E0304F11001504AD05C89B200F076FE0134A4B2592CF2D95A240AE0A4F11E037C
:406DC00004F11001494AD05C89B200F067FE0134A4B2772CF2D90C2000F0CAFE384C20700D2000F0C5FE84F812010E2000F0C0FE84F824020F2000F0BBFE84F836032E4B5A
:406E000018782178FDF782FE50E02C4B5B79394C6371E223A3710823E3710323237220460A21FEF735FF6072002405E0314B185D01F040FB0134A4B2092CF7D9082307E03A
:406E4000A3F108021D49C85C2B49885401339BB20B2BF5D9194B187B284B1870072100F01DFE23E0154BDA79022A0ED10021244B1960244B1970124B082283F8032183F88D
:406E800007110120FDF7E0F810E000231D490B701A490A701A4A1360094A82F80731C82000F044FC01201321FDF7CEF801F0E0FA70BD00BFFC8AFF1FB196FF1F0093FF1F88
:406EC0009C84FF1FA88FFF1F4891FF1F0495FF1F6491FF1F4091FF1FA096FF1FF492FF1FF890FF1F7896FF1F708CFF1F7C84FF1F558CFF1FA08CFF1F608CFF1F3091FF1F1B
:406F00006091FF1FF88AFF1FFEE700BF08B5104E104D16E029686B68AC68002204E051F8040B43F8040B0432A242F8D1E868002203E0002143F8041B04328242F9D11035B4
:406F4000013E002EE6D101F0C3FDFBF79FFFFEE7010000007413010008B5124A124B1A60124A136843F40073136000230AE0032B03D80F4A52F8231000E00E490E4A42F8A5
:406F8000231001332F2BF2D90C4B1A780C4B1A70094A0C4B1A6000F0CFF800220A4B1A6008BD00BF0004FA050CED00E014ED00E000000000096F00000080FF1FBC760040E6
:406FC0000481FF1F08ED00E00081FF1FFEE700BFF0B40022174611E050F82760F3B226F0FF0608E001EB420511F812406D78A5550132013BDBB2002BF4D10137292FEBD99E
:40700000F0BC7047064B1B78DBB203F00701054A11701B09013213704422034B1A707047CF0100496E5800407658004008B50A46002101F07EFD08BD38B53322304B1A80FF
:40704000182330490B7002310A802F4A13704FF49C7204310A8002310B7002310A802B4A13704FF40271023211800232137045F6BF5102321180023213700222244B1A709F
:4070800008224FF040231A70032103F500731970204B1B78DBB220490B70204B1A8041F25122023B1A80002419250CE01C4B1B7803F0010343EA440404F003044FF4F0701F
:4070C00000F022FB013D0DB1032CEFD115B90320FFF77CFF134B4FF480721A8007221A70002211490A704820023108701A700222033B1A700D4A137843F03F03137038BD08
:407100008040004082400040864000408E4000400043004008010049A146004022420040254200400440004006400040A243004008B501F0F3FC08BD70B572B63A4A137805
:4071400043F00403137000240CE0384963001A1952000A4423445B00C8589188FFF766FF0134E4B20C2CF0D9002410E02F49A3001A1952000A4452F8500F23445B000B44AD
:407180005168B3F85820FFF7D3FF0134E4B2042CECD94FF090402649FFF71AFF254A137843F0020313701032137843F002031370214C237843F040032370A2F58632513AB6
:4071C000137843F0100313701C481D490A22FFF7AFFF1C481C490A22FFF7AAFF1B481C490A22FFF7A5FF1B481B490A22FFF7A0FF1A481B490A22FFF79BFF1A4A137843F053
:4072000008031370184E01253570FFF715FF81233370164B1D70FFF7F5FE154821460E22FFF786FF70BD00BFE8460040C8110100A800004803500140A0430040C0510040CC
